{
  "_format": "hh-sol-artifact-1",
  "contractName": "AtomFactory",
  "sourceName": "contracts/shared/AtomFactory.sol",
  "abi": [
    {
      "inputs": [],
      "stateMutability": "nonpayable",
      "type": "constructor"
    },
    {
      "inputs": [],
      "name": "FailedDeployment",
      "type": "error"
    },
    {
      "inputs": [
        {
          "internalType": "uint256",
          "name": "balance",
          "type": "uint256"
        },
        {
          "internalType": "uint256",
          "name": "needed",
          "type": "uint256"
        }
      ],
      "name": "InsufficientBalance",
      "type": "error"
    },
    {
      "anonymous": false,
      "inputs": [
        {
          "indexed": false,
          "internalType": "address",
          "name": "addr",
          "type": "address"
        }
      ],
      "name": "AtomDeployed",
      "type": "event"
    },
    {
      "inputs": [
        {
          "components": [
            {
              "internalType": "address",
              "name": "contractAddress",
              "type": "address"
            },
            {
              "internalType": "bytes",
              "name": "callData",
              "type": "bytes"
            }
          ],
          "internalType": "struct Atom.Operation[]",
          "name": "operations",
          "type": "tuple[]"
        }
      ],
      "name": "create",
      "outputs": [],
      "stateMutability": "nonpayable",
      "type": "function"
    },
    {
      "inputs": [],
      "name": "logic",
      "outputs": [
        {
          "internalType": "address",
          "name": "",
          "type": "address"
        }
      ],
      "stateMutability": "view",
      "type": "function"
    }
  ],
  "bytecode": "0x60a0604052348015600f57600080fd5b50604051601a906046565b604051809103906000f0801580156035573d6000803e3d6000fd5b506001600160a01b03166080526053565b61126f8061048583390190565b6080516104126100736000396000818160550152609a01526104126000f3fe608060405234801561001057600080fd5b50600436106100365760003560e01c80630522aed11461003b578063d7dfa0dd14610050575b600080fd5b61004e61004936600461025b565b610093565b005b6100777f000000000000000000000000000000000000000000000000000000000000000081565b6040516001600160a01b03909116815260200160405180910390f35b60006100be7f000000000000000000000000000000000000000000000000000000000000000061017c565b6040517fff1ba0f20000000000000000000000000000000000000000000000000000000081529091506001600160a01b0382169063ff1ba0f29061010890869086906004016102fb565b600060405180830381600087803b15801561012257600080fd5b505af1158015610136573d6000803e3d6000fd5b50506040516001600160a01b03841681527fd18cb652f03cee75e744e334e67b0bcc6c443ff86914a9998d27b166566e57cc9250602001905060405180910390a1505050565b600061018982600061018f565b92915050565b6000814710156101d8576040517fcf4791810000000000000000000000000000000000000000000000000000000081524760048201526024810183905260440160405180910390fd5b763d602d80600a3d3981f3363d3d373d3d3d363d730000008360601b60e81c176000526e5af43d82803e903d91602b57fd5bf38360781b176020526037600983f090506001600160a01b038116610189576040517fb06ebf3d00000000000000000000000000000000000000000000000000000000815260040160405180910390fd5b6000806020838503121561026e57600080fd5b823567ffffffffffffffff81111561028557600080fd5b8301601f8101851361029657600080fd5b803567ffffffffffffffff8111156102ad57600080fd5b8560208260051b84010111156102c257600080fd5b6020919091019590945092505050565b81835281816020850137506000828201602090810191909152601f909101601f19169091010190565b6020808252810182905260006040600584901b830181019083018583603e1936839003015b878210156103cf57868503603f19018452823581811261033f57600080fd5b890180356001600160a01b03811680821461035957600080fd5b875250602081013536829003601e1901811261037457600080fd5b0160208101903567ffffffffffffffff81111561039057600080fd5b80360382131561039f57600080fd5b604060208801526103b46040880182846102d2565b96505050602083019250602084019350600182019150610320565b509297965050505050505056fea2646970667358221220685773b39853dc136cd16ce7d0be7fa24090811aa2ee503f4eab6155222eec4e64736f6c634300081b00336080604052348015600f57600080fd5b506016601a565b60ca565b7ff0c57e16840df040f15088dc2f81fe391c3923bec73e23a9662efc9c229c6a00805468010000000000000000900460ff161560695760405163f92ee8a960e01b815260040160405180910390fd5b80546001600160401b039081161460c75780546001600160401b0319166001600160401b0390811782556040519081527fc7f505b2f371ae2175ee4913f4499e1f2633a7b5936321eed1cdaeb6115181d29060200160405180910390a15b50565b611196806100d96000396000f3fe608060405234801561001057600080fd5b50600436106100885760003560e01c8063c06785c61161005b578063c06785c6146100eb578063ea8a1af014610100578063f948e50a14610108578063ff1ba0f21461011d57600080fd5b8063200d2ed21461008d578063202e3924146100b057806356149adf146100d057806361461954146100e1575b600080fd5b60005461009a9060ff1681565b6040516100a79190610bc6565b60405180910390f35b6100c36100be366004610bee565b610130565b6040516100a79190610c87565b6001546040519081526020016100a7565b6100e9610220565b005b6100f36103b3565b6040516100a79190610c9a565b6100e9610578565b6101106105f6565b6040516100a79190610d18565b6100e961012b366004610de1565b6106fc565b6040805180820190915260008152606060208201526002828154811061015857610158610f71565b60009182526020918290206040805180820190915260029092020180546001600160a01b03168252600181018054929391929184019161019790610f87565b80601f01602080910402602001604051908101604052809291908181526020018280546101c390610f87565b80156102105780601f106101e557610100808354040283529160200191610210565b820191906000526020600020905b8154815290600101906020018083116101f357829003601f168201915b5050505050815250509050919050565b61022861091f565b6000805460ff16600281111561024057610240610bb0565b1461025e57604051630371466560e41b815260040160405180910390fd5b6000805460ff191660011781555b6001548110156103485760006002828154811061028b5761028b610f71565b9060005260206000209060020201905061033e8160010180546102ad90610f87565b80601f01602080910402602001604051908101604052809291908181526020018280546102d990610f87565b80156103265780601f106102fb57610100808354040283529160200191610326565b820191906000526020600020905b81548152906001019060200180831161030957829003601f168201915b505085546001600160a01b0316939250506109829050565b505060010161026c565b506000546040517f8080ce6980cef44bccb4edd960db2eb4d2eef3322354e66dc46ebac43c8b1b8b916103809160ff90911690610bc6565b60405180910390a16103b160017f9b779b17422d0df92223018b32b4d1fa46e071723d6817e2486d003becc55f0055565b565b60606103bd61091f565b6000805460ff1660028111156103d5576103d5610bb0565b146103f357604051630371466560e41b815260040160405180910390fd5b60015467ffffffffffffffff81111561040e5761040e610d71565b60405190808252806020026020018201604052801561045457816020015b60408051808201909152600081526060602082015281526020019060019003908161042c5790505b50905060005b60015481101561053a5760006002828154811061047957610479610f71565b6000918252602090912060029091020180546040519192506001600160a01b0316906104a9906001840190610fc1565b6000604051808303816000865af19150503d80600081146104e6576040519150601f19603f3d011682016040523d82523d6000602084013e6104eb565b606091505b508484815181106104fe576104fe610f71565b602002602001015160000185858151811061051b5761051b610f71565b602090810291909101810151019190915290151590525060010161045a565b50806040517f4c81eedf00000000000000000000000000000000000000000000000000000000815260040161056f9190610c9a565b60405180910390fd5b6000805460ff16600281111561059057610590610bb0565b146105ae57604051630371466560e41b815260040160405180910390fd5b6000805460ff191660029081179091556040517f8080ce6980cef44bccb4edd960db2eb4d2eef3322354e66dc46ebac43c8b1b8b916105ec91610bc6565b60405180910390a1565b60606002805480602002602001604051908101604052809291908181526020016000905b828210156106f3576000848152602090819020604080518082019091526002850290910180546001600160a01b03168252600181018054929391929184019161066290610f87565b80601f016020809104026020016040519081016040528092919081815260200182805461068e90610f87565b80156106db5780601f106106b0576101008083540402835291602001916106db565b820191906000526020600020905b8154815290600101906020018083116106be57829003601f168201915b5050505050815250508152602001906001019061061a565b50505050905090565b7ff0c57e16840df040f15088dc2f81fe391c3923bec73e23a9662efc9c229c6a00805468010000000000000000810460ff16159067ffffffffffffffff166000811580156107475750825b905060008267ffffffffffffffff1660011480156107645750303b155b905081158015610772575080155b156107a9576040517ff92ee8a900000000000000000000000000000000000000000000000000000000815260040160405180910390fd5b845467ffffffffffffffff1916600117855583156107dd57845468ff00000000000000001916680100000000000000001785555b6107e56109bd565b6000805460ff1916815586516001555b60015481101561088c57600287828151811061081357610813610f71565b602090810291909101810151825460018082018555600094855293839020825160029092020180547fffffffffffffffffffffffff0000000000000000000000000000000000000000166001600160a01b039092169190911781559181015190928201906108819082611085565b5050506001016107f5565b506000546040517f8080ce6980cef44bccb4edd960db2eb4d2eef3322354e66dc46ebac43c8b1b8b916108c49160ff90911690610bc6565b60405180910390a1831561091757845468ff000000000000000019168555604051600181527fc7f505b2f371ae2175ee4913f4499e1f2633a7b5936321eed1cdaeb6115181d29060200160405180910390a15b505050505050565b7f9b779b17422d0df92223018b32b4d1fa46e071723d6817e2486d003becc55f0080546001190161097c576040517f3ee5aeb500000000000000000000000000000000000000000000000000000000815260040160405180910390fd5b60029055565b6060610990838360006109cd565b9392505050565b60017f9b779b17422d0df92223018b32b4d1fa46e071723d6817e2486d003becc55f0055565b6109c5610a8a565b6103b1610af1565b606081471015610a12576040517fcf4791810000000000000000000000000000000000000000000000000000000081524760048201526024810183905260440161056f565b600080856001600160a01b03168486604051610a2e9190611144565b60006040518083038185875af1925050503d8060008114610a6b576040519150601f19603f3d011682016040523d82523d6000602084013e610a70565b606091505b5091509150610a80868383610af9565b9695505050505050565b7ff0c57e16840df040f15088dc2f81fe391c3923bec73e23a9662efc9c229c6a005468010000000000000000900460ff166103b1576040517fd7e6bcf800000000000000000000000000000000000000000000000000000000815260040160405180910390fd5b610997610a8a565b606082610b0e57610b0982610b6e565b610990565b8151158015610b2557506001600160a01b0384163b155b15610b67576040517f9996b3150000000000000000000000000000000000000000000000000000000081526001600160a01b038516600482015260240161056f565b5080610990565b805115610b7e5780518082602001fd5b6040517fd6bda27500000000000000000000000000000000000000000000000000000000815260040160405180910390fd5b634e487b7160e01b600052602160045260246000fd5b6020810160038310610be857634e487b7160e01b600052602160045260246000fd5b91905290565b600060208284031215610c0057600080fd5b5035919050565b60005b83811015610c22578181015183820152602001610c0a565b50506000910152565b60008151808452610c43816020860160208601610c07565b601f01601f19169290920160200192915050565b6001600160a01b0381511682526000602082015160406020850152610c7f6040850182610c2b565b949350505050565b6020815260006109906020830184610c57565b6000602082016020835280845180835260408501915060408160051b86010192506020860160005b82811015610d0c57603f1987860301845281518051151586526020810151905060406020870152610cf66040870182610c2b565b9550506020938401939190910190600101610cc2565b50929695505050505050565b6000602082016020835280845180835260408501915060408160051b86010192506020860160005b82811015610d0c57603f19878603018452610d5c858351610c57565b94506020938401939190910190600101610d40565b634e487b7160e01b600052604160045260246000fd5b6040805190810167ffffffffffffffff81118282101715610daa57610daa610d71565b60405290565b604051601f8201601f1916810167ffffffffffffffff81118282101715610dd957610dd9610d71565b604052919050565b600060208284031215610df357600080fd5b813567ffffffffffffffff811115610e0a57600080fd5b8201601f81018413610e1b57600080fd5b803567ffffffffffffffff811115610e3557610e35610d71565b8060051b610e4560208201610db0565b91825260208184018101929081019087841115610e6157600080fd5b6020850192505b83831015610f6657823567ffffffffffffffff811115610e8757600080fd5b85016040818a03601f19011215610e9d57600080fd5b610ea5610d87565b60208201356001600160a01b0381168114610ebf57600080fd5b8152604082013567ffffffffffffffff811115610edb57600080fd5b60208184010192505089601f830112610ef357600080fd5b813567ffffffffffffffff811115610f0d57610f0d610d71565b610f20601f8201601f1916602001610db0565b8181528b6020838601011115610f3557600080fd5b8160208501602083013760006020838301015280602084015250508084525050602082019150602083019250610e68565b979650505050505050565b634e487b7160e01b600052603260045260246000fd5b600181811c90821680610f9b57607f821691505b602082108103610fbb57634e487b7160e01b600052602260045260246000fd5b50919050565b6000808354610fcf81610f87565b600182168015610fe65760018114610ffb5761102b565b60ff198316865281151582028601935061102b565b86600052602060002060005b8381101561102357815488820152600190910190602001611007565b505081860193505b509195945050505050565b601f82111561108057806000526020600020601f840160051c8101602085101561105d5750805b601f840160051c820191505b8181101561107d5760008155600101611069565b50505b505050565b815167ffffffffffffffff81111561109f5761109f610d71565b6110b3816110ad8454610f87565b84611036565b6020601f8211600181146110e757600083156110cf5750848201515b600019600385901b1c1916600184901b17845561107d565b600084815260208120601f198516915b8281101561111757878501518255602094850194600190920191016110f7565b50848210156111355786840151600019600387901b60f8161c191681555b50505050600190811b01905550565b60008251611156818460208701610c07565b919091019291505056fea26469706673582212209613e860d6bd82971d64b03523ac143ff4f5151e7412fc91a00ba4fb062b400264736f6c634300081b0033",
  "linkReferences": {},
  "deployedLinkReferences": {}
}