{
  "_format": "hh-sol-artifact-1",
  "contractName": "BondTracker",
  "sourceName": "contracts/private/BondTracker.sol",
  "abi": [
    {
      "inputs": [
        {
          "internalType": "string",
          "name": "name",
          "type": "string"
        },
        {
          "internalType": "string",
          "name": "symbol",
          "type": "string"
        },
        {
          "internalType": "address",
          "name": "custodian",
          "type": "address"
        },
        {
          "internalType": "address",
          "name": "publicTracker",
          "type": "address"
        }
      ],
      "stateMutability": "nonpayable",
      "type": "constructor"
    },
    {
      "inputs": [
        {
          "internalType": "address",
          "name": "spender",
          "type": "address"
        },
        {
          "internalType": "uint256",
          "name": "allowance",
          "type": "uint256"
        },
        {
          "internalType": "uint256",
          "name": "needed",
          "type": "uint256"
        }
      ],
      "name": "ERC20InsufficientAllowance",
      "type": "error"
    },
    {
      "inputs": [
        {
          "internalType": "address",
          "name": "sender",
          "type": "address"
        },
        {
          "internalType": "uint256",
          "name": "balance",
          "type": "uint256"
        },
        {
          "internalType": "uint256",
          "name": "needed",
          "type": "uint256"
        }
      ],
      "name": "ERC20InsufficientBalance",
      "type": "error"
    },
    {
      "inputs": [
        {
          "internalType": "address",
          "name": "approver",
          "type": "address"
        }
      ],
      "name": "ERC20InvalidApprover",
      "type": "error"
    },
    {
      "inputs": [
        {
          "internalType": "address",
          "name": "receiver",
          "type": "address"
        }
      ],
      "name": "ERC20InvalidReceiver",
      "type": "error"
    },
    {
      "inputs": [
        {
          "internalType": "address",
          "name": "sender",
          "type": "address"
        }
      ],
      "name": "ERC20InvalidSender",
      "type": "error"
    },
    {
      "inputs": [
        {
          "internalType": "address",
          "name": "spender",
          "type": "address"
        }
      ],
      "name": "ERC20InvalidSpender",
      "type": "error"
    },
    {
      "anonymous": false,
      "inputs": [
        {
          "indexed": true,
          "internalType": "address",
          "name": "owner",
          "type": "address"
        },
        {
          "indexed": true,
          "internalType": "address",
          "name": "spender",
          "type": "address"
        },
        {
          "indexed": false,
          "internalType": "uint256",
          "name": "value",
          "type": "uint256"
        }
      ],
      "name": "Approval",
      "type": "event"
    },
    {
      "anonymous": false,
      "inputs": [
        {
          "indexed": true,
          "internalType": "address",
          "name": "contractAddress",
          "type": "address"
        },
        {
          "indexed": false,
          "internalType": "bytes",
          "name": "encodedCall",
          "type": "bytes"
        }
      ],
      "name": "PenteExternalCall",
      "type": "event"
    },
    {
      "anonymous": false,
      "inputs": [
        {
          "indexed": true,
          "internalType": "address",
          "name": "from",
          "type": "address"
        },
        {
          "indexed": true,
          "internalType": "address",
          "name": "to",
          "type": "address"
        },
        {
          "indexed": false,
          "internalType": "uint256",
          "name": "value",
          "type": "uint256"
        }
      ],
      "name": "Transfer",
      "type": "event"
    },
    {
      "inputs": [
        {
          "internalType": "address",
          "name": "owner",
          "type": "address"
        },
        {
          "internalType": "address",
          "name": "spender",
          "type": "address"
        }
      ],
      "name": "allowance",
      "outputs": [
        {
          "internalType": "uint256",
          "name": "",
          "type": "uint256"
        }
      ],
      "stateMutability": "view",
      "type": "function"
    },
    {
      "inputs": [
        {
          "internalType": "address",
          "name": "spender",
          "type": "address"
        },
        {
          "internalType": "uint256",
          "name": "value",
          "type": "uint256"
        }
      ],
      "name": "approve",
      "outputs": [
        {
          "internalType": "bool",
          "name": "",
          "type": "bool"
        }
      ],
      "stateMutability": "nonpayable",
      "type": "function"
    },
    {
      "inputs": [
        {
          "internalType": "address",
          "name": "account",
          "type": "address"
        }
      ],
      "name": "balanceOf",
      "outputs": [
        {
          "internalType": "uint256",
          "name": "",
          "type": "uint256"
        }
      ],
      "stateMutability": "view",
      "type": "function"
    },
    {
      "inputs": [
        {
          "internalType": "uint256",
          "name": "discountPrice",
          "type": "uint256"
        },
        {
          "internalType": "uint256",
          "name": "minimumDenomination",
          "type": "uint256"
        }
      ],
      "name": "beginDistribution",
      "outputs": [],
      "stateMutability": "nonpayable",
      "type": "function"
    },
    {
      "inputs": [],
      "name": "closeDistribution",
      "outputs": [],
      "stateMutability": "nonpayable",
      "type": "function"
    },
    {
      "inputs": [],
      "name": "decimals",
      "outputs": [
        {
          "internalType": "uint8",
          "name": "",
          "type": "uint8"
        }
      ],
      "stateMutability": "view",
      "type": "function"
    },
    {
      "inputs": [
        {
          "internalType": "address",
          "name": "sender",
          "type": "address"
        },
        {
          "internalType": "bytes32",
          "name": "lockId",
          "type": "bytes32"
        },
        {
          "components": [
            {
              "internalType": "address",
              "name": "to",
              "type": "address"
            },
            {
              "internalType": "uint256",
              "name": "amount",
              "type": "uint256"
            }
          ],
          "internalType": "struct INotoHooks.UnlockRecipient[]",
          "name": "recipients",
          "type": "tuple[]"
        },
        {
          "internalType": "bytes",
          "name": "data",
          "type": "bytes"
        }
      ],
      "name": "handleDelegateUnlock",
      "outputs": [],
      "stateMutability": "nonpayable",
      "type": "function"
    },
    {
      "inputs": [],
      "name": "investorList",
      "outputs": [
        {
          "internalType": "contract InvestorList",
          "name": "",
          "type": "address"
        }
      ],
      "stateMutability": "view",
      "type": "function"
    },
    {
      "inputs": [],
      "name": "name",
      "outputs": [
        {
          "internalType": "string",
          "name": "",
          "type": "string"
        }
      ],
      "stateMutability": "view",
      "type": "function"
    },
    {
      "inputs": [
        {
          "internalType": "address",
          "name": "sender",
          "type": "address"
        },
        {
          "internalType": "address",
          "name": "from",
          "type": "address"
        },
        {
          "internalType": "address",
          "name": "delegate",
          "type": "address"
        },
        {
          "internalType": "bytes",
          "name": "data",
          "type": "bytes"
        },
        {
          "components": [
            {
              "internalType": "address",
              "name": "contractAddress",
              "type": "address"
            },
            {
              "internalType": "bytes",
              "name": "encodedCall",
              "type": "bytes"
            }
          ],
          "internalType": "struct INotoHooks.PreparedTransaction",
          "name": "prepared",
          "type": "tuple"
        }
      ],
      "name": "onApproveTransfer",
      "outputs": [],
      "stateMutability": "nonpayable",
      "type": "function"
    },
    {
      "inputs": [
        {
          "internalType": "address",
          "name": "sender",
          "type": "address"
        },
        {
          "internalType": "address",
          "name": "from",
          "type": "address"
        },
        {
          "internalType": "uint256",
          "name": "amount",
          "type": "uint256"
        },
        {
          "internalType": "bytes",
          "name": "data",
          "type": "bytes"
        },
        {
          "components": [
            {
              "internalType": "address",
              "name": "contractAddress",
              "type": "address"
            },
            {
              "internalType": "bytes",
              "name": "encodedCall",
              "type": "bytes"
            }
          ],
          "internalType": "struct INotoHooks.PreparedTransaction",
          "name": "prepared",
          "type": "tuple"
        }
      ],
      "name": "onBurn",
      "outputs": [],
      "stateMutability": "nonpayable",
      "type": "function"
    },
    {
      "inputs": [
        {
          "internalType": "address",
          "name": "sender",
          "type": "address"
        },
        {
          "internalType": "bytes32",
          "name": "lockId",
          "type": "bytes32"
        },
        {
          "internalType": "address",
          "name": "delegate",
          "type": "address"
        },
        {
          "components": [
            {
              "internalType": "address",
              "name": "contractAddress",
              "type": "address"
            },
            {
              "internalType": "bytes",
              "name": "encodedCall",
              "type": "bytes"
            }
          ],
          "internalType": "struct INotoHooks.PreparedTransaction",
          "name": "prepared",
          "type": "tuple"
        }
      ],
      "name": "onDelegateLock",
      "outputs": [],
      "stateMutability": "nonpayable",
      "type": "function"
    },
    {
      "inputs": [
        {
          "internalType": "address",
          "name": "sender",
          "type": "address"
        },
        {
          "internalType": "bytes32",
          "name": "lockId",
          "type": "bytes32"
        },
        {
          "internalType": "address",
          "name": "from",
          "type": "address"
        },
        {
          "internalType": "uint256",
          "name": "amount",
          "type": "uint256"
        },
        {
          "internalType": "bytes",
          "name": "data",
          "type": "bytes"
        },
        {
          "components": [
            {
              "internalType": "address",
              "name": "contractAddress",
              "type": "address"
            },
            {
              "internalType": "bytes",
              "name": "encodedCall",
              "type": "bytes"
            }
          ],
          "internalType": "struct INotoHooks.PreparedTransaction",
          "name": "prepared",
          "type": "tuple"
        }
      ],
      "name": "onLock",
      "outputs": [],
      "stateMutability": "nonpayable",
      "type": "function"
    },
    {
      "inputs": [
        {
          "internalType": "address",
          "name": "sender",
          "type": "address"
        },
        {
          "internalType": "address",
          "name": "to",
          "type": "address"
        },
        {
          "internalType": "uint256",
          "name": "amount",
          "type": "uint256"
        },
        {
          "internalType": "bytes",
          "name": "data",
          "type": "bytes"
        },
        {
          "components": [
            {
              "internalType": "address",
              "name": "contractAddress",
              "type": "address"
            },
            {
              "internalType": "bytes",
              "name": "encodedCall",
              "type": "bytes"
            }
          ],
          "internalType": "struct INotoHooks.PreparedTransaction",
          "name": "prepared",
          "type": "tuple"
        }
      ],
      "name": "onMint",
      "outputs": [],
      "stateMutability": "nonpayable",
      "type": "function"
    },
    {
      "inputs": [
        {
          "internalType": "address",
          "name": "sender",
          "type": "address"
        },
        {
          "internalType": "bytes32",
          "name": "lockId",
          "type": "bytes32"
        },
        {
          "components": [
            {
              "internalType": "address",
              "name": "to",
              "type": "address"
            },
            {
              "internalType": "uint256",
              "name": "amount",
              "type": "uint256"
            }
          ],
          "internalType": "struct INotoHooks.UnlockRecipient[]",
          "name": "recipients",
          "type": "tuple[]"
        },
        {
          "internalType": "bytes",
          "name": "data",
          "type": "bytes"
        },
        {
          "components": [
            {
              "internalType": "address",
              "name": "contractAddress",
              "type": "address"
            },
            {
              "internalType": "bytes",
              "name": "encodedCall",
              "type": "bytes"
            }
          ],
          "internalType": "struct INotoHooks.PreparedTransaction",
          "name": "prepared",
          "type": "tuple"
        }
      ],
      "name": "onPrepareUnlock",
      "outputs": [],
      "stateMutability": "nonpayable",
      "type": "function"
    },
    {
      "inputs": [
        {
          "internalType": "address",
          "name": "sender",
          "type": "address"
        },
        {
          "internalType": "address",
          "name": "from",
          "type": "address"
        },
        {
          "internalType": "address",
          "name": "to",
          "type": "address"
        },
        {
          "internalType": "uint256",
          "name": "amount",
          "type": "uint256"
        },
        {
          "internalType": "bytes",
          "name": "data",
          "type": "bytes"
        },
        {
          "components": [
            {
              "internalType": "address",
              "name": "contractAddress",
              "type": "address"
            },
            {
              "internalType": "bytes",
              "name": "encodedCall",
              "type": "bytes"
            }
          ],
          "internalType": "struct INotoHooks.PreparedTransaction",
          "name": "prepared",
          "type": "tuple"
        }
      ],
      "name": "onTransfer",
      "outputs": [],
      "stateMutability": "nonpayable",
      "type": "function"
    },
    {
      "inputs": [
        {
          "internalType": "address",
          "name": "sender",
          "type": "address"
        },
        {
          "internalType": "bytes32",
          "name": "lockId",
          "type": "bytes32"
        },
        {
          "components": [
            {
              "internalType": "address",
              "name": "to",
              "type": "address"
            },
            {
              "internalType": "uint256",
              "name": "amount",
              "type": "uint256"
            }
          ],
          "internalType": "struct INotoHooks.UnlockRecipient[]",
          "name": "recipients",
          "type": "tuple[]"
        },
        {
          "internalType": "bytes",
          "name": "data",
          "type": "bytes"
        },
        {
          "components": [
            {
              "internalType": "address",
              "name": "contractAddress",
              "type": "address"
            },
            {
              "internalType": "bytes",
              "name": "encodedCall",
              "type": "bytes"
            }
          ],
          "internalType": "struct INotoHooks.PreparedTransaction",
          "name": "prepared",
          "type": "tuple"
        }
      ],
      "name": "onUnlock",
      "outputs": [],
      "stateMutability": "nonpayable",
      "type": "function"
    },
    {
      "inputs": [],
      "name": "setActive",
      "outputs": [],
      "stateMutability": "nonpayable",
      "type": "function"
    },
    {
      "inputs": [],
      "name": "symbol",
      "outputs": [
        {
          "internalType": "string",
          "name": "",
          "type": "string"
        }
      ],
      "stateMutability": "view",
      "type": "function"
    },
    {
      "inputs": [],
      "name": "totalSupply",
      "outputs": [
        {
          "internalType": "uint256",
          "name": "",
          "type": "uint256"
        }
      ],
      "stateMutability": "view",
      "type": "function"
    },
    {
      "inputs": [
        {
          "internalType": "address",
          "name": "to",
          "type": "address"
        },
        {
          "internalType": "uint256",
          "name": "value",
          "type": "uint256"
        }
      ],
      "name": "transfer",
      "outputs": [
        {
          "internalType": "bool",
          "name": "",
          "type": "bool"
        }
      ],
      "stateMutability": "nonpayable",
      "type": "function"
    },
    {
      "inputs": [
        {
          "internalType": "address",
          "name": "from",
          "type": "address"
        },
        {
          "internalType": "address",
          "name": "to",
          "type": "address"
        },
        {
          "internalType": "uint256",
          "name": "value",
          "type": "uint256"
        }
      ],
      "name": "transferFrom",
      "outputs": [
        {
          "internalType": "bool",
          "name": "",
          "type": "bool"
        }
      ],
      "stateMutability": "nonpayable",
      "type": "function"
    }
  ],
  "bytecode": "0x608060405260405161001090610158565b604051809103906000f08015801561002c573d6000803e3d6000fd5b50600580546001600160a01b0319166001600160a01b039290921691909117905534801561005957600080fd5b506040516135c73803806135c783398101604081905261007891610247565b838381816003610088838261035a565b506004610095828261035a565b505060068054336001600160a01b03199182168117909255600880546001600160a81b0319166101006001600160a01b038981169190910291909117909155600980548316909317909255600a8054909116918716919091179055505060405183915061010190610165565b6001600160a01b039091168152602001604051809103906000f08015801561012d573d6000803e3d6000fd5b50600b80546001600160a01b0319166001600160a01b03929092169190911790555061041892505050565b61083a8061242c83390190565b61096180612c6683390190565b634e487b7160e01b600052604160045260246000fd5b600082601f83011261019957600080fd5b81516001600160401b038111156101b2576101b2610172565b604051601f8201601f19908116603f011681016001600160401b03811182821017156101e0576101e0610172565b6040528181528382016020018510156101f857600080fd5b60005b82811015610217576020818601810151838301820152016101fb565b506000918101602001919091529392505050565b80516001600160a01b038116811461024257600080fd5b919050565b6000806000806080858703121561025d57600080fd5b84516001600160401b0381111561027357600080fd5b61027f87828801610188565b602087015190955090506001600160401b0381111561029d57600080fd5b6102a987828801610188565b9350506102b86040860161022b565b91506102c66060860161022b565b905092959194509250565b600181811c908216806102e557607f821691505b60208210810361030557634e487b7160e01b600052602260045260246000fd5b50919050565b601f82111561035557806000526020600020601f840160051c810160208510156103325750805b601f840160051c820191505b81811015610352576000815560010161033e565b50505b505050565b81516001600160401b0381111561037357610373610172565b6103878161038184546102d1565b8461030b565b6020601f8211600181146103bb57600083156103a35750848201515b600019600385901b1c1916600184901b178455610352565b600084815260208120601f198516915b828110156103eb57878501518255602094850194600190920191016103cb565b50848210156104095786840151600019600387901b60f8161c191681555b50505050600190811b01905550565b612005806104276000396000f3fe608060405234801561001057600080fd5b50600436106101825760003560e01c8063760a8c2a116100d8578063a1f8adac1161008c578063a9059cbb11610066578063a9059cbb14610315578063dd62ed3e14610328578063fa6ac1161461036157600080fd5b8063a1f8adac146102c4578063a2332996146102ef578063a2b9a3271461030257600080fd5b8063786c5065116100bd578063786c5065146102a157806387cfef00146102a957806395d89b41146102bc57600080fd5b8063760a8c2a14610286578063786096201461028e57600080fd5b80631879b0cd1161013a57806335759d481161011457806335759d48146102375780634c4351141461024a57806370a082311461025d57600080fd5b80631879b0cd1461020257806323b872dd14610215578063313ce5671461022857600080fd5b8063095ea7b31161016b578063095ea7b3146101ba57806312b6be4b146101dd57806318160ddd146101f057600080fd5b80630180e5041461018757806306fdde031461019c575b600080fd5b61019a61019536600461196f565b610374565b005b6101a46104df565b6040516101b19190611a71565b60405180910390f35b6101cd6101c8366004611a8b565b610571565b60405190151581526020016101b1565b61019a6101eb366004611ab7565b61058b565b6002545b6040519081526020016101b1565b61019a610210366004611b48565b6106e3565b6101cd610223366004611be4565b6106f9565b604051601281526020016101b1565b61019a610245366004611c25565b61071d565b61019a61025836600461196f565b61077d565b6101f461026b366004611c91565b6001600160a01b031660009081526020819052604090205490565b61019a610894565b61019a61029c366004611cae565b610a17565b61019a610a2f565b61019a6102b7366004611d3a565b610b1b565b6101a4610c8d565b600b546102d7906001600160a01b031681565b6040516001600160a01b0390911681526020016101b1565b61019a6102fd366004611d5c565b610c9c565b61019a610310366004611b48565b610d14565b6101cd610323366004611a8b565b610efb565b6101f4610336366004611dbc565b6001600160a01b03918216600090815260016020908152604080832093909416825291909152205490565b61019a61036f366004611df5565b610f09565b600554604051637dd5641160e01b815260048101889052889188916001600160a01b0390911690637dd5641190602401602060405180830381865afa1580156103c1573d6000803e3d6000fd5b505050506040513d601f19601f820116820180604052508101906103e59190611e3b565b6001600160a01b0316826001600160a01b03161461044a5760405162461bcd60e51b815260206004820152601c60248201527f53656e646572206973206e6f7420746865206c6f636b206f776e65720000000060448201526064015b60405180910390fd5b600554604051637dd5641160e01b8152600481018a90526104c5918b916001600160a01b0390911690637dd56411906024015b602060405180830381865afa15801561049a573d6000803e3d6000fd5b505050506040513d601f19601f820116820180604052508101906104be9190611e3b565b8989611062565b6104d48989898989898961115d565b505050505050505050565b6060600380546104ee90611e58565b80601f016020809104026020016040519081016040528092919081815260200182805461051a90611e58565b80156105675780601f1061053c57610100808354040283529160200191610567565b820191906000526020600020905b81548152906001019060200180831161054a57829003601f168201915b5050505050905090565b60003361057f818585611301565b60019150505b92915050565b600554604051637dd5641160e01b8152600481018790526000916001600160a01b031690637dd5641190602401602060405180830381865afa1580156105d5573d6000803e3d6000fd5b505050506040513d601f19601f820116820180604052508101906105f99190611e3b565b6005546040517fc7a5b5160000000000000000000000000000000000000000000000000000000081529192506001600160a01b03169063c7a5b5169061064790899089908990600401611e8c565b600060405180830381600087803b15801561066157600080fd5b505af1158015610675573d6000803e3d6000fd5b5050505060005b848110156106d9576106d18287878481811061069a5761069a611eeb565b6106b09260206040909202019081019150611c91565b8888858181106106c2576106c2611eeb565b90506040020160200135611313565b60010161067c565b5050505050505050565b6106f1868686868686611372565b505050505050565b600033610707858285611389565b610712858585611313565b506001949350505050565b61072a6020820182611c91565b6001600160a01b03167fcac03685d5ba4ab3e1465a8ee1b2bb21094ddbd612a969fd34f93a5be7a0ac4f6107616020840184611f01565b60405161076f929190611f48565b60405180910390a250505050565b600554604051637dd5641160e01b815260048101889052889188916001600160a01b0390911690637dd5641190602401602060405180830381865afa1580156107ca573d6000803e3d6000fd5b505050506040513d601f19601f820116820180604052508101906107ee9190611e3b565b6001600160a01b0316826001600160a01b03161461084e5760405162461bcd60e51b815260206004820152601c60248201527f53656e646572206973206e6f7420746865206c6f636b206f776e6572000000006044820152606401610441565b600554604051637dd5641160e01b8152600481018a9052610885918b916001600160a01b0390911690637dd564119060240161047d565b6104d489898989898989611421565b60095433906001600160a01b031681146108f05760405162461bcd60e51b815260206004820152601960248201527f53656e646572206973206e6f7420626f6e6420697373756572000000000000006044820152606401610441565b600360085460ff16600481111561090957610909611f77565b1461097c5760405162461bcd60e51b815260206004820152602160248201527f426f6e64206973206e6f7420726561647920746f20626520616374697661746560448201527f64000000000000000000000000000000000000000000000000000000000000006064820152608401610441565b6008805460ff1916600490811791829055604080519182526024820181526020820180516001600160e01b03167f760a8c2a00000000000000000000000000000000000000000000000000000000179052516001600160a01b0361010090930492909216917fcac03685d5ba4ab3e1465a8ee1b2bb21094ddbd612a969fd34f93a5be7a0ac4f91610a0c91611a71565b60405180910390a250565b610a26878787878787876114f3565b50505050505050565b600a5433906001600160a01b03168114610a8b5760405162461bcd60e51b815260206004820152601c60248201527f53656e646572206973206e6f7420626f6e6420637573746f6469616e000000006044820152606401610441565b6008805460ff19166003179081905560408051600481526024810182526020810180516001600160e01b03167f786c50650000000000000000000000000000000000000000000000000000000017905290516001600160a01b0361010090930492909216917fcac03685d5ba4ab3e1465a8ee1b2bb21094ddbd612a969fd34f93a5be7a0ac4f91610a0c91611a71565b600a5433906001600160a01b03168114610b775760405162461bcd60e51b815260206004820152601c60248201527f53656e646572206973206e6f7420626f6e6420637573746f6469616e000000006044820152606401610441565b600160085460ff166004811115610b9057610b90611f77565b14610bdd5760405162461bcd60e51b815260206004820152601860248201527f426f6e6420686173206e6f74206265656e2069737375656400000000000000006044820152606401610441565b6008805460ff19166002179081905560405160248101859052604481018490526101009091046001600160a01b0316907fcac03685d5ba4ab3e1465a8ee1b2bb21094ddbd612a969fd34f93a5be7a0ac4f9060640160408051601f198184030181529181526020820180516001600160e01b03167f87cfef000000000000000000000000000000000000000000000000000000000017905251610c809190611a71565b60405180910390a2505050565b6060600480546104ee90611e58565b60078054906000610cac83611fa3565b90915550610cbf90506020820182611c91565b6001600160a01b03167fcac03685d5ba4ab3e1465a8ee1b2bb21094ddbd612a969fd34f93a5be7a0ac4f610cf66020840184611f01565b604051610d04929190611f48565b60405180910390a2505050505050565b60095486906001600160a01b03808316911614610d735760405162461bcd60e51b815260206004820152601960248201527f53656e646572206973206e6f7420626f6e6420697373756572000000000000006044820152606401610441565b600a546001600160a01b03878116911614610dd05760405162461bcd60e51b815260206004820181905260248201527f426f6e64206d7573742062652069737375656420746f20637573746f6469616e6044820152606401610441565b600060085460ff166004811115610de957610de9611f77565b14610e365760405162461bcd60e51b815260206004820152601c60248201527f426f6e642068617320616c7265616479206265656e20697373756564000000006044820152606401610441565b610e4487878787878761154c565b6008805460ff1916600117908190556040516001600160a01b03888116602483015260448201889052610100909204909116907fcac03685d5ba4ab3e1465a8ee1b2bb21094ddbd612a969fd34f93a5be7a0ac4f9060640160408051601f198184030181529181526020820180516001600160e01b03167f0e50bc110000000000000000000000000000000000000000000000000000000017905251610eea9190611a71565b60405180910390a250505050505050565b60003361057f818585611313565b8686806001600160a01b0316826001600160a01b031614610f6c5760405162461bcd60e51b815260206004820152601e60248201527f53656e646572206973206e6f74207468652066726f6d206164647265737300006044820152606401610441565b610f7889898989611556565b610f87898989898989896115df565b600260085460ff166004811115610fa057610fa0611f77565b148015610fba5750600a546001600160a01b038981169116145b156104d457600854604051602481018890526101009091046001600160a01b0316907fcac03685d5ba4ab3e1465a8ee1b2bb21094ddbd612a969fd34f93a5be7a0ac4f9060440160408051601f198184030181529181526020820180516001600160e01b03167f93824a3e000000000000000000000000000000000000000000000000000000001790525161104f9190611a71565b60405180910390a2505050505050505050565b60005b8181101561115657600b546001600160a01b031663980afa7a868686868681811061109257611092611eeb565b6110a89260206040909202019081019150611c91565b8787878181106110ba576110ba611eeb565b6040805160e089901b7fffffffff000000000000000000000000000000000000000000000000000000001681526001600160a01b039788166004820152958716602487015293909516604485015250920290910160200135606482015260840160006040518083038186803b15801561113257600080fd5b505afa158015611146573d6000803e3d6000fd5b5050600190920191506110659050565b5050505050565b600554604051637dd5641160e01b8152600481018890526000916001600160a01b031690637dd5641190602401602060405180830381865afa1580156111a7573d6000803e3d6000fd5b505050506040513d601f19601f820116820180604052508101906111cb9190611e3b565b6005546040517f54b390a00000000000000000000000000000000000000000000000000000000081529192506001600160a01b0316906354b390a090611219908a908a908a90600401611e8c565b600060405180830381600087803b15801561123357600080fd5b505af1158015611247573d6000803e3d6000fd5b5050505060005b8581101561129c576112948288888481811061126c5761126c611eeb565b6112829260206040909202019081019150611c91565b8989858181106106c2576106c2611eeb565b60010161124e565b506112aa6020830183611c91565b6001600160a01b03167fcac03685d5ba4ab3e1465a8ee1b2bb21094ddbd612a969fd34f93a5be7a0ac4f6112e16020850185611f01565b6040516112ef929190611f48565b60405180910390a25050505050505050565b61130e83838360016115f7565b505050565b6001600160a01b03831661133d57604051634b637e8f60e11b815260006004820152602401610441565b6001600160a01b0382166113675760405163ec442f0560e01b815260006004820152602401610441565b61130e8383836116fe565b61137c8585611841565b610cbf6020820182611c91565b6001600160a01b0383811660009081526001602090815260408083209386168352929052205460001981101561141b578181101561140c576040517ffb8f41b20000000000000000000000000000000000000000000000000000000081526001600160a01b03841660048201526024810182905260448101839052606401610441565b61141b848484840360006115f7565b50505050565b6005546040517fcf0f332f0000000000000000000000000000000000000000000000000000000081526001600160a01b039091169063cf0f332f9061146e90899089908990600401611e8c565b600060405180830381600087803b15801561148857600080fd5b505af115801561149c573d6000803e3d6000fd5b506114ae925050506020820182611c91565b6001600160a01b03167fcac03685d5ba4ab3e1465a8ee1b2bb21094ddbd612a969fd34f93a5be7a0ac4f6114e56020840184611f01565b604051610eea929190611f48565b6005546040517f207cbd5b000000000000000000000000000000000000000000000000000000008152600481018890526001600160a01b038781166024830152604482018790529091169063207cbd5b9060640161146e565b61137c858561187b565b600b546040517f980afa7a0000000000000000000000000000000000000000000000000000000081526001600160a01b03868116600483015285811660248301528481166044830152606482018490529091169063980afa7a9060840160006040518083038186803b1580156115cb57600080fd5b505afa1580156106d9573d6000803e3d6000fd5b6115ea868686611313565b6114ae6020820182611c91565b6001600160a01b03841661163a576040517fe602df0500000000000000000000000000000000000000000000000000000000815260006004820152602401610441565b6001600160a01b03831661167d576040517f94280d6200000000000000000000000000000000000000000000000000000000815260006004820152602401610441565b6001600160a01b038085166000908152600160209081526040808320938716835292905220829055801561141b57826001600160a01b0316846001600160a01b03167f8c5be1e5ebec7d5bd14f71427d1e84f3dd0314c0f7b2291e5b200ac8c7c3b925846040516116f091815260200190565b60405180910390a350505050565b6001600160a01b03831661172957806002600082825461171e9190611fbc565b909155506117b49050565b6001600160a01b03831660009081526020819052604090205481811015611795576040517fe450d38c0000000000000000000000000000000000000000000000000000000081526001600160a01b03851660048201526024810182905260448101839052606401610441565b6001600160a01b03841660009081526020819052604090209082900390555b6001600160a01b0382166117d0576002805482900390556117ef565b6001600160a01b03821660009081526020819052604090208054820190555b816001600160a01b0316836001600160a01b03167fddf252ad1be2c89b69c2b068fc378daa952ba7f163c4a11628f55a4df523b3ef8360405161183491815260200190565b60405180910390a3505050565b6001600160a01b03821661186b57604051634b637e8f60e11b815260006004820152602401610441565b611877826000836116fe565b5050565b6001600160a01b0382166118a55760405163ec442f0560e01b815260006004820152602401610441565b611877600083836116fe565b6001600160a01b03811681146118c657600080fd5b50565b60008083601f8401126118db57600080fd5b50813567ffffffffffffffff8111156118f357600080fd5b6020830191508360208260061b850101111561190e57600080fd5b9250929050565b60008083601f84011261192757600080fd5b50813567ffffffffffffffff81111561193f57600080fd5b60208301915083602082850101111561190e57600080fd5b60006040828403121561196957600080fd5b50919050565b600080600080600080600060a0888a03121561198a57600080fd5b8735611995816118b1565b965060208801359550604088013567ffffffffffffffff8111156119b857600080fd5b6119c48a828b016118c9565b909650945050606088013567ffffffffffffffff8111156119e457600080fd5b6119f08a828b01611915565b909450925050608088013567ffffffffffffffff811115611a1057600080fd5b611a1c8a828b01611957565b91505092959891949750929550565b6000815180845260005b81811015611a5157602081850181015186830182015201611a35565b506000602082860101526020601f19601f83011685010191505092915050565b602081526000611a846020830184611a2b565b9392505050565b60008060408385031215611a9e57600080fd5b8235611aa9816118b1565b946020939093013593505050565b60008060008060008060808789031215611ad057600080fd5b8635611adb816118b1565b955060208701359450604087013567ffffffffffffffff811115611afe57600080fd5b611b0a89828a016118c9565b909550935050606087013567ffffffffffffffff811115611b2a57600080fd5b611b3689828a01611915565b979a9699509497509295939492505050565b60008060008060008060a08789031215611b6157600080fd5b8635611b6c816118b1565b95506020870135611b7c816118b1565b945060408701359350606087013567ffffffffffffffff811115611b9f57600080fd5b611bab89828a01611915565b909450925050608087013567ffffffffffffffff811115611bcb57600080fd5b611bd789828a01611957565b9150509295509295509295565b600080600060608486031215611bf957600080fd5b8335611c04816118b1565b92506020840135611c14816118b1565b929592945050506040919091013590565b60008060008060808587031215611c3b57600080fd5b8435611c46816118b1565b9350602085013592506040850135611c5d816118b1565b9150606085013567ffffffffffffffff811115611c7957600080fd5b611c8587828801611957565b91505092959194509250565b600060208284031215611ca357600080fd5b8135611a84816118b1565b600080600080600080600060c0888a031215611cc957600080fd5b8735611cd4816118b1565b9650602088013595506040880135611ceb816118b1565b945060608801359350608088013567ffffffffffffffff811115611d0e57600080fd5b611d1a8a828b01611915565b90945092505060a088013567ffffffffffffffff811115611a1057600080fd5b60008060408385031215611d4d57600080fd5b50508035926020909101359150565b60008060008060008060a08789031215611d7557600080fd5b8635611d80816118b1565b95506020870135611d90816118b1565b94506040870135611da0816118b1565b9350606087013567ffffffffffffffff811115611b9f57600080fd5b60008060408385031215611dcf57600080fd5b8235611dda816118b1565b91506020830135611dea816118b1565b809150509250929050565b600080600080600080600060c0888a031215611e1057600080fd5b8735611e1b816118b1565b96506020880135611e2b816118b1565b95506040880135611ceb816118b1565b600060208284031215611e4d57600080fd5b8151611a84816118b1565b600181811c90821680611e6c57607f821691505b60208210810361196957634e487b7160e01b600052602260045260246000fd5b838152604060208201819052810182905260008360608301825b85811015611ee0578235611eb9816118b1565b6001600160a01b031682526020838101359083015260409283019290910190600101611ea6565b509695505050505050565b634e487b7160e01b600052603260045260246000fd5b6000808335601e19843603018112611f1857600080fd5b83018035915067ffffffffffffffff821115611f3357600080fd5b60200191503681900382131561190e57600080fd5b60208152816020820152818360408301376000818301604090810191909152601f909201601f19160101919050565b634e487b7160e01b600052602160045260246000fd5b634e487b7160e01b600052601160045260246000fd5b600060018201611fb557611fb5611f8d565b5060010190565b8082018082111561058557610585611f8d56fea264697066735822122085839559219f3934e38003e1c18796bbce712af9918948dba2655e1aee3346f064736f6c634300081b00336080604052348015600f57600080fd5b5061081b8061001f6000396000f3fe608060405234801561001057600080fd5b50600436106100885760003560e01c80639ae697bf1161005b5780639ae697bf14610129578063c7a5b51614610149578063cf0f332f1461015c578063d6f27b581461016f57600080fd5b8063207cbd5b1461008d5780633736f85d146100a257806354b390a0146100d55780637dd56411146100e8575b600080fd5b6100a061009b3660046105ce565b61018f565b005b6100c26100b0366004610606565b60026020526000908152604090205481565b6040519081526020015b60405180910390f35b6100a06100e336600461062a565b6101f2565b6101116100f63660046106ab565b6000908152602081905260409020546001600160a01b031690565b6040516001600160a01b0390911681526020016100cc565b6100c2610137366004610606565b60016020526000908152604090205481565b6100a061015736600461062a565b6102f7565b6100a061016a36600461062a565b6103a5565b61018261017d3660046106ab565b61049e565b6040516100cc91906106c4565b600083815260208181526040808320805473ffffffffffffffffffffffffffffffffffffffff19166001600160a01b0387169081178255600180830187905590855290925282208054919284926101e7908490610763565b909155505050505050565b6000838152602081905260408120905b828110156102955783838281811061021c5761021c61077c565b905060400201602001358260010160008282546102399190610792565b9091555084905083828181106102515761025161077c565b84546001600160a01b0316600090815260016020908152604080832080549490910295909501013593925090610288908490610792565b9091555050600101610202565b506102a460028201600061055e565b80600101546000036102f1576000848152602081905260408120805473ffffffffffffffffffffffffffffffffffffffff1916815560018101829055906102ee600283018261055e565b50505b50505050565b6000838152602081905260408120905b6002820154811015610399578160020181815481106103285761032861077c565b906000526020600020906002020160010154600260008460020184815481106103535761035361077c565b600091825260208083206002909202909101546001600160a01b031683528201929092526040018120805490919061038c908490610792565b9091555050600101610307565b506102f18484846101f2565b6000838152602081905260408120906103c290600283019061055e565b60005b82811015610497578383828181106103df576103df61077c565b90506040020160200135600260008686858181106103ff576103ff61077c565b6104159260206040909202019081019150610606565b6001600160a01b03166001600160a01b0316815260200190815260200160002060008282546104449190610763565b90915550506002820184848381811061045f5761045f61077c565b83546001810185556000948552602090942060409091029290920192600202909101905061048d82826107a5565b50506001016103c5565b5050505050565b6040805160608082018352600080835260208084018290528385018390528582528181528482208551938401865280546001600160a01b03168452600181015484830152600281018054875181850281018501895281815296979596929587019492939192909184015b82821015610550576000848152602090819020604080518082019091526002850290910180546001600160a01b03168252600190810154828401529083529092019101610508565b505050915250909392505050565b508054600082556002029060005260206000209081019061057f9190610582565b50565b5b808211156105b557805473ffffffffffffffffffffffffffffffffffffffff1916815560006001820155600201610583565b5090565b6001600160a01b038116811461057f57600080fd5b6000806000606084860312156105e357600080fd5b8335925060208401356105f5816105b9565b929592945050506040919091013590565b60006020828403121561061857600080fd5b8135610623816105b9565b9392505050565b60008060006040848603121561063f57600080fd5b83359250602084013567ffffffffffffffff81111561065d57600080fd5b8401601f8101861361066e57600080fd5b803567ffffffffffffffff81111561068557600080fd5b8660208260061b840101111561069a57600080fd5b939660209190910195509293505050565b6000602082840312156106bd57600080fd5b5035919050565b602081526000608082016001600160a01b03845116602084015260208401516040840152604084015160608085015281815180845260a086019150602083019350600092505b808310156107435783516001600160a01b038151168352602081015160208401525060408201915060208401935060018301925061070a565b5095945050505050565b634e487b7160e01b600052601160045260246000fd5b808201808211156107765761077661074d565b92915050565b634e487b7160e01b600052603260045260246000fd5b818103818111156107765761077661074d565b81356107b0816105b9565b6001600160a01b03811673ffffffffffffffffffffffffffffffffffffffff198354161782555060208201356001820155505056fea26469706673582212204a111fcf6a75a6a0f732173120581198edbd412586fcd62e8a51701cfeafdc5d64736f6c634300081b0033608060405234801561001057600080fd5b5060405161096138038061096183398101604081905261002f916100be565b806001600160a01b03811661005e57604051631e4fbdf760e01b81526000600482015260240160405180910390fd5b6100678161006e565b50506100ee565b600080546001600160a01b038381166001600160a01b0319831681178455604051919092169283917f8be0079c531659141344cd1fd0a4f28419497f9722a3daafe3b4186f6b6457e09190a35050565b6000602082840312156100d057600080fd5b81516001600160a01b03811681146100e757600080fd5b9392505050565b610864806100fd6000396000f3fe608060405234801561001057600080fd5b50600436106100be5760003560e01c80638da5cb5b11610076578063c3c5a5471161005b578063c3c5a54714610160578063e641bde11461019b578063f2fde38b146101ae57600080fd5b80638da5cb5b1461013c578063980afa7a1461014d57600080fd5b80633feb5f2b116100a75780633feb5f2b146100f65780634271497814610121578063715018a61461013457600080fd5b806318898048146100c3578063277b7d43146100e1575b600080fd5b6100cb6101c1565b6040516100d89190610676565b60405180910390f35b6100f46100ef3660046106c2565b610284565b005b610109610104366004610739565b6102ce565b6040516001600160a01b0390911681526020016100d8565b6100f461012f36600461076e565b6102f8565b6100f46103fd565b6000546001600160a01b0316610109565b6100f461015b366004610790565b610411565b61018b61016e36600461076e565b6001600160a01b0316600090815260026020526040902054151590565b60405190151581526020016100d8565b6100f46101a936600461076e565b61047c565b6100f46101bc36600461076e565b61057c565b60015460609060009067ffffffffffffffff8111156101e2576101e26107db565b60405190808252806020026020018201604052801561020b578160200160208202803683370190505b50905060005b60015481101561027e576001818154811061022e5761022e6107f1565b9060005260206000200160009054906101000a90046001600160a01b031682828151811061025e5761025e6107f1565b6001600160a01b0390921660209283029190910190910152600101610211565b50919050565b61028c6105d3565b60005b818110156102c9576102c18383838181106102ac576102ac6107f1565b90506020020160208101906101a9919061076e565b60010161028f565b505050565b600181815481106102de57600080fd5b6000918252602090912001546001600160a01b0316905081565b6103006105d3565b6001600160a01b0381166000908152600260205260408120549081900361036e5760405162461bcd60e51b815260206004820152601860248201527f496e766573746f7220616c72656164792072656d6f766564000000000000000060448201526064015b60405180910390fd5b6001600160a01b03821660009081526002602052604081205560016103938183610807565b815481106103a3576103a36107f1565b60009182526020822001805473ffffffffffffffffffffffffffffffffffffffff191690556040516001600160a01b038416917fba0013628ccb89af5bb18edf764d3a7b35c07b894848b8e6fd3434719de39c7d91a25050565b6104056105d3565b61040f6000610619565b565b6001600160a01b0382166000908152600260205260409020546104765760405162461bcd60e51b815260206004820152601a60248201527f496e766573746f72206973206e6f7420726567697374657265640000000000006044820152606401610365565b50505050565b6104846105d3565b6001600160a01b038116600090815260026020526040902054156104ea5760405162461bcd60e51b815260206004820152601660248201527f496e766573746f7220616c7265616479206164646564000000000000000000006044820152606401610365565b6001805480820182557fb10e2d527612073b26eecdfd717e6a320cf44b4afac2b0732d9fcbe2b7fa0cf601805473ffffffffffffffffffffffffffffffffffffffff19166001600160a01b03841690811790915590546000828152600260205260408082209290925590517f62e6a5118be03f9bfedb79b0ed7ed75ee4a9e15fc4c69d2c4976acde26fa2d5f9190a250565b6105846105d3565b6001600160a01b0381166105c7576040517f1e4fbdf700000000000000000000000000000000000000000000000000000000815260006004820152602401610365565b6105d081610619565b50565b6000546001600160a01b0316331461040f576040517f118cdaa7000000000000000000000000000000000000000000000000000000008152336004820152602401610365565b600080546001600160a01b0383811673ffffffffffffffffffffffffffffffffffffffff19831681178455604051919092169283917f8be0079c531659141344cd1fd0a4f28419497f9722a3daafe3b4186f6b6457e09190a35050565b602080825282518282018190526000918401906040840190835b818110156106b75783516001600160a01b0316835260209384019390920191600101610690565b509095945050505050565b600080602083850312156106d557600080fd5b823567ffffffffffffffff8111156106ec57600080fd5b8301601f810185136106fd57600080fd5b803567ffffffffffffffff81111561071457600080fd5b8560208260051b840101111561072957600080fd5b6020919091019590945092505050565b60006020828403121561074b57600080fd5b5035919050565b80356001600160a01b038116811461076957600080fd5b919050565b60006020828403121561078057600080fd5b61078982610752565b9392505050565b600080600080608085870312156107a657600080fd5b6107af85610752565b93506107bd60208601610752565b92506107cb60408601610752565b9396929550929360600135925050565b634e487b7160e01b600052604160045260246000fd5b634e487b7160e01b600052603260045260246000fd5b8181038181111561082857634e487b7160e01b600052601160045260246000fd5b9291505056fea2646970667358221220229a507e616ccbffb4f861be897be46e7528fce3d1925035aa8524e411bf62f164736f6c634300081b0033",
  "linkReferences": {},
  "deployedLinkReferences": {}
}