{
  "_format": "hh-sol-artifact-1",
  "contractName": "BondTrackerPublic",
  "sourceName": "contracts/shared/BondTrackerPublic.sol",
  "abi": [
    {
      "inputs": [
        {
          "internalType": "address",
          "name": "owner",
          "type": "address"
        },
        {
          "internalType": "uint256",
          "name": "issueDate_",
          "type": "uint256"
        },
        {
          "internalType": "uint256",
          "name": "maturityDate_",
          "type": "uint256"
        },
        {
          "internalType": "address",
          "name": "currencyToken_",
          "type": "address"
        },
        {
          "internalType": "uint256",
          "name": "faceValue_",
          "type": "uint256"
        }
      ],
      "stateMutability": "nonpayable",
      "type": "constructor"
    },
    {
      "inputs": [
        {
          "internalType": "address",
          "name": "owner",
          "type": "address"
        }
      ],
      "name": "OwnableInvalidOwner",
      "type": "error"
    },
    {
      "inputs": [
        {
          "internalType": "address",
          "name": "account",
          "type": "address"
        }
      ],
      "name": "OwnableUnauthorizedAccount",
      "type": "error"
    },
    {
      "anonymous": false,
      "inputs": [
        {
          "indexed": true,
          "internalType": "uint256",
          "name": "issueDate",
          "type": "uint256"
        },
        {
          "indexed": true,
          "internalType": "uint256",
          "name": "maturityDate",
          "type": "uint256"
        },
        {
          "indexed": true,
          "internalType": "uint256",
          "name": "faceValue",
          "type": "uint256"
        },
        {
          "indexed": false,
          "internalType": "address",
          "name": "currencyToken",
          "type": "address"
        }
      ],
      "name": "BondDetailsChanged",
      "type": "event"
    },
    {
      "anonymous": false,
      "inputs": [
        {
          "indexed": true,
          "internalType": "address",
          "name": "newCustodian",
          "type": "address"
        }
      ],
      "name": "CustodianChanged",
      "type": "event"
    },
    {
      "anonymous": false,
      "inputs": [
        {
          "indexed": true,
          "internalType": "address",
          "name": "previousOwner",
          "type": "address"
        },
        {
          "indexed": true,
          "internalType": "address",
          "name": "newOwner",
          "type": "address"
        }
      ],
      "name": "OwnershipTransferred",
      "type": "event"
    },
    {
      "anonymous": false,
      "inputs": [
        {
          "indexed": false,
          "internalType": "enum BondTrackerPublic.Status",
          "name": "newStatus",
          "type": "uint8"
        }
      ],
      "name": "StatusChanged",
      "type": "event"
    },
    {
      "inputs": [
        {
          "internalType": "uint256",
          "name": "discountPrice",
          "type": "uint256"
        },
        {
          "internalType": "uint256",
          "name": "minimumDenomination",
          "type": "uint256"
        }
      ],
      "name": "beginDistribution",
      "outputs": [],
      "stateMutability": "nonpayable",
      "type": "function"
    },
    {
      "inputs": [],
      "name": "closeDistribution",
      "outputs": [],
      "stateMutability": "nonpayable",
      "type": "function"
    },
    {
      "inputs": [],
      "name": "currencyToken",
      "outputs": [
        {
          "internalType": "address",
          "name": "",
          "type": "address"
        }
      ],
      "stateMutability": "view",
      "type": "function"
    },
    {
      "inputs": [],
      "name": "custodian",
      "outputs": [
        {
          "internalType": "address",
          "name": "",
          "type": "address"
        }
      ],
      "stateMutability": "view",
      "type": "function"
    },
    {
      "inputs": [],
      "name": "distribution",
      "outputs": [
        {
          "internalType": "contract TokenDistribution",
          "name": "",
          "type": "address"
        }
      ],
      "stateMutability": "view",
      "type": "function"
    },
    {
      "inputs": [
        {
          "internalType": "uint256",
          "name": "amount",
          "type": "uint256"
        }
      ],
      "name": "onDistribute",
      "outputs": [],
      "stateMutability": "nonpayable",
      "type": "function"
    },
    {
      "inputs": [
        {
          "internalType": "address",
          "name": "to",
          "type": "address"
        },
        {
          "internalType": "uint256",
          "name": "amount",
          "type": "uint256"
        }
      ],
      "name": "onIssue",
      "outputs": [],
      "stateMutability": "nonpayable",
      "type": "function"
    },
    {
      "inputs": [],
      "name": "owner",
      "outputs": [
        {
          "internalType": "address",
          "name": "",
          "type": "address"
        }
      ],
      "stateMutability": "view",
      "type": "function"
    },
    {
      "inputs": [],
      "name": "renounceOwnership",
      "outputs": [],
      "stateMutability": "nonpayable",
      "type": "function"
    },
    {
      "inputs": [],
      "name": "setActive",
      "outputs": [],
      "stateMutability": "nonpayable",
      "type": "function"
    },
    {
      "inputs": [],
      "name": "totalSupply",
      "outputs": [
        {
          "internalType": "uint256",
          "name": "",
          "type": "uint256"
        }
      ],
      "stateMutability": "view",
      "type": "function"
    },
    {
      "inputs": [
        {
          "internalType": "address",
          "name": "newOwner",
          "type": "address"
        }
      ],
      "name": "transferOwnership",
      "outputs": [],
      "stateMutability": "nonpayable",
      "type": "function"
    }
  ],
  "bytecode": "0x608060405234801561001057600080fd5b506040516111b33803806111b383398101604081905261002f916101f0565b846001600160a01b03811661005f57604051631e4fbdf760e01b8152600060048201526024015b60405180910390fd5b61006881610184565b508383116100c75760405162461bcd60e51b815260206004820152602660248201527f4d617475726974792064617465206d757374206265206166746572206973737560448201526565206461746560d01b6064820152608401610056565b600380546001600160a01b0319166001600160a01b0384161790556005805460ff191690556006849055600783905560088190556040517fafa725e7f44cadb687a7043853fa1a7e7b8f0da74ce87ec546e9420f04da8c1e9061012c90600090610243565b60405180910390a16003546040516001600160a01b0390911681528190849086907fe749e22f2288257cde5ad87a6c549254f13b7419048cd5d301cbbc169d25d7949060200160405180910390a4505050505061026b565b600080546001600160a01b038381166001600160a01b0319831681178455604051919092169283917f8be0079c531659141344cd1fd0a4f28419497f9722a3daafe3b4186f6b6457e09190a35050565b80516001600160a01b03811681146101eb57600080fd5b919050565b600080600080600060a0868803121561020857600080fd5b610211866101d4565b602087015160408801519196509450925061022e606087016101d4565b60809690960151949793965091949392915050565b602081016006831061026557634e487b7160e01b600052602160045260246000fd5b91905290565b610f398061027a6000396000f3fe608060405234801561001057600080fd5b50600436106100d45760003560e01c8063760a8c2a116100815780638da5cb5b1161005b5780638da5cb5b1461018657806393824a3e14610197578063f2fde38b146101aa57600080fd5b8063760a8c2a14610163578063786c50651461016b57806387cfef001461017357600080fd5b80635ee58efc116100b25780635ee58efc146101355780636b2fa37414610148578063715018a61461015b57600080fd5b80630e50bc11146100d957806318160ddd146100ee578063375b74c31461010a575b600080fd5b6100ec6100e736600461083c565b6101bd565b005b6100f760045481565b6040519081526020015b60405180910390f35b60015461011d906001600160a01b031681565b6040516001600160a01b039091168152602001610101565b60025461011d906001600160a01b031681565b60035461011d906001600160a01b031681565b6100ec61026c565b6100ec610280565b6100ec61036d565b6100ec610181366004610866565b6103ef565b6000546001600160a01b031661011d565b6100ec6101a5366004610888565b610557565b6100ec6101b83660046108a1565b61071c565b6101c5610770565b6001805473ffffffffffffffffffffffffffffffffffffffff19166001600160a01b03841617815560048290556005805460ff1916821790556040517fafa725e7f44cadb687a7043853fa1a7e7b8f0da74ce87ec546e9420f04da8c1e9161022c916108d9565b60405180910390a16040516001600160a01b038316907fd947b651b9920db18901a5bc4edc0b5f5d1fc4a6b326b171f3b3c3c6395590ef90600090a25050565b610274610770565b61027e60006107b6565b565b610288610770565b60046005805460ff16908111156102a1576102a16108c3565b146103195760405162461bcd60e51b815260206004820152602160248201527f426f6e64206973206e6f7420726561647920746f20626520616374697661746560448201527f640000000000000000000000000000000000000000000000000000000000000060648201526084015b60405180910390fd5b60058054819060ff19166001825b02179055506005546040517fafa725e7f44cadb687a7043853fa1a7e7b8f0da74ce87ec546e9420f04da8c1e916103639160ff909116906108d9565b60405180910390a1565b610375610770565b60036005805460ff169081111561038e5761038e6108c3565b146103db5760405162461bcd60e51b815260206004820152601c60248201527f446973747269627574696f6e206973206e6f7420636f6d706c657465000000006044820152606401610310565b600580546004919060ff1916600183610327565b6103f7610770565b6002546001600160a01b0316156104765760405162461bcd60e51b815260206004820152602960248201527f446973747269627574696f6e2068617320616c7265616479206265656e20696e60448201527f697469616c697a656400000000000000000000000000000000000000000000006064820152608401610310565b6004546003546040513092916001600160a01b0316908590859061049990610813565b6001600160a01b03958616815260208101949094529390911660408301526060820152608081019190915260a001604051809103906000f0801580156104e3573d6000803e3d6000fd5b506002805473ffffffffffffffffffffffffffffffffffffffff19166001600160a01b03929092169190911781556005805460ff1916821790556040517fafa725e7f44cadb687a7043853fa1a7e7b8f0da74ce87ec546e9420f04da8c1e9161054b916108d9565b60405180910390a15050565b61055f610770565b6002546001600160a01b03166105dd5760405162461bcd60e51b815260206004820152602560248201527f446973747269627574696f6e20686173206e6f74206265656e20696e6974696160448201527f6c697a65640000000000000000000000000000000000000000000000000000006064820152608401610310565b6002546040517fefef39a1000000000000000000000000000000000000000000000000000000008152600481018390526001600160a01b039091169063efef39a190602401600060405180830381600087803b15801561063c57600080fd5b505af1158015610650573d6000803e3d6000fd5b50505050600260009054906101000a90046001600160a01b03166001600160a01b0316638324bb516040518163ffffffff1660e01b8152600401602060405180830381865afa1580156106a7573d6000803e3d6000fd5b505050506040513d601f19601f820116820180604052508101906106cb9190610901565b600003610719576005805460ff191660039081179091556040517fafa725e7f44cadb687a7043853fa1a7e7b8f0da74ce87ec546e9420f04da8c1e91610710916108d9565b60405180910390a15b50565b610724610770565b6001600160a01b038116610767576040517f1e4fbdf700000000000000000000000000000000000000000000000000000000815260006004820152602401610310565b610719816107b6565b6000546001600160a01b0316331461027e576040517f118cdaa7000000000000000000000000000000000000000000000000000000008152336004820152602401610310565b600080546001600160a01b0383811673ffffffffffffffffffffffffffffffffffffffff19831681178455604051919092169283917f8be0079c531659141344cd1fd0a4f28419497f9722a3daafe3b4186f6b6457e09190a35050565b6105e98061091b83390190565b80356001600160a01b038116811461083757600080fd5b919050565b6000806040838503121561084f57600080fd5b61085883610820565b946020939093013593505050565b6000806040838503121561087957600080fd5b50508035926020909101359150565b60006020828403121561089a57600080fd5b5035919050565b6000602082840312156108b357600080fd5b6108bc82610820565b9392505050565b634e487b7160e01b600052602160045260246000fd5b60208101600683106108fb57634e487b7160e01b600052602160045260246000fd5b91905290565b60006020828403121561091357600080fd5b505191905056fe608060405234801561001057600080fd5b506040516105e93803806105e983398101604081905261002f91610112565b338061005557604051631e4fbdf760e01b81526000600482015260240160405180910390fd5b61005e816100a6565b50600180546001600160a01b03199081166001600160a01b03978816179091556002859055600394909455600480549094169290941691909117909155600555600655610162565b600080546001600160a01b038381166001600160a01b0319831681178455604051919092169283917f8be0079c531659141344cd1fd0a4f28419497f9722a3daafe3b4186f6b6457e09190a35050565b80516001600160a01b038116811461010d57600080fd5b919050565b600080600080600060a0868803121561012a57600080fd5b610133866100f6565b60208701519095509350610149604087016100f6565b6060870151608090970151959894975095949392505050565b610478806101716000396000f3fe608060405234801561001057600080fd5b50600436106100c95760003560e01c80638da5cb5b11610081578063efef39a11161005b578063efef39a11461015e578063f2fde38b14610171578063fc0c546a1461018457600080fd5b80638da5cb5b14610131578063defd6c5f14610142578063e75722301461014b57600080fd5b80636d86acc4116100b25780636d86acc414610115578063715018a61461011e5780638324bb511461012857600080fd5b80633013ce29146100ce5780634385ec46146100fe575b600080fd5b6004546100e1906001600160a01b031681565b6040516001600160a01b0390911681526020015b60405180910390f35b61010760065481565b6040519081526020016100f5565b61010760025481565b610126610197565b005b61010760035481565b6000546001600160a01b03166100e1565b61010760055481565b610107610159366004610397565b6101ab565b61012661016c366004610397565b61021c565b61012661017f3660046103b0565b610292565b6001546100e1906001600160a01b031681565b61019f6102e9565b6101a9600061032f565b565b600080600554836101bc91906103f6565b9050600654816101cc919061040d565b15610216576006546040517f387c99e10000000000000000000000000000000000000000000000000000000081526004810191909152602481018290526044015b60405180910390fd5b92915050565b6102246102e9565b60035481111561026e576003546040517fcf47918100000000000000000000000000000000000000000000000000000000815260048101919091526024810182905260440161020d565b610277816101ab565b50806003600082825461028a919061042f565b909155505050565b61029a6102e9565b6001600160a01b0381166102dd576040517f1e4fbdf70000000000000000000000000000000000000000000000000000000081526000600482015260240161020d565b6102e68161032f565b50565b6000546001600160a01b031633146101a9576040517f118cdaa700000000000000000000000000000000000000000000000000000000815233600482015260240161020d565b600080546001600160a01b038381167fffffffffffffffffffffffff0000000000000000000000000000000000000000831681178455604051919092169283917f8be0079c531659141344cd1fd0a4f28419497f9722a3daafe3b4186f6b6457e09190a35050565b6000602082840312156103a957600080fd5b5035919050565b6000602082840312156103c257600080fd5b81356001600160a01b03811681146103d957600080fd5b9392505050565b634e487b7160e01b600052601160045260246000fd5b8082028115828204841417610216576102166103e0565b60008261042a57634e487b7160e01b600052601260045260246000fd5b500690565b81810381811115610216576102166103e056fea2646970667358221220d523d43ea94488c00e935163333c04d414348b94fe75b1c497e5a494a5e7729c64736f6c634300081b0033a264697066735822122078af5041435d8e59b9005cd3abd7966aa0e710a49235cdbd83801e4b06d6d4df64736f6c634300081b0033",
  "linkReferences": {},
  "deployedLinkReferences": {}
}