{
  "_format": "hh-sol-artifact-1",
  "contractName": "BondSubscription",
  "sourceName": "contracts/private/BondSubscription.sol",
  "abi": [
    {
      "inputs": [
        {
          "internalType": "address",
          "name": "bondAddress_",
          "type": "address"
        },
        {
          "internalType": "uint256",
          "name": "units_",
          "type": "uint256"
        },
        {
          "internalType": "address",
          "name": "custodian_",
          "type": "address"
        },
        {
          "internalType": "address",
          "name": "atomFactory_",
          "type": "address"
        }
      ],
      "stateMutability": "nonpayable",
      "type": "constructor"
    },
    {
      "inputs": [
        {
          "internalType": "address",
          "name": "owner",
          "type": "address"
        }
      ],
      "name": "OwnableInvalidOwner",
      "type": "error"
    },
    {
      "inputs": [
        {
          "internalType": "address",
          "name": "account",
          "type": "address"
        }
      ],
      "name": "OwnableUnauthorizedAccount",
      "type": "error"
    },
    {
      "anonymous": false,
      "inputs": [
        {
          "indexed": true,
          "internalType": "address",
          "name": "previousOwner",
          "type": "address"
        },
        {
          "indexed": true,
          "internalType": "address",
          "name": "newOwner",
          "type": "address"
        }
      ],
      "name": "OwnershipTransferred",
      "type": "event"
    },
    {
      "anonymous": false,
      "inputs": [
        {
          "indexed": true,
          "internalType": "address",
          "name": "contractAddress",
          "type": "address"
        },
        {
          "indexed": false,
          "internalType": "bytes",
          "name": "encodedCall",
          "type": "bytes"
        }
      ],
      "name": "PenteExternalCall",
      "type": "event"
    },
    {
      "inputs": [],
      "name": "atomFactory",
      "outputs": [
        {
          "internalType": "address",
          "name": "",
          "type": "address"
        }
      ],
      "stateMutability": "view",
      "type": "function"
    },
    {
      "inputs": [],
      "name": "bondAddress",
      "outputs": [
        {
          "internalType": "address",
          "name": "",
          "type": "address"
        }
      ],
      "stateMutability": "view",
      "type": "function"
    },
    {
      "inputs": [],
      "name": "custodian",
      "outputs": [
        {
          "internalType": "address",
          "name": "",
          "type": "address"
        }
      ],
      "stateMutability": "view",
      "type": "function"
    },
    {
      "inputs": [],
      "name": "distribute",
      "outputs": [],
      "stateMutability": "nonpayable",
      "type": "function"
    },
    {
      "inputs": [],
      "name": "owner",
      "outputs": [
        {
          "internalType": "address",
          "name": "",
          "type": "address"
        }
      ],
      "stateMutability": "view",
      "type": "function"
    },
    {
      "inputs": [
        {
          "internalType": "address",
          "name": "to",
          "type": "address"
        },
        {
          "internalType": "bytes",
          "name": "encodedCall",
          "type": "bytes"
        }
      ],
      "name": "prepareBond",
      "outputs": [],
      "stateMutability": "nonpayable",
      "type": "function"
    },
    {
      "inputs": [
        {
          "internalType": "address",
          "name": "to",
          "type": "address"
        },
        {
          "internalType": "bytes",
          "name": "encodedCall",
          "type": "bytes"
        }
      ],
      "name": "preparePayment",
      "outputs": [],
      "stateMutability": "nonpayable",
      "type": "function"
    },
    {
      "inputs": [],
      "name": "renounceOwnership",
      "outputs": [],
      "stateMutability": "nonpayable",
      "type": "function"
    },
    {
      "inputs": [],
      "name": "requestedUnits",
      "outputs": [
        {
          "internalType": "uint256",
          "name": "",
          "type": "uint256"
        }
      ],
      "stateMutability": "view",
      "type": "function"
    },
    {
      "inputs": [
        {
          "internalType": "address",
          "name": "newOwner",
          "type": "address"
        }
      ],
      "name": "transferOwnership",
      "outputs": [],
      "stateMutability": "nonpayable",
      "type": "function"
    }
  ],
  "bytecode": "0x608060405234801561001057600080fd5b50604051610c39380380610c3983398101604081905261002f91610113565b338061005557604051631e4fbdf760e01b81526000600482015260240160405180910390fd5b61005e816100a7565b50600180546001600160a01b039586166001600160a01b031991821617909155600393909355600280549285169284169290921790915560048054919093169116179055610160565b600080546001600160a01b038381166001600160a01b0319831681178455604051919092169283917f8be0079c531659141344cd1fd0a4f28419497f9722a3daafe3b4186f6b6457e09190a35050565b80516001600160a01b038116811461010e57600080fd5b919050565b6000806000806080858703121561012957600080fd5b610132856100f7565b935060208501519250610147604086016100f7565b9150610155606086016100f7565b905092959194509250565b610aca8061016f6000396000f3fe608060405234801561001057600080fd5b50600436106100be5760003560e01c80638c14ddeb11610076578063ccd957121161005b578063ccd957121461015a578063e4fc6b6d14610171578063f2fde38b1461017957600080fd5b80638c14ddeb146101365780638da5cb5b1461014957600080fd5b8063715018a6116100a7578063715018a6146101065780637db9f8911461011057806387ef6f461461012357600080fd5b8063375b74c3146100c357806359e64d1e146100f3575b600080fd5b6002546100d6906001600160a01b031681565b6040516001600160a01b0390911681526020015b60405180910390f35b6001546100d6906001600160a01b031681565b61010e61018c565b005b6004546100d6906001600160a01b031681565b61010e61013136600461079a565b6101a0565b61010e61014436600461079a565b6101e3565b6000546001600160a01b03166100d6565b61016360035481565b6040519081526020016100ea565b61010e610280565b61010e61018736600461081f565b610684565b6101946106db565b61019e6000610721565b565b6101a86106db565b6007805473ffffffffffffffffffffffffffffffffffffffff19166001600160a01b03851617905560086101dd8284836108e0565b50505050565b6002546001600160a01b0316336001600160a01b03161461024b5760405162461bcd60e51b815260206004820152601760248201527f53656e646572206973206e6f7420637573746f6469616e00000000000000000060448201526064015b60405180910390fd5b6005805473ffffffffffffffffffffffffffffffffffffffff19166001600160a01b03851617905560066101dd8284836108e0565b6002546001600160a01b0316336001600160a01b0316146102e35760405162461bcd60e51b815260206004820152601760248201527f53656e646572206973206e6f7420637573746f6469616e0000000000000000006044820152606401610242565b6000600680546102f290610857565b9050116103675760405162461bcd60e51b815260206004820152602360248201527f426f6e64207472616e7366657220686173206e6f74206265656e20707265706160448201527f72656400000000000000000000000000000000000000000000000000000000006064820152608401610242565b60006008805461037690610857565b9050116103eb5760405162461bcd60e51b815260206004820152602660248201527f5061796d656e74207472616e7366657220686173206e6f74206265656e20707260448201527f65706172656400000000000000000000000000000000000000000000000000006064820152608401610242565b60408051600280825260608201909252600091816020015b604080518082019091526000815260606020820152815260200190600190039081610403575050604080518082019091526005546001600160a01b0316815260068054929350909160208301919061045a90610857565b80601f016020809104026020016040519081016040528092919081815260200182805461048690610857565b80156104d35780601f106104a8576101008083540402835291602001916104d3565b820191906000526020600020905b8154815290600101906020018083116104b657829003601f168201915b5050505050815250816000815181106104ee576104ee6109a0565b60200260200101819052506040518060400160405280600760009054906101000a90046001600160a01b03166001600160a01b031681526020016008805461053590610857565b80601f016020809104026020016040519081016040528092919081815260200182805461056190610857565b80156105ae5780601f10610583576101008083540402835291602001916105ae565b820191906000526020600020905b81548152906001019060200180831161059157829003601f168201915b5050505050815250816001815181106105c9576105c96109a0565b60209081029190910101526004546040516001600160a01b03909116907fcac03685d5ba4ab3e1465a8ee1b2bb21094ddbd612a969fd34f93a5be7a0ac4f906106169084906024016109fc565b60408051601f198184030181529181526020820180517bffffffffffffffffffffffffffffffffffffffffffffffffffffffff167f0522aed100000000000000000000000000000000000000000000000000000000179052516106799190610a81565b60405180910390a250565b61068c6106db565b6001600160a01b0381166106cf576040517f1e4fbdf700000000000000000000000000000000000000000000000000000000815260006004820152602401610242565b6106d881610721565b50565b6000546001600160a01b0316331461019e576040517f118cdaa7000000000000000000000000000000000000000000000000000000008152336004820152602401610242565b600080546001600160a01b0383811673ffffffffffffffffffffffffffffffffffffffff19831681178455604051919092169283917f8be0079c531659141344cd1fd0a4f28419497f9722a3daafe3b4186f6b6457e09190a35050565b80356001600160a01b038116811461079557600080fd5b919050565b6000806000604084860312156107af57600080fd5b6107b88461077e565b9250602084013567ffffffffffffffff8111156107d457600080fd5b8401601f810186136107e557600080fd5b803567ffffffffffffffff8111156107fc57600080fd5b86602082840101111561080e57600080fd5b939660209190910195509293505050565b60006020828403121561083157600080fd5b61083a8261077e565b9392505050565b634e487b7160e01b600052604160045260246000fd5b600181811c9082168061086b57607f821691505b60208210810361088b57634e487b7160e01b600052602260045260246000fd5b50919050565b601f8211156108db57806000526020600020601f840160051c810160208510156108b85750805b601f840160051c820191505b818110156108d857600081556001016108c4565b50505b505050565b67ffffffffffffffff8311156108f8576108f8610841565b61090c836109068354610857565b83610891565b6000601f84116001811461094057600085156109285750838201355b600019600387901b1c1916600186901b1783556108d8565b600083815260209020601f19861690835b828110156109715786850135825560209485019460019092019101610951565b508682101561098e5760001960f88860031b161c19848701351681555b505060018560011b0183555050505050565b634e487b7160e01b600052603260045260246000fd5b6000815180845260005b818110156109dc576020818501810151868301820152016109c0565b506000602082860101526020601f19601f83011685010191505092915050565b6000602082016020835280845180835260408501915060408160051b86010192506020860160005b82811015610a7557603f1987860301845281516001600160a01b0381511686526020810151905060406020870152610a5f60408701826109b6565b9550506020938401939190910190600101610a24565b50929695505050505050565b60208152600061083a60208301846109b656fea2646970667358221220b2532d9eb5cee25bf57ecb2cc59af224bd6f924ef6deef6f86feedd6efbd8dab64736f6c634300081b0033",
  "linkReferences": {},
  "deployedLinkReferences": {}
}