{
  "_format": "hh-sol-artifact-1",
  "contractName": "ERC20Simple",
  "sourceName": "contracts/testcontracts/ERC20Simple.sol",
  "abi": [
    {
      "inputs": [
        {
          "internalType": "string",
          "name": "name",
          "type": "string"
        },
        {
          "internalType": "string",
          "name": "symbol",
          "type": "string"
        }
      ],
      "stateMutability": "nonpayable",
      "type": "constructor"
    },
    {
      "inputs": [
        {
          "internalType": "address",
          "name": "spender",
          "type": "address"
        },
        {
          "internalType": "uint256",
          "name": "allowance",
          "type": "uint256"
        },
        {
          "internalType": "uint256",
          "name": "needed",
          "type": "uint256"
        }
      ],
      "name": "ERC20InsufficientAllowance",
      "type": "error"
    },
    {
      "inputs": [
        {
          "internalType": "address",
          "name": "sender",
          "type": "address"
        },
        {
          "internalType": "uint256",
          "name": "balance",
          "type": "uint256"
        },
        {
          "internalType": "uint256",
          "name": "needed",
          "type": "uint256"
        }
      ],
      "name": "ERC20InsufficientBalance",
      "type": "error"
    },
    {
      "inputs": [
        {
          "internalType": "address",
          "name": "approver",
          "type": "address"
        }
      ],
      "name": "ERC20InvalidApprover",
      "type": "error"
    },
    {
      "inputs": [
        {
          "internalType": "address",
          "name": "receiver",
          "type": "address"
        }
      ],
      "name": "ERC20InvalidReceiver",
      "type": "error"
    },
    {
      "inputs": [
        {
          "internalType": "address",
          "name": "sender",
          "type": "address"
        }
      ],
      "name": "ERC20InvalidSender",
      "type": "error"
    },
    {
      "inputs": [
        {
          "internalType": "address",
          "name": "spender",
          "type": "address"
        }
      ],
      "name": "ERC20InvalidSpender",
      "type": "error"
    },
    {
      "inputs": [
        {
          "internalType": "address",
          "name": "owner",
          "type": "address"
        }
      ],
      "name": "OwnableInvalidOwner",
      "type": "error"
    },
    {
      "inputs": [
        {
          "internalType": "address",
          "name": "account",
          "type": "address"
        }
      ],
      "name": "OwnableUnauthorizedAccount",
      "type": "error"
    },
    {
      "anonymous": false,
      "inputs": [
        {
          "indexed": true,
          "internalType": "address",
          "name": "owner",
          "type": "address"
        },
        {
          "indexed": true,
          "internalType": "address",
          "name": "spender",
          "type": "address"
        },
        {
          "indexed": false,
          "internalType": "uint256",
          "name": "value",
          "type": "uint256"
        }
      ],
      "name": "Approval",
      "type": "event"
    },
    {
      "anonymous": false,
      "inputs": [
        {
          "indexed": true,
          "internalType": "address",
          "name": "previousOwner",
          "type": "address"
        },
        {
          "indexed": true,
          "internalType": "address",
          "name": "newOwner",
          "type": "address"
        }
      ],
      "name": "OwnershipTransferred",
      "type": "event"
    },
    {
      "anonymous": false,
      "inputs": [
        {
          "indexed": true,
          "internalType": "address",
          "name": "from",
          "type": "address"
        },
        {
          "indexed": true,
          "internalType": "address",
          "name": "to",
          "type": "address"
        },
        {
          "indexed": false,
          "internalType": "uint256",
          "name": "value",
          "type": "uint256"
        }
      ],
      "name": "Transfer",
      "type": "event"
    },
    {
      "inputs": [
        {
          "internalType": "address",
          "name": "owner",
          "type": "address"
        },
        {
          "internalType": "address",
          "name": "spender",
          "type": "address"
        }
      ],
      "name": "allowance",
      "outputs": [
        {
          "internalType": "uint256",
          "name": "",
          "type": "uint256"
        }
      ],
      "stateMutability": "view",
      "type": "function"
    },
    {
      "inputs": [
        {
          "internalType": "address",
          "name": "spender",
          "type": "address"
        },
        {
          "internalType": "uint256",
          "name": "value",
          "type": "uint256"
        }
      ],
      "name": "approve",
      "outputs": [
        {
          "internalType": "bool",
          "name": "",
          "type": "bool"
        }
      ],
      "stateMutability": "nonpayable",
      "type": "function"
    },
    {
      "inputs": [
        {
          "internalType": "address",
          "name": "account",
          "type": "address"
        }
      ],
      "name": "balanceOf",
      "outputs": [
        {
          "internalType": "uint256",
          "name": "",
          "type": "uint256"
        }
      ],
      "stateMutability": "view",
      "type": "function"
    },
    {
      "inputs": [
        {
          "internalType": "uint256",
          "name": "value",
          "type": "uint256"
        }
      ],
      "name": "burn",
      "outputs": [],
      "stateMutability": "nonpayable",
      "type": "function"
    },
    {
      "inputs": [
        {
          "internalType": "address",
          "name": "account",
          "type": "address"
        },
        {
          "internalType": "uint256",
          "name": "value",
          "type": "uint256"
        }
      ],
      "name": "burnFrom",
      "outputs": [],
      "stateMutability": "nonpayable",
      "type": "function"
    },
    {
      "inputs": [],
      "name": "decimals",
      "outputs": [
        {
          "internalType": "uint8",
          "name": "",
          "type": "uint8"
        }
      ],
      "stateMutability": "view",
      "type": "function"
    },
    {
      "inputs": [
        {
          "internalType": "address",
          "name": "to",
          "type": "address"
        },
        {
          "internalType": "uint256",
          "name": "amount",
          "type": "uint256"
        }
      ],
      "name": "mint",
      "outputs": [],
      "stateMutability": "nonpayable",
      "type": "function"
    },
    {
      "inputs": [],
      "name": "name",
      "outputs": [
        {
          "internalType": "string",
          "name": "",
          "type": "string"
        }
      ],
      "stateMutability": "view",
      "type": "function"
    },
    {
      "inputs": [],
      "name": "owner",
      "outputs": [
        {
          "internalType": "address",
          "name": "",
          "type": "address"
        }
      ],
      "stateMutability": "view",
      "type": "function"
    },
    {
      "inputs": [],
      "name": "renounceOwnership",
      "outputs": [],
      "stateMutability": "nonpayable",
      "type": "function"
    },
    {
      "inputs": [],
      "name": "symbol",
      "outputs": [
        {
          "internalType": "string",
          "name": "",
          "type": "string"
        }
      ],
      "stateMutability": "view",
      "type": "function"
    },
    {
      "inputs": [],
      "name": "totalSupply",
      "outputs": [
        {
          "internalType": "uint256",
          "name": "",
          "type": "uint256"
        }
      ],
      "stateMutability": "view",
      "type": "function"
    },
    {
      "inputs": [
        {
          "internalType": "address",
          "name": "to",
          "type": "address"
        },
        {
          "internalType": "uint256",
          "name": "value",
          "type": "uint256"
        }
      ],
      "name": "transfer",
      "outputs": [
        {
          "internalType": "bool",
          "name": "",
          "type": "bool"
        }
      ],
      "stateMutability": "nonpayable",
      "type": "function"
    },
    {
      "inputs": [
        {
          "internalType": "address",
          "name": "from",
          "type": "address"
        },
        {
          "internalType": "address",
          "name": "to",
          "type": "address"
        },
        {
          "internalType": "uint256",
          "name": "value",
          "type": "uint256"
        }
      ],
      "name": "transferFrom",
      "outputs": [
        {
          "internalType": "bool",
          "name": "",
          "type": "bool"
        }
      ],
      "stateMutability": "nonpayable",
      "type": "function"
    },
    {
      "inputs": [
        {
          "internalType": "address",
          "name": "newOwner",
          "type": "address"
        }
      ],
      "name": "transferOwnership",
      "outputs": [],
      "stateMutability": "nonpayable",
      "type": "function"
    }
  ],
  "bytecode": "0x608060405234801561001057600080fd5b50604051610d85380380610d8583398101604081905261002f91610198565b338282600361003e838261028a565b50600461004b828261028a565b5050506001600160a01b03811661007c57604051631e4fbdf760e01b81526000600482015260240160405180910390fd5b6100858161008d565b505050610348565b600580546001600160a01b038381166001600160a01b0319831681179093556040519116919082907f8be0079c531659141344cd1fd0a4f28419497f9722a3daafe3b4186f6b6457e090600090a35050565b634e487b7160e01b600052604160045260246000fd5b600082601f83011261010657600080fd5b81516001600160401b0381111561011f5761011f6100df565b604051601f8201601f19908116603f011681016001600160401b038111828210171561014d5761014d6100df565b60405281815283820160200185101561016557600080fd5b60005b8281101561018457602081860181015183830182015201610168565b506000918101602001919091529392505050565b600080604083850312156101ab57600080fd5b82516001600160401b038111156101c157600080fd5b6101cd858286016100f5565b602085015190935090506001600160401b038111156101eb57600080fd5b6101f7858286016100f5565b9150509250929050565b600181811c9082168061021557607f821691505b60208210810361023557634e487b7160e01b600052602260045260246000fd5b50919050565b601f82111561028557806000526020600020601f840160051c810160208510156102625750805b601f840160051c820191505b81811015610282576000815560010161026e565b50505b505050565b81516001600160401b038111156102a3576102a36100df565b6102b7816102b18454610201565b8461023b565b6020601f8211600181146102eb57600083156102d35750848201515b600019600385901b1c1916600184901b178455610282565b600084815260208120601f198516915b8281101561031b57878501518255602094850194600190920191016102fb565b50848210156103395786840151600019600387901b60f8161c191681555b50505050600190811b01905550565b610a2e806103576000396000f3fe608060405234801561001057600080fd5b50600436106100f55760003560e01c806370a082311161009757806395d89b411161006657806395d89b41146101f6578063a9059cbb146101fe578063dd62ed3e14610211578063f2fde38b1461024a57600080fd5b806370a0823114610197578063715018a6146101c057806379cc6790146101c85780638da5cb5b146101db57600080fd5b806323b872dd116100d357806323b872dd1461014d578063313ce5671461016057806340c10f191461016f57806342966c681461018457600080fd5b806306fdde03146100fa578063095ea7b31461011857806318160ddd1461013b575b600080fd5b61010261025d565b60405161010f919061085e565b60405180910390f35b61012b6101263660046108c8565b6102ef565b604051901515815260200161010f565b6002545b60405190815260200161010f565b61012b61015b3660046108f2565b610309565b6040516012815260200161010f565b61018261017d3660046108c8565b61032d565b005b61018261019236600461092f565b610343565b61013f6101a5366004610948565b6001600160a01b031660009081526020819052604090205490565b610182610350565b6101826101d63660046108c8565b610364565b6005546040516001600160a01b03909116815260200161010f565b610102610379565b61012b61020c3660046108c8565b610388565b61013f61021f36600461096a565b6001600160a01b03918216600090815260016020908152604080832093909416825291909152205490565b610182610258366004610948565b610396565b60606003805461026c9061099d565b80601f01602080910402602001604051908101604052809291908181526020018280546102989061099d565b80156102e55780601f106102ba576101008083540402835291602001916102e5565b820191906000526020600020905b8154815290600101906020018083116102c857829003601f168201915b5050505050905090565b6000336102fd8185856103ef565b60019150505b92915050565b600033610317858285610401565b610322858585610499565b506001949350505050565b6103356104f8565b61033f828261053e565b5050565b61034d3382610574565b50565b6103586104f8565b61036260006105aa565b565b61036f823383610401565b61033f8282610574565b60606004805461026c9061099d565b6000336102fd818585610499565b61039e6104f8565b6001600160a01b0381166103e6576040517f1e4fbdf7000000000000000000000000000000000000000000000000000000008152600060048201526024015b60405180910390fd5b61034d816105aa565b6103fc8383836001610614565b505050565b6001600160a01b038381166000908152600160209081526040808320938616835292905220546000198110156104935781811015610484576040517ffb8f41b20000000000000000000000000000000000000000000000000000000081526001600160a01b038416600482015260248101829052604481018390526064016103dd565b61049384848484036000610614565b50505050565b6001600160a01b0383166104c357604051634b637e8f60e11b8152600060048201526024016103dd565b6001600160a01b0382166104ed5760405163ec442f0560e01b8152600060048201526024016103dd565b6103fc83838361071b565b6005546001600160a01b03163314610362576040517f118cdaa70000000000000000000000000000000000000000000000000000000081523360048201526024016103dd565b6001600160a01b0382166105685760405163ec442f0560e01b8152600060048201526024016103dd565b61033f6000838361071b565b6001600160a01b03821661059e57604051634b637e8f60e11b8152600060048201526024016103dd565b61033f8260008361071b565b600580546001600160a01b038381167fffffffffffffffffffffffff0000000000000000000000000000000000000000831681179093556040519116919082907f8be0079c531659141344cd1fd0a4f28419497f9722a3daafe3b4186f6b6457e090600090a35050565b6001600160a01b038416610657576040517fe602df05000000000000000000000000000000000000000000000000000000008152600060048201526024016103dd565b6001600160a01b03831661069a576040517f94280d62000000000000000000000000000000000000000000000000000000008152600060048201526024016103dd565b6001600160a01b038085166000908152600160209081526040808320938716835292905220829055801561049357826001600160a01b0316846001600160a01b03167f8c5be1e5ebec7d5bd14f71427d1e84f3dd0314c0f7b2291e5b200ac8c7c3b9258460405161070d91815260200190565b60405180910390a350505050565b6001600160a01b03831661074657806002600082825461073b91906109d7565b909155506107d19050565b6001600160a01b038316600090815260208190526040902054818110156107b2576040517fe450d38c0000000000000000000000000000000000000000000000000000000081526001600160a01b038516600482015260248101829052604481018390526064016103dd565b6001600160a01b03841660009081526020819052604090209082900390555b6001600160a01b0382166107ed5760028054829003905561080c565b6001600160a01b03821660009081526020819052604090208054820190555b816001600160a01b0316836001600160a01b03167fddf252ad1be2c89b69c2b068fc378daa952ba7f163c4a11628f55a4df523b3ef8360405161085191815260200190565b60405180910390a3505050565b602081526000825180602084015260005b8181101561088c576020818601810151604086840101520161086f565b506000604082850101526040601f19601f83011684010191505092915050565b80356001600160a01b03811681146108c357600080fd5b919050565b600080604083850312156108db57600080fd5b6108e4836108ac565b946020939093013593505050565b60008060006060848603121561090757600080fd5b610910846108ac565b925061091e602085016108ac565b929592945050506040919091013590565b60006020828403121561094157600080fd5b5035919050565b60006020828403121561095a57600080fd5b610963826108ac565b9392505050565b6000806040838503121561097d57600080fd5b610986836108ac565b9150610994602084016108ac565b90509250929050565b600181811c908216806109b157607f821691505b6020821081036109d157634e487b7160e01b600052602260045260246000fd5b50919050565b8082018082111561030357634e487b7160e01b600052601160045260246000fdfea264697066735822122081bbcec0cca1a8a46383174035bdaa12127c89f0670292c6f981f1615e4238ba64736f6c634300081b0033",
  "linkReferences": {},
  "deployedLinkReferences": {}
}