{
  "_format": "hh-sol-artifact-1",
  "contractName": "HelloWorld",
  "sourceName": "contracts/tutorials/HelloWorld.sol",
  "abi": [
    {
      "anonymous": false,
      "inputs": [
        {
          "indexed": false,
          "internalType": "string",
          "name": "message",
          "type": "string"
        }
      ],
      "name": "HelloEvent",
      "type": "event"
    },
    {
      "inputs": [
        {
          "internalType": "string",
          "name": "name",
          "type": "string"
        }
      ],
      "name": "sayHello",
      "outputs": [],
      "stateMutability": "nonpayable",
      "type": "function"
    }
  ],
  "bytecode": "0x6080604052348015600f57600080fd5b5061025e8061001f6000396000f3fe608060405234801561001057600080fd5b506004361061002b5760003560e01c8063c3a9b1c514610030575b600080fd5b61004361003e3660046100d3565b610045565b005b60008160405160200161005891906101b0565b60405160208183030381529060405290507ffa051318aca3e493e16e6cf4bccc017c7e061924a42ef27b3bb373c4707b636a8160405161009891906101f5565b60405180910390a15050565b7f4e487b7100000000000000000000000000000000000000000000000000000000600052604160045260246000fd5b6000602082840312156100e557600080fd5b813567ffffffffffffffff8111156100fc57600080fd5b8201601f8101841361010d57600080fd5b803567ffffffffffffffff811115610127576101276100a4565b604051601f8201601f19908116603f0116810167ffffffffffffffff81118282101715610156576101566100a4565b60405281815282820160200186101561016e57600080fd5b81602084016020830137600091810160200191909152949350505050565b60005b838110156101a757818101518382015260200161018f565b50506000910152565b7f57656c636f6d6520746f2050616c6164696e2c200000000000000000000000008152600082516101e881601485016020870161018c565b9190910160140192915050565b602081526000825180602084015261021481604085016020870161018c565b601f01601f1916919091016040019291505056fea264697066735822122093ee12c24ccd7da500317dc8edc8539823c55c9d6fb33899726b56fb4f60e57e64736f6c634300081b0033",
  "linkReferences": {},
  "deployedLinkReferences": {}
}