{
  "_format": "hh-sol-artifact-1",
  "contractName": "InvestorList",
  "sourceName": "contracts/private/InvestorList.sol",
  "abi": [
    {
      "inputs": [
        {
          "internalType": "address",
          "name": "initialOwner",
          "type": "address"
        }
      ],
      "stateMutability": "nonpayable",
      "type": "constructor"
    },
    {
      "inputs": [
        {
          "internalType": "address",
          "name": "owner",
          "type": "address"
        }
      ],
      "name": "OwnableInvalidOwner",
      "type": "error"
    },
    {
      "inputs": [
        {
          "internalType": "address",
          "name": "account",
          "type": "address"
        }
      ],
      "name": "OwnableUnauthorizedAccount",
      "type": "error"
    },
    {
      "anonymous": false,
      "inputs": [
        {
          "indexed": true,
          "internalType": "address",
          "name": "investor",
          "type": "address"
        }
      ],
      "name": "InvestorAdded",
      "type": "event"
    },
    {
      "anonymous": false,
      "inputs": [
        {
          "indexed": true,
          "internalType": "address",
          "name": "investor",
          "type": "address"
        }
      ],
      "name": "InvestorRemoved",
      "type": "event"
    },
    {
      "anonymous": false,
      "inputs": [
        {
          "indexed": true,
          "internalType": "address",
          "name": "previousOwner",
          "type": "address"
        },
        {
          "indexed": true,
          "internalType": "address",
          "name": "newOwner",
          "type": "address"
        }
      ],
      "name": "OwnershipTransferred",
      "type": "event"
    },
    {
      "inputs": [
        {
          "internalType": "address",
          "name": "addr",
          "type": "address"
        }
      ],
      "name": "addInvestor",
      "outputs": [],
      "stateMutability": "nonpayable",
      "type": "function"
    },
    {
      "inputs": [
        {
          "internalType": "address[]",
          "name": "addresses",
          "type": "address[]"
        }
      ],
      "name": "addInvestors",
      "outputs": [],
      "stateMutability": "nonpayable",
      "type": "function"
    },
    {
      "inputs": [
        {
          "internalType": "address",
          "name": "sender",
          "type": "address"
        },
        {
          "internalType": "address",
          "name": "from",
          "type": "address"
        },
        {
          "internalType": "address",
          "name": "to",
          "type": "address"
        },
        {
          "internalType": "uint256",
          "name": "amount",
          "type": "uint256"
        }
      ],
      "name": "checkTransfer",
      "outputs": [],
      "stateMutability": "view",
      "type": "function"
    },
    {
      "inputs": [
        {
          "internalType": "uint256",
          "name": "",
          "type": "uint256"
        }
      ],
      "name": "investors",
      "outputs": [
        {
          "internalType": "address",
          "name": "",
          "type": "address"
        }
      ],
      "stateMutability": "view",
      "type": "function"
    },
    {
      "inputs": [
        {
          "internalType": "address",
          "name": "addr",
          "type": "address"
        }
      ],
      "name": "isRegistered",
      "outputs": [
        {
          "internalType": "bool",
          "name": "",
          "type": "bool"
        }
      ],
      "stateMutability": "view",
      "type": "function"
    },
    {
      "inputs": [],
      "name": "listInvestors",
      "outputs": [
        {
          "internalType": "address[]",
          "name": "",
          "type": "address[]"
        }
      ],
      "stateMutability": "view",
      "type": "function"
    },
    {
      "inputs": [],
      "name": "owner",
      "outputs": [
        {
          "internalType": "address",
          "name": "",
          "type": "address"
        }
      ],
      "stateMutability": "view",
      "type": "function"
    },
    {
      "inputs": [
        {
          "internalType": "address",
          "name": "addr",
          "type": "address"
        }
      ],
      "name": "removeInvestor",
      "outputs": [],
      "stateMutability": "nonpayable",
      "type": "function"
    },
    {
      "inputs": [],
      "name": "renounceOwnership",
      "outputs": [],
      "stateMutability": "nonpayable",
      "type": "function"
    },
    {
      "inputs": [
        {
          "internalType": "address",
          "name": "newOwner",
          "type": "address"
        }
      ],
      "name": "transferOwnership",
      "outputs": [],
      "stateMutability": "nonpayable",
      "type": "function"
    }
  ],
  "bytecode": "0x608060405234801561001057600080fd5b5060405161096138038061096183398101604081905261002f916100be565b806001600160a01b03811661005e57604051631e4fbdf760e01b81526000600482015260240160405180910390fd5b6100678161006e565b50506100ee565b600080546001600160a01b038381166001600160a01b0319831681178455604051919092169283917f8be0079c531659141344cd1fd0a4f28419497f9722a3daafe3b4186f6b6457e09190a35050565b6000602082840312156100d057600080fd5b81516001600160a01b03811681146100e757600080fd5b9392505050565b610864806100fd6000396000f3fe608060405234801561001057600080fd5b50600436106100be5760003560e01c80638da5cb5b11610076578063c3c5a5471161005b578063c3c5a54714610160578063e641bde11461019b578063f2fde38b146101ae57600080fd5b80638da5cb5b1461013c578063980afa7a1461014d57600080fd5b80633feb5f2b116100a75780633feb5f2b146100f65780634271497814610121578063715018a61461013457600080fd5b806318898048146100c3578063277b7d43146100e1575b600080fd5b6100cb6101c1565b6040516100d89190610676565b60405180910390f35b6100f46100ef3660046106c2565b610284565b005b610109610104366004610739565b6102ce565b6040516001600160a01b0390911681526020016100d8565b6100f461012f36600461076e565b6102f8565b6100f46103fd565b6000546001600160a01b0316610109565b6100f461015b366004610790565b610411565b61018b61016e36600461076e565b6001600160a01b0316600090815260026020526040902054151590565b60405190151581526020016100d8565b6100f46101a936600461076e565b61047c565b6100f46101bc36600461076e565b61057c565b60015460609060009067ffffffffffffffff8111156101e2576101e26107db565b60405190808252806020026020018201604052801561020b578160200160208202803683370190505b50905060005b60015481101561027e576001818154811061022e5761022e6107f1565b9060005260206000200160009054906101000a90046001600160a01b031682828151811061025e5761025e6107f1565b6001600160a01b0390921660209283029190910190910152600101610211565b50919050565b61028c6105d3565b60005b818110156102c9576102c18383838181106102ac576102ac6107f1565b90506020020160208101906101a9919061076e565b60010161028f565b505050565b600181815481106102de57600080fd5b6000918252602090912001546001600160a01b0316905081565b6103006105d3565b6001600160a01b0381166000908152600260205260408120549081900361036e5760405162461bcd60e51b815260206004820152601860248201527f496e766573746f7220616c72656164792072656d6f766564000000000000000060448201526064015b60405180910390fd5b6001600160a01b03821660009081526002602052604081205560016103938183610807565b815481106103a3576103a36107f1565b60009182526020822001805473ffffffffffffffffffffffffffffffffffffffff191690556040516001600160a01b038416917fba0013628ccb89af5bb18edf764d3a7b35c07b894848b8e6fd3434719de39c7d91a25050565b6104056105d3565b61040f6000610619565b565b6001600160a01b0382166000908152600260205260409020546104765760405162461bcd60e51b815260206004820152601a60248201527f496e766573746f72206973206e6f7420726567697374657265640000000000006044820152606401610365565b50505050565b6104846105d3565b6001600160a01b038116600090815260026020526040902054156104ea5760405162461bcd60e51b815260206004820152601660248201527f496e766573746f7220616c7265616479206164646564000000000000000000006044820152606401610365565b6001805480820182557fb10e2d527612073b26eecdfd717e6a320cf44b4afac2b0732d9fcbe2b7fa0cf601805473ffffffffffffffffffffffffffffffffffffffff19166001600160a01b03841690811790915590546000828152600260205260408082209290925590517f62e6a5118be03f9bfedb79b0ed7ed75ee4a9e15fc4c69d2c4976acde26fa2d5f9190a250565b6105846105d3565b6001600160a01b0381166105c7576040517f1e4fbdf700000000000000000000000000000000000000000000000000000000815260006004820152602401610365565b6105d081610619565b50565b6000546001600160a01b0316331461040f576040517f118cdaa7000000000000000000000000000000000000000000000000000000008152336004820152602401610365565b600080546001600160a01b0383811673ffffffffffffffffffffffffffffffffffffffff19831681178455604051919092169283917f8be0079c531659141344cd1fd0a4f28419497f9722a3daafe3b4186f6b6457e09190a35050565b602080825282518282018190526000918401906040840190835b818110156106b75783516001600160a01b0316835260209384019390920191600101610690565b509095945050505050565b600080602083850312156106d557600080fd5b823567ffffffffffffffff8111156106ec57600080fd5b8301601f810185136106fd57600080fd5b803567ffffffffffffffff81111561071457600080fd5b8560208260051b840101111561072957600080fd5b6020919091019590945092505050565b60006020828403121561074b57600080fd5b5035919050565b80356001600160a01b038116811461076957600080fd5b919050565b60006020828403121561078057600080fd5b61078982610752565b9392505050565b600080600080608085870312156107a657600080fd5b6107af85610752565b93506107bd60208601610752565b92506107cb60408601610752565b9396929550929360600135925050565b634e487b7160e01b600052604160045260246000fd5b634e487b7160e01b600052603260045260246000fd5b8181038181111561082857634e487b7160e01b600052601160045260246000fd5b9291505056fea2646970667358221220229a507e616ccbffb4f861be897be46e7528fce3d1925035aa8524e411bf62f164736f6c634300081b0033",
  "linkReferences": {},
  "deployedLinkReferences": {}
}