{
  "_format": "hh-sol-artifact-1",
  "contractName": "NotoTrackerPublicERC20",
  "sourceName": "contracts/testcontracts/NotoTrackerPublicERC20.sol",
  "abi": [
    {
      "inputs": [
        {
          "internalType": "string",
          "name": "name",
          "type": "string"
        },
        {
          "internalType": "string",
          "name": "symbol",
          "type": "string"
        }
      ],
      "stateMutability": "nonpayable",
      "type": "constructor"
    },
    {
      "inputs": [
        {
          "internalType": "address",
          "name": "target",
          "type": "address"
        }
      ],
      "name": "AddressEmptyCode",
      "type": "error"
    },
    {
      "inputs": [
        {
          "internalType": "address",
          "name": "spender",
          "type": "address"
        },
        {
          "internalType": "uint256",
          "name": "allowance",
          "type": "uint256"
        },
        {
          "internalType": "uint256",
          "name": "needed",
          "type": "uint256"
        }
      ],
      "name": "ERC20InsufficientAllowance",
      "type": "error"
    },
    {
      "inputs": [
        {
          "internalType": "address",
          "name": "sender",
          "type": "address"
        },
        {
          "internalType": "uint256",
          "name": "balance",
          "type": "uint256"
        },
        {
          "internalType": "uint256",
          "name": "needed",
          "type": "uint256"
        }
      ],
      "name": "ERC20InsufficientBalance",
      "type": "error"
    },
    {
      "inputs": [
        {
          "internalType": "address",
          "name": "approver",
          "type": "address"
        }
      ],
      "name": "ERC20InvalidApprover",
      "type": "error"
    },
    {
      "inputs": [
        {
          "internalType": "address",
          "name": "receiver",
          "type": "address"
        }
      ],
      "name": "ERC20InvalidReceiver",
      "type": "error"
    },
    {
      "inputs": [
        {
          "internalType": "address",
          "name": "sender",
          "type": "address"
        }
      ],
      "name": "ERC20InvalidSender",
      "type": "error"
    },
    {
      "inputs": [
        {
          "internalType": "address",
          "name": "spender",
          "type": "address"
        }
      ],
      "name": "ERC20InvalidSpender",
      "type": "error"
    },
    {
      "inputs": [],
      "name": "FailedCall",
      "type": "error"
    },
    {
      "inputs": [
        {
          "internalType": "uint256",
          "name": "balance",
          "type": "uint256"
        },
        {
          "internalType": "uint256",
          "name": "needed",
          "type": "uint256"
        }
      ],
      "name": "InsufficientBalance",
      "type": "error"
    },
    {
      "anonymous": false,
      "inputs": [
        {
          "indexed": true,
          "internalType": "address",
          "name": "owner",
          "type": "address"
        },
        {
          "indexed": true,
          "internalType": "address",
          "name": "spender",
          "type": "address"
        },
        {
          "indexed": false,
          "internalType": "uint256",
          "name": "value",
          "type": "uint256"
        }
      ],
      "name": "Approval",
      "type": "event"
    },
    {
      "anonymous": false,
      "inputs": [
        {
          "indexed": true,
          "internalType": "address",
          "name": "contractAddress",
          "type": "address"
        },
        {
          "indexed": false,
          "internalType": "bytes",
          "name": "encodedCall",
          "type": "bytes"
        }
      ],
      "name": "PenteExternalCall",
      "type": "event"
    },
    {
      "anonymous": false,
      "inputs": [
        {
          "indexed": true,
          "internalType": "address",
          "name": "from",
          "type": "address"
        },
        {
          "indexed": true,
          "internalType": "address",
          "name": "to",
          "type": "address"
        },
        {
          "indexed": false,
          "internalType": "uint256",
          "name": "value",
          "type": "uint256"
        }
      ],
      "name": "Transfer",
      "type": "event"
    },
    {
      "inputs": [
        {
          "internalType": "address",
          "name": "owner",
          "type": "address"
        },
        {
          "internalType": "address",
          "name": "spender",
          "type": "address"
        }
      ],
      "name": "allowance",
      "outputs": [
        {
          "internalType": "uint256",
          "name": "",
          "type": "uint256"
        }
      ],
      "stateMutability": "view",
      "type": "function"
    },
    {
      "inputs": [
        {
          "internalType": "address",
          "name": "spender",
          "type": "address"
        },
        {
          "internalType": "uint256",
          "name": "value",
          "type": "uint256"
        }
      ],
      "name": "approve",
      "outputs": [
        {
          "internalType": "bool",
          "name": "",
          "type": "bool"
        }
      ],
      "stateMutability": "nonpayable",
      "type": "function"
    },
    {
      "inputs": [
        {
          "internalType": "address",
          "name": "account",
          "type": "address"
        }
      ],
      "name": "balanceOf",
      "outputs": [
        {
          "internalType": "uint256",
          "name": "",
          "type": "uint256"
        }
      ],
      "stateMutability": "view",
      "type": "function"
    },
    {
      "inputs": [],
      "name": "decimals",
      "outputs": [
        {
          "internalType": "uint8",
          "name": "",
          "type": "uint8"
        }
      ],
      "stateMutability": "view",
      "type": "function"
    },
    {
      "inputs": [
        {
          "internalType": "address",
          "name": "sender",
          "type": "address"
        },
        {
          "internalType": "bytes32",
          "name": "lockId",
          "type": "bytes32"
        },
        {
          "components": [
            {
              "internalType": "address",
              "name": "to",
              "type": "address"
            },
            {
              "internalType": "uint256",
              "name": "amount",
              "type": "uint256"
            }
          ],
          "internalType": "struct INotoHooks.UnlockRecipient[]",
          "name": "recipients",
          "type": "tuple[]"
        },
        {
          "internalType": "bytes",
          "name": "data",
          "type": "bytes"
        }
      ],
      "name": "handleDelegateUnlock",
      "outputs": [],
      "stateMutability": "nonpayable",
      "type": "function"
    },
    {
      "inputs": [],
      "name": "name",
      "outputs": [
        {
          "internalType": "string",
          "name": "",
          "type": "string"
        }
      ],
      "stateMutability": "view",
      "type": "function"
    },
    {
      "inputs": [
        {
          "internalType": "address",
          "name": "sender",
          "type": "address"
        },
        {
          "internalType": "address",
          "name": "from",
          "type": "address"
        },
        {
          "internalType": "address",
          "name": "delegate",
          "type": "address"
        },
        {
          "internalType": "bytes",
          "name": "data",
          "type": "bytes"
        },
        {
          "components": [
            {
              "internalType": "address",
              "name": "contractAddress",
              "type": "address"
            },
            {
              "internalType": "bytes",
              "name": "encodedCall",
              "type": "bytes"
            }
          ],
          "internalType": "struct INotoHooks.PreparedTransaction",
          "name": "prepared",
          "type": "tuple"
        }
      ],
      "name": "onApproveTransfer",
      "outputs": [],
      "stateMutability": "nonpayable",
      "type": "function"
    },
    {
      "inputs": [
        {
          "internalType": "address",
          "name": "sender",
          "type": "address"
        },
        {
          "internalType": "address",
          "name": "from",
          "type": "address"
        },
        {
          "internalType": "uint256",
          "name": "amount",
          "type": "uint256"
        },
        {
          "internalType": "bytes",
          "name": "data",
          "type": "bytes"
        },
        {
          "components": [
            {
              "internalType": "address",
              "name": "contractAddress",
              "type": "address"
            },
            {
              "internalType": "bytes",
              "name": "encodedCall",
              "type": "bytes"
            }
          ],
          "internalType": "struct INotoHooks.PreparedTransaction",
          "name": "prepared",
          "type": "tuple"
        }
      ],
      "name": "onBurn",
      "outputs": [],
      "stateMutability": "nonpayable",
      "type": "function"
    },
    {
      "inputs": [
        {
          "internalType": "address",
          "name": "sender",
          "type": "address"
        },
        {
          "internalType": "bytes32",
          "name": "lockId",
          "type": "bytes32"
        },
        {
          "internalType": "address",
          "name": "delegate",
          "type": "address"
        },
        {
          "components": [
            {
              "internalType": "address",
              "name": "contractAddress",
              "type": "address"
            },
            {
              "internalType": "bytes",
              "name": "encodedCall",
              "type": "bytes"
            }
          ],
          "internalType": "struct INotoHooks.PreparedTransaction",
          "name": "prepared",
          "type": "tuple"
        }
      ],
      "name": "onDelegateLock",
      "outputs": [],
      "stateMutability": "nonpayable",
      "type": "function"
    },
    {
      "inputs": [
        {
          "internalType": "address",
          "name": "sender",
          "type": "address"
        },
        {
          "internalType": "bytes32",
          "name": "lockId",
          "type": "bytes32"
        },
        {
          "internalType": "address",
          "name": "from",
          "type": "address"
        },
        {
          "internalType": "uint256",
          "name": "amount",
          "type": "uint256"
        },
        {
          "internalType": "bytes",
          "name": "data",
          "type": "bytes"
        },
        {
          "components": [
            {
              "internalType": "address",
              "name": "contractAddress",
              "type": "address"
            },
            {
              "internalType": "bytes",
              "name": "encodedCall",
              "type": "bytes"
            }
          ],
          "internalType": "struct INotoHooks.PreparedTransaction",
          "name": "prepared",
          "type": "tuple"
        }
      ],
      "name": "onLock",
      "outputs": [],
      "stateMutability": "nonpayable",
      "type": "function"
    },
    {
      "inputs": [
        {
          "internalType": "address",
          "name": "sender",
          "type": "address"
        },
        {
          "internalType": "address",
          "name": "to",
          "type": "address"
        },
        {
          "internalType": "uint256",
          "name": "amount",
          "type": "uint256"
        },
        {
          "internalType": "bytes",
          "name": "data",
          "type": "bytes"
        },
        {
          "components": [
            {
              "internalType": "address",
              "name": "contractAddress",
              "type": "address"
            },
            {
              "internalType": "bytes",
              "name": "encodedCall",
              "type": "bytes"
            }
          ],
          "internalType": "struct INotoHooks.PreparedTransaction",
          "name": "prepared",
          "type": "tuple"
        }
      ],
      "name": "onMint",
      "outputs": [],
      "stateMutability": "nonpayable",
      "type": "function"
    },
    {
      "inputs": [
        {
          "internalType": "address",
          "name": "sender",
          "type": "address"
        },
        {
          "internalType": "bytes32",
          "name": "lockId",
          "type": "bytes32"
        },
        {
          "components": [
            {
              "internalType": "address",
              "name": "to",
              "type": "address"
            },
            {
              "internalType": "uint256",
              "name": "amount",
              "type": "uint256"
            }
          ],
          "internalType": "struct INotoHooks.UnlockRecipient[]",
          "name": "recipients",
          "type": "tuple[]"
        },
        {
          "internalType": "bytes",
          "name": "data",
          "type": "bytes"
        },
        {
          "components": [
            {
              "internalType": "address",
              "name": "contractAddress",
              "type": "address"
            },
            {
              "internalType": "bytes",
              "name": "encodedCall",
              "type": "bytes"
            }
          ],
          "internalType": "struct INotoHooks.PreparedTransaction",
          "name": "prepared",
          "type": "tuple"
        }
      ],
      "name": "onPrepareUnlock",
      "outputs": [],
      "stateMutability": "nonpayable",
      "type": "function"
    },
    {
      "inputs": [
        {
          "internalType": "address",
          "name": "sender",
          "type": "address"
        },
        {
          "internalType": "address",
          "name": "from",
          "type": "address"
        },
        {
          "internalType": "address",
          "name": "to",
          "type": "address"
        },
        {
          "internalType": "uint256",
          "name": "amount",
          "type": "uint256"
        },
        {
          "internalType": "bytes",
          "name": "data",
          "type": "bytes"
        },
        {
          "components": [
            {
              "internalType": "address",
              "name": "contractAddress",
              "type": "address"
            },
            {
              "internalType": "bytes",
              "name": "encodedCall",
              "type": "bytes"
            }
          ],
          "internalType": "struct INotoHooks.PreparedTransaction",
          "name": "prepared",
          "type": "tuple"
        }
      ],
      "name": "onTransfer",
      "outputs": [],
      "stateMutability": "nonpayable",
      "type": "function"
    },
    {
      "inputs": [
        {
          "internalType": "address",
          "name": "sender",
          "type": "address"
        },
        {
          "internalType": "bytes32",
          "name": "lockId",
          "type": "bytes32"
        },
        {
          "components": [
            {
              "internalType": "address",
              "name": "to",
              "type": "address"
            },
            {
              "internalType": "uint256",
              "name": "amount",
              "type": "uint256"
            }
          ],
          "internalType": "struct INotoHooks.UnlockRecipient[]",
          "name": "recipients",
          "type": "tuple[]"
        },
        {
          "internalType": "bytes",
          "name": "data",
          "type": "bytes"
        },
        {
          "components": [
            {
              "internalType": "address",
              "name": "contractAddress",
              "type": "address"
            },
            {
              "internalType": "bytes",
              "name": "encodedCall",
              "type": "bytes"
            }
          ],
          "internalType": "struct INotoHooks.PreparedTransaction",
          "name": "prepared",
          "type": "tuple"
        }
      ],
      "name": "onUnlock",
      "outputs": [],
      "stateMutability": "nonpayable",
      "type": "function"
    },
    {
      "inputs": [],
      "name": "symbol",
      "outputs": [
        {
          "internalType": "string",
          "name": "",
          "type": "string"
        }
      ],
      "stateMutability": "view",
      "type": "function"
    },
    {
      "inputs": [],
      "name": "totalSupply",
      "outputs": [
        {
          "internalType": "uint256",
          "name": "",
          "type": "uint256"
        }
      ],
      "stateMutability": "view",
      "type": "function"
    },
    {
      "inputs": [
        {
          "internalType": "address",
          "name": "to",
          "type": "address"
        },
        {
          "internalType": "uint256",
          "name": "value",
          "type": "uint256"
        }
      ],
      "name": "transfer",
      "outputs": [
        {
          "internalType": "bool",
          "name": "",
          "type": "bool"
        }
      ],
      "stateMutability": "nonpayable",
      "type": "function"
    },
    {
      "inputs": [
        {
          "internalType": "address",
          "name": "from",
          "type": "address"
        },
        {
          "internalType": "address",
          "name": "to",
          "type": "address"
        },
        {
          "internalType": "uint256",
          "name": "value",
          "type": "uint256"
        }
      ],
      "name": "transferFrom",
      "outputs": [
        {
          "internalType": "bool",
          "name": "",
          "type": "bool"
        }
      ],
      "stateMutability": "nonpayable",
      "type": "function"
    }
  ],
  "bytecode": "0x60806040526040516100109061009d565b604051809103906000f08015801561002c573d6000803e3d6000fd5b50600580546001600160a01b0319166001600160a01b039290921691909117905534801561005957600080fd5b5060405161202438038061202483398101604081905261007891610163565b818160036100868382610255565b5060046100938282610255565b5050505050610313565b61083a806117ea83390190565b634e487b7160e01b600052604160045260246000fd5b600082601f8301126100d157600080fd5b81516001600160401b038111156100ea576100ea6100aa565b604051601f8201601f19908116603f011681016001600160401b0381118282101715610118576101186100aa565b60405281815283820160200185101561013057600080fd5b60005b8281101561014f57602081860181015183830182015201610133565b506000918101602001919091529392505050565b6000806040838503121561017657600080fd5b82516001600160401b0381111561018c57600080fd5b610198858286016100c0565b602085015190935090506001600160401b038111156101b657600080fd5b6101c2858286016100c0565b9150509250929050565b600181811c908216806101e057607f821691505b60208210810361020057634e487b7160e01b600052602260045260246000fd5b50919050565b601f82111561025057806000526020600020601f840160051c8101602085101561022d5750805b601f840160051c820191505b8181101561024d5760008155600101610239565b50505b505050565b81516001600160401b0381111561026e5761026e6100aa565b6102828161027c84546101cc565b84610206565b6020601f8211600181146102b6576000831561029e5750848201515b600019600385901b1c1916600184901b17845561024d565b600084815260208120601f198516915b828110156102e657878501518255602094850194600190920191016102c6565b50848210156103045786840151600019600387901b60f8161c191681555b50505050600190811b01905550565b6114c8806103226000396000f3fe608060405234801561001057600080fd5b50600436106101365760003560e01c80634c435114116100b2578063a233299611610081578063a9059cbb11610066578063a9059cbb1461027b578063dd62ed3e1461028e578063fa6ac116146102c757600080fd5b8063a233299614610255578063a2b9a3271461026857600080fd5b80634c435114146101fe57806370a0823114610211578063786096201461023a57806395d89b411461024d57600080fd5b806318160ddd1161010957806323b872dd116100ee57806323b872dd146101c9578063313ce567146101dc57806335759d48146101eb57600080fd5b806318160ddd146101a45780631879b0cd146101b657600080fd5b80630180e5041461013b57806306fdde0314610150578063095ea7b31461016e57806312b6be4b14610191575b600080fd5b61014e610149366004610dcb565b6102da565b005b610158610444565b6040516101659190610eab565b60405180910390f35b61018161017c366004610ede565b6104d6565b6040519015158152602001610165565b61014e61019f366004610f0a565b6104f0565b6002545b604051908152602001610165565b61014e6101c4366004610f9b565b61062f565b6101816101d7366004611037565b61064d565b60405160128152602001610165565b61014e6101f9366004611078565b610673565b61014e61020c366004610dcb565b610685565b6101a861021f3660046110e4565b6001600160a01b031660009081526020819052604090205490565b61014e610248366004611101565b61071a565b610158610773565b61014e61026336600461118d565b610639565b61014e610276366004610f9b565b610782565b610181610289366004610ede565b61078c565b6101a861029c3660046111ed565b6001600160a01b03918216600090815260016020908152604080832093909416825291909152205490565b61014e6102d5366004611226565b61079a565b600554604051637dd5641160e01b8152600481018890526000916001600160a01b031690637dd5641190602401602060405180830381865afa158015610324573d6000803e3d6000fd5b505050506040513d601f19601f82011682018060405250810190610348919061126c565b6005546040517f54b390a00000000000000000000000000000000000000000000000000000000081529192506001600160a01b0316906354b390a090610396908a908a908a90600401611289565b600060405180830381600087803b1580156103b057600080fd5b505af11580156103c4573d6000803e3d6000fd5b5050505060005b8581101561042857610420828888848181106103e9576103e96112e8565b6103ff92602060409092020190810191506110e4565b898985818110610411576104116112e8565b905060400201602001356107b1565b6001016103cb565b5061043a6104358361136e565b61081a565b5050505050505050565b60606003805461045390611421565b80601f016020809104026020016040519081016040528092919081815260200182805461047f90611421565b80156104cc5780601f106104a1576101008083540402835291602001916104cc565b820191906000526020600020905b8154815290600101906020018083116104af57829003601f168201915b5050505050905090565b6000336104e481858561083a565b60019150505b92915050565b600554604051637dd5641160e01b8152600481018790526000916001600160a01b031690637dd5641190602401602060405180830381865afa15801561053a573d6000803e3d6000fd5b505050506040513d601f19601f8201168201806040525081019061055e919061126c565b6005546040517fc7a5b5160000000000000000000000000000000000000000000000000000000081529192506001600160a01b03169063c7a5b516906105ac90899089908990600401611289565b600060405180830381600087803b1580156105c657600080fd5b505af11580156105da573d6000803e3d6000fd5b5050505060005b8481101561043a57610627828787848181106105ff576105ff6112e8565b61061592602060409092020190810191506110e4565b888885818110610411576104116112e8565b6001016105e1565b6106398585610847565b6106456104358261136e565b505050505050565b60003361065b85828561087d565b6106668585856107b1565b60019150505b9392505050565b61067f6104358261136e565b50505050565b6005546040517fcf0f332f0000000000000000000000000000000000000000000000000000000081526001600160a01b039091169063cf0f332f906106d290899089908990600401611289565b600060405180830381600087803b1580156106ec57600080fd5b505af1158015610700573d6000803e3d6000fd5b50505050610711816104359061136e565b50505050505050565b6005546040517f207cbd5b000000000000000000000000000000000000000000000000000000008152600481018890526001600160a01b038781166024830152604482018790529091169063207cbd5b906064016106d2565b60606004805461045390611421565b610639858561090f565b6000336104e48185856107b1565b6107a58686866107b1565b6107116104358261136e565b6001600160a01b0383166107e057604051634b637e8f60e11b8152600060048201526024015b60405180910390fd5b6001600160a01b03821661080a5760405163ec442f0560e01b8152600060048201526024016107d7565b610815838383610941565b505050565b60208101518151610836916001600160a01b0390911690610a84565b5050565b6108158383836001610a92565b6001600160a01b03821661087157604051634b637e8f60e11b8152600060048201526024016107d7565b61083682600083610941565b6001600160a01b0383811660009081526001602090815260408083209386168352929052205460001981101561067f5781811015610900576040517ffb8f41b20000000000000000000000000000000000000000000000000000000081526001600160a01b038416600482015260248101829052604481018390526064016107d7565b61067f84848484036000610a92565b6001600160a01b0382166109395760405163ec442f0560e01b8152600060048201526024016107d7565b610836600083835b6001600160a01b03831661096c5780600260008282546109619190611455565b909155506109f79050565b6001600160a01b038316600090815260208190526040902054818110156109d8576040517fe450d38c0000000000000000000000000000000000000000000000000000000081526001600160a01b038516600482015260248101829052604481018390526064016107d7565b6001600160a01b03841660009081526020819052604090209082900390555b6001600160a01b038216610a1357600280548290039055610a32565b6001600160a01b03821660009081526020819052604090208054820190555b816001600160a01b0316836001600160a01b03167fddf252ad1be2c89b69c2b068fc378daa952ba7f163c4a11628f55a4df523b3ef83604051610a7791815260200190565b60405180910390a3505050565b606061066c83836000610b99565b6001600160a01b038416610ad5576040517fe602df05000000000000000000000000000000000000000000000000000000008152600060048201526024016107d7565b6001600160a01b038316610b18576040517f94280d62000000000000000000000000000000000000000000000000000000008152600060048201526024016107d7565b6001600160a01b038085166000908152600160209081526040808320938716835292905220829055801561067f57826001600160a01b0316846001600160a01b03167f8c5be1e5ebec7d5bd14f71427d1e84f3dd0314c0f7b2291e5b200ac8c7c3b92584604051610b8b91815260200190565b60405180910390a350505050565b606081471015610bde576040517fcf479181000000000000000000000000000000000000000000000000000000008152476004820152602481018390526044016107d7565b600080856001600160a01b03168486604051610bfa9190611476565b60006040518083038185875af1925050503d8060008114610c37576040519150601f19603f3d011682016040523d82523d6000602084013e610c3c565b606091505b5091509150610c4c868383610c56565b9695505050505050565b606082610c6b57610c6682610ccb565b61066c565b8151158015610c8257506001600160a01b0384163b155b15610cc4576040517f9996b3150000000000000000000000000000000000000000000000000000000081526001600160a01b03851660048201526024016107d7565b508061066c565b805115610cdb5780518082602001fd5b6040517fd6bda27500000000000000000000000000000000000000000000000000000000815260040160405180910390fd5b50565b6001600160a01b0381168114610d0d57600080fd5b60008083601f840112610d3757600080fd5b50813567ffffffffffffffff811115610d4f57600080fd5b6020830191508360208260061b8501011115610d6a57600080fd5b9250929050565b60008083601f840112610d8357600080fd5b50813567ffffffffffffffff811115610d9b57600080fd5b602083019150836020828501011115610d6a57600080fd5b600060408284031215610dc557600080fd5b50919050565b600080600080600080600060a0888a031215610de657600080fd5b8735610df181610d10565b965060208801359550604088013567ffffffffffffffff811115610e1457600080fd5b610e208a828b01610d25565b909650945050606088013567ffffffffffffffff811115610e4057600080fd5b610e4c8a828b01610d71565b909450925050608088013567ffffffffffffffff811115610e6c57600080fd5b610e788a828b01610db3565b91505092959891949750929550565b60005b83811015610ea2578181015183820152602001610e8a565b50506000910152565b6020815260008251806020840152610eca816040850160208701610e87565b601f01601f19169190910160400192915050565b60008060408385031215610ef157600080fd5b8235610efc81610d10565b946020939093013593505050565b60008060008060008060808789031215610f2357600080fd5b8635610f2e81610d10565b955060208701359450604087013567ffffffffffffffff811115610f5157600080fd5b610f5d89828a01610d25565b909550935050606087013567ffffffffffffffff811115610f7d57600080fd5b610f8989828a01610d71565b979a9699509497509295939492505050565b60008060008060008060a08789031215610fb457600080fd5b8635610fbf81610d10565b95506020870135610fcf81610d10565b945060408701359350606087013567ffffffffffffffff811115610ff257600080fd5b610ffe89828a01610d71565b909450925050608087013567ffffffffffffffff81111561101e57600080fd5b61102a89828a01610db3565b9150509295509295509295565b60008060006060848603121561104c57600080fd5b833561105781610d10565b9250602084013561106781610d10565b929592945050506040919091013590565b6000806000806080858703121561108e57600080fd5b843561109981610d10565b93506020850135925060408501356110b081610d10565b9150606085013567ffffffffffffffff8111156110cc57600080fd5b6110d887828801610db3565b91505092959194509250565b6000602082840312156110f657600080fd5b813561066c81610d10565b600080600080600080600060c0888a03121561111c57600080fd5b873561112781610d10565b965060208801359550604088013561113e81610d10565b945060608801359350608088013567ffffffffffffffff81111561116157600080fd5b61116d8a828b01610d71565b90945092505060a088013567ffffffffffffffff811115610e6c57600080fd5b60008060008060008060a087890312156111a657600080fd5b86356111b181610d10565b955060208701356111c181610d10565b945060408701356111d181610d10565b9350606087013567ffffffffffffffff811115610ff257600080fd5b6000806040838503121561120057600080fd5b823561120b81610d10565b9150602083013561121b81610d10565b809150509250929050565b600080600080600080600060c0888a03121561124157600080fd5b873561124c81610d10565b9650602088013561125c81610d10565b9550604088013561113e81610d10565b60006020828403121561127e57600080fd5b815161066c81610d10565b838152604060208201819052810182905260008360608301825b858110156112dd5782356112b681610d10565b6001600160a01b0316825260208381013590830152604092830192909101906001016112a3565b509695505050505050565b634e487b7160e01b600052603260045260246000fd5b634e487b7160e01b600052604160045260246000fd5b6040805190810167ffffffffffffffff81118282101715611337576113376112fe565b60405290565b604051601f8201601f1916810167ffffffffffffffff81118282101715611366576113666112fe565b604052919050565b60006040823603121561138057600080fd5b611388611314565b823561139381610d10565b8152602083013567ffffffffffffffff8111156113af57600080fd5b830136601f8201126113c057600080fd5b803567ffffffffffffffff8111156113da576113da6112fe565b6113ed601f8201601f191660200161133d565b81815236602083850101111561140257600080fd5b8160208401602083013760006020928201830152908301525092915050565b600181811c9082168061143557607f821691505b602082108103610dc557634e487b7160e01b600052602260045260246000fd5b808201808211156104ea57634e487b7160e01b600052601160045260246000fd5b60008251611488818460208701610e87565b919091019291505056fea2646970667358221220101976dba20ab008cc7a7c9651d4d2bce539daf517aacb73258fa3594080e91b64736f6c634300081b00336080604052348015600f57600080fd5b5061081b8061001f6000396000f3fe608060405234801561001057600080fd5b50600436106100885760003560e01c80639ae697bf1161005b5780639ae697bf14610129578063c7a5b51614610149578063cf0f332f1461015c578063d6f27b581461016f57600080fd5b8063207cbd5b1461008d5780633736f85d146100a257806354b390a0146100d55780637dd56411146100e8575b600080fd5b6100a061009b3660046105ce565b61018f565b005b6100c26100b0366004610606565b60026020526000908152604090205481565b6040519081526020015b60405180910390f35b6100a06100e336600461062a565b6101f2565b6101116100f63660046106ab565b6000908152602081905260409020546001600160a01b031690565b6040516001600160a01b0390911681526020016100cc565b6100c2610137366004610606565b60016020526000908152604090205481565b6100a061015736600461062a565b6102f7565b6100a061016a36600461062a565b6103a5565b61018261017d3660046106ab565b61049e565b6040516100cc91906106c4565b600083815260208181526040808320805473ffffffffffffffffffffffffffffffffffffffff19166001600160a01b0387169081178255600180830187905590855290925282208054919284926101e7908490610763565b909155505050505050565b6000838152602081905260408120905b828110156102955783838281811061021c5761021c61077c565b905060400201602001358260010160008282546102399190610792565b9091555084905083828181106102515761025161077c565b84546001600160a01b0316600090815260016020908152604080832080549490910295909501013593925090610288908490610792565b9091555050600101610202565b506102a460028201600061055e565b80600101546000036102f1576000848152602081905260408120805473ffffffffffffffffffffffffffffffffffffffff1916815560018101829055906102ee600283018261055e565b50505b50505050565b6000838152602081905260408120905b6002820154811015610399578160020181815481106103285761032861077c565b906000526020600020906002020160010154600260008460020184815481106103535761035361077c565b600091825260208083206002909202909101546001600160a01b031683528201929092526040018120805490919061038c908490610792565b9091555050600101610307565b506102f18484846101f2565b6000838152602081905260408120906103c290600283019061055e565b60005b82811015610497578383828181106103df576103df61077c565b90506040020160200135600260008686858181106103ff576103ff61077c565b6104159260206040909202019081019150610606565b6001600160a01b03166001600160a01b0316815260200190815260200160002060008282546104449190610763565b90915550506002820184848381811061045f5761045f61077c565b83546001810185556000948552602090942060409091029290920192600202909101905061048d82826107a5565b50506001016103c5565b5050505050565b6040805160608082018352600080835260208084018290528385018390528582528181528482208551938401865280546001600160a01b03168452600181015484830152600281018054875181850281018501895281815296979596929587019492939192909184015b82821015610550576000848152602090819020604080518082019091526002850290910180546001600160a01b03168252600190810154828401529083529092019101610508565b505050915250909392505050565b508054600082556002029060005260206000209081019061057f9190610582565b50565b5b808211156105b557805473ffffffffffffffffffffffffffffffffffffffff1916815560006001820155600201610583565b5090565b6001600160a01b038116811461057f57600080fd5b6000806000606084860312156105e357600080fd5b8335925060208401356105f5816105b9565b929592945050506040919091013590565b60006020828403121561061857600080fd5b8135610623816105b9565b9392505050565b60008060006040848603121561063f57600080fd5b83359250602084013567ffffffffffffffff81111561065d57600080fd5b8401601f8101861361066e57600080fd5b803567ffffffffffffffff81111561068557600080fd5b8660208260061b840101111561069a57600080fd5b939660209190910195509293505050565b6000602082840312156106bd57600080fd5b5035919050565b602081526000608082016001600160a01b03845116602084015260208401516040840152604084015160608085015281815180845260a086019150602083019350600092505b808310156107435783516001600160a01b038151168352602081015160208401525060408201915060208401935060018301925061070a565b5095945050505050565b634e487b7160e01b600052601160045260246000fd5b808201808211156107765761077661074d565b92915050565b634e487b7160e01b600052603260045260246000fd5b818103818111156107765761077661074d565b81356107b0816105b9565b6001600160a01b03811673ffffffffffffffffffffffffffffffffffffffff198354161782555060208201356001820155505056fea26469706673582212204a111fcf6a75a6a0f732173120581198edbd412586fcd62e8a51701cfeafdc5d64736f6c634300081b0033",
  "linkReferences": {},
  "deployedLinkReferences": {}
}