{
  "_format": "hh-sol-artifact-1",
  "contractName": "NotoLocks",
  "sourceName": "contracts/private/NotoLocks.sol",
  "abi": [
    {
      "inputs": [
        {
          "internalType": "bytes32",
          "name": "lockId",
          "type": "bytes32"
        }
      ],
      "name": "getLock",
      "outputs": [
        {
          "components": [
            {
              "internalType": "address",
              "name": "from",
              "type": "address"
            },
            {
              "internalType": "uint256",
              "name": "amount",
              "type": "uint256"
            },
            {
              "components": [
                {
                  "internalType": "address",
                  "name": "to",
                  "type": "address"
                },
                {
                  "internalType": "uint256",
                  "name": "amount",
                  "type": "uint256"
                }
              ],
              "internalType": "struct INotoHooks.UnlockRecipient[]",
              "name": "recipients",
              "type": "tuple[]"
            }
          ],
          "internalType": "struct NotoLocks.LockDetail",
          "name": "",
          "type": "tuple"
        }
      ],
      "stateMutability": "view",
      "type": "function"
    },
    {
      "inputs": [
        {
          "internalType": "bytes32",
          "name": "lockId",
          "type": "bytes32"
        },
        {
          "components": [
            {
              "internalType": "address",
              "name": "to",
              "type": "address"
            },
            {
              "internalType": "uint256",
              "name": "amount",
              "type": "uint256"
            }
          ],
          "internalType": "struct INotoHooks.UnlockRecipient[]",
          "name": "recipients",
          "type": "tuple[]"
        }
      ],
      "name": "handleDelegateUnlock",
      "outputs": [],
      "stateMutability": "nonpayable",
      "type": "function"
    },
    {
      "inputs": [
        {
          "internalType": "address",
          "name": "",
          "type": "address"
        }
      ],
      "name": "lockedBalance",
      "outputs": [
        {
          "internalType": "uint256",
          "name": "",
          "type": "uint256"
        }
      ],
      "stateMutability": "view",
      "type": "function"
    },
    {
      "inputs": [
        {
          "internalType": "bytes32",
          "name": "lockId",
          "type": "bytes32"
        },
        {
          "internalType": "address",
          "name": "from",
          "type": "address"
        },
        {
          "internalType": "uint256",
          "name": "amount",
          "type": "uint256"
        }
      ],
      "name": "onLock",
      "outputs": [],
      "stateMutability": "nonpayable",
      "type": "function"
    },
    {
      "inputs": [
        {
          "internalType": "bytes32",
          "name": "lockId",
          "type": "bytes32"
        },
        {
          "components": [
            {
              "internalType": "address",
              "name": "to",
              "type": "address"
            },
            {
              "internalType": "uint256",
              "name": "amount",
              "type": "uint256"
            }
          ],
          "internalType": "struct INotoHooks.UnlockRecipient[]",
          "name": "recipients",
          "type": "tuple[]"
        }
      ],
      "name": "onPrepareUnlock",
      "outputs": [],
      "stateMutability": "nonpayable",
      "type": "function"
    },
    {
      "inputs": [
        {
          "internalType": "bytes32",
          "name": "lockId",
          "type": "bytes32"
        },
        {
          "components": [
            {
              "internalType": "address",
              "name": "to",
              "type": "address"
            },
            {
              "internalType": "uint256",
              "name": "amount",
              "type": "uint256"
            }
          ],
          "internalType": "struct INotoHooks.UnlockRecipient[]",
          "name": "recipients",
          "type": "tuple[]"
        }
      ],
      "name": "onUnlock",
      "outputs": [],
      "stateMutability": "nonpayable",
      "type": "function"
    },
    {
      "inputs": [
        {
          "internalType": "bytes32",
          "name": "lockId",
          "type": "bytes32"
        }
      ],
      "name": "ownerOf",
      "outputs": [
        {
          "internalType": "address",
          "name": "",
          "type": "address"
        }
      ],
      "stateMutability": "view",
      "type": "function"
    },
    {
      "inputs": [
        {
          "internalType": "address",
          "name": "",
          "type": "address"
        }
      ],
      "name": "pendingBalance",
      "outputs": [
        {
          "internalType": "uint256",
          "name": "",
          "type": "uint256"
        }
      ],
      "stateMutability": "view",
      "type": "function"
    }
  ],
  "bytecode": "0x6080604052348015600f57600080fd5b5061081b8061001f6000396000f3fe608060405234801561001057600080fd5b50600436106100885760003560e01c80639ae697bf1161005b5780639ae697bf14610129578063c7a5b51614610149578063cf0f332f1461015c578063d6f27b581461016f57600080fd5b8063207cbd5b1461008d5780633736f85d146100a257806354b390a0146100d55780637dd56411146100e8575b600080fd5b6100a061009b3660046105ce565b61018f565b005b6100c26100b0366004610606565b60026020526000908152604090205481565b6040519081526020015b60405180910390f35b6100a06100e336600461062a565b6101f2565b6101116100f63660046106ab565b6000908152602081905260409020546001600160a01b031690565b6040516001600160a01b0390911681526020016100cc565b6100c2610137366004610606565b60016020526000908152604090205481565b6100a061015736600461062a565b6102f7565b6100a061016a36600461062a565b6103a5565b61018261017d3660046106ab565b61049e565b6040516100cc91906106c4565b600083815260208181526040808320805473ffffffffffffffffffffffffffffffffffffffff19166001600160a01b0387169081178255600180830187905590855290925282208054919284926101e7908490610763565b909155505050505050565b6000838152602081905260408120905b828110156102955783838281811061021c5761021c61077c565b905060400201602001358260010160008282546102399190610792565b9091555084905083828181106102515761025161077c565b84546001600160a01b0316600090815260016020908152604080832080549490910295909501013593925090610288908490610792565b9091555050600101610202565b506102a460028201600061055e565b80600101546000036102f1576000848152602081905260408120805473ffffffffffffffffffffffffffffffffffffffff1916815560018101829055906102ee600283018261055e565b50505b50505050565b6000838152602081905260408120905b6002820154811015610399578160020181815481106103285761032861077c565b906000526020600020906002020160010154600260008460020184815481106103535761035361077c565b600091825260208083206002909202909101546001600160a01b031683528201929092526040018120805490919061038c908490610792565b9091555050600101610307565b506102f18484846101f2565b6000838152602081905260408120906103c290600283019061055e565b60005b82811015610497578383828181106103df576103df61077c565b90506040020160200135600260008686858181106103ff576103ff61077c565b6104159260206040909202019081019150610606565b6001600160a01b03166001600160a01b0316815260200190815260200160002060008282546104449190610763565b90915550506002820184848381811061045f5761045f61077c565b83546001810185556000948552602090942060409091029290920192600202909101905061048d82826107a5565b50506001016103c5565b5050505050565b6040805160608082018352600080835260208084018290528385018390528582528181528482208551938401865280546001600160a01b03168452600181015484830152600281018054875181850281018501895281815296979596929587019492939192909184015b82821015610550576000848152602090819020604080518082019091526002850290910180546001600160a01b03168252600190810154828401529083529092019101610508565b505050915250909392505050565b508054600082556002029060005260206000209081019061057f9190610582565b50565b5b808211156105b557805473ffffffffffffffffffffffffffffffffffffffff1916815560006001820155600201610583565b5090565b6001600160a01b038116811461057f57600080fd5b6000806000606084860312156105e357600080fd5b8335925060208401356105f5816105b9565b929592945050506040919091013590565b60006020828403121561061857600080fd5b8135610623816105b9565b9392505050565b60008060006040848603121561063f57600080fd5b83359250602084013567ffffffffffffffff81111561065d57600080fd5b8401601f8101861361066e57600080fd5b803567ffffffffffffffff81111561068557600080fd5b8660208260061b840101111561069a57600080fd5b939660209190910195509293505050565b6000602082840312156106bd57600080fd5b5035919050565b602081526000608082016001600160a01b03845116602084015260208401516040840152604084015160608085015281815180845260a086019150602083019350600092505b808310156107435783516001600160a01b038151168352602081015160208401525060408201915060208401935060018301925061070a565b5095945050505050565b634e487b7160e01b600052601160045260246000fd5b808201808211156107765761077661074d565b92915050565b634e487b7160e01b600052603260045260246000fd5b818103818111156107765761077661074d565b81356107b0816105b9565b6001600160a01b03811673ffffffffffffffffffffffffffffffffffffffff198354161782555060208201356001820155505056fea26469706673582212204a111fcf6a75a6a0f732173120581198edbd412586fcd62e8a51701cfeafdc5d64736f6c634300081b0033",
  "linkReferences": {},
  "deployedLinkReferences": {}
}