{
  "_format": "hh-sol-artifact-1",
  "contractName": "NotoTrackerERC20",
  "sourceName": "contracts/private/NotoTrackerERC20.sol",
  "abi": [
    {
      "inputs": [
        {
          "internalType": "string",
          "name": "name",
          "type": "string"
        },
        {
          "internalType": "string",
          "name": "symbol",
          "type": "string"
        }
      ],
      "stateMutability": "nonpayable",
      "type": "constructor"
    },
    {
      "inputs": [
        {
          "internalType": "address",
          "name": "spender",
          "type": "address"
        },
        {
          "internalType": "uint256",
          "name": "allowance",
          "type": "uint256"
        },
        {
          "internalType": "uint256",
          "name": "needed",
          "type": "uint256"
        }
      ],
      "name": "ERC20InsufficientAllowance",
      "type": "error"
    },
    {
      "inputs": [
        {
          "internalType": "address",
          "name": "sender",
          "type": "address"
        },
        {
          "internalType": "uint256",
          "name": "balance",
          "type": "uint256"
        },
        {
          "internalType": "uint256",
          "name": "needed",
          "type": "uint256"
        }
      ],
      "name": "ERC20InsufficientBalance",
      "type": "error"
    },
    {
      "inputs": [
        {
          "internalType": "address",
          "name": "approver",
          "type": "address"
        }
      ],
      "name": "ERC20InvalidApprover",
      "type": "error"
    },
    {
      "inputs": [
        {
          "internalType": "address",
          "name": "receiver",
          "type": "address"
        }
      ],
      "name": "ERC20InvalidReceiver",
      "type": "error"
    },
    {
      "inputs": [
        {
          "internalType": "address",
          "name": "sender",
          "type": "address"
        }
      ],
      "name": "ERC20InvalidSender",
      "type": "error"
    },
    {
      "inputs": [
        {
          "internalType": "address",
          "name": "spender",
          "type": "address"
        }
      ],
      "name": "ERC20InvalidSpender",
      "type": "error"
    },
    {
      "anonymous": false,
      "inputs": [
        {
          "indexed": true,
          "internalType": "address",
          "name": "owner",
          "type": "address"
        },
        {
          "indexed": true,
          "internalType": "address",
          "name": "spender",
          "type": "address"
        },
        {
          "indexed": false,
          "internalType": "uint256",
          "name": "value",
          "type": "uint256"
        }
      ],
      "name": "Approval",
      "type": "event"
    },
    {
      "anonymous": false,
      "inputs": [
        {
          "indexed": true,
          "internalType": "address",
          "name": "contractAddress",
          "type": "address"
        },
        {
          "indexed": false,
          "internalType": "bytes",
          "name": "encodedCall",
          "type": "bytes"
        }
      ],
      "name": "PenteExternalCall",
      "type": "event"
    },
    {
      "anonymous": false,
      "inputs": [
        {
          "indexed": true,
          "internalType": "address",
          "name": "from",
          "type": "address"
        },
        {
          "indexed": true,
          "internalType": "address",
          "name": "to",
          "type": "address"
        },
        {
          "indexed": false,
          "internalType": "uint256",
          "name": "value",
          "type": "uint256"
        }
      ],
      "name": "Transfer",
      "type": "event"
    },
    {
      "inputs": [
        {
          "internalType": "address",
          "name": "owner",
          "type": "address"
        },
        {
          "internalType": "address",
          "name": "spender",
          "type": "address"
        }
      ],
      "name": "allowance",
      "outputs": [
        {
          "internalType": "uint256",
          "name": "",
          "type": "uint256"
        }
      ],
      "stateMutability": "view",
      "type": "function"
    },
    {
      "inputs": [
        {
          "internalType": "address",
          "name": "spender",
          "type": "address"
        },
        {
          "internalType": "uint256",
          "name": "value",
          "type": "uint256"
        }
      ],
      "name": "approve",
      "outputs": [
        {
          "internalType": "bool",
          "name": "",
          "type": "bool"
        }
      ],
      "stateMutability": "nonpayable",
      "type": "function"
    },
    {
      "inputs": [
        {
          "internalType": "address",
          "name": "account",
          "type": "address"
        }
      ],
      "name": "balanceOf",
      "outputs": [
        {
          "internalType": "uint256",
          "name": "",
          "type": "uint256"
        }
      ],
      "stateMutability": "view",
      "type": "function"
    },
    {
      "inputs": [],
      "name": "decimals",
      "outputs": [
        {
          "internalType": "uint8",
          "name": "",
          "type": "uint8"
        }
      ],
      "stateMutability": "view",
      "type": "function"
    },
    {
      "inputs": [
        {
          "internalType": "address",
          "name": "sender",
          "type": "address"
        },
        {
          "internalType": "bytes32",
          "name": "lockId",
          "type": "bytes32"
        },
        {
          "components": [
            {
              "internalType": "address",
              "name": "to",
              "type": "address"
            },
            {
              "internalType": "uint256",
              "name": "amount",
              "type": "uint256"
            }
          ],
          "internalType": "struct INotoHooks.UnlockRecipient[]",
          "name": "recipients",
          "type": "tuple[]"
        },
        {
          "internalType": "bytes",
          "name": "data",
          "type": "bytes"
        }
      ],
      "name": "handleDelegateUnlock",
      "outputs": [],
      "stateMutability": "nonpayable",
      "type": "function"
    },
    {
      "inputs": [],
      "name": "name",
      "outputs": [
        {
          "internalType": "string",
          "name": "",
          "type": "string"
        }
      ],
      "stateMutability": "view",
      "type": "function"
    },
    {
      "inputs": [
        {
          "internalType": "address",
          "name": "sender",
          "type": "address"
        },
        {
          "internalType": "address",
          "name": "from",
          "type": "address"
        },
        {
          "internalType": "address",
          "name": "delegate",
          "type": "address"
        },
        {
          "internalType": "bytes",
          "name": "data",
          "type": "bytes"
        },
        {
          "components": [
            {
              "internalType": "address",
              "name": "contractAddress",
              "type": "address"
            },
            {
              "internalType": "bytes",
              "name": "encodedCall",
              "type": "bytes"
            }
          ],
          "internalType": "struct INotoHooks.PreparedTransaction",
          "name": "prepared",
          "type": "tuple"
        }
      ],
      "name": "onApproveTransfer",
      "outputs": [],
      "stateMutability": "nonpayable",
      "type": "function"
    },
    {
      "inputs": [
        {
          "internalType": "address",
          "name": "sender",
          "type": "address"
        },
        {
          "internalType": "address",
          "name": "from",
          "type": "address"
        },
        {
          "internalType": "uint256",
          "name": "amount",
          "type": "uint256"
        },
        {
          "internalType": "bytes",
          "name": "data",
          "type": "bytes"
        },
        {
          "components": [
            {
              "internalType": "address",
              "name": "contractAddress",
              "type": "address"
            },
            {
              "internalType": "bytes",
              "name": "encodedCall",
              "type": "bytes"
            }
          ],
          "internalType": "struct INotoHooks.PreparedTransaction",
          "name": "prepared",
          "type": "tuple"
        }
      ],
      "name": "onBurn",
      "outputs": [],
      "stateMutability": "nonpayable",
      "type": "function"
    },
    {
      "inputs": [
        {
          "internalType": "address",
          "name": "sender",
          "type": "address"
        },
        {
          "internalType": "bytes32",
          "name": "lockId",
          "type": "bytes32"
        },
        {
          "internalType": "address",
          "name": "delegate",
          "type": "address"
        },
        {
          "components": [
            {
              "internalType": "address",
              "name": "contractAddress",
              "type": "address"
            },
            {
              "internalType": "bytes",
              "name": "encodedCall",
              "type": "bytes"
            }
          ],
          "internalType": "struct INotoHooks.PreparedTransaction",
          "name": "prepared",
          "type": "tuple"
        }
      ],
      "name": "onDelegateLock",
      "outputs": [],
      "stateMutability": "nonpayable",
      "type": "function"
    },
    {
      "inputs": [
        {
          "internalType": "address",
          "name": "sender",
          "type": "address"
        },
        {
          "internalType": "bytes32",
          "name": "lockId",
          "type": "bytes32"
        },
        {
          "internalType": "address",
          "name": "from",
          "type": "address"
        },
        {
          "internalType": "uint256",
          "name": "amount",
          "type": "uint256"
        },
        {
          "internalType": "bytes",
          "name": "data",
          "type": "bytes"
        },
        {
          "components": [
            {
              "internalType": "address",
              "name": "contractAddress",
              "type": "address"
            },
            {
              "internalType": "bytes",
              "name": "encodedCall",
              "type": "bytes"
            }
          ],
          "internalType": "struct INotoHooks.PreparedTransaction",
          "name": "prepared",
          "type": "tuple"
        }
      ],
      "name": "onLock",
      "outputs": [],
      "stateMutability": "nonpayable",
      "type": "function"
    },
    {
      "inputs": [
        {
          "internalType": "address",
          "name": "sender",
          "type": "address"
        },
        {
          "internalType": "address",
          "name": "to",
          "type": "address"
        },
        {
          "internalType": "uint256",
          "name": "amount",
          "type": "uint256"
        },
        {
          "internalType": "bytes",
          "name": "data",
          "type": "bytes"
        },
        {
          "components": [
            {
              "internalType": "address",
              "name": "contractAddress",
              "type": "address"
            },
            {
              "internalType": "bytes",
              "name": "encodedCall",
              "type": "bytes"
            }
          ],
          "internalType": "struct INotoHooks.PreparedTransaction",
          "name": "prepared",
          "type": "tuple"
        }
      ],
      "name": "onMint",
      "outputs": [],
      "stateMutability": "nonpayable",
      "type": "function"
    },
    {
      "inputs": [
        {
          "internalType": "address",
          "name": "sender",
          "type": "address"
        },
        {
          "internalType": "bytes32",
          "name": "lockId",
          "type": "bytes32"
        },
        {
          "components": [
            {
              "internalType": "address",
              "name": "to",
              "type": "address"
            },
            {
              "internalType": "uint256",
              "name": "amount",
              "type": "uint256"
            }
          ],
          "internalType": "struct INotoHooks.UnlockRecipient[]",
          "name": "recipients",
          "type": "tuple[]"
        },
        {
          "internalType": "bytes",
          "name": "data",
          "type": "bytes"
        },
        {
          "components": [
            {
              "internalType": "address",
              "name": "contractAddress",
              "type": "address"
            },
            {
              "internalType": "bytes",
              "name": "encodedCall",
              "type": "bytes"
            }
          ],
          "internalType": "struct INotoHooks.PreparedTransaction",
          "name": "prepared",
          "type": "tuple"
        }
      ],
      "name": "onPrepareUnlock",
      "outputs": [],
      "stateMutability": "nonpayable",
      "type": "function"
    },
    {
      "inputs": [
        {
          "internalType": "address",
          "name": "sender",
          "type": "address"
        },
        {
          "internalType": "address",
          "name": "from",
          "type": "address"
        },
        {
          "internalType": "address",
          "name": "to",
          "type": "address"
        },
        {
          "internalType": "uint256",
          "name": "amount",
          "type": "uint256"
        },
        {
          "internalType": "bytes",
          "name": "data",
          "type": "bytes"
        },
        {
          "components": [
            {
              "internalType": "address",
              "name": "contractAddress",
              "type": "address"
            },
            {
              "internalType": "bytes",
              "name": "encodedCall",
              "type": "bytes"
            }
          ],
          "internalType": "struct INotoHooks.PreparedTransaction",
          "name": "prepared",
          "type": "tuple"
        }
      ],
      "name": "onTransfer",
      "outputs": [],
      "stateMutability": "nonpayable",
      "type": "function"
    },
    {
      "inputs": [
        {
          "internalType": "address",
          "name": "sender",
          "type": "address"
        },
        {
          "internalType": "bytes32",
          "name": "lockId",
          "type": "bytes32"
        },
        {
          "components": [
            {
              "internalType": "address",
              "name": "to",
              "type": "address"
            },
            {
              "internalType": "uint256",
              "name": "amount",
              "type": "uint256"
            }
          ],
          "internalType": "struct INotoHooks.UnlockRecipient[]",
          "name": "recipients",
          "type": "tuple[]"
        },
        {
          "internalType": "bytes",
          "name": "data",
          "type": "bytes"
        },
        {
          "components": [
            {
              "internalType": "address",
              "name": "contractAddress",
              "type": "address"
            },
            {
              "internalType": "bytes",
              "name": "encodedCall",
              "type": "bytes"
            }
          ],
          "internalType": "struct INotoHooks.PreparedTransaction",
          "name": "prepared",
          "type": "tuple"
        }
      ],
      "name": "onUnlock",
      "outputs": [],
      "stateMutability": "nonpayable",
      "type": "function"
    },
    {
      "inputs": [],
      "name": "symbol",
      "outputs": [
        {
          "internalType": "string",
          "name": "",
          "type": "string"
        }
      ],
      "stateMutability": "view",
      "type": "function"
    },
    {
      "inputs": [],
      "name": "totalSupply",
      "outputs": [
        {
          "internalType": "uint256",
          "name": "",
          "type": "uint256"
        }
      ],
      "stateMutability": "view",
      "type": "function"
    },
    {
      "inputs": [
        {
          "internalType": "address",
          "name": "to",
          "type": "address"
        },
        {
          "internalType": "uint256",
          "name": "value",
          "type": "uint256"
        }
      ],
      "name": "transfer",
      "outputs": [
        {
          "internalType": "bool",
          "name": "",
          "type": "bool"
        }
      ],
      "stateMutability": "nonpayable",
      "type": "function"
    },
    {
      "inputs": [
        {
          "internalType": "address",
          "name": "from",
          "type": "address"
        },
        {
          "internalType": "address",
          "name": "to",
          "type": "address"
        },
        {
          "internalType": "uint256",
          "name": "value",
          "type": "uint256"
        }
      ],
      "name": "transferFrom",
      "outputs": [
        {
          "internalType": "bool",
          "name": "",
          "type": "bool"
        }
      ],
      "stateMutability": "nonpayable",
      "type": "function"
    }
  ],
  "bytecode": "0x6080604052604051610010906100b0565b604051809103906000f08015801561002c573d6000803e3d6000fd5b50600580546001600160a01b0319166001600160a01b039290921691909117905534801561005957600080fd5b5060405161223038038061223083398101604081905261007891610176565b818160036100868382610268565b5060046100938282610268565b5050600680546001600160a01b0319163317905550610326915050565b61083a806119f683390190565b634e487b7160e01b600052604160045260246000fd5b600082601f8301126100e457600080fd5b81516001600160401b038111156100fd576100fd6100bd565b604051601f8201601f19908116603f011681016001600160401b038111828210171561012b5761012b6100bd565b60405281815283820160200185101561014357600080fd5b60005b8281101561016257602081860181015183830182015201610146565b506000918101602001919091529392505050565b6000806040838503121561018957600080fd5b82516001600160401b0381111561019f57600080fd5b6101ab858286016100d3565b602085015190935090506001600160401b038111156101c957600080fd5b6101d5858286016100d3565b9150509250929050565b600181811c908216806101f357607f821691505b60208210810361021357634e487b7160e01b600052602260045260246000fd5b50919050565b601f82111561026357806000526020600020601f840160051c810160208510156102405750805b601f840160051c820191505b81811015610260576000815560010161024c565b50505b505050565b81516001600160401b03811115610281576102816100bd565b6102958161028f84546101df565b84610219565b6020601f8211600181146102c957600083156102b15750848201515b600019600385901b1c1916600184901b178455610260565b600084815260208120601f198516915b828110156102f957878501518255602094850194600190920191016102d9565b50848210156103175786840151600019600387901b60f8161c191681555b50505050600190811b01905550565b6116c1806103356000396000f3fe608060405234801561001057600080fd5b50600436106101365760003560e01c80634c435114116100b2578063a233299611610081578063a9059cbb11610066578063a9059cbb1461027b578063dd62ed3e1461028e578063fa6ac116146102c757600080fd5b8063a233299614610255578063a2b9a3271461026857600080fd5b80634c435114146101fe57806370a0823114610211578063786096201461023a57806395d89b411461024d57600080fd5b806318160ddd1161010957806323b872dd116100ee57806323b872dd146101c9578063313ce567146101dc57806335759d48146101eb57600080fd5b806318160ddd146101a45780631879b0cd146101b657600080fd5b80630180e5041461013b57806306fdde0314610150578063095ea7b31461016e57806312b6be4b14610191575b600080fd5b61014e61014936600461106e565b6102da565b005b6101586103ca565b604051610165919061112a565b60405180910390f35b61018161017c366004611178565b61045c565b6040519015158152602001610165565b61014e61019f3660046111a4565b610476565b6002545b604051908152602001610165565b61014e6101c4366004611235565b6105ce565b6101816101d73660046112d1565b6105e4565b60405160128152602001610165565b61014e6101f9366004611312565b610608565b61014e61020c36600461106e565b610668565b6101a861021f36600461137e565b6001600160a01b031660009081526020819052604090205490565b61014e6102483660046113a2565b610748565b610158610760565b61014e61026336600461142e565b61076f565b61014e610276366004611235565b6107e7565b610181610289366004611178565b610854565b6101a861029c36600461148e565b6001600160a01b03918216600090815260016020908152604080832093909416825291909152205490565b61014e6102d53660046114c7565b610862565b600554604051637dd5641160e01b815260048101889052889188916001600160a01b0390911690637dd5641190602401602060405180830381865afa158015610327573d6000803e3d6000fd5b505050506040513d601f19601f8201168201806040525081019061034b919061150d565b6001600160a01b0316826001600160a01b0316146103b05760405162461bcd60e51b815260206004820152601c60248201527f53656e646572206973206e6f7420746865206c6f636b206f776e65720000000060448201526064015b60405180910390fd5b6103bf898989898989896108d4565b505050505050505050565b6060600380546103d99061152a565b80601f01602080910402602001604051908101604052809291908181526020018280546104059061152a565b80156104525780601f1061042757610100808354040283529160200191610452565b820191906000526020600020905b81548152906001019060200180831161043557829003601f168201915b5050505050905090565b60003361046a818585610a78565b60019150505b92915050565b600554604051637dd5641160e01b8152600481018790526000916001600160a01b031690637dd5641190602401602060405180830381865afa1580156104c0573d6000803e3d6000fd5b505050506040513d601f19601f820116820180604052508101906104e4919061150d565b6005546040517fc7a5b5160000000000000000000000000000000000000000000000000000000081529192506001600160a01b03169063c7a5b516906105329089908990899060040161155e565b600060405180830381600087803b15801561054c57600080fd5b505af1158015610560573d6000803e3d6000fd5b5050505060005b848110156105c4576105bc82878784818110610585576105856115bd565b61059b926020604090920201908101915061137e565b8888858181106105ad576105ad6115bd565b90506040020160200135610a8a565b600101610567565b5050505050505050565b6105dc868686868686610ae9565b505050505050565b6000336105f2858285610b00565b6105fd858585610a8a565b506001949350505050565b610615602082018261137e565b6001600160a01b03167fcac03685d5ba4ab3e1465a8ee1b2bb21094ddbd612a969fd34f93a5be7a0ac4f61064c60208401846115d3565b60405161065a92919061161a565b60405180910390a250505050565b600554604051637dd5641160e01b815260048101889052889188916001600160a01b0390911690637dd5641190602401602060405180830381865afa1580156106b5573d6000803e3d6000fd5b505050506040513d601f19601f820116820180604052508101906106d9919061150d565b6001600160a01b0316826001600160a01b0316146107395760405162461bcd60e51b815260206004820152601c60248201527f53656e646572206973206e6f7420746865206c6f636b206f776e65720000000060448201526064016103a7565b6103bf89898989898989610b98565b61075787878787878787610c7b565b50505050505050565b6060600480546103d99061152a565b6007805490600061077f8361165f565b909155506107929050602082018261137e565b6001600160a01b03167fcac03685d5ba4ab3e1465a8ee1b2bb21094ddbd612a969fd34f93a5be7a0ac4f6107c960208401846115d3565b6040516107d792919061161a565b60405180910390a2505050505050565b60065486906001600160a01b038083169116146108465760405162461bcd60e51b815260206004820152601860248201527f53656e646572206973206e6f7420746865206e6f74617279000000000000000060448201526064016103a7565b610757878787878787610cd4565b60003361046a818585610a8a565b8686806001600160a01b0316826001600160a01b0316146108c55760405162461bcd60e51b815260206004820152601e60248201527f53656e646572206973206e6f74207468652066726f6d2061646472657373000060448201526064016103a7565b6103bf89898989898989610cde565b600554604051637dd5641160e01b8152600481018890526000916001600160a01b031690637dd5641190602401602060405180830381865afa15801561091e573d6000803e3d6000fd5b505050506040513d601f19601f82011682018060405250810190610942919061150d565b6005546040517f54b390a00000000000000000000000000000000000000000000000000000000081529192506001600160a01b0316906354b390a090610990908a908a908a9060040161155e565b600060405180830381600087803b1580156109aa57600080fd5b505af11580156109be573d6000803e3d6000fd5b5050505060005b85811015610a1357610a0b828888848181106109e3576109e36115bd565b6109f9926020604090920201908101915061137e565b8989858181106105ad576105ad6115bd565b6001016109c5565b50610a21602083018361137e565b6001600160a01b03167fcac03685d5ba4ab3e1465a8ee1b2bb21094ddbd612a969fd34f93a5be7a0ac4f610a5860208501856115d3565b604051610a6692919061161a565b60405180910390a25050505050505050565b610a858383836001610cf6565b505050565b6001600160a01b038316610ab457604051634b637e8f60e11b8152600060048201526024016103a7565b6001600160a01b038216610ade5760405163ec442f0560e01b8152600060048201526024016103a7565b610a85838383610dfd565b610af38585610f40565b610792602082018261137e565b6001600160a01b03838116600090815260016020908152604080832093861683529290522054600019811015610b925781811015610b83576040517ffb8f41b20000000000000000000000000000000000000000000000000000000081526001600160a01b038416600482015260248101829052604481018390526064016103a7565b610b9284848484036000610cf6565b50505050565b6005546040517fcf0f332f0000000000000000000000000000000000000000000000000000000081526001600160a01b039091169063cf0f332f90610be59089908990899060040161155e565b600060405180830381600087803b158015610bff57600080fd5b505af1158015610c13573d6000803e3d6000fd5b50610c2592505050602082018261137e565b6001600160a01b03167fcac03685d5ba4ab3e1465a8ee1b2bb21094ddbd612a969fd34f93a5be7a0ac4f610c5c60208401846115d3565b604051610c6a92919061161a565b60405180910390a250505050505050565b6005546040517f207cbd5b000000000000000000000000000000000000000000000000000000008152600481018890526001600160a01b038781166024830152604482018790529091169063207cbd5b90606401610be5565b610af38585610f7a565b610ce9868686610a8a565b610c25602082018261137e565b6001600160a01b038416610d39576040517fe602df05000000000000000000000000000000000000000000000000000000008152600060048201526024016103a7565b6001600160a01b038316610d7c576040517f94280d62000000000000000000000000000000000000000000000000000000008152600060048201526024016103a7565b6001600160a01b0380851660009081526001602090815260408083209387168352929052208290558015610b9257826001600160a01b0316846001600160a01b03167f8c5be1e5ebec7d5bd14f71427d1e84f3dd0314c0f7b2291e5b200ac8c7c3b92584604051610def91815260200190565b60405180910390a350505050565b6001600160a01b038316610e28578060026000828254610e1d9190611678565b90915550610eb39050565b6001600160a01b03831660009081526020819052604090205481811015610e94576040517fe450d38c0000000000000000000000000000000000000000000000000000000081526001600160a01b038516600482015260248101829052604481018390526064016103a7565b6001600160a01b03841660009081526020819052604090209082900390555b6001600160a01b038216610ecf57600280548290039055610eee565b6001600160a01b03821660009081526020819052604090208054820190555b816001600160a01b0316836001600160a01b03167fddf252ad1be2c89b69c2b068fc378daa952ba7f163c4a11628f55a4df523b3ef83604051610f3391815260200190565b60405180910390a3505050565b6001600160a01b038216610f6a57604051634b637e8f60e11b8152600060048201526024016103a7565b610f7682600083610dfd565b5050565b6001600160a01b038216610fa45760405163ec442f0560e01b8152600060048201526024016103a7565b610f7660008383610dfd565b6001600160a01b0381168114610fc557600080fd5b50565b60008083601f840112610fda57600080fd5b50813567ffffffffffffffff811115610ff257600080fd5b6020830191508360208260061b850101111561100d57600080fd5b9250929050565b60008083601f84011261102657600080fd5b50813567ffffffffffffffff81111561103e57600080fd5b60208301915083602082850101111561100d57600080fd5b60006040828403121561106857600080fd5b50919050565b600080600080600080600060a0888a03121561108957600080fd5b873561109481610fb0565b965060208801359550604088013567ffffffffffffffff8111156110b757600080fd5b6110c38a828b01610fc8565b909650945050606088013567ffffffffffffffff8111156110e357600080fd5b6110ef8a828b01611014565b909450925050608088013567ffffffffffffffff81111561110f57600080fd5b61111b8a828b01611056565b91505092959891949750929550565b602081526000825180602084015260005b81811015611158576020818601810151604086840101520161113b565b506000604082850101526040601f19601f83011684010191505092915050565b6000806040838503121561118b57600080fd5b823561119681610fb0565b946020939093013593505050565b600080600080600080608087890312156111bd57600080fd5b86356111c881610fb0565b955060208701359450604087013567ffffffffffffffff8111156111eb57600080fd5b6111f789828a01610fc8565b909550935050606087013567ffffffffffffffff81111561121757600080fd5b61122389828a01611014565b979a9699509497509295939492505050565b60008060008060008060a0878903121561124e57600080fd5b863561125981610fb0565b9550602087013561126981610fb0565b945060408701359350606087013567ffffffffffffffff81111561128c57600080fd5b61129889828a01611014565b909450925050608087013567ffffffffffffffff8111156112b857600080fd5b6112c489828a01611056565b9150509295509295509295565b6000806000606084860312156112e657600080fd5b83356112f181610fb0565b9250602084013561130181610fb0565b929592945050506040919091013590565b6000806000806080858703121561132857600080fd5b843561133381610fb0565b935060208501359250604085013561134a81610fb0565b9150606085013567ffffffffffffffff81111561136657600080fd5b61137287828801611056565b91505092959194509250565b60006020828403121561139057600080fd5b813561139b81610fb0565b9392505050565b600080600080600080600060c0888a0312156113bd57600080fd5b87356113c881610fb0565b96506020880135955060408801356113df81610fb0565b945060608801359350608088013567ffffffffffffffff81111561140257600080fd5b61140e8a828b01611014565b90945092505060a088013567ffffffffffffffff81111561110f57600080fd5b60008060008060008060a0878903121561144757600080fd5b863561145281610fb0565b9550602087013561146281610fb0565b9450604087013561147281610fb0565b9350606087013567ffffffffffffffff81111561128c57600080fd5b600080604083850312156114a157600080fd5b82356114ac81610fb0565b915060208301356114bc81610fb0565b809150509250929050565b600080600080600080600060c0888a0312156114e257600080fd5b87356114ed81610fb0565b965060208801356114fd81610fb0565b955060408801356113df81610fb0565b60006020828403121561151f57600080fd5b815161139b81610fb0565b600181811c9082168061153e57607f821691505b60208210810361106857634e487b7160e01b600052602260045260246000fd5b838152604060208201819052810182905260008360608301825b858110156115b257823561158b81610fb0565b6001600160a01b031682526020838101359083015260409283019290910190600101611578565b509695505050505050565b634e487b7160e01b600052603260045260246000fd5b6000808335601e198436030181126115ea57600080fd5b83018035915067ffffffffffffffff82111561160557600080fd5b60200191503681900382131561100d57600080fd5b60208152816020820152818360408301376000818301604090810191909152601f909201601f19160101919050565b634e487b7160e01b600052601160045260246000fd5b60006001820161167157611671611649565b5060010190565b808201808211156104705761047061164956fea2646970667358221220092e2b921d6c6afd9951cd1d7aaf85ca17ef3c001fa2d901bd548f4dae0fd69964736f6c634300081b00336080604052348015600f57600080fd5b5061081b8061001f6000396000f3fe608060405234801561001057600080fd5b50600436106100885760003560e01c80639ae697bf1161005b5780639ae697bf14610129578063c7a5b51614610149578063cf0f332f1461015c578063d6f27b581461016f57600080fd5b8063207cbd5b1461008d5780633736f85d146100a257806354b390a0146100d55780637dd56411146100e8575b600080fd5b6100a061009b3660046105ce565b61018f565b005b6100c26100b0366004610606565b60026020526000908152604090205481565b6040519081526020015b60405180910390f35b6100a06100e336600461062a565b6101f2565b6101116100f63660046106ab565b6000908152602081905260409020546001600160a01b031690565b6040516001600160a01b0390911681526020016100cc565b6100c2610137366004610606565b60016020526000908152604090205481565b6100a061015736600461062a565b6102f7565b6100a061016a36600461062a565b6103a5565b61018261017d3660046106ab565b61049e565b6040516100cc91906106c4565b600083815260208181526040808320805473ffffffffffffffffffffffffffffffffffffffff19166001600160a01b0387169081178255600180830187905590855290925282208054919284926101e7908490610763565b909155505050505050565b6000838152602081905260408120905b828110156102955783838281811061021c5761021c61077c565b905060400201602001358260010160008282546102399190610792565b9091555084905083828181106102515761025161077c565b84546001600160a01b0316600090815260016020908152604080832080549490910295909501013593925090610288908490610792565b9091555050600101610202565b506102a460028201600061055e565b80600101546000036102f1576000848152602081905260408120805473ffffffffffffffffffffffffffffffffffffffff1916815560018101829055906102ee600283018261055e565b50505b50505050565b6000838152602081905260408120905b6002820154811015610399578160020181815481106103285761032861077c565b906000526020600020906002020160010154600260008460020184815481106103535761035361077c565b600091825260208083206002909202909101546001600160a01b031683528201929092526040018120805490919061038c908490610792565b9091555050600101610307565b506102f18484846101f2565b6000838152602081905260408120906103c290600283019061055e565b60005b82811015610497578383828181106103df576103df61077c565b90506040020160200135600260008686858181106103ff576103ff61077c565b6104159260206040909202019081019150610606565b6001600160a01b03166001600160a01b0316815260200190815260200160002060008282546104449190610763565b90915550506002820184848381811061045f5761045f61077c565b83546001810185556000948552602090942060409091029290920192600202909101905061048d82826107a5565b50506001016103c5565b5050505050565b6040805160608082018352600080835260208084018290528385018390528582528181528482208551938401865280546001600160a01b03168452600181015484830152600281018054875181850281018501895281815296979596929587019492939192909184015b82821015610550576000848152602090819020604080518082019091526002850290910180546001600160a01b03168252600190810154828401529083529092019101610508565b505050915250909392505050565b508054600082556002029060005260206000209081019061057f9190610582565b50565b5b808211156105b557805473ffffffffffffffffffffffffffffffffffffffff1916815560006001820155600201610583565b5090565b6001600160a01b038116811461057f57600080fd5b6000806000606084860312156105e357600080fd5b8335925060208401356105f5816105b9565b929592945050506040919091013590565b60006020828403121561061857600080fd5b8135610623816105b9565b9392505050565b60008060006040848603121561063f57600080fd5b83359250602084013567ffffffffffffffff81111561065d57600080fd5b8401601f8101861361066e57600080fd5b803567ffffffffffffffff81111561068557600080fd5b8660208260061b840101111561069a57600080fd5b939660209190910195509293505050565b6000602082840312156106bd57600080fd5b5035919050565b602081526000608082016001600160a01b03845116602084015260208401516040840152604084015160608085015281815180845260a086019150602083019350600092505b808310156107435783516001600160a01b038151168352602081015160208401525060408201915060208401935060018301925061070a565b5095945050505050565b634e487b7160e01b600052601160045260246000fd5b808201808211156107765761077661074d565b92915050565b634e487b7160e01b600052603260045260246000fd5b818103818111156107765761077661074d565b81356107b0816105b9565b6001600160a01b03811673ffffffffffffffffffffffffffffffffffffffff198354161782555060208201356001820155505056fea26469706673582212204a111fcf6a75a6a0f732173120581198edbd412586fcd62e8a51701cfeafdc5d64736f6c634300081b0033",
  "linkReferences": {},
  "deployedLinkReferences": {}
}