{
  "_format": "hh-sol-artifact-1",
  "contractName": "Noto",
  "sourceName": "contracts/domains/noto/Noto.sol",
  "abi": [
    {
      "inputs": [],
      "stateMutability": "nonpayable",
      "type": "constructor"
    },
    {
      "inputs": [
        {
          "internalType": "address",
          "name": "target",
          "type": "address"
        }
      ],
      "name": "AddressEmptyCode",
      "type": "error"
    },
    {
      "inputs": [
        {
          "internalType": "address",
          "name": "implementation",
          "type": "address"
        }
      ],
      "name": "ERC1967InvalidImplementation",
      "type": "error"
    },
    {
      "inputs": [],
      "name": "ERC1967NonPayable",
      "type": "error"
    },
    {
      "inputs": [],
      "name": "FailedCall",
      "type": "error"
    },
    {
      "inputs": [],
      "name": "InvalidInitialization",
      "type": "error"
    },
    {
      "inputs": [],
      "name": "NotInitializing",
      "type": "error"
    },
    {
      "inputs": [
        {
          "internalType": "bytes32",
          "name": "unlockHash",
          "type": "bytes32"
        }
      ],
      "name": "NotoAlreadyPrepared",
      "type": "error"
    },
    {
      "inputs": [
        {
          "internalType": "bytes32",
          "name": "txId",
          "type": "bytes32"
        }
      ],
      "name": "NotoDuplicateTransaction",
      "type": "error"
    },
    {
      "inputs": [
        {
          "internalType": "bytes32",
          "name": "txhash",
          "type": "bytes32"
        },
        {
          "internalType": "address",
          "name": "delegate",
          "type": "address"
        },
        {
          "internalType": "address",
          "name": "sender",
          "type": "address"
        }
      ],
      "name": "NotoInvalidDelegate",
      "type": "error"
    },
    {
      "inputs": [
        {
          "internalType": "bytes32",
          "name": "id",
          "type": "bytes32"
        }
      ],
      "name": "NotoInvalidInput",
      "type": "error"
    },
    {
      "inputs": [
        {
          "internalType": "bytes32",
          "name": "id",
          "type": "bytes32"
        }
      ],
      "name": "NotoInvalidOutput",
      "type": "error"
    },
    {
      "inputs": [
        {
          "internalType": "bytes32",
          "name": "expected",
          "type": "bytes32"
        },
        {
          "internalType": "bytes32",
          "name": "actual",
          "type": "bytes32"
        }
      ],
      "name": "NotoInvalidUnlockHash",
      "type": "error"
    },
    {
      "inputs": [
        {
          "internalType": "address",
          "name": "sender",
          "type": "address"
        }
      ],
      "name": "NotoNotNotary",
      "type": "error"
    },
    {
      "inputs": [],
      "name": "UUPSUnauthorizedCallContext",
      "type": "error"
    },
    {
      "inputs": [
        {
          "internalType": "bytes32",
          "name": "slot",
          "type": "bytes32"
        }
      ],
      "name": "UUPSUnsupportedProxiableUUID",
      "type": "error"
    },
    {
      "anonymous": false,
      "inputs": [],
      "name": "EIP712DomainChanged",
      "type": "event"
    },
    {
      "anonymous": false,
      "inputs": [
        {
          "indexed": false,
          "internalType": "uint64",
          "name": "version",
          "type": "uint64"
        }
      ],
      "name": "Initialized",
      "type": "event"
    },
    {
      "anonymous": false,
      "inputs": [
        {
          "indexed": false,
          "internalType": "bytes32",
          "name": "txId",
          "type": "bytes32"
        },
        {
          "indexed": false,
          "internalType": "address",
          "name": "delegate",
          "type": "address"
        },
        {
          "indexed": false,
          "internalType": "bytes32",
          "name": "txhash",
          "type": "bytes32"
        },
        {
          "indexed": false,
          "internalType": "bytes",
          "name": "signature",
          "type": "bytes"
        },
        {
          "indexed": false,
          "internalType": "bytes",
          "name": "data",
          "type": "bytes"
        }
      ],
      "name": "NotoApproved",
      "type": "event"
    },
    {
      "anonymous": false,
      "inputs": [
        {
          "indexed": false,
          "internalType": "bytes32",
          "name": "txId",
          "type": "bytes32"
        },
        {
          "indexed": false,
          "internalType": "bytes32[]",
          "name": "inputs",
          "type": "bytes32[]"
        },
        {
          "indexed": false,
          "internalType": "bytes32[]",
          "name": "outputs",
          "type": "bytes32[]"
        },
        {
          "indexed": false,
          "internalType": "bytes32[]",
          "name": "lockedOutputs",
          "type": "bytes32[]"
        },
        {
          "indexed": false,
          "internalType": "bytes",
          "name": "signature",
          "type": "bytes"
        },
        {
          "indexed": false,
          "internalType": "bytes",
          "name": "data",
          "type": "bytes"
        }
      ],
      "name": "NotoLock",
      "type": "event"
    },
    {
      "anonymous": false,
      "inputs": [
        {
          "indexed": false,
          "internalType": "bytes32",
          "name": "txId",
          "type": "bytes32"
        },
        {
          "indexed": false,
          "internalType": "bytes32",
          "name": "unlockHash",
          "type": "bytes32"
        },
        {
          "indexed": false,
          "internalType": "address",
          "name": "delegate",
          "type": "address"
        },
        {
          "indexed": false,
          "internalType": "bytes",
          "name": "signature",
          "type": "bytes"
        },
        {
          "indexed": false,
          "internalType": "bytes",
          "name": "data",
          "type": "bytes"
        }
      ],
      "name": "NotoLockDelegated",
      "type": "event"
    },
    {
      "anonymous": false,
      "inputs": [
        {
          "indexed": false,
          "internalType": "bytes32",
          "name": "txId",
          "type": "bytes32"
        },
        {
          "indexed": false,
          "internalType": "bytes32[]",
          "name": "inputs",
          "type": "bytes32[]"
        },
        {
          "indexed": false,
          "internalType": "bytes32[]",
          "name": "outputs",
          "type": "bytes32[]"
        },
        {
          "indexed": false,
          "internalType": "bytes",
          "name": "signature",
          "type": "bytes"
        },
        {
          "indexed": false,
          "internalType": "bytes",
          "name": "data",
          "type": "bytes"
        }
      ],
      "name": "NotoTransfer",
      "type": "event"
    },
    {
      "anonymous": false,
      "inputs": [
        {
          "indexed": false,
          "internalType": "bytes32",
          "name": "txId",
          "type": "bytes32"
        },
        {
          "indexed": false,
          "internalType": "address",
          "name": "sender",
          "type": "address"
        },
        {
          "indexed": false,
          "internalType": "bytes32[]",
          "name": "lockedInputs",
          "type": "bytes32[]"
        },
        {
          "indexed": false,
          "internalType": "bytes32[]",
          "name": "lockedOutputs",
          "type": "bytes32[]"
        },
        {
          "indexed": false,
          "internalType": "bytes32[]",
          "name": "outputs",
          "type": "bytes32[]"
        },
        {
          "indexed": false,
          "internalType": "bytes",
          "name": "signature",
          "type": "bytes"
        },
        {
          "indexed": false,
          "internalType": "bytes",
          "name": "data",
          "type": "bytes"
        }
      ],
      "name": "NotoUnlock",
      "type": "event"
    },
    {
      "anonymous": false,
      "inputs": [
        {
          "indexed": false,
          "internalType": "bytes32[]",
          "name": "lockedInputs",
          "type": "bytes32[]"
        },
        {
          "indexed": false,
          "internalType": "bytes32",
          "name": "unlockHash",
          "type": "bytes32"
        },
        {
          "indexed": false,
          "internalType": "bytes",
          "name": "signature",
          "type": "bytes"
        },
        {
          "indexed": false,
          "internalType": "bytes",
          "name": "data",
          "type": "bytes"
        }
      ],
      "name": "NotoUnlockPrepared",
      "type": "event"
    },
    {
      "anonymous": false,
      "inputs": [
        {
          "indexed": true,
          "internalType": "address",
          "name": "implementation",
          "type": "address"
        }
      ],
      "name": "Upgraded",
      "type": "event"
    },
    {
      "inputs": [],
      "name": "NotoConfigID_V0",
      "outputs": [
        {
          "internalType": "bytes4",
          "name": "",
          "type": "bytes4"
        }
      ],
      "stateMutability": "view",
      "type": "function"
    },
    {
      "inputs": [],
      "name": "NotoVariantDefault",
      "outputs": [
        {
          "internalType": "uint64",
          "name": "",
          "type": "uint64"
        }
      ],
      "stateMutability": "view",
      "type": "function"
    },
    {
      "inputs": [],
      "name": "UPGRADE_INTERFACE_VERSION",
      "outputs": [
        {
          "internalType": "string",
          "name": "",
          "type": "string"
        }
      ],
      "stateMutability": "view",
      "type": "function"
    },
    {
      "inputs": [
        {
          "internalType": "bytes32",
          "name": "txId",
          "type": "bytes32"
        },
        {
          "internalType": "address",
          "name": "delegate",
          "type": "address"
        },
        {
          "internalType": "bytes32",
          "name": "txhash",
          "type": "bytes32"
        },
        {
          "internalType": "bytes",
          "name": "signature",
          "type": "bytes"
        },
        {
          "internalType": "bytes",
          "name": "data",
          "type": "bytes"
        }
      ],
      "name": "approveTransfer",
      "outputs": [],
      "stateMutability": "nonpayable",
      "type": "function"
    },
    {
      "inputs": [
        {
          "internalType": "bytes",
          "name": "data",
          "type": "bytes"
        }
      ],
      "name": "buildConfig",
      "outputs": [
        {
          "internalType": "bytes",
          "name": "",
          "type": "bytes"
        }
      ],
      "stateMutability": "view",
      "type": "function"
    },
    {
      "inputs": [
        {
          "internalType": "bytes32",
          "name": "txId",
          "type": "bytes32"
        },
        {
          "internalType": "bytes32",
          "name": "unlockHash",
          "type": "bytes32"
        },
        {
          "internalType": "address",
          "name": "delegate",
          "type": "address"
        },
        {
          "internalType": "bytes",
          "name": "signature",
          "type": "bytes"
        },
        {
          "internalType": "bytes",
          "name": "data",
          "type": "bytes"
        }
      ],
      "name": "delegateLock",
      "outputs": [],
      "stateMutability": "nonpayable",
      "type": "function"
    },
    {
      "inputs": [],
      "name": "eip712Domain",
      "outputs": [
        {
          "internalType": "bytes1",
          "name": "fields",
          "type": "bytes1"
        },
        {
          "internalType": "string",
          "name": "name",
          "type": "string"
        },
        {
          "internalType": "string",
          "name": "version",
          "type": "string"
        },
        {
          "internalType": "uint256",
          "name": "chainId",
          "type": "uint256"
        },
        {
          "internalType": "address",
          "name": "verifyingContract",
          "type": "address"
        },
        {
          "internalType": "bytes32",
          "name": "salt",
          "type": "bytes32"
        },
        {
          "internalType": "uint256[]",
          "name": "extensions",
          "type": "uint256[]"
        }
      ],
      "stateMutability": "view",
      "type": "function"
    },
    {
      "inputs": [
        {
          "internalType": "bytes32",
          "name": "txhash",
          "type": "bytes32"
        }
      ],
      "name": "getTransferApproval",
      "outputs": [
        {
          "internalType": "address",
          "name": "delegate",
          "type": "address"
        }
      ],
      "stateMutability": "view",
      "type": "function"
    },
    {
      "inputs": [
        {
          "internalType": "address",
          "name": "notaryAddress",
          "type": "address"
        }
      ],
      "name": "initialize",
      "outputs": [],
      "stateMutability": "nonpayable",
      "type": "function"
    },
    {
      "inputs": [
        {
          "internalType": "bytes32",
          "name": "id",
          "type": "bytes32"
        }
      ],
      "name": "isLocked",
      "outputs": [
        {
          "internalType": "bool",
          "name": "locked",
          "type": "bool"
        }
      ],
      "stateMutability": "view",
      "type": "function"
    },
    {
      "inputs": [
        {
          "internalType": "bytes32",
          "name": "id",
          "type": "bytes32"
        }
      ],
      "name": "isUnspent",
      "outputs": [
        {
          "internalType": "bool",
          "name": "unspent",
          "type": "bool"
        }
      ],
      "stateMutability": "view",
      "type": "function"
    },
    {
      "inputs": [
        {
          "internalType": "bytes32",
          "name": "txId",
          "type": "bytes32"
        },
        {
          "internalType": "bytes32[]",
          "name": "inputs",
          "type": "bytes32[]"
        },
        {
          "internalType": "bytes32[]",
          "name": "outputs",
          "type": "bytes32[]"
        },
        {
          "internalType": "bytes32[]",
          "name": "lockedOutputs",
          "type": "bytes32[]"
        },
        {
          "internalType": "bytes",
          "name": "signature",
          "type": "bytes"
        },
        {
          "internalType": "bytes",
          "name": "data",
          "type": "bytes"
        }
      ],
      "name": "lock",
      "outputs": [],
      "stateMutability": "nonpayable",
      "type": "function"
    },
    {
      "inputs": [
        {
          "internalType": "bytes32",
          "name": "txId",
          "type": "bytes32"
        },
        {
          "internalType": "bytes32[]",
          "name": "outputs",
          "type": "bytes32[]"
        },
        {
          "internalType": "bytes",
          "name": "signature",
          "type": "bytes"
        },
        {
          "internalType": "bytes",
          "name": "data",
          "type": "bytes"
        }
      ],
      "name": "mint",
      "outputs": [],
      "stateMutability": "nonpayable",
      "type": "function"
    },
    {
      "inputs": [
        {
          "internalType": "bytes32[]",
          "name": "lockedInputs",
          "type": "bytes32[]"
        },
        {
          "internalType": "bytes32",
          "name": "unlockHash",
          "type": "bytes32"
        },
        {
          "internalType": "bytes",
          "name": "signature",
          "type": "bytes"
        },
        {
          "internalType": "bytes",
          "name": "data",
          "type": "bytes"
        }
      ],
      "name": "prepareUnlock",
      "outputs": [],
      "stateMutability": "nonpayable",
      "type": "function"
    },
    {
      "inputs": [],
      "name": "proxiableUUID",
      "outputs": [
        {
          "internalType": "bytes32",
          "name": "",
          "type": "bytes32"
        }
      ],
      "stateMutability": "view",
      "type": "function"
    },
    {
      "inputs": [
        {
          "internalType": "bytes32",
          "name": "txId",
          "type": "bytes32"
        },
        {
          "internalType": "bytes32[]",
          "name": "inputs",
          "type": "bytes32[]"
        },
        {
          "internalType": "bytes32[]",
          "name": "outputs",
          "type": "bytes32[]"
        },
        {
          "internalType": "bytes",
          "name": "signature",
          "type": "bytes"
        },
        {
          "internalType": "bytes",
          "name": "data",
          "type": "bytes"
        }
      ],
      "name": "transfer",
      "outputs": [],
      "stateMutability": "nonpayable",
      "type": "function"
    },
    {
      "inputs": [
        {
          "internalType": "bytes32",
          "name": "txId",
          "type": "bytes32"
        },
        {
          "internalType": "bytes32[]",
          "name": "inputs",
          "type": "bytes32[]"
        },
        {
          "internalType": "bytes32[]",
          "name": "outputs",
          "type": "bytes32[]"
        },
        {
          "internalType": "bytes",
          "name": "signature",
          "type": "bytes"
        },
        {
          "internalType": "bytes",
          "name": "data",
          "type": "bytes"
        }
      ],
      "name": "transferWithApproval",
      "outputs": [],
      "stateMutability": "nonpayable",
      "type": "function"
    },
    {
      "inputs": [
        {
          "internalType": "bytes32",
          "name": "txId",
          "type": "bytes32"
        },
        {
          "internalType": "bytes32[]",
          "name": "lockedInputs",
          "type": "bytes32[]"
        },
        {
          "internalType": "bytes32[]",
          "name": "lockedOutputs",
          "type": "bytes32[]"
        },
        {
          "internalType": "bytes32[]",
          "name": "outputs",
          "type": "bytes32[]"
        },
        {
          "internalType": "bytes",
          "name": "signature",
          "type": "bytes"
        },
        {
          "internalType": "bytes",
          "name": "data",
          "type": "bytes"
        }
      ],
      "name": "unlock",
      "outputs": [],
      "stateMutability": "nonpayable",
      "type": "function"
    },
    {
      "inputs": [
        {
          "internalType": "address",
          "name": "newImplementation",
          "type": "address"
        },
        {
          "internalType": "bytes",
          "name": "data",
          "type": "bytes"
        }
      ],
      "name": "upgradeToAndCall",
      "outputs": [],
      "stateMutability": "payable",
      "type": "function"
    }
  ],
  "bytecode": "0x60a06040523060805234801561001457600080fd5b5061001d610022565b6100d4565b7ff0c57e16840df040f15088dc2f81fe391c3923bec73e23a9662efc9c229c6a00805468010000000000000000900460ff16156100725760405163f92ee8a960e01b815260040160405180910390fd5b80546001600160401b03908116146100d15780546001600160401b0319166001600160401b0390811782556040519081527fc7f505b2f371ae2175ee4913f4499e1f2633a7b5936321eed1cdaeb6115181d29060200160405180910390a15b50565b608051612bfa6100fd6000396000818161140b0152818161143401526115b50152612bfa6000f3fe6080604052600436106101445760003560e01c80637177b7df116100c0578063ad3cb1cc11610074578063c4d66de811610059578063c4d66de814610419578063d0f0be9d14610439578063f7f7766f1461045957600080fd5b8063ad3cb1cc146103b0578063bd916434146103f957600080fd5b806384b0196e116100a557806384b0196e1461033b5780638f6b10cf14610363578063abf7386f1461039057600080fd5b80637177b7df146102fb57806377a62efb1461031b57600080fd5b806352d1902d116101175780635f20994d116100fc5780635f20994d146102345780636e0f12981461026457806370f17e9a146102ad57600080fd5b806352d1902d146101e35780635adbade71461020657600080fd5b80630754b7e1146101495780630a91c8941461016b57806332a16f4e1461018b5780634f1ef286146101d0575b600080fd5b34801561015557600080fd5b5061016961016436600461201b565b610479565b005b34801561017757600080fd5b506101696101863660046120f9565b610576565b34801561019757600080fd5b506101bb6101a636600461220e565b60009081526003602052604090205460ff1690565b60405190151581526020015b60405180910390f35b6101696101de36600461223d565b6106a8565b3480156101ef57600080fd5b506101f86106c7565b6040519081526020016101c7565b34801561021257600080fd5b5061021b600081565b60405167ffffffffffffffff90911681526020016101c7565b34801561024057600080fd5b506101bb61024f36600461220e565b60009081526001602052604090205460ff1690565b34801561027057600080fd5b5061027c600160f01b81565b6040517fffffffff0000000000000000000000000000000000000000000000000000000090911681526020016101c7565b3480156102b957600080fd5b506102e36102c836600461220e565b6000908152600260205260409020546001600160a01b031690565b6040516001600160a01b0390911681526020016101c7565b34801561030757600080fd5b50610169610316366004612307565b6106f6565b34801561032757600080fd5b50610169610336366004612398565b61074f565b34801561034757600080fd5b5061035061085d565b6040516101c797969594939291906124cb565b34801561036f57600080fd5b5061038361037e36600461257f565b610959565b6040516101c791906125c1565b34801561039c57600080fd5b506101696103ab3660046120f9565b6109c3565b3480156103bc57600080fd5b506103836040518060400160405280600581526020017f352e302e3000000000000000000000000000000000000000000000000000000081525081565b34801561040557600080fd5b506101696104143660046125d4565b610c81565b34801561042557600080fd5b50610169610434366004612639565b610d77565b34801561044557600080fd5b50610169610454366004612398565b610f3a565b34801561046557600080fd5b50610169610474366004612654565b610fc2565b600087815260066020526040902054879060ff16156104b357604051630b55710360e31b8152600481018290526024015b60405180910390fd5b6000818152600660209081526040808320805460ff1916600117905589835260059091529020546001600160a01b0316806104f6576104f13361108f565b610500565b61050088336110e4565b6000888152600560205260409081902080546001600160a01b0319166001600160a01b038a16179055517fa605b40deabb237d097ecc93e460a8fdec53da109fecdf7b5a9711c078e9020e90610563908b908b908b908b908b908b908b906126cb565b60405180910390a1505050505050505050565b61057f3361108f565b60008b8152600660205260409020548b9060ff16156105b457604051630b55710360e31b8152600481018290526024016104aa565b600081815260066020908152604091829020805460ff1916600117905581518c820281810183019093528c81526106099290918e918e9182919085019084908082843760009201919091525061114992505050565b61064589898080602002602001604051908101604052809392919081815260200183836020028082843760009201919091525061120392505050565b61064f8787611301565b7f0401cfaa3b98414628c4210c9bd0bc5ce232a95abedfc0c1443c6e39566626528c8c8c8c8c8c8c8c8c8c8c6040516106929b9a99989796959493929190612758565b60405180910390a1505050505050505050505050565b6106b0611400565b6106b9826114b9565b6106c382826114c2565b5050565b60006106d16115aa565b507f360894a13ba1a3210667c828492db98dca3e2076cc3735a920a3ca505d382bbc90565b6106ff3361108f565b606061074588828989808060200260200160405190810160405280939291908181526020018383602002808284376000920191909152508b92508a9150899050886115f3565b5050505050505050565b600061075f89898989878761168e565b6000818152600260205260409020549091506001600160a01b031633146107c2576000818152600260205260409081902054905163aa3c89a160e01b8152600481018390526001600160a01b0390911660248201523360448201526064016104aa565b6108368a8a8a8080602002602001604051908101604052809392919081815260200183836020028082843760009201919091525050604080516020808e0282810182019093528d82529093508d92508c9182918501908490808284376000920191909152508b92508a9150899050886115f3565b600090815260026020526040902080546001600160a01b0319169055505050505050505050565b600060608082808083817fa16a46d94261c7517cc8ff89f61c0ce93598e3c849801011dee649a6a557d100805490915015801561089c57506001810154155b610902576040517f08c379a000000000000000000000000000000000000000000000000000000000815260206004820152601560248201527f4549503731323a20556e696e697469616c697a6564000000000000000000000060448201526064016104aa565b61090a61176f565b610912611844565b604080516000808252602082019092527f0f000000000000000000000000000000000000000000000000000000000000009c939b5091995046985030975095509350915050565b6040805160608181018352600080546001600160a01b031683526020808401919091528351601f8601829004820281018201855285815291936109bc93929083019187908790819084018382808284376000920191909152505050915250611895565b9392505050565b60008b8152600660205260409020548b9060ff16156109f857604051630b55710360e31b8152600481018290526024016104aa565b6000818152600660205260408120805460ff191660011790558a15610a7757600460008d8d6000818110610a2e57610a2e6127d6565b905060200201358152602001908152602001600020549050600460008d8d6000818110610a5d57610a5d6127d6565b905060200201358152602001908152602001600020600090555b60015b8b811015610b235781600460008f8f85818110610a9957610a996127d6565b9050602002013581526020019081526020016000205414610ae9578c8c82818110610ac657610ac66127d6565b905060200201356040516345c7fbb760e11b81526004016104aa91815260200190565b600460008e8e84818110610aff57610aff6127d6565b90506020020135815260200190815260200160002060009055806001019050610a7a565b506000818152600560205260409020546001600160a01b031680610b4f57610b4a3361108f565b610bd4565b610b5982336110e4565b600082815260056020526040902080546001600160a01b03191690558115610bd4576000610b8d8e8e8e8e8e8e8c8c6118f8565b9050828114610bd2576040517fc1f3acfb00000000000000000000000000000000000000000000000000000000815260048101849052602481018290526044016104aa565b505b610bde8d8d611a06565b610be88b8b611301565b610c2489898080602002602001604051908101604052809392919081815260200183836020028082843760009201919091525061120392505050565b7f794cf6a64574d8501b307c12e736042cf094e68af4e52a27e5883493bcd85f118e338f8f8f8f8f8f8f8f8f8f604051610c699c9b9a999897969594939291906127ec565b60405180910390a15050505050505050505050505050565b610c8a3361108f565b6000858152600560205260409020546001600160a01b031615610cdc576040517f25c22854000000000000000000000000000000000000000000000000000000008152600481018690526024016104aa565b610ce68787611a99565b60005b86811015610d2a5785600460008a8a85818110610d0857610d086127d6565b6020908102929092013583525081019190915260400160002055600101610ce9565b507fd40ebc357f600baf2b5e9571e3b591e56454ade2b0df54e35b417dbdcd6baebd87878787878787604051610d66979695949392919061287a565b60405180910390a150505050505050565b7ff0c57e16840df040f15088dc2f81fe391c3923bec73e23a9662efc9c229c6a00805468010000000000000000810460ff16159067ffffffffffffffff16600081158015610dc25750825b905060008267ffffffffffffffff166001148015610ddf5750303b155b905081158015610ded575080155b15610e24576040517ff92ee8a900000000000000000000000000000000000000000000000000000000815260040160405180910390fd5b845467ffffffffffffffff191660011785558315610e5857845468ff00000000000000001916680100000000000000001785555b610ecc6040518060400160405280600481526020017f6e6f746f000000000000000000000000000000000000000000000000000000008152506040518060400160405280600581526020017f302e302e31000000000000000000000000000000000000000000000000000000815250611af5565b600080546001600160a01b0319166001600160a01b0388161790558315610f3257845468ff000000000000000019168555604051600181527fc7f505b2f371ae2175ee4913f4499e1f2633a7b5936321eed1cdaeb6115181d29060200160405180910390a15b505050505050565b610f433361108f565b610fb78989898080602002602001604051908101604052809392919081815260200183836020028082843760009201919091525050604080516020808d0282810182019093528c82529093508c92508b9182918501908490808284376000920191909152508a9250899150889050876115f3565b505050505050505050565b610fcb3361108f565b600087815260066020526040902054879060ff161561100057604051630b55710360e31b8152600481018290526024016104aa565b6000818152600660209081526040808320805460ff1916600117905588835260029091529081902080546001600160a01b038a166001600160a01b0319909116179055517fe49f324c918549c59a39a91df7afdca64cb524afe7ce43ff7854bda75c03ba7f9061107d908a908a908a908a908a908a908a906128bc565b60405180910390a15050505050505050565b6000546001600160a01b038281169116146110e1576040517f830743c90000000000000000000000000000000000000000000000000000000081526001600160a01b03821660048201526024016104aa565b50565b6000828152600560205260409020546001600160a01b038281169116146106c3576000828152600560205260409081902054905163aa3c89a160e01b8152600481018490526001600160a01b03918216602482015290821660448201526064016104aa565b60005b81518110156106c3576001600083838151811061116b5761116b6127d6565b60209081029190910181015182528101919091526040016000205460ff166111c35781818151811061119f5761119f6127d6565b60200260200101516040516345c7fbb760e11b81526004016104aa91815260200190565b600160008383815181106111d9576111d96127d6565b6020908102919091018101518252810191909152604001600020805460ff1916905560010161114c565b60005b81518110156106c35760016000838381518110611225576112256127d6565b60209081029190910181015182528101919091526040016000205460ff168061127e57506003600083838151811061125f5761125f6127d6565b60209081029190910181015182528101919091526040016000205460ff165b156112b957818181518110611295576112956127d6565b602002602001015160405163f011771d60e01b81526004016104aa91815260200190565b60018060008484815181106112d0576112d06127d6565b6020908102919091018101518252810191909152604001600020805460ff1916911515919091179055600101611206565b60005b818110156113fb5760036000848484818110611322576113226127d6565b602090810292909201358352508101919091526040016000205460ff168061137957506001600084848481811061135b5761135b6127d6565b602090810292909201358352508101919091526040016000205460ff165b156113b357828282818110611390576113906127d6565b9050602002013560405163f011771d60e01b81526004016104aa91815260200190565b6001600360008585858181106113cb576113cb6127d6565b60209081029290920135835250810191909152604001600020805460ff1916911515919091179055600101611304565b505050565b306001600160a01b037f000000000000000000000000000000000000000000000000000000000000000016148061149957507f00000000000000000000000000000000000000000000000000000000000000006001600160a01b031661148d7f360894a13ba1a3210667c828492db98dca3e2076cc3735a920a3ca505d382bbc546001600160a01b031690565b6001600160a01b031614155b156114b75760405163703e46dd60e11b815260040160405180910390fd5b565b6110e13361108f565b816001600160a01b03166352d1902d6040518163ffffffff1660e01b8152600401602060405180830381865afa92505050801561151c575060408051601f3d908101601f19168201909252611519918101906128eb565b60015b61154457604051634c9c8ce360e01b81526001600160a01b03831660048201526024016104aa565b7f360894a13ba1a3210667c828492db98dca3e2076cc3735a920a3ca505d382bbc81146115a0576040517faa1d49a4000000000000000000000000000000000000000000000000000000008152600481018290526024016104aa565b6113fb8383611b07565b306001600160a01b037f000000000000000000000000000000000000000000000000000000000000000016146114b75760405163703e46dd60e11b815260040160405180910390fd5b600087815260066020526040902054879060ff161561162857604051630b55710360e31b8152600481018290526024016104aa565b6000818152600660205260409020805460ff1916600117905561164a87611149565b61165386611203565b7fb3bb2e4edacaadd270746a29e760413bdd264b2b2c7665150a8310491360ad408888888888888860405161107d9796959493929190612940565b6000807f8680a0f190c5d2b22fc4e0a097fdfc5c206ed94420c7f3783040268c2d95571e88886040516020016116c5929190612995565b6040516020818303038152906040528051906020012087876040516020016116ee929190612995565b6040516020818303038152906040528051906020012086866040516117149291906129d7565b6040519081900381206117429493929160200193845260208401929092526040830152606082015260800190565b60405160208183030381529060405280519060200120905061176381611b5d565b98975050505050505050565b7fa16a46d94261c7517cc8ff89f61c0ce93598e3c849801011dee649a6a557d10280546060917fa16a46d94261c7517cc8ff89f61c0ce93598e3c849801011dee649a6a557d100916117c0906129e7565b80601f01602080910402602001604051908101604052809291908181526020018280546117ec906129e7565b80156118395780601f1061180e57610100808354040283529160200191611839565b820191906000526020600020905b81548152906001019060200180831161181c57829003601f168201915b505050505091505090565b7fa16a46d94261c7517cc8ff89f61c0ce93598e3c849801011dee649a6a557d10380546060917fa16a46d94261c7517cc8ff89f61c0ce93598e3c849801011dee649a6a557d100916117c0906129e7565b606060008260000151836020015184604001516040516020016118ba93929190612a21565b60408051601f198184030181529082905291506118e190600160f01b908390602001612a53565b604051602081830303815290604052915050919050565b6000807f401712f595da555c57236de9deeff2ac897d7f87746d8fd1d44927ced239bef08a8a60405160200161192f929190612995565b604051602081830303815290604052805190602001208989604051602001611958929190612995565b604051602081830303815290604052805190602001208888604051602001611981929190612995565b6040516020818303038152906040528051906020012087876040516119a79291906129d7565b6040805191829003822060208301969096528101939093526060830191909152608082015260a081019190915260c0016040516020818303038152906040528051906020012090506119f881611b5d565b9a9950505050505050505050565b60005b818110156113fb5760036000848484818110611a2757611a276127d6565b602090810292909201358352508101919091526040016000205460ff16611a5a57828282818110610ac657610ac66127d6565b60036000848484818110611a7057611a706127d6565b60209081029290920135835250810191909152604001600020805460ff19169055600101611a09565b60005b818110156113fb5760036000848484818110611aba57611aba6127d6565b602090810292909201358352508101919091526040016000205460ff16611aed57828282818110610ac657610ac66127d6565b600101611a9c565b611afd611bab565b6106c38282611c12565b611b1082611c85565b6040516001600160a01b038316907fbc7cd75a20ee27fd9adebab32041f755214dbc6bffa90cc0225b39da2e5c2d3b90600090a2805115611b55576113fb8282611cfc565b6106c3611d72565b6000611ba5611b6a611daa565b836040517f19010000000000000000000000000000000000000000000000000000000000008152600281019290925260228201526042902090565b92915050565b7ff0c57e16840df040f15088dc2f81fe391c3923bec73e23a9662efc9c229c6a005468010000000000000000900460ff166114b7576040517fd7e6bcf800000000000000000000000000000000000000000000000000000000815260040160405180910390fd5b611c1a611bab565b7fa16a46d94261c7517cc8ff89f61c0ce93598e3c849801011dee649a6a557d1007fa16a46d94261c7517cc8ff89f61c0ce93598e3c849801011dee649a6a557d102611c668482612ae9565b5060038101611c758382612ae9565b5060008082556001909101555050565b806001600160a01b03163b600003611cbb57604051634c9c8ce360e01b81526001600160a01b03821660048201526024016104aa565b7f360894a13ba1a3210667c828492db98dca3e2076cc3735a920a3ca505d382bbc80546001600160a01b0319166001600160a01b0392909216919091179055565b6060600080846001600160a01b031684604051611d199190612ba8565b600060405180830381855af49150503d8060008114611d54576040519150601f19603f3d011682016040523d82523d6000602084013e611d59565b606091505b5091509150611d69858383611db9565b95945050505050565b34156114b7576040517fb398979f00000000000000000000000000000000000000000000000000000000815260040160405180910390fd5b6000611db4611e2e565b905090565b606082611dce57611dc982611ea2565b6109bc565b8151158015611de557506001600160a01b0384163b155b15611e27576040517f9996b3150000000000000000000000000000000000000000000000000000000081526001600160a01b03851660048201526024016104aa565b5092915050565b60007f8b73c3c69bb8fe3d512ecc4cf759cc79239f7b179b0ffacaa9a75d522b39400f611e59611ee4565b611e61611f60565b60408051602081019490945283019190915260608201524660808201523060a082015260c00160405160208183030381529060405280519060200120905090565b805115611eb25780518082602001fd5b6040517fd6bda27500000000000000000000000000000000000000000000000000000000815260040160405180910390fd5b60007fa16a46d94261c7517cc8ff89f61c0ce93598e3c849801011dee649a6a557d10081611f1061176f565b805190915015611f2857805160209091012092915050565b81548015611f37579392505050565b7fc5d2460186f7233c927e7db2dcc703c0e500b653ca82273b7bfad8045d85a470935050505090565b60007fa16a46d94261c7517cc8ff89f61c0ce93598e3c849801011dee649a6a557d10081611f8c611844565b805190915015611fa457805160209091012092915050565b60018201548015611f37579392505050565b80356001600160a01b0381168114611fcd57600080fd5b919050565b60008083601f840112611fe457600080fd5b50813567ffffffffffffffff811115611ffc57600080fd5b60208301915083602082850101111561201457600080fd5b9250929050565b600080600080600080600060a0888a03121561203657600080fd5b873596506020880135955061204d60408901611fb6565b9450606088013567ffffffffffffffff81111561206957600080fd5b6120758a828b01611fd2565b909550935050608088013567ffffffffffffffff81111561209557600080fd5b6120a18a828b01611fd2565b989b979a50959850939692959293505050565b60008083601f8401126120c657600080fd5b50813567ffffffffffffffff8111156120de57600080fd5b6020830191508360208260051b850101111561201457600080fd5b600080600080600080600080600080600060c08c8e03121561211a57600080fd5b8b359a5060208c013567ffffffffffffffff81111561213857600080fd5b6121448e828f016120b4565b909b5099505060408c013567ffffffffffffffff81111561216457600080fd5b6121708e828f016120b4565b90995097505060608c013567ffffffffffffffff81111561219057600080fd5b61219c8e828f016120b4565b90975095505060808c013567ffffffffffffffff8111156121bc57600080fd5b6121c88e828f01611fd2565b90955093505060a08c013567ffffffffffffffff8111156121e857600080fd5b6121f48e828f01611fd2565b915080935050809150509295989b509295989b9093969950565b60006020828403121561222057600080fd5b5035919050565b634e487b7160e01b600052604160045260246000fd5b6000806040838503121561225057600080fd5b61225983611fb6565b9150602083013567ffffffffffffffff81111561227557600080fd5b8301601f8101851361228657600080fd5b803567ffffffffffffffff8111156122a0576122a0612227565b604051601f8201601f19908116603f0116810167ffffffffffffffff811182821017156122cf576122cf612227565b6040528181528282016020018710156122e757600080fd5b816020840160208301376000602083830101528093505050509250929050565b60008060008060008060006080888a03121561232257600080fd5b87359650602088013567ffffffffffffffff81111561234057600080fd5b61234c8a828b016120b4565b909750955050604088013567ffffffffffffffff81111561236c57600080fd5b6123788a828b01611fd2565b909550935050606088013567ffffffffffffffff81111561209557600080fd5b600080600080600080600080600060a08a8c0312156123b657600080fd5b8935985060208a013567ffffffffffffffff8111156123d457600080fd5b6123e08c828d016120b4565b90995097505060408a013567ffffffffffffffff81111561240057600080fd5b61240c8c828d016120b4565b90975095505060608a013567ffffffffffffffff81111561242c57600080fd5b6124388c828d01611fd2565b90955093505060808a013567ffffffffffffffff81111561245857600080fd5b6124648c828d01611fd2565b915080935050809150509295985092959850929598565b60005b8381101561249657818101518382015260200161247e565b50506000910152565b600081518084526124b781602086016020860161247b565b601f01601f19169290920160200192915050565b7fff000000000000000000000000000000000000000000000000000000000000008816815260e06020820152600061250660e083018961249f565b8281036040840152612518818961249f565b606084018890526001600160a01b038716608085015260a0840186905283810360c08501528451808252602080870193509091019060005b8181101561256e578351835260209384019390920191600101612550565b50909b9a5050505050505050505050565b6000806020838503121561259257600080fd5b823567ffffffffffffffff8111156125a957600080fd5b6125b585828601611fd2565b90969095509350505050565b6020815260006109bc602083018461249f565b60008060008060008060006080888a0312156125ef57600080fd5b873567ffffffffffffffff81111561260657600080fd5b6126128a828b016120b4565b90985096505060208801359450604088013567ffffffffffffffff81111561236c57600080fd5b60006020828403121561264b57600080fd5b6109bc82611fb6565b600080600080600080600060a0888a03121561266f57600080fd5b8735965061267f60208901611fb6565b955060408801359450606088013567ffffffffffffffff81111561206957600080fd5b81835281816020850137506000828201602090810191909152601f909101601f19169091010190565b8781528660208201526001600160a01b038616604082015260a0606082015260006126fa60a0830186886126a2565b82810360808401526119f88185876126a2565b81835260007f07ffffffffffffffffffffffffffffffffffffffffffffffffffffffffffffff83111561273f57600080fd5b8260051b80836020870137939093016020019392505050565b8b815260c06020820152600061277260c083018c8e61270d565b8281036040840152612785818b8d61270d565b9050828103606084015261279a81898b61270d565b905082810360808401526127af8187896126a2565b905082810360a08401526127c48185876126a2565b9e9d5050505050505050505050505050565b634e487b7160e01b600052603260045260246000fd5b8c81526001600160a01b038c16602082015260e06040820152600061281560e083018c8e61270d565b8281036060840152612828818b8d61270d565b9050828103608084015261283d81898b61270d565b905082810360a08401526128528187896126a2565b905082810360c08401526128678185876126a2565b9f9e505050505050505050505050505050565b60808152600061288e60808301898b61270d565b87602084015282810360408401526128a78187896126a2565b905082810360608401526119f88185876126a2565b8781526001600160a01b038716602082015285604082015260a0606082015260006126fa60a0830186886126a2565b6000602082840312156128fd57600080fd5b5051919050565b600081518084526020840193506020830160005b82811015612936578151865260209586019590910190600101612918565b5093949350505050565b87815260a06020820152600061295960a0830189612904565b828103604084015261296b8189612904565b905082810360608401526129808187896126a2565b905082810360808401526119f88185876126a2565b60007f07ffffffffffffffffffffffffffffffffffffffffffffffffffffffffffffff8311156129c457600080fd5b8260051b80858437919091019392505050565b8183823760009101908152919050565b600181811c908216806129fb57607f821691505b602082108103612a1b57634e487b7160e01b600052602260045260246000fd5b50919050565b6001600160a01b038416815267ffffffffffffffff83166020820152606060408201526000611d69606083018461249f565b7fffffffff000000000000000000000000000000000000000000000000000000008316815260008251612a8d81600485016020870161247b565b919091016004019392505050565b601f8211156113fb57806000526020600020601f840160051c81016020851015612ac25750805b601f840160051c820191505b81811015612ae25760008155600101612ace565b5050505050565b815167ffffffffffffffff811115612b0357612b03612227565b612b1781612b1184546129e7565b84612a9b565b6020601f821160018114612b4b5760008315612b335750848201515b600019600385901b1c1916600184901b178455612ae2565b600084815260208120601f198516915b82811015612b7b5787850151825560209485019460019092019101612b5b565b5084821015612b995786840151600019600387901b60f8161c191681555b50505050600190811b01905550565b60008251612bba81846020870161247b565b919091019291505056fea26469706673582212204d7a0c4555554def80d7062ae973e49af9d1459b2aa751bd3ec8cfc86d39c30264736f6c634300081b0033",
  "linkReferences": {},
  "deployedLinkReferences": {}
}