{
  "_format": "hh-sol-artifact-1",
  "contractName": "PentePrivacyGroup",
  "sourceName": "contracts/domains/pente/PentePrivacyGroup.sol",
  "abi": [
    {
      "inputs": [],
      "stateMutability": "nonpayable",
      "type": "constructor"
    },
    {
      "inputs": [
        {
          "internalType": "address",
          "name": "target",
          "type": "address"
        }
      ],
      "name": "AddressEmptyCode",
      "type": "error"
    },
    {
      "inputs": [],
      "name": "ECDSAInvalidSignature",
      "type": "error"
    },
    {
      "inputs": [
        {
          "internalType": "uint256",
          "name": "length",
          "type": "uint256"
        }
      ],
      "name": "ECDSAInvalidSignatureLength",
      "type": "error"
    },
    {
      "inputs": [
        {
          "internalType": "bytes32",
          "name": "s",
          "type": "bytes32"
        }
      ],
      "name": "ECDSAInvalidSignatureS",
      "type": "error"
    },
    {
      "inputs": [
        {
          "internalType": "address",
          "name": "implementation",
          "type": "address"
        }
      ],
      "name": "ERC1967InvalidImplementation",
      "type": "error"
    },
    {
      "inputs": [],
      "name": "ERC1967NonPayable",
      "type": "error"
    },
    {
      "inputs": [],
      "name": "FailedCall",
      "type": "error"
    },
    {
      "inputs": [
        {
          "internalType": "uint256",
          "name": "balance",
          "type": "uint256"
        },
        {
          "internalType": "uint256",
          "name": "needed",
          "type": "uint256"
        }
      ],
      "name": "InsufficientBalance",
      "type": "error"
    },
    {
      "inputs": [],
      "name": "InvalidInitialization",
      "type": "error"
    },
    {
      "inputs": [],
      "name": "NotInitializing",
      "type": "error"
    },
    {
      "inputs": [
        {
          "internalType": "address",
          "name": "signer",
          "type": "address"
        }
      ],
      "name": "PenteDuplicateEndorser",
      "type": "error"
    },
    {
      "inputs": [
        {
          "internalType": "bytes32",
          "name": "txId",
          "type": "bytes32"
        }
      ],
      "name": "PenteDuplicateTransaction",
      "type": "error"
    },
    {
      "inputs": [
        {
          "internalType": "uint256",
          "name": "obtained",
          "type": "uint256"
        },
        {
          "internalType": "uint256",
          "name": "required",
          "type": "uint256"
        }
      ],
      "name": "PenteEndorsementThreshold",
      "type": "error"
    },
    {
      "inputs": [],
      "name": "PenteExternalCallsDisabled",
      "type": "error"
    },
    {
      "inputs": [
        {
          "internalType": "bytes32",
          "name": "input",
          "type": "bytes32"
        }
      ],
      "name": "PenteInputNotAvailable",
      "type": "error"
    },
    {
      "inputs": [
        {
          "internalType": "bytes32",
          "name": "txhash",
          "type": "bytes32"
        },
        {
          "internalType": "address",
          "name": "delegate",
          "type": "address"
        },
        {
          "internalType": "address",
          "name": "sender",
          "type": "address"
        }
      ],
      "name": "PenteInvalidDelegate",
      "type": "error"
    },
    {
      "inputs": [
        {
          "internalType": "address",
          "name": "signer",
          "type": "address"
        }
      ],
      "name": "PenteInvalidEndorser",
      "type": "error"
    },
    {
      "inputs": [
        {
          "internalType": "bytes32",
          "name": "output",
          "type": "bytes32"
        }
      ],
      "name": "PenteOutputAlreadyUnspent",
      "type": "error"
    },
    {
      "inputs": [
        {
          "internalType": "bytes32",
          "name": "read",
          "type": "bytes32"
        }
      ],
      "name": "PenteReadNotAvailable",
      "type": "error"
    },
    {
      "inputs": [
        {
          "internalType": "bytes4",
          "name": "configSelector",
          "type": "bytes4"
        }
      ],
      "name": "PenteUnsupportedConfigType",
      "type": "error"
    },
    {
      "inputs": [],
      "name": "PenteUpgradeNotPreauthorized",
      "type": "error"
    },
    {
      "inputs": [],
      "name": "UUPSUnauthorizedCallContext",
      "type": "error"
    },
    {
      "inputs": [
        {
          "internalType": "bytes32",
          "name": "slot",
          "type": "bytes32"
        }
      ],
      "name": "UUPSUnsupportedProxiableUUID",
      "type": "error"
    },
    {
      "anonymous": false,
      "inputs": [],
      "name": "EIP712DomainChanged",
      "type": "event"
    },
    {
      "anonymous": false,
      "inputs": [
        {
          "indexed": false,
          "internalType": "uint64",
          "name": "version",
          "type": "uint64"
        }
      ],
      "name": "Initialized",
      "type": "event"
    },
    {
      "anonymous": false,
      "inputs": [
        {
          "indexed": false,
          "internalType": "bytes32",
          "name": "txId",
          "type": "bytes32"
        },
        {
          "indexed": false,
          "internalType": "address",
          "name": "delegate",
          "type": "address"
        },
        {
          "indexed": false,
          "internalType": "bytes32",
          "name": "transitionHash",
          "type": "bytes32"
        }
      ],
      "name": "PenteApproved",
      "type": "event"
    },
    {
      "anonymous": false,
      "inputs": [
        {
          "indexed": false,
          "internalType": "bytes32",
          "name": "txId",
          "type": "bytes32"
        },
        {
          "indexed": false,
          "internalType": "bytes32[]",
          "name": "inputs",
          "type": "bytes32[]"
        },
        {
          "indexed": false,
          "internalType": "bytes32[]",
          "name": "reads",
          "type": "bytes32[]"
        },
        {
          "indexed": false,
          "internalType": "bytes32[]",
          "name": "outputs",
          "type": "bytes32[]"
        },
        {
          "indexed": false,
          "internalType": "bytes32[]",
          "name": "info",
          "type": "bytes32[]"
        }
      ],
      "name": "PenteTransition",
      "type": "event"
    },
    {
      "anonymous": false,
      "inputs": [
        {
          "indexed": true,
          "internalType": "address",
          "name": "implementation",
          "type": "address"
        }
      ],
      "name": "Upgraded",
      "type": "event"
    },
    {
      "inputs": [],
      "name": "PenteConfig_V0",
      "outputs": [
        {
          "internalType": "bytes4",
          "name": "",
          "type": "bytes4"
        }
      ],
      "stateMutability": "view",
      "type": "function"
    },
    {
      "inputs": [],
      "name": "UPGRADE_INTERFACE_VERSION",
      "outputs": [
        {
          "internalType": "string",
          "name": "",
          "type": "string"
        }
      ],
      "stateMutability": "view",
      "type": "function"
    },
    {
      "inputs": [
        {
          "internalType": "bytes32",
          "name": "txId",
          "type": "bytes32"
        },
        {
          "internalType": "address",
          "name": "delegate",
          "type": "address"
        },
        {
          "internalType": "bytes32",
          "name": "transitionHash",
          "type": "bytes32"
        },
        {
          "internalType": "bytes[]",
          "name": "signatures",
          "type": "bytes[]"
        }
      ],
      "name": "approveTransition",
      "outputs": [],
      "stateMutability": "nonpayable",
      "type": "function"
    },
    {
      "inputs": [],
      "name": "eip712Domain",
      "outputs": [
        {
          "internalType": "bytes1",
          "name": "fields",
          "type": "bytes1"
        },
        {
          "internalType": "string",
          "name": "name",
          "type": "string"
        },
        {
          "internalType": "string",
          "name": "version",
          "type": "string"
        },
        {
          "internalType": "uint256",
          "name": "chainId",
          "type": "uint256"
        },
        {
          "internalType": "address",
          "name": "verifyingContract",
          "type": "address"
        },
        {
          "internalType": "bytes32",
          "name": "salt",
          "type": "bytes32"
        },
        {
          "internalType": "uint256[]",
          "name": "extensions",
          "type": "uint256[]"
        }
      ],
      "stateMutability": "view",
      "type": "function"
    },
    {
      "inputs": [
        {
          "internalType": "bytes",
          "name": "config",
          "type": "bytes"
        }
      ],
      "name": "initialize",
      "outputs": [],
      "stateMutability": "nonpayable",
      "type": "function"
    },
    {
      "inputs": [
        {
          "internalType": "address",
          "name": "newImplementation",
          "type": "address"
        },
        {
          "internalType": "bytes[]",
          "name": "signatures",
          "type": "bytes[]"
        }
      ],
      "name": "preAuthorizeUpgrade",
      "outputs": [],
      "stateMutability": "nonpayable",
      "type": "function"
    },
    {
      "inputs": [],
      "name": "proxiableUUID",
      "outputs": [
        {
          "internalType": "bytes32",
          "name": "",
          "type": "bytes32"
        }
      ],
      "stateMutability": "view",
      "type": "function"
    },
    {
      "inputs": [
        {
          "internalType": "bytes32",
          "name": "txId",
          "type": "bytes32"
        },
        {
          "components": [
            {
              "internalType": "bytes32[]",
              "name": "inputs",
              "type": "bytes32[]"
            },
            {
              "internalType": "bytes32[]",
              "name": "reads",
              "type": "bytes32[]"
            },
            {
              "internalType": "bytes32[]",
              "name": "outputs",
              "type": "bytes32[]"
            },
            {
              "internalType": "bytes32[]",
              "name": "info",
              "type": "bytes32[]"
            }
          ],
          "internalType": "struct PentePrivacyGroup.States",
          "name": "states",
          "type": "tuple"
        },
        {
          "components": [
            {
              "internalType": "address",
              "name": "contractAddress",
              "type": "address"
            },
            {
              "internalType": "bytes",
              "name": "encodedCall",
              "type": "bytes"
            }
          ],
          "internalType": "struct PentePrivacyGroup.ExternalCall[]",
          "name": "externalCalls",
          "type": "tuple[]"
        },
        {
          "internalType": "bytes[]",
          "name": "signatures",
          "type": "bytes[]"
        }
      ],
      "name": "transition",
      "outputs": [],
      "stateMutability": "nonpayable",
      "type": "function"
    },
    {
      "inputs": [
        {
          "internalType": "bytes32",
          "name": "txId",
          "type": "bytes32"
        },
        {
          "components": [
            {
              "internalType": "bytes32[]",
              "name": "inputs",
              "type": "bytes32[]"
            },
            {
              "internalType": "bytes32[]",
              "name": "reads",
              "type": "bytes32[]"
            },
            {
              "internalType": "bytes32[]",
              "name": "outputs",
              "type": "bytes32[]"
            },
            {
              "internalType": "bytes32[]",
              "name": "info",
              "type": "bytes32[]"
            }
          ],
          "internalType": "struct PentePrivacyGroup.States",
          "name": "states",
          "type": "tuple"
        },
        {
          "components": [
            {
              "internalType": "address",
              "name": "contractAddress",
              "type": "address"
            },
            {
              "internalType": "bytes",
              "name": "encodedCall",
              "type": "bytes"
            }
          ],
          "internalType": "struct PentePrivacyGroup.ExternalCall[]",
          "name": "externalCalls",
          "type": "tuple[]"
        }
      ],
      "name": "transitionWithApproval",
      "outputs": [],
      "stateMutability": "nonpayable",
      "type": "function"
    },
    {
      "inputs": [
        {
          "internalType": "address",
          "name": "newImplementation",
          "type": "address"
        },
        {
          "internalType": "bytes",
          "name": "data",
          "type": "bytes"
        }
      ],
      "name": "upgradeToAndCall",
      "outputs": [],
      "stateMutability": "payable",
      "type": "function"
    }
  ],
  "bytecode": "0x60a06040523060805234801561001457600080fd5b5061001d610022565b6100d4565b7ff0c57e16840df040f15088dc2f81fe391c3923bec73e23a9662efc9c229c6a00805468010000000000000000900460ff16156100725760405163f92ee8a960e01b815260040160405180910390fd5b80546001600160401b03908116146100d15780546001600160401b0319166001600160401b0390811782556040519081527fc7f505b2f371ae2175ee4913f4499e1f2633a7b5936321eed1cdaeb6115181d29060200160405180910390a15b50565b6080516129ee6100fd6000396000818161114801528181611171015261133801526129ee6000f3fe6080604052600436106100b15760003560e01c806377516f8c11610069578063ac3cd44f1161004e578063ac3cd44f1461019b578063ad3cb1cc146101e7578063d3e889ce1461023d57600080fd5b806377516f8c1461015357806384b0196e1461017357600080fd5b8063439fab911161009a578063439fab91146100f85780634f1ef2861461011857806352d1902d1461012b57600080fd5b80630a78b6c5146100b6578063223ce098146100d8575b600080fd5b3480156100c257600080fd5b506100d66100d1366004611f43565b61025d565b005b3480156100e457600080fd5b506100d66100f3366004611fae565b6102a8565b34801561010457600080fd5b506100d6610113366004612058565b6102d7565b6100d661012636600461216f565b610593565b34801561013757600080fd5b506101406105b2565b6040519081526020015b60405180910390f35b34801561015f57600080fd5b506100d661016e3660046121d1565b6105e1565b34801561017f57600080fd5b5061018861066a565b60405161014a9796959493929190612289565b3480156101a757600080fd5b506101ce7e0100000000000000000000000000000000000000000000000000000000000081565b6040516001600160e01b0319909116815260200161014a565b3480156101f357600080fd5b506102306040518060400160405280600581526020017f352e302e3000000000000000000000000000000000000000000000000000000081525081565b60405161014a919061233d565b34801561024957600080fd5b506100d6610258366004612350565b610766565b600061026884610802565b9050610275818484610872565b50506003805473ffffffffffffffffffffffffffffffffffffffff19166001600160a01b03939093169290921790915550565b60006102b5868686610b5d565b90506102c2818484610872565b6102ce87878787610cf0565b50505050505050565b7ff0c57e16840df040f15088dc2f81fe391c3923bec73e23a9662efc9c229c6a00805468010000000000000000810460ff16159067ffffffffffffffff166000811580156103225750825b905060008267ffffffffffffffff16600114801561033f5750303b155b90508115801561034d575080155b15610384576040517ff92ee8a900000000000000000000000000000000000000000000000000000000815260040160405180910390fd5b845467ffffffffffffffff1916600117855583156103b857845468ff00000000000000001916680100000000000000001785555b61042c6040518060400160405280600581526020017f70656e74650000000000000000000000000000000000000000000000000000008152506040518060400160405280600581526020017f302e302e3100000000000000000000000000000000000000000000000000000081525061112b565b600061043b600482898b6123c5565b610444916123ef565b90507fffff0000000000000000000000000000000000000000000000000000000000006001600160e01b03198216016104fc57600080806104888a6004818e6123c5565b8101906104959190612425565b60408051808201909152838152602080820184905260048581558451959950939750919550935090916104ce9160059190870190611e54565b5050811590506104df5760016104e2565b60005b6006805460ff19169115159190911790555061053f915050565b6040517f1eb38a7c0000000000000000000000000000000000000000000000000000000081526001600160e01b0319821660048201526024015b60405180910390fd5b5083156102ce57845468ff000000000000000019168555604051600181527fc7f505b2f371ae2175ee4913f4499e1f2633a7b5936321eed1cdaeb6115181d29060200160405180910390a150505050505050565b61059b61113d565b6105a4826111f6565b6105ae8282611240565b5050565b60006105bc61132d565b507f360894a13ba1a3210667c828492db98dca3e2076cc3735a920a3ca505d382bbc90565b6105ec838383610872565b600083815260016020908152604091829020805473ffffffffffffffffffffffffffffffffffffffff19166001600160a01b0388169081179091558251888152918201529081018490527fb9ae1f7c1a7315ba3a1ca3b57db9ff65646e18265c9b0e79e8423b0fd7c4839c9060600160405180910390a15050505050565b600060608082808083817fa16a46d94261c7517cc8ff89f61c0ce93598e3c849801011dee649a6a557d10080549091501580156106a957506001810154155b61070f576040517f08c379a000000000000000000000000000000000000000000000000000000000815260206004820152601560248201527f4549503731323a20556e696e697469616c697a656400000000000000000000006044820152606401610536565b610717611376565b61071f61144b565b604080516000808252602082019092527f0f000000000000000000000000000000000000000000000000000000000000009c939b5091995046985030975095509350915050565b6000610773848484610b5d565b6000818152600160205260409020549091506001600160a01b031633146107ef57600081815260016020526040908190205490517fa69a6005000000000000000000000000000000000000000000000000000000008152600481018390526001600160a01b039091166024820152336044820152606401610536565b6107fb85858585610cf0565b5050505050565b6000807f43c66ea365f48b9715a163ea21bbc96c68341d6bf224d1d6cb216b57b8c4ea398360405160200161084a9291909182526001600160a01b0316602082015260400190565b60405160208183030381529060405280519060200120905061086b8161149c565b9392505050565b600060046001018054806020026020016040519081016040528092919081815260200182805480156108cd57602002820191906000526020600020905b81546001600160a01b031681526001909101906020018083116108af575b5050505050905060008383905067ffffffffffffffff8111156108f2576108f26120cc565b60405190808252806020026020018201604052801561091b578160200160208202803683370190505b5090506000805b84811015610b0d57600061098e888888858181106109425761094261252a565b90506020028101906109549190612540565b8080601f0160208091040260200160405190810160405280939291908181526020018383808284376000920191909152506114ea92505050565b905060005b83811015610a12578481815181106109ad576109ad61252a565b60200260200101516001600160a01b0316826001600160a01b031603610a0a576040517f4f8d70160000000000000000000000000000000000000000000000000000000081526001600160a01b0383166004820152602401610536565b600101610993565b506000805b8651811015610a7b57868181518110610a3257610a3261252a565b60200260200101516001600160a01b0316836001600160a01b031603610a7357868181518110610a6457610a6461252a565b60200260200101519150610a7b565b600101610a17565b506001600160a01b038116610ac7576040517fb9cb6d180000000000000000000000000000000000000000000000000000000081526001600160a01b0383166004820152602401610536565b80858581518110610ada57610ada61252a565b6001600160a01b039092166020928302919091019091015283610afc81612587565b945050600190920191506109229050565b50600454811015610b5557600480546040517f712615490000000000000000000000000000000000000000000000000000000081529182018390526024820152604401610536565b505050505050565b6000806040518060a00160405280606a8152602001612918606a913960405180606001604052806037815260200161298260379139604051602001610ba39291906125ae565b60408051601f198184030181529190528051602090910120610bc586806125dd565b604051602001610bd6929190612627565b60405160208183030381529060405280519060200120868060200190610bfc91906125dd565b604051602001610c0d929190612627565b60405160208183030381529060405280519060200120878060400190610c3391906125dd565b604051602001610c44929190612627565b60408051601f198184030181529190528051602090910120610c6960608a018a6125dd565b604051602001610c7a929190612627565b60405160208183030381529060405280519060200120610c9a8989611514565b6040805160208101979097528601949094526060850192909252608084015260a083015260c082015260e001604051602081830303815290604052805190602001209050610ce78161149c565b95945050505050565b60008481526002602052604090205460ff1615610d3c576040517fbcffec8700000000000000000000000000000000000000000000000000000000815260048101859052602401610536565b6000848152600260205260408120805460ff191660011790555b610d6084806125dd565b9050811015610e4357600080610d7686806125dd565b84818110610d8657610d8661252a565b602090810292909201358352508101919091526040016000205460ff16610dfd57610db184806125dd565b82818110610dc157610dc161252a565b905060200201356040517fa80f89f400000000000000000000000000000000000000000000000000000000815260040161053691815260200190565b600080610e0a86806125dd565b84818110610e1a57610e1a61252a565b60209081029290920135835250810191909152604001600020805460ff19169055600101610d56565b5060005b610e5460208501856125dd565b9050811015610eff57600080610e6d60208701876125dd565b84818110610e7d57610e7d61252a565b602090810292909201358352508101919091526040016000205460ff16610ef757610eab60208501856125dd565b82818110610ebb57610ebb61252a565b905060200201356040517fa7a3ace300000000000000000000000000000000000000000000000000000000815260040161053691815260200190565b600101610e47565b5060005b610f1060408501856125dd565b905081101561100657600080610f2960408701876125dd565b84818110610f3957610f3961252a565b602090810292909201358352508101919091526040016000205460ff1615610fb457610f6860408501856125dd565b82818110610f7857610f7861252a565b905060200201356040517ff6b3931c00000000000000000000000000000000000000000000000000000000815260040161053691815260200190565b6001600080610fc660408801886125dd565b85818110610fd657610fd661252a565b60209081029290920135835250810191909152604001600020805460ff1916911515919091179055600101610f03565b507f156c14fb5e9a70b196a7d32f40d526ee002750cb79cc5be80567856f30aeab228461103385806125dd565b61104060208801886125dd565b61104d60408a018a6125dd565b61105a60608c018c6125dd565b60405161106f999897969594939291906126b4565b60405180910390a160005b818110156107fb576111238383838181106110975761109761252a565b90506020028101906110a9919061271b565b6110b790602081019061273b565b8484848181106110c9576110c961252a565b90506020028101906110db919061271b565b6110e9906020810190612540565b8080601f0160208091040260200160405190810160405280939291908181526020018383808284376000920191909152506116b592505050565b60010161107a565b611133611704565b6105ae828261176b565b306001600160a01b037f00000000000000000000000000000000000000000000000000000000000000001614806111d657507f00000000000000000000000000000000000000000000000000000000000000006001600160a01b03166111ca7f360894a13ba1a3210667c828492db98dca3e2076cc3735a920a3ca505d382bbc546001600160a01b031690565b6001600160a01b031614155b156111f45760405163703e46dd60e11b815260040160405180910390fd5b565b6003546001600160a01b0382811691161461123d576040517fa5762b7f00000000000000000000000000000000000000000000000000000000815260040160405180910390fd5b50565b816001600160a01b03166352d1902d6040518163ffffffff1660e01b8152600401602060405180830381865afa92505050801561129a575060408051601f3d908101601f1916820190925261129791810190612756565b60015b6112c257604051634c9c8ce360e01b81526001600160a01b0383166004820152602401610536565b7f360894a13ba1a3210667c828492db98dca3e2076cc3735a920a3ca505d382bbc811461131e576040517faa1d49a400000000000000000000000000000000000000000000000000000000815260048101829052602401610536565b61132883836117de565b505050565b306001600160a01b037f000000000000000000000000000000000000000000000000000000000000000016146111f45760405163703e46dd60e11b815260040160405180910390fd5b7fa16a46d94261c7517cc8ff89f61c0ce93598e3c849801011dee649a6a557d10280546060917fa16a46d94261c7517cc8ff89f61c0ce93598e3c849801011dee649a6a557d100916113c79061276f565b80601f01602080910402602001604051908101604052809291908181526020018280546113f39061276f565b80156114405780601f1061141557610100808354040283529160200191611440565b820191906000526020600020905b81548152906001019060200180831161142357829003601f168201915b505050505091505090565b7fa16a46d94261c7517cc8ff89f61c0ce93598e3c849801011dee649a6a557d10380546060917fa16a46d94261c7517cc8ff89f61c0ce93598e3c849801011dee649a6a557d100916113c79061276f565b60006114e46114a9611834565b836040517f19010000000000000000000000000000000000000000000000000000000000008152600281019290925260228201526042902090565b92915050565b6000806000806114fa8686611843565b92509250925061150a8282611890565b5090949350505050565b6000808267ffffffffffffffff811115611530576115306120cc565b604051908082528060200260200182016040528015611559578160200160208202803683370190505b50905060005b83811015611684576040518060600160405280603781526020016129826037913960405160200161159091906127a3565b604051602081830303815290604052805190602001208585838181106115b8576115b861252a565b90506020028101906115ca919061271b565b6115d890602081019061273b565b8686848181106115ea576115ea61252a565b90506020028101906115fc919061271b565b61160a906020810190612540565b6040516116189291906127b5565b6040519081900381206116499392916020019283526001600160a01b03919091166020830152604082015260600190565b604051602081830303815290604052805190602001208282815181106116715761167161252a565b602090810291909101015260010161155f565b508060405160200161169691906127c5565b6040516020818303038152906040528051906020012091505092915050565b60065460ff166116f1576040517f3802fedd00000000000000000000000000000000000000000000000000000000815260040160405180910390fd5b6113286001600160a01b03831682611994565b7ff0c57e16840df040f15088dc2f81fe391c3923bec73e23a9662efc9c229c6a005468010000000000000000900460ff166111f4576040517fd7e6bcf800000000000000000000000000000000000000000000000000000000815260040160405180910390fd5b611773611704565b7fa16a46d94261c7517cc8ff89f61c0ce93598e3c849801011dee649a6a557d1007fa16a46d94261c7517cc8ff89f61c0ce93598e3c849801011dee649a6a557d1026117bf8482612842565b50600381016117ce8382612842565b5060008082556001909101555050565b6117e7826119a2565b6040516001600160a01b038316907fbc7cd75a20ee27fd9adebab32041f755214dbc6bffa90cc0225b39da2e5c2d3b90600090a280511561182c576113288282611a26565b6105ae611a93565b600061183e611acb565b905090565b6000806000835160410361187d5760208401516040850151606086015160001a61186f88828585611b3f565b955095509550505050611889565b50508151600091506002905b9250925092565b60008260038111156118a4576118a4612901565b036118ad575050565b60018260038111156118c1576118c1612901565b036118f8576040517ff645eedf00000000000000000000000000000000000000000000000000000000815260040160405180910390fd5b600282600381111561190c5761190c612901565b03611946576040517ffce698f700000000000000000000000000000000000000000000000000000000815260048101829052602401610536565b600382600381111561195a5761195a612901565b036105ae576040517fd78bce0c00000000000000000000000000000000000000000000000000000000815260048101829052602401610536565b606061086b83836000611c0e565b806001600160a01b03163b6000036119d857604051634c9c8ce360e01b81526001600160a01b0382166004820152602401610536565b7f360894a13ba1a3210667c828492db98dca3e2076cc3735a920a3ca505d382bbc805473ffffffffffffffffffffffffffffffffffffffff19166001600160a01b0392909216919091179055565b6060600080846001600160a01b031684604051611a4391906127a3565b600060405180830381855af49150503d8060008114611a7e576040519150601f19603f3d011682016040523d82523d6000602084013e611a83565b606091505b5091509150610ce7858383611ccb565b34156111f4576040517fb398979f00000000000000000000000000000000000000000000000000000000815260040160405180910390fd5b60007f8b73c3c69bb8fe3d512ecc4cf759cc79239f7b179b0ffacaa9a75d522b39400f611af6611d40565b611afe611dbc565b60408051602081019490945283019190915260608201524660808201523060a082015260c00160405160208183030381529060405280519060200120905090565b600080807f7fffffffffffffffffffffffffffffff5d576e7357a4501ddfe92f46681b20a0841115611b7a5750600091506003905082611c04565b604080516000808252602082018084528a905260ff891692820192909252606081018790526080810186905260019060a0016020604051602081039080840390855afa158015611bce573d6000803e3d6000fd5b5050604051601f1901519150506001600160a01b038116611bfa57506000925060019150829050611c04565b9250600091508190505b9450945094915050565b606081471015611c53576040517fcf47918100000000000000000000000000000000000000000000000000000000815247600482015260248101839052604401610536565b600080856001600160a01b03168486604051611c6f91906127a3565b60006040518083038185875af1925050503d8060008114611cac576040519150601f19603f3d011682016040523d82523d6000602084013e611cb1565b606091505b5091509150611cc1868383611ccb565b9695505050505050565b606082611ce057611cdb82611e12565b61086b565b8151158015611cf757506001600160a01b0384163b155b15611d39576040517f9996b3150000000000000000000000000000000000000000000000000000000081526001600160a01b0385166004820152602401610536565b508061086b565b60007fa16a46d94261c7517cc8ff89f61c0ce93598e3c849801011dee649a6a557d10081611d6c611376565b805190915015611d8457805160209091012092915050565b81548015611d93579392505050565b7fc5d2460186f7233c927e7db2dcc703c0e500b653ca82273b7bfad8045d85a470935050505090565b60007fa16a46d94261c7517cc8ff89f61c0ce93598e3c849801011dee649a6a557d10081611de861144b565b805190915015611e0057805160209091012092915050565b60018201548015611d93579392505050565b805115611e225780518082602001fd5b6040517fd6bda27500000000000000000000000000000000000000000000000000000000815260040160405180910390fd5b828054828255906000526020600020908101928215611eb6579160200282015b82811115611eb6578251825473ffffffffffffffffffffffffffffffffffffffff19166001600160a01b03909116178255602090920191600190910190611e74565b50611ec2929150611ec6565b5090565b5b80821115611ec25760008155600101611ec7565b80356001600160a01b0381168114611ef257600080fd5b919050565b60008083601f840112611f0957600080fd5b50813567ffffffffffffffff811115611f2157600080fd5b6020830191508360208260051b8501011115611f3c57600080fd5b9250929050565b600080600060408486031215611f5857600080fd5b611f6184611edb565b9250602084013567ffffffffffffffff811115611f7d57600080fd5b611f8986828701611ef7565b9497909650939450505050565b600060808284031215611fa857600080fd5b50919050565b60008060008060008060808789031215611fc757600080fd5b86359550602087013567ffffffffffffffff811115611fe557600080fd5b611ff189828a01611f96565b955050604087013567ffffffffffffffff81111561200e57600080fd5b61201a89828a01611ef7565b909550935050606087013567ffffffffffffffff81111561203a57600080fd5b61204689828a01611ef7565b979a9699509497509295939492505050565b6000806020838503121561206b57600080fd5b823567ffffffffffffffff81111561208257600080fd5b8301601f8101851361209357600080fd5b803567ffffffffffffffff8111156120aa57600080fd5b8560208284010111156120bc57600080fd5b6020919091019590945092505050565b634e487b7160e01b600052604160045260246000fd5b604051601f8201601f1916810167ffffffffffffffff8111828210171561210b5761210b6120cc565b604052919050565b60008067ffffffffffffffff84111561212e5761212e6120cc565b50601f8301601f1916602001612143816120e2565b91505082815283838301111561215857600080fd5b828260208301376000602084830101529392505050565b6000806040838503121561218257600080fd5b61218b83611edb565b9150602083013567ffffffffffffffff8111156121a757600080fd5b8301601f810185136121b857600080fd5b6121c785823560208401612113565b9150509250929050565b6000806000806000608086880312156121e957600080fd5b853594506121f960208701611edb565b935060408601359250606086013567ffffffffffffffff81111561221c57600080fd5b61222888828901611ef7565b969995985093965092949392505050565b60005b8381101561225457818101518382015260200161223c565b50506000910152565b60008151808452612275816020860160208601612239565b601f01601f19169290920160200192915050565b7fff000000000000000000000000000000000000000000000000000000000000008816815260e0602082015260006122c460e083018961225d565b82810360408401526122d6818961225d565b606084018890526001600160a01b038716608085015260a0840186905283810360c08501528451808252602080870193509091019060005b8181101561232c57835183526020938401939092019160010161230e565b50909b9a5050505050505050505050565b60208152600061086b602083018461225d565b6000806000806060858703121561236657600080fd5b84359350602085013567ffffffffffffffff81111561238457600080fd5b61239087828801611f96565b935050604085013567ffffffffffffffff8111156123ad57600080fd5b6123b987828801611ef7565b95989497509550505050565b600080858511156123d557600080fd5b838611156123e257600080fd5b5050820193919092039150565b80356001600160e01b0319811690600484101561241e576001600160e01b0319808560040360031b1b82161691505b5092915050565b6000806000806080858703121561243b57600080fd5b843567ffffffffffffffff81111561245257600080fd5b8501601f8101871361246357600080fd5b61247287823560208401612113565b94505060208501359250604085013567ffffffffffffffff81111561249657600080fd5b8501601f810187136124a757600080fd5b803567ffffffffffffffff8111156124c1576124c16120cc565b8060051b6124d1602082016120e2565b9182526020818401810192908101908a8411156124ed57600080fd5b6020850194505b838510156125165761250585611edb565b8252602094850194909101906124f4565b979a96995096976060013596505050505050565b634e487b7160e01b600052603260045260246000fd5b6000808335601e1984360301811261255757600080fd5b83018035915067ffffffffffffffff82111561257257600080fd5b602001915036819003821315611f3c57600080fd5b6000600182016125a757634e487b7160e01b600052601160045260246000fd5b5060010190565b600083516125c0818460208801612239565b8351908301906125d4818360208801612239565b01949350505050565b6000808335601e198436030181126125f457600080fd5b83018035915067ffffffffffffffff82111561260f57600080fd5b6020019150600581901b3603821315611f3c57600080fd5b60007f07ffffffffffffffffffffffffffffffffffffffffffffffffffffffffffffff83111561265657600080fd5b8260051b80858437919091019392505050565b81835260007f07ffffffffffffffffffffffffffffffffffffffffffffffffffffffffffffff83111561269b57600080fd5b8260051b80836020870137939093016020019392505050565b89815260a0602082015260006126ce60a083018a8c612669565b82810360408401526126e181898b612669565b905082810360608401526126f6818789612669565b9050828103608084015261270b818587612669565b9c9b505050505050505050505050565b60008235603e1983360301811261273157600080fd5b9190910192915050565b60006020828403121561274d57600080fd5b61086b82611edb565b60006020828403121561276857600080fd5b5051919050565b600181811c9082168061278357607f821691505b602082108103611fa857634e487b7160e01b600052602260045260246000fd5b60008251612731818460208701612239565b8183823760009101908152919050565b8151600090829060208501835b828110156127f05781518452602093840193909101906001016127d2565b509195945050505050565b601f82111561132857806000526020600020601f840160051c810160208510156128225750805b601f840160051c820191505b818110156107fb576000815560010161282e565b815167ffffffffffffffff81111561285c5761285c6120cc565b6128708161286a845461276f565b846127fb565b6020601f8211600181146128a4576000831561288c5750848201515b600019600385901b1c1916600184901b1784556107fb565b600084815260208120601f198516915b828110156128d457878501518255602094850194600190920191016128b4565b50848210156128f25786840151600019600387901b60f8161c191681555b50505050600190811b01905550565b634e487b7160e01b600052602160045260246000fdfe5472616e736974696f6e28627974657333325b5d20696e707574732c627974657333325b5d2072656164732c627974657333325b5d206f7574707574732c627974657333325b5d20696e666f2c45787465726e616c43616c6c5b5d2065787465726e616c43616c6c732945787465726e616c43616c6c286164647265737320636f6e7472616374416464726573732c627974657320656e636f64656443616c6c29a2646970667358221220ae1334b169d91bc9ab91b57af71164e76e04ae931e7f81283722670c1794664e64736f6c634300081b0033",
  "linkReferences": {},
  "deployedLinkReferences": {}
}