{
  "_format": "hh-sol-artifact-1",
  "contractName": "SIMDomain",
  "sourceName": "contracts/domains/testbed_sim/SIMDomain.sol",
  "abi": [
    {
      "anonymous": false,
      "inputs": [
        {
          "indexed": true,
          "internalType": "bytes32",
          "name": "txId",
          "type": "bytes32"
        },
        {
          "indexed": true,
          "internalType": "address",
          "name": "instance",
          "type": "address"
        },
        {
          "indexed": false,
          "internalType": "bytes",
          "name": "config",
          "type": "bytes"
        }
      ],
      "name": "PaladinRegisterSmartContract_V0",
      "type": "event"
    },
    {
      "inputs": [
        {
          "internalType": "bytes32",
          "name": "txId",
          "type": "bytes32"
        },
        {
          "internalType": "address",
          "name": "notary",
          "type": "address"
        },
        {
          "internalType": "string",
          "name": "notaryLocator",
          "type": "string"
        }
      ],
      "name": "newSIMTokenNotarized",
      "outputs": [],
      "stateMutability": "nonpayable",
      "type": "function"
    }
  ],
  "bytecode": "0x6080604052348015600f57600080fd5b5061099e8061001f6000396000f3fe608060405234801561001057600080fd5b506004361061002b5760003560e01c8063aed7e32d14610030575b600080fd5b61004361003e366004610112565b610045565b005b60008360405161005490610105565b73ffffffffffffffffffffffffffffffffffffffff9091168152602001604051809103906000f08015801561008d573d6000803e3d6000fd5b5090508073ffffffffffffffffffffffffffffffffffffffff16857fd77f43af9eba6f7c0ea72f4bad6bc58c3bd49e2cb299e128c91293b7ebc17f4385856040516020016100dc9291906101b7565b60408051601f19818403018152908290526100f6916101e6565b60405180910390a35050505050565b6107348061023583390190565b6000806000806060858703121561012857600080fd5b84359350602085013573ffffffffffffffffffffffffffffffffffffffff8116811461015357600080fd5b9250604085013567ffffffffffffffff81111561016f57600080fd5b8501601f8101871361018057600080fd5b803567ffffffffffffffff81111561019757600080fd5b8760208284010111156101a957600080fd5b949793965060200194505050565b60208152816020820152818360408301376000818301604090810191909152601f909201601f19160101919050565b602081526000825180602084015260005b8181101561021457602081860181015160408684010152016101f7565b506000604082850101526040601f19601f8301168401019150509291505056fe6080604052348015600f57600080fd5b50604051610734380380610734833981016040819052602c916050565b600080546001600160a01b0319166001600160a01b0392909216919091179055607e565b600060208284031215606157600080fd5b81516001600160a01b0381168114607757600080fd5b9392505050565b6106a78061008d6000396000f3fe608060405234801561001057600080fd5b50600436106100415760003560e01c8063794e159c14610046578063b12417b31461007f578063ffd41d8714610094575b600080fd5b61006d7ff02d7b451683eaa9257383ac8f8122504f2c4b8c18ebba93009839314d4ca28381565b60405190815260200160405180910390f35b61009261008d3660046102bc565b6100a7565b005b6100926100a236600461036c565b610119565b6100b0336101bb565b7fd8fb8dba29305d26bb4b8d0be7b5e3e815f2e4d214160b4c332369235ad1f9d1878787878787876040516020016100e99291906103bf565b60408051601f1981840301815290829052610108969594939291610460565b60405180910390a150505050505050565b610122336101bb565b7ff02d7b451683eaa9257383ac8f8122504f2c4b8c18ebba93009839314d4ca2838314610151576101516104ae565b6000808061016184860186610579565b9250925092507fd8fb8dba29305d26bb4b8d0be7b5e3e815f2e4d214160b4c332369235ad1f9d18783838660405160200161019e91815260200190565b60408051601f198184030181529082905261010894939291610627565b60005473ffffffffffffffffffffffffffffffffffffffff82811691161461022b576040517f2dcef8a400000000000000000000000000000000000000000000000000000000815273ffffffffffffffffffffffffffffffffffffffff8216600482015260240160405180910390fd5b50565b60008083601f84011261024057600080fd5b50813567ffffffffffffffff81111561025857600080fd5b6020830191508360208260051b850101111561027357600080fd5b9250929050565b60008083601f84011261028c57600080fd5b50813567ffffffffffffffff8111156102a457600080fd5b60208301915083602082850101111561027357600080fd5b60008060008060008060006080888a0312156102d757600080fd5b87359650602088013567ffffffffffffffff8111156102f557600080fd5b6103018a828b0161022e565b909750955050604088013567ffffffffffffffff81111561032157600080fd5b61032d8a828b0161022e565b909550935050606088013567ffffffffffffffff81111561034d57600080fd5b6103598a828b0161027a565b989b979a50959850939692959293505050565b6000806000806060858703121561038257600080fd5b8435935060208501359250604085013567ffffffffffffffff8111156103a757600080fd5b6103b38782880161027a565b95989497509550505050565b8183823760009101908152919050565b81835260007f07ffffffffffffffffffffffffffffffffffffffffffffffffffffffffffffff83111561040157600080fd5b8260051b80836020870137939093016020019392505050565b6000815180845260005b8181101561044057602081850181015186830182015201610424565b506000602082860101526020601f19601f83011685010191505092915050565b86815260806020820152600061047a6080830187896103cf565b828103604084015261048d8186886103cf565b905082810360608401526104a1818561041a565b9998505050505050505050565b634e487b7160e01b600052600160045260246000fd5b634e487b7160e01b600052604160045260246000fd5b600082601f8301126104eb57600080fd5b813567ffffffffffffffff811115610505576105056104c4565b8060051b604051601f19603f830116810181811067ffffffffffffffff82111715610532576105326104c4565b60405291825260208185018101929081018684111561055057600080fd5b6020860192505b8383101561056f578235815260209283019201610557565b5095945050505050565b60008060006060848603121561058e57600080fd5b83359250602084013567ffffffffffffffff8111156105ac57600080fd5b6105b8868287016104da565b925050604084013567ffffffffffffffff8111156105d557600080fd5b6105e1868287016104da565b9150509250925092565b600081518084526020840193506020830160005b8281101561061d5781518652602095860195909101906001016105ff565b5093949350505050565b84815260806020820152600061064060808301866105eb565b828103604084015261065281866105eb565b90508281036060840152610666818561041a565b97965050505050505056fea2646970667358221220a5c63eec208bda9f325f6dd47078b22cb6dc64b3b9d1c511b3bde03e9ccf234f64736f6c634300081b0033a2646970667358221220670573098d295bb8c180dca99c091b009ba9f10c39a0767639ed4c47bf81ac3c64736f6c634300081b0033",
  "linkReferences": {},
  "deployedLinkReferences": {}
}