{
  "_format": "hh-sol-artifact-1",
  "contractName": "SimpleStorageLinked",
  "sourceName": "contracts/testcontracts/SimpleStorageLinked.sol",
  "abi": [
    {
      "inputs": [
        {
          "internalType": "address",
          "name": "linked",
          "type": "address"
        }
      ],
      "stateMutability": "nonpayable",
      "type": "constructor"
    },
    {
      "anonymous": false,
      "inputs": [
        {
          "indexed": true,
          "internalType": "address",
          "name": "contractAddress",
          "type": "address"
        },
        {
          "indexed": false,
          "internalType": "bytes",
          "name": "encodedCall",
          "type": "bytes"
        }
      ],
      "name": "PenteExternalCall",
      "type": "event"
    },
    {
      "inputs": [
        {
          "internalType": "uint256",
          "name": "value",
          "type": "uint256"
        }
      ],
      "name": "set",
      "outputs": [],
      "stateMutability": "nonpayable",
      "type": "function"
    },
    {
      "inputs": [],
      "name": "storedData",
      "outputs": [
        {
          "internalType": "uint256",
          "name": "",
          "type": "uint256"
        }
      ],
      "stateMutability": "view",
      "type": "function"
    }
  ],
  "bytecode": "0x6080604052348015600f57600080fd5b5060405161025a38038061025a833981016040819052602c916053565b600180546001600160a01b0319166001600160a01b03929092169190911781556000556081565b600060208284031215606457600080fd5b81516001600160a01b0381168114607a57600080fd5b9392505050565b6101ca806100906000396000f3fe608060405234801561001057600080fd5b50600436106100365760003560e01c80632a1afcd91461003b57806360fe47b114610056575b600080fd5b61004460005481565b60405190815260200160405180910390f35b61006961006436600461012d565b61006b565b005b60008181556040516024810183905260440160408051601f198184030181529181526020820180517bffffffffffffffffffffffffffffffffffffffffffffffffffffffff167f60fe47b100000000000000000000000000000000000000000000000000000000179052600154905191925073ffffffffffffffffffffffffffffffffffffffff16907fcac03685d5ba4ab3e1465a8ee1b2bb21094ddbd612a969fd34f93a5be7a0ac4f90610121908490610146565b60405180910390a25050565b60006020828403121561013f57600080fd5b5035919050565b602081526000825180602084015260005b818110156101745760208186018101516040868401015201610157565b506000604082850101526040601f19601f8301168401019150509291505056fea2646970667358221220fefe07adab3275d02ae4ff397db3173677461074a546db6a9eb190f79101a5da64736f6c634300081b0033",
  "linkReferences": {},
  "deployedLinkReferences": {}
}