{
  "_format": "hh-sol-artifact-1",
  "contractName": "SimpleToken",
  "sourceName": "contracts/domains/componenttest/SimpleToken.sol",
  "abi": [
    {
      "inputs": [],
      "stateMutability": "nonpayable",
      "type": "constructor"
    },
    {
      "inputs": [
        {
          "internalType": "address",
          "name": "sender",
          "type": "address"
        }
      ],
      "name": "BadNotary",
      "type": "error"
    },
    {
      "anonymous": false,
      "inputs": [
        {
          "indexed": false,
          "internalType": "bytes32",
          "name": "txId",
          "type": "bytes32"
        },
        {
          "indexed": false,
          "internalType": "bytes32[]",
          "name": "inputs",
          "type": "bytes32[]"
        },
        {
          "indexed": false,
          "internalType": "bytes32[]",
          "name": "outputs",
          "type": "bytes32[]"
        },
        {
          "indexed": false,
          "internalType": "bytes",
          "name": "signature",
          "type": "bytes"
        }
      ],
      "name": "UTXOTransfer",
      "type": "event"
    },
    {
      "inputs": [],
      "name": "SINGLE_FUNCTION_SELECTOR",
      "outputs": [
        {
          "internalType": "bytes32",
          "name": "",
          "type": "bytes32"
        }
      ],
      "stateMutability": "view",
      "type": "function"
    },
    {
      "inputs": [
        {
          "internalType": "bytes32",
          "name": "txId",
          "type": "bytes32"
        },
        {
          "internalType": "bytes32[]",
          "name": "inputs",
          "type": "bytes32[]"
        },
        {
          "internalType": "bytes32[]",
          "name": "outputs",
          "type": "bytes32[]"
        },
        {
          "internalType": "bytes",
          "name": "signature",
          "type": "bytes"
        }
      ],
      "name": "executeNotarized",
      "outputs": [],
      "stateMutability": "nonpayable",
      "type": "function"
    },
    {
      "inputs": [
        {
          "internalType": "bytes32",
          "name": "txId",
          "type": "bytes32"
        },
        {
          "internalType": "bytes32",
          "name": "fnSelector",
          "type": "bytes32"
        },
        {
          "internalType": "bytes",
          "name": "payload",
          "type": "bytes"
        }
      ],
      "name": "paladinExecute_V0",
      "outputs": [],
      "stateMutability": "nonpayable",
      "type": "function"
    }
  ],
  "bytecode": "0x6080604052348015600f57600080fd5b506106228061001f6000396000f3fe608060405234801561001057600080fd5b50600436106100415760003560e01c8063794e159c14610046578063b12417b31461007f578063ffd41d8714610094575b600080fd5b61006d7f3d72c71b534bbb24ed4e33452f64db213ab94c6a86fa162d43b86de5e56044de81565b60405190815260200160405180910390f35b61009261008d366004610237565b6100a7565b005b6100926100a23660046102e7565b610110565b7fd8fb8dba29305d26bb4b8d0be7b5e3e815f2e4d214160b4c332369235ad1f9d1878787878787876040516020016100e092919061033a565b60408051601f19818403018152908290526100ff9695949392916103db565b60405180910390a150505050505050565b7f3d72c71b534bbb24ed4e33452f64db213ab94c6a86fa162d43b86de5e56044de831461013f5761013f610429565b6000808061014f848601866104f4565b9250925092507fd8fb8dba29305d26bb4b8d0be7b5e3e815f2e4d214160b4c332369235ad1f9d18783838660405160200161018c91815260200190565b60408051601f19818403018152908290526100ff949392916105a2565b60008083601f8401126101bb57600080fd5b50813567ffffffffffffffff8111156101d357600080fd5b6020830191508360208260051b85010111156101ee57600080fd5b9250929050565b60008083601f84011261020757600080fd5b50813567ffffffffffffffff81111561021f57600080fd5b6020830191508360208285010111156101ee57600080fd5b60008060008060008060006080888a03121561025257600080fd5b87359650602088013567ffffffffffffffff81111561027057600080fd5b61027c8a828b016101a9565b909750955050604088013567ffffffffffffffff81111561029c57600080fd5b6102a88a828b016101a9565b909550935050606088013567ffffffffffffffff8111156102c857600080fd5b6102d48a828b016101f5565b989b979a50959850939692959293505050565b600080600080606085870312156102fd57600080fd5b8435935060208501359250604085013567ffffffffffffffff81111561032257600080fd5b61032e878288016101f5565b95989497509550505050565b8183823760009101908152919050565b81835260007f07ffffffffffffffffffffffffffffffffffffffffffffffffffffffffffffff83111561037c57600080fd5b8260051b80836020870137939093016020019392505050565b6000815180845260005b818110156103bb5760208185018101518683018201520161039f565b506000602082860101526020601f19601f83011685010191505092915050565b8681526080602082015260006103f560808301878961034a565b828103604084015261040881868861034a565b9050828103606084015261041c8185610395565b9998505050505050505050565b634e487b7160e01b600052600160045260246000fd5b634e487b7160e01b600052604160045260246000fd5b600082601f83011261046657600080fd5b813567ffffffffffffffff8111156104805761048061043f565b8060051b604051601f19603f830116810181811067ffffffffffffffff821117156104ad576104ad61043f565b6040529182526020818501810192908101868411156104cb57600080fd5b6020860192505b838310156104ea5782358152602092830192016104d2565b5095945050505050565b60008060006060848603121561050957600080fd5b83359250602084013567ffffffffffffffff81111561052757600080fd5b61053386828701610455565b925050604084013567ffffffffffffffff81111561055057600080fd5b61055c86828701610455565b9150509250925092565b600081518084526020840193506020830160005b8281101561059857815186526020958601959091019060010161057a565b5093949350505050565b8481526080602082015260006105bb6080830186610566565b82810360408401526105cd8186610566565b905082810360608401526105e18185610395565b97965050505050505056fea2646970667358221220239ac9fad8ed0429a9a0248761b4100dda3990546e8a7d10556076eeb5cb8f3e64736f6c634300081b0033",
  "linkReferences": {},
  "deployedLinkReferences": {}
}