{
  "_format": "hh-sol-artifact-1",
  "contractName": "Swap",
  "sourceName": "contracts/private/Swap.sol",
  "abi": [
    {
      "inputs": [
        {
          "components": [
            {
              "internalType": "address",
              "name": "holder1",
              "type": "address"
            },
            {
              "internalType": "address",
              "name": "holder2",
              "type": "address"
            },
            {
              "internalType": "address",
              "name": "tokenAddress1",
              "type": "address"
            },
            {
              "internalType": "address",
              "name": "tokenAddress2",
              "type": "address"
            },
            {
              "internalType": "uint256",
              "name": "tokenValue1",
              "type": "uint256"
            },
            {
              "internalType": "uint256",
              "name": "tokenValue2",
              "type": "uint256"
            },
            {
              "internalType": "string",
              "name": "tradeData1",
              "type": "string"
            },
            {
              "internalType": "string",
              "name": "tradeData2",
              "type": "string"
            }
          ],
          "internalType": "struct Swap.TradeRequestInput",
          "name": "inputData",
          "type": "tuple"
        }
      ],
      "stateMutability": "nonpayable",
      "type": "constructor"
    },
    {
      "anonymous": false,
      "inputs": [
        {
          "indexed": true,
          "internalType": "address",
          "name": "sender",
          "type": "address"
        }
      ],
      "name": "TradeCancelled",
      "type": "event"
    },
    {
      "anonymous": false,
      "inputs": [
        {
          "indexed": true,
          "internalType": "address",
          "name": "sender",
          "type": "address"
        }
      ],
      "name": "TradeExecuted",
      "type": "event"
    },
    {
      "anonymous": false,
      "inputs": [
        {
          "indexed": true,
          "internalType": "address",
          "name": "sender",
          "type": "address"
        }
      ],
      "name": "TradePrepared",
      "type": "event"
    },
    {
      "anonymous": false,
      "inputs": [
        {
          "indexed": true,
          "internalType": "address",
          "name": "operator",
          "type": "address"
        },
        {
          "indexed": true,
          "internalType": "address",
          "name": "holder1",
          "type": "address"
        },
        {
          "indexed": true,
          "internalType": "address",
          "name": "holder2",
          "type": "address"
        }
      ],
      "name": "TradeRequested",
      "type": "event"
    },
    {
      "inputs": [],
      "name": "cancel",
      "outputs": [],
      "stateMutability": "nonpayable",
      "type": "function"
    },
    {
      "inputs": [],
      "name": "execute",
      "outputs": [],
      "stateMutability": "nonpayable",
      "type": "function"
    },
    {
      "inputs": [
        {
          "components": [
            {
              "components": [
                {
                  "internalType": "bytes",
                  "name": "id",
                  "type": "bytes"
                },
                {
                  "internalType": "string",
                  "name": "domain",
                  "type": "string"
                },
                {
                  "internalType": "bytes32",
                  "name": "schema",
                  "type": "bytes32"
                },
                {
                  "internalType": "address",
                  "name": "contractAddress",
                  "type": "address"
                },
                {
                  "internalType": "bytes",
                  "name": "data",
                  "type": "bytes"
                }
              ],
              "internalType": "struct Swap.StateEncoded[]",
              "name": "inputs",
              "type": "tuple[]"
            },
            {
              "components": [
                {
                  "internalType": "bytes",
                  "name": "id",
                  "type": "bytes"
                },
                {
                  "internalType": "string",
                  "name": "domain",
                  "type": "string"
                },
                {
                  "internalType": "bytes32",
                  "name": "schema",
                  "type": "bytes32"
                },
                {
                  "internalType": "address",
                  "name": "contractAddress",
                  "type": "address"
                },
                {
                  "internalType": "bytes",
                  "name": "data",
                  "type": "bytes"
                }
              ],
              "internalType": "struct Swap.StateEncoded[]",
              "name": "outputs",
              "type": "tuple[]"
            }
          ],
          "internalType": "struct Swap.StateData",
          "name": "states",
          "type": "tuple"
        }
      ],
      "name": "prepare",
      "outputs": [],
      "stateMutability": "nonpayable",
      "type": "function"
    },
    {
      "inputs": [],
      "name": "prepared",
      "outputs": [
        {
          "internalType": "bool",
          "name": "",
          "type": "bool"
        }
      ],
      "stateMutability": "view",
      "type": "function"
    },
    {
      "inputs": [],
      "name": "trade",
      "outputs": [
        {
          "internalType": "address",
          "name": "holder1",
          "type": "address"
        },
        {
          "internalType": "address",
          "name": "holder2",
          "type": "address"
        },
        {
          "components": [
            {
              "internalType": "address",
              "name": "tokenAddress",
              "type": "address"
            },
            {
              "internalType": "uint256",
              "name": "tokenValue",
              "type": "uint256"
            },
            {
              "components": [
                {
                  "components": [
                    {
                      "internalType": "bytes",
                      "name": "id",
                      "type": "bytes"
                    },
                    {
                      "internalType": "string",
                      "name": "domain",
                      "type": "string"
                    },
                    {
                      "internalType": "bytes32",
                      "name": "schema",
                      "type": "bytes32"
                    },
                    {
                      "internalType": "address",
                      "name": "contractAddress",
                      "type": "address"
                    },
                    {
                      "internalType": "bytes",
                      "name": "data",
                      "type": "bytes"
                    }
                  ],
                  "internalType": "struct Swap.StateEncoded[]",
                  "name": "inputs",
                  "type": "tuple[]"
                },
                {
                  "components": [
                    {
                      "internalType": "bytes",
                      "name": "id",
                      "type": "bytes"
                    },
                    {
                      "internalType": "string",
                      "name": "domain",
                      "type": "string"
                    },
                    {
                      "internalType": "bytes32",
                      "name": "schema",
                      "type": "bytes32"
                    },
                    {
                      "internalType": "address",
                      "name": "contractAddress",
                      "type": "address"
                    },
                    {
                      "internalType": "bytes",
                      "name": "data",
                      "type": "bytes"
                    }
                  ],
                  "internalType": "struct Swap.StateEncoded[]",
                  "name": "outputs",
                  "type": "tuple[]"
                }
              ],
              "internalType": "struct Swap.StateData",
              "name": "states",
              "type": "tuple"
            },
            {
              "internalType": "bool",
              "name": "prepared",
              "type": "bool"
            },
            {
              "internalType": "string",
              "name": "data",
              "type": "string"
            }
          ],
          "internalType": "struct Swap.UserTradeData",
          "name": "userTradeData1",
          "type": "tuple"
        },
        {
          "components": [
            {
              "internalType": "address",
              "name": "tokenAddress",
              "type": "address"
            },
            {
              "internalType": "uint256",
              "name": "tokenValue",
              "type": "uint256"
            },
            {
              "components": [
                {
                  "components": [
                    {
                      "internalType": "bytes",
                      "name": "id",
                      "type": "bytes"
                    },
                    {
                      "internalType": "string",
                      "name": "domain",
                      "type": "string"
                    },
                    {
                      "internalType": "bytes32",
                      "name": "schema",
                      "type": "bytes32"
                    },
                    {
                      "internalType": "address",
                      "name": "contractAddress",
                      "type": "address"
                    },
                    {
                      "internalType": "bytes",
                      "name": "data",
                      "type": "bytes"
                    }
                  ],
                  "internalType": "struct Swap.StateEncoded[]",
                  "name": "inputs",
                  "type": "tuple[]"
                },
                {
                  "components": [
                    {
                      "internalType": "bytes",
                      "name": "id",
                      "type": "bytes"
                    },
                    {
                      "internalType": "string",
                      "name": "domain",
                      "type": "string"
                    },
                    {
                      "internalType": "bytes32",
                      "name": "schema",
                      "type": "bytes32"
                    },
                    {
                      "internalType": "address",
                      "name": "contractAddress",
                      "type": "address"
                    },
                    {
                      "internalType": "bytes",
                      "name": "data",
                      "type": "bytes"
                    }
                  ],
                  "internalType": "struct Swap.StateEncoded[]",
                  "name": "outputs",
                  "type": "tuple[]"
                }
              ],
              "internalType": "struct Swap.StateData",
              "name": "states",
              "type": "tuple"
            },
            {
              "internalType": "bool",
              "name": "prepared",
              "type": "bool"
            },
            {
              "internalType": "string",
              "name": "data",
              "type": "string"
            }
          ],
          "internalType": "struct Swap.UserTradeData",
          "name": "userTradeData2",
          "type": "tuple"
        },
        {
          "internalType": "enum Swap.State",
          "name": "state",
          "type": "uint8"
        }
      ],
      "stateMutability": "view",
      "type": "function"
    }
  ],
  "bytecode": "0x608060405234801561001057600080fd5b50604051611bf5380380611bf583398101604081905261002f916101f1565b8051600080546001600160a01b039283166001600160a01b031991821617909155602083015160018054918416918316919091179055604083015160028054919093169116179055608081015160035560c0810151600790610091908261036d565b506060810151600880546001600160a01b0319166001600160a01b0390921691909117905560a081015160095560e0810151600d906100d0908261036d565b5050600e805460ff1916905561042b565b634e487b7160e01b600052604160045260246000fd5b60405161010081016001600160401b038111828210171561011a5761011a6100e1565b60405290565b604051601f8201601f191681016001600160401b0381118282101715610148576101486100e1565b604052919050565b80516001600160a01b038116811461016757600080fd5b919050565b600082601f83011261017d57600080fd5b81516001600160401b03811115610196576101966100e1565b6101a9601f8201601f1916602001610120565b8181528460208386010111156101be57600080fd5b60005b828110156101dd576020818601810151838301820152016101c1565b506000918101602001919091529392505050565b60006020828403121561020357600080fd5b81516001600160401b0381111561021957600080fd5b8201610100818503121561022c57600080fd5b6102346100f7565b61023d82610150565b815261024b60208301610150565b602082015261025c60408301610150565b604082015261026d60608301610150565b60608201526080828101519082015260a0808301519082015260c08201516001600160401b0381111561029f57600080fd5b6102ab8682850161016c565b60c08301525060e08201516001600160401b038111156102ca57600080fd5b6102d68682850161016c565b60e083015250949350505050565b600181811c908216806102f857607f821691505b60208210810361031857634e487b7160e01b600052602260045260246000fd5b50919050565b601f82111561036857806000526020600020601f840160051c810160208510156103455750805b601f840160051c820191505b818110156103655760008155600101610351565b50505b505050565b81516001600160401b03811115610386576103866100e1565b61039a8161039484546102e4565b8461031e565b6020601f8211600181146103ce57600083156103b65750848201515b600019600385901b1c1916600184901b178455610365565b600084815260208120601f198516915b828110156103fe57878501518255602094850194600190920191016103de565b508482101561041c5786840151600019600387901b60f8161c191681555b50505050600190811b01905550565b6117bb8061043a6000396000f3fe608060405234801561001057600080fd5b50600436106100675760003560e01c8063614619541161005057806361461954146100a35780638092db55146100ab578063ea8a1af0146100c357600080fd5b80630ce152aa1461006c5780631f0ba6c914610081575b600080fd5b61007f61007a366004610eb7565b6100cb565b005b6100896102b2565b60405161009a9594939291906110a0565b60405180910390f35b61007f610d5b565b6100b3610dfb565b604051901515815260200161009a565b61007f610e17565b6000600e5460ff1660028111156100e4576100e461108a565b146101365760405162461bcd60e51b815260206004820152601460248201527f5472616465206973206e6f742070656e64696e6700000000000000000000000060448201526064015b60405180910390fd5b6000546001600160a01b031633036101bd5760065460ff161561019b5760405162461bcd60e51b815260206004820152601f60248201527f54726164652068617320616c7265616479206265656e20707265706172656400604482015260640161012d565b6006805460ff191660011790558060046101b5828261164c565b905050610284565b6001546001600160a01b0316330361023c57600c5460ff16156102225760405162461bcd60e51b815260206004820152601f60248201527f54726164652068617320616c7265616479206265656e20707265706172656400604482015260640161012d565b600c805460ff1916600117905580600a6101b5828261164c565b60405162461bcd60e51b815260206004820152600e60248201527f496e76616c696420686f6c646572000000000000000000000000000000000000604482015260640161012d565b60405133907fa81f289d7382f23fa191ba95b5fdcf0dd13c7c5e800184605d7418adc3b9644690600090a250565b600080546001546040805160a081018252600280546001600160a01b03908116835260035460208085019190915284516004805460609381028301840188528288018181529985169a989094169895969495948701949193909284929184918a9085015b8282101561051f57838290600052602060002090600502016040518060a0016040529081600082018054610349906111c4565b80601f0160208091040260200160405190810160405280929190818152602001828054610375906111c4565b80156103c25780601f10610397576101008083540402835291602001916103c2565b820191906000526020600020905b8154815290600101906020018083116103a557829003601f168201915b505050505081526020016001820180546103db906111c4565b80601f0160208091040260200160405190810160405280929190818152602001828054610407906111c4565b80156104545780601f1061042957610100808354040283529160200191610454565b820191906000526020600020905b81548152906001019060200180831161043757829003601f168201915b50505091835250506002820154602082015260038201546001600160a01b0316604082015260048201805460609092019161048e906111c4565b80601f01602080910402602001604051908101604052809291908181526020018280546104ba906111c4565b80156105075780601f106104dc57610100808354040283529160200191610507565b820191906000526020600020905b8154815290600101906020018083116104ea57829003601f168201915b50505050508152505081526020019060010190610316565b50505050815260200160018201805480602002602001604051908101604052809291908181526020016000905b8282101561075557838290600052602060002090600502016040518060a001604052908160008201805461057f906111c4565b80601f01602080910402602001604051908101604052809291908181526020018280546105ab906111c4565b80156105f85780601f106105cd576101008083540402835291602001916105f8565b820191906000526020600020905b8154815290600101906020018083116105db57829003601f168201915b50505050508152602001600182018054610611906111c4565b80601f016020809104026020016040519081016040528092919081815260200182805461063d906111c4565b801561068a5780601f1061065f5761010080835404028352916020019161068a565b820191906000526020600020905b81548152906001019060200180831161066d57829003601f168201915b50505091835250506002820154602082015260038201546001600160a01b031660408201526004820180546060909201916106c4906111c4565b80601f01602080910402602001604051908101604052809291908181526020018280546106f0906111c4565b801561073d5780601f106107125761010080835404028352916020019161073d565b820191906000526020600020905b81548152906001019060200180831161072057829003601f168201915b5050505050815250508152602001906001019061054c565b505050915250508152600482015460ff1615156020820152600582018054604090920191610782906111c4565b80601f01602080910402602001604051908101604052809291908181526020018280546107ae906111c4565b80156107fb5780601f106107d0576101008083540402835291602001916107fb565b820191906000526020600020905b8154815290600101906020018083116107de57829003601f168201915b5050509190925250506040805160a0810182526008850180546001600160a01b0316825260098601546020808401919091528351600a880180546060938102830184018752828701818152989998959750939587019491939092849291849160009085015b82821015610a6957838290600052602060002090600502016040518060a0016040529081600082018054610893906111c4565b80601f01602080910402602001604051908101604052809291908181526020018280546108bf906111c4565b801561090c5780601f106108e15761010080835404028352916020019161090c565b820191906000526020600020905b8154815290600101906020018083116108ef57829003601f168201915b50505050508152602001600182018054610925906111c4565b80601f0160208091040260200160405190810160405280929190818152602001828054610951906111c4565b801561099e5780601f106109735761010080835404028352916020019161099e565b820191906000526020600020905b81548152906001019060200180831161098157829003601f168201915b50505091835250506002820154602082015260038201546001600160a01b031660408201526004820180546060909201916109d8906111c4565b80601f0160208091040260200160405190810160405280929190818152602001828054610a04906111c4565b8015610a515780601f10610a2657610100808354040283529160200191610a51565b820191906000526020600020905b815481529060010190602001808311610a3457829003601f168201915b50505050508152505081526020019060010190610860565b50505050815260200160018201805480602002602001604051908101604052809291908181526020016000905b82821015610c9f57838290600052602060002090600502016040518060a0016040529081600082018054610ac9906111c4565b80601f0160208091040260200160405190810160405280929190818152602001828054610af5906111c4565b8015610b425780601f10610b1757610100808354040283529160200191610b42565b820191906000526020600020905b815481529060010190602001808311610b2557829003601f168201915b50505050508152602001600182018054610b5b906111c4565b80601f0160208091040260200160405190810160405280929190818152602001828054610b87906111c4565b8015610bd45780601f10610ba957610100808354040283529160200191610bd4565b820191906000526020600020905b815481529060010190602001808311610bb757829003601f168201915b50505091835250506002820154602082015260038201546001600160a01b03166040820152600482018054606090920191610c0e906111c4565b80601f0160208091040260200160405190810160405280929190818152602001828054610c3a906111c4565b8015610c875780601f10610c5c57610100808354040283529160200191610c87565b820191906000526020600020905b815481529060010190602001808311610c6a57829003601f168201915b50505050508152505081526020019060010190610a96565b505050915250508152600482015460ff1615156020820152600582018054604090920191610ccc906111c4565b80601f0160208091040260200160405190810160405280929190818152602001828054610cf8906111c4565b8015610d455780601f10610d1a57610100808354040283529160200191610d45565b820191906000526020600020905b815481529060010190602001808311610d2857829003601f168201915b50505091909252505050600e9091015460ff1685565b6000600e5460ff166002811115610d7457610d7461108a565b14610dc15760405162461bcd60e51b815260206004820152601460248201527f5472616465206973206e6f742070656e64696e67000000000000000000000000604482015260640161012d565b600e805460ff1916600117905560405133907f9afc18ef29745bcaa1dbe847f7b1272b52d12fd3d7527267750b6e4d821950b490600090a2565b60065460009060ff168015610e125750600c5460ff165b905090565b6000600e5460ff166002811115610e3057610e3061108a565b14610e7d5760405162461bcd60e51b815260206004820152601460248201527f5472616465206973206e6f742070656e64696e67000000000000000000000000604482015260640161012d565b600e805460ff1916600217905560405133907fbd9b0d8f9d224c898f55ec0a0cc63dbef10a9e2c719e7cf5e24e2daa01cc7f4590600090a2565b600060208284031215610ec957600080fd5b813567ffffffffffffffff811115610ee057600080fd5b820160408185031215610ef257600080fd5b9392505050565b6000815180845260005b81811015610f1f57602081850181015186830182015201610f03565b506000602082860101526020601f19601f83011685010191505092915050565b600082825180855260208501945060208160051b8301016020850160005b83811015610fed57601f198584030188528151805160a08552610f8360a0860182610ef9565b905060208201518582036020870152610f9c8282610ef9565b915050604082015160408601526001600160a01b036060830151166060860152608082015191508481036080860152610fd58183610ef9565b60209a8b019a90955093909301925050600101610f5d565b50909695505050505050565b6001600160a01b038151168252602081015160208301526000604082015160a060408501528051604060a086015261103460e0860182610f3f565b905060208201519150609f198582030160c08601526110538183610f3f565b9150506060830151611069606086018215159052565b50608083015184820360808601526110818282610ef9565b95945050505050565b634e487b7160e01b600052602160045260246000fd5b6001600160a01b03861681526001600160a01b038516602082015260a0604082015260006110d160a0830186610ff9565b82810360608401526110e38186610ff9565b9150506003831061110457634e487b7160e01b600052602160045260246000fd5b8260808301529695505050505050565b6000808335601e1984360301811261112b57600080fd5b83018035915067ffffffffffffffff82111561114657600080fd5b6020019150600581901b360382131561115e57600080fd5b9250929050565b60008235609e1983360301811261117b57600080fd5b9190910192915050565b634e487b7160e01b600052604160045260246000fd5b600580820290810482146111bf57634e487b7160e01b600052601160045260246000fd5b919050565b600181811c908216806111d857607f821691505b6020821081036111f857634e487b7160e01b600052602260045260246000fd5b50919050565b5b8181101561121357600081556001016111ff565b5050565b61122181546111c4565b801561121357601f81116001811461123b57505060009055565b600083815260209020611259601f840160051c8201600183016111fe565b5060008381526020812081855555505050565b505050565b6000808335601e1984360301811261128857600080fd5b83018035915067ffffffffffffffff8211156112a357600080fd5b60200191503681900382131561115e57600080fd5b601f82111561126c57806000526020600020601f840160051c810160208510156112df5750805b6112f1601f850160051c8301826111fe565b5050505050565b67ffffffffffffffff83111561131057611310611185565b6113248361131e83546111c4565b836112b8565b6000601f84116001811461135857600085156113405750838201355b600019600387901b1c1916600186901b1783556112f1565b600083815260209020601f19861690835b828110156113895786850135825560209485019460019092019101611369565b50868210156113a65760001960f88860031b161c19848701351681555b505060018560011b0183555050505050565b600081356001600160a01b03811681146113d157600080fd5b92915050565b6113e18283611271565b67ffffffffffffffff8111156113f9576113f9611185565b61140d8161140785546111c4565b856112b8565b6000601f82116001811461144157600083156114295750838201355b600019600385901b1c1916600184901b17855561149b565b600085815260209020601f19841690835b828110156114725786850135825560209485019460019092019101611452565b508482101561148f5760001960f88660031b161c19848701351681555b505060018360011b0185555b505050506114ac6020830183611271565b6114ba8183600186016112f8565b50506040820135600282015561150e6114d5606084016113b8565b600383016001600160a01b0382167fffffffffffffffffffffffff00000000000000000000000000000000000000008254161781555050565b61151b6080830183611271565b6115298183600486016112f8565b50505050565b6801000000000000000083111561154857611548611185565b8054838255808410156116065761155e8161119b565b6115678561119b565b60008481526020902091820191015b818110156116035761158781611217565b6001810161159581546111c4565b80156115df57601f8111600181146115b057600083556115dd565b6000838152602090206115ce601f840160051c8201600183016111fe565b50600083815260208120818555555b505b505060006002820155600060038201556115fb60048201611217565b600501611576565b50505b5060008181526020812083915b858110156116445761162e6116288487611165565b836113d7565b6020929092019160059190910190600101611613565b505050505050565b6116568283611114565b6801000000000000000081111561166f5761166f611185565b82548184558082101561172d576116858161119b565b61168e8361119b565b60008681526020902091820191015b8181101561172a576116ae81611217565b600181016116bc81546111c4565b801561170657601f8111600181146116d75760008355611704565b6000838152602090206116f5601f840160051c8201600183016111fe565b50600083815260208120818555555b505b5050600060028201556000600382015561172260048201611217565b60050161169d565b50505b5060008381526020812083915b838110156117655761174f6116288487611165565b602092909201916005919091019060010161173a565b50505050506117776020830183611114565b61152981836001860161152f56fea26469706673582212200675bbc850f6a9f3d28b82b91308d056ff05fbd8ee2c2ed4f43bbd819b69be5664736f6c634300081b0033",
  "linkReferences": {},
  "deployedLinkReferences": {}
}