{
  "_format": "hh-sol-artifact-1",
  "contractName": "TimestampTest",
  "sourceName": "contracts/testcontracts/TimestampTest.sol",
  "abi": [
    {
      "inputs": [],
      "stateMutability": "nonpayable",
      "type": "constructor"
    },
    {
      "inputs": [],
      "name": "MAX",
      "outputs": [
        {
          "internalType": "uint256",
          "name": "",
          "type": "uint256"
        }
      ],
      "stateMutability": "view",
      "type": "function"
    },
    {
      "inputs": [],
      "name": "MIN",
      "outputs": [
        {
          "internalType": "uint256",
          "name": "",
          "type": "uint256"
        }
      ],
      "stateMutability": "view",
      "type": "function"
    }
  ],
  "bytecode": "0x608060405263386d89d060005563f4869d50600155348015601f57600080fd5b50600054421160815760405162461bcd60e51b8152602060048201526024808201527f626c6f636b2e74696d657374616d70206973206265666f726520323030302d30604482015263312d303160e01b60648201526084015b60405180910390fd5b600154421060dc5760405162461bcd60e51b815260206004820152602360248201527f626c6f636b2e74696d657374616d7020697320616674657220323130302d30316044820152622d303160e81b60648201526084016078565b608f806100ea6000396000f3fe6080604052348015600f57600080fd5b506004361060325760003560e01c806337a7f2b7146037578063d49d5181146051575b600080fd5b603f60005481565b60405190815260200160405180910390f35b603f6001548156fea2646970667358221220ad9d422bd54e34f38226a022e6c284c807f77506a4e606efb161b1ee97dfc1ff64736f6c634300081b0033",
  "linkReferences": {},
  "deployedLinkReferences": {}
}