{
  "_format": "hh-sol-artifact-1",
  "contractName": "ZetoFactory",
  "sourceName": "contracts/domains/zeto/ZetoFactory.sol",
  "abi": [
    {
      "inputs": [],
      "name": "FailedDeployment",
      "type": "error"
    },
    {
      "inputs": [
        {
          "internalType": "uint256",
          "name": "balance",
          "type": "uint256"
        },
        {
          "internalType": "uint256",
          "name": "needed",
          "type": "uint256"
        }
      ],
      "name": "InsufficientBalance",
      "type": "error"
    },
    {
      "inputs": [
        {
          "internalType": "address",
          "name": "owner",
          "type": "address"
        }
      ],
      "name": "OwnableInvalidOwner",
      "type": "error"
    },
    {
      "inputs": [
        {
          "internalType": "address",
          "name": "account",
          "type": "address"
        }
      ],
      "name": "OwnableUnauthorizedAccount",
      "type": "error"
    },
    {
      "anonymous": false,
      "inputs": [
        {
          "indexed": true,
          "internalType": "address",
          "name": "previousOwner",
          "type": "address"
        },
        {
          "indexed": true,
          "internalType": "address",
          "name": "newOwner",
          "type": "address"
        }
      ],
      "name": "OwnershipTransferred",
      "type": "event"
    },
    {
      "anonymous": false,
      "inputs": [
        {
          "indexed": true,
          "internalType": "bytes32",
          "name": "txId",
          "type": "bytes32"
        },
        {
          "indexed": true,
          "internalType": "address",
          "name": "instance",
          "type": "address"
        },
        {
          "indexed": false,
          "internalType": "bytes",
          "name": "config",
          "type": "bytes"
        }
      ],
      "name": "PaladinRegisterSmartContract_V0",
      "type": "event"
    },
    {
      "anonymous": false,
      "inputs": [
        {
          "indexed": true,
          "internalType": "address",
          "name": "zetoToken",
          "type": "address"
        }
      ],
      "name": "ZetoTokenDeployed",
      "type": "event"
    },
    {
      "inputs": [
        {
          "internalType": "bytes32",
          "name": "transactionId",
          "type": "bytes32"
        },
        {
          "internalType": "string",
          "name": "tokenName",
          "type": "string"
        },
        {
          "internalType": "string",
          "name": "name",
          "type": "string"
        },
        {
          "internalType": "string",
          "name": "symbol",
          "type": "string"
        },
        {
          "internalType": "address",
          "name": "initialOwner",
          "type": "address"
        },
        {
          "internalType": "bytes",
          "name": "data",
          "type": "bytes"
        }
      ],
      "name": "deploy",
      "outputs": [],
      "stateMutability": "nonpayable",
      "type": "function"
    },
    {
      "inputs": [
        {
          "internalType": "bytes32",
          "name": "transactionId",
          "type": "bytes32"
        },
        {
          "internalType": "string",
          "name": "tokenName",
          "type": "string"
        },
        {
          "internalType": "string",
          "name": "name",
          "type": "string"
        },
        {
          "internalType": "string",
          "name": "symbol",
          "type": "string"
        },
        {
          "internalType": "address",
          "name": "initialOwner",
          "type": "address"
        },
        {
          "internalType": "bytes",
          "name": "data",
          "type": "bytes"
        },
        {
          "internalType": "bool",
          "name": "isNonFungible",
          "type": "bool"
        }
      ],
      "name": "deploy",
      "outputs": [],
      "stateMutability": "nonpayable",
      "type": "function"
    },
    {
      "inputs": [
        {
          "internalType": "string",
          "name": "name",
          "type": "string"
        },
        {
          "internalType": "string",
          "name": "symbol",
          "type": "string"
        },
        {
          "internalType": "string",
          "name": "tokenImplementation",
          "type": "string"
        },
        {
          "internalType": "address",
          "name": "initialOwner",
          "type": "address"
        }
      ],
      "name": "deployZetoFungibleToken",
      "outputs": [
        {
          "internalType": "address",
          "name": "",
          "type": "address"
        }
      ],
      "stateMutability": "nonpayable",
      "type": "function"
    },
    {
      "inputs": [
        {
          "internalType": "string",
          "name": "name",
          "type": "string"
        },
        {
          "internalType": "string",
          "name": "symbol",
          "type": "string"
        },
        {
          "internalType": "string",
          "name": "tokenImplementation",
          "type": "string"
        },
        {
          "internalType": "address",
          "name": "initialOwner",
          "type": "address"
        }
      ],
      "name": "deployZetoNonFungibleToken",
      "outputs": [
        {
          "internalType": "address",
          "name": "",
          "type": "address"
        }
      ],
      "stateMutability": "nonpayable",
      "type": "function"
    },
    {
      "inputs": [],
      "name": "owner",
      "outputs": [
        {
          "internalType": "address",
          "name": "",
          "type": "address"
        }
      ],
      "stateMutability": "view",
      "type": "function"
    },
    {
      "inputs": [
        {
          "internalType": "string",
          "name": "name",
          "type": "string"
        },
        {
          "components": [
            {
              "internalType": "address",
              "name": "implementation",
              "type": "address"
            },
            {
              "components": [
                {
                  "internalType": "address",
                  "name": "verifier",
                  "type": "address"
                },
                {
                  "internalType": "address",
                  "name": "depositVerifier",
                  "type": "address"
                },
                {
                  "internalType": "address",
                  "name": "withdrawVerifier",
                  "type": "address"
                },
                {
                  "internalType": "address",
                  "name": "lockVerifier",
                  "type": "address"
                },
                {
                  "internalType": "address",
                  "name": "burnVerifier",
                  "type": "address"
                },
                {
                  "internalType": "address",
                  "name": "batchVerifier",
                  "type": "address"
                },
                {
                  "internalType": "address",
                  "name": "batchWithdrawVerifier",
                  "type": "address"
                },
                {
                  "internalType": "address",
                  "name": "batchLockVerifier",
                  "type": "address"
                },
                {
                  "internalType": "address",
                  "name": "batchBurnVerifier",
                  "type": "address"
                }
              ],
              "internalType": "struct IZetoInitializable.VerifiersInfo",
              "name": "verifiers",
              "type": "tuple"
            }
          ],
          "internalType": "struct ZetoTokenFactory.ImplementationInfo",
          "name": "implementation",
          "type": "tuple"
        }
      ],
      "name": "registerImplementation",
      "outputs": [],
      "stateMutability": "nonpayable",
      "type": "function"
    },
    {
      "inputs": [],
      "name": "renounceOwnership",
      "outputs": [],
      "stateMutability": "nonpayable",
      "type": "function"
    },
    {
      "inputs": [
        {
          "internalType": "address",
          "name": "newOwner",
          "type": "address"
        }
      ],
      "name": "transferOwnership",
      "outputs": [],
      "stateMutability": "nonpayable",
      "type": "function"
    }
  ],
  "bytecode": "0x6080604052348015600f57600080fd5b503380603557604051631e4fbdf760e01b81526000600482015260240160405180910390fd5b603c816041565b506091565b600080546001600160a01b038381166001600160a01b0319831681178455604051919092169283917f8be0079c531659141344cd1fd0a4f28419497f9722a3daafe3b4186f6b6457e09190a35050565b6112e4806100a06000396000f3fe608060405234801561001057600080fd5b50600436106100885760003560e01c8063715018a61161005b578063715018a6146100f75780638da5cb5b146100ff578063be17954b14610110578063f2fde38b1461012357600080fd5b806305c98c831461008d578063180dd117146100a25780633924a044146100d1578063653bf99c146100e4575b600080fd5b6100a061009b366004610ceb565b610136565b005b6100b56100b0366004610dc4565b6101b9565b6040516001600160a01b03909116815260200160405180910390f35b6100a06100df366004610e69565b61062d565b6100a06100f2366004610fa6565b610849565b6100a06108bf565b6000546001600160a01b03166100b5565b6100b561011e366004610dc4565b6108d3565b6100a0610131366004611091565b6109e8565b6040517f653bf99c000000000000000000000000000000000000000000000000000000008152309063653bf99c9061017f90899089908990899089908990600090600401611103565b600060405180830381600087803b15801561019957600080fd5b505af11580156101ad573d6000803e3d6000fd5b50505050505050505050565b6000806001846040516101cc919061117c565b9081526040805160209281900383018120818301835280546001600160a01b039081168352835161012081018552600183015482168152600283015482168187015260038301548216948101949094526004820154811660608501526005820154811660808501526006820154811660a08501526007820154811660c08501526008820154811660e08501526009909101548116610100840152928101919091528051909250166102d35760405162461bcd60e51b815260206004820152602660248201527f466163746f72793a206661696c656420746f2066696e6420696d706c656d656e6044820152653a30ba34b7b760d11b60648201526084015b60405180910390fd5b60208082015101516001600160a01b03166103565760405162461bcd60e51b815260206004820152602c60248201527f466163746f72793a206465706f7369745665726966696572206164647265737360448201527f206973207265717569726564000000000000000000000000000000000000000060648201526084016102ca565b6020810151604001516001600160a01b03166103da5760405162461bcd60e51b815260206004820152602d60248201527f466163746f72793a20776974686472617756657269666965722061646472657360448201527f732069732072657175697265640000000000000000000000000000000000000060648201526084016102ca565b602081015160a001516001600160a01b031661045e5760405162461bcd60e51b815260206004820152602a60248201527f466163746f72793a20626174636856657269666965722061646472657373206960448201527f732072657175697265640000000000000000000000000000000000000000000060648201526084016102ca565b602081015160c001516001600160a01b03166104e25760405162461bcd60e51b815260206004820152603260248201527f466163746f72793a20626174636857697468647261775665726966696572206160448201527f646472657373206973207265717569726564000000000000000000000000000060648201526084016102ca565b60006104f18260000151610a3f565b90506001600160a01b03811661056f5760405162461bcd60e51b815260206004820152602760248201527f466163746f72793a206661696c656420746f20636c6f6e6520696d706c656d6560448201527f6e746174696f6e0000000000000000000000000000000000000000000000000060648201526084016102ca565b60208201516040517ff586acdb0000000000000000000000000000000000000000000000000000000081526001600160a01b0383169163f586acdb916105bd918b918b918a91600401611198565b600060405180830381600087803b1580156105d757600080fd5b505af11580156105eb573d6000803e3d6000fd5b50506040516001600160a01b03841692507f61a122822c33eb587240ac03c263df8e525c975793c9d3118d54888abdb036279150600090a29695505050505050565b610635610a52565b80516001600160a01b03166106b25760405162461bcd60e51b815260206004820152602b60248201527f466163746f72793a20696d706c656d656e746174696f6e20616464726573732060448201527f697320726571756972656400000000000000000000000000000000000000000060648201526084016102ca565b6020810151516001600160a01b03166107335760405162461bcd60e51b815260206004820152602560248201527f466163746f72793a20766572696669657220616464726573732069732072657160448201527f756972656400000000000000000000000000000000000000000000000000000060648201526084016102ca565b80600183604051610744919061117c565b90815260408051602092819003830190208351815473ffffffffffffffffffffffffffffffffffffffff199081166001600160a01b039283161783559484015180516001840180548816918416919091179055938401516002830180548716918316919091179055918301516003820180548616918416919091179055606083015160048201805486169184169190911790556080830151600582018054861691841691909117905560a0830151600682018054861691841691909117905560c0830151600782018054861691841691909117905560e08301516008820180548616918416919091179055610100909201516009909201805490931691161790555050565b600081156108645761085d868689876108d3565b9050610873565b610870868689876101b9565b90505b806001600160a01b0316887fd77f43af9eba6f7c0ea72f4bad6bc58c3bd49e2cb299e128c91293b7ebc17f43856040516108ad919061129b565b60405180910390a35050505050505050565b6108c7610a52565b6108d16000610a98565b565b6000806001846040516108e6919061117c565b9081526040805160209281900383018120818301835280546001600160a01b039081168352835161012081018552600183015482168152600283015482168187015260038301548216948101949094526004820154811660608501526005820154811660808501526006820154811660a08501526007820154811660c08501526008820154811660e08501526009909101548116610100840152928101919091528051909250166104e25760405162461bcd60e51b815260206004820152602660248201527f466163746f72793a206661696c656420746f2066696e6420696d706c656d656e6044820152653a30ba34b7b760d11b60648201526084016102ca565b6109f0610a52565b6001600160a01b038116610a33576040517f1e4fbdf7000000000000000000000000000000000000000000000000000000008152600060048201526024016102ca565b610a3c81610a98565b50565b6000610a4c826000610af5565b92915050565b6000546001600160a01b031633146108d1576040517f118cdaa70000000000000000000000000000000000000000000000000000000081523360048201526024016102ca565b600080546001600160a01b0383811673ffffffffffffffffffffffffffffffffffffffff19831681178455604051919092169283917f8be0079c531659141344cd1fd0a4f28419497f9722a3daafe3b4186f6b6457e09190a35050565b600081471015610b3a576040517fcf479181000000000000000000000000000000000000000000000000000000008152476004820152602481018390526044016102ca565b763d602d80600a3d3981f3363d3d373d3d3d363d730000008360601b60e81c176000526e5af43d82803e903d91602b57fd5bf38360781b176020526037600983f090506001600160a01b038116610a4c576040517fb06ebf3d00000000000000000000000000000000000000000000000000000000815260040160405180910390fd5b7f4e487b7100000000000000000000000000000000000000000000000000000000600052604160045260246000fd5b6040805190810167ffffffffffffffff81118282101715610c0f57610c0f610bbd565b60405290565b604051610120810167ffffffffffffffff81118282101715610c0f57610c0f610bbd565b600082601f830112610c4a57600080fd5b81356020830160008067ffffffffffffffff841115610c6b57610c6b610bbd565b50604051601f19601f85018116603f0116810181811067ffffffffffffffff82111715610c9a57610c9a610bbd565b604052838152905080828401871015610cb257600080fd5b838360208301376000602085830101528094505050505092915050565b80356001600160a01b0381168114610ce657600080fd5b919050565b60008060008060008060c08789031215610d0457600080fd5b86359550602087013567ffffffffffffffff811115610d2257600080fd5b610d2e89828a01610c39565b955050604087013567ffffffffffffffff811115610d4b57600080fd5b610d5789828a01610c39565b945050606087013567ffffffffffffffff811115610d7457600080fd5b610d8089828a01610c39565b935050610d8f60808801610ccf565b915060a087013567ffffffffffffffff811115610dab57600080fd5b610db789828a01610c39565b9150509295509295509295565b60008060008060808587031215610dda57600080fd5b843567ffffffffffffffff811115610df157600080fd5b610dfd87828801610c39565b945050602085013567ffffffffffffffff811115610e1a57600080fd5b610e2687828801610c39565b935050604085013567ffffffffffffffff811115610e4357600080fd5b610e4f87828801610c39565b925050610e5e60608601610ccf565b905092959194509250565b600080828403610160811215610e7e57600080fd5b833567ffffffffffffffff811115610e9557600080fd5b610ea186828701610c39565b935050610140601f1982011215610eb757600080fd5b610ebf610bec565b610ecb60208601610ccf565b8152610120603f1983011215610ee057600080fd5b610ee8610c15565b9150610ef660408601610ccf565b8252610f0460608601610ccf565b6020830152610f1560808601610ccf565b6040830152610f2660a08601610ccf565b6060830152610f3760c08601610ccf565b6080830152610f4860e08601610ccf565b60a0830152610f5a6101008601610ccf565b60c0830152610f6c6101208601610ccf565b60e0830152610f7e6101408601610ccf565b61010083015281602082015280925050509250929050565b80358015158114610ce657600080fd5b600080600080600080600060e0888a031215610fc157600080fd5b87359650602088013567ffffffffffffffff811115610fdf57600080fd5b610feb8a828b01610c39565b965050604088013567ffffffffffffffff81111561100857600080fd5b6110148a828b01610c39565b955050606088013567ffffffffffffffff81111561103157600080fd5b61103d8a828b01610c39565b94505061104c60808901610ccf565b925060a088013567ffffffffffffffff81111561106857600080fd5b6110748a828b01610c39565b92505061108360c08901610f96565b905092959891949750929550565b6000602082840312156110a357600080fd5b6110ac82610ccf565b9392505050565b60005b838110156110ce5781810151838201526020016110b6565b50506000910152565b600081518084526110ef8160208601602086016110b3565b601f01601f19169290920160200192915050565b87815260e06020820152600061111c60e08301896110d7565b828103604084015261112e81896110d7565b9050828103606084015261114281886110d7565b90506001600160a01b038616608084015282810360a084015261116581866110d7565b91505082151560c083015298975050505050505050565b6000825161118e8184602087016110b3565b9190910192915050565b610180815260006111ad6101808301876110d7565b82810360208401526111bf81876110d7565b9150506001600160a01b03841660408301526001600160a01b0383511660608301526001600160a01b036020840151166080830152604083015161120e60a08401826001600160a01b03169052565b5060608301516001600160a01b03811660c08401525060808301516001600160a01b03811660e08401525060a08301516001600160a01b0381166101008401525060c08301516001600160a01b0381166101208401525060e08301516001600160a01b038116610140840152506101008301516001600160a01b0381166101608401525095945050505050565b6020815260006110ac60208301846110d756fea2646970667358221220fae7179b1fd4afb252a221b4a4b855c082b6681c58248b8d58e1e951092a7d3d64736f6c634300081b0033",
  "linkReferences": {},
  "deployedLinkReferences": {}
}