{
  "_format": "hh-sol-artifact-1",
  "contractName": "Groth16Verifier_AnonNullifierKycTransferLocked",
  "sourceName": "contracts/verifiers/verifier_anon_nullifier_kyc_transferLocked.sol",
  "abi": [
    {
      "inputs": [
        {
          "internalType": "uint256[2]",
          "name": "_pA",
          "type": "uint256[2]"
        },
        {
          "internalType": "uint256[2][2]",
          "name": "_pB",
          "type": "uint256[2][2]"
        },
        {
          "internalType": "uint256[2]",
          "name": "_pC",
          "type": "uint256[2]"
        },
        {
          "internalType": "uint256[9]",
          "name": "_pubSignals",
          "type": "uint256[9]"
        }
      ],
      "name": "verifyProof",
      "outputs": [
        {
          "internalType": "bool",
          "name": "",
          "type": "bool"
        }
      ],
      "stateMutability": "view",
      "type": "function"
    }
  ],
  "bytecode": "0x6080604052348015600f57600080fd5b506108488061001f6000396000f3fe608060405234801561001057600080fd5b506004361061002b5760003560e01c8063c542c93b14610030575b600080fd5b61004361003e3660046107ab565b610057565b604051901515815260200160405180910390f35b60006106fa565b7f30644e72e131a029b85045b68181585d2833e84879b9709143e1f593f0000001811061008f576000805260206000f35b50565b600060405183815284602082015285604082015260408160608360076107d05a03fa9150816100c5576000805260206000f35b825160408201526020830151606082015260408360808360066107d05a03fa915050806100f6576000805260206000f35b5050505050565b7f0a0ec99df963d94fa4acf5d1efd0a774219af392d0a64d2ca4899045c92ded7285527f0d28213d4541abf657b11ca7d962d24a18616ba7b77ef233dff7a7fd5a92e57860208601526000608086018661019a87357f0b451da6fc9a88db88a2a5983e2c29b7fa52406e40255656e360d18762f0488c7f02b045ef279bd5f1376cb3096a5ac0934c81e2e75977c6d706168613e1bfd56c84610092565b6101ea60208801357f1c5745a15c0e4d5451a118f3a8ff5d984b16ee2d42f72dc0017eadd15253be3e7f18ad472dc0af9006bc58a5cfc50fa525d6d21a04825b63513e3d16c21c029dfd84610092565b61023a60408801357f1e4977bf4f70f609a0984b2a33602fbd296dd62e9b8c15e8323d434b596737fa7f29e73e9a459cc06f45410a8188830915018bd9fd8a4f6f78052bcb48af2f8c4d84610092565b61028960608801357ebb74d29667b1ca88eebb71257c32ea5b4ed1b5377e8fcce345f2ca6304bbea7f0e30a6e84b33b0b652e4370a25782afbcb0ea1f31d0fe6bd36b316f09f081f0784610092565b6102d960808801357f18550395730ec63d7d9c41ec8734779c768a5347076357d22d476707514a036f7f2db467c27ef62b0635423351fa66bab54b9e27e09018f55722701af2221e817184610092565b61032960a08801357f06ae89b58927defb017b17a4653b782e11a991ae9b5677d750a8d0aabf2736d77f1b0b0866659a1d4e8b40d79cbb6f686c2ee166229dc21408d035cc1814e390a684610092565b61037960c08801357f2a7042a3a2608d5ab9d13797bb989efa8b6936fe42bfdcc4249b500dbe7e28407f06098218fb780f7abec1b92af33bab756178b5180a919ef0ff080c2d337b276684610092565b6103c960e08801357f06ae2c5ae5f7f514eb9ff14668406291b6a4dad88c19bdd37c48e59cab4ce9817f2d7f8f7ac5eccf4ead9183bbe8791898b1b3ef1d41eea4dc60d4d5a6e11ddd6984610092565b61041a6101008801357f20e48ef38c6277eb964ac86c611e9db64882496eee264ea02b2e903c822eec107f2b8e34c8f7eba3c09acd7378bd51e507d9b3de0305161509aa2c089cdb23946484610092565b50823581527f30644e72e131a029b85045b68181585d97816a916871ca8d3c208c16d87cfd4760208401357f30644e72e131a029b85045b68181585d97816a916871ca8d3c208c16d87cfd4703066020820152833560408201526020840135606082015260408401356080820152606084013560a08201527f2d4d9aa7e302d9df41749d5507949d05dbea33fbb16c643b22f599a2be6df2e260c08201527f14bedd503c37ceb061d8ec60209fe345ce89830a19230301f076caff004d192660e08201527f0967032fcbf776d1afc985f88877f182d38480a653f2decaa9794cbc3bf3060c6101008201527f0e187847ad4c798374d0d6732bf501847dd68bc0e071241e0213bc7fc13db7ab6101208201527f304cfbd1e08a704a99f5e847d93f8c3caafddec46b7a0d379da69a4d112346a76101408201527f1739c1b1a457a8c7313123d24d2f9192f896b7c63eea05a9d57f06547ad0cec8610160820152600087015161018082015260206000018701516101a08201527f198e9393920d483a7260bfb731fb5d25f1aa493335a9e71297e485b7aef312c26101c08201527f1800deef121f1e76426a00665e5c4479674322d4f75edadd46debd5cd992f6ed6101e08201527f090689d0585ff075ec9e99ad690c3395bc4b313370b38ef355acdadcd122975b6102008201527f12c85ea5db8c6deb4aab71808dcb408fe3d1e7690c43d37b4ce6cc0166fa7daa610220820152843561024082015260208501356102608201527f198e9393920d483a7260bfb731fb5d25f1aa493335a9e71297e485b7aef312c26102808201527f1800deef121f1e76426a00665e5c4479674322d4f75edadd46debd5cd992f6ed6102a08201527f090689d0585ff075ec9e99ad690c3395bc4b313370b38ef355acdadcd122975b6102c08201527f12c85ea5db8c6deb4aab71808dcb408fe3d1e7690c43d37b4ce6cc0166fa7daa6102e08201526020816103008360086107d05a03fa9051169695505050505050565b6040516103808101604052610712600084013561005e565b61071f602084013561005e565b61072c604084013561005e565b610739606084013561005e565b610746608084013561005e565b61075360a084013561005e565b61076060c084013561005e565b61076d60e084013561005e565b61077b61010084013561005e565b610788818486888a6100fd565b90508060005260206000f35b80604081018310156107a557600080fd5b92915050565b60008060008061022085870312156107c257600080fd5b6107cc8686610794565b935060c08501868111156107df57600080fd5b6040860193506107ef8782610794565b925050856102208601111561080357600080fd5b5091949093509091610100019056fea26469706673582212207a6a1764542c45f558073b47ec26311effacc189226aa6366e763b7914c4306e64736f6c634300081b0033",
  "linkReferences": {},
  "deployedLinkReferences": {}
}