{
  "_format": "hh-sol-artifact-1",
  "contractName": "Groth16Verifier_AnonEncNullifierNonRepudiationBatch",
  "sourceName": "contracts/verifiers/verifier_anon_enc_nullifier_non_repudiation_batch.sol",
  "abi": [
    {
      "inputs": [
        {
          "internalType": "uint256[2]",
          "name": "_pA",
          "type": "uint256[2]"
        },
        {
          "internalType": "uint256[2][2]",
          "name": "_pB",
          "type": "uint256[2][2]"
        },
        {
          "internalType": "uint256[2]",
          "name": "_pC",
          "type": "uint256[2]"
        },
        {
          "internalType": "uint256[140]",
          "name": "_pubSignals",
          "type": "uint256[140]"
        }
      ],
      "name": "verifyProof",
      "outputs": [
        {
          "internalType": "bool",
          "name": "",
          "type": "bool"
        }
      ],
      "stateMutability": "view",
      "type": "function"
    }
  ],
  "bytecode": "0x6080604052348015600f57600080fd5b506138e08061001f6000396000f3fe608060405234801561001057600080fd5b506004361061002b5760003560e01c80631438cd2214610030575b600080fd5b61004361003e366004613843565b610057565b604051901515815260200160405180910390f35b6000613068565b7f30644e72e131a029b85045b68181585d2833e84879b9709143e1f593f0000001811061008f576000805260206000f35b50565b600060405183815284602082015285604082015260408160608360076107d05a03fa9150816100c5576000805260206000f35b825160408201526020830151606082015260408360808360066107d05a03fa915050806100f6576000805260206000f35b5050505050565b7f2598534a460e28b8f6067544911a9ca1cbfafe338b984e2010ee19e05e1c5ce985527f2afcdfda09c68eae771550678f73bf4d964fd09d0c28b7e58a5d762e34d1494f60208601526000608086018661019a87357f238d2803e8c2db99da3aae6827da1c96ae0ad676f8a97b66fc008338ccbc834c7f1bf4b2d40a60f6f8a9774b2d612caad0b087c5707fc477d466755fe8c7ed53a084610092565b6101ea60208801357f1ee60a3a6dbc25c717790acadbe78e54146a15e8c2e8280d2a1a34687039c3927f14596174a643824a8464b8bd03f783acc40f428def6924be7af4d740e43eee8b84610092565b61023a60408801357f29729a34c3dc31aa2c5b7163b628a9a75d4c0eaf31d69ff341b4a8557a768db37f207f8d2e2a768b0f2a08a8a095907adc4ef48114307a263de8fd03694c8d7d3f84610092565b61028a60608801357f209eca3c42dc7befdd47ad806c9deac0929790ec12d1b83f5b63b7b63ace1f9c7f081844db241eebff25c7d9fdb7f533faa6fdae3b16af2874677035db2a134ddf84610092565b6102da60808801357f1d0c83cc0b167563f67969266e4502c8ff0744a648bdf5b0315aed5d208cc5c67f298ff8395a944c279875cba873c52939a26a632dff5c881bcb567f2efc11219784610092565b61032a60a08801357f0a1bad4338d874ab0b7cd785ec20ca706338b56fdf88dee4980a194a943c0ab97f27cd73315764d27219e78f68b9521c0ac1dd15cba29aa0d873c0a38d7aa2686584610092565b61037a60c08801357f2ffc7bf8ba19c9e199bff9a525ba5c7c9f6fa9e7b22c585e67463f2b8661c8667f23ce1e91f9ed6ce6a25ce91ca897df2d98b264493655c6d56bcbdf6cb41a7ebd84610092565b6103ca60e08801357f15f47b8a6dab75f1ba53e502c011661a559b27bddcc2add4667b6c77e8925b927f0cea2b1cd5e49e5810c5748d98d15445a3e4fbf1f8a5cc30ca3e121a14e4aa0584610092565b61041b6101008801357f0f3761cc23c1f5ef530badf042b84042ca589353b08f58f4098d57177a2405887f0740bf136e788ae9b5c771153d6ed61b8c6fa64e498959972a06dcc6f28b821084610092565b61046c6101208801357f29d765d1f970e8289ab8a8cbf443a20db99a99ca661b46df85b15b860b224b2f7f043e4fd0b8158b572d5f8329ef5213170137a29b2d4434a802d2ae49181c7b7484610092565b6104bd6101408801357f0b4fbbac099b176a715ad500871e6dc8f21c26303ab2659d90b618a89170ea2a7f1513d9534bd2254483dd134d446a880c369dd28a81c537d2944324a31d1da06b84610092565b61050e6101608801357f093643b7b4d0e7be61cd23d0943104617e6473a2e30752e55bbbacf97e9cf2067f1c32d94fda211486e90a7fb7d477400c6e555899582feb7c22efadd4a65efdfb84610092565b61055f6101808801357f111eae2752147a5bd2fdc60941ff39563435720bee57daba53e45453ec0357747f0c288548dab0a33e609946e47a10bceda75e66b7f792254378d2f7cc67f955ba84610092565b6105b06101a08801357f27b8428185d15150e072ee4c6e8bff6ed74d6a05871f5185abf966bcfcdaa4847f0f2874bd45146f2d2b13d7c0350f3bac781e945aa1612529014281ab8805469b84610092565b6106016101c08801357f24361e0acfd3dd9fc42a2175d3994225bce789d8131f6e80b0fed2b40e2dce3c7f14d3bb41d30692ce707e5d5301b3c38130f5c81e4b1ddef68712a85bf337be5684610092565b6106526101e08801357f275458253f15e85dc2d3a0af4b821f1932dd8dce369aa4f28cff01e2a3ac1fc37f1230cf8f6c10f8222209870765ca88154c554db7cdaeac3c881b8cf7de5a0fde84610092565b6106a36102008801357f2ccdf3172036ac8cbfe19c414accd715856e4c3cacbf3c02da058f23a8b7f2e27f196c82903920861ce62ca2f3f18120a1bd4e35aa2396ad0813d675621a3c9f4e84610092565b6106f46102208801357f14234cd0bd90077dd584876eddbe31f1c0ce840a70ad38dfd74fa308c25214e97f23b8d390424069d6ca484f34694ecf9b99cf6b6d0be5c2e003115211fd90935984610092565b6107456102408801357f298bbe1ccc583009c20450cbaa0316f4bd6d7ec3fddaa1fff7374851f68a96b27f15117b6e7ff6c51967456a05a53043bc981c0fb9510c075fd627aa54ed1fae3184610092565b6107966102608801357f25152c0102d25627e326586c941f4737d7f203cb5d658458bf86846645339e697f07a8ec121a48cbf07d930314c509ce116e9a4fe0cf7d3726994b28652f2e97d084610092565b6107e76102808801357f162f3f99aab2cec1a8d5c9e36d7da357ec552bddae43f97f77b662b5551bd9927f25409e4b06dc5160cb24d2f1a0216230e56ce59ab91d8b87954a1fc7ed3cfd7184610092565b6108386102a08801357f2f2d1ec93c5c8de0391ed7f2d2c48836c928ab2006cfbed649c63f7c547e0e247f0b6ecd74c032d2956fea731cfe40200e7ce927579bad30b9b1ea2c9c407d124584610092565b6108896102c08801357f223a08fc7b6956a7fa2262ccba6752f1d4163852f1bae23bcb896c8488a73b7f7f27421c66f58f8f9e411ba2a700ed516978afc58b0c8f042b301a576cd64e07b284610092565b6108da6102e08801357f0cf48d28f19ade527e01db3b5a407e86825dbb679c4b8256d24fb5c22b5f87577f24c358789b61263c578561d4e1a2ea4036a9501e90a354163e3aa8937c0868e484610092565b61092b6103008801357f257be0a6e510b4f3434ead63f1efcc4981d3b4a814a3b1b635196a802f59de7c7f11e638cf5f9e33b06823c86ed4c17cb9449d579d2e46f4836b3a546b3b825d8184610092565b61097c6103208801357f114b06db8af0365a9fdcf58e7e185f0e3fdcc2351db7c5df4720859f94b21d037f1d0968cae7d88c4a79e75bded5e39c8a91e3dd17f366be0495e14ebdba810e2884610092565b6109cd6103408801357f10b9cc212b038a8999e7d56c74074b77a616b3b0c6d254b5f612e6f45a3da9b07f03c3f3b1c48069feec8890f74d8f3ab1eefbc9097ff09c800d07305d7c151b2984610092565b610a1e6103608801357f2dc325997b3d43d30a5f2711e9537998c9196993155451947b58e721dc79fed27f18071ebf0fa84b19dcb6ccb9cfdcb3094eda01d96b535c225e96dfb347c129b484610092565b610a6f6103808801357f0f14e43c166b56b0263d110b483c065f331c1abd1f05c855c37f18e619ef3f7b7f1c6ceff1ec8f5ca97d8ded2f99da23bd98224cd257cd4dcf3f70d5f0864cd2fe84610092565b610ac06103a08801357f14be914e4da0820e02b428aede8e9f4f2270c27f75184ea9b21dfdb146358bcf7f1aac95040e567a70b1a8acefe58adb64ea10a99662d9f1d33b24c4b12a842c3f84610092565b610b116103c08801357f0e4dccce6472f80376094a6846784b49e83d9be0cbcab0ac18d615c3af06db577f0f1cb3bbdae1e4633cd408a4881ba9885bf366e74bea2b38f99e2513c144139884610092565b610b626103e08801357f220ccfc004dce4b4b0051f0f067ce6f11397e3fad3aa046521507e05f1e94a107f03abcf0a03b124ad18be1b7f987d34de02a16c2c94ee96f48c761380e4e2ae2284610092565b610bb36104008801357f11ece35bb00dcc9021002ebc136f1a5426970729145851b0ace4a3958b8ad4427f1c7d1fa8026c4b5859d398e0f9f1e7414ca65b91cd05fea63837b0b4bc1eeb9284610092565b610c046104208801357f137c188a5cb4da541197a188c78b4ec98ebc186c7393a5729398509f6c9b601e7f0fe778b9f6ed74c6f19857a14e636a4317bf4ba5b11477100185c20691ac30ab84610092565b610c556104408801357f28cc3c67dcf6e1ac34ee039d3dcde4a8d5f86eba8caa6f2c3a466610345097157f301cb1db812f832ccf3e6efe1ec74f4794e7bd80250631ef8dcff7091f1364b284610092565b610ca66104608801357f04e16c94636946b3a9a35cdb1383f0e3d66a584ef1cda16f60e3cebac032a8b87f2bf34ca2f537cf86b71588ae0e76b5c9693230df9e8dfa90f5daf5380d52971384610092565b610cf76104808801357f1d3b9d62c5adb4a290a65a99ee1f88665b5b0c95e10a0b14b42fde4d9b66a4257f049e1438cbe7aa99e5614df0570ef0163aa46a2a307c0f30a31c37991934c32184610092565b610d486104a08801357f1e10ccad986abcf7279fcb195b3defb484df783f7098e5d15a605beb783be5547f1af8e92e94caedcae7480a16ec223161093b027adc669b06f58ed5694706aab284610092565b610d996104c08801357f079e7f3860a905eddae568cc515efa25cf3563fd7a042d3e3c9c50eda5bf2c1f7f2860b8d5b14076d36065ea65bc0bc17e8e0d8394f5e22116fe9730ca836076d884610092565b610dea6104e08801357f243c7d317a4963d5c656b55f4850cdd6bde0030383d84e349153cd0ed21828957f14bc2871c59f958c6b1c3de67aa5ae25ef53ccc9c642a179c6d0383367fe766084610092565b610e3b6105008801357f0bd2d0cc7bc394e1844a18c714436850cdc49e9ed27655e16ed7daab141ea82b7f1ce87be8ee23808444f522644acc14d375289ad4364bb20eca1b6e5127b5693584610092565b610e8c6105208801357f01a9a33e6bbba7a4ae7c9ed71e38e36eac4829780aa140d2f8643e2c0f245d487f15d6709af28a6fa841581623185fdb8ab1ff3b742d5a1495e649f667403cbbb784610092565b610edd6105408801357f2993c5f8fd48bdc85e160d10a9f671af3b30acdd4c4be920ea9b27c59345e5357f1a9862fba66ac698e6e76ec4c6984c34834017d73645afa74693b2ea9c44177384610092565b610f2e6105608801357f0548b905dfa2876bed5f542ae3b10b5c6c95ea76815801fce8d16b592d5e131f7f0b3b559b38c76a8f08d7129d77eed17bb6e64cb7ce3aee033c683c272ff1067e84610092565b610f7f6105808801357f1e1708f62c2182b6bbd824e6440f3f317a034f8108e78142986225b5bd26be367f0ab1a89c844e51012044994a50705b699b753b1ecd936a748e1c969f7feccd2184610092565b610fd06105a08801357f2aa2d6b114d22d578dfc614576f81bc37479b2e71eb2141cdb2ec20fe11781017f2bc6eb08a1c99220f168593035480e31ad0ab522f4b2a856f5f75825be72bff884610092565b6110216105c08801357f2c1b3b9309ab2fd5205d2b32ea776bdabafd4f1753f5a6c38a36592c4702194f7f228a71ee3d9a83410a77d01a4bc3025794c1301fcb2100c40c1b18f12f880a6684610092565b6110726105e08801357f1bef72a6981f2b3757bde4e74e604cf1e7c34d0a7548d913f72d3535c5ad9c5e7f2648414ddad7ec7cde01a82f9fdeb270a2454f8e89b2a72f9cf4111e4bd5145084610092565b6110c36106008801357f06ba3cd7321885268b4eab6cb64fb7d0cfeddfaf2c9a10b35733d8c5eceb39097f237d44ca46c151979729cb7deeea1d4c1bd6bace1dbf05229d373c83717098cc84610092565b6111146106208801357f1538cd855ccb7bd04e5f12851130ff5a288de181a8010e447ed04a4d04fb0ce37f2c0b1213886162d7f969a7357e3e3832ae475a921a52744e034a168e0b5b631484610092565b6111646106408801357e1b24ccc31fe6fb1e00e2e773dcab064a1137c5cddc83e125761a48d59a1e817f220002dcaa75611c672dd0f5a7ef9562770f0e732857839c87a458393246055a84610092565b6111b56106608801357f1d67a6985a0dff287edea53963ff293edfdc018f9d8bd6f557c56ca20018f8c27f0274671840e8da0e3c6993d7c15bf36e56391642d3284356c33aa57ac448b62484610092565b6112066106808801357f1abc603be74be296dbcffb4c061b4e991fc598557913e5589f6e0ce2da5f09ca7f2578e731186b0a353699d4982fa465dd26a0ae8e0f2f707ebc71b11ff4f0f3a184610092565b6112576106a08801357f2fa03a02e1085ebe97724e63404e2134f1ed6638c07c12b06e9a6096487a3cf57f2bbc4cbb6376a7a9b79234b0f1aaae131ba9f36cdc471c9dc017a3b26f56289f84610092565b6112a86106c08801357f1719ed71fc9a3797ddd762a475d3005bbbfd142c2bd42e5d5947b08db0e030197f0dccda6a457cff2f2c5f445938b9bd89b0c99005f4b4b3ea311d849b6bb5897484610092565b6112f96106e08801357f1d3f784ee27e07e4b462a5f806af593dddb333127275c84b4befd07695ff473f7f1c83e2376599836ca91611203fd87da4a9789ee31adb545b304bbba7e43317dc84610092565b6113496107008801357eda36dfcb23224a3191a5de1080ab37a53aa60bcd5daceb0105a6edbfdb01e47f26949799080f0c8c34891501030063e79a1fb53912d2d55b101104180550c18184610092565b61139a6107208801357f05966f339421ad02aa60639d8ca085012b29c155218ce79627a0af507c7ea3ad7f17f5d589f448fd3075cb5ed40f12c08a80f7a08c95383b221cdcadf917d9c90d84610092565b6113eb6107408801357f21fd5a578f3931895de209dd53bd9067d6d02301cfc025ec1d6eedcd2523150e7f0a5917c33150d28c711d8133c127be385e1a6493b77a5e3e4b0412e3ca60f34b84610092565b61143c6107608801357f176b27b2c17d9674217f3c28c858cb05cfc2d6f31e2d503bbfce98bed54ebf4b7f2f3605313dadd620cdbc0e025e7064ab8cb2294b8777b4978a0795e1b9904b4c84610092565b61148d6107808801357f188aa7d887373b2ff82fb6479ab18d9623181e94c3dc16b9d82dfc6eae76f51a7f160fa058f45b8bc88a965df198dce2f8677a226f6f771a2015119a3c673700cb84610092565b6114de6107a08801357f0219dca01951398d0dc94f5ba2fce93eeb4970faa8c4a2c3692f16c5bd177d4c7f1e5bfd4b32c0f85bceb22e95b546e3559817f498b6a9e6149221b78ccb76468e84610092565b61152f6107c08801357f21f7b272004a184c86a708faf093f080addf88baa48ea2a3ed10b211ed0b51217f0b34e8b1dd7f4efb958d7b294fdab6826d45150faa66f1d0211da3dcffe7672a84610092565b6115806107e08801357f249055c338f9d9bf780a90268192d14a71e036c6d6c087b7566a8c63124b95f67f2f4d3025008aea1512170983ae0f501a1c999d1b30df6dafdeba6864c60d24bd84610092565b6115d16108008801357f084b052b0230c75ede92aadc5203814c3b12ca55b014f8e964aa0cb3d6fdf3a67f06cf30a94f28a77fc8aa94d92170a4b42521d990d7c142685826d0236ede73dd84610092565b6116226108208801357f28e3a9b129e60d1ceafe1906fb4dd9af006802e479449494fdbe227f63db5c9c7f0ef689c93d82eb6bc4450d8fcf93a7126fabf45ede0c7c2b2df83abfefd4541b84610092565b6116736108408801357f2af0a12ff392b70ccdfb88333f8278e15b9286eb7dd76afbb4e14f64da828d037f0c19a87e42c089915fd29601675cf47e532524408c76346e6de545b403f3da7284610092565b6116c46108608801357f236b49de7f5db8c199fa7dba45e5fa9a28b212390114549537bc0b68dd5fe6147f214eeaf4cb52131cbb1d5eb5586ad0f0dffbcb97586ca0eac8f4d5d84fb31e8c84610092565b6117156108808801357f268d345e2096c6325c84b0f05278759b989fd90170f7223df97af9e7fc22e0037f1ab890564165b0df10d1b09621711f476c7087006d07657ff9ccccb7a04b130784610092565b6117666108a08801357f227fe2fa1d8053acfe899d67dd2ca4558abe8c8fcdf7ec83e915583097d7e8787f031ee61e58d916f5ea2bb1f92788bcbcb61f029bbac98d0d755bef110c4e8f9c84610092565b6117b76108c08801357f0a67ab911d517eb1c089c901783a97ff253d9d5014d62bec593d1c09f2be12777f1aba433ac85eacbb71b21c51afae3e17da220f23c9b6581fb19d1b58caf0d47984610092565b6118086108e08801357f2ba53303eec7d6432981ad7442473a10911e3aa457119be99296eddc8a8094f07f09805c0a5c29c47b1050d1514efa0516d8ac142564b9de353f0cd30756b1d35b84610092565b6118596109008801357f2b1bb6e75650e4a2f0de0b96442f647d9a8fd3125279cd196d452d7d13fa899a7f153ef42c074afa5ba9abc5ef741f8b4ee31a47040373cb3d1d69efb1347db5b984610092565b6118aa6109208801357f2ddb861be72c7b16a12267bd2a3168894ac65613494d379506ac2380488a67587f01e5631d83a2746a1b54811cdb77449ada66dcf8841b6467aa8c306402147dc284610092565b6118fb6109408801357f2ba9caddc7e70c9701b5ecbf3a5eba6d83956a9e4ad73c130c972f85e112f8837f1cdaf3364c55332279270690d5f70f066bd313932a10d0b4700e831967cf81ec84610092565b61194c6109608801357f0243e69c8c1c2e69b34859f829d9bbbaf5f90b33d78c872f7f6b93e208094eeb7f2f1874d85ce5ea67450e65bf90827f6ee91ce534be6dc6d2a93d135dd55a43c984610092565b61199d6109808801357f1e1d7dbe5d88d621a593767f0696243b2425f18c27a23d0301a820584e03e1077f2dabdc3b3cb6d67bf5c6fde9b589beae10aab9da9732180eafd73f5ae1023b3384610092565b6119ee6109a08801357f2f7e82c8b83288d47cf3ce2fe12d4d62e3654197e6c887c7b41e8636ee6718ed7f2dd9e27c098f9d4c4b37b0ba9d7d2078e1403f4b83f7c688c6730226e4ced3e684610092565b611a3f6109c08801357f1f3c5e283b0356e82cdef498147191a12786057454461a4e6f0fd9d1b564d1be7f1709aa595fa358b07fadcbc7a3d4530faa1b0288c7be9962b343719150c89f4484610092565b611a906109e08801357f14e9bb0c22d514e11674fbc680d531974c85a92101bb10d92f7c708e73209aee7f26665223018c85d62fccf74d76e8ccb67a52cc401089d10b0f772ee85208f56084610092565b611ae1610a008801357f16898c5ef80b120e5796372e0f4d85f8322b5012e7bfa17521423c60b5a84a487f0313716b1ae846608af0715dd70fd9ed5aefabc15c34f83826813b025c1e431d84610092565b611b32610a208801357f1f44a1552ceb7d2f57cd48d1be01455c12f8a4457e2fbbfc6c911b11568989fa7f2c09a226a1db336f10bf2ae5f1a04a367ed02ff0716588a96341e5071e71959584610092565b611b83610a408801357f21a9b355c6554fe5d7d089d023343ca4917686e6c1bac7ecc06fc823b1017bc57f03789adf56f3213a4b3203666027946691912a21a67151c70b66f85eee84f96584610092565b611bd4610a608801357f202bea2c9053d2b9e61008744b7297239245b66d3b8a260c6bd3a4889fcbf66c7f26488928f1a50da8425615130a5302414de8f32521ff170d750b68b04a35c63484610092565b611c25610a808801357f0bce614cc0dc2da90ef3f2261604bddd962fe83027cb6213493e275b9d15a7947f1f39ad77c050884fe2677bc1cfbbc2b6d84d079742f6101b34ea7e5a4c73895784610092565b611c76610aa08801357f067c54ae1470f488ccaef5d3178d259d0c78ebda9621cbd95df7145492e831437f233302c366ad666b02d38b92fd16f5e7c63cb6269bbf3e0cd298fce4373629fa84610092565b611cc7610ac08801357f1a74d4c0b9592b1b8ae8e22316b59f97726ebedc07aa10130094175275d667767f031958734c6fcc01f9ead35e9f3e4b0f34cdd0e021c67e61c351aa6ddc4bd8ad84610092565b611d18610ae08801357f29ed2ccece152c34b57dabf4c150f93ffe16bfc05a34f44c03dba500061f2f7a7f2d8a6ea001b8f6dd0c02492bb1dcc80f079f416b290b428a9cf8a54f0dcbb37684610092565b611d69610b008801357f075782963964abfb6e8ef8eba9cbe3372f16115bc13fbe58fedca1f1f3822cbc7f1f0d2a07b48ddca8d5cf75f67cdb9bafa41098db4103006442f7a9c81789a1e084610092565b611dba610b208801357f21a27da458ab73747cd074a0d90b97f3640e880f48ec8c6914ae3ce03338d22d7f0bf704a69d43607ff71c2f7afde14300a38d211b9618f3243a5da8ac886cd74e84610092565b611e0b610b408801357f02f36402ebd649ffbac4f467ab79b7451d45974b2888abd3c7c9f9637abaccb47f2191c6ed66cea88e2d56bfa532887821fd35a0cde0e53e133130ac5539c0223584610092565b611e5c610b608801357f016608b1373b12838e2b9141c87f308d79924326fb856d0091c7f81e9b0d5b067f2123a9f5d8e3481811e4a5e762bb628fa8de00ad21d49260221ca15a11bd158a84610092565b611ead610b808801357f179e1b2819a73cfc1635695d7cbe684b224d543426bb15b2bccdc48b751d99a27f1ad2e0b431a19a1a7e838837103082e15d255d03688f20aed3a4ccb5ecaed07184610092565b611efe610ba08801357f1de1cc4c6806f58684d8fbd0f324c84843fc42bb09f14e1286b0abf231e5c5ef7f1a35a742eea05d40cd929c3975f090c533b6923d550c88c57ba5d2a748818c0184610092565b611f4f610bc08801357f0bc09f8b68a8d9a02a92da2c162792d107760f802829cd9f9854f710a97014d77f27b23ad14b019777ca64149f40d6e3398932bfbb4fbc716c8e934294d8d1648a84610092565b611fa0610be08801357f0c0e26fd537f12c9386a8dbafb6ec621e714e35d12f48b93b427405a925582a57f2f0c72be86375e0a6804f8bb88fd0fc9ad4fc49f29ca186e77885bafb8b4bea384610092565b611ff1610c008801357f107819000a3396901110a2ad1189cead558af40b60d27f16ef6a532b771acddb7f085e113b340fcfda73d7c7627d74b514d12a39481783ed70dcb04b16a372188e84610092565b612042610c208801357f283b9ade7dc468e1cb63be9750c7c9b59a6b2c026d144861be7813dbd7b82e467f189a84e35e44094e02d37ca5e3fc975b352027308f1b013f67e73b07c36468a784610092565b612093610c408801357f02333ac84ff452405a97b32a4c608956dfef3a2a23540cc4cc23d547ae1099857f2e29aafb63e541c9e340df772ddcb5d0005929f6052ed6dd912c803fcb2d5f3584610092565b6120e4610c608801357f14d4ee97fbd87260f2e316eed345d205bd890f47e90ba079cec64da2439cd13d7f0ba709156292e2c5f34070c1f014decd091a746678e510ff1f244743aa424d4484610092565b612135610c808801357f0ea3184ac4bc9eec7b5c0c7d7b7c688d571390c7bd6d1acf618a2b663ac086cb7f2f03f8e6c2fc9e9a9c0d014fe1c4df1983b0d325b74db9a2f0e14985159ae35984610092565b612186610ca08801357f11617f5dec892de448cc655fc37933728d6b4ce31503ce9805e5775fd97357247f1279b56948a2785e25d2f26a0ed9b267d5cb2957bd68185b758aef159f845fa384610092565b6121d7610cc08801357f16b40f6021d0b61adda0698c0a4d0c8bc7950af7df6335df97663af122bf32e17f04e87860a64bf0649dd628de406435a5d706045a2f315dcf6d63842670f106c884610092565b612228610ce08801357f2d53ace0c28cb5291eec51fc2e32fbd39dd5af815d822702821ab7359aa1edc07f203c125769b21f91b90a9c3f7776cbded73934dc06e5999dd4363da1d2669a3584610092565b612279610d008801357f1cabcf2b6daa7cf841948bebcf1679ea5f4dbcabc88db55dca197a295c09e7077f2968409c2869b7c6d79171f7ebc69aa6f7fc546a067540c75507170c8ce6463384610092565b6122ca610d208801357f256ae2e028b76525ec8099823c7ee7008d86480e7362e6bfdb2de5862cbb644f7f19b86ffd60a7f1030ddbc976269375f05f8781bbf4241b36e255a49db0cd93bb84610092565b61231b610d408801357f149a5f552dfad4bee3c6a95bb94c94e1fc8470bd3baa5c1cea95f8c4e02f7c0e7f229a704eccf4b2e2e3c31557aebe0fb07ef89c1f0fac343bf184bc24188af97684610092565b61236c610d608801357f1d6d63e6dfb62f0fa3b17b477d5f7bc70cc375ddb2e304989b63e517eee88e577f2802f4ce0e0f4d8d8638fc5220bcd304fe9d778af8b7ea74d448d6df03f10c7b84610092565b6123bd610d808801357f1d97b821ad7b2d302970695fdfdd550ef6c4e95e2e96ca12e4f2b3422f1158737f2cccaa22f07df7a68acec1cb0ebcc76fb1ba64b20c9174201cb02c2d6911cf4784610092565b61240e610da08801357f0c761e58462966dc72f09b406b20ad207c17fcaf1c6e0f6f419bc3ae817b8f4c7f2580d0b0813110bab6c91e6bdd37aa3821590a87ba3e31229b15453ee7ca87b984610092565b61245f610dc08801357f1ddc4c3371ddb342e913b8230d5cd9f207ff4323a2f6a27332e5c49ef221daee7f2480b1a6fac3ac0a121ebc6d98c175722c60439041ecb18768643ab87e921d0484610092565b6124b0610de08801357f0eb8181e8d11cc022bab19702c13d1536249a6c6ada65b73718f21544abc4aee7f190310bab089ad772f3e2bf4268af9dd976780aa9067f040f9001dbff8ba7e3a84610092565b612501610e008801357f090cdb4f8fe442567723efdbeebb8b1a083074307de372619cd090ef055233fb7f217203d144711b97d468400dcff6c0d3bd43d2973519b5c26e5abe4a4bd1d3d484610092565b612552610e208801357f1c4d34fc313682effb1700c82cbb76ff5d5c20c13aa46a8631a97cfb0ba2e5887f217942830d5194ad23b363c00d71f4b6d920d43744bd82767af8dc5a87999db784610092565b6125a3610e408801357f2cca227ede73e9177cc8512a57221c77775b1c8e02375958d9fc02fac339e6c77f2ebe5a57a257ec2c367fa61f4e07cc561e267f3ea037389d637eb6c77f6c000084610092565b6125f4610e608801357f0862a73266dd8c133d2f5cdfaf205589e1eed4fbc73bb8d41887b8063dc5dc177f0400784b184f4d8341c27d507db1c777d2edf8588f32205abb29b87cfae73c0184610092565b612644610e808801357e35d2b18773d549135e45a9cdf024813a3bec6fc15f121ecc54f13ef38f01c27f23377d48b26ed2ba5ace7d834b064a40507d19a95dde9d92b607c82ae6c02fd884610092565b612695610ea08801357f25e2f85dc1d28a9430eb8a9287ff907a6de18f7f086e835d9cb2e3d01c1926207f29c2624ded1081589283ee83b3d61b4279ac4fc8d6658a0af265ea00ae244b7184610092565b6126e6610ec08801357f01e2249a6aa9a0681a84c3c2b5740a9bb453e6cfbedcd9018c8c4e2728c9800a7f20f7eeab83328ba5dc9cb6811a56a586aa27afc848d28591a3bf0cf631518b6884610092565b612736610ee08801357f2cfde0f69912292ace01c07d384fcf53c4be0905ffb3ccf2e2b7dcf261bc50df7eebf5d7e3e358f566e3ff4acab22937eda78dbb99be2792486565901e46068284610092565b612787610f008801357f21940aa87e1150eaea3007a9f189c548b8a35739a28586e8f9c2cf05ccdc8e607f101e13829ccc7f820c253a708a95470d1bc1dffab3406d3842570b9a8fed12db84610092565b6127d8610f208801357f263b988581a838515c73e991fcac2b029e1e0bc95dcc7770f50b31d04d3b29cb7f288dad242527d6012e32ca42bf1030c9f761aea25eacf5b6c04723e663ab249b84610092565b612829610f408801357f1a317484d85e70f8782ded0a58914796916c9a49f167b7eac55d738b880514f27f1b7abc20d367b1e8cbb42fb882216f562aca79de7a1f88b403abf5119f735c7c84610092565b61287a610f608801357f1a2cf3e2737025932b122ea64cb3c61fb90c3a2f858cdbede542500c53c515fb7f06a799244163d6ec46506b6200325c59456982cec20724866c7ca77740e6a8f284610092565b6128cb610f808801357f1d69af0b99a31a8764d34c8eb3623fed4a49454511df00eaa0e7aea78ea56ef47f2eccb3ea01be779a1552794fbb30b6872563ad695731108e96703911b514cbb084610092565b61291c610fa08801357f29becae39f8c331b326829a1b94848b143cd5e0babc34979ef60a35c2862bf517f22b6a792824da3c31e7eff9e89e67333c8a8f2c76046cfae6991ff8e14d9149e84610092565b61296d610fc08801357f0e2d1f48b714405a153771e03f2c757873a392dcf87f2a82c10e19e0a9b89f6a7f01ec192c06807b8b9521cd7b14c7a334b227aaeddd7cfb625f9d17abdce8785a84610092565b6129be610fe08801357f08bfa26b9c4887d3fbbf18e7691b5e36a9d585c46464529d499a9862904efcd97f062a59ec0e70dbc050f42c081762719c22f9d2edb9e31c27dac0e65b6909bc4884610092565b612a0f6110008801357f149268b333d7688183eb089065b311e79c489d43a7c4dbff23a9517ae781f97b7f1f95b1aef08cfa587c70461fd0a6e0dc63fa7efb649f649053c350c4628e4a8f84610092565b612a606110208801357f0caaee3cd0af8cbe1771553b062ffba2519c2fcd43d889105269c51e8918298c7f15555e9d86b76adae180b4e32ceafb7dac88f12c14d20238900ff1adc5623ed184610092565b612ab16110408801357f1cb57dc869b593562019a873a5ebf188e6ccf8a7f01845fce8d033aaf96eeba47f0503a64f54d4a67aad5032ccfe120a0099d1c3bf1a5391199788ea0eb098216c84610092565b612b016110608801357e3f8071fcf272c2d280b129c9960081be4353b72e3552a9abce3b15072221897f17aee78528bd46bee9c1a5631a630e4f2aa5a7f7f177959d73c6dfa22f3ae2d784610092565b612b516110808801357f2c50046a398ce4e5b97734b7e4349f95c5cc247bb8db2bc0219b326412386ae77e04e26b9553b20b7b543d7f8a995e239ed69dc46c996874400847f94728596884610092565b612ba26110a08801357f0a65c7e7c5a7f323e0830fe305035028cc25a7978ecb28ee4cb2585a745170777f0d1470e7977d4fff8312e5bac2705c3482e330cfd0455434e40d24e30439877284610092565b612bf36110c08801357f157bec1f444da5946c6c27e394bfa1927c9a3d44419a8b3983443bb580104e917f051076e7e4914fc0dfc3edca61d15d5eba35d5f1b5568e2d66e8340671e664ce84610092565b612c446110e08801357f2e172d322c9cc0738fb97a410295925a149b194e9d28c170a9ba7a089b7444607f0ff852f3c381cc9c083d1c22aa129714b49207a4de97292dd7917285d6a6811884610092565b612c956111008801357f059e0050eabf5f69199b27cdd410ee096d647efbdbfee604932369b2746c2f0f7f051cae6f7b83cc41ea0e611bd88267e2e05d462bdede68944ee52c142a52268084610092565b612ce66111208801357f0129af0dc2fc396dcca319d30a650fae23da039c3519bdb129eab28134d186b77f275dfc849b149a2dab9018a9b148ea3c57cf0f9156ba3ef26eae0b37750d44d284610092565b612d376111408801357f254a38ef688a6f38097a7d54d9b17cab5dd106be70bdbd210f8abb401457ec9f7f209bba19701b35e8a775c4cfdea0f757283d706e241d186750f2f4d3c426a2f484610092565b612d886111608801357f22ab6e60147652858f6298b4829346db303446eae519b8742183822e86e18c767f1ca9d3c319d079cda472ac09bd3b052dbb70ddaba50a0bd227251b8d37d9d2ca84610092565b50823581527f30644e72e131a029b85045b68181585d97816a916871ca8d3c208c16d87cfd4760208401357f30644e72e131a029b85045b68181585d97816a916871ca8d3c208c16d87cfd4703066020820152833560408201526020840135606082015260408401356080820152606084013560a08201527f2d4d9aa7e302d9df41749d5507949d05dbea33fbb16c643b22f599a2be6df2e260c08201527f14bedd503c37ceb061d8ec60209fe345ce89830a19230301f076caff004d192660e08201527f0967032fcbf776d1afc985f88877f182d38480a653f2decaa9794cbc3bf3060c6101008201527f0e187847ad4c798374d0d6732bf501847dd68bc0e071241e0213bc7fc13db7ab6101208201527f304cfbd1e08a704a99f5e847d93f8c3caafddec46b7a0d379da69a4d112346a76101408201527f1739c1b1a457a8c7313123d24d2f9192f896b7c63eea05a9d57f06547ad0cec8610160820152600087015161018082015260206000018701516101a08201527f198e9393920d483a7260bfb731fb5d25f1aa493335a9e71297e485b7aef312c26101c08201527f1800deef121f1e76426a00665e5c4479674322d4f75edadd46debd5cd992f6ed6101e08201527f090689d0585ff075ec9e99ad690c3395bc4b313370b38ef355acdadcd122975b6102008201527f12c85ea5db8c6deb4aab71808dcb408fe3d1e7690c43d37b4ce6cc0166fa7daa610220820152843561024082015260208501356102608201527f198e9393920d483a7260bfb731fb5d25f1aa493335a9e71297e485b7aef312c26102808201527f1800deef121f1e76426a00665e5c4479674322d4f75edadd46debd5cd992f6ed6102a08201527f090689d0585ff075ec9e99ad690c3395bc4b313370b38ef355acdadcd122975b6102c08201527f12c85ea5db8c6deb4aab71808dcb408fe3d1e7690c43d37b4ce6cc0166fa7daa6102e08201526020816103008360086107d05a03fa9051169695505050505050565b6040516103808101604052613080600084013561005e565b61308d602084013561005e565b61309a604084013561005e565b6130a7606084013561005e565b6130b4608084013561005e565b6130c160a084013561005e565b6130ce60c084013561005e565b6130db60e084013561005e565b6130e961010084013561005e565b6130f761012084013561005e565b61310561014084013561005e565b61311361016084013561005e565b61312161018084013561005e565b61312f6101a084013561005e565b61313d6101c084013561005e565b61314b6101e084013561005e565b61315961020084013561005e565b61316761022084013561005e565b61317561024084013561005e565b61318361026084013561005e565b61319161028084013561005e565b61319f6102a084013561005e565b6131ad6102c084013561005e565b6131bb6102e084013561005e565b6131c961030084013561005e565b6131d761032084013561005e565b6131e561034084013561005e565b6131f361036084013561005e565b61320161038084013561005e565b61320f6103a084013561005e565b61321d6103c084013561005e565b61322b6103e084013561005e565b61323961040084013561005e565b61324761042084013561005e565b61325561044084013561005e565b61326361046084013561005e565b61327161048084013561005e565b61327f6104a084013561005e565b61328d6104c084013561005e565b61329b6104e084013561005e565b6132a961050084013561005e565b6132b761052084013561005e565b6132c561054084013561005e565b6132d361056084013561005e565b6132e161058084013561005e565b6132ef6105a084013561005e565b6132fd6105c084013561005e565b61330b6105e084013561005e565b61331961060084013561005e565b61332761062084013561005e565b61333561064084013561005e565b61334361066084013561005e565b61335161068084013561005e565b61335f6106a084013561005e565b61336d6106c084013561005e565b61337b6106e084013561005e565b61338961070084013561005e565b61339761072084013561005e565b6133a561074084013561005e565b6133b361076084013561005e565b6133c161078084013561005e565b6133cf6107a084013561005e565b6133dd6107c084013561005e565b6133eb6107e084013561005e565b6133f961080084013561005e565b61340761082084013561005e565b61341561084084013561005e565b61342361086084013561005e565b61343161088084013561005e565b61343f6108a084013561005e565b61344d6108c084013561005e565b61345b6108e084013561005e565b61346961090084013561005e565b61347761092084013561005e565b61348561094084013561005e565b61349361096084013561005e565b6134a161098084013561005e565b6134af6109a084013561005e565b6134bd6109c084013561005e565b6134cb6109e084013561005e565b6134d9610a0084013561005e565b6134e7610a2084013561005e565b6134f5610a4084013561005e565b613503610a6084013561005e565b613511610a8084013561005e565b61351f610aa084013561005e565b61352d610ac084013561005e565b61353b610ae084013561005e565b613549610b0084013561005e565b613557610b2084013561005e565b613565610b4084013561005e565b613573610b6084013561005e565b613581610b8084013561005e565b61358f610ba084013561005e565b61359d610bc084013561005e565b6135ab610be084013561005e565b6135b9610c0084013561005e565b6135c7610c2084013561005e565b6135d5610c4084013561005e565b6135e3610c6084013561005e565b6135f1610c8084013561005e565b6135ff610ca084013561005e565b61360d610cc084013561005e565b61361b610ce084013561005e565b613629610d0084013561005e565b613637610d2084013561005e565b613645610d4084013561005e565b613653610d6084013561005e565b613661610d8084013561005e565b61366f610da084013561005e565b61367d610dc084013561005e565b61368b610de084013561005e565b613699610e0084013561005e565b6136a7610e2084013561005e565b6136b5610e4084013561005e565b6136c3610e6084013561005e565b6136d1610e8084013561005e565b6136df610ea084013561005e565b6136ed610ec084013561005e565b6136fb610ee084013561005e565b613709610f0084013561005e565b613717610f2084013561005e565b613725610f4084013561005e565b613733610f6084013561005e565b613741610f8084013561005e565b61374f610fa084013561005e565b61375d610fc084013561005e565b61376b610fe084013561005e565b61377961100084013561005e565b61378761102084013561005e565b61379561104084013561005e565b6137a361106084013561005e565b6137b161108084013561005e565b6137bf6110a084013561005e565b6137cd6110c084013561005e565b6137db6110e084013561005e565b6137e961110084013561005e565b6137f761112084013561005e565b61380561114084013561005e565b61381361116084013561005e565b613820818486888a6100fd565b90508060005260206000f35b806040810183101561383d57600080fd5b92915050565b600080600080611280858703121561385a57600080fd5b613864868661382c565b935060c085018681111561387757600080fd5b604086019350613887878261382c565b925050856112808601111561389b57600080fd5b5091949093509091610100019056fea26469706673582212202c17d8f4e198594742bfdf2ecbe480d55ab2994f591d6de84fc4fe869e7b240864736f6c634300081b0033",
  "linkReferences": {},
  "deployedLinkReferences": {}
}