{
  "_format": "hh-sol-artifact-1",
  "contractName": "Groth16Verifier_AnonEncNullifierBatch",
  "sourceName": "contracts/verifiers/verifier_anon_enc_nullifier_batch.sol",
  "abi": [
    {
      "inputs": [
        {
          "internalType": "uint256[2]",
          "name": "_pA",
          "type": "uint256[2]"
        },
        {
          "internalType": "uint256[2][2]",
          "name": "_pB",
          "type": "uint256[2][2]"
        },
        {
          "internalType": "uint256[2]",
          "name": "_pC",
          "type": "uint256[2]"
        },
        {
          "internalType": "uint256[74]",
          "name": "_pubSignals",
          "type": "uint256[74]"
        }
      ],
      "name": "verifyProof",
      "outputs": [
        {
          "internalType": "bool",
          "name": "",
          "type": "bool"
        }
      ],
      "stateMutability": "view",
      "type": "function"
    }
  ],
  "bytecode": "0x6080604052348015600f57600080fd5b506120638061001f6000396000f3fe608060405234801561001057600080fd5b506004361061002b5760003560e01c8063f035c56314610030575b600080fd5b61004361003e366004611fc6565b610057565b604051901515815260200160405180910390f35b6000611b87565b7f30644e72e131a029b85045b68181585d2833e84879b9709143e1f593f0000001811061008f576000805260206000f35b50565b600060405183815284602082015285604082015260408160608360076107d05a03fa9150816100c5576000805260206000f35b825160408201526020830151606082015260408360808360066107d05a03fa915050806100f6576000805260206000f35b5050505050565b7f1c137280d296e8539d15b724414a02b6000bb1730f8ecbf45f3479e31a34e15f85527f12729e5efe482092993a05a6bb3d52b8fd185d5aa882e5c8d4b4e27437c7c30660208601526000608086018661019a87357f02fff74dd66f62775aae1f4bb3ded0316796f6ed8a79dd0239e5ebdc2f94b8d27f244b3baabba9081f69e2b741bd7601936cdf87f056dae90442b5bae5532e89c384610092565b6101e960208801357f01c1fbba8d532c0e8b7ea1a3b00a3086cda1c591fc806588b73c03123e4e2eca7e234df19ff7d2cd21e8ce1e3d60b72da563697f01fcaf66c63939c62fd2c63984610092565b61023960408801357f26fa9004025d5547cfe27b2c48ac66d775fbb195691a103920f01871bbc16b287f0cc64d019c69296698e362cac0b0a87db986a3e5d851d66299af6cfe88c1328c84610092565b61028960608801357f1425c259a7996b36965bf9d4df6fe480e4869fa8b4088c435aed1348417648147f19c0eab90da8cef84edb850f4fa51aed083392c471b70ab3702e5ced27cde08984610092565b6102d960808801357f0671e26674e6bbf1489fce7b9763cfdc82776dc45c332fc4544b0df5bc5cea247f2af6c921857b1b00a392168cbeb3257fa0ed9137c370d26909816818543c9f2b84610092565b61032960a08801357f2b3a5705101b48003c2248e1c6f73a5a800b24ba2b8323311bbd9aa17c4f46f07f0c5eebf2ca3954adb4b1b8f90bbc27c9db4b3c4b237b7cee98bebb2fba661bfe84610092565b61037960c08801357f1582b57e89f170096e5134e74b2d109b4c0bcbcc9cfa359ce0c118589fec62287f025a41398d9a2a0bbe1d75280703db50f69bc4b9a1b780b874f84d60a977a6cb84610092565b6103c960e08801357f18d6a03b9dd0a1052c08e5376b598cd232dcceeda4c3caa3225a6385881160047f07b1a141c87ca692e66ebd3931dc0065eb6ca2f6bf1974ccde95469c9956b31484610092565b61041a6101008801357f24bfc8fa0ae424f5bcc5bb1bc3615316c33b58334c3b0db4248e1820c49b4c377f2c805a8d2609dc13655abe6d6e0ef29c66eadfe680062a7ef1fffa3a9dab495f84610092565b61046b6101208801357f104758bda957a90ec650a1535ec29cc26fdaa6665f63e2c820e7ee9cc12019237f0db10a14f7382d496c1e36e23b3ee5f486fa9d486b98209f8eaf9c7ecce4893484610092565b6104bc6101408801357f0353527e02f08aa1d329d558a210b31643405cb3dbacfa79fb62527200e91d7e7f2b1c6c444adcda341be81276fe3151661680bf955fa8ced63a9d5dba3df5d83584610092565b61050d6101608801357f1df4c3991d49b466b63f8932491cd6992251bde2d672dbb536f76c818e67d2957f0cd88103fd12ec5a5b94b09f05d1640bf79b6804b9b2a5d3eac38f0dc6197ca684610092565b61055e6101808801357f217294ce4ccc6af203f6483c5af588a58950e82e3c805f720b2b482ee649bd5b7f0c493f86d6977d2a6a940048759b3b06eae9204bc33d14991a2fbcfe18d1677e84610092565b6105af6101a08801357f0c78106ce5b4de8cf3f786ff7a561fa9d9cc36245258dfefcbf28c4e4ade67287f0cd6a8ea5e21ab67075fa608b46e37c450f753ab5ed9223675c24c38475d5f8584610092565b6106006101c08801357f28a90f20107e503b6a1620a4c62f24a9b98a7fd5ab66e239497742d8b7467fbc7f1677d53ca045cd37f8db6cfc9c47460642d6c39b8cd3bab769ca40905dee88ea84610092565b6106516101e08801357f1dd3582b9ab10544569eaa0635080b254e04b21aec762329eededb124f4a066e7f092dc60707be9e8ab00f723e182d33b5a61b7c9529f286187ea8fadad157b42484610092565b6106a26102008801357f26ebd66174534ef5d9a362e432ea8bd40b4b65c2f847475af031469d28041e067f2034d6a51a8c9b4f6f960647160312e7b9a4e88553a08846a682cd4bd36d7ce284610092565b6106f36102208801357f1a6ecba496ad8f2d7a6f7cad4bc9253c7f2d1a39e0b68008631abbaaba8bfa187f1b58025d5b0a9a113687223bfe3173aec43947358a597ad7e53d679a2c3d8f4d84610092565b6107446102408801357f1164b17c7f33d05bb685cb01460641a41476bff5ec1ee56b33c02c419f8e9b0e7f09742f3ec53f58fda8bb1ba4b11439f87ea203c48a99e271e08740334838c20284610092565b6107956102608801357f1119430e880e84dd2f9694c58dec54292d4cfeef6de4c221db544e735becaa4a7f133a77a576d3209e179269f19d657f3cf8eb1e5fe8b506b23f5b7df6176a7c9384610092565b6107e66102808801357f0a01923389534c2978e95083c1e42920c0121cf3aebc06bb2491287375bef3ca7f1878f93546ce2f0ca882dc9135e322d293e38c66fdf30044731e81d44b99614084610092565b6108376102a08801357f251acabaabb5922c8c399639c035c06276372117d1d6bdfd00eff7f6213721c87f2c34c92e1fd82711fd4705ed02cddfbe9f9f5dcfb5fd1db2bfe57fa9597dbc2284610092565b6108886102c08801357f288f0a270f4414d28a01b0050be82addebff796c4a132c61e5e00b454c0cac047f231b7945b84505fb2a974785daa29e474b8a6d7981d5ff2d46998366c89aa42284610092565b6108d96102e08801357f056909cc87f7bce5397ddb6e55aaf747c91a948d43b72021722702d061dd587c7f198377af89b0c6400e4285735f39a43b5ecf62378098f6314983e679576a50a784610092565b61092a6103008801357f17353eeb04a26840924ac8ea90cf3112e7b4e86a3da18f2b770dd57caff665027f0f456dcfc802a4a32ebfa61cbf93fb0ac5bc88ffebd2abac2cf2d777e6d20c8e84610092565b61097b6103208801357f265748f4f401749a1efdab95ed487098632de5b81e296fed575bacbd1682d36d7f0b96db7c857a3bcbfae22ecf905bfb303682bdf85b98e12e5b4116fbe4ccc40e84610092565b6109cc6103408801357f24e2517613e818338cc23b5500c8cf8ca1296238f3930f4cc9bcd007873a3b5e7f19aabfd6b7c274a1fc99cef6980e1afb586a03655e6c4a5a1ebfca5e1ddc228484610092565b610a1d6103608801357f186458d5e940cd31cb880bebb4a5cc3117bee703f8cb450dc39c554fa378d08e7f1800e437767666abfb6cac594147314aa485e21403c66e72093612365aeb30ce84610092565b610a6e6103808801357f1689ca4705b49b6db3c0df1854d052df350ef5b12abe16353b19d41fcc53b1467f2459e56552db5555e17a48b64c8e5c987d9356bc3c34109b3d53d94b6097a8ec84610092565b610abf6103a08801357f22b06e8a7d004feb0ec0af03c3d1dd25d18ae2201c55c4deee97472f0aa3eed47f0d5bfccc9014ce23c872ee38a3d54cce3881573c59045c0b1d726a75fb3e99c984610092565b610b106103c08801357f09a373f10500648fbacaec62a181a9308a78ac734cc5366a8aa511f952aab4097f2734596e20a23198543c74ea4f3056a9d5a9bc4594e51b4977cdb182527aed3384610092565b610b616103e08801357f0f8a959d41468b3ff0d255c8e2900391d46862b66af9e171a654f499461925f57f06245c5680860ff5b85f7d85fe050125a86dccd0c46c9813b29cae3b916c668e84610092565b610bb26104008801357f040556c058577f4872cde8383319837c043a74c211f6cae4a59f8add0130e34b7f2747cbfe340e8c7f0b2307e9d0ec7e8aad55a25b07076483bf48125a67078e1c84610092565b610c036104208801357f02d18e934af54514015e1390888a4f2ad6dd69f9445ac30c8b13b6af5e02eff57f1c9b26647fd94de37f57f402f53d47b0a9453501a7624ce2f8641ad9a4193e8484610092565b610c546104408801357f2ae443bec345fe57e205b45cdefe5c166f310c786c17a7254ae029ced266f0c57f2b2c8a638c7e2a31dbfa093d0b5495a6b7d7831a90fd37f3dd59e6d2c3d66f9784610092565b610ca56104608801357f21fc7137b0814f5f6462dfe3111b2eadcbe9fa2c4fb286340a6d5f23911676207f25194dad5fdd00e78b0fe8fd2b0c80b795d5db7a1125dfe27e74ccc577517d6784610092565b610cf66104808801357f215404c8b3cd9aa66df084436faa90a81ec8352e812d4ea77db5b03bd2564cf87f0c1cb8574fcbc8286319ad2494721124a78207d0dcd22e43e777137909f9dda284610092565b610d476104a08801357f200993e94eb4be131577df09980a77126fcd349918b8e88d6b6c5a42d08026917f0db52d4c07767e68ee5c28d27b4287f11419feb6829fd7f51fd0eddfda7b4bc584610092565b610d986104c08801357f2fc78dafc7aacc3653864d9edb8ead283a3306563cd81f4ee4eeb1e740e3c9e07f2cc079833a2a53a6965e0e0613b0fbba832ebe5126654fce389a6029caca173884610092565b610de96104e08801357f0d24b504a12546ebfec403072fa0b14cd96395db9c0fbd6357dbb2efcf5f24cb7f2efd692e5f3b13c4256cccf4e30d723ee5beabfcc10bdd9c8e705c1931b0932484610092565b610e396105008801357f2caf206e8ba296a055aa424d4cd84e2a27a9d287c9a800e0374e0e0b7428415a7ee204547942f16cfe9326fd907d6ba852d7428d5216eb5e0083b3dfc0e8308f84610092565b610e8a6105208801357f2f531f5542e1abfac7529b3b3d3feea609e1d8bf7b6d39017f86a893f93e35367f18e6f43d6c8b7f8e601ce2ad2a5f787cd4919a8cf160152e74ed9a0e000957c884610092565b610edb6105408801357f0530ba816a5c7d975e506c7c8c2858fbbff96b4ea5f3cd3a908318b963772f8b7f063e15d671f3d78118ff755bce5fddf66e4ec296e323869d80199f2c99923cf084610092565b610f2c6105608801357f1e3ebd5bbef852ad333a4c628719adf82c45cfa002ddfc161b47ae6443bcedfd7f16dcadd2c9bbd3409bf08df65bd8f7e8d70fb91c5dfd0e09fc130368e1ff46d084610092565b610f7d6105808801357f0ee8243c55a4aaad25df7f4ed8ad64cebca32e750fc00c799e6f0083e4fd3b897f0ef53469e6c030acf779a3417c0424001a920d619effab7f81ebc8bf0203131284610092565b610fce6105a08801357f016d35cfee48d2acdb1b3920adb4a75b6c99a6ac84fb2363102c65be8b1bc0137f23be23cab6ee0ac28acdaf9caee43ea73f7fa6ed293ce421f34d79a83473279e84610092565b61101f6105c08801357f28f4c225c6a95b0bb3754ad81b957f6bc9803d79ef51c7db5d46cee30413322d7f27583923b54bf46368901ec0575f0a9c53222f83a0fbdbb0a553754251e4d86884610092565b6110706105e08801357f02a2043a688fab7916e7f7f6e74a0452ac21079bca6abac02aed383e5350ff7a7f1f2e5bc6abfdfb1e314467d75318e08fd1cf720d58257030a4c8d0f2f8abe59f84610092565b6110c16106008801357f1fbe59ca678d3c5fe6c6e70834461c78c84931247cbcc9cf655cf424a7c1e91c7f0daeb718c525489463724b20ed5d55c5a712bc33b1c023993c552ce8faa5107884610092565b6111126106208801357f23081fac5d24945cf2958c733003c880bebf120f783256540a356dfa7c6705f27f0b1417ff318a6785ec7cf7be634e1da41921bdc4006e2717365de4ed2b131f3884610092565b6111636106408801357f0197a49db24f17fc0d5c95e4f2a0aaa885a2e0b394dbb26cf7e63d9ec873a2db7f0ec2213560161fa44aacbbaee65ad1a460bd692f17396e3faebcc294230d393284610092565b6111b46106608801357f2b427bf2d91e55c68a32449227c70e75a331373244ac35a6c2aa472202b3999d7f1d946d08b26c2ccda6a58caed4aec18d340b743f0036c8e2a6aeacaab297050384610092565b6112056106808801357f05becbdeb13621b3307af19cc653810671df9ab79f8bab48bebb3e9d5919b7e47f047a52aace01a50232d22a8a12bef3b15861c1ddef87a8525c279b03fd81679084610092565b6112566106a08801357f2c587229b6fd47f9546906ed92ccd3c5cf185fa6a745878aa6493e515f5b3c9f7f066fb5d24b0fcfbbce06e8245a2c24fe1fe7e8abc8f1184f53a0a26c96ff766e84610092565b6112a76106c08801357f0f81a99801a11aace81653d31cabe54b4b42b2a5b8c0129f5794c9e7167218027f2a2593246e5c55fa0fe66811a934fa14c6c4e0b9b73c71156adb3d0db8d5ce8f84610092565b6112f86106e08801357f2cf663beb18e2c7d3eb89c59dd1d864bda348051f1a9bfe68c817b9facec4bb77f096c91b2bd3d25d914816ad6d1fdd17d13225360d24b4ebddf91e4cdaa6ecf0c84610092565b6113496107008801357f03fa0d99b7e3dadddc67d02cc2f8b02de465d920618245347b08f7b750c59f777f1ff57aee8be9221af5a57267d39768a01161e0186295b3ce75cfdf693ba4961184610092565b61139a6107208801357f021203393f5d811df90f0b74d4260918b2104d40bc4f5a4353239dd6a07f52357f15827c71e2244388b7ddb087faf98d48b9917b66973b4aae7b7a03a1a8e6650184610092565b6113eb6107408801357f0647ff35289b20082696e6f8987fb1b9ed9acc24d30d10f241d2074031ff71de7f28fa0d0962a55aca1788112af96fb5e52067e3e0c6e706ea23b630b7d9c50fde84610092565b61143c6107608801357f089ceec9f87e540f203ff0b8f10f0ec6741ed42edd4c933b21fbb61e49d1f8017f214132a1c83793e4bcfd1faef7c7f58159bed9ce4b591946afff61b5ed3d352e84610092565b61148d6107808801357f0dd548a0bf1a97651928c20959dc327646a7a8193c3075d662d6bdb886a4bbf77f1bf73f392923bfebb1242651116b3000c625672bcadee872f0a39566d81c48dc84610092565b6114dd6107a08801357e0dc998b3b4520f339aa587bc56865537cb8022ac9d8600b8a1f542ff86ba967f0e57f3bac50a08d7561475250cc0afb41909d73084930c9244ad91e1b34426bb84610092565b61152e6107c08801357f08f1c843ba60352628e7f95b9df2abdda6f2c78e4632407aacb2f969bdcd791a7f0cd92b730415e045c8a281054d4ebbb889990d9b06b1c400299892fff3384d3384610092565b61157f6107e08801357f16b0f679ad619b5b4c9b3796cc0df0a50b1bf3c3ef31951a373f624c15aa85bb7f05c60c20760af5817b5d5343c8460f559cf9d6da13a1efcaf7f4d82008da15a884610092565b6115d06108008801357f1905c2484c457fd2d7b4e0ec75e05d73f2ed1b3eef3717fc9e68e9de0a5ceb8c7f1b20e3c4226bc13a00b79d541598e9bb1054a14de7e94f18bf667fa0402a594884610092565b6116206108208801357eb00720244b0b2fe44c20d8cd3603129d1e3e9537b5a0946d6a1b35fb7c6f827f21a1ac2110745f2f4eb756bb5505d7cc42858876ebef560e9b222b365007d8e084610092565b6116716108408801357f0f5b2aef325138c1effa2ac841151708ff59fc68457cef8346119860a7da91057f1954984709e800899cdc169bd55d15a612c233135ff96624e445c05555f06aa284610092565b6116c26108608801357f240d32f7a5c6a016a15aec5279d672dcc6a3f1cdc4f995a4545072e1482fad487f04dcf88b69d5666e552d8f07bd1a957faba404c1141bb42037d169682d12b89484610092565b6117136108808801357f1250594140559b476029c83c511311f3c7fb5bc2bdcfcfa2ea882e718b73c8bb7f07d9cc54fcce0becd093dae05a759a4a1dcff5454266911fc9642b0de8f2ff5884610092565b6117646108a08801357f25a2a6109c72e27520a866abb47d5e93a6db988682967c6eeed8fb82d4cb64b87f25e444d28dd0b6f02ea711cc58bafbb63fb68ebdea2277bebc17a51d44f25ead84610092565b6117b56108c08801357f27df5478c1166877096c5b3d4c71b906676d4212626fff9c49fcde4befe0648d7f09b44a829a1f59e693e6daa74d1f076223ff751f5209a5f2a26cbde5588cf49c84610092565b6118056108e08801357e162e076878496220c2f90be36ba6e3bef87ef51d267bad27e84bb5dac68b9e7f0e09bed450ca0642dbfa5db00d3f3fc9f56e7f4cc26d27df982bd92b67e076fd84610092565b6118566109008801357f06cc61d484a87ee0de84ac68c0c3f8fb9be10fd60a2eed57aab961a19231213e7f24c4d5483152845a6e9bb0cbbebe3228868b8b89ffc3760554742c5a063776c284610092565b6118a76109208801357f29aca720f35fae3411cd555e9ec810412ab21f04d114d417fa91d1d6026aaf527f12529f1ead3a0e7eb90329bbd2a2063e4f6f1b944af17c6860df0b25c7925b7084610092565b50823581527f30644e72e131a029b85045b68181585d97816a916871ca8d3c208c16d87cfd4760208401357f30644e72e131a029b85045b68181585d97816a916871ca8d3c208c16d87cfd4703066020820152833560408201526020840135606082015260408401356080820152606084013560a08201527f2d4d9aa7e302d9df41749d5507949d05dbea33fbb16c643b22f599a2be6df2e260c08201527f14bedd503c37ceb061d8ec60209fe345ce89830a19230301f076caff004d192660e08201527f0967032fcbf776d1afc985f88877f182d38480a653f2decaa9794cbc3bf3060c6101008201527f0e187847ad4c798374d0d6732bf501847dd68bc0e071241e0213bc7fc13db7ab6101208201527f304cfbd1e08a704a99f5e847d93f8c3caafddec46b7a0d379da69a4d112346a76101408201527f1739c1b1a457a8c7313123d24d2f9192f896b7c63eea05a9d57f06547ad0cec8610160820152600087015161018082015260206000018701516101a08201527f198e9393920d483a7260bfb731fb5d25f1aa493335a9e71297e485b7aef312c26101c08201527f1800deef121f1e76426a00665e5c4479674322d4f75edadd46debd5cd992f6ed6101e08201527f090689d0585ff075ec9e99ad690c3395bc4b313370b38ef355acdadcd122975b6102008201527f12c85ea5db8c6deb4aab71808dcb408fe3d1e7690c43d37b4ce6cc0166fa7daa610220820152843561024082015260208501356102608201527f198e9393920d483a7260bfb731fb5d25f1aa493335a9e71297e485b7aef312c26102808201527f1800deef121f1e76426a00665e5c4479674322d4f75edadd46debd5cd992f6ed6102a08201527f090689d0585ff075ec9e99ad690c3395bc4b313370b38ef355acdadcd122975b6102c08201527f12c85ea5db8c6deb4aab71808dcb408fe3d1e7690c43d37b4ce6cc0166fa7daa6102e08201526020816103008360086107d05a03fa9051169695505050505050565b6040516103808101604052611b9f600084013561005e565b611bac602084013561005e565b611bb9604084013561005e565b611bc6606084013561005e565b611bd3608084013561005e565b611be060a084013561005e565b611bed60c084013561005e565b611bfa60e084013561005e565b611c0861010084013561005e565b611c1661012084013561005e565b611c2461014084013561005e565b611c3261016084013561005e565b611c4061018084013561005e565b611c4e6101a084013561005e565b611c5c6101c084013561005e565b611c6a6101e084013561005e565b611c7861020084013561005e565b611c8661022084013561005e565b611c9461024084013561005e565b611ca261026084013561005e565b611cb061028084013561005e565b611cbe6102a084013561005e565b611ccc6102c084013561005e565b611cda6102e084013561005e565b611ce861030084013561005e565b611cf661032084013561005e565b611d0461034084013561005e565b611d1261036084013561005e565b611d2061038084013561005e565b611d2e6103a084013561005e565b611d3c6103c084013561005e565b611d4a6103e084013561005e565b611d5861040084013561005e565b611d6661042084013561005e565b611d7461044084013561005e565b611d8261046084013561005e565b611d9061048084013561005e565b611d9e6104a084013561005e565b611dac6104c084013561005e565b611dba6104e084013561005e565b611dc861050084013561005e565b611dd661052084013561005e565b611de461054084013561005e565b611df261056084013561005e565b611e0061058084013561005e565b611e0e6105a084013561005e565b611e1c6105c084013561005e565b611e2a6105e084013561005e565b611e3861060084013561005e565b611e4661062084013561005e565b611e5461064084013561005e565b611e6261066084013561005e565b611e7061068084013561005e565b611e7e6106a084013561005e565b611e8c6106c084013561005e565b611e9a6106e084013561005e565b611ea861070084013561005e565b611eb661072084013561005e565b611ec461074084013561005e565b611ed261076084013561005e565b611ee061078084013561005e565b611eee6107a084013561005e565b611efc6107c084013561005e565b611f0a6107e084013561005e565b611f1861080084013561005e565b611f2661082084013561005e565b611f3461084084013561005e565b611f4261086084013561005e565b611f5061088084013561005e565b611f5e6108a084013561005e565b611f6c6108c084013561005e565b611f7a6108e084013561005e565b611f8861090084013561005e565b611f9661092084013561005e565b611fa3818486888a6100fd565b90508060005260206000f35b8060408101831015611fc057600080fd5b92915050565b600080600080610a408587031215611fdd57600080fd5b611fe78686611faf565b935060c0850186811115611ffa57600080fd5b60408601935061200a8782611faf565b92505085610a408601111561201e57600080fd5b5091949093509091610100019056fea26469706673582212205c57ef72a036f136f6f5bbe3b4f54d6977544f94661035e6368b75024dd879f864736f6c634300081b0033",
  "linkReferences": {},
  "deployedLinkReferences": {}
}