{
  "_format": "hh-sol-artifact-1",
  "contractName": "Groth16Verifier_AnonNullifierQurrencyTransfer",
  "sourceName": "contracts/verifiers/verifier_anon_nullifier_qurrency_transfer.sol",
  "abi": [
    {
      "inputs": [
        {
          "internalType": "uint256[2]",
          "name": "_pA",
          "type": "uint256[2]"
        },
        {
          "internalType": "uint256[2][2]",
          "name": "_pB",
          "type": "uint256[2][2]"
        },
        {
          "internalType": "uint256[2]",
          "name": "_pC",
          "type": "uint256[2]"
        },
        {
          "internalType": "uint256[9]",
          "name": "_pubSignals",
          "type": "uint256[9]"
        }
      ],
      "name": "verifyProof",
      "outputs": [
        {
          "internalType": "bool",
          "name": "",
          "type": "bool"
        }
      ],
      "stateMutability": "view",
      "type": "function"
    }
  ],
  "bytecode": "0x6080604052348015600f57600080fd5b506108488061001f6000396000f3fe608060405234801561001057600080fd5b506004361061002b5760003560e01c8063c542c93b14610030575b600080fd5b61004361003e3660046107ab565b610057565b604051901515815260200160405180910390f35b60006106fa565b7f30644e72e131a029b85045b68181585d2833e84879b9709143e1f593f0000001811061008f576000805260206000f35b50565b600060405183815284602082015285604082015260408160608360076107d05a03fa9150816100c5576000805260206000f35b825160408201526020830151606082015260408360808360066107d05a03fa915050806100f6576000805260206000f35b5050505050565b7f0d0d833f4f3402f45379af2c5422237312add931392e448019de5af6e68c617685527f2e9b10e65aa9a914add074f24c7caf6c1b4bbf3aea9ef2854ab4b8aae79f95ee60208601526000608086018661019987357f1959ed9915752e74a2dfed5f518e5f17f3bb0bddf600fb4156e015d0097c72c67e9cf1e133fd3ff2b764ff271e16df3d5f6955410bce8e1330ecc02de19b716884610092565b6101e960208801357f23509076178ab3221c2aa14ca44eeca634e02907a15001b28866d91f7dc392f37f0c6c9e4d8864fb79d743046f1f76afedea99fbe38d81d6ac36cf08765bae853484610092565b61023960408801357f2ab6d44536cbf2ca3f18615258c6a107795f189fe50200426e531ff6d2c4e0407f25927847042e66e4ac1097cf74b863ac0b7ce395015940c981256e94a960955784610092565b61028960608801357f1c23da8a523a5a69cf1bffed0605095edec627f5dc04133aee23cb86d039df297f12ca0b066c49a5fa02e6af156ce5ce363845efe8b4c9ad522581f7cda34642a284610092565b6102d960808801357f2dfef64d50aef5cbc372c8018483aa99bef9bfc6745cf6614a1b540b2681d3967f28ed2be5a485f1ec6ea52227f5e88a6e478b2eb579e566e10f8a47f068dbade584610092565b61032960a08801357f25498422fc5210acfd3398300ec0ec33a6abe72489c9384eabda3daa67c597a37f14b9640809642c53a6a6fc2e07d7f09063dc85503756a070d0e4915cb413510684610092565b61037960c08801357f27fed1afbd5f6c909f8a6a1ae798199124dc8506a37b8498490508f8d9be25bc7f1ada4d2fa4fd5f1767bccbc50eabe7c1239fe8d9026de39d200595fe4ec9c3dd84610092565b6103c960e08801357f07785a4c1bfe116cb8d25b16e9769e11261dcca636395dbf9db4e7aee16bc12c7f1728836aa7eb4deda207de2b48ea42708e8e9de909e399122b10fa9afaf3b3bd84610092565b61041a6101008801357f0fa7850f32cf6e2490914485776fe291b3e8732781c0f2de1ca38ca8379468a47f042c2529d3827a614b3763339ee5f250e2aae843a61a75cc59ddec55aca5845084610092565b50823581527f30644e72e131a029b85045b68181585d97816a916871ca8d3c208c16d87cfd4760208401357f30644e72e131a029b85045b68181585d97816a916871ca8d3c208c16d87cfd4703066020820152833560408201526020840135606082015260408401356080820152606084013560a08201527f2d4d9aa7e302d9df41749d5507949d05dbea33fbb16c643b22f599a2be6df2e260c08201527f14bedd503c37ceb061d8ec60209fe345ce89830a19230301f076caff004d192660e08201527f0967032fcbf776d1afc985f88877f182d38480a653f2decaa9794cbc3bf3060c6101008201527f0e187847ad4c798374d0d6732bf501847dd68bc0e071241e0213bc7fc13db7ab6101208201527f304cfbd1e08a704a99f5e847d93f8c3caafddec46b7a0d379da69a4d112346a76101408201527f1739c1b1a457a8c7313123d24d2f9192f896b7c63eea05a9d57f06547ad0cec8610160820152600087015161018082015260206000018701516101a08201527f198e9393920d483a7260bfb731fb5d25f1aa493335a9e71297e485b7aef312c26101c08201527f1800deef121f1e76426a00665e5c4479674322d4f75edadd46debd5cd992f6ed6101e08201527f090689d0585ff075ec9e99ad690c3395bc4b313370b38ef355acdadcd122975b6102008201527f12c85ea5db8c6deb4aab71808dcb408fe3d1e7690c43d37b4ce6cc0166fa7daa610220820152843561024082015260208501356102608201527f198e9393920d483a7260bfb731fb5d25f1aa493335a9e71297e485b7aef312c26102808201527f1800deef121f1e76426a00665e5c4479674322d4f75edadd46debd5cd992f6ed6102a08201527f090689d0585ff075ec9e99ad690c3395bc4b313370b38ef355acdadcd122975b6102c08201527f12c85ea5db8c6deb4aab71808dcb408fe3d1e7690c43d37b4ce6cc0166fa7daa6102e08201526020816103008360086107d05a03fa9051169695505050505050565b6040516103808101604052610712600084013561005e565b61071f602084013561005e565b61072c604084013561005e565b610739606084013561005e565b610746608084013561005e565b61075360a084013561005e565b61076060c084013561005e565b61076d60e084013561005e565b61077b61010084013561005e565b610788818486888a6100fd565b90508060005260206000f35b80604081018310156107a557600080fd5b92915050565b60008060008061022085870312156107c257600080fd5b6107cc8686610794565b935060c08501868111156107df57600080fd5b6040860193506107ef8782610794565b925050856102208601111561080357600080fd5b5091949093509091610100019056fea26469706673582212204b330f4df3a5609e6e4b891953a9aeb342804e20f0999a716665ecf0db6b8b0664736f6c634300081b0033",
  "linkReferences": {},
  "deployedLinkReferences": {}
}