{
  "_format": "hh-sol-artifact-1",
  "contractName": "Groth16Verifier_AnonNullifierKycTransferBatch",
  "sourceName": "contracts/verifiers/verifier_anon_nullifier_kyc_transfer_batch.sol",
  "abi": [
    {
      "inputs": [
        {
          "internalType": "uint256[2]",
          "name": "_pA",
          "type": "uint256[2]"
        },
        {
          "internalType": "uint256[2][2]",
          "name": "_pB",
          "type": "uint256[2][2]"
        },
        {
          "internalType": "uint256[2]",
          "name": "_pC",
          "type": "uint256[2]"
        },
        {
          "internalType": "uint256[32]",
          "name": "_pubSignals",
          "type": "uint256[32]"
        }
      ],
      "name": "verifyProof",
      "outputs": [
        {
          "internalType": "bool",
          "name": "",
          "type": "bool"
        }
      ],
      "stateMutability": "view",
      "type": "function"
    }
  ],
  "bytecode": "0x6080604052348015600f57600080fd5b506110d18061001f6000396000f3fe608060405234801561001057600080fd5b506004361061002b5760003560e01c80633cc08b2414610030575b600080fd5b61004361003e366004611034565b610057565b604051901515815260200160405180910390f35b6000610e41565b7f30644e72e131a029b85045b68181585d2833e84879b9709143e1f593f0000001811061008f576000805260206000f35b50565b600060405183815284602082015285604082015260408160608360076107d05a03fa9150816100c5576000805260206000f35b825160408201526020830151606082015260408360808360066107d05a03fa915050806100f6576000805260206000f35b5050505050565b7f07bb1e6aeaf52ee227efbeb4486f52dfea8b31dac7fe7b0a4f9a345c6334e24685527f0dbe7189ec26d111de5028f76c0782c113c6d3f845c60e3f0f5f9a1029c7e7bf60208601526000608086018661019a87357f22ac3da4d9de10948216152a261218338c7131455165f322b68a30c3beeb2d557f1326830acbe3d557b2487c3f6f949b4de0e5861370c925bfadbdf9a2b6f0220084610092565b6101ea60208801357f0907e5d7170518946af741da83c9ee28df946f98bf111dc66ab86ee9476d2dd57f0ac160e0a9fb8c17d54e910ee9d8f8b525b05ffc8f2e786f2eccc38640edadfe84610092565b61023a60408801357f039330381adb6fa911f944f864ad8fc8e5f4a42f8170c21205570f2bceec4f097f1833966829acf68de9ab2045bb1d88f1c2d66e1513d28e4f6102972147dfd6ce84610092565b61028a60608801357f2d102828e0fb76c915cc1740b9577873ecd75adefbdb4046350f301cec5fa8f07f023c75b596bd5a4219e749c0352c7120001e39d7eeadb2cb7946b86590685acc84610092565b6102da60808801357f09fbe7fde4518d41818c7a7e607c37252975e9fcd644e8d9dddbb476c1a99b1e7f128a556f94b845835c8711e317eee42dd99956a32b6639b0c62568f55ec11f7084610092565b61032a60a08801357f2f038b324426e9066d211be3170f286470b5eadc81314f62ae261f4fec8b35ff7f274c951d51fc7721a2afbbd9e02f1b419d6d6df50cf61a9d0a0071191403b7c484610092565b61037a60c08801357f0b4a8efb44308710af154727dd56f72300fb6515c0fa0b50b110d6b8192b9e3f7f28ec11e4a5975b890cedd2a1a28296963413688f066769d48fc7777230be26f684610092565b6103ca60e08801357f237abd79dfba3728ba096d423ca868653255c3f8f92a56844fb7309ec3a374c97f28824fd78c87195daed2e4ef8743545e30d9ee387b8dab691f8a28d3f7a2590b84610092565b61041b6101008801357f24edb890e128b104f9fb93c98d8444ae0fae3c0a330bafe6d2fd55801db853187f25386cf50867221746489bd5432a788724193cff761246a49d66f3122b902a0684610092565b61046c6101208801357f2ba5fc117e6fdc2976b448a438375acfd297b62e882511a686d2b08c05bf02a27f123e1e9c79c2352bf5505c8b22b6adeff5ab76e786d688353e5b8143e89c138684610092565b6104bd6101408801357f19d9f8217d086b50627b9b935bd87c0b94a649234e80bbb02cc86301a59fb5ef7f0ce4688783a030deef228a452c310fb960243eaa443745d966771aff3915979d84610092565b61050e6101608801357f01b639582f40f3ef56fdd04740412e716cf9f629a1c929b4eb918f24d2aa72a57f17b48ada52dbaf94d7911af7955c18ddc3ff529847b5a5e0a8708b3ad7df5e1584610092565b61055f6101808801357f0d46164e43cf94576c99913a3a6f880b5f11bf47bc4976127e64835d58a08acb7f1964ebd0822b7703295093826cdce3ebef979a8521f706ccdd6d18c0e9e5bce684610092565b6105b06101a08801357f2500070406ffd6eb7c551ec87b126ea5df82cf132bb85ec21ae787d7664bab077f0836c358d25905954325728047fdb9562af1016e71e21fc3ddb0313fe8c28c7984610092565b6106016101c08801357f25131148788de15862b8cdc5e106fab72c4b003397c89d20ea5013748c7358077f29474e16528def19fdbad59e57430651147d3702b0f9d985c1fdd325f0a5ae3284610092565b6106526101e08801357f1f223feb5cfc86b5d1f54525570a1d9ca623c60684da6e7a817876e81004f0a17f184b1768967d32eb8e9875667698ab4d13571102b1a20134640c10fa5e15b5a584610092565b6106a36102008801357f07e1374bd4014eb5c5e592b33cbffabaf709429fcd4fd28e2b9f2815fe31ec027f01f74d63ad9aec0c925002c8debfc528b0658981590f25ef90ddbe835b32039984610092565b6106f46102208801357f2dfe0c5a800d2b6fd429bcf3d9c62b572fa0b0bc3f9e0a73870857a6232e96077f10a9104ec36baac40851f9f99033040a131f5333e672dcd056cb8a1c452e142084610092565b6107456102408801357f249fe278985031117f4d30834005c4087bb1874434a4223f358cdfe4c9c221d57f12fa3b566b9184510ae0b34422375064b8ce377e1b272f007365e2f3676963d084610092565b6107966102608801357f23517a5cd162aa55035d173c0c5252a37dbf5739614ddf9eb29962d513620ca57f1de3116a5ae8835c680cf77f834a8d135ad52dfb9ea6b007e98d9a76a6b4766084610092565b6107e76102808801357f06111baac9534f313a58ed7cff43395364643513797ade7688c96c94291410767f2cd72ebaa09a3d935b8c638fbe840278aeee6d850991dae9f5045efee9f6ac0f84610092565b6108386102a08801357f20cf06048ef4070fc7fc92608dc1c6975e80f9943843f73f055fb3a2d68a15897f22a8e1cb20315592d06c966b2b5ab966db7cb2eee4d9a29bca80712eeceef0e584610092565b6108896102c08801357f0db84cf76ac605e38f3f9e34f1fcbd7b4043f2b5a948f725b38565af483193817f218646c81994116b0042dd0d19ba2fd13be0706ce1b001c5f2ffbb3def8d274684610092565b6108d96102e08801357eb94a645ce9fdf0573ba2c7340d52b52f14cca7e63d97db074c51bc73b623ab7f0600ad9ca539f27bad0314c3edeba334956dd0028ba2936c5a4834a91c30703d84610092565b61092a6103008801357f07b1452f49ded6ac5bfa99cab12e1898b773b279a07d7be4f0210f6406efe9f27f098b2a939fe98660078b48a4566cfbc5e7aeb099b48a852188296a905c6a72af84610092565b61097b6103208801357f2730cfef069c9aefdf2b6d13a95797899d1679f4310e1edda61ad768a6fc14927f090aa49e370a6f8ac6f20371361a3123146cded5879403f7b2ddc227530896aa84610092565b6109cc6103408801357f01429bb0e105e322f7e8a25c0030a32e46ac35b737c8772700d883d2078fd0a07f2a24ac82f73374c95a6d66d50fa6cfd1da500b1890d55218108c58e0346696bb84610092565b610a1d6103608801357f2915a005f703036624cad06e5a4097f7db9c4b02a28063840ce858ff7eaf65b07f056ae500c8589468f31f94778100e25cbf1101e271574ff3737778fb50a5460f84610092565b610a6e6103808801357f022d5fe4fcce95f022a0ff94b18a670723020b82d4137ddd9fc990c2e12164867f2a877b397b8b332358702d28a79e9a72ebabcf6febece38486f034c1b57727a684610092565b610abf6103a08801357f1fca82f616fc260081bdd3d3f7cd1a4c1cc1b053adbffa7e684abd3f23688a0d7f16a2e4ecad6afee186c53251b46f74a7639c1256b68f8a2434e235c27146313f84610092565b610b106103c08801357f08c1f927aeab5e3e0b525a6540ec7886e96e89af8bae4e4869c861a54ea5e3397f153d12a9c65c72e06797a9c9027f6ed41789f6f01969c99f9bc84f6030a323cb84610092565b610b616103e08801357f1cca93179a771b14c24dec21e3f910a26840112d114cc262928f187adb98a92a7f3050913f40f52056dffaed4e5ca9256b1106586a0e9b138a1b485e75115e167e84610092565b50823581527f30644e72e131a029b85045b68181585d97816a916871ca8d3c208c16d87cfd4760208401357f30644e72e131a029b85045b68181585d97816a916871ca8d3c208c16d87cfd4703066020820152833560408201526020840135606082015260408401356080820152606084013560a08201527f2d4d9aa7e302d9df41749d5507949d05dbea33fbb16c643b22f599a2be6df2e260c08201527f14bedd503c37ceb061d8ec60209fe345ce89830a19230301f076caff004d192660e08201527f0967032fcbf776d1afc985f88877f182d38480a653f2decaa9794cbc3bf3060c6101008201527f0e187847ad4c798374d0d6732bf501847dd68bc0e071241e0213bc7fc13db7ab6101208201527f304cfbd1e08a704a99f5e847d93f8c3caafddec46b7a0d379da69a4d112346a76101408201527f1739c1b1a457a8c7313123d24d2f9192f896b7c63eea05a9d57f06547ad0cec8610160820152600087015161018082015260206000018701516101a08201527f198e9393920d483a7260bfb731fb5d25f1aa493335a9e71297e485b7aef312c26101c08201527f1800deef121f1e76426a00665e5c4479674322d4f75edadd46debd5cd992f6ed6101e08201527f090689d0585ff075ec9e99ad690c3395bc4b313370b38ef355acdadcd122975b6102008201527f12c85ea5db8c6deb4aab71808dcb408fe3d1e7690c43d37b4ce6cc0166fa7daa610220820152843561024082015260208501356102608201527f198e9393920d483a7260bfb731fb5d25f1aa493335a9e71297e485b7aef312c26102808201527f1800deef121f1e76426a00665e5c4479674322d4f75edadd46debd5cd992f6ed6102a08201527f090689d0585ff075ec9e99ad690c3395bc4b313370b38ef355acdadcd122975b6102c08201527f12c85ea5db8c6deb4aab71808dcb408fe3d1e7690c43d37b4ce6cc0166fa7daa6102e08201526020816103008360086107d05a03fa9051169695505050505050565b6040516103808101604052610e59600084013561005e565b610e66602084013561005e565b610e73604084013561005e565b610e80606084013561005e565b610e8d608084013561005e565b610e9a60a084013561005e565b610ea760c084013561005e565b610eb460e084013561005e565b610ec261010084013561005e565b610ed061012084013561005e565b610ede61014084013561005e565b610eec61016084013561005e565b610efa61018084013561005e565b610f086101a084013561005e565b610f166101c084013561005e565b610f246101e084013561005e565b610f3261020084013561005e565b610f4061022084013561005e565b610f4e61024084013561005e565b610f5c61026084013561005e565b610f6a61028084013561005e565b610f786102a084013561005e565b610f866102c084013561005e565b610f946102e084013561005e565b610fa261030084013561005e565b610fb061032084013561005e565b610fbe61034084013561005e565b610fcc61036084013561005e565b610fda61038084013561005e565b610fe86103a084013561005e565b610ff66103c084013561005e565b6110046103e084013561005e565b611011818486888a6100fd565b90508060005260206000f35b806040810183101561102e57600080fd5b92915050565b600080600080610500858703121561104b57600080fd5b611055868661101d565b935060c085018681111561106857600080fd5b604086019350611078878261101d565b925050856105008601111561108c57600080fd5b5091949093509091610100019056fea264697066735822122076a39f16a70dc140294caf433cc6c1ae5dd791d46206048becbafacb3f29a37a64736f6c634300081b0033",
  "linkReferences": {},
  "deployedLinkReferences": {}
}