{
  "_format": "hh-sol-artifact-1",
  "contractName": "Groth16Verifier_AnonNullifierKycTransfer",
  "sourceName": "contracts/verifiers/verifier_anon_nullifier_kyc_transfer.sol",
  "abi": [
    {
      "inputs": [
        {
          "internalType": "uint256[2]",
          "name": "_pA",
          "type": "uint256[2]"
        },
        {
          "internalType": "uint256[2][2]",
          "name": "_pB",
          "type": "uint256[2][2]"
        },
        {
          "internalType": "uint256[2]",
          "name": "_pC",
          "type": "uint256[2]"
        },
        {
          "internalType": "uint256[8]",
          "name": "_pubSignals",
          "type": "uint256[8]"
        }
      ],
      "name": "verifyProof",
      "outputs": [
        {
          "internalType": "bool",
          "name": "",
          "type": "bool"
        }
      ],
      "stateMutability": "view",
      "type": "function"
    }
  ],
  "bytecode": "0x6080604052348015600f57600080fd5b506107e98061001f6000396000f3fe608060405234801561001057600080fd5b506004361061002b5760003560e01c8063c9219a7a14610030575b600080fd5b61004361003e36600461074c565b610057565b604051901515815260200160405180910390f35b60006106a9565b7f30644e72e131a029b85045b68181585d2833e84879b9709143e1f593f0000001811061008f576000805260206000f35b50565b600060405183815284602082015285604082015260408160608360076107d05a03fa9150816100c5576000805260206000f35b825160408201526020830151606082015260408360808360066107d05a03fa915050806100f6576000805260206000f35b5050505050565b7f0a0ec99df963d94fa4acf5d1efd0a774219af392d0a64d2ca4899045c92ded7285527f0d28213d4541abf657b11ca7d962d24a18616ba7b77ef233dff7a7fd5a92e57860208601526000608086018661019a87357f0b451da6fc9a88db88a2a5983e2c29b7fa52406e40255656e360d18762f0488c7f02b045ef279bd5f1376cb3096a5ac0934c81e2e75977c6d706168613e1bfd56c84610092565b6101ea60208801357f1c5745a15c0e4d5451a118f3a8ff5d984b16ee2d42f72dc0017eadd15253be3e7f18ad472dc0af9006bc58a5cfc50fa525d6d21a04825b63513e3d16c21c029dfd84610092565b61023a60408801357f24b4b4d195029d4a9951137b943dd182cf2e815a9f425b40214c7f4ce5679d957f14b47c59a1aa4a12602fbc31672224267fcae053ce21b1e562dd831a7badbb6484610092565b61028a60608801357f22c5c3546d7e8a762b4e73277c1667b10e2582e5be9232210a50adeb7744b6c37f24c3494f399b09e3de25709624f7966f4ef0678a3c15e71f4e7ab655f81e0fb384610092565b6102da60808801357f1801566672c8804a1d9110e53496ab798087ee872d3ee64e211647d7864dfbd27f0ce275a3ee609246a69d08112190a8a894592040677cdec24667400a3a312a6b84610092565b61032a60a08801357f1ce19c8a4360e4462870d839a0d8367801abea93b3f0287eec50802b04b1a98c7f0f43d5f93700df129674040ac07c393bf57f4e11e36a6750696e426af63ec6f184610092565b61037960c08801357e9c1daab99e2d9029108c4a273cecbe0495efb06390b8ab914fd3d18fd6cb1c7f20b43b8496878a0799e46de70ed09ffc055ae60d5ed52bf2574ef2487b1c5bdb84610092565b6103c960e08801357f06ed0d80d5e5210282c7a36242c0a312486a2b7fda9b14aff73f08524b0aff587f153ef7a955a23bda5925429df08201261f82d36adcfd22ddbcc2222a6cd2cd2484610092565b50823581527f30644e72e131a029b85045b68181585d97816a916871ca8d3c208c16d87cfd4760208401357f30644e72e131a029b85045b68181585d97816a916871ca8d3c208c16d87cfd4703066020820152833560408201526020840135606082015260408401356080820152606084013560a08201527f2d4d9aa7e302d9df41749d5507949d05dbea33fbb16c643b22f599a2be6df2e260c08201527f14bedd503c37ceb061d8ec60209fe345ce89830a19230301f076caff004d192660e08201527f0967032fcbf776d1afc985f88877f182d38480a653f2decaa9794cbc3bf3060c6101008201527f0e187847ad4c798374d0d6732bf501847dd68bc0e071241e0213bc7fc13db7ab6101208201527f304cfbd1e08a704a99f5e847d93f8c3caafddec46b7a0d379da69a4d112346a76101408201527f1739c1b1a457a8c7313123d24d2f9192f896b7c63eea05a9d57f06547ad0cec8610160820152600087015161018082015260206000018701516101a08201527f198e9393920d483a7260bfb731fb5d25f1aa493335a9e71297e485b7aef312c26101c08201527f1800deef121f1e76426a00665e5c4479674322d4f75edadd46debd5cd992f6ed6101e08201527f090689d0585ff075ec9e99ad690c3395bc4b313370b38ef355acdadcd122975b6102008201527f12c85ea5db8c6deb4aab71808dcb408fe3d1e7690c43d37b4ce6cc0166fa7daa610220820152843561024082015260208501356102608201527f198e9393920d483a7260bfb731fb5d25f1aa493335a9e71297e485b7aef312c26102808201527f1800deef121f1e76426a00665e5c4479674322d4f75edadd46debd5cd992f6ed6102a08201527f090689d0585ff075ec9e99ad690c3395bc4b313370b38ef355acdadcd122975b6102c08201527f12c85ea5db8c6deb4aab71808dcb408fe3d1e7690c43d37b4ce6cc0166fa7daa6102e08201526020816103008360086107d05a03fa9051169695505050505050565b60405161038081016040526106c1600084013561005e565b6106ce602084013561005e565b6106db604084013561005e565b6106e8606084013561005e565b6106f5608084013561005e565b61070260a084013561005e565b61070f60c084013561005e565b61071c60e084013561005e565b610729818486888a6100fd565b90508060005260206000f35b806040810183101561074657600080fd5b92915050565b600080600080610200858703121561076357600080fd5b61076d8686610735565b935060c085018681111561078057600080fd5b6040860193506107908782610735565b92505085610200860111156107a457600080fd5b5091949093509091610100019056fea2646970667358221220e44dd219e105e3d9f4faa5fc27b55db30eb3dc6fd4f29664da14837853bd8ef164736f6c634300081b0033",
  "linkReferences": {},
  "deployedLinkReferences": {}
}