{
  "_format": "hh-sol-artifact-1",
  "contractName": "Groth16Verifier_WithdrawNullifier",
  "sourceName": "contracts/verifiers/verifier_withdraw_nullifier.sol",
  "abi": [
    {
      "inputs": [
        {
          "internalType": "uint256[2]",
          "name": "_pA",
          "type": "uint256[2]"
        },
        {
          "internalType": "uint256[2][2]",
          "name": "_pB",
          "type": "uint256[2][2]"
        },
        {
          "internalType": "uint256[2]",
          "name": "_pC",
          "type": "uint256[2]"
        },
        {
          "internalType": "uint256[7]",
          "name": "_pubSignals",
          "type": "uint256[7]"
        }
      ],
      "name": "verifyProof",
      "outputs": [
        {
          "internalType": "bool",
          "name": "",
          "type": "bool"
        }
      ],
      "stateMutability": "view",
      "type": "function"
    }
  ],
  "bytecode": "0x6080604052348015600f57600080fd5b5061078d8061001f6000396000f3fe608060405234801561001057600080fd5b506004361061002b5760003560e01c8063c894e75714610030575b600080fd5b61004361003e3660046106f0565b610057565b604051901515815260200160405180910390f35b600061065a565b7f30644e72e131a029b85045b68181585d2833e84879b9709143e1f593f0000001811061008f576000805260206000f35b50565b600060405183815284602082015285604082015260408160608360076107d05a03fa9150816100c5576000805260206000f35b825160408201526020830151606082015260408360808360066107d05a03fa915050806100f6576000805260206000f35b5050505050565b7f0be0b51fa2e9b1e6f48812451c8c86995f555395d2f1caab0d2ba40b6d8e07e885527f267cb05a5fc21a73c6b273873db647d32ee5027de47a49eaf3617176382b97f360208601526000608086018661019a87357f07c2e2e2b83413ac47965d2376081f08ffa834fb1f5243629215fe19bcd669cf7f296418d007ccb0712e034ff6fca69a27842cb515464d23e23216fd232e5e7fa884610092565b6101ea60208801357f1f1b2b67a51ac1cbdf6aa2a4100865a5012746c197e7082dd7c6e94f5efd17d37f11f4fa8771bdec80e0b9088a79e062512be452c2e5fb134f943f7aef3c42864184610092565b61023a60408801357f078c593126bc1e172561e227d729fe3c246ee6ec519286c8ff75eb39c11ee7487f1aa696b5ae4288d7ba6b3bad9240f9c6ceb6919172d5cf42de136982a332c07584610092565b61028a60608801357f296e6c3d48908cd63fc9d880e72661eaf394c5c0dcc2011e40d967bf1b48561f7f2df5ae44f7d9ccaacc319df613b973b15fcaa9634d29ef3025665ed3c59fc98c84610092565b6102da60808801357f23e21c3b82eccedf209d086bed262ca2b8e9b76a83840276b60d27b223a5abaa7f2c1c30eed3c5953a7dfdb347c9b596c613f91ccd280e429060ab313bb2adf61e84610092565b61032a60a08801357f2e362adb2b331a4e90006bf87158a7a8db1fd80a1e3c160cb871864b9a2705897f1d222968d5511d36a8bedee78532fb2af2bb6cbe7481b9040e0f4a874537af8884610092565b61037a60c08801357f185c2ad79c8b3ba01229c2c37c4dfd8864f36ecfee5985f566792891ec5e51df7f238d79a22cca74aa21fcf08e86ab4c338e9e0dcc26d2aa84a991426576cbea0984610092565b50823581527f30644e72e131a029b85045b68181585d97816a916871ca8d3c208c16d87cfd4760208401357f30644e72e131a029b85045b68181585d97816a916871ca8d3c208c16d87cfd4703066020820152833560408201526020840135606082015260408401356080820152606084013560a08201527f2d4d9aa7e302d9df41749d5507949d05dbea33fbb16c643b22f599a2be6df2e260c08201527f14bedd503c37ceb061d8ec60209fe345ce89830a19230301f076caff004d192660e08201527f0967032fcbf776d1afc985f88877f182d38480a653f2decaa9794cbc3bf3060c6101008201527f0e187847ad4c798374d0d6732bf501847dd68bc0e071241e0213bc7fc13db7ab6101208201527f304cfbd1e08a704a99f5e847d93f8c3caafddec46b7a0d379da69a4d112346a76101408201527f1739c1b1a457a8c7313123d24d2f9192f896b7c63eea05a9d57f06547ad0cec8610160820152600087015161018082015260206000018701516101a08201527f198e9393920d483a7260bfb731fb5d25f1aa493335a9e71297e485b7aef312c26101c08201527f1800deef121f1e76426a00665e5c4479674322d4f75edadd46debd5cd992f6ed6101e08201527f090689d0585ff075ec9e99ad690c3395bc4b313370b38ef355acdadcd122975b6102008201527f12c85ea5db8c6deb4aab71808dcb408fe3d1e7690c43d37b4ce6cc0166fa7daa610220820152843561024082015260208501356102608201527f198e9393920d483a7260bfb731fb5d25f1aa493335a9e71297e485b7aef312c26102808201527f1800deef121f1e76426a00665e5c4479674322d4f75edadd46debd5cd992f6ed6102a08201527f090689d0585ff075ec9e99ad690c3395bc4b313370b38ef355acdadcd122975b6102c08201527f12c85ea5db8c6deb4aab71808dcb408fe3d1e7690c43d37b4ce6cc0166fa7daa6102e08201526020816103008360086107d05a03fa9051169695505050505050565b6040516103808101604052610672600084013561005e565b61067f602084013561005e565b61068c604084013561005e565b610699606084013561005e565b6106a6608084013561005e565b6106b360a084013561005e565b6106c060c084013561005e565b6106cd818486888a6100fd565b90508060005260206000f35b80604081018310156106ea57600080fd5b92915050565b6000806000806101e0858703121561070757600080fd5b61071186866106d9565b935060c085018681111561072457600080fd5b60408601935061073487826106d9565b925050856101e08601111561074857600080fd5b5091949093509091610100019056fea26469706673582212202442d906266851e0045841b55b2f47efb361e6ef15c3a268d7ba8b69e7086baf64736f6c634300081b0033",
  "linkReferences": {},
  "deployedLinkReferences": {}
}