{
  "_format": "hh-sol-artifact-1",
  "contractName": "Groth16Verifier_WithdrawBatch",
  "sourceName": "contracts/verifiers/verifier_withdraw_batch.sol",
  "abi": [
    {
      "inputs": [
        {
          "internalType": "uint256[2]",
          "name": "_pA",
          "type": "uint256[2]"
        },
        {
          "internalType": "uint256[2][2]",
          "name": "_pB",
          "type": "uint256[2][2]"
        },
        {
          "internalType": "uint256[2]",
          "name": "_pC",
          "type": "uint256[2]"
        },
        {
          "internalType": "uint256[12]",
          "name": "_pubSignals",
          "type": "uint256[12]"
        }
      ],
      "name": "verifyProof",
      "outputs": [
        {
          "internalType": "bool",
          "name": "",
          "type": "bool"
        }
      ],
      "stateMutability": "view",
      "type": "function"
    }
  ],
  "bytecode": "0x6080604052348015600f57600080fd5b506109668061001f6000396000f3fe608060405234801561001057600080fd5b506004361061002b5760003560e01c80638cbac0fa14610030575b600080fd5b61004361003e3660046108c9565b610057565b604051901515815260200160405180910390f35b60006107ee565b7f30644e72e131a029b85045b68181585d2833e84879b9709143e1f593f0000001811061008f576000805260206000f35b50565b600060405183815284602082015285604082015260408160608360076107d05a03fa9150816100c5576000805260206000f35b825160408201526020830151606082015260408360808360066107d05a03fa915050806100f6576000805260206000f35b5050505050565b7f1a32fdd12a626587a7368643914809ec74c4561967fc4c4a5fdc10d6c30ca09c85527f0f3d725ded0269ddca3fa06a1a548c2d421bbf1b7d212f5e576c0ef403e3c30a60208601526000608086018661019a87357f27caa6939f7bff33afb1146942a4116e543c486b036444f74fff4e62b7318a4a7f046f5ffd5ad0fa7ba351cee796848d4f5f9174683caf1f097c237727ae9cf5ad84610092565b6101ea60208801357f1f168b652a045c6704f1560c41b4354fe65a4dc34af2c7753ad9cc4c357fd5a47f09129c5e3c00d09449810c286ebad038b733eada88efd6ed6a8d5cc6ad61769284610092565b61023a60408801357f27476dbc884e2d09863c98f433e596abe3580a2674fca0466e0fbd5f902f79e07f0264473396740ffc891373c40c7d32e8cd404501f30664064f28c0ae432a80bb84610092565b61028a60608801357f17855c7c2596a66ebddcccdbd07c85a7562009aaebf8f868691f7dada4add6aa7f2d22d3325b37b835fbf48a9016bc34a32ae01c11735ba139e9b868c741c29ac284610092565b6102da60808801357f300208530cf93d16f86b0497704565f286fa589a4855241987293b194ff672337f263168a3e5e7fe00fd02ea2cbed27b573dbad1553dbabe315f74bfac1a43dcdc84610092565b61032a60a08801357f0a4de01a4db1e6214514cc152abfd6d3847dd8f21a6247448eef8e2952693ea97f0a4d4872d3deb1af95bf7850f4402f67e4e4464b7f7963eff0a53192c455228484610092565b61037a60c08801357f13cad6ba923839550b6e181da9bc84c91879eb1630eeb97bd67c52edd8b3eb357f0c58d37bc30377887bb643727fed01d04237764a48ba5a11b14f0ad1bb9d3d6384610092565b6103ca60e08801357f2cc86b9c180c3bed888e247e3f0387c5ac97e703c4ded3f630b2ddc5a4fc760d7f0b1a7a72c46cfa07da2af6229f8304aa993b99bbb04a388b8c1e9d4de2e6c48184610092565b61041b6101008801357f2138b8048399713116ecc8219eec91fbf8efbf08fea1bf36452925acb907686e7f02705501a3400ead4e72cc98bdcc4237b9500b66cee3a8a24493ab78ba81689684610092565b61046c6101208801357f156114a33dfb4957a79a6f46c7423cf1c76fcfc1fbee037a35f7bde6d93a40f67f2c0dae934a996b57f14a6488952b4d969795644c2d3b3973d5b388ab1cedaf3884610092565b6104bd6101408801357f1ee28fe28e5728511ae5dffeae2e6f3fb407c219a0408aada8dca80f836aeebf7f14d26129510a78d5472b8149ab095a8b130c4f91cf1e826cdec5a4b2e21b4fd384610092565b61050e6101608801357f03b51712b236193be040569665d6f289bbd65e2988a7e65fb04f6ce687fb309a7f120e88d63f43756b1b37e6125d62f0bc22aa35c5c1f8c541180431740f1027fd84610092565b50823581527f30644e72e131a029b85045b68181585d97816a916871ca8d3c208c16d87cfd4760208401357f30644e72e131a029b85045b68181585d97816a916871ca8d3c208c16d87cfd4703066020820152833560408201526020840135606082015260408401356080820152606084013560a08201527f2d4d9aa7e302d9df41749d5507949d05dbea33fbb16c643b22f599a2be6df2e260c08201527f14bedd503c37ceb061d8ec60209fe345ce89830a19230301f076caff004d192660e08201527f0967032fcbf776d1afc985f88877f182d38480a653f2decaa9794cbc3bf3060c6101008201527f0e187847ad4c798374d0d6732bf501847dd68bc0e071241e0213bc7fc13db7ab6101208201527f304cfbd1e08a704a99f5e847d93f8c3caafddec46b7a0d379da69a4d112346a76101408201527f1739c1b1a457a8c7313123d24d2f9192f896b7c63eea05a9d57f06547ad0cec8610160820152600087015161018082015260206000018701516101a08201527f198e9393920d483a7260bfb731fb5d25f1aa493335a9e71297e485b7aef312c26101c08201527f1800deef121f1e76426a00665e5c4479674322d4f75edadd46debd5cd992f6ed6101e08201527f090689d0585ff075ec9e99ad690c3395bc4b313370b38ef355acdadcd122975b6102008201527f12c85ea5db8c6deb4aab71808dcb408fe3d1e7690c43d37b4ce6cc0166fa7daa610220820152843561024082015260208501356102608201527f198e9393920d483a7260bfb731fb5d25f1aa493335a9e71297e485b7aef312c26102808201527f1800deef121f1e76426a00665e5c4479674322d4f75edadd46debd5cd992f6ed6102a08201527f090689d0585ff075ec9e99ad690c3395bc4b313370b38ef355acdadcd122975b6102c08201527f12c85ea5db8c6deb4aab71808dcb408fe3d1e7690c43d37b4ce6cc0166fa7daa6102e08201526020816103008360086107d05a03fa9051169695505050505050565b6040516103808101604052610806600084013561005e565b610813602084013561005e565b610820604084013561005e565b61082d606084013561005e565b61083a608084013561005e565b61084760a084013561005e565b61085460c084013561005e565b61086160e084013561005e565b61086f61010084013561005e565b61087d61012084013561005e565b61088b61014084013561005e565b61089961016084013561005e565b6108a6818486888a6100fd565b90508060005260206000f35b80604081018310156108c357600080fd5b92915050565b60008060008061028085870312156108e057600080fd5b6108ea86866108b2565b935060c08501868111156108fd57600080fd5b60408601935061090d87826108b2565b925050856102808601111561092157600080fd5b5091949093509091610100019056fea264697066735822122002019a0381284d40cf62cc05d31491683749833bd009282c296d2060ef5cfe0a64736f6c634300081b0033",
  "linkReferences": {},
  "deployedLinkReferences": {}
}