{
  "_format": "hh-sol-artifact-1",
  "contractName": "Groth16Verifier_BurnBatch",
  "sourceName": "contracts/verifiers/verifier_burn_batch.sol",
  "abi": [
    {
      "inputs": [
        {
          "internalType": "uint256[2]",
          "name": "_pA",
          "type": "uint256[2]"
        },
        {
          "internalType": "uint256[2][2]",
          "name": "_pB",
          "type": "uint256[2][2]"
        },
        {
          "internalType": "uint256[2]",
          "name": "_pC",
          "type": "uint256[2]"
        },
        {
          "internalType": "uint256[11]",
          "name": "_pubSignals",
          "type": "uint256[11]"
        }
      ],
      "name": "verifyProof",
      "outputs": [
        {
          "internalType": "bool",
          "name": "",
          "type": "bool"
        }
      ],
      "stateMutability": "view",
      "type": "function"
    }
  ],
  "bytecode": "0x6080604052348015600f57600080fd5b506109078061001f6000396000f3fe608060405234801561001057600080fd5b506004361061002b5760003560e01c8063b9c6ea8714610030575b600080fd5b61004361003e36600461086a565b610057565b604051901515815260200160405180910390f35b600061079d565b7f30644e72e131a029b85045b68181585d2833e84879b9709143e1f593f0000001811061008f576000805260206000f35b50565b600060405183815284602082015285604082015260408160608360076107d05a03fa9150816100c5576000805260206000f35b825160408201526020830151606082015260408360808360066107d05a03fa915050806100f6576000805260206000f35b5050505050565b7f10df238fa0cf6d5be3a92f6b15561502d4844faba1cd2e4ec9c4324f8ed948d485527f2f9b7ebd55d9313c58ee064bf79dd8528d3d89a15e2b9f4518ea298ad0c6452d60208601526000608086018661019a87357f0ec11768a2daa09aaf0b3c4baa08e56078d953a217e45ce25713743638bd27657f0335de5d2da8c7e26bfd89ae3dc28c804da244dc30159a5fed5243dcf24858a784610092565b6101ea60208801357f235190ac22dda979eb37386bd121a2e07c331da8c112845c5b18cb6e583283327f10679a661cd6cbcaa0c3c49ad08f159cebe6d16b22d5cec0c4511a00228d387684610092565b61023a60408801357f05ebaae1303dbd2714d9f2698918e86c218c9c5a4190728ae8de2d5c2906430b7f081dbff972e8b8f0d778c821332644efa231a82b4c6ade85cd1edfb197de042e84610092565b61028a60608801357f09201a1b88547b33409f2691af15c6af84f9a0998281d299ddc2f627e54df3897f2ded687ca8ca9c5ff6359ed5cb85ef10f67a59dfc87a45cee97fafe6bd6cab8b84610092565b6102da60808801357f11848597c06768787e71c8d41bd2ca7261507631746f3c9e3d22a36f56ce74817f16dccd1c63d97eb1fbefbff20a86144018499bdbf2d06094dba97dfcf8b0e3bd84610092565b61032a60a08801357f076f725493fd6006cb300b316bb9d3b4bb378f8f915e706fb5066489bfde93a97f0efd0b6c66fd4431ae40f92d7d4dbdb24e2414c293e5ffa6979d9bda116ee33c84610092565b61037a60c08801357f2ace307f3393780b4557ea4dc3ed0d20bc96c25d669b1535b2258a5fab055e0a7f080e3206f8bd48b850514e232a53defdd22a7021f7c16969763eec1a9792594a84610092565b6103ca60e08801357f3032837518cddcdbcd10e618b30de1466202372378301157ec1e4849f947bce27f1e71f20b7465a56d747f37d9b489be5bda6119a8ae7aade01ab2a38ae48014fa84610092565b61041b6101008801357f28ff48372653faa352b7e07e552ac0cd2c874de5a98d2ca1fe78fd7efd925e997f0cd69758d2b153c829dbacead7922abd6ac96b9b985d56a3a05d29bec501dfea84610092565b61046c6101208801357f1dccdda18163bf7d8e9f2746505ccf4a0f80baae76075c8e9a14d950b1786b8e7f2880e07b82633bb3dfc054b7b53726ccf3d55bdf8aca4fff404832cb3d14e38284610092565b6104bd6101408801357f16729c0bad43fd90c7c732a3fc1ed99a8fae8d20c45456ef9c7f1b8ba48d593e7f01e20778a250c7b9a63ce3c223214a61d063ebb1f4f85e3e804722fb0e5de40084610092565b50823581527f30644e72e131a029b85045b68181585d97816a916871ca8d3c208c16d87cfd4760208401357f30644e72e131a029b85045b68181585d97816a916871ca8d3c208c16d87cfd4703066020820152833560408201526020840135606082015260408401356080820152606084013560a08201527f2d4d9aa7e302d9df41749d5507949d05dbea33fbb16c643b22f599a2be6df2e260c08201527f14bedd503c37ceb061d8ec60209fe345ce89830a19230301f076caff004d192660e08201527f0967032fcbf776d1afc985f88877f182d38480a653f2decaa9794cbc3bf3060c6101008201527f0e187847ad4c798374d0d6732bf501847dd68bc0e071241e0213bc7fc13db7ab6101208201527f304cfbd1e08a704a99f5e847d93f8c3caafddec46b7a0d379da69a4d112346a76101408201527f1739c1b1a457a8c7313123d24d2f9192f896b7c63eea05a9d57f06547ad0cec8610160820152600087015161018082015260206000018701516101a08201527f198e9393920d483a7260bfb731fb5d25f1aa493335a9e71297e485b7aef312c26101c08201527f1800deef121f1e76426a00665e5c4479674322d4f75edadd46debd5cd992f6ed6101e08201527f090689d0585ff075ec9e99ad690c3395bc4b313370b38ef355acdadcd122975b6102008201527f12c85ea5db8c6deb4aab71808dcb408fe3d1e7690c43d37b4ce6cc0166fa7daa610220820152843561024082015260208501356102608201527f198e9393920d483a7260bfb731fb5d25f1aa493335a9e71297e485b7aef312c26102808201527f1800deef121f1e76426a00665e5c4479674322d4f75edadd46debd5cd992f6ed6102a08201527f090689d0585ff075ec9e99ad690c3395bc4b313370b38ef355acdadcd122975b6102c08201527f12c85ea5db8c6deb4aab71808dcb408fe3d1e7690c43d37b4ce6cc0166fa7daa6102e08201526020816103008360086107d05a03fa9051169695505050505050565b60405161038081016040526107b5600084013561005e565b6107c2602084013561005e565b6107cf604084013561005e565b6107dc606084013561005e565b6107e9608084013561005e565b6107f660a084013561005e565b61080360c084013561005e565b61081060e084013561005e565b61081e61010084013561005e565b61082c61012084013561005e565b61083a61014084013561005e565b610847818486888a6100fd565b90508060005260206000f35b806040810183101561086457600080fd5b92915050565b600080600080610260858703121561088157600080fd5b61088b8686610853565b935060c085018681111561089e57600080fd5b6040860193506108ae8782610853565b92505085610260860111156108c257600080fd5b5091949093509091610100019056fea2646970667358221220a7bb2e1671626492b1ad7b440bb61ee392d566eadf1eee3a4eff49dc83e3d58f64736f6c634300081b0033",
  "linkReferences": {},
  "deployedLinkReferences": {}
}