{
  "_format": "hh-sol-artifact-1",
  "contractName": "Groth16Verifier_WithdrawNullifierBatch",
  "sourceName": "contracts/verifiers/verifier_withdraw_nullifier_batch.sol",
  "abi": [
    {
      "inputs": [
        {
          "internalType": "uint256[2]",
          "name": "_pA",
          "type": "uint256[2]"
        },
        {
          "internalType": "uint256[2][2]",
          "name": "_pB",
          "type": "uint256[2][2]"
        },
        {
          "internalType": "uint256[2]",
          "name": "_pC",
          "type": "uint256[2]"
        },
        {
          "internalType": "uint256[23]",
          "name": "_pubSignals",
          "type": "uint256[23]"
        }
      ],
      "name": "verifyProof",
      "outputs": [
        {
          "internalType": "bool",
          "name": "",
          "type": "bool"
        }
      ],
      "stateMutability": "view",
      "type": "function"
    }
  ],
  "bytecode": "0x6080604052348015600f57600080fd5b50610d7b8061001f6000396000f3fe608060405234801561001057600080fd5b506004361061002b5760003560e01c8063a0c2a19a14610030575b600080fd5b61004361003e366004610cde565b610057565b604051901515815260200160405180910390f35b6000610b69565b7f30644e72e131a029b85045b68181585d2833e84879b9709143e1f593f0000001811061008f576000805260206000f35b50565b600060405183815284602082015285604082015260408160608360076107d05a03fa9150816100c5576000805260206000f35b825160408201526020830151606082015260408360808360066107d05a03fa915050806100f6576000805260206000f35b5050505050565b7f266531c72b28b68a01d32569585c67b97fe4d83317c125e77a095d91c443a52385527f2b12fdb56b5182d95f9a263d37f63ce02fea6e613d45f1d340081a44f907f17c60208601526000608086018661019a87357f2937d8c2a67e86b83849da78a9621c0308288e195332ae530a88febdb01355c27f16eb01e68de9f47913a659e0c407489cae83e45ac52eb119e37ba6e1b5ce520884610092565b6101ea60208801357f0d67b859b8782d9711af5728e3debd22487b159f5be92c9f05a37dd1ec79e62a7f2f983bd4d8452513cde84fd32ce94badeef5b4ce46bfeef978057749e5215c3984610092565b61023a60408801357f05950d8761e765557c9f87a3593af04fe83b0f2b70ec93b5f52490148104fd2f7f0c831fb6fb97c20a5d185bbe99f7e342edf023c64c1290b332a49f29c503712f84610092565b61028a60608801357f2d146b0b4e60cddf812239b28d2c1cfc06ad78c1c37445d55cd0f9fd0a2359a47f1000ab8ea2f1443958a070a3e8153aa7e1a6a1ea3d35eb224aa8ec98f69d0b9684610092565b6102da60808801357f1fbd4d9eaac916087defb00bfae60577fe9e10bdaa365db9601c6b97384580dc7f2323f37d73b54da0975f9d5990b2e627694785d6d996b1ccf6068fa59f0141cc84610092565b61032a60a08801357f06b6034c692b703dd3b99e73b4c6efc1a16d3131925b0c067542b32ccd8bf4207f08b777f510dd54c7d1c875e44f7c9c311f85557120cd951996016673156f8cd884610092565b61037a60c08801357f18b803ff64e52391233e8061b44ffc45a132f63427c1200459cbabacbd11e3bf7f036f246a71bed05814ebc8deb77d4517d715d93f4577b0faaa1954dcf275b62f84610092565b6103ca60e08801357f2bd9a4089ae8f5118dab06cae222c0bd4677d3bfd44f397404c48a004a8915997f082eb3d539373da4bfda948e97c7c6297b20633a5f4695209da6d165d64d1d2c84610092565b61041b6101008801357f03384a0ad845cbe544c60bdb367ffc6d5c91466048909b0b999444eda6a8a7007f1a9634a4fba8775c6b7c43728afe17e0d1230168eaad6a8f07f6ec8d4debcd7584610092565b61046c6101208801357f29417ff2078fb6a581e3de98531d51e9e89c36413b3db2c76848dab05d9b887e7f2528dfafbb314925159facc362ff3472f26a2b7fadff49c5727ccb4b7a80f6b284610092565b6104bd6101408801357f08e4486e6c47bd4c92f8de0681d99d89b4cfbca267d65b17e82a9151efe1aa607f15a4ddc71b57148f325970ef4f2c69c40d60e71e2886a8dbe24bd8b66fb43ea484610092565b61050e6101608801357f0da6daf5b5341a3129960393b20887d4b76c4bd12c22e87c792775b4e200f5477f169534cfcb3ef62460d57d1494c91eeabd8057c3892a4cd2de5059a788d27c3084610092565b61055f6101808801357f0361805a8569278aadb484c1e97c836f3869db000b042e4e951fa0dc32d9d2787f183029fd347a8ae6da72154cae3dc91bc4c80ddd318dbf351360bb7117eef03084610092565b6105b06101a08801357f1074cfbf9de2f31be8450734e9a0fbd6b9b2f3199498c096a9226f1f81d0804f7f164d7441141d71f55f920fb94479e3a6645ab3fca4919a1318baef8ab8d349c784610092565b6106016101c08801357f2b80a501588b7ef06d8fb035d842cd403ee43af5b7377a61ec077f25d3dcfee47f2444e2374c2000946fd7c510d67e6d687596eb779c81b66b223545a6326e4f8584610092565b6106526101e08801357f1d9e07154ae71c8c87ac4bfc5d7382b1ce5fbf027e9e2c4eb8ab52f16a180be57f189b9aa2b445f3004feeb657452739aab8a6cad4b05572afdfb2f02d663e49f484610092565b6106a36102008801357f2ecf47f8b37f1d56b3c9e5010a93f8bfc625705ff71bd8a0ea5e63d0880fa9b37f28473a0d5b8ee7f3550a60d0c84abee299628a4bf285c94b1474e635635c047b84610092565b6106f46102208801357f1dffe2d6090ebf75f691ed0345d4814c070aadf1039e71ba35e4c2f284afdd057f2baf28863db3aaec481cb98b060b837e46d99d69f7588d41037862a87220773884610092565b6107456102408801357f1dc98cd8ded29fab5eb995e79ae0255cbc0b13019e507acc2487dd5219d672297f1d5c3fa898b68f80102cf8f31e62149f0363d385999c8fa67197c8d37aaeed4284610092565b6107966102608801357f2ed0b0176979017c30a3862038bba8e5663a0260e69fe6223a2cd0275accb5ae7f0429c698c779f8a064fbbf25c633c4fcbc5af38ee4c73cda67615ecbc81649be84610092565b6107e76102808801357f0eb181b059a59919dac4b676dc8e1c6c8b1bbef2d3f38fb644ae51401f4bb3957f1c82c8f218ce691a583b60fee9bb9d7a64684c6e60e256ee7ba599c99b48bf7384610092565b6108386102a08801357f28b1e8a2006d2482417a2005f64e18793d2aaf33132face1b92599d28b9861447f26447f8fab68b0f1f4561e37ab137bbc216b7b82483fa2456635a69c315ade4884610092565b6108896102c08801357f040174a3ec2911bf2064342cb94d08945e68716756bb7785d4491f7028d7b49a7f0fa7aa32703d013bf082b6d2a4c1fabbb93cb7c412ef66172e913c3964e02e1984610092565b50823581527f30644e72e131a029b85045b68181585d97816a916871ca8d3c208c16d87cfd4760208401357f30644e72e131a029b85045b68181585d97816a916871ca8d3c208c16d87cfd4703066020820152833560408201526020840135606082015260408401356080820152606084013560a08201527f2d4d9aa7e302d9df41749d5507949d05dbea33fbb16c643b22f599a2be6df2e260c08201527f14bedd503c37ceb061d8ec60209fe345ce89830a19230301f076caff004d192660e08201527f0967032fcbf776d1afc985f88877f182d38480a653f2decaa9794cbc3bf3060c6101008201527f0e187847ad4c798374d0d6732bf501847dd68bc0e071241e0213bc7fc13db7ab6101208201527f304cfbd1e08a704a99f5e847d93f8c3caafddec46b7a0d379da69a4d112346a76101408201527f1739c1b1a457a8c7313123d24d2f9192f896b7c63eea05a9d57f06547ad0cec8610160820152600087015161018082015260206000018701516101a08201527f198e9393920d483a7260bfb731fb5d25f1aa493335a9e71297e485b7aef312c26101c08201527f1800deef121f1e76426a00665e5c4479674322d4f75edadd46debd5cd992f6ed6101e08201527f090689d0585ff075ec9e99ad690c3395bc4b313370b38ef355acdadcd122975b6102008201527f12c85ea5db8c6deb4aab71808dcb408fe3d1e7690c43d37b4ce6cc0166fa7daa610220820152843561024082015260208501356102608201527f198e9393920d483a7260bfb731fb5d25f1aa493335a9e71297e485b7aef312c26102808201527f1800deef121f1e76426a00665e5c4479674322d4f75edadd46debd5cd992f6ed6102a08201527f090689d0585ff075ec9e99ad690c3395bc4b313370b38ef355acdadcd122975b6102c08201527f12c85ea5db8c6deb4aab71808dcb408fe3d1e7690c43d37b4ce6cc0166fa7daa6102e08201526020816103008360086107d05a03fa9051169695505050505050565b6040516103808101604052610b81600084013561005e565b610b8e602084013561005e565b610b9b604084013561005e565b610ba8606084013561005e565b610bb5608084013561005e565b610bc260a084013561005e565b610bcf60c084013561005e565b610bdc60e084013561005e565b610bea61010084013561005e565b610bf861012084013561005e565b610c0661014084013561005e565b610c1461016084013561005e565b610c2261018084013561005e565b610c306101a084013561005e565b610c3e6101c084013561005e565b610c4c6101e084013561005e565b610c5a61020084013561005e565b610c6861022084013561005e565b610c7661024084013561005e565b610c8461026084013561005e565b610c9261028084013561005e565b610ca06102a084013561005e565b610cae6102c084013561005e565b610cbb818486888a6100fd565b90508060005260206000f35b8060408101831015610cd857600080fd5b92915050565b6000806000806103e08587031215610cf557600080fd5b610cff8686610cc7565b935060c0850186811115610d1257600080fd5b604086019350610d228782610cc7565b925050856103e086011115610d3657600080fd5b5091949093509091610100019056fea2646970667358221220ff915fbfe26668d95507f8b45d0e648224f8b742d1735cbb395e5599f621abde64736f6c634300081b0033",
  "linkReferences": {},
  "deployedLinkReferences": {}
}