{
  "_format": "hh-sol-artifact-1",
  "contractName": "Groth16Verifier_AnonNullifierTransferLockedBatch",
  "sourceName": "contracts/verifiers/verifier_anon_nullifier_transferLocked_batch.sol",
  "abi": [
    {
      "inputs": [
        {
          "internalType": "uint256[2]",
          "name": "_pA",
          "type": "uint256[2]"
        },
        {
          "internalType": "uint256[2][2]",
          "name": "_pB",
          "type": "uint256[2][2]"
        },
        {
          "internalType": "uint256[2]",
          "name": "_pC",
          "type": "uint256[2]"
        },
        {
          "internalType": "uint256[32]",
          "name": "_pubSignals",
          "type": "uint256[32]"
        }
      ],
      "name": "verifyProof",
      "outputs": [
        {
          "internalType": "bool",
          "name": "",
          "type": "bool"
        }
      ],
      "stateMutability": "view",
      "type": "function"
    }
  ],
  "bytecode": "0x6080604052348015600f57600080fd5b506110d18061001f6000396000f3fe608060405234801561001057600080fd5b506004361061002b5760003560e01c80633cc08b2414610030575b600080fd5b61004361003e366004611034565b610057565b604051901515815260200160405180910390f35b6000610e41565b7f30644e72e131a029b85045b68181585d2833e84879b9709143e1f593f0000001811061008f576000805260206000f35b50565b600060405183815284602082015285604082015260408160608360076107d05a03fa9150816100c5576000805260206000f35b825160408201526020830151606082015260408360808360066107d05a03fa915050806100f6576000805260206000f35b5050505050565b7f085efdaa9068662742b2d796f2efd18b596256d0210d0f0334213a85399f463185527f148c2798c7726c95da85289e4626c0f6b9009962f3ef3382c1df84c7b927059460208601526000608086018661019a87357f227d46fb841027589a67f4fee4f2d0d63f3839f63be3fdd31e2996ad094721667f05c7171b578c8027c73a6d6bce3746c93ff470676fbe6c4f22f6bfb5c11856ca84610092565b6101ea60208801357f0594a76230430242178183b880c96b8426873e50049902b0c5b2d444df18d2ce7f24a6cfc4f1e500dc4027e9481e5a2efe0b8e6398dfa19279fed9c5f2771c5f8e84610092565b61023a60408801357f1d83e3c40377f705824234c2f779396c47a71520a705bed784659656015e287f7f2c4ebd9a2405759c07e1bb4a8a2f156279edc2db8c480ec9e0cbb031e04a34d984610092565b61028a60608801357f22d7b6b646b690c323456e54e327549f24cf33600a3c634e050d17c020e3b5007f087b0a8a285936fe9527a702cb25795bb65a49898b0060dbe9a5cd3aa3a1fdba84610092565b6102da60808801357f0ccd3c5f890edb7943acfcbc6438af2d1d5d5db189eb085220420a5a7ae61f267f08e297f260acda9bbd7f72d2fc45aefdef79ba91e63c69381b1f66f13a0305cf84610092565b61032a60a08801357f25c29431f7f1ec6e50aabed62c7a89e98bb04e77719b9172b899493f6e8693387f1eac2819f3a51f2e3c4085d5431adcbb4e3ea5eed553b6fb75a9adeb34e2be7884610092565b61037a60c08801357f12a9a7a631d90e87c5cd9f0b298e4b0030cfa4b9406cdcc375a25a6d660df28b7f2431e93a8a7ec996cb13ccd66c32151e81102610cf5328eb7505a932230c5ca284610092565b6103c960e08801357efe5edc1d72911f703085bf7227a722428a6a6370ea890f543befab90f5c1617f0a152a1462be055e0f4f35eeeaaa7564e10f9faa2f1d4e7be47923ae5ad7a9fd84610092565b61041a6101008801357f27c0571b5e70404fa142e58f9d5e7a6723e78759cbcbaefb34729ad8718d7d247f10a95d83fec959102eb7487d494288d4b03b81f14919c2db389368b71387d47d84610092565b61046b6101208801357f2f3df39a61122a8d3d1106c447cbd4f39293e37d6949312e324ce1a9f7b2b58c7f0e6a647b2a8aaf5fd7fec4c198f11ab2baf53009f9051675ad2b5f71134388a484610092565b6104bc6101408801357f0aed56bdb31315c77ab7b0c2e4d522e4a4b126b7ee052432cb8267ba7f4438fe7f160d6375e924c6b6361b3964d4cd296586bb66374d6e7a9e77ee8885cb88b47b84610092565b61050d6101608801357f21362f551a1de0360d950a1bbe41151d3393d930da62829ad657471597a031047f0334806032a9dceea542fb4261bff01da0fd862d4c0dc2a30ddf0629b1bfb20384610092565b61055e6101808801357f1e54c2bea3431ada7a58a8193839cbb0e3d17e01398cce807d29b8b3837134137f036f5faa2b27b8647009e83486f2f0190eb59125ea62019b88ac2d26d4041fe084610092565b6105af6101a08801357f1625dfef268ad3687951855c860c532f89cb176960d004a365e17af9fecbf9fa7f0ed33b63d3cf996a93e9a75413fc14dbecda5cf0a1a9025b4831a39b71692d5084610092565b6106006101c08801357f05d46dc43a4ed652d59cf1dbc9a20c8abd3bc636b1143a6c9ef0ce8fb257a98f7f0f3663c78731770440e2d5aaeaec3e030d60382b03c592a7773ee4c71f41ed2684610092565b6106516101e08801357f218b7a2631f3dfa6dc957182444558e26f88c2a35bc2bd21d62e03b247430b7b7f2b361c9abcacc352d200b7cdaa9ab55cff3bda45310d9bc555396b557bede56b84610092565b6106a26102008801357f03032d2f63cfd2a671ba13182f4de3c1bff1adbe86649ff2d47846b6cf357b9e7f0261e3c4bb444fdd259d750f9ead933a603479bb619b1a9d9e8f393727a5610884610092565b6106f36102208801357f0848c00c066aa2482a8d958608d271a491cbca05bd0db1646c544f263cdb51ee7f0ec79eba0a8b3a64578954d554dbed675497c962d15a1bfc150374eb214bec0d84610092565b6107446102408801357f0e4afd852cd981a92de6bfd6899dbe6c4e5561ba9578645880b6fed9290fdd337f252d5af7edf9f3f9969cae7322de49742f58b20c41a9a718acab3909effc9e5c84610092565b6107956102608801357f022a78b23305cc5eac11d972f7c9aab6375645dd1737a821eb3a566a1b32f8d37f1f316497c07facfe9cf00ee5d6a1758874c8f14cc08e460aaf3cf1b715dcf05984610092565b6107e66102808801357f16644334153fb609edb7a40c0a8a019fcd9f90212bba2141caaee3eb0b45f34c7f1a9476c317530cb4bf69a02ad30ae574a82d7c00add2f6d3bbcb6172e5aed80e84610092565b6108376102a08801357f26b9d44d5f9deff46975bec3874d72b6bc66e6973ef63137865ddd0aa8a277667f179caba12cd9e228575c058ed62116fd74c1986bc2c179f14bde3622a370ec1b84610092565b6108886102c08801357f11485d76b0fd414a7707d968fdb2316d5200ea32f7c411f258c7b262b05a050d7f2b55474082b515004865b297b2c7b4974a57708b3a98fd47bd4d46567763f2fc84610092565b6108d96102e08801357f09235a01dd5d1c7ccef7a506965a889147d7786aae28c1058910ad944d7d58597f2db309c5401424b4759cca9fcf9eb67427f1a9c4f35ba5f4d512abd50356e49484610092565b61092a6103008801357f1cab410e1ae28c1eda8bdeb5f35fa685df160203080435f8852b251024dbc7b97f1a400b51aa2078c7ecf2687df56147c87d529b1e84e7066bb90374ed9143aac484610092565b61097b6103208801357f0840fe470d1f21ea3b005881cfa2f3d9d41168de8228f96b117f24c3946e767c7f1348cba626b79824d5a275fcdd1bdc6140db9213160776d20a8ba6d5261b6a3b84610092565b6109cc6103408801357f0593736faabea42033bccbe41cb7a10ea46f61e1843837fbaba5455a0c1ebedc7f2eb67d5e7349cf905bfb00511ec172a6867d874745753cf732fa5f49e90c337484610092565b610a1d6103608801357f2f116aa5b11db55f122d4543663a162d7d519dbb588cc8334da8450ed551a6bc7f179c49c7a172958d69fb6320fee9787baabc1ed698ee8087dd7ea48599d49d5784610092565b610a6e6103808801357f20884bbca6001c294997cca844319eca21f1ceee74a0d5653378512c660b042d7f05c51ce109fe0e151b63917ce7094040dfac08f7a7e222b9da01f0b54f4935ae84610092565b610abf6103a08801357f3042e68b10f2d3714e5f1a57bbef69d76b0807defd998d4906b4a202b373a5497f2e45e9f3e42f33ef885a2b245e51fbb599145be8658021658b0ade6ba3089e1784610092565b610b106103c08801357f1391a6026a481a2f001811c41968c48e3ed8120f262ff14eb926742fe7633f917f195aeb7d6f4d084ee08a132d2d32a352437089bc5038e2e46eb44da8d4f98f5a84610092565b610b616103e08801357f0f2daaad25d20085b725985838ad68541940d152be27b5400d07c08aedcef21d7f24b2149a83ae9cbcd2d78c11209a787aa85ae1a3562d082d45425e2627ca76bc84610092565b50823581527f30644e72e131a029b85045b68181585d97816a916871ca8d3c208c16d87cfd4760208401357f30644e72e131a029b85045b68181585d97816a916871ca8d3c208c16d87cfd4703066020820152833560408201526020840135606082015260408401356080820152606084013560a08201527f2d4d9aa7e302d9df41749d5507949d05dbea33fbb16c643b22f599a2be6df2e260c08201527f14bedd503c37ceb061d8ec60209fe345ce89830a19230301f076caff004d192660e08201527f0967032fcbf776d1afc985f88877f182d38480a653f2decaa9794cbc3bf3060c6101008201527f0e187847ad4c798374d0d6732bf501847dd68bc0e071241e0213bc7fc13db7ab6101208201527f304cfbd1e08a704a99f5e847d93f8c3caafddec46b7a0d379da69a4d112346a76101408201527f1739c1b1a457a8c7313123d24d2f9192f896b7c63eea05a9d57f06547ad0cec8610160820152600087015161018082015260206000018701516101a08201527f198e9393920d483a7260bfb731fb5d25f1aa493335a9e71297e485b7aef312c26101c08201527f1800deef121f1e76426a00665e5c4479674322d4f75edadd46debd5cd992f6ed6101e08201527f090689d0585ff075ec9e99ad690c3395bc4b313370b38ef355acdadcd122975b6102008201527f12c85ea5db8c6deb4aab71808dcb408fe3d1e7690c43d37b4ce6cc0166fa7daa610220820152843561024082015260208501356102608201527f198e9393920d483a7260bfb731fb5d25f1aa493335a9e71297e485b7aef312c26102808201527f1800deef121f1e76426a00665e5c4479674322d4f75edadd46debd5cd992f6ed6102a08201527f090689d0585ff075ec9e99ad690c3395bc4b313370b38ef355acdadcd122975b6102c08201527f12c85ea5db8c6deb4aab71808dcb408fe3d1e7690c43d37b4ce6cc0166fa7daa6102e08201526020816103008360086107d05a03fa9051169695505050505050565b6040516103808101604052610e59600084013561005e565b610e66602084013561005e565b610e73604084013561005e565b610e80606084013561005e565b610e8d608084013561005e565b610e9a60a084013561005e565b610ea760c084013561005e565b610eb460e084013561005e565b610ec261010084013561005e565b610ed061012084013561005e565b610ede61014084013561005e565b610eec61016084013561005e565b610efa61018084013561005e565b610f086101a084013561005e565b610f166101c084013561005e565b610f246101e084013561005e565b610f3261020084013561005e565b610f4061022084013561005e565b610f4e61024084013561005e565b610f5c61026084013561005e565b610f6a61028084013561005e565b610f786102a084013561005e565b610f866102c084013561005e565b610f946102e084013561005e565b610fa261030084013561005e565b610fb061032084013561005e565b610fbe61034084013561005e565b610fcc61036084013561005e565b610fda61038084013561005e565b610fe86103a084013561005e565b610ff66103c084013561005e565b6110046103e084013561005e565b611011818486888a6100fd565b90508060005260206000f35b806040810183101561102e57600080fd5b92915050565b600080600080610500858703121561104b57600080fd5b611055868661101d565b935060c085018681111561106857600080fd5b604086019350611078878261101d565b925050856105008601111561108c57600080fd5b5091949093509091610100019056fea26469706673582212201b35220500766d09dd46077c78600563563b29f74750048bdb19e903d2353a0364736f6c634300081b0033",
  "linkReferences": {},
  "deployedLinkReferences": {}
}