{
  "_format": "hh-sol-artifact-1",
  "contractName": "Groth16Verifier_BurnNullifier",
  "sourceName": "contracts/verifiers/verifier_burn_nullifier.sol",
  "abi": [
    {
      "inputs": [
        {
          "internalType": "uint256[2]",
          "name": "_pA",
          "type": "uint256[2]"
        },
        {
          "internalType": "uint256[2][2]",
          "name": "_pB",
          "type": "uint256[2][2]"
        },
        {
          "internalType": "uint256[2]",
          "name": "_pC",
          "type": "uint256[2]"
        },
        {
          "internalType": "uint256[6]",
          "name": "_pubSignals",
          "type": "uint256[6]"
        }
      ],
      "name": "verifyProof",
      "outputs": [
        {
          "internalType": "bool",
          "name": "",
          "type": "bool"
        }
      ],
      "stateMutability": "view",
      "type": "function"
    }
  ],
  "bytecode": "0x6080604052348015600f57600080fd5b506107308061001f6000396000f3fe608060405234801561001057600080fd5b506004361061002b5760003560e01c8063f398789b14610030575b600080fd5b61004361003e366004610693565b610057565b604051901515815260200160405180910390f35b600061060a565b7f30644e72e131a029b85045b68181585d2833e84879b9709143e1f593f0000001811061008f576000805260206000f35b50565b600060405183815284602082015285604082015260408160608360076107d05a03fa9150816100c5576000805260206000f35b825160408201526020830151606082015260408360808360066107d05a03fa915050806100f6576000805260206000f35b5050505050565b7f0e19633279476f890644e0434375cb4891a84cb0f3a5b24772d8cf472a7f7b1185527f0b1f4bfcfc59bc901426ff58cd9592dd5b04f880f2ec4d3b22eeaf2f7ba3580b60208601526000608086018661019a87357f0efdd4ff7535b3d843a32493c69070ca2eb5f8a962347370f0d5edb9a4922c3d7f202a50aaf3d516712d7d72d685b7720fc18e3ca8063472289466163c10eb0aac84610092565b6101ea60208801357f1cfe5f8549b18768ca1b8f4d5d099d9fad04c5ba057003d1379a5ccb7290ec0d7f141a9cfdc172bb2b661029312a31fc07a93664cbbd7eb19ec01095b8cd2156b284610092565b61023a60408801357f2cdf20417599247264c87164b6c520c6c38a20375648c9df0bba37d8f02e5be27f20059138cc05ae2b3fb11e5d2205b90f1e6b9f353509243492a09c1ab2af85e184610092565b61028a60608801357f0ab40e6642211eef8a75dbe05c4cf6f379aca22f4c0c6d2d133316073f749f537f267d4f50705223edeb8e7a8ea08e19e646ca317ef9ca489cb701ec8f9ed2b62f84610092565b6102da60808801357f2c95621eab7935f7b035256ecbb2f8c6db74db2e3ecc48aeeaae48a081d95dfa7f04bf598e5e9c05d393864e0358adfd9a8a8c21f807fd98bae31c7ac66ba1fe6f84610092565b61032a60a08801357f2e67192e07197cf84cf2eadd60d49dfe41f6f201df76bafdb2dd07f70017f7bb7f0c358f09ce83271a0c52675683cc3aca52e7c9079996af2fcdddf47454aae43a84610092565b50823581527f30644e72e131a029b85045b68181585d97816a916871ca8d3c208c16d87cfd4760208401357f30644e72e131a029b85045b68181585d97816a916871ca8d3c208c16d87cfd4703066020820152833560408201526020840135606082015260408401356080820152606084013560a08201527f2d4d9aa7e302d9df41749d5507949d05dbea33fbb16c643b22f599a2be6df2e260c08201527f14bedd503c37ceb061d8ec60209fe345ce89830a19230301f076caff004d192660e08201527f0967032fcbf776d1afc985f88877f182d38480a653f2decaa9794cbc3bf3060c6101008201527f0e187847ad4c798374d0d6732bf501847dd68bc0e071241e0213bc7fc13db7ab6101208201527f304cfbd1e08a704a99f5e847d93f8c3caafddec46b7a0d379da69a4d112346a76101408201527f1739c1b1a457a8c7313123d24d2f9192f896b7c63eea05a9d57f06547ad0cec8610160820152600087015161018082015260206000018701516101a08201527f198e9393920d483a7260bfb731fb5d25f1aa493335a9e71297e485b7aef312c26101c08201527f1800deef121f1e76426a00665e5c4479674322d4f75edadd46debd5cd992f6ed6101e08201527f090689d0585ff075ec9e99ad690c3395bc4b313370b38ef355acdadcd122975b6102008201527f12c85ea5db8c6deb4aab71808dcb408fe3d1e7690c43d37b4ce6cc0166fa7daa610220820152843561024082015260208501356102608201527f198e9393920d483a7260bfb731fb5d25f1aa493335a9e71297e485b7aef312c26102808201527f1800deef121f1e76426a00665e5c4479674322d4f75edadd46debd5cd992f6ed6102a08201527f090689d0585ff075ec9e99ad690c3395bc4b313370b38ef355acdadcd122975b6102c08201527f12c85ea5db8c6deb4aab71808dcb408fe3d1e7690c43d37b4ce6cc0166fa7daa6102e08201526020816103008360086107d05a03fa9051169695505050505050565b6040516103808101604052610622600084013561005e565b61062f602084013561005e565b61063c604084013561005e565b610649606084013561005e565b610656608084013561005e565b61066360a084013561005e565b610670818486888a6100fd565b90508060005260206000f35b806040810183101561068d57600080fd5b92915050565b6000806000806101c085870312156106aa57600080fd5b6106b4868661067c565b935060c08501868111156106c757600080fd5b6040860193506106d7878261067c565b925050856101c0860111156106eb57600080fd5b5091949093509091610100019056fea2646970667358221220e3a6d10c576a1ca57405182244e21bfba9ab29ae6035a808fe32002ec9b6b21864736f6c634300081b0033",
  "linkReferences": {},
  "deployedLinkReferences": {}
}