{
  "_format": "hh-sol-artifact-1",
  "contractName": "Groth16Verifier_AnonEncNullifierKyc",
  "sourceName": "contracts/verifiers/verifier_anon_enc_nullifier_kyc.sol",
  "abi": [
    {
      "inputs": [
        {
          "internalType": "uint256[2]",
          "name": "_pA",
          "type": "uint256[2]"
        },
        {
          "internalType": "uint256[2][2]",
          "name": "_pB",
          "type": "uint256[2][2]"
        },
        {
          "internalType": "uint256[2]",
          "name": "_pC",
          "type": "uint256[2]"
        },
        {
          "internalType": "uint256[19]",
          "name": "_pubSignals",
          "type": "uint256[19]"
        }
      ],
      "name": "verifyProof",
      "outputs": [
        {
          "internalType": "bool",
          "name": "",
          "type": "bool"
        }
      ],
      "stateMutability": "view",
      "type": "function"
    }
  ],
  "bytecode": "0x6080604052348015600f57600080fd5b50610bfd8061001f6000396000f3fe608060405234801561001057600080fd5b506004361061002b5760003560e01c8063f3f22e7214610030575b600080fd5b61004361003e366004610b60565b610057565b604051901515815260200160405180910390f35b6000610a23565b7f30644e72e131a029b85045b68181585d2833e84879b9709143e1f593f0000001811061008f576000805260206000f35b50565b600060405183815284602082015285604082015260408160608360076107d05a03fa9150816100c5576000805260206000f35b825160408201526020830151606082015260408360808360066107d05a03fa915050806100f6576000805260206000f35b5050505050565b7f160c7e778a12cca940875f2fd1fdb32ea6e6bb9e20bce9be1bede4830f107f9e85527f0a57fdaa56e97882f4d2884ac6a6ff8f4fd4364118a4bdd5399dbf76d46b60e860208601526000608086018661019a87357f1b9095b9ca9f7ca31396c67220c76b1a1fa2b38167b28099ee8049b118e9861d7f2d9a1971b6c180f6f50689e9b4b528fc1cc4a042e5ba134f91562d6697cd704684610092565b6101ea60208801357f02ac3fea0d45a72e038bc8c17e94e34de7aac8b7db286b332606b498314043037f0e93f8d3bbc3c75a1ea1e0c3e93751f3c7e6700cc9c0d2e7f15a74ac0f9b5f0b84610092565b61023a60408801357f21d5bb9ba5445b4d63dfd537f8dea2d3cc00cb46b9c105733726bc5d8262a5907f22e1871dd89ff19b0eb21217e4541882160a2396f81deaa21381dbcbb991f5bc84610092565b61028a60608801357f159385792020cd2c84d42a945160163e55c12b6c9918df9980e24c9a8267ecd27f06b0ff15692f2ac5b8214a9ad093c88349631b356c2563c39fbadd59ab81218784610092565b6102da60808801357f1cfb76fd73e1ae3fe7a4276e63e2071279c9f009d9ce5142ea71b2f10e41abb77f16a434fe6409a598f5b52a3362c2961afba064843baf3ce27793664784482ac384610092565b61032a60a08801357f1997abc55b0cda8415d6bab43fe0d924feb0b96a827efbebee99875763fa8e857f2523d2ee13ebe090b10411e57a09aa98c16aa739121e9ead413af7eb0c27183584610092565b61037a60c08801357f0d2fc60b2b718b9409a906606cb92e474128f24871768a3e35a5a84646942bc17f2504b3837bb8f191d03d2cf462299137a0865a8edb9fb05059213a9b5d91dbea84610092565b6103ca60e08801357f2366538e2d54414038ede49fd4e3786a340a51e7a3e9644ff512235c0e1afa0e7f2684931e375684ff633db1e2cd0e866e136cd38eba383a4acf48d4b58b47061b84610092565b6104196101008801357e638cb86a8b64e71a6dab6e632792f6cbdb50ccf978f545b19971d35543de9c7ee646f6b8e0230278f95c7646a3a9bd44cf986d721f453f33e5b0bea44b01b384610092565b61046a6101208801357f271751e82665f21476f124b23c09317018cec24a93e3aa3c095ccf80372dfc227f0304cee6f2d2d94795faba9fb0d6d22eef8112d16c934d34c7f9a76a446be2bb84610092565b6104bb6101408801357f04007b81dc4a75d0f0a2cfa18a22a1e502dc4a947e305ea4d017ab33e7b39db47f259386f73b850a3620e312c33da7e1629f7fcbad92682e391ac3f0ed47c202a184610092565b61050c6101608801357f288271aa06347a656bede611c64f202c0fa3332393e526eeb653a7aab7f375697f2ba9b42584415ff64693d3775a838de93b989ce0b4bb4c970b556ce916d14bd784610092565b61055d6101808801357f1d665ca1107c16e87bfab5437f99e75617cb3b4a6684212623755bf5c76ecdf67f05d2973e4e2a17413640f6c67768f20f83139f77d407bf8934eb325192423d3384610092565b6105ae6101a08801357f1a58353611a7817bf80ecc602cd7000486aeff3c0ffb80671726f46dfca758937f2e0413e6cf845a5cf93e9cc5b83e7c7ee3e773096a13c1f2fbe020d5a3e12ec784610092565b6105ff6101c08801357f1b0848a6f27378eef77570059568d18fb7e022eb8f68e55657c02821e43338037f30012490e308068627478f92add99c80d8bca27c98bfe67182463fd58c87954a84610092565b6106506101e08801357f277af15dac8e99c91635dd2e634364ece866912b99e3846161d8f9c8d957081f7f152a5657fa3df3e9762f905a771bfc606256b11dbb55ea757d003e4ac01c456484610092565b6106a16102008801357f22609741faa4a5ef8037ff8278c90c5c4a724eee3f393f73253b643051b03bac7f1da4c93a5e1f8cfdc564e3654ec6102d6e36cba76edbca7fcfcb1f48e27da92f84610092565b6106f26102208801357f05ffc6e2e0c59dbc40debd89d34bae0e12f9fd8593f23dd6363bb221ee434e287f131307115f17b418964f781ca3064e00bca545ef06e5a031c9ec6b306bdb020c84610092565b6107436102408801357f1e7133d1dca71a762564efb5b22194d94690d42b637b9d3867c3f5da940c8f267f2f76f8c977eb76dfbc7f38fd43d1040e2e221e0dc8a10f0f0ea3a797fbf9118884610092565b50823581527f30644e72e131a029b85045b68181585d97816a916871ca8d3c208c16d87cfd4760208401357f30644e72e131a029b85045b68181585d97816a916871ca8d3c208c16d87cfd4703066020820152833560408201526020840135606082015260408401356080820152606084013560a08201527f2d4d9aa7e302d9df41749d5507949d05dbea33fbb16c643b22f599a2be6df2e260c08201527f14bedd503c37ceb061d8ec60209fe345ce89830a19230301f076caff004d192660e08201527f0967032fcbf776d1afc985f88877f182d38480a653f2decaa9794cbc3bf3060c6101008201527f0e187847ad4c798374d0d6732bf501847dd68bc0e071241e0213bc7fc13db7ab6101208201527f304cfbd1e08a704a99f5e847d93f8c3caafddec46b7a0d379da69a4d112346a76101408201527f1739c1b1a457a8c7313123d24d2f9192f896b7c63eea05a9d57f06547ad0cec8610160820152600087015161018082015260206000018701516101a08201527f198e9393920d483a7260bfb731fb5d25f1aa493335a9e71297e485b7aef312c26101c08201527f1800deef121f1e76426a00665e5c4479674322d4f75edadd46debd5cd992f6ed6101e08201527f090689d0585ff075ec9e99ad690c3395bc4b313370b38ef355acdadcd122975b6102008201527f12c85ea5db8c6deb4aab71808dcb408fe3d1e7690c43d37b4ce6cc0166fa7daa610220820152843561024082015260208501356102608201527f198e9393920d483a7260bfb731fb5d25f1aa493335a9e71297e485b7aef312c26102808201527f1800deef121f1e76426a00665e5c4479674322d4f75edadd46debd5cd992f6ed6102a08201527f090689d0585ff075ec9e99ad690c3395bc4b313370b38ef355acdadcd122975b6102c08201527f12c85ea5db8c6deb4aab71808dcb408fe3d1e7690c43d37b4ce6cc0166fa7daa6102e08201526020816103008360086107d05a03fa9051169695505050505050565b6040516103808101604052610a3b600084013561005e565b610a48602084013561005e565b610a55604084013561005e565b610a62606084013561005e565b610a6f608084013561005e565b610a7c60a084013561005e565b610a8960c084013561005e565b610a9660e084013561005e565b610aa461010084013561005e565b610ab261012084013561005e565b610ac061014084013561005e565b610ace61016084013561005e565b610adc61018084013561005e565b610aea6101a084013561005e565b610af86101c084013561005e565b610b066101e084013561005e565b610b1461020084013561005e565b610b2261022084013561005e565b610b3061024084013561005e565b610b3d818486888a6100fd565b90508060005260206000f35b8060408101831015610b5a57600080fd5b92915050565b6000806000806103608587031215610b7757600080fd5b610b818686610b49565b935060c0850186811115610b9457600080fd5b604086019350610ba48782610b49565b9250508561036086011115610bb857600080fd5b5091949093509091610100019056fea264697066735822122052d6cfc58c81131ea29f5d3e88e03f5ec905b6e579cc97503383f4dd2a49b53e64736f6c634300081b0033",
  "linkReferences": {},
  "deployedLinkReferences": {}
}