{
  "_format": "hh-sol-artifact-1",
  "contractName": "Groth16Verifier_Burn",
  "sourceName": "contracts/verifiers/verifier_burn.sol",
  "abi": [
    {
      "inputs": [
        {
          "internalType": "uint256[2]",
          "name": "_pA",
          "type": "uint256[2]"
        },
        {
          "internalType": "uint256[2][2]",
          "name": "_pB",
          "type": "uint256[2][2]"
        },
        {
          "internalType": "uint256[2]",
          "name": "_pC",
          "type": "uint256[2]"
        },
        {
          "internalType": "uint256[3]",
          "name": "_pubSignals",
          "type": "uint256[3]"
        }
      ],
      "name": "verifyProof",
      "outputs": [
        {
          "internalType": "bool",
          "name": "",
          "type": "bool"
        }
      ],
      "stateMutability": "view",
      "type": "function"
    }
  ],
  "bytecode": "0x6080604052348015600f57600080fd5b506106198061001f6000396000f3fe608060405234801561001057600080fd5b506004361061002b5760003560e01c806311479fea14610030575b600080fd5b61004361003e36600461057c565b610057565b604051901515815260200160405180910390f35b600061051a565b7f30644e72e131a029b85045b68181585d2833e84879b9709143e1f593f0000001811061008f576000805260206000f35b50565b600060405183815284602082015285604082015260408160608360076107d05a03fa9150816100c5576000805260206000f35b825160408201526020830151606082015260408360808360066107d05a03fa915050806100f6576000805260206000f35b5050505050565b7f1f693e9fdaf57b5ca9ec7067eec1040ed8fcfe833b5833b377731cd67c0dc70685527f1f6717c8a442b282315cf57e0157d07ed89f09eb45cd25ee45f20dd40f5cd94560208601526000608086018661019a87357f17d6ff251e64d0d290b906696dfb1b079e7944d4e756f488e4f5dc7af309958a7f2e68d08aae4b87511d938b6c601e69bc0391874dc95cb4fd1070dbf6b3b59bf884610092565b6101ea60208801357f0c8b1a66e7a0aa7a5af231f6118568deb26de53e414769726d0a70e8bfd499c07f1ef781d742bdbe46b115dc3a30d15f1c2030ffe7878f7c4b99e05a2ee146103184610092565b61023a60408801357f15e29cb6969ad745f0071cc83a8592bbb221bcbb3329832fc923414161e1de9f7f0d9ffbd941d0526d6005793dee1939283a08de8ac57519c219e18920408e3b2e84610092565b50823581527f30644e72e131a029b85045b68181585d97816a916871ca8d3c208c16d87cfd4760208401357f30644e72e131a029b85045b68181585d97816a916871ca8d3c208c16d87cfd4703066020820152833560408201526020840135606082015260408401356080820152606084013560a08201527f2d4d9aa7e302d9df41749d5507949d05dbea33fbb16c643b22f599a2be6df2e260c08201527f14bedd503c37ceb061d8ec60209fe345ce89830a19230301f076caff004d192660e08201527f0967032fcbf776d1afc985f88877f182d38480a653f2decaa9794cbc3bf3060c6101008201527f0e187847ad4c798374d0d6732bf501847dd68bc0e071241e0213bc7fc13db7ab6101208201527f304cfbd1e08a704a99f5e847d93f8c3caafddec46b7a0d379da69a4d112346a76101408201527f1739c1b1a457a8c7313123d24d2f9192f896b7c63eea05a9d57f06547ad0cec8610160820152600087015161018082015260206000018701516101a08201527f198e9393920d483a7260bfb731fb5d25f1aa493335a9e71297e485b7aef312c26101c08201527f1800deef121f1e76426a00665e5c4479674322d4f75edadd46debd5cd992f6ed6101e08201527f090689d0585ff075ec9e99ad690c3395bc4b313370b38ef355acdadcd122975b6102008201527f12c85ea5db8c6deb4aab71808dcb408fe3d1e7690c43d37b4ce6cc0166fa7daa610220820152843561024082015260208501356102608201527f198e9393920d483a7260bfb731fb5d25f1aa493335a9e71297e485b7aef312c26102808201527f1800deef121f1e76426a00665e5c4479674322d4f75edadd46debd5cd992f6ed6102a08201527f090689d0585ff075ec9e99ad690c3395bc4b313370b38ef355acdadcd122975b6102c08201527f12c85ea5db8c6deb4aab71808dcb408fe3d1e7690c43d37b4ce6cc0166fa7daa6102e08201526020816103008360086107d05a03fa9051169695505050505050565b6040516103808101604052610532600084013561005e565b61053f602084013561005e565b61054c604084013561005e565b610559818486888a6100fd565b90508060005260206000f35b806040810183101561057657600080fd5b92915050565b600080600080610160858703121561059357600080fd5b61059d8686610565565b935060c08501868111156105b057600080fd5b6040860193506105c08782610565565b92505085610160860111156105d457600080fd5b5091949093509091610100019056fea2646970667358221220cd8acf88155efff851d8c68b7eb6ee7a29db7321e0a18c34cc90e727f59794eb64736f6c634300081b0033",
  "linkReferences": {},
  "deployedLinkReferences": {}
}