{
  "_format": "hh-sol-artifact-1",
  "contractName": "Groth16Verifier_AnonNullifierTransferLocked",
  "sourceName": "contracts/verifiers/verifier_anon_nullifier_transferLocked.sol",
  "abi": [
    {
      "inputs": [
        {
          "internalType": "uint256[2]",
          "name": "_pA",
          "type": "uint256[2]"
        },
        {
          "internalType": "uint256[2][2]",
          "name": "_pB",
          "type": "uint256[2][2]"
        },
        {
          "internalType": "uint256[2]",
          "name": "_pC",
          "type": "uint256[2]"
        },
        {
          "internalType": "uint256[8]",
          "name": "_pubSignals",
          "type": "uint256[8]"
        }
      ],
      "name": "verifyProof",
      "outputs": [
        {
          "internalType": "bool",
          "name": "",
          "type": "bool"
        }
      ],
      "stateMutability": "view",
      "type": "function"
    }
  ],
  "bytecode": "0x6080604052348015600f57600080fd5b506107ea8061001f6000396000f3fe608060405234801561001057600080fd5b506004361061002b5760003560e01c8063c9219a7a14610030575b600080fd5b61004361003e36600461074d565b610057565b604051901515815260200160405180910390f35b60006106aa565b7f30644e72e131a029b85045b68181585d2833e84879b9709143e1f593f0000001811061008f576000805260206000f35b50565b600060405183815284602082015285604082015260408160608360076107d05a03fa9150816100c5576000805260206000f35b825160408201526020830151606082015260408360808360066107d05a03fa915050806100f6576000805260206000f35b5050505050565b7f1caa1ec93f5ab13d55f24971a7a231d0c80420115622d98b2ebe5280a1f4debc85527f2f04890a154d91cc374cd828837785c52da564b2b60245c49a1e7a5410bf6a4260208601526000608086018661019a87357f0589b1fdaf95e5e77ddc7e88ce48aa8aea0115c83f31b64c01fb3f2ba1183bc77f2d2288fc642dcbce468be8b47ed5b3492d3006001a06b4d08e065c4af06fbbb984610092565b6101ea60208801357f283d34e096f08c208a51b93cfe2ef9f009ac87cb94fc1a21142b92379ebc77e77f1982481e38f529bc7ac952344f5dd7c291762f08312bb6f58cf1c0496b86d48c84610092565b61023a60408801357f27d4ebd2de772aea8ba38df42c3bb556447537600ccb0b8aa19f637e7e6412f17f069ed337b00dfb064ca94f7a48f8cd439bdddcef649e2282ac98b73f04ced56d84610092565b61028a60608801357f01fae9a72adc2642f24a367227d54f75f597701b2a6a52613705b6dabce8586e7f29b445032b90a9e9754f1cc432ca18ccf2df9ef1bb5c84acaf122ac6bd304e9a84610092565b6102da60808801357f0fc697b66607b7effc520018ca0348d47edeb60707b5dc3d86b55a6cf1f6ff5d7f13f1fb23eca26bef86ad0a1a07a71618c7ecbf24a8054295d6a65730e906013184610092565b61032a60a08801357f0c4cd2ac7edd8a8273380058053189e6fac1fbd751bbe4f44083a53ae6b451787f297cacd19f07d9f76a2723ffdca8a754106a6570c679b3de016df027dc64ad8884610092565b61037a60c08801357f03d23a0da589f0ba6fea12f7bcebbdbe734d978393f29680996ce6ea7c2066f67f2ace6b140961cc62b3d7b4f9614b5736941ad68b5da099e8f1a6f02daa3a54f084610092565b6103ca60e08801357f1064815ae37134cb9fdfd2cc288c8257d2454fd3c5a58ae092906b7c048b64e47f2277f29a756023b4b87bc8a2dde67947fa1cee75bcab2577fa489561653312f184610092565b50823581527f30644e72e131a029b85045b68181585d97816a916871ca8d3c208c16d87cfd4760208401357f30644e72e131a029b85045b68181585d97816a916871ca8d3c208c16d87cfd4703066020820152833560408201526020840135606082015260408401356080820152606084013560a08201527f2d4d9aa7e302d9df41749d5507949d05dbea33fbb16c643b22f599a2be6df2e260c08201527f14bedd503c37ceb061d8ec60209fe345ce89830a19230301f076caff004d192660e08201527f0967032fcbf776d1afc985f88877f182d38480a653f2decaa9794cbc3bf3060c6101008201527f0e187847ad4c798374d0d6732bf501847dd68bc0e071241e0213bc7fc13db7ab6101208201527f304cfbd1e08a704a99f5e847d93f8c3caafddec46b7a0d379da69a4d112346a76101408201527f1739c1b1a457a8c7313123d24d2f9192f896b7c63eea05a9d57f06547ad0cec8610160820152600087015161018082015260206000018701516101a08201527f198e9393920d483a7260bfb731fb5d25f1aa493335a9e71297e485b7aef312c26101c08201527f1800deef121f1e76426a00665e5c4479674322d4f75edadd46debd5cd992f6ed6101e08201527f090689d0585ff075ec9e99ad690c3395bc4b313370b38ef355acdadcd122975b6102008201527f12c85ea5db8c6deb4aab71808dcb408fe3d1e7690c43d37b4ce6cc0166fa7daa610220820152843561024082015260208501356102608201527f198e9393920d483a7260bfb731fb5d25f1aa493335a9e71297e485b7aef312c26102808201527f1800deef121f1e76426a00665e5c4479674322d4f75edadd46debd5cd992f6ed6102a08201527f090689d0585ff075ec9e99ad690c3395bc4b313370b38ef355acdadcd122975b6102c08201527f12c85ea5db8c6deb4aab71808dcb408fe3d1e7690c43d37b4ce6cc0166fa7daa6102e08201526020816103008360086107d05a03fa9051169695505050505050565b60405161038081016040526106c2600084013561005e565b6106cf602084013561005e565b6106dc604084013561005e565b6106e9606084013561005e565b6106f6608084013561005e565b61070360a084013561005e565b61071060c084013561005e565b61071d60e084013561005e565b61072a818486888a6100fd565b90508060005260206000f35b806040810183101561074757600080fd5b92915050565b600080600080610200858703121561076457600080fd5b61076e8686610736565b935060c085018681111561078157600080fd5b6040860193506107918782610736565b92505085610200860111156107a557600080fd5b5091949093509091610100019056fea2646970667358221220cfc6b9289f00143aebfa1d026fea474470da1874287aa38e79a2b72242dc643b64736f6c634300081b0033",
  "linkReferences": {},
  "deployedLinkReferences": {}
}