{
  "_format": "hh-sol-artifact-1",
  "contractName": "Groth16Verifier_AnonEncNullifierNonRepudiation",
  "sourceName": "contracts/verifiers/verifier_anon_enc_nullifier_non_repudiation.sol",
  "abi": [
    {
      "inputs": [
        {
          "internalType": "uint256[2]",
          "name": "_pA",
          "type": "uint256[2]"
        },
        {
          "internalType": "uint256[2][2]",
          "name": "_pB",
          "type": "uint256[2][2]"
        },
        {
          "internalType": "uint256[2]",
          "name": "_pC",
          "type": "uint256[2]"
        },
        {
          "internalType": "uint256[36]",
          "name": "_pubSignals",
          "type": "uint256[36]"
        }
      ],
      "name": "verifyProof",
      "outputs": [
        {
          "internalType": "bool",
          "name": "",
          "type": "bool"
        }
      ],
      "stateMutability": "view",
      "type": "function"
    }
  ],
  "bytecode": "0x6080604052348015600f57600080fd5b5061124d8061001f6000396000f3fe608060405234801561001057600080fd5b506004361061002b5760003560e01c8063881453ac14610030575b600080fd5b61004361003e3660046111b0565b610057565b604051901515815260200160405180910390f35b6000610f85565b7f30644e72e131a029b85045b68181585d2833e84879b9709143e1f593f0000001811061008f576000805260206000f35b50565b600060405183815284602082015285604082015260408160608360076107d05a03fa9150816100c5576000805260206000f35b825160408201526020830151606082015260408360808360066107d05a03fa915050806100f6576000805260206000f35b5050505050565b7f052a74ad522cdc73f2293abc6b0a19a8d0353a21f34a86d0691dcf001fc281d685527f1dc077dae085b7d9b02a2780abdba4152355746b59c13bf7b0a3264c007bf1d960208601526000608086018661019a87357f040e0c84232ccd3ad5ddb66fb4c29e800f7f4d95906b8d6f335c004c53c890277f2d07fc3032c16e2d914a3bad9e56f549f3e7a14e844ed8f3e45b99241f0ceecd84610092565b6101ea60208801357f1e6957567698b8787fee3a7e52a6f2b52db8ce3f6bcd7e5a0df99d945f4948bb7f29e028fe4e2cdd2b458d55861ea30bbeb8d33e22c558583ec0f09557d02ccb9d84610092565b61023a60408801357f26cca7d33aeded444722a7a0db21e1b042959f3ab6f2aee3ef671a6fe86f55a07f1d4087f18a961b7060b92876285cc7f4c1262a1dec0150f9d2e8bbf3b5b3be6284610092565b61028a60608801357f1c5c8b29166b9c169962d5a372a30fc03cf518ca00dba1401369d31e12257d137f08387a6bdeec16aa0416d5f48755c96c62cc4c30ff95a42175edd3d3f40bb11a84610092565b6102da60808801357f0a979efe3b2df2b9b1664c774f222b1e3d8c3eb49dffe3a346163cb432554ba67f296ca912a013f87a318cbca599eefe3e86785c25dbe9fdeeaf91167a9ba259b984610092565b61032a60a08801357f15181482c153764385648d1379bd2d2d5a077e45ba3589e328c2879da785a0667f0d1cd5cb0470e2d79f6b2afd04ac877cc77f21af29ac134d7671882f8fce8ffd84610092565b61037a60c08801357f1835cd59c57fb97d0e2d3d0911ce82be7d92e9ff5f866228dc717e7309d942fb7f1284c07db3f21680707c7758fc2d2f2e2a1e832a6b3f8cae618a50e2fc219dac84610092565b6103ca60e08801357f2b8b792e4c3f4c9b067b137aec8727d1cd9ae0bb091b800e5c8a561653b1e0157f07f200189e8c73a925ed974405e89a8b5fc208514b179f94da3b8cb483ab63a684610092565b61041b6101008801357f01a3bae19beedfae05804670b73e90a2e7d270d9235aa5ac75efe2e11338102d7f174a3d067ef2fba8964d681709a29ecb1bc5a64415bf1f80dced8d1d3a91d36d84610092565b61046c6101208801357f0fd466f5a8c83534937341cf432b7bb76179406ec14239f7683d72874df7eb0b7f0da89e10d5da5c84412eb998ac5768d810b8b2088ff61e711df7677712bfbd7e84610092565b6104bd6101408801357f08a8ed292f2c5f3986c192f1252a03f68e1d91c7303607bb341137e695d528bc7f2011c93b018ab2c0b9cd60183c11179a877a0002329ba8fa96007e60d99691ac84610092565b61050e6101608801357f1962c8e2c0b9e11bfad95a551df0e0dc40ae8e0dedee605f5962b3430ea8942d7f0a7159298219c67a8153a12938178aad1e5b5c37e16406f01be1eb8a4d5362fb84610092565b61055f6101808801357f278754ed3262b39de49cb31d5630aa057d868347712d499a031768d68810de9c7f01c376740a8160bc02112bd35c2dbae2bf1cc0a704909585bce828b159e42c4184610092565b6105b06101a08801357f26d5e91d903e6a4d6a12f08aa6b68b0a7d29f9b0156f8602a667c70349ec1a637f14f967fe82334b90783620065eebf70dc3c95e83f070e8a254947e07a3dd93b584610092565b6106016101c08801357f247194af18d5611a03898d987c2ece1b41d6758a7383d3d0a5f1565b78edc2ce7f2a4112f7f513332cbd9178d265b9b8478006bc3c12d2f4548869771a06618ef584610092565b6106526101e08801357f220cd939cf1ed960b0282b10f477d4cab2a25863dfa41e441587f1bfdbf5ef537f03e96f3538f08ecc7998d002a1e4fa4ae43b27be84210b04ef113fa5c5fbc57384610092565b6106a36102008801357f14e562cfb41584fa4da7f6afc4e941d975bbcfcbccfe8c12598246017dd3a6ef7f210353ae4b3a2b33ab2c8c45289fce6401f9bb25eae50cd63fda730ff329d81c84610092565b6106f46102208801357f0f3886df2c0dc88fc7cde95af5008b0c3ccd5d5ee5b7813ab0468de1d1f120e47f017c77eaba33d7dc4c01532adff1761a6ab331076b1c90033403220eac1a12a884610092565b6107456102408801357f0f3c901f68a4168d4b8df0e8839a9674dce8c9bf072400d6780d81861f428f387f20bfeb918631ade1f9bd42edb0d0c6df5f9a499d331c7225adf3b75bee7379b484610092565b6107966102608801357f178fd2da473724b01cb18cf347807620b862f5cee2cb80e95bc6603c0ebcbf477f11d2a6c36421b0d936ed76d92fe838185132f3deeb23c69aec63ad9e7912e64984610092565b6107e76102808801357f03e5465111f07d864cd5b2f02ce4b9a7f0d28bf3d61db6f3e64a4c030a3eb5057f0ae05e678276a832a32dac5937c8d967c046fa9830d5cacb568a8e4e8ef5a1b584610092565b6108386102a08801357f24cc6ec61268218af68beac5fca642080eacd428dcb80234eb65a672f842d4727f211d8c8069dee9e05dc31fd3f6bb99adbc106b4d3fcfb0a00b5cdf70c6432d3e84610092565b6108896102c08801357f2275d3a069e57e5c748d6edee7be48857505e7077b834e7d0c6a4834a7a6bccd7f1e568fc26037abda8ed14a1dfdf73dfcfa113a786f4eae6268f2da28a77f6a7884610092565b6108da6102e08801357f1a521717ad905e5f0bfffa6531075e251cf756c3e996c455a4aacbc6f443ae8c7f28ecff781d9c57b6e7baa3b29d93ba08681a2a94e0d70217ce4cca85f5ab38e984610092565b61092b6103008801357f1718a5baa9832bbc1f5038c7ad57acfe1a277e27c32b36d0df7c0184966ded287f01b7df06577e2e985bbd40ba26309fcca779a10c004390941529fdf8d8214c7e84610092565b61097c6103208801357f0d68ef43bfcb10f90cf5bc1748cc56ee03e93cb0fe72d6a689152bc63b3140227f03e9b686b2fc1372dfff78ae747cfdc4b81f44426d049e6fc1243f9eaa366d6a84610092565b6109cd6103408801357f18ba53b49973cbb3c9e236260a55fe312a228fe30e2bcaebbfa21710d79cdc617f1f8a596552f974f73d9883ee0f9d5e8f856baedb9e5fe95b5fc13ce33a5b167884610092565b610a1e6103608801357f17239e8caedd2699f9b333a42dbe96103af19e8342b680ef6c9dfb92bf38a1c17f1b84f60f091b41f9ad6f09eb3ed3a7d633c6b1ca30d958bc8877444e99dc2ce184610092565b610a6f6103808801357f1cccbbbd3a9294833cc4f0a1c9d589be965fc939d79d2fe9665fec07d97b6ce57f21dadf06d43d2715d171a55a67d6fb556afeec3537e6e3a14d61c94e6fbb769784610092565b610ac06103a08801357f25ddcb6ac96b4a795fe20444914040e8e2438499263f7c8aa0f78ace697029517f26f4aa3bf075a4c5978e3e3cbacc369dd90eae71c0516427ec88047698416ea684610092565b610b116103c08801357f0cd8189c1704c850312a83cd819672042513cd3a3ba8d052dede1755abbf38f37f1e32f1781acebb690d6e5c4cc182688882a70531c26de14c049177fd685bb1ec84610092565b610b616103e08801357f2b573897743a23702c8ee0cdb6c4b1f6faadfe3ff9038a09774e7c9ea5ab1ca47e2dc4f79cc1045f529f3519f20cebb6ec0d9ba848e963a843104ab59d1d005384610092565b610bb26104008801357f15fead3d63e3e43c73e253159f082c1d79ea997f94d12779d733fabe988356337f039a1be261290e5472bee9a6f4abf55757b5f8c238b140cc20fdfebee519e15784610092565b610c036104208801357f2b9c4e29f24514666d9ad9cd0bb77a27aad231ec8c12c491d563f51b48b296657f14cde407559ead70bdd7ad35076ce47e86fc83d18de493f8a525350b65a3e9fc84610092565b610c546104408801357f0aabbc95e2b31a107574885d51a8425c9badf952ec3699bd38669e4d215c8a1e7f2d0cf609624c5d3e2f676639ea2b9ded5ed413ef94888c7467f08498fdcebf4784610092565b610ca56104608801357f27837567a7171a0ece168c72e4d605a47cd4bfa0b2032bd4e8b2d288c6ce96457f27a7329a5633c22ea5df001f52ce8466395771f4bd2f36a7a7d0f549f41053bc84610092565b50823581527f30644e72e131a029b85045b68181585d97816a916871ca8d3c208c16d87cfd4760208401357f30644e72e131a029b85045b68181585d97816a916871ca8d3c208c16d87cfd4703066020820152833560408201526020840135606082015260408401356080820152606084013560a08201527f2d4d9aa7e302d9df41749d5507949d05dbea33fbb16c643b22f599a2be6df2e260c08201527f14bedd503c37ceb061d8ec60209fe345ce89830a19230301f076caff004d192660e08201527f0967032fcbf776d1afc985f88877f182d38480a653f2decaa9794cbc3bf3060c6101008201527f0e187847ad4c798374d0d6732bf501847dd68bc0e071241e0213bc7fc13db7ab6101208201527f304cfbd1e08a704a99f5e847d93f8c3caafddec46b7a0d379da69a4d112346a76101408201527f1739c1b1a457a8c7313123d24d2f9192f896b7c63eea05a9d57f06547ad0cec8610160820152600087015161018082015260206000018701516101a08201527f198e9393920d483a7260bfb731fb5d25f1aa493335a9e71297e485b7aef312c26101c08201527f1800deef121f1e76426a00665e5c4479674322d4f75edadd46debd5cd992f6ed6101e08201527f090689d0585ff075ec9e99ad690c3395bc4b313370b38ef355acdadcd122975b6102008201527f12c85ea5db8c6deb4aab71808dcb408fe3d1e7690c43d37b4ce6cc0166fa7daa610220820152843561024082015260208501356102608201527f198e9393920d483a7260bfb731fb5d25f1aa493335a9e71297e485b7aef312c26102808201527f1800deef121f1e76426a00665e5c4479674322d4f75edadd46debd5cd992f6ed6102a08201527f090689d0585ff075ec9e99ad690c3395bc4b313370b38ef355acdadcd122975b6102c08201527f12c85ea5db8c6deb4aab71808dcb408fe3d1e7690c43d37b4ce6cc0166fa7daa6102e08201526020816103008360086107d05a03fa9051169695505050505050565b6040516103808101604052610f9d600084013561005e565b610faa602084013561005e565b610fb7604084013561005e565b610fc4606084013561005e565b610fd1608084013561005e565b610fde60a084013561005e565b610feb60c084013561005e565b610ff860e084013561005e565b61100661010084013561005e565b61101461012084013561005e565b61102261014084013561005e565b61103061016084013561005e565b61103e61018084013561005e565b61104c6101a084013561005e565b61105a6101c084013561005e565b6110686101e084013561005e565b61107661020084013561005e565b61108461022084013561005e565b61109261024084013561005e565b6110a061026084013561005e565b6110ae61028084013561005e565b6110bc6102a084013561005e565b6110ca6102c084013561005e565b6110d86102e084013561005e565b6110e661030084013561005e565b6110f461032084013561005e565b61110261034084013561005e565b61111061036084013561005e565b61111e61038084013561005e565b61112c6103a084013561005e565b61113a6103c084013561005e565b6111486103e084013561005e565b61115661040084013561005e565b61116461042084013561005e565b61117261044084013561005e565b61118061046084013561005e565b61118d818486888a6100fd565b90508060005260206000f35b80604081018310156111aa57600080fd5b92915050565b60008060008061058085870312156111c757600080fd5b6111d18686611199565b935060c08501868111156111e457600080fd5b6040860193506111f48782611199565b925050856105808601111561120857600080fd5b5091949093509091610100019056fea264697066735822122015f84489672abc2534ca19e3701aef97a07b5663d69bf608ae1af973dadc3a1564736f6c634300081b0033",
  "linkReferences": {},
  "deployedLinkReferences": {}
}