{
  "_format": "hh-sol-artifact-1",
  "contractName": "Groth16Verifier_BurnNullifierBatch",
  "sourceName": "contracts/verifiers/verifier_burn_nullifier_batch.sol",
  "abi": [
    {
      "inputs": [
        {
          "internalType": "uint256[2]",
          "name": "_pA",
          "type": "uint256[2]"
        },
        {
          "internalType": "uint256[2][2]",
          "name": "_pB",
          "type": "uint256[2][2]"
        },
        {
          "internalType": "uint256[2]",
          "name": "_pC",
          "type": "uint256[2]"
        },
        {
          "internalType": "uint256[22]",
          "name": "_pubSignals",
          "type": "uint256[22]"
        }
      ],
      "name": "verifyProof",
      "outputs": [
        {
          "internalType": "bool",
          "name": "",
          "type": "bool"
        }
      ],
      "stateMutability": "view",
      "type": "function"
    }
  ],
  "bytecode": "0x6080604052348015600f57600080fd5b50610d1c8061001f6000396000f3fe608060405234801561001057600080fd5b506004361061002b5760003560e01c8063c5a0fc2614610030575b600080fd5b61004361003e366004610c7f565b610057565b604051901515815260200160405180910390f35b6000610b18565b7f30644e72e131a029b85045b68181585d2833e84879b9709143e1f593f0000001811061008f576000805260206000f35b50565b600060405183815284602082015285604082015260408160608360076107d05a03fa9150816100c5576000805260206000f35b825160408201526020830151606082015260408360808360066107d05a03fa915050806100f6576000805260206000f35b5050505050565b7f19585dc758ce52a17099fe662575b1a968e5af5daa72f387d29f25ef1088a92f85527f2ab5f4bd0814f956d9f51d49367e3445af70bacdec6dea718477154d5735a86360208601526000608086018661019a87357f0b6a296995c4dcc9796adef7949d546bb05ecf4e3370e183f3d094d0888ac3937f058f0747d31bfda50d5734b3f2f6b7bd0b4c53495ef3c867f5862f7de0d5fc2084610092565b6101ea60208801357f21e9f4d233e445cc65a5899b12c533ce9cf5263f730175fd3d3a681485f64ecf7f18db065889599109f47264defa7797493186b3152c739e44331363cf5b0b643d84610092565b61023a60408801357f270f2f5e205fe906ba1172aa538f86bc8c97121a56c14afed6f1dfd7165066fc7f2c6851d1530e9bb8958a08a211c643ff6181a86a023d424d8185eaee9e9516aa84610092565b61028a60608801357f1c337403102aeb454153cca883f167352766ea73480c5e9c3ee2b8a1f52ee31a7f06cff75230391219a8628f1a9351ed5872c8073647a389f58c8215f5cbcaae3484610092565b6102da60808801357f127a0ce36bff1225daa9ec75cb28aee8faa05f1fe1de13feacce3d7a74138fb97f05b50548a4887828613f4b0b625e12c5a90cb7d2e9ac9d7bc702c34d8eab720b84610092565b61032a60a08801357f16698599c4b33d259b8167f0509ed1b55e92d1d6effa89bb5cc38e09a3bd836c7f212ae7ee90ce51e933365d06c8cfec64bd1514387ab3cca7120b63ef9b2bde9584610092565b61037a60c08801357f15a3cba9036593f18052169dd7c69d11ea81af91aeadeafa818d081b72c83e837f1bc0cb21c9501ed694337633309e3988a11ae468f8982a0a1e2afc9e8575d11184610092565b6103ca60e08801357f0a7d154e19536ac97beba5cdf0799629e3d4d2c3c098bd2b11fa981fbea64dbb7f278d983172692a5eeb1bedee4d226e9e31b8072483d91640d05b408bc45b543584610092565b61041b6101008801357f102c165b758862172a95ba9fd4412950cd64c900bc54654964f637520f49bb257f113dfb4619ba0a9c687ce869c0f36f19ac8fcff16e3bd0262ebcd271fa53161e84610092565b61046c6101208801357f2f9748e5a2e4843bd64262379f1417f1d7c3329a0bfb70b2183f021c3923d3c77f24fd679ec409387c42bbb110289a244412cf706f2b90d8eb4873116010b39c9084610092565b6104bd6101408801357f0a29f991ecbd8a7a01f38d6def1392bf6cce2a8f9c34097ca09d3b3ab2d8dbd67f2791dca192eff8481a63bbe3052672d6b7c7e457e5cc59a433c9b60ad5406f4f84610092565b61050e6101608801357f2590c7b6da038756e18d9c52a1745ed376747c3e1003cf08209463b132ef2c287f0ae92e6b794818aa653f9237d853ae507888e0a130018519af0396c6ffa4bccf84610092565b61055f6101808801357f0cb6abb97b3b3525434c0195c82ca406127547bf377b6268fb18167c7b10c8247f07e942ab3049a0ab75920828139bb6d2df75a87bebfbaaf5c05975e9fcb124d984610092565b6105b06101a08801357f29883895ddfc6757b47ca8b51c2e76a0ace690c16779fae55916514811108e3b7f05f2bd46abffd932b4a77789bfb9de173b467bbdeb98d878eeb4028da1a2c6ea84610092565b6106016101c08801357f1e7b47e9ae931562df390ead9fb3b1a5a6a5b578b627d6ea1d104a4440fd3f7b7f2373a840d60aeb618563546857b546614dedfcb83e3e25686fcd234ee00a60d484610092565b6106526101e08801357f08dcccb74129f2566e6bbcb375a524f950fd5b67622dd1dd3458ef853ccffea37f1e28ffb07e312b420e6595297a2bf71d2cb2e40cb82b519afcee1decd407a99384610092565b6106a36102008801357f28810ad227c90b083febe575e1f1e988912e990c4b060e4b6a26b3932e38054b7f044e7baf16346fd4f757bc00e70b828cdc5294100c71c682748afa2d76c62d0a84610092565b6106f46102208801357f1531f085f401c7009e3e825594c37e6bf7ff50a6072fa44523f43c377a445b277f2ee329d43d0ae70149d215def828c578a53c1aea106b570a04bf0eef01731a7e84610092565b6107456102408801357f1ff6ca86e47453865555fb3f6808ae826f71537c1140e2db8b17fc007617af0b7f232d04128eca3d04fc8e8d52a56312361c9d33b990b0e6ce8ea09c274893423b84610092565b6107966102608801357f09243e587e3955811471405e9a2597dfb8c736386b02c6aa055f8b6a1eb934a67f2d9a224664251187f0de4b3c2e8e7ae609ca21122bbafc5a8027f9864ba4c46184610092565b6107e76102808801357f05e799756e14c6774dfdfbb57057fcfe2ca29b9237bc512b17200a90080d6cb07f0f085fedf427e98cc88b7033801496af1c33cd39983f7b7453c23cce919777d784610092565b6108386102a08801357f11a605dc0fa2761ce27fe1c22171c1d1f3e1c6ff57030ad02ec082358d4f8b027f1251ca75198a56e87017f546c31eeafac7a12e7ff7830d6fc1c35ebe2b94ae6084610092565b50823581527f30644e72e131a029b85045b68181585d97816a916871ca8d3c208c16d87cfd4760208401357f30644e72e131a029b85045b68181585d97816a916871ca8d3c208c16d87cfd4703066020820152833560408201526020840135606082015260408401356080820152606084013560a08201527f2d4d9aa7e302d9df41749d5507949d05dbea33fbb16c643b22f599a2be6df2e260c08201527f14bedd503c37ceb061d8ec60209fe345ce89830a19230301f076caff004d192660e08201527f0967032fcbf776d1afc985f88877f182d38480a653f2decaa9794cbc3bf3060c6101008201527f0e187847ad4c798374d0d6732bf501847dd68bc0e071241e0213bc7fc13db7ab6101208201527f304cfbd1e08a704a99f5e847d93f8c3caafddec46b7a0d379da69a4d112346a76101408201527f1739c1b1a457a8c7313123d24d2f9192f896b7c63eea05a9d57f06547ad0cec8610160820152600087015161018082015260206000018701516101a08201527f198e9393920d483a7260bfb731fb5d25f1aa493335a9e71297e485b7aef312c26101c08201527f1800deef121f1e76426a00665e5c4479674322d4f75edadd46debd5cd992f6ed6101e08201527f090689d0585ff075ec9e99ad690c3395bc4b313370b38ef355acdadcd122975b6102008201527f12c85ea5db8c6deb4aab71808dcb408fe3d1e7690c43d37b4ce6cc0166fa7daa610220820152843561024082015260208501356102608201527f198e9393920d483a7260bfb731fb5d25f1aa493335a9e71297e485b7aef312c26102808201527f1800deef121f1e76426a00665e5c4479674322d4f75edadd46debd5cd992f6ed6102a08201527f090689d0585ff075ec9e99ad690c3395bc4b313370b38ef355acdadcd122975b6102c08201527f12c85ea5db8c6deb4aab71808dcb408fe3d1e7690c43d37b4ce6cc0166fa7daa6102e08201526020816103008360086107d05a03fa9051169695505050505050565b6040516103808101604052610b30600084013561005e565b610b3d602084013561005e565b610b4a604084013561005e565b610b57606084013561005e565b610b64608084013561005e565b610b7160a084013561005e565b610b7e60c084013561005e565b610b8b60e084013561005e565b610b9961010084013561005e565b610ba761012084013561005e565b610bb561014084013561005e565b610bc361016084013561005e565b610bd161018084013561005e565b610bdf6101a084013561005e565b610bed6101c084013561005e565b610bfb6101e084013561005e565b610c0961020084013561005e565b610c1761022084013561005e565b610c2561024084013561005e565b610c3361026084013561005e565b610c4161028084013561005e565b610c4f6102a084013561005e565b610c5c818486888a6100fd565b90508060005260206000f35b8060408101831015610c7957600080fd5b92915050565b6000806000806103c08587031215610c9657600080fd5b610ca08686610c68565b935060c0850186811115610cb357600080fd5b604086019350610cc38782610c68565b925050856103c086011115610cd757600080fd5b5091949093509091610100019056fea26469706673582212205809d2c7e9cce5bcf0ac15616339551ddaf1c2943c8cbeeec7830acfc100289c64736f6c634300081b0033",
  "linkReferences": {},
  "deployedLinkReferences": {}
}