{
  "_format": "hh-sol-artifact-1",
  "contractName": "Groth16Verifier_AnonEncNullifier",
  "sourceName": "contracts/verifiers/verifier_anon_enc_nullifier.sol",
  "abi": [
    {
      "inputs": [
        {
          "internalType": "uint256[2]",
          "name": "_pA",
          "type": "uint256[2]"
        },
        {
          "internalType": "uint256[2][2]",
          "name": "_pB",
          "type": "uint256[2][2]"
        },
        {
          "internalType": "uint256[2]",
          "name": "_pC",
          "type": "uint256[2]"
        },
        {
          "internalType": "uint256[18]",
          "name": "_pubSignals",
          "type": "uint256[18]"
        }
      ],
      "name": "verifyProof",
      "outputs": [
        {
          "internalType": "bool",
          "name": "",
          "type": "bool"
        }
      ],
      "stateMutability": "view",
      "type": "function"
    }
  ],
  "bytecode": "0x6080604052348015600f57600080fd5b50610b9f8061001f6000396000f3fe608060405234801561001057600080fd5b506004361061002b5760003560e01c80634483e72114610030575b600080fd5b61004361003e366004610b02565b610057565b604051901515815260200160405180910390f35b60006109d3565b7f30644e72e131a029b85045b68181585d2833e84879b9709143e1f593f0000001811061008f576000805260206000f35b50565b600060405183815284602082015285604082015260408160608360076107d05a03fa9150816100c5576000805260206000f35b825160408201526020830151606082015260408360808360066107d05a03fa915050806100f6576000805260206000f35b5050505050565b7f301fbfe439482acf45cbbb09d85656a3af516a1aabfcd0b2dea0ebac7bf31aad85527f0a399643eadacfc6239e0363990e9232a4621bf9166461faad3909818992fcc560208601526000608086018661019a87357f0efd8c226cc6b0758f57fb3c6b5ef82e94dde68649cc6671424b9734e5d6842b7f20db053c2e5eacf1f096648689ae7f9c0162bc575d5417086907435665c35b0c84610092565b6101ea60208801357f05019adacfb8dbc76fd2e2f0e776cf95f2207390c2c22738aaf923c846aa0b107f01decf44aa7e21a9696613cf1c6c33cd9c990204651b7c53c3ae2e16cc26507e84610092565b61023a60408801357f2f23e06f09bbb9a1394f1bbb6378ecf6c4389d92b2f9719f673972213f12ea387f2e272a68fffb9509e369827a269d9a8b354d0d7431494cc0702e73f33f2c357184610092565b61028a60608801357f26826f936576c295a2d183a05e4055b0dcdbbc739302d9c6efa2f72295a99c377f2a8a936d53d3ca56a840aaf94865f79926d083e03172c9e2540ef67863ecadaa84610092565b6102da60808801357f250fcf21efd57ce13edd563abd04953475bae75d44eeffa10d334b1f39ea5a357f2e74e28bb22475f24313ddefeebc4c82e28b3ca5e8a4c26c3b89f51b6301e46a84610092565b61032a60a08801357f103bc7ec7ec13035fd0de14f70e4ba21ec0b0836dc0b776e4a0f0825600175b57f1a1565e11c596e8d84f9bf45538f5fc394039bc5616065ac12f252cb5139facf84610092565b61037a60c08801357f05d83cc67c6b2c153fc4f29f020abc2c730e5b9e1e84c0378113525d47ede5d07f0b8e30729b35dfa6ab62c0adf917ed6b23f5f97845591f0fa261ccd502ca9ee584610092565b6103ca60e08801357f0144d1fd4e8e517f198c12d4f24ff85e85696a79a35b882d32d67f18b20cd9d57f2a63fdc427d228fe95e8ccdac8939418c430ef27c945d1ce944ca3011a90f76084610092565b61041b6101008801357f0510a2a5acd7f2520f301e9dbbe0dee463f680c7f9e1c4eccd46134b2992d2ad7f263d40566dbd06f500bc32db004f3814fb35e5eb9ded828b3c8654ce8afe93ba84610092565b61046c6101208801357f17f6d99f7ee88e98d0f8e878490a53b50c02bd098c975afeb5f09230d59dc76d7f11a4ddc6694ef4da8159b348be22073fd4534adfecab3a6efbbb77f656ff41d284610092565b6104bd6101408801357f0e75aaad6d6dad5e0012ed0a79becd7f364ed5f7fe29362f43561b1768224f0e7f020be9c3152146cf7630fb5fef00fddf46a7b6059ba49588cbe63625f83a899a84610092565b61050e6101608801357f1d787bbcb4821009d3ff3a7e42fd9f89c129ebad75e8538f79c465d76534e6527f22ed6138ea385942738c17551d2edd0f7ada592194ea0e9b479887c80045f76084610092565b61055f6101808801357f067e6a65226973386a770094eb4be8c147172e8630234046f4e4d23cc5f989a77f13e0a4f05dbbf8d26b7e943869827431c86c620eb6a4231ce2b621e938f381b884610092565b6105af6101a08801357ef55e0cf4b0b0ce2684ffe1bc3d5a3e674364131bf6c61c6984b7366bf83ac57f023c267897555ae9fab372347de5877ee0a0850952d3de8f78720ea84bd0b07e84610092565b6106006101c08801357f279dca8daf65f6f42f04048ba61f80eca95242785165d5508965d62ef713a08f7f033e4d7a3bb8c12d2a3a4028490635b8910deff966a55362dcfedad2836edfda84610092565b6106516101e08801357f1a320ea2b4001dc2cea405b9b674f1231840bb397e63e0a66ede6f9c33f543437f0676fbe5b66ef892fb9f0e89427cbb82581707b8d801d039a7f92ba8c50e9faf84610092565b6106a26102008801357f2b3b2791180b89fbbeca1dfc32bd1d74b8ef5f2fc318a9721d82f4370a8359067f2d23521179ee570e519a8bac331c1a701aca0d511418aa25cd8e853f3314e04884610092565b6106f36102208801357f0831ae61f60e9f8c06a09cb9bedb4f79cc1ad045d42bc8b94ef6b5179d7294b97f2e5353c22a7cfd5dc1f13aba25228eb334eb8c46c3ec48627e1e931f7dfeccb684610092565b50823581527f30644e72e131a029b85045b68181585d97816a916871ca8d3c208c16d87cfd4760208401357f30644e72e131a029b85045b68181585d97816a916871ca8d3c208c16d87cfd4703066020820152833560408201526020840135606082015260408401356080820152606084013560a08201527f2d4d9aa7e302d9df41749d5507949d05dbea33fbb16c643b22f599a2be6df2e260c08201527f14bedd503c37ceb061d8ec60209fe345ce89830a19230301f076caff004d192660e08201527f0967032fcbf776d1afc985f88877f182d38480a653f2decaa9794cbc3bf3060c6101008201527f0e187847ad4c798374d0d6732bf501847dd68bc0e071241e0213bc7fc13db7ab6101208201527f304cfbd1e08a704a99f5e847d93f8c3caafddec46b7a0d379da69a4d112346a76101408201527f1739c1b1a457a8c7313123d24d2f9192f896b7c63eea05a9d57f06547ad0cec8610160820152600087015161018082015260206000018701516101a08201527f198e9393920d483a7260bfb731fb5d25f1aa493335a9e71297e485b7aef312c26101c08201527f1800deef121f1e76426a00665e5c4479674322d4f75edadd46debd5cd992f6ed6101e08201527f090689d0585ff075ec9e99ad690c3395bc4b313370b38ef355acdadcd122975b6102008201527f12c85ea5db8c6deb4aab71808dcb408fe3d1e7690c43d37b4ce6cc0166fa7daa610220820152843561024082015260208501356102608201527f198e9393920d483a7260bfb731fb5d25f1aa493335a9e71297e485b7aef312c26102808201527f1800deef121f1e76426a00665e5c4479674322d4f75edadd46debd5cd992f6ed6102a08201527f090689d0585ff075ec9e99ad690c3395bc4b313370b38ef355acdadcd122975b6102c08201527f12c85ea5db8c6deb4aab71808dcb408fe3d1e7690c43d37b4ce6cc0166fa7daa6102e08201526020816103008360086107d05a03fa9051169695505050505050565b60405161038081016040526109eb600084013561005e565b6109f8602084013561005e565b610a05604084013561005e565b610a12606084013561005e565b610a1f608084013561005e565b610a2c60a084013561005e565b610a3960c084013561005e565b610a4660e084013561005e565b610a5461010084013561005e565b610a6261012084013561005e565b610a7061014084013561005e565b610a7e61016084013561005e565b610a8c61018084013561005e565b610a9a6101a084013561005e565b610aa86101c084013561005e565b610ab66101e084013561005e565b610ac461020084013561005e565b610ad261022084013561005e565b610adf818486888a6100fd565b90508060005260206000f35b8060408101831015610afc57600080fd5b92915050565b6000806000806103408587031215610b1957600080fd5b610b238686610aeb565b935060c0850186811115610b3657600080fd5b604086019350610b468782610aeb565b9250508561034086011115610b5a57600080fd5b5091949093509091610100019056fea264697066735822122028bdfad7c50fa5496cdf638dca3b341ace72c7d974a13b45819c7b88184a7cf664736f6c634300081b0033",
  "linkReferences": {},
  "deployedLinkReferences": {}
}