{
  "_format": "hh-sol-artifact-1",
  "contractName": "Groth16Verifier_AnonEncNullifierKycBatch",
  "sourceName": "contracts/verifiers/verifier_anon_enc_nullifier_kyc_batch.sol",
  "abi": [
    {
      "inputs": [
        {
          "internalType": "uint256[2]",
          "name": "_pA",
          "type": "uint256[2]"
        },
        {
          "internalType": "uint256[2][2]",
          "name": "_pB",
          "type": "uint256[2][2]"
        },
        {
          "internalType": "uint256[2]",
          "name": "_pC",
          "type": "uint256[2]"
        },
        {
          "internalType": "uint256[75]",
          "name": "_pubSignals",
          "type": "uint256[75]"
        }
      ],
      "name": "verifyProof",
      "outputs": [
        {
          "internalType": "bool",
          "name": "",
          "type": "bool"
        }
      ],
      "stateMutability": "view",
      "type": "function"
    }
  ],
  "bytecode": "0x6080604052348015600f57600080fd5b506120c48061001f6000396000f3fe608060405234801561001057600080fd5b506004361061002b5760003560e01c8063f49c1ff414610030575b600080fd5b61004361003e366004612027565b610057565b604051901515815260200160405180910390f35b6000611bda565b7f30644e72e131a029b85045b68181585d2833e84879b9709143e1f593f0000001811061008f576000805260206000f35b50565b600060405183815284602082015285604082015260408160608360076107d05a03fa9150816100c5576000805260206000f35b825160408201526020830151606082015260408360808360066107d05a03fa915050806100f6576000805260206000f35b5050505050565b7f2211a2170673e1a4132e9f1499e9dc1a38534384d7bfb97da58e0a36fa15c6d785527f141a4fe4d7c0160228b36202937897d5b4740ad5d376084b614d96ac2eb4a7f660208601526000608086018661019a87357f281793f0545c0729cb7bd06e7d6dd37bfa4d3e264c3b9313b2a1cc597046bdbe7f11936270823a14e9b4c14699381bf0eaa6fe9c6416344c74d38bbcf27d96cf9684610092565b6101ea60208801357f075af7241c2e59577a7ea9ebb31bfefd5318a40cb2b9ba9058535b9064716d417f28b4f4b8af9a1ff8411680c3fd1505468ab94ec2e1397739a35f401a79fd4c9784610092565b61023a60408801357f0a39606cc90fd846d1b204ed0ed3ff5d10b319709e35977b7ccb893947b59cd37f08257fed621ea7bdc31bee7514ef5d2835e7198dd41cc452d7475195da43678a84610092565b61028a60608801357f153d74538e48aa14bddd44754f96e3e85df23eb39c48fb343cefc5e872c158cf7f29df36fa56a556f56b74fa470364063d3a209d6aebeaccb839f602df95374fa984610092565b6102da60808801357f0711c965580e7da92f2410b2345de6281f41a4af373fa6edd1eebdb43cd196397f09846a7ce6e6f5e936d914e96487c525e6f878935884ddc3efeb9b7862cd024b84610092565b61032a60a08801357f08b7e2070d59905523b93a3675a6ca829f52fc3b4ae015779bcc1d27dfb635657f21179b68d2608c14b165e01a9107d0bf19374ba77748a5fc4931ac176a1e819384610092565b61037a60c08801357f23e760f8e445a57c7d72e0dedde10adae427733b32bed16b6dbe6296840264367f1a1d2d9109838b9a098a754e5e9c957c46962869b205afc7bf36f145269ee43c84610092565b6103ca60e08801357f2341b2fffc764b50928678e5198eee80ea25b4a32f628807ef6cc8f095c45f0b7f1ee6975e1bf8452aed075f7eb7e50c3fd47ab2f1203627984b32da6e06b4b89084610092565b61041b6101008801357f0a0db5c97b2b29e836f352c7ef9e09655f5bfe60e5316b58ded41b041a7941887f2c6b4fe384339f5a1d1a8ff1348a8c020f79c41b83724ef21d9569c9bd58f01c84610092565b61046c6101208801357f1e8dcc852ca2cb8b1ae08923d5aad90bff3c5dcacce2f0f577a6f593987482627f21684b32abe4b2c096fadd51fee9713fad736c566bda71fec3428884edaf105484610092565b6104bd6101408801357f21b3c36f4487e5ef25dbaa1ccda0d4ba7dcd938bfc78cc9cb5811cad68d4bf6d7f0d25156052a8bd1922067013f85bf5f7ba6fd01110b7005f2c01a2193f187ae184610092565b61050e6101608801357f01d0d0a79b97bb7b2e4eadf37b3279b0cd64f073a07fd78c7e2ff6275a9048b77f088fc4d247a9df647246dd5ace945e09375ba95576714356a3a8596ef1d968ca84610092565b61055f6101808801357f21cf85000b6d1ae3c530d71ab48879a9de937165f99a2a14143841e38a0836217f1d02d941a2c0c05428e4e244eb70a81a9f20d70feb369bacff98f3c8a95ff57b84610092565b6105b06101a08801357f2cd7f421ad678b104b7fa17029218ec96987c83b25568814608a5db3cf2462e67f167ac2caa8c13e512efa63f9e324265297a85a2e687d363046261ae25a2867f184610092565b6106016101c08801357f28643d273764b7047bc2e2e0adbd7008a8c450020ad998fd9e429540e2d0bd8d7f13dd15b119093adfd848725b5a988f3c29533a4ee604a7ca2923e6573b7acf1584610092565b6106526101e08801357f0a601200b0045478de41f910a8530a53da8dd6dabf7797c7545cf230afaff3b17f157999174fae670e3837e990f395e37775de1c43ea5e8f9c358a03b7aa09609384610092565b6106a36102008801357f26d957efc3c9e72362bbb795825c6a816c8a198e20eda3c1e36e92fb6fa690f77f1ea7d22bfbcee48a7b6bba8e032ee38e3e203f0d3c8e5a863f854ae29263c33a84610092565b6106f46102208801357f0afc983a96ab8dde39de6ce363597bbd9e94b98bf2d116b12316f9d195fcbb367f05490542d74ebd4a25a6fcf8035b8c81805628839b0d6efe55bd2a122f9076ca84610092565b6107446102408801357e30e0b197d9875a25dd42f7f1d34c0dce0897eb4d0c27526241f7cecb11d82b7f26957f770a0a83f3a55d9554cce718eea166b0904faab1416922c4cf1236fbb384610092565b6107956102608801357f13b32c78af79b81137531405b91620ef8efed73c98f6416aa4075bbb369257847f08b9e29133071ecd8fbf8a96c57b44f7276c323e9ab997b1f13fad0a1316220d84610092565b6107e66102808801357f2dcb5f202d19ac74173e4bb5211fb1dcc89fd19f484202c31473441d92d3d8767f1be5d0b0e645f53ee53c7c57551ca7bcb8e6c74a4fa8a9b94366714ad96ad1e984610092565b6108376102a08801357f1ca00cc64869b740c84ddb086c5d7e11080d872eb1c8d5428223fdf85f06fed17f141a729acd1ad419d05b518690d816e54b21761bc6613ea9e02705583595417584610092565b6108886102c08801357f23ed22011011262d8dff1095e7d2d9c8da44aaec16b30a3e7818d3961489c1b67f2c74643be4acc580ac2e37e661cd2f7a482baca35993e2fbd1829169c1423ddf84610092565b6108d96102e08801357f1a39f6f3d2230ab7455deb5690425d13c09e3748e20e38ede5c74f19a8d10b3a7f261c0fdcc611fa6b6b4da919838cd3f01310362b112c70ca728dbf4731d11b6f84610092565b61092a6103008801357f0afea46717567518e9a608d07e9d2de275006e224499c3b2c436eb2ea500845f7f21e390f22015de106b4f1bc020547ed90bf275964eac918c6555b8a1bb1e2c2884610092565b61097b6103208801357f1644fda296bdac252eef6d5e7bbe7b430195628e565bb7b008c582c7c857fd597f19cc78251e86a82a1e233857880b9b93fde0e3e6376707daa7be28d620d91c2f84610092565b6109cc6103408801357f155d6ee4a08ae565efcede09e6ff804ded760a0231bb114a7e3997ec59b165017f20493c7367dd72c77cf80a2e105a77aebd89cccfb78b9ef1b33f4d2e1c36c7c484610092565b610a1d6103608801357f2c02d47abc8d969c7cb7d1901a54f31402312a387b001c90ebda40279cdef4447f105a740b835bfc672a4c89691e7a3598d0798e881db71820c50f295d4d744fb684610092565b610a6e6103808801357f1d5b434adb74c6878773262f9d3c80a35af475f2ef694e8714f1a376fb21dc8d7f1f503e0d201c6036dbc7bb71d3cbb9d0dd26c18546f78be2370eab10e64b08af84610092565b610abf6103a08801357f18c3c59ae4980f9fc30a0b5b9fb76d37901dbd0df34f652bdbc386d4225655437f2336b7cc2e4bddf5c7eef628aaa2ffff9fc9052cc276d82f4bcc40b95503949c84610092565b610b106103c08801357f3043b143c123fc8ba430b398ba81dddf643594230802f929d94efdb764cc4da57f23d0edfb638df2c1dc50ef78597796f8baea372052bec35dcc25af93aaafca5984610092565b610b616103e08801357f2c6f3feec0320b4fbd6b6025651c6a3fc67758128a7d51c3497f6d5b6d513b3b7f1083f46bb128ecdb3bf70a7c6fbe470c8fd2fb4f184a4c6d63bff4c5e3d7819684610092565b610bb26104008801357f2dc2bf096ee311c940532ee1522f086b8272863cb391acbfda739f62d8b97ff37f0a4bed8555f5a4c4eb2d53b87c59fb10f3259b65b50657b1c8a2363152d143ce84610092565b610c036104208801357f1f4f3ad7fad81e8ddb780c9766b5b62fd28d00d37553450607fc07fee9d061677f266f7c072f86f794282ce53ef6737dfdb57bc9e9cf09c72b4e85aa69af35803d84610092565b610c546104408801357f17ba3599524c638e6158896c571d21d5d3f6846bb26bbc8008c17dc690f3fde57f2b70ba4fad58eb604de0a61393c425d4ea6a50f97dc755008113364d2225473184610092565b610ca56104608801357f0628580b1aaebacd06c9db9271a9c08eff10f2a7bed61e27339c499d304f53767f20361933d09c06879d242e27f6b4353c53432bde517e59d7a5d4f77f1550b54284610092565b610cf66104808801357f0529ca6d6feef9d329d7bd79cdec134d996c8fd196486c889298c38a3b9c3a7a7f1b58f9f62bfa1c052f5cec4722dafc29af54b672cf6df8598adc7056ac2a899c84610092565b610d476104a08801357f2b88f93bb7b077d5d1338d9ecf052a0a8023ac7bdcac927f20facdfd9803ebdd7f15d1d337de7588ae10358151f755d94d3e2d5dc5f7b3a2c48dd160ae8b23cb2284610092565b610d986104c08801357f0b98857845bcffce2aefcd11136dec36f17943c63446f22489b82378210eb4e47f17a79c56bf1b2c948b8ecf344969fbeb3584f94a1b638c263d986a52ff7f95c984610092565b610de96104e08801357f1432e1bfca006e10e1a1a0dc6fba5b32d39ee1b4d581fa528b701554302273a97f1f4cbd0d9870b46864cc96347626ecbb88987fd7f126e86de5eddfdf23ba9e7484610092565b610e3a6105008801357f1cea2cdba239152a0373005090aea256cba00d5b679723067cc8a826286ccb9e7f1a6e4880b0417f246cbcfb77cccf38bbe7f1c7de963840073a669548aeeec89f84610092565b610e8b6105208801357f0994e5bb234fac119038b739f72f5403b91404fe066f81a89109b119d1552be17f1d627e310391fc87ed41702a3c4876152c2d174d94494c60fe41d3410263d39e84610092565b610edc6105408801357f2a4fa08b572fe45068780d03cfe6e58cee54da91838a3ef6eff76002f46c21d87f022e29eb6cd35a540a48d6a2e8af5a149a6bbf25535cb3477cbe6d1b363f4a1784610092565b610f2d6105608801357f092d7431d54d8ac72f0510ca057ca0cf3caf3199ecfc3e192615c2097004316e7f1b96fc31176e380db8ff4bb47087a73782687d63a948f371502c3cef5370e3bb84610092565b610f7e6105808801357f07c41882c08973ec80cb9d6559ef6c16ad3b52fe8164be472033d42aa628d6db7f021843d2970899f3454b397143474e3ce51ed28c8610b3a0625cb9367870a98984610092565b610fcf6105a08801357f087196740c641121e6d074f6fe207d551650945fab14f4546d073dfd8cfe680d7f0c012b68f24a5b430de20b977a66d1534807edcb5ca07f9dca538ba9be0a520684610092565b6110206105c08801357f095c171d7c39f20ac9e7444410d72ced2af8b8c0f9fb014317c2427de5658abb7f23b354263de9ff922507790038c136a65ac91fe6b58a1dc31016cbdcd85bcc7584610092565b6110716105e08801357f095f62f15a5f9264091b7714fc39d933ff323288c46cb86ac98523efccf5a71b7f045c5bcf07f9eadc5cffcccfb42e0b261cc9dcad78efc319fa4e3630fac2a27d84610092565b6110c26106008801357f15e964ead08a7a36b32f900f9d5e7e5ecaa867285a1b2b9aa0d8601b106afa9c7f24dafc002b7753443e46f798d056df1be545b638718ee944f0fb6b5cb93ebb3084610092565b6111136106208801357f29dac50fd0b3af2e87db19d7300df4502aeca7a90c288b5e7b3398b2826d7d367f2ff3d2f79220b079e3737536d9e3f182389d31bb6e91189d07a24204af4fd62684610092565b6111646106408801357f0a9f8d3ce66739633c9739b84bdd5d5468eb951d7ada99985aa5046f7fa46c897f025400af7606eb3834cc6a45de5d941624cff06ac19f8b4200cead192945124684610092565b6111b56106608801357f10a4c8eb71960cbf3d27b0f87f1f5bfb8aa220909118b139d827873d43bb93067f0789d6b43b0657188eb205811bd0417bdd25e8f3df98019f75b74d701460615684610092565b6112066106808801357f24b6daa60442af88d06c1a478b783f6bf23d50dc5e74cb6e4b2c829c87d9a2467f2d77d0c046b97597e671fc82f69c43e9263576973765555f60d22fc89bdb49c584610092565b6112566106a08801357e436cf02066ce2d0ff60348fcd4d4ec88557b4dc826c58a1507c629a6a9bab27f2ca6c14aac326c89bb127e6d10e83af80faf21a9b395d54db83ebe505bddb05484610092565b6112a76106c08801357f2b03b5867dd9d0f7ea190da374f271338cfa9896333ff99fe0fbdff3128d959d7f036f8d862c1f4ecb76f060825394e298aabce484102e473dd03d958e7b3d966384610092565b6112f86106e08801357f07ffa9fd30e3554fec90b42230d6bda4384bed59fe2d14581f7f9b9df036bb597f23cf44a1532ae8bf8670e6ea4eb67ff5e7195a43c3aca4d62e6a3e680423a06284610092565b6113496107008801357f221cc53904614d0aee17843ef5fdc66c97a0c118834a07d8f972b010227b04b17f2ecedaddc45d6f8f70deaf1d1b7b5ee694bb8f3e0b96f9528221bb54bf61c17484610092565b61139a6107208801357f16dfff450ae8ccd4197ef9a78abaa6dfebba731eb32cdda1b3c1071e102d5e7f7f14bbc3eafeaeae4a0c09543223782e7dd78d6b39832b27aa707a0ac690edd69884610092565b6113eb6107408801357f031d53c065b1674c3624bd8d00f6e542fef20d8950679c9ef127587c4898bb477f29ff7165a2d421987057194c104f3810311843485d67944097719e719d89a81384610092565b61143c6107608801357f035732588bdd74f821c98f78bb6c90c12c32c065d6516beb20a932d13543480d7f1d980e6156fbca7567014399b89c24d78857e9f50c5b4d77e1176b5703617d2a84610092565b61148c6107808801357e196d86553c8f16b86205d96559afc7518d2ad44ec90c2ebd7f41fdfd27ff717f2ffab88363f6a1c63c5777c1088e267367202ee278cc37a9ec1dba1acb1f56f384610092565b6114dd6107a08801357f066ee81cb584f620e0a7224c2b20467c01cd13318203152d3e2be068638f36707f195ebb2fe6ba3946272076f24e969ecb3d83ab166ef69435985f42e89daa0c6184610092565b61152e6107c08801357f1e01632c1aecd05b289fb2da4c3d4f79d12f9e52732c47950311ee6578fee9e37f173e1d086b865ef525f79b6d10041f27ec80ea67e695d8f85f592dbcdfe9ec2684610092565b61157f6107e08801357f1bb30734edf839b77879d29f19f6eaf6494549cc505ad54dbc0bb0cebfc7117a7f30394555b930855b3fd25dfce349eb59a3b9d7cca388527873a45371c028c7ac84610092565b6115d06108008801357f180240ed5546ff219450e64d1524e501281e7cc091f4cc162cfca500ea3be6447f2fc43751c13478210abe97b6d078cf8d3a5bb8cef1daad41d97f05d9feaef59b84610092565b6116216108208801357f2d76f9111d35473fbec94496c7a4e3b92c2ecb2f7338bb21b5e087c1c1b1cbe47f05b7b06480ed2e3c704222ba2586c3201a1a795e87f72f22a6df3110432df5ee84610092565b6116726108408801357f24428914aedb4996b7eda5e780548d5061db318b019128e079a1da427616e2b07f013bb679ae61ec53424df75cbc73255b89b9973da9a70fed80882013fa90acb184610092565b6116c36108608801357f0195c8cf5bcf9c997e72ec73f2ca1fed4d0e82844a46e41e00baffa322c251f77f16064b473661c05dbfd2deed17573e1ad775fc357aec3206b63f90f29683f04c84610092565b6117146108808801357f0e06408cc0291176877d2e53ce995052a01c176fbd4549c5e927bb4a2b1616697f01a1c31cde9b60fcc5d0df4ba75f5a62dfe168966aec64cb27dd16a4093106cb84610092565b6117656108a08801357f235ed1360b6fc952d4a9086dd518553497f4260ad3ae6cf3ccfc4ee50c67e98e7f1d1cd200851cec7a1cfd5410385400a5660823fcdaa0e5013a2b5ba6017b0f9f84610092565b6117b66108c08801357f2983bd1e87995dd2e17e10ffe3e644bd308052bedcbd41c19bfb79d924fbbfbe7f0d6117c83cbd0204d151c28610df4df372e7cede6897e94e757fdf73d46dbc9584610092565b6118076108e08801357f017bed4b8556e5124ee64df00b9877e5beaa8c6ac731d40fb1af19e6841ef7547f1de330e46de9dd9303ed41cb0a5173c97a890d849d7218a472f578e46f78bd2384610092565b6118586109008801357f0f69bab77d7a5c86e230a67872e2291f2ef29da11cb1f96c457fff60b77530367f190db2fd9e70f5c93131eb7fc70b5e0d49a2e82b34019d818a9beded2ff25f9f84610092565b6118a96109208801357f2f1c299c6ee45b9ac800f5688e6fa96e8776f533b6ceb0dba6561dcd1add55ac7f2aa021de5b59810750603d61955264eb285731fc89b557d9ba58a26bc65a00ff84610092565b6118fa6109408801357f2694b40356726b4d7b5ef296b83239591ecf5748af4124b3161f1dee7195fc9e7f2751eace1315595b28da283ecc014ce486ed897fa29cc9bc40fd154a426cc4d584610092565b50823581527f30644e72e131a029b85045b68181585d97816a916871ca8d3c208c16d87cfd4760208401357f30644e72e131a029b85045b68181585d97816a916871ca8d3c208c16d87cfd4703066020820152833560408201526020840135606082015260408401356080820152606084013560a08201527f2d4d9aa7e302d9df41749d5507949d05dbea33fbb16c643b22f599a2be6df2e260c08201527f14bedd503c37ceb061d8ec60209fe345ce89830a19230301f076caff004d192660e08201527f0967032fcbf776d1afc985f88877f182d38480a653f2decaa9794cbc3bf3060c6101008201527f0e187847ad4c798374d0d6732bf501847dd68bc0e071241e0213bc7fc13db7ab6101208201527f304cfbd1e08a704a99f5e847d93f8c3caafddec46b7a0d379da69a4d112346a76101408201527f1739c1b1a457a8c7313123d24d2f9192f896b7c63eea05a9d57f06547ad0cec8610160820152600087015161018082015260206000018701516101a08201527f198e9393920d483a7260bfb731fb5d25f1aa493335a9e71297e485b7aef312c26101c08201527f1800deef121f1e76426a00665e5c4479674322d4f75edadd46debd5cd992f6ed6101e08201527f090689d0585ff075ec9e99ad690c3395bc4b313370b38ef355acdadcd122975b6102008201527f12c85ea5db8c6deb4aab71808dcb408fe3d1e7690c43d37b4ce6cc0166fa7daa610220820152843561024082015260208501356102608201527f198e9393920d483a7260bfb731fb5d25f1aa493335a9e71297e485b7aef312c26102808201527f1800deef121f1e76426a00665e5c4479674322d4f75edadd46debd5cd992f6ed6102a08201527f090689d0585ff075ec9e99ad690c3395bc4b313370b38ef355acdadcd122975b6102c08201527f12c85ea5db8c6deb4aab71808dcb408fe3d1e7690c43d37b4ce6cc0166fa7daa6102e08201526020816103008360086107d05a03fa9051169695505050505050565b6040516103808101604052611bf2600084013561005e565b611bff602084013561005e565b611c0c604084013561005e565b611c19606084013561005e565b611c26608084013561005e565b611c3360a084013561005e565b611c4060c084013561005e565b611c4d60e084013561005e565b611c5b61010084013561005e565b611c6961012084013561005e565b611c7761014084013561005e565b611c8561016084013561005e565b611c9361018084013561005e565b611ca16101a084013561005e565b611caf6101c084013561005e565b611cbd6101e084013561005e565b611ccb61020084013561005e565b611cd961022084013561005e565b611ce761024084013561005e565b611cf561026084013561005e565b611d0361028084013561005e565b611d116102a084013561005e565b611d1f6102c084013561005e565b611d2d6102e084013561005e565b611d3b61030084013561005e565b611d4961032084013561005e565b611d5761034084013561005e565b611d6561036084013561005e565b611d7361038084013561005e565b611d816103a084013561005e565b611d8f6103c084013561005e565b611d9d6103e084013561005e565b611dab61040084013561005e565b611db961042084013561005e565b611dc761044084013561005e565b611dd561046084013561005e565b611de361048084013561005e565b611df16104a084013561005e565b611dff6104c084013561005e565b611e0d6104e084013561005e565b611e1b61050084013561005e565b611e2961052084013561005e565b611e3761054084013561005e565b611e4561056084013561005e565b611e5361058084013561005e565b611e616105a084013561005e565b611e6f6105c084013561005e565b611e7d6105e084013561005e565b611e8b61060084013561005e565b611e9961062084013561005e565b611ea761064084013561005e565b611eb561066084013561005e565b611ec361068084013561005e565b611ed16106a084013561005e565b611edf6106c084013561005e565b611eed6106e084013561005e565b611efb61070084013561005e565b611f0961072084013561005e565b611f1761074084013561005e565b611f2561076084013561005e565b611f3361078084013561005e565b611f416107a084013561005e565b611f4f6107c084013561005e565b611f5d6107e084013561005e565b611f6b61080084013561005e565b611f7961082084013561005e565b611f8761084084013561005e565b611f9561086084013561005e565b611fa361088084013561005e565b611fb16108a084013561005e565b611fbf6108c084013561005e565b611fcd6108e084013561005e565b611fdb61090084013561005e565b611fe961092084013561005e565b611ff761094084013561005e565b612004818486888a6100fd565b90508060005260206000f35b806040810183101561202157600080fd5b92915050565b600080600080610a60858703121561203e57600080fd5b6120488686612010565b935060c085018681111561205b57600080fd5b60408601935061206b8782612010565b92505085610a608601111561207f57600080fd5b5091949093509091610100019056fea2646970667358221220e27c95f40aacc51b76ba5c021841ca62af8e035484e15f7d9e4e223d435ac85564736f6c634300081b0033",
  "linkReferences": {},
  "deployedLinkReferences": {}
}