{
  "_format": "hh-sol-artifact-1",
  "contractName": "Groth16Verifier_AnonEncBatch",
  "sourceName": "contracts/verifiers/verifier_anon_enc_batch.sol",
  "abi": [
    {
      "inputs": [
        {
          "internalType": "uint256[2]",
          "name": "_pA",
          "type": "uint256[2]"
        },
        {
          "internalType": "uint256[2][2]",
          "name": "_pB",
          "type": "uint256[2][2]"
        },
        {
          "internalType": "uint256[2]",
          "name": "_pC",
          "type": "uint256[2]"
        },
        {
          "internalType": "uint256[63]",
          "name": "_pubSignals",
          "type": "uint256[63]"
        }
      ],
      "name": "verifyProof",
      "outputs": [
        {
          "internalType": "bool",
          "name": "",
          "type": "bool"
        }
      ],
      "stateMutability": "view",
      "type": "function"
    }
  ],
  "bytecode": "0x6080604052348015600f57600080fd5b50611c508061001f6000396000f3fe608060405234801561001057600080fd5b506004361061002b5760003560e01c80637d40902614610030575b600080fd5b61004361003e366004611bb3565b610057565b604051901515815260200160405180910390f35b600061180e565b7f30644e72e131a029b85045b68181585d2833e84879b9709143e1f593f0000001811061008f576000805260206000f35b50565b600060405183815284602082015285604082015260408160608360076107d05a03fa9150816100c5576000805260206000f35b825160408201526020830151606082015260408360808360066107d05a03fa915050806100f6576000805260206000f35b5050505050565b7f193674d1b9b1c26da6ce1ec0e9092002d75fb4c20a55cccd615b84f62fe9644885527f2f5e6803e281929ff41a57f7bc4d9322875323c6dcd3122149937b93e38f5e1e60208601526000608086018661019a87357f187994ef99222b7f850a494d1222e1ace8f781a734d932ce6a12ce7a95ed907c7f0f31823d4b6d675e01d38b1ec6f91eea87b94ceba0033ea57a2a446165e4db7484610092565b6101ea60208801357f0eb156d70919b77de377d9bcdce5d1528d9e0488ecb67f0c9ec19d153b50f1947f259893bb9fae21a1593589af6c3fe4b60fa9ad127f2dd5b7157e9b5f26afb50684610092565b61023a60408801357f180b0955c96b5da9361aab846e95b46c15d2be70fa7862ef465f48e9ad7fa8447f0d7f960c597623b6426279b889197ce81d3af08c72288be498cced5ec1d68c9884610092565b61028a60608801357f0e6411451c4c81a279ed14c2d399c1b3324d713e23029bafcc22982bf44010dd7f10da4868639a1f580962b48dc1162c248dd75802a5268558b8733c3c7c8c254484610092565b6102da60808801357f1e040633c40c6b1aa3c8c78a8b0cd59ae2dd0f92a5fb357f05e3503b83c76b4b7f068ea17350e8d6756ac7b8fab0480141271898d7d673818e2be33c319906201284610092565b61032a60a08801357f1fc2cb15789e198aaeb6b800d50c070ae24747c9d351128e74cc5a3f8f1df7f17f129ced836ddcc289d03a1280678a5c27901b3697c6d4c321e43598c844ea593984610092565b61037960c08801357eef8542dd2516c72d360ff95af324edbbd0ed98ddeaefe3a26db41ffb7941bb7f305b68e1f3b838b8290c7aca08cc661b9dffef1b8cda745794936a43c44735a284610092565b6103c960e08801357f027bc07e7ad9a4f02afa590b8ae6e94892c567bb5306ad164a4ce7ad8e66cb7e7f299d83f369fa98e46e5c8a4b3075f33f36f49036d25ed43be890234f3e387e4584610092565b61041a6101008801357f061821f9894eafd713f7bb143e3568487233b65062465b54a2a5c7894a5dc4237f13a9c352094bd63a6e94f88d0c9798d97e43eed1c95a8f38a696cd2ef7389ee084610092565b61046b6101208801357f1ee1ec6cbc8129744741ebd121bdd0a1d8e02c3bd2b0918cb0d7d329ee6112e57f1ebcec2674c1a75c8cb1cf99d040fe541c1ac162e0a716fd902e8dbabdb1367184610092565b6104bc6101408801357f04101123d83bfc0a4693a372f0e0f4f57b3a7b20c55ee044b0715db022b19b837f2674055b3d86f832213a024a7774805e4070c1fa72d6012772aa16f7f3fa421a84610092565b61050d6101608801357f2422c9118b49c553587cb14eee2ba80b48341daf51ad1d651d15cc6ca64dd3627f19673bf4c0e8ba817e57b190fbdef2a99ec99b4ca4d4234d1a17ad202284ffe184610092565b61055e6101808801357f28e3a171814d23a790883eb1401749e833639e2f0c2c6c495b6a89db743851dd7f2364a11f4e3e3d3183571e80bcd374e48e109fd8135443c85c38f346ab36152984610092565b6105af6101a08801357f1fa4f9aa15ea5d667a9180919729f63c2c0d1b2b33f7c3163dc7ad51f3387e837f15265567e5b7b8a4c8427210644f74a39b2d8afb6d7b947558e778df6fc27d8a84610092565b6106006101c08801357f2250ef7d9cfc472753bfa609d5457c7a934a729f072b8d4a8435673a706036717f177564bd9735e685501c83e97568eab8445bea0154ffc9b561deb8f075c0633984610092565b6106516101e08801357f1df36a4a3e6dd14c1fa72a44c65fc81f62255ec7a25e54100d6890c75c7844017f182c0afdf224192d315042ecaa5acc502cf94509c63142f8b4d1e9c8c28bbfae84610092565b6106a26102008801357f0de64f600d5217cdead613af8ffa43c10c3ca44361486aea43cfb82c2f4829937f185b1ca31b691c098eae37418c6e5e7b4b7d4b2b448c6e503b17a3f56bbc302d84610092565b6106f36102208801357f1a27c323b642bfe7132b1e4705b8250256b6417063cd0172f628eadc4afb24137f058de6bec6dadce257cbdda86eddf08c5c5c61bf2573179bbf9d0a633136b00a84610092565b6107446102408801357f20b8ad4c4b34d9d424c6a9834780f0efaad83e41d8ecd620be3eff0ad490036a7f231cfd4bf18b755886c65a8e6c9e8462200c09d21b8e8cccc37dd88b29777d5884610092565b6107956102608801357f2b5ba697097f70b4147f6af883cdcdd24626b594077cd81af18dd17b7a3cc2d97f2313815a51c061dc5046d009bf685e2f13b58ac8a61b35cb2be6e7ec8b571a6c84610092565b6107e66102808801357f2a413d5ba8721f392df2c3db061edca51626d482f4f2b7cb32c9bff6c948716a7f2dc06d03a4aa62aeead00039d9cff696c353695bd41bdd0aaa5d79f7ee3695bd84610092565b6108376102a08801357f20468535dab2c324ab924d34e7ad79841cea063073a48fa99f362bb53a1d67537f04bff3bd907153bec61eabfa70bd0542414da751fc914048eb9768d12608e9e984610092565b6108876102c08801357e312f2ca9a8daf1e6c20c3d923e34d9e90e7d9742ab18d0b16d336932dcee9a7f2b0d839b82e091a29ef7181293d7d2a1a44ca4841554ec883813cd0c2291fea184610092565b6108d86102e08801357f1f02743a9e1aceb2ce23c135ee36d0b3b25b863134a0318307e29633d97ce08a7f2b6e8590e4a2c430c267b0c79270fe93abbb7b1d06e120e3270196829ca6856b84610092565b6109296103008801357f1e9c5c23f531d9418727c8cead39291c9728d042ba7b43fac910bf7c33edc9bb7f04907a90ada99a45f699bef2468c3287337476bed3f02ab5d51f36ad2a3a5e7f84610092565b61097a6103208801357f1fc43587dd93eb51fa3fba60c5914b99a2944f49f0a02316c34b1f684e2e25ab7f291e7e83a9cacf4ba4bae99d18408406204dec2247028b7817cb337eba17107984610092565b6109cb6103408801357f2002f164ae625519b558e672f150b28d4fb7ee38efd711b896b35adfc37a37727f2aa52a5567f215470ecf410eb269f7797c9a79fa96909fe725ded282a402a9a584610092565b610a1c6103608801357f19c8d22084243f1ffa4e1af9c0d588afa0e651e215c0fd7b415d9ed4d623417e7f1e4c8a64dd80007166752203b41459c83743810f7f1ba98738425423a5c922ae84610092565b610a6d6103808801357f1a856a2dcbb52f313118cdaad29610f07c498aec6c9976422d667c8f48bc6f8f7f18db529b0c7da08112a7ea1b0152f9b50310fddfd127e3a6ef7a75cdbfb0867084610092565b610abe6103a08801357f277023148c07479bea533696afbe4ba71451e4c43fc4063c85585ddd082c786a7f239fe0f157d15b0b9009557ba5a4fee3bb583313f244bc6274773ebed5b3a29384610092565b610b0f6103c08801357f153338bfdf5914703a8f36909fe5beedf1659e78762e16cd09b9d8173c5204c57f2880975de773de5fd1671b35f9bb06da251d7e881602e1c86b7a01670abfe67284610092565b610b606103e08801357f2b53e95fe7f9f0b2038380ae67de55f2a2d22cb1a799d4d890616a401c9b58077f1072a3e512654bea409a045867be1ece0bdcaaf737fe0fdeb679bbc15963c63984610092565b610bb16104008801357f1286150449f5f613aa25a9205cefed519a8f96a545f4c97c924a2e1d90428db27f150123d021b1d0d5bafeb53af236398d8d35af134b16309c329cb18d0c702b0584610092565b610c026104208801357f2f8db557215732672da9ed9a01c897e651b08109b8ac838de2f3c58f92a7d2957f036c36c424bbe7028bbb5a1a7204ce83298dc82585baa25b067a5735eb468b5384610092565b610c536104408801357f179cc4bb724b7530d90070547f15d3cbe737737618f5758d09571a0324406e017f06cbd852942b9939343fbbd8e44fcfd54b7b7ec4e3bcb7580064a0215c854ae784610092565b610ca46104608801357f165a67334d820ffd4b2b246bb06cc763a1cac702f392697118fac2c13d9caea77f0127109c2467a05227ec37818275507102375ed6c3c4e0414fec95a0e6e6432984610092565b610cf56104808801357f145e03e3559acb543d6dd5866c8af1732a3b1e3645a5a3008011b1bd8cc7ddcd7f0ae2c67727480ad9bd99db1d0f03df81c0b9ba70c2762556651cec046333879c84610092565b610d466104a08801357f0cb2137b62f0a213f2b13b17ee4290f71cc78e84ab479d3035c310932934ce657f1c9d2d6dbb232f2d2accaef11c5c9c29c9d670be49c8f55d252d76293a5d42bc84610092565b610d976104c08801357f1bc1c9f6b610285724ada53feb3a51f0bcdf165ec5ea27d15e3c96ae025736597f1d15dfe8a2377d26b207a510d6ca5a23e8bdc7f0fc22d9027eaf98c18bb9423684610092565b610de86104e08801357f24b5f4b2a9ace532d992df6d652fe24839fe1c3157ceedf7f49917ac6cca76427f03c35f1d716a4133e0fb7a9bd05c280137021239e30f67974d56f632998f596384610092565b610e396105008801357f1a0a24483c2352f56698c99ff258961e1647a85b339dce8b95bb7c4bb5d69d2d7f0304b1355cdab27a0d801b04c1876f332f7d94616932624f3f8bf21f7331f75384610092565b610e8a6105208801357f1b4737bd4ac2390713c0d7ce89f987375a2addddd2e114dc84835f50c070a03d7f1fdde6e11bec5bdd54b90645f93fb0c9d218f8be993337d950f9a9f8adce3dc584610092565b610edb6105408801357f0897f40d2422894e4be8608579459116b1b4e079bcc982040a8b3690c7fa61287f155ce484f8b707fb3dc9b689dcd6eb1a5e277f4f7eeb2c69d81afb5472f995af84610092565b610f2c6105608801357f066f89758834387a171e77c3f527afe0d151e6a8adf3bc70230e36a3ff74b0447f1173bf6cb4cccaffac761318b82ebe605a1dd081df8f5ff3a5cc77ee8222af8584610092565b610f7d6105808801357f030e93c22a554e00aa0d12e6c81f19c659c9f5e20ef8cf5ce8644e926de61aae7f1adac80351ee5b66402c6bd74f1c9485e4820b7acce92e645cf5b5a165b7e03284610092565b610fce6105a08801357f200ccf704c6a311c47538f8897f9d50d896b75b51ccc4b3d3b243e7f7b6526627f24e7f3352abd44574cc24823f3cd9b8bcc2a7b2b2cb550ea57e5fff3f5f6b25e84610092565b61101f6105c08801357f2e561657073c9a96c44ef7aa039d9076d38c3a3b9417e82a05fe5db620f16e297f1251f0fabd148805b15c6bd7e46ef5765dd992c5edbdb151db3c0ddbdaa127dd84610092565b6110706105e08801357f01ddd4b7926ec214e222918d8cfc2fcd6c36405cf9485757fba768bfcea239777f21d2728fc8f1912f107bbe73691a6d6b6bb019515f64f5ff34d9cf7cac148c1784610092565b6110c16106008801357f0c590051acd2c7e99c56262300aa70e895bd7da986906da9d05b74a7167052497f03c148b0b107105dafccee1379f20f0ade9baf922be0d7565975489ff89ea6c384610092565b6111126106208801357f0f6a35d85046e5bd8c78291559f5d9f29f4e5f549a069052d96064d5ec78dee17f0eb5c4f8fecac10766370ea0a679024aa1ddc62cc2798d59dff38eea505a55c284610092565b6111636106408801357f02e4a35e5b6db1e413c7401e08f16644934e9e87ade3fe150a38d4da12295fe07f0e5d99f89824276c12276d9f267ae21814eb3bce07ca001c0117dc543260a39e84610092565b6111b46106608801357f1af01c263e08189c53da051e0a665ab7a4acd3a9a077921cea0116c177079fa97f2971edeb2a5abb241298fff4f6cab77adc69cae7a631f565bbaa14142127131584610092565b6112056106808801357f0ab9011553edb881a8b98173c1531f08eebd113248593f802388bae7573b29917f2f662ec58bfbbb219b5e62441bfc2f4eb7f4a64ad291b2268463bf218e67390e84610092565b6112566106a08801357f11158d1a7a4bd638abcec4d6decae818b86ff5bed8956e732b026dc1d5845d457f269d7cd1624bc48ae354304c225065de1ad27da1878d8de0b1a94e498f5a422b84610092565b6112a76106c08801357f189953df97395098c4ee3fab0b2c47cd16dc6032d28f88a43f8878a5942817e17f2b4ad441d4613c88b9df6ad5e57db1035accc3473c84026dcb33a2bb1f3bc7b384610092565b6112f86106e08801357f0d106245d4f899f9af26084e5990e3a0db9c9415a35b927d24090635ec61816a7f037041347b5d399d175fdf7474fb18cf7f60b027c79c2d9e111464018f45d41f84610092565b6113496107008801357f087ef719628eb82ad79b676bedc7b81bc1e594241af658b12cabbe4ad72854257f044d72d4da9d1f0a46c074ef8ca505e4ee355910e8746c8e84233cdeebe8807c84610092565b61139a6107208801357f0f1b8b7cf42987fe01d0b76b7eaeee368f9e9c35c9c3f10264f6812ff75eb0887f1eeb2afa4a099ec91b6dfdcdb0cc08bbc717b36deb6f046cb881a2c667c6246984610092565b6113ea6107408801357e6fa9bf8ac0971c9b8d8c2b4b4a13ba3fd204294e91a3eceae953e84ec90b167f059302c7de4c64686cb8b98a6419a2c56aeb2506924a71887abf0371a1d9397f84610092565b61143b6107608801357f2c2f749ea5268ed4e269c0330f941348e960dc782e564b8b9387342d94498fce7f08b71e2826d66ad0ad20e87feec72faad425986498aeba49e3978bccb17a303984610092565b61148c6107808801357f25bf050073de92682ffb60427108e4065814591085435b81ad60d7012264f2817f0fed61666d3c723cd9dc56c286618b2d1a01e33c490cb2b5de6221bd2d9c73d384610092565b6114dd6107a08801357f15055046674e58fecaa1bc1451fc422777b284ceae50b064c95540adc2bc062b7f28cb41aae491d6ca342d1b8c85a3feee0b715cb201890eda1ea8a75414fc5c2e84610092565b61152e6107c08801357f0121f7827a42eeab5802a7e43f0ec8aa7a5d8edaba69de5fa23b073578da8aea7f294eae4b2d6ac324b11ebe56978ccb5896fc06a88ec299dd1d036d47ff4c63eb84610092565b50823581527f30644e72e131a029b85045b68181585d97816a916871ca8d3c208c16d87cfd4760208401357f30644e72e131a029b85045b68181585d97816a916871ca8d3c208c16d87cfd4703066020820152833560408201526020840135606082015260408401356080820152606084013560a08201527f2d4d9aa7e302d9df41749d5507949d05dbea33fbb16c643b22f599a2be6df2e260c08201527f14bedd503c37ceb061d8ec60209fe345ce89830a19230301f076caff004d192660e08201527f0967032fcbf776d1afc985f88877f182d38480a653f2decaa9794cbc3bf3060c6101008201527f0e187847ad4c798374d0d6732bf501847dd68bc0e071241e0213bc7fc13db7ab6101208201527f304cfbd1e08a704a99f5e847d93f8c3caafddec46b7a0d379da69a4d112346a76101408201527f1739c1b1a457a8c7313123d24d2f9192f896b7c63eea05a9d57f06547ad0cec8610160820152600087015161018082015260206000018701516101a08201527f198e9393920d483a7260bfb731fb5d25f1aa493335a9e71297e485b7aef312c26101c08201527f1800deef121f1e76426a00665e5c4479674322d4f75edadd46debd5cd992f6ed6101e08201527f090689d0585ff075ec9e99ad690c3395bc4b313370b38ef355acdadcd122975b6102008201527f12c85ea5db8c6deb4aab71808dcb408fe3d1e7690c43d37b4ce6cc0166fa7daa610220820152843561024082015260208501356102608201527f198e9393920d483a7260bfb731fb5d25f1aa493335a9e71297e485b7aef312c26102808201527f1800deef121f1e76426a00665e5c4479674322d4f75edadd46debd5cd992f6ed6102a08201527f090689d0585ff075ec9e99ad690c3395bc4b313370b38ef355acdadcd122975b6102c08201527f12c85ea5db8c6deb4aab71808dcb408fe3d1e7690c43d37b4ce6cc0166fa7daa6102e08201526020816103008360086107d05a03fa9051169695505050505050565b6040516103808101604052611826600084013561005e565b611833602084013561005e565b611840604084013561005e565b61184d606084013561005e565b61185a608084013561005e565b61186760a084013561005e565b61187460c084013561005e565b61188160e084013561005e565b61188f61010084013561005e565b61189d61012084013561005e565b6118ab61014084013561005e565b6118b961016084013561005e565b6118c761018084013561005e565b6118d56101a084013561005e565b6118e36101c084013561005e565b6118f16101e084013561005e565b6118ff61020084013561005e565b61190d61022084013561005e565b61191b61024084013561005e565b61192961026084013561005e565b61193761028084013561005e565b6119456102a084013561005e565b6119536102c084013561005e565b6119616102e084013561005e565b61196f61030084013561005e565b61197d61032084013561005e565b61198b61034084013561005e565b61199961036084013561005e565b6119a761038084013561005e565b6119b56103a084013561005e565b6119c36103c084013561005e565b6119d16103e084013561005e565b6119df61040084013561005e565b6119ed61042084013561005e565b6119fb61044084013561005e565b611a0961046084013561005e565b611a1761048084013561005e565b611a256104a084013561005e565b611a336104c084013561005e565b611a416104e084013561005e565b611a4f61050084013561005e565b611a5d61052084013561005e565b611a6b61054084013561005e565b611a7961056084013561005e565b611a8761058084013561005e565b611a956105a084013561005e565b611aa36105c084013561005e565b611ab16105e084013561005e565b611abf61060084013561005e565b611acd61062084013561005e565b611adb61064084013561005e565b611ae961066084013561005e565b611af761068084013561005e565b611b056106a084013561005e565b611b136106c084013561005e565b611b216106e084013561005e565b611b2f61070084013561005e565b611b3d61072084013561005e565b611b4b61074084013561005e565b611b5961076084013561005e565b611b6761078084013561005e565b611b756107a084013561005e565b611b836107c084013561005e565b611b90818486888a6100fd565b90508060005260206000f35b8060408101831015611bad57600080fd5b92915050565b6000806000806108e08587031215611bca57600080fd5b611bd48686611b9c565b935060c0850186811115611be757600080fd5b604086019350611bf78782611b9c565b925050856108e086011115611c0b57600080fd5b5091949093509091610100019056fea26469706673582212206c8049b44fca2b30bf9f3493a49401217bd07b52b5058d1161e6deded3ffaf4f64736f6c634300081b0033",
  "linkReferences": {},
  "deployedLinkReferences": {}
}