{
  "_format": "hh-sol-artifact-1",
  "contractName": "Groth16Verifier_AnonNullifierKycTransferLockedBatch",
  "sourceName": "contracts/verifiers/verifier_anon_nullifier_kyc_transferLocked_batch.sol",
  "abi": [
    {
      "inputs": [
        {
          "internalType": "uint256[2]",
          "name": "_pA",
          "type": "uint256[2]"
        },
        {
          "internalType": "uint256[2][2]",
          "name": "_pB",
          "type": "uint256[2][2]"
        },
        {
          "internalType": "uint256[2]",
          "name": "_pC",
          "type": "uint256[2]"
        },
        {
          "internalType": "uint256[33]",
          "name": "_pubSignals",
          "type": "uint256[33]"
        }
      ],
      "name": "verifyProof",
      "outputs": [
        {
          "internalType": "bool",
          "name": "",
          "type": "bool"
        }
      ],
      "stateMutability": "view",
      "type": "function"
    }
  ],
  "bytecode": "0x6080604052348015600f57600080fd5b5061112f8061001f6000396000f3fe608060405234801561001057600080fd5b506004361061002b5760003560e01c8063ee56750f14610030575b600080fd5b61004361003e366004611092565b610057565b604051901515815260200160405180910390f35b6000610e91565b7f30644e72e131a029b85045b68181585d2833e84879b9709143e1f593f0000001811061008f576000805260206000f35b50565b600060405183815284602082015285604082015260408160608360076107d05a03fa9150816100c5576000805260206000f35b825160408201526020830151606082015260408360808360066107d05a03fa915050806100f6576000805260206000f35b5050505050565b7f07bb1e6aeaf52ee227efbeb4486f52dfea8b31dac7fe7b0a4f9a345c6334e24685527f0dbe7189ec26d111de5028f76c0782c113c6d3f845c60e3f0f5f9a1029c7e7bf60208601526000608086018661019a87357f22ac3da4d9de10948216152a261218338c7131455165f322b68a30c3beeb2d557f1326830acbe3d557b2487c3f6f949b4de0e5861370c925bfadbdf9a2b6f0220084610092565b6101ea60208801357f0907e5d7170518946af741da83c9ee28df946f98bf111dc66ab86ee9476d2dd57f0ac160e0a9fb8c17d54e910ee9d8f8b525b05ffc8f2e786f2eccc38640edadfe84610092565b61023a60408801357f039330381adb6fa911f944f864ad8fc8e5f4a42f8170c21205570f2bceec4f097f1833966829acf68de9ab2045bb1d88f1c2d66e1513d28e4f6102972147dfd6ce84610092565b61028a60608801357f2d102828e0fb76c915cc1740b9577873ecd75adefbdb4046350f301cec5fa8f07f023c75b596bd5a4219e749c0352c7120001e39d7eeadb2cb7946b86590685acc84610092565b6102da60808801357f09fbe7fde4518d41818c7a7e607c37252975e9fcd644e8d9dddbb476c1a99b1e7f128a556f94b845835c8711e317eee42dd99956a32b6639b0c62568f55ec11f7084610092565b61032a60a08801357f2f038b324426e9066d211be3170f286470b5eadc81314f62ae261f4fec8b35ff7f274c951d51fc7721a2afbbd9e02f1b419d6d6df50cf61a9d0a0071191403b7c484610092565b61037a60c08801357f0b4a8efb44308710af154727dd56f72300fb6515c0fa0b50b110d6b8192b9e3f7f28ec11e4a5975b890cedd2a1a28296963413688f066769d48fc7777230be26f684610092565b6103ca60e08801357f237abd79dfba3728ba096d423ca868653255c3f8f92a56844fb7309ec3a374c97f28824fd78c87195daed2e4ef8743545e30d9ee387b8dab691f8a28d3f7a2590b84610092565b61041b6101008801357f24edb890e128b104f9fb93c98d8444ae0fae3c0a330bafe6d2fd55801db853187f25386cf50867221746489bd5432a788724193cff761246a49d66f3122b902a0684610092565b61046c6101208801357f2ba5fc117e6fdc2976b448a438375acfd297b62e882511a686d2b08c05bf02a27f123e1e9c79c2352bf5505c8b22b6adeff5ab76e786d688353e5b8143e89c138684610092565b6104bd6101408801357f0d70c8a2e63636b5529b7744a40f221b31c3abe3a9f6dbfe8c864557af8da7e47f29972d62be43d6851a3b2c0aedd8903086e386dfbe6b4f167f8d96bd748e2ff184610092565b61050e6101608801357f1e695b718367f7fc26252cc15b72026514f394c46cd2cf71d9644bbfbda8b5bf7f302b4cf0d86545f826f7a7bca9e12b700ac8b2554dd21426d242f22c76ed830884610092565b61055f6101808801357f1e187ca2a220e1100c8a948ba7c0fca49b88573de679203bcd5501ef5410c5127f2359f04895f9ed724c6967e1b27e450ef4183a6dfc8aaede9c5963b47b49220084610092565b6105b06101a08801357f258c2af2a0691eed9c1a051c2d5878f6a32d5299c6bcb230245b7225e7820cb37f0c7f9618b3b4869d5f94e9a115197529c5b9194486b171bcbb8830cce60d46d684610092565b6106016101c08801357f23ed8e45eadfe798470d68cfa3d318a7f1f18af147f0ff0c3bc9414c724025a17f08540e96928068c26ecd5416da730ddd1227844015c79e95d397e41038eed60a84610092565b6106526101e08801357f1a7574dc47145c6846648aee2d57811e5ff01bfe6fb1ce099eb9fe4b26f807987f24e9be2a1da6fe2993319991f9e99dc08e174b3e4daba70e324c0ffa1f30be2284610092565b6106a36102008801357f17fc75610c982026a399d48af5e0a7504fabf1875fbacf4a9563db39b332399c7f1f92b8c1e00ef4b81ce5b62b336ca91aa5ca42ed685e3bd80856cb3b67bc376084610092565b6106f46102208801357f2d3c948af43d9daa2f6004dd3b96a4de542bbbf31786bd0b316bcc0d395c7e497f046e37ab2f3ea62f60df7bdfa4d7417b9534c16d12ca8b5639c711841cb3379484610092565b6107446102408801357f2a6936867a676414bd75ff1157d3ce8e0b023e376bbe1c107f7e94014777aa587ed682fd4b6ed83b1a61e1f22268c166ef0e6c9712ec38c86e2fd04e916f5dfa84610092565b6107956102608801357f1cfcaced83a39bf9bd3e36f6a96af99ec6895b79dd04071f82e436fe47a6306c7f1dbd40b14cae03fb92ada44d1d7f7df36426efec47163b99495eb644eb6a1f2584610092565b6107e66102808801357f0c1ed92f78d2d695476704043049b89acac3fb2dcab98670387239e2e0a0115c7f2c55b7627e0211d4314997095b14a0ce1e2e184aee4dd80158735a71725d448e84610092565b6108376102a08801357f1a3114ee6dcd5cee3e3d8adf96593d6cf0ac0b24efb56f286460aadb712fd38d7f26f5dafda289cea3661ce3955a66beff5f44cc468bed7d613affba904cf64ef584610092565b6108886102c08801357f0f44ee53a6a382fa1f9da0eb49c4838302b20e945ac5b9bb397c578ba44419227f0c8468db226704bc47467725a5a7ad6510258ea706def2f078d7a0655782d15c84610092565b6108d96102e08801357f1f07a4640cdda9decc90e2e5dc9e78f729bdd375b9ba4d5b45e79d28a8d34dee7f2325a0ff32c77f47c061ff3ce615074521b3add75fc17eabcc4ff1e82feffe9084610092565b6109296103008801357e435b842632751356e97c627454de1118d81b9fc22e3a81ef9d2e3ff9c449a37f2d5b3ff5f644a155ab9df57d1e3697d9354b1568c9a73dc89a1a2d4d42683d9984610092565b61097a6103208801357f059f33d5e5d9532b6c1c7b62d244959ad17e5b6591a8fabe142b09094daa68fa7f03c77d1a64897d9147e6b06dd2717cfd6a4aec43693da3e39de5d9b2f4bc3b2f84610092565b6109cb6103408801357f1240ca43f4568f8b837544564494ed39ef835dfb51efc7f706b69140e5c2fceb7f02e64266f499aa45dca92c276530a15ae897f119898096c1eb9605146ce2316984610092565b610a1c6103608801357f08c86b974badf42dc48f764d76f3f1e680c8634a82b392a81d9df6294ad7d37b7f270e5cc54720fd09ba5ea979c272a890dc13217e53b497d9061f25c3985178f484610092565b610a6d6103808801357f2c99c6eadd6b63fd955e731e86fc716ae6b3bcf4428d1f5f3f33b5156c64d3df7f24cfe5f0f439b511affdc86b4f3d595d382f20378ffee1649f1b3c3099cead0784610092565b610abe6103a08801357f2fc29de74a8a2872dd771d6d372475adf4d8ad97b28dfec47188775693d3805d7f0ce370939f7dd5838e8b140040c1b69136d03a80d14592ffcd788b3d6e553aeb84610092565b610b0f6103c08801357f27dc7db34ffb37084fea06700da12fb49583d922675533387814fffd4a9604be7f2e4f9d17ede6061a99ee9b95f85f13613f74638f4ac6bbddb09dc64084977ca584610092565b610b606103e08801357f226d9582033e41ac49005e7cc48bf0028bb140aa3b405245f798ad2ba923691f7f0b4bf5843611cf0ba1f4ff4d5cd7c7aaab0e2a5196588c8a034fefef710f56e284610092565b610bb16104008801357f166688976a145a63320657d671ebe018b909d8683f65b81fbe905d2180dcd13f7f2fccda59ea37468bff68ada5de6fca8f6c068b242b3aa8d37e0e5ce908a48f2b84610092565b50823581527f30644e72e131a029b85045b68181585d97816a916871ca8d3c208c16d87cfd4760208401357f30644e72e131a029b85045b68181585d97816a916871ca8d3c208c16d87cfd4703066020820152833560408201526020840135606082015260408401356080820152606084013560a08201527f2d4d9aa7e302d9df41749d5507949d05dbea33fbb16c643b22f599a2be6df2e260c08201527f14bedd503c37ceb061d8ec60209fe345ce89830a19230301f076caff004d192660e08201527f0967032fcbf776d1afc985f88877f182d38480a653f2decaa9794cbc3bf3060c6101008201527f0e187847ad4c798374d0d6732bf501847dd68bc0e071241e0213bc7fc13db7ab6101208201527f304cfbd1e08a704a99f5e847d93f8c3caafddec46b7a0d379da69a4d112346a76101408201527f1739c1b1a457a8c7313123d24d2f9192f896b7c63eea05a9d57f06547ad0cec8610160820152600087015161018082015260206000018701516101a08201527f198e9393920d483a7260bfb731fb5d25f1aa493335a9e71297e485b7aef312c26101c08201527f1800deef121f1e76426a00665e5c4479674322d4f75edadd46debd5cd992f6ed6101e08201527f090689d0585ff075ec9e99ad690c3395bc4b313370b38ef355acdadcd122975b6102008201527f12c85ea5db8c6deb4aab71808dcb408fe3d1e7690c43d37b4ce6cc0166fa7daa610220820152843561024082015260208501356102608201527f198e9393920d483a7260bfb731fb5d25f1aa493335a9e71297e485b7aef312c26102808201527f1800deef121f1e76426a00665e5c4479674322d4f75edadd46debd5cd992f6ed6102a08201527f090689d0585ff075ec9e99ad690c3395bc4b313370b38ef355acdadcd122975b6102c08201527f12c85ea5db8c6deb4aab71808dcb408fe3d1e7690c43d37b4ce6cc0166fa7daa6102e08201526020816103008360086107d05a03fa9051169695505050505050565b6040516103808101604052610ea9600084013561005e565b610eb6602084013561005e565b610ec3604084013561005e565b610ed0606084013561005e565b610edd608084013561005e565b610eea60a084013561005e565b610ef760c084013561005e565b610f0460e084013561005e565b610f1261010084013561005e565b610f2061012084013561005e565b610f2e61014084013561005e565b610f3c61016084013561005e565b610f4a61018084013561005e565b610f586101a084013561005e565b610f666101c084013561005e565b610f746101e084013561005e565b610f8261020084013561005e565b610f9061022084013561005e565b610f9e61024084013561005e565b610fac61026084013561005e565b610fba61028084013561005e565b610fc86102a084013561005e565b610fd66102c084013561005e565b610fe46102e084013561005e565b610ff261030084013561005e565b61100061032084013561005e565b61100e61034084013561005e565b61101c61036084013561005e565b61102a61038084013561005e565b6110386103a084013561005e565b6110466103c084013561005e565b6110546103e084013561005e565b61106261040084013561005e565b61106f818486888a6100fd565b90508060005260206000f35b806040810183101561108c57600080fd5b92915050565b60008060008061052085870312156110a957600080fd5b6110b3868661107b565b935060c08501868111156110c657600080fd5b6040860193506110d6878261107b565b92505085610520860111156110ea57600080fd5b5091949093509091610100019056fea2646970667358221220ccc5b543e78921380e591f1cbd9ce44ba7f8e55e7a6821e0600b99263074811d64736f6c634300081b0033",
  "linkReferences": {},
  "deployedLinkReferences": {}
}