{
  "_format": "hh-sol-artifact-1",
  "contractName": "Groth16Verifier_AnonNullifierQurrencyTransferBatch",
  "sourceName": "contracts/verifiers/verifier_anon_nullifier_qurrency_transfer_batch.sol",
  "abi": [
    {
      "inputs": [
        {
          "internalType": "uint256[2]",
          "name": "_pA",
          "type": "uint256[2]"
        },
        {
          "internalType": "uint256[2][2]",
          "name": "_pB",
          "type": "uint256[2][2]"
        },
        {
          "internalType": "uint256[2]",
          "name": "_pC",
          "type": "uint256[2]"
        },
        {
          "internalType": "uint256[33]",
          "name": "_pubSignals",
          "type": "uint256[33]"
        }
      ],
      "name": "verifyProof",
      "outputs": [
        {
          "internalType": "bool",
          "name": "",
          "type": "bool"
        }
      ],
      "stateMutability": "view",
      "type": "function"
    }
  ],
  "bytecode": "0x6080604052348015600f57600080fd5b5061112f8061001f6000396000f3fe608060405234801561001057600080fd5b506004361061002b5760003560e01c8063ee56750f14610030575b600080fd5b61004361003e366004611092565b610057565b604051901515815260200160405180910390f35b6000610e91565b7f30644e72e131a029b85045b68181585d2833e84879b9709143e1f593f0000001811061008f576000805260206000f35b50565b600060405183815284602082015285604082015260408160608360076107d05a03fa9150816100c5576000805260206000f35b825160408201526020830151606082015260408360808360066107d05a03fa915050806100f6576000805260206000f35b5050505050565b7f25b422a331e953f1a65aaba6ebc9208866a0969edd2fe89f8462e8540d370aa585527f1a7401f5a6a2cced31878cda64a3ed5b5e727f704c44d9e0321e65a52e45867660208601526000608086018661019a87357f01021cb0aa3f0187f09b3933d093e4e7109e63b8705b3d96d1453e6adae318ca7f032189aaf31a0e64c8e92d17edaec8fdb27502f7f7bf45041ed7e0e60df8295684610092565b6101ea60208801357f224de9e33ff0372ce4b8db0ee166c3d91c23594b6261442853bca3f6094c86a97f11e11e2145f25874674c9467ee6b4a21cc905f5b882864c0d9841a7cceea882884610092565b61023a60408801357f17efb005f9fcf07d6f76d0a182d1cb8398f27ba547ef60f87076cb21f7eabf8a7f1f70edd5e231d4ec932b806088785c3a6d6a0a56c213f61c7b57a3a5778d793484610092565b61028a60608801357f058a9c90e1edc43df116688e15363410db95c8cca2267be8606a84bd96649c797f1fec979d820fbed3c9268bf6fb3b486079382701642968d752d9ae2d830cf5fb84610092565b6102da60808801357f1e42515eba20a0a8fe40052bc86dc4b5dac65211b38f747ecc940167e2b794007f068dc6a9c5be63b37d47db0a385d35e1cc16d0f72a8a107e013e8e51fda4c40984610092565b61032a60a08801357f10318b904db1162b7d98cb1aa180c01f9607cdf22b8cb08564d8d173073becd37f0de55f330559fbed2fbf1b17228a24a06060ffbadfedfbdc740e1e80b941823d84610092565b61037a60c08801357f05d4d78ef9f1c7ae624ea3b42d51afae7a9fe79eebc356f612858cb0a2f6124d7f1842af21ec5c1fb8c6aec9f3523ea721859fe73806888341f988f441cc8ef6cb84610092565b6103ca60e08801357f20c6d9fe0bebb20c05451f894884c2435802b0b735e1c5c16614d6807203e9e07f1bbc71bc74d1047e404bb8cbf12a4324221f7b546bb7bda4d8b9f633bd44eacc84610092565b61041b6101008801357f1ec9bf754448fe173c0e45bc9684f7e6f67fd53f9a796a7b84c060129bedef847f17ef17f327df12f7bbc037b0f56352bfe0f4b377d1855f6bae14788be370564b84610092565b61046c6101208801357f1c9eee39b86de79de2c30ac137c274f8ce7bafecfeeb5e7ce7aae017d550fb7b7f17ad4e2f416b9c4bbecd62595946ae15241ec25da38fdfcdee394a117283a33f84610092565b6104bd6101408801357f01acec1444e0e18be50389d2ab886447969ff8a780a75d83a9fd08951e2d75927f2238ac1967936f3c80bc14dc79ad85a584a13a8255459a3f1e0d9164ba6f0e2084610092565b61050e6101608801357f02a12bbde4b34fa6dd46d4af5404e9bce08562b9acf9656526a91dd3cc4f6cbc7f0a11a8890584b54ec4f4f4988f21826ee2690e00324e3a04bd2816b1db3feb3484610092565b61055e6101808801357f1117f1af3ff902a6894b132deec13d51d410304b3ab72a782291a2e43bc7b2ad7ebe12a4c56c75dca95326531fa1fb62a79d1432950130662781c9a7c887a6df84610092565b6105af6101a08801357f2aaf4f690a613ca6e3ec6cc56da5f0fb70bcba1adcd340f6c403ce462acb90027f0d779b2de5affbe46298faa74cbcc9025535b44de9e9cf9bfa776bd23f1e3cb184610092565b6106006101c08801357f1bb1c41252bc5b6251b912b05b18c5083ba56b6acacbd88466b4b2a79b2cf2337f1a0d50288f9185cbfe8e304291fc49e00584c89b2f6d29a9061f33f9e5304cde84610092565b6106516101e08801357f0d11452a288406199b38cc4eca58bceeeeb750d96630dbcbed9bfa74c8472c677f0efa353680bed90267773e3061f2f0da30270a9993825678b4cb864aeb0447c084610092565b6106a26102008801357f12d96acc923939f52bbd6496725eb58b9e445338638e30b8dc3c9c1fe4fd20667f175ceb55de79f86f2e07997f4467c55f0650c7eacda282103413a012b35b61c784610092565b6106f36102208801357f27974697c8e78386ed82151e0994c2864ed30c0fa4844a41460ca894a126e6647f1e5ed431079b849a7c89680419905886636121901efab8f6e7a82431cb9f254484610092565b6107446102408801357f0af34912431b5afaeb96ee6d1d334558e9b42c5210e9e88af71357c8d6ebb6b87f011d39359d9cfc5d6710c1fb145c1a478a52ef3c35514a0dc9380264e54e6a4184610092565b6107956102608801357f25332239af9e873879a7f7a853c2ef4ccf733b085d952349ca6cbd99734200ed7f1f7f73727bbe933eefbf9eaa1acc93eea5afaf509331521777c414bdf0de315784610092565b6107e66102808801357f1746eaa925d1d5590e5ec8c75ac04e45003d606f412f56b992abbe0ed51fad987f14bc528bc8dad6442262ca1b11fd8dba5f00fa6a75679532bc60bf77060cd8af84610092565b6108366102a08801357f062602e124611b30ba40997e2ff98a43675a7322010054c5a3e25023de8f3bd47ed16189f497cca5f12ba6b805a8e3a77b3c56ddf24793b692f25010f1e8f54c84610092565b6108876102c08801357f04212e2486a2ae94ec32e278a838f2b0281e5ab9465f2ac2da30151e3e6668747f013ebd7dae62893a734464002f1a3b96a726d3537a132464646a6350999d9b8284610092565b6108d86102e08801357f144253a1772ec531c9a75198a104830e40facd41e04678f549470e919cd0d75b7f056eaad29ad1416cd0641d81c9099741215a791929e4987aacb2ac4da01aa93184610092565b6109296103008801357f1d4df46713f8e1e328a20fcdb754174be21ccc2e14478642fbc423ca2cd2d8ac7f03da8880d8cc67aeb3a1f83285195cf81f8258633d856c2f8de36a6fc8cbc6e384610092565b61097a6103208801357f0878dd39a397a473c0661bab11788c2b4db46aa1d70f43c8bf1b634580e6b3ba7f246273cc0b8631cf60e19cea14b9ee68d18bdc43efe9f9100feb04518350ba2d84610092565b6109cb6103408801357f2cb302bfec34bfbfc16f1f0e29ac76584de66534309d74abda9c13bedb6e5ea77f0f9fa10771bde85596c969b8cbd9ee580036fa73a52976d8519d35e66816a41684610092565b610a1c6103608801357f087020448a8f40450f5d8fcb204eb32dc55c54021a7b815a5b653d7cd7281b597f0af54da641be4459313997c18646d24dec8aba51a995890846982faaf990ce5e84610092565b610a6d6103808801357f25d0c809efa7ee57a52166bedf01c193c0027b3e1d1fb7498c593241078a729b7f1c71401543bf10a1790f1dbed5cca59be7e0ae576be00016bb65d58caca359df84610092565b610abe6103a08801357f2485a785134566496d094b34cbf4a0a61b09f81b109489d83c5a26950c4ef3e47f17bb1e1b011599e7af803ac96bac087f6c16f94056db8a203d583a3aa744eb0784610092565b610b0f6103c08801357f03aa0e6929d4e5fa92c5cbf83ffa628e11ec7ee832927f95dca9bcf3f0c54c077f1c8ac45e5c33d5053fe3cfe1eacb4b425b5e36a4f84a3d06a4a422f97d55ed4884610092565b610b606103e08801357f2a645aef157d159abc42de8bf2431b6dbf8d0b33fc2e773dbfd0cae0c39e05c27f13667eb354e144ca14ba402a3407edf6d7aaf585ffc341a2ca761bd3cf1b676184610092565b610bb16104008801357f1bf63db9dfbc0016f1f680e6e10e22f0425df66f1c70ce7a7a114f1b1899fec97f123c0281c2892ddef6e13cf83337a228fbe01dc7ded03e370fb8414a7ba294ca84610092565b50823581527f30644e72e131a029b85045b68181585d97816a916871ca8d3c208c16d87cfd4760208401357f30644e72e131a029b85045b68181585d97816a916871ca8d3c208c16d87cfd4703066020820152833560408201526020840135606082015260408401356080820152606084013560a08201527f2d4d9aa7e302d9df41749d5507949d05dbea33fbb16c643b22f599a2be6df2e260c08201527f14bedd503c37ceb061d8ec60209fe345ce89830a19230301f076caff004d192660e08201527f0967032fcbf776d1afc985f88877f182d38480a653f2decaa9794cbc3bf3060c6101008201527f0e187847ad4c798374d0d6732bf501847dd68bc0e071241e0213bc7fc13db7ab6101208201527f304cfbd1e08a704a99f5e847d93f8c3caafddec46b7a0d379da69a4d112346a76101408201527f1739c1b1a457a8c7313123d24d2f9192f896b7c63eea05a9d57f06547ad0cec8610160820152600087015161018082015260206000018701516101a08201527f198e9393920d483a7260bfb731fb5d25f1aa493335a9e71297e485b7aef312c26101c08201527f1800deef121f1e76426a00665e5c4479674322d4f75edadd46debd5cd992f6ed6101e08201527f090689d0585ff075ec9e99ad690c3395bc4b313370b38ef355acdadcd122975b6102008201527f12c85ea5db8c6deb4aab71808dcb408fe3d1e7690c43d37b4ce6cc0166fa7daa610220820152843561024082015260208501356102608201527f198e9393920d483a7260bfb731fb5d25f1aa493335a9e71297e485b7aef312c26102808201527f1800deef121f1e76426a00665e5c4479674322d4f75edadd46debd5cd992f6ed6102a08201527f090689d0585ff075ec9e99ad690c3395bc4b313370b38ef355acdadcd122975b6102c08201527f12c85ea5db8c6deb4aab71808dcb408fe3d1e7690c43d37b4ce6cc0166fa7daa6102e08201526020816103008360086107d05a03fa9051169695505050505050565b6040516103808101604052610ea9600084013561005e565b610eb6602084013561005e565b610ec3604084013561005e565b610ed0606084013561005e565b610edd608084013561005e565b610eea60a084013561005e565b610ef760c084013561005e565b610f0460e084013561005e565b610f1261010084013561005e565b610f2061012084013561005e565b610f2e61014084013561005e565b610f3c61016084013561005e565b610f4a61018084013561005e565b610f586101a084013561005e565b610f666101c084013561005e565b610f746101e084013561005e565b610f8261020084013561005e565b610f9061022084013561005e565b610f9e61024084013561005e565b610fac61026084013561005e565b610fba61028084013561005e565b610fc86102a084013561005e565b610fd66102c084013561005e565b610fe46102e084013561005e565b610ff261030084013561005e565b61100061032084013561005e565b61100e61034084013561005e565b61101c61036084013561005e565b61102a61038084013561005e565b6110386103a084013561005e565b6110466103c084013561005e565b6110546103e084013561005e565b61106261040084013561005e565b61106f818486888a6100fd565b90508060005260206000f35b806040810183101561108c57600080fd5b92915050565b60008060008061052085870312156110a957600080fd5b6110b3868661107b565b935060c08501868111156110c657600080fd5b6040860193506110d6878261107b565b92505085610520860111156110ea57600080fd5b5091949093509091610100019056fea2646970667358221220f8df54a89bf2824e52402432e7cdfcf1b6380d2ebfe8b14e1f2dd64c889efb9f64736f6c634300081b0033",
  "linkReferences": {},
  "deployedLinkReferences": {}
}