{
  "_format": "hh-sol-artifact-1",
  "contractName": "Groth16Verifier_AnonEnc",
  "sourceName": "contracts/verifiers/verifier_anon_enc.sol",
  "abi": [
    {
      "inputs": [
        {
          "internalType": "uint256[2]",
          "name": "_pA",
          "type": "uint256[2]"
        },
        {
          "internalType": "uint256[2][2]",
          "name": "_pB",
          "type": "uint256[2][2]"
        },
        {
          "internalType": "uint256[2]",
          "name": "_pC",
          "type": "uint256[2]"
        },
        {
          "internalType": "uint256[15]",
          "name": "_pubSignals",
          "type": "uint256[15]"
        }
      ],
      "name": "verifyProof",
      "outputs": [
        {
          "internalType": "bool",
          "name": "",
          "type": "bool"
        }
      ],
      "stateMutability": "view",
      "type": "function"
    }
  ],
  "bytecode": "0x6080604052348015600f57600080fd5b50610a838061001f6000396000f3fe608060405234801561001057600080fd5b506004361061002b5760003560e01c8063f054a9a314610030575b600080fd5b61004361003e3660046109e6565b610057565b604051901515815260200160405180910390f35b60006108e1565b7f30644e72e131a029b85045b68181585d2833e84879b9709143e1f593f0000001811061008f576000805260206000f35b50565b600060405183815284602082015285604082015260408160608360076107d05a03fa9150816100c5576000805260206000f35b825160408201526020830151606082015260408360808360066107d05a03fa915050806100f6576000805260206000f35b5050505050565b7f28292d88b11c85f94382337ce9fe89209d70a87c06901d1cbb9af429cbed451b85527f122d78c671a26f555c5438040b00090da23e1eeed6ffebace270d5c0bbf775c760208601526000608086018661019a87357f2036bcfab337dd3d7cbcec047c6c40f7659f0be3850da25079847e21d0f6fa647f1c2d673d1f0e42d79d2e50cad72d06903cbcae0753689ac127a585a0ec32522084610092565b6101ea60208801357f0520af87fd625d3c3bfea741b3b3b3b43831739da436c9222100d8082c02c1047f2bfd03b479496ab6295bf3d30e611040512b70b518bc73b81d4653eb2c3053c184610092565b61023a60408801357f1f12afc9a4442ea4a4636323607d18890f9a41e240e6f0d3b2b5778f27b6e8527f2dca5c10c2c1a9b4f4cfadef308e135efcccd59e3a9149c3184418c25fba6dcb84610092565b61028a60608801357f0e5ae400904c31720b197336943386363fab41ad78fc54fdcf7eaef2431d73717f29483e9a647fc129cad6303dd5287d49c22b1d0fa097e881d77991b8b2dfc1d784610092565b6102da60808801357f1d1f5d73021437f1c2752ae690306c4eb9ed9141347a8347259b053bf22608147f2294860959e125137577733569bdd0025a58c4363542e50526448b5bb24e499e84610092565b61032a60a08801357f227f33d682aa744e421367f763af1b6494405777b05354f470c9b8ccfb765bbd7f1c033c2a04f0aa469e10929549d47ec184b2886543424d7c0105a0646c759d9184610092565b61037a60c08801357f1c3f4d43940f3f09fd9557ec33504cf06cdca8f142bfa192bbb63cd16303f6887f25becacde40618597c390a9306951e147c961a09830cb68b0e8806151f17cfda84610092565b6103ca60e08801357f286a4d2bb9891faaa892e859e50b8a83e2b09c58f3a538cab80674d1456c78a27f09717b18d921a0fa7556b770e90d29a76a6d29abfc813ffdc90ec1531206d05484610092565b61041b6101008801357f289c3c0826bb1b2e30b12734213dc05eb55debe9ba96f42b9caa3b70fab4dbad7f11ffe6ded57f58e1a200fe745f70f9d50c3f7b414ae3c64ab95414a03c93529a84610092565b61046c6101208801357f0473b82c4f1e8fa9fdc80c7d32ed30694340ad3f91c4bf6c10813bab372b7a907f08475a19fd0d2fe887f5c5650358b7b9ebc01fd2c5e7668f3a99cf09a758632b84610092565b6104bd6101408801357f1c2bd4d0ae0a39fb67caf1ac7d2c36439713e6d1e9315c9fdf3acd26b78b839f7f1b35ce3e70c261b8f40482628ab977345c5a73dc888885fad6ec41bbfc6e344c84610092565b61050e6101608801357f04a485237a885395b201f52491ae400a835718355b706bb90376f3ab15d50e3c7f072601582795e8c75b8c9dc6f3c141664211d5a420ad323f8ae59bde84338da484610092565b61055f6101808801357f0805e394508552d4b506666e5597945c65052213488809fc64fb94768d90ab427f2a9a39ab01f303b2484303ade0f16afefd149d7bd839257699ef44affcc7047c84610092565b6105b06101a08801357f1aa7611bd4337539138a193aac9b3a547e85c00c4fa741edbf3ecf156e3fa8a87f1d4e169bb65d9bbdf87a07f5fbb5b62d843baba1a692dcafbaa576acd516ca9f84610092565b6106016101c08801357f15391a2be8ac017364a443b32d0ef8fee9ac520f13263dcd848479a652a8425d7f23ba0387b3eb09bb4db755584c888ae9a459a1ea05570f1eabe416e4b493914a84610092565b50823581527f30644e72e131a029b85045b68181585d97816a916871ca8d3c208c16d87cfd4760208401357f30644e72e131a029b85045b68181585d97816a916871ca8d3c208c16d87cfd4703066020820152833560408201526020840135606082015260408401356080820152606084013560a08201527f2d4d9aa7e302d9df41749d5507949d05dbea33fbb16c643b22f599a2be6df2e260c08201527f14bedd503c37ceb061d8ec60209fe345ce89830a19230301f076caff004d192660e08201527f0967032fcbf776d1afc985f88877f182d38480a653f2decaa9794cbc3bf3060c6101008201527f0e187847ad4c798374d0d6732bf501847dd68bc0e071241e0213bc7fc13db7ab6101208201527f304cfbd1e08a704a99f5e847d93f8c3caafddec46b7a0d379da69a4d112346a76101408201527f1739c1b1a457a8c7313123d24d2f9192f896b7c63eea05a9d57f06547ad0cec8610160820152600087015161018082015260206000018701516101a08201527f198e9393920d483a7260bfb731fb5d25f1aa493335a9e71297e485b7aef312c26101c08201527f1800deef121f1e76426a00665e5c4479674322d4f75edadd46debd5cd992f6ed6101e08201527f090689d0585ff075ec9e99ad690c3395bc4b313370b38ef355acdadcd122975b6102008201527f12c85ea5db8c6deb4aab71808dcb408fe3d1e7690c43d37b4ce6cc0166fa7daa610220820152843561024082015260208501356102608201527f198e9393920d483a7260bfb731fb5d25f1aa493335a9e71297e485b7aef312c26102808201527f1800deef121f1e76426a00665e5c4479674322d4f75edadd46debd5cd992f6ed6102a08201527f090689d0585ff075ec9e99ad690c3395bc4b313370b38ef355acdadcd122975b6102c08201527f12c85ea5db8c6deb4aab71808dcb408fe3d1e7690c43d37b4ce6cc0166fa7daa6102e08201526020816103008360086107d05a03fa9051169695505050505050565b60405161038081016040526108f9600084013561005e565b610906602084013561005e565b610913604084013561005e565b610920606084013561005e565b61092d608084013561005e565b61093a60a084013561005e565b61094760c084013561005e565b61095460e084013561005e565b61096261010084013561005e565b61097061012084013561005e565b61097e61014084013561005e565b61098c61016084013561005e565b61099a61018084013561005e565b6109a86101a084013561005e565b6109b66101c084013561005e565b6109c3818486888a6100fd565b90508060005260206000f35b80604081018310156109e057600080fd5b92915050565b6000806000806102e085870312156109fd57600080fd5b610a0786866109cf565b935060c0850186811115610a1a57600080fd5b604086019350610a2a87826109cf565b925050856102e086011115610a3e57600080fd5b5091949093509091610100019056fea2646970667358221220a696b010874ffbd546ee0afde153cb46b8d5872d4e7cf444ae12b954e5954ad864736f6c634300081b0033",
  "linkReferences": {},
  "deployedLinkReferences": {}
}