{
  "_format": "hh-sol-artifact-1",
  "contractName": "Groth16Verifier_AnonNullifierTransfer",
  "sourceName": "contracts/verifiers/verifier_anon_nullifier_transfer.sol",
  "abi": [
    {
      "inputs": [
        {
          "internalType": "uint256[2]",
          "name": "_pA",
          "type": "uint256[2]"
        },
        {
          "internalType": "uint256[2][2]",
          "name": "_pB",
          "type": "uint256[2][2]"
        },
        {
          "internalType": "uint256[2]",
          "name": "_pC",
          "type": "uint256[2]"
        },
        {
          "internalType": "uint256[7]",
          "name": "_pubSignals",
          "type": "uint256[7]"
        }
      ],
      "name": "verifyProof",
      "outputs": [
        {
          "internalType": "bool",
          "name": "",
          "type": "bool"
        }
      ],
      "stateMutability": "view",
      "type": "function"
    }
  ],
  "bytecode": "0x6080604052348015600f57600080fd5b5061078d8061001f6000396000f3fe608060405234801561001057600080fd5b506004361061002b5760003560e01c8063c894e75714610030575b600080fd5b61004361003e3660046106f0565b610057565b604051901515815260200160405180910390f35b600061065a565b7f30644e72e131a029b85045b68181585d2833e84879b9709143e1f593f0000001811061008f576000805260206000f35b50565b600060405183815284602082015285604082015260408160608360076107d05a03fa9150816100c5576000805260206000f35b825160408201526020830151606082015260408360808360066107d05a03fa915050806100f6576000805260206000f35b5050505050565b7f1caa1ec93f5ab13d55f24971a7a231d0c80420115622d98b2ebe5280a1f4debc85527f2f04890a154d91cc374cd828837785c52da564b2b60245c49a1e7a5410bf6a4260208601526000608086018661019a87357f0589b1fdaf95e5e77ddc7e88ce48aa8aea0115c83f31b64c01fb3f2ba1183bc77f2d2288fc642dcbce468be8b47ed5b3492d3006001a06b4d08e065c4af06fbbb984610092565b6101ea60208801357f283d34e096f08c208a51b93cfe2ef9f009ac87cb94fc1a21142b92379ebc77e77f1982481e38f529bc7ac952344f5dd7c291762f08312bb6f58cf1c0496b86d48c84610092565b61023a60408801357f115175d747a8d8e3c11c280ce69aa79008094a5b0d4d45ed1203beeefd251c617f2381e0dc3a5033b29943ac1a8d54c0dce022755172ac2d28f431942c5bc4802884610092565b61028a60608801357f1cb354fa14daac029cf53795151f9ce2765df4a649f26c2e7c59e2232a19fefa7f0295027f13e72a3fef8b4959bf6093afb75e04bb6b3f8ac0d9582f9eba96f11b84610092565b6102da60808801357f07946867026937ce14ce78788ef0b3559f8c7672a4772ad45fd55d84b86a165c7f2ded1ce6f2be21db31c28ec848e471491cc8320869b596ee1b848d2d5956167f84610092565b61032a60a08801357f142d594920d7ed6ac655c22ef4a4b3302d423bcbb69aa0343bef82363fb841587f22a77f5d3af2b2278c890c6a343b151d10b3a80e06dbae389b3eb80958b480b584610092565b61037a60c08801357f27737769bf1d749b6f3b13fea131ab816d05c955198fd0b103fd69a01ed4ad2b7f266a45d083fd0cac9a829cae3f81073cbd905aa7446275affb6c4864901b528984610092565b50823581527f30644e72e131a029b85045b68181585d97816a916871ca8d3c208c16d87cfd4760208401357f30644e72e131a029b85045b68181585d97816a916871ca8d3c208c16d87cfd4703066020820152833560408201526020840135606082015260408401356080820152606084013560a08201527f2d4d9aa7e302d9df41749d5507949d05dbea33fbb16c643b22f599a2be6df2e260c08201527f14bedd503c37ceb061d8ec60209fe345ce89830a19230301f076caff004d192660e08201527f0967032fcbf776d1afc985f88877f182d38480a653f2decaa9794cbc3bf3060c6101008201527f0e187847ad4c798374d0d6732bf501847dd68bc0e071241e0213bc7fc13db7ab6101208201527f304cfbd1e08a704a99f5e847d93f8c3caafddec46b7a0d379da69a4d112346a76101408201527f1739c1b1a457a8c7313123d24d2f9192f896b7c63eea05a9d57f06547ad0cec8610160820152600087015161018082015260206000018701516101a08201527f198e9393920d483a7260bfb731fb5d25f1aa493335a9e71297e485b7aef312c26101c08201527f1800deef121f1e76426a00665e5c4479674322d4f75edadd46debd5cd992f6ed6101e08201527f090689d0585ff075ec9e99ad690c3395bc4b313370b38ef355acdadcd122975b6102008201527f12c85ea5db8c6deb4aab71808dcb408fe3d1e7690c43d37b4ce6cc0166fa7daa610220820152843561024082015260208501356102608201527f198e9393920d483a7260bfb731fb5d25f1aa493335a9e71297e485b7aef312c26102808201527f1800deef121f1e76426a00665e5c4479674322d4f75edadd46debd5cd992f6ed6102a08201527f090689d0585ff075ec9e99ad690c3395bc4b313370b38ef355acdadcd122975b6102c08201527f12c85ea5db8c6deb4aab71808dcb408fe3d1e7690c43d37b4ce6cc0166fa7daa6102e08201526020816103008360086107d05a03fa9051169695505050505050565b6040516103808101604052610672600084013561005e565b61067f602084013561005e565b61068c604084013561005e565b610699606084013561005e565b6106a6608084013561005e565b6106b360a084013561005e565b6106c060c084013561005e565b6106cd818486888a6100fd565b90508060005260206000f35b80604081018310156106ea57600080fd5b92915050565b6000806000806101e0858703121561070757600080fd5b61071186866106d9565b935060c085018681111561072457600080fd5b60408601935061073487826106d9565b925050856101e08601111561074857600080fd5b5091949093509091610100019056fea2646970667358221220e333f059567560ff4cd467f83a582308216526e5388f60927990b4a5962aec5164736f6c634300081b0033",
  "linkReferences": {},
  "deployedLinkReferences": {}
}