{
  "_format": "hh-sol-artifact-1",
  "contractName": "PoseidonFacade",
  "sourceName": "@iden3/contracts/lib/Poseidon.sol",
  "abi": [
    {
      "inputs": [
        {
          "internalType": "uint256[1]",
          "name": "el",
          "type": "uint256[1]"
        }
      ],
      "name": "poseidon1",
      "outputs": [
        {
          "internalType": "uint256",
          "name": "",
          "type": "uint256"
        }
      ],
      "stateMutability": "pure",
      "type": "function"
    },
    {
      "inputs": [
        {
          "internalType": "uint256[2]",
          "name": "el",
          "type": "uint256[2]"
        }
      ],
      "name": "poseidon2",
      "outputs": [
        {
          "internalType": "uint256",
          "name": "",
          "type": "uint256"
        }
      ],
      "stateMutability": "pure",
      "type": "function"
    },
    {
      "inputs": [
        {
          "internalType": "uint256[3]",
          "name": "el",
          "type": "uint256[3]"
        }
      ],
      "name": "poseidon3",
      "outputs": [
        {
          "internalType": "uint256",
          "name": "",
          "type": "uint256"
        }
      ],
      "stateMutability": "pure",
      "type": "function"
    },
    {
      "inputs": [
        {
          "internalType": "uint256[4]",
          "name": "el",
          "type": "uint256[4]"
        }
      ],
      "name": "poseidon4",
      "outputs": [
        {
          "internalType": "uint256",
          "name": "",
          "type": "uint256"
        }
      ],
      "stateMutability": "pure",
      "type": "function"
    },
    {
      "inputs": [
        {
          "internalType": "uint256[5]",
          "name": "el",
          "type": "uint256[5]"
        }
      ],
      "name": "poseidon5",
      "outputs": [
        {
          "internalType": "uint256",
          "name": "",
          "type": "uint256"
        }
      ],
      "stateMutability": "pure",
      "type": "function"
    },
    {
      "inputs": [
        {
          "internalType": "uint256[6]",
          "name": "el",
          "type": "uint256[6]"
        }
      ],
      "name": "poseidon6",
      "outputs": [
        {
          "internalType": "uint256",
          "name": "",
          "type": "uint256"
        }
      ],
      "stateMutability": "pure",
      "type": "function"
    },
    {
      "inputs": [
        {
          "internalType": "uint256[]",
          "name": "el",
          "type": "uint256[]"
        }
      ],
      "name": "poseidonSponge",
      "outputs": [
        {
          "internalType": "uint256",
          "name": "",
          "type": "uint256"
        }
      ],
      "stateMutability": "pure",
      "type": "function"
    }
  ],
  "bytecode": "0x61063d610039600b82828239805160001a607314602c57634e487b7160e01b600052600060045260246000fd5b30600052607381538281f3fe73000000000000000000000000000000000000000030146080604052600436106100875760003560e01c8063a8ba0b2811610065578063a8ba0b28146100d7578063ac490f26146100ea578063c2720d54146100fd578063db809cd51461011057600080fd5b806327babae21461008c57806347632628146100b15780638844c1a6146100c4575b600080fd5b61009f61009a3660046103f9565b610123565b60405190815260200160405180910390f35b61009f6100bf366004610421565b6101bd565b61009f6100d2366004610443565b610210565b61009f6100e5366004610465565b610263565b61009f6100f83660046104dc565b610300565b61009f61010b3660046104fe565b610353565b61009f61011e366004610520565b6103a6565b6040517f25cc70e800000000000000000000000000000000000000000000000000000000815260009073__$03320550cd1b629da90608251571b2532e$__906325cc70e890610176908590600401610542565b602060405180830381865af4158015610193573d6000803e3d6000fd5b505050506040513d601f19601f820116820180604052508101906101b79190610551565b92915050565b6040517f29a5f2f600000000000000000000000000000000000000000000000000000000815260009073__$ebe82a1924a894141c89e6680d3cbc7e88$__906329a5f2f69061017690859060040161056a565b6040517f1caab9a700000000000000000000000000000000000000000000000000000000815260009073__$8f7e095f182f3470dd3dcaa5f47b253a9b$__90631caab9a790610176908590600401610579565b6040517f40ec6e4900000000000000000000000000000000000000000000000000000000815260009073__$581a64dd30105ceace6de9764d2f405eec$__906340ec6e49906102b89086908690600401610588565b602060405180830381865af41580156102d5573d6000803e3d6000fd5b505050506040513d601f19601f820116820180604052508101906102f99190610551565b9392505050565b6040517f248f667700000000000000000000000000000000000000000000000000000000815260009073__$2650005024f117ed9b6c57ec1bf6374b69$__9063248f6677906101769085906004016105da565b6040517f4937a25800000000000000000000000000000000000000000000000000000000815260009073__$7a833bd291b05f3a96939bc4c08dfa9199$__90634937a258906101769085906004016105e9565b6040517ff5b4a78800000000000000000000000000000000000000000000000000000000815260009073__$037d0ef5096c0205b2ca530e7bc3ca349a$__9063f5b4a788906101769085906004016105f8565b60006060828403121561040b57600080fd5b8260608301111561041b57600080fd5b50919050565b60006040828403121561043357600080fd5b8260408301111561041b57600080fd5b60006020828403121561045557600080fd5b8260208301111561041b57600080fd5b6000806020838503121561047857600080fd5b823567ffffffffffffffff81111561048f57600080fd5b8301601f810185136104a057600080fd5b803567ffffffffffffffff8111156104b757600080fd5b8560208260051b84010111156104cc57600080fd5b6020919091019590945092505050565b6000608082840312156104ee57600080fd5b8260808301111561041b57600080fd5b600060a0828403121561051057600080fd5b8260a08301111561041b57600080fd5b600060c0828403121561053257600080fd5b8260c08301111561041b57600080fd5b60608181019083833792915050565b60006020828403121561056357600080fd5b5051919050565b60408181019083833792915050565b60208181019083833792915050565b6020815281602082015260007f07ffffffffffffffffffffffffffffffffffffffffffffffffffffffffffffff8311156105c157600080fd5b8260051b80856040850137919091016040019392505050565b60808181019083833792915050565b60a08181019083833792915050565b60c0818101908383379291505056fea26469706673582212208c1f2cd023f026eaedb5674e545e70ae06fee95dfea6541d10014c2e5a41cccd64736f6c634300081b0033",
  "linkReferences": {
    "@iden3/contracts/lib/Poseidon.sol": {
      "PoseidonUnit1L": [
        {
          "length": 20,
          "start": 628
        }
      ],
      "PoseidonUnit2L": [
        {
          "length": 20,
          "start": 545
        }
      ],
      "PoseidonUnit3L": [
        {
          "length": 20,
          "start": 391
        }
      ],
      "PoseidonUnit4L": [
        {
          "length": 20,
          "start": 868
        }
      ],
      "PoseidonUnit5L": [
        {
          "length": 20,
          "start": 951
        }
      ],
      "PoseidonUnit6L": [
        {
          "length": 20,
          "start": 1034
        }
      ],
      "SpongePoseidon": [
        {
          "length": 20,
          "start": 711
        }
      ]
    }
  },
  "deployedLinkReferences": {
    "@iden3/contracts/lib/Poseidon.sol": {
      "PoseidonUnit1L": [
        {
          "length": 20,
          "start": 571
        }
      ],
      "PoseidonUnit2L": [
        {
          "length": 20,
          "start": 488
        }
      ],
      "PoseidonUnit3L": [
        {
          "length": 20,
          "start": 334
        }
      ],
      "PoseidonUnit4L": [
        {
          "length": 20,
          "start": 811
        }
      ],
      "PoseidonUnit5L": [
        {
          "length": 20,
          "start": 894
        }
      ],
      "PoseidonUnit6L": [
        {
          "length": 20,
          "start": 977
        }
      ],
      "SpongePoseidon": [
        {
          "length": 20,
          "start": 654
        }
      ]
    }
  }
}