{
  "_format": "hh-sol-artifact-1",
  "contractName": "PoseidonUnit3L",
  "sourceName": "@iden3/contracts/lib/Poseidon.sol",
  "abi": [
    {
      "inputs": [
        {
          "internalType": "uint256[3]",
          "name": "",
          "type": "uint256[3]"
        }
      ],
      "name": "poseidon",
      "outputs": [
        {
          "internalType": "uint256",
          "name": "",
          "type": "uint256"
        }
      ],
      "stateMutability": "pure",
      "type": "function"
    }
  ],
  "bytecode": "0x60b76037600b82828239805160001a607314602a57634e487b7160e01b600052600060045260246000fd5b30600052607381538281f3fe730000000000000000000000000000000000000000301460806040526004361060335760003560e01c806325cc70e8146038575b600080fd5b60496043366004605b565b50600090565b60405190815260200160405180910390f35b600060608284031215606c57600080fd5b82606083011115607b57600080fd5b5091905056fea26469706673582212205382e53b0da95eb281fa192afbf1e1cfde0eaf60a31a1340d53d2366ed7e7af964736f6c634300081b0033",
  "linkReferences": {},
  "deployedLinkReferences": {}
}