{
  "_format": "hh-sol-artifact-1",
  "contractName": "SmtLib",
  "sourceName": "@iden3/contracts/lib/SmtLib.sol",
  "abi": [
    {
      "inputs": [],
      "name": "MAX_DEPTH_HARD_CAP",
      "outputs": [
        {
          "internalType": "uint256",
          "name": "",
          "type": "uint256"
        }
      ],
      "stateMutability": "view",
      "type": "function"
    },
    {
      "inputs": [],
      "name": "ROOT_INFO_LIST_RETURN_LIMIT",
      "outputs": [
        {
          "internalType": "uint256",
          "name": "",
          "type": "uint256"
        }
      ],
      "stateMutability": "view",
      "type": "function"
    }
  ],
  "bytecode": "0x612173610039600b82828239805160001a607314602c57634e487b7160e01b600052600060045260246000fd5b30600052607381538281f3fe73000000000000000000000000000000000000000030146080604052600436106101805760003560e01c806379f97125116100e2578063a751be2411610096578063dea7633a11610070578063dea7633a14610351578063e170cf6e14610364578063ec1451081461038457600080fd5b8063a751be2414610315578063c1d29f011461031e578063dc9a7c8c1461033e57600080fd5b806391761b75116100c757806391761b75146102ac57806392f5b06c146102bf5780639e43b813146102f557600080fd5b806379f9712514610284578063893f99f31461029757600080fd5b806340a73d981161013957806362e8f2151161011e57806362e8f21514610249578063792a470f1461025e57806379c17a961461027157600080fd5b806340a73d981461022d5780635db40cda1461023657600080fd5b8063138271361161016a57806313827136146101cd57806317c850f0146101ed57806321d609531461020d57600080fd5b806278f030146101855780630912610a146101ab575b600080fd5b610198610193366004611d95565b61039c565b6040519081526020015b60405180910390f35b8180156101b757600080fd5b506101cb6101c6366004611d95565b6103b4565b005b6101e06101db366004611db7565b610502565b6040516101a29190611de3565b6102006101fb366004611d95565b610574565b6040516101a29190611e94565b61022061021b366004611db7565b610610565b6040516101a29190611ed7565b6101986103e881565b6101e0610244366004611d95565b61070d565b610198610257366004611f5a565b6001015490565b6101e061026c366004611db7565b610767565b6101e061027f366004611db7565b6107bf565b610198610292366004611f5a565b610ae7565b6101986102a5366004611f5a565b6003015490565b6102206102ba366004611f73565b610b80565b6102e56102cd366004611d95565b60009081526002919091016020526040902054151590565b60405190151581526020016101a2565b81801561030157600080fd5b506101cb610310366004611d95565b610d0c565b61019861010081565b81801561032a57600080fd5b506101cb610339366004611db7565b610d8a565b61020061034c366004611d95565b610e42565b61020061035f366004611d95565b610ed7565b610377610372366004611d95565b610fc6565b6040516101a29190611fbb565b6102e5610392366004611f5a565b6004015460ff1690565b60008181526002830160205260409020545b92915050565b6000811161042f5760405162461bcd60e51b815260206004820152602360248201527f4d6178206465707468206d7573742062652067726561746572207468616e207a60448201527f65726f000000000000000000000000000000000000000000000000000000000060648201526084015b60405180910390fd5b816003015481116104825760405162461bcd60e51b815260206004820152601f60248201527f4d61782064657074682063616e206f6e6c7920626520696e63726561736564006044820152606401610426565b6101008111156104fa5760405162461bcd60e51b815260206004820152602260248201527f4d61782064657074682069732067726561746572207468616e2068617264206360448201527f61700000000000000000000000000000000000000000000000000000000000006064820152608401610426565b600390910155565b61054e6040518061010001604052806000815260200160001515815260200160608152602001600081526020016000815260200160001515815260200160008152602001600081525090565b600061055a8584610574565b905061056b858583600001516107bf565b95945050505050565b6105ad6040518060c001604052806000815260200160008152602001600081526020016000815260200160008152602001600081525090565b428211156105fd5760405162461bcd60e51b815260206004820152601c60248201527f4e6f206675747572652074696d657374616d707320616c6c6f776564000000006044820152606401610426565b6106098383600061106e565b9392505050565b606060008061062a866001018054905086866103e86110da565b9092509050600061063b8383612028565b67ffffffffffffffff8111156106535761065361203b565b6040519080825280602002602001820160405280156106bd57816020015b6106aa6040518060c001604052806000815260200160008152602001600081526020016000815260200160008152602001600081525090565b8152602001906001900390816106715790505b509050825b82811015610702576106d488826111f0565b826106df8684612028565b815181106106ef576106ef612051565b60209081029190910101526001016106c2565b509695505050505050565b6107596040518061010001604052806000815260200160001515815260200160608152602001600081526020016000815260200160001515815260200160008152602001600081525090565b610609838361027f86610ae7565b6107b36040518061010001604052806000815260200160001515815260200160608152602001600081526020016000815260200160001515815260200160008152602001600081525090565b600061055a8584610e42565b61080b6040518061010001604052806000815260200160001515815260200160608152602001600081526020016000815260200160001515815260200160008152602001600081525090565b60008281526002850160205260409020548490839061086c5760405162461bcd60e51b815260206004820152601360248201527f526f6f7420646f6573206e6f74206578697374000000000000000000000000006044820152606401610426565b6000866003015467ffffffffffffffff81111561088b5761088b61203b565b6040519080825280602002602001820160405280156108b4578160200160208202803683370190505b50905060005b87600301548110156108ed5760008282815181106108da576108da612051565b60209081029190910101526001016108ba565b506040805161010081018252868152600060208201819052918101839052606081018890526080810182905260a0810182905260c0810182905260e0810191909152856109636040805160a081019091528060008152602001600081526020016000815260200160008152602001600081525090565b60005b8a600301548111610ad85761097b8b84610fc6565b915060008251600281111561099257610992611fa5565b14610ad8576001825160028111156109ac576109ac611fa5565b036109fd5783606001518260600151036109d6576001602085015260808083015190850152610ad8565b600160a0850152606082015160c08501526080808301805160e08701525190850152610ad8565b600282516002811115610a1257610a12611fa5565b03610a7e57808460600151901c600116600103610a5c5781604001519250816020015184604001518281518110610a4b57610a4b612051565b602002602001018181525050610ac6565b81602001519250816040015184604001518281518110610a4b57610a4b612051565b60405162461bcd60e51b815260206004820152601160248201527f496e76616c6964206e6f646520747970650000000000000000000000000000006044820152606401610426565b80610ad081612067565b915050610966565b50919998505050505050505050565b600081610af8816004015460ff1690565b610b445760405162461bcd60e51b815260206004820152601660248201527f536d74206973206e6f7420696e697469616c697a6564000000000000000000006044820152606401610426565b600180840180549091610b5691612028565b81548110610b6657610b66612051565b906000526020600020906003020160000154915050919050565b600083815260028501602052604090205460609085908590610be45760405162461bcd60e51b815260206004820152601360248201527f526f6f7420646f6573206e6f74206578697374000000000000000000000000006044820152606401610426565b6000868152600288016020526040812080549091908190610c099089896103e86110da565b90925090506000610c1a8383612028565b67ffffffffffffffff811115610c3257610c3261203b565b604051908082528060200260200182016040528015610c9c57816020015b610c896040518060c001604052806000815260200160008152602001600081526020016000815260200160008152602001600081525090565b815260200190600190039081610c505790505b509050825b82811015610cfd57610ccf8c868381548110610cbf57610cbf612051565b90600052602060002001546111f0565b82610cda8684612028565b81518110610cea57610cea612051565b6020908102919091010152600101610ca1565b509a9950505050505050505050565b600482015460ff1615610d615760405162461bcd60e51b815260206004820152601a60248201527f536d7420697320616c726561647920696e697469616c697a65640000000000006044820152606401610426565b610d6b82826103b4565b610d79826000806000611364565b50600401805460ff19166001179055565b82610d99816004015460ff1690565b610de55760405162461bcd60e51b815260206004820152601660248201527f536d74206973206e6f7420696e697469616c697a6564000000000000000000006044820152606401610426565b6040805160a08101825260018152600060208201819052918101829052606081018590526080810184905290610e1a86610ae7565b90506000610e2b87848460006113e4565b9050610e3987824243611364565b50505050505050565b610e7b6040518060c001604052806000815260200160008152602001600081526020016000815260200160008152602001600081525090565b43821115610ecb5760405162461bcd60e51b815260206004820152601860248201527f4e6f2066757475726520626c6f636b7320616c6c6f77656400000000000000006044820152606401610426565b6106098383600161106e565b610f106040518060c001604052806000815260200160008152602001600081526020016000815260200160008152602001600081525090565b600082815260028401602052604090205483908390610f715760405162461bcd60e51b815260206004820152601360248201527f526f6f7420646f6573206e6f74206578697374000000000000000000000000006044820152606401610426565b6000848152600286016020526040812080549091908290610f9490600190612028565b81548110610fa457610fa4612051565b90600052602060002001549050610fbb87826111f0565b979650505050505050565b610ff96040805160a081019091528060008152602001600081526020016000815260200160008152602001600081525090565b60008281526020849052604090819020815160a081019092528054829060ff16600281111561102a5761102a611fa5565b600281111561103b5761103b611fa5565b81526001820154602082015260028201546040820152600382015460608201526004909101546080909101529392505050565b6110a76040518060c001604052806000815260200160008152602001600081526020016000815260200160008152602001600081525090565b6000806110b5868686611635565b91509150806110c6576110c6612080565b6110d086836111f0565b9695505050505050565b6000806000841161112d5760405162461bcd60e51b815260206004820152601f60248201527f4c656e6774682073686f756c642062652067726561746572207468616e2030006044820152606401610426565b8284111561117d5760405162461bcd60e51b815260206004820152601560248201527f4c656e677468206c696d697420657863656564656400000000000000000000006044820152606401610426565b8585106111cc5760405162461bcd60e51b815260206004820152601960248201527f537461727420696e646578206f7574206f6620626f756e6473000000000000006044820152606401610426565b60006111d88587612096565b9050868111156111e55750855b949694955050505050565b6112296040518060c001604052806000815260200160008152602001600081526020016000815260200160008152602001600081525090565b60018381015460009161123b91612028565b83149050600084600101848154811061125657611256612051565b906000526020600020906003020190506040518060c0016040528082600001548152602001836112b857866001018660016112919190612096565b815481106112a1576112a1612051565b9060005260206000209060030201600001546112bb565b60005b8152602001826001015481526020018361130757866001018660016112e09190612096565b815481106112f0576112f0612051565b90600052602060002090600302016001015461130a565b60005b81526020018260020154815260200183611356578660010186600161132f9190612096565b8154811061133f5761133f612051565b906000526020600020906003020160020154611359565b60005b905295945050505050565b6040805160608101825284815260208082018581528284018581526001808a0180548083018255600082815286812097516003909202909701908155935184830155915160029384015588855291890190925292909120905490916113c891612028565b8154600181018355600092835260209092209091015550505050565b6000846003015482111561143a5760405162461bcd60e51b815260206004820152601160248201527f4d617820646570746820726561636865640000000000000000000000000000006044820152606401610426565b600083815260208690526040808220815160a081019092528054829060ff16600281111561146a5761146a611fa5565b600281111561147b5761147b611fa5565b8152600182015460208201526002820154604082015260038201546060820152600490910154608090910152905060008080835160028111156114c0576114c0611fa5565b036114d6576114cf888861180c565b9050611628565b6001835160028111156114eb576114eb611fa5565b0361151a5786606001518360600151146115105761150b88888588611985565b6114cf565b6114cf888861180c565b60028351600281111561152f5761152f611fa5565b03611628576115676040805160a081019091528060008152602001600081526020016000815260200160008152602001600081525090565b858860600151901c6001166001036115ce57611595898986604001518960016115909190612096565b6113e4565b6040805160a08101909152909350806002815260200185602001518152602001848152602001600081526020016000815250905061161a565b6115e5898986602001518960016115909190612096565b6040805160a0810190915290935080600281526020018481526020018560400151815260200160008152602001600081525090505b611624898261180c565b9150505b925050505b949350505050565b60018301546000908190810361165057506000905080611804565b60018581015460009182916116659190612028565b905060005b8183116117fb57600261167d8484612096565b61168791906120a9565b905060006116e08960010183815481106116a3576116a3612051565b9060005260206000209060030201604051806060016040529081600082015481526020016001820154815260200160028201548152505088611b6c565b90508781036117a5575b6001898101546116fa9190612028565b8210156117965760006117648a6001018460016117179190612096565b8154811061172757611727612051565b9060005260206000209060030201604051806060016040529081600082015481526020016001820154815260200160028201548152505089611b6c565b905088810361177f578261177781612067565b935050611790565b826001965096505050505050611804565b506116ea565b50935060019250611804915050565b808811156117bf576117b8826001612096565b93506117f5565b80881080156117ce5750600082115b156117e5576117de600183612028565b92506117f5565b6000809550955050505050611804565b5061166a565b50925060019150505b935093915050565b60008061181883611bfe565b90506000808281526020869052604090205460ff16600281111561183e5761183e611fa5565b1461191f578251600281111561185657611856611fa5565b60008281526020869052604090205460ff16600281111561187957611879611fa5565b1461188657611886612080565b602080840151600083815291869052604090912060010154146118ab576118ab612080565b604080840151600083815260208790529190912060020154146118d0576118d0612080565b6060830151600082815260208690526040902060030154146118f4576118f4612080565b60808301516000828152602086905260409020600401541461191857611918612080565b90506103ae565b60008181526020859052604090208351815485929190829060ff1916600183600281111561194f5761194f611fa5565b02179055506020820151600182015560408201516002820155606082015160038201556080909101516004909101559392505050565b6000846003015482106119da5760405162461bcd60e51b815260206004820152601160248201527f4d617820646570746820726561636865640000000000000000000000000000006044820152606401610426565b611a0d6040805160a081019091528060008152602001600081526020016000815260200160008152602001600081525090565b60608086015190850151600191851c821682149190851c811614808203611ac5576000611a46898989611a418a6001612096565b611985565b90508215611a81576040805160a081019091528060028152602001600081526020018281526020016000815260200160008152509350611ab0565b6040805160a0810190915280600281526020018281526020016000815260200160008152602001600081525093505b611aba898561180c565b94505050505061162d565b8115611b0d576040805160a081019091528060028152602001611ae788611bfe565b8152602001611af589611bfe565b81526020016000815260200160008152509250611b4b565b6040805160a081019091528060028152602001611b2989611bfe565b8152602001611b3788611bfe565b815260200160008152602001600081525092505b611b55888861180c565b50611b60888461180c565b98975050505050505050565b60006001826001811115611b8257611b82611fa5565b03611b92575060408201516103ae565b6000826001811115611ba657611ba6611fa5565b03611bb6575060208201516103ae565b60405162461bcd60e51b815260206004820152601360248201527f496e76616c6964207365617263682074797065000000000000000000000000006044820152606401610426565b600080600183516002811115611c1657611c16611fa5565b03611cd357604080516060808201835285015181526080850151602082015260018183015290517f25cc70e800000000000000000000000000000000000000000000000000000000815273__$03320550cd1b629da90608251571b2532e$__906325cc70e890611c8a9084906004016120cb565b602060405180830381865af4158015611ca7573d6000803e3d6000fd5b505050506040513d601f19601f82011682018060405250810190611ccb91906120fc565b9150506103ae565b600283516002811115611ce857611ce8611fa5565b036103ae576040805180820182526020808601518252858301519082015290517f29a5f2f600000000000000000000000000000000000000000000000000000000815273__$ebe82a1924a894141c89e6680d3cbc7e88$__916329a5f2f691611d549190600401612115565b602060405180830381865af4158015611d71573d6000803e3d6000fd5b505050506040513d601f19601f8201168201806040525081019061060991906120fc565b60008060408385031215611da857600080fd5b50508035926020909101359150565b600080600060608486031215611dcc57600080fd5b505081359360208301359350604090920135919050565b6020815260006101208201835160208401526020840151151560408401526040840151610100606085015281815180845261014086019150602083019350600092505b80831015611e495783518252602082019150602084019350600183019250611e26565b5060608601516080860152608086015160a086015260a08601519250611e7360c086018415159052565b60c086015160e086015260e086015161010086015280935050505092915050565b60c081016103ae8284805182526020810151602083015260408101516040830152606081015160608301526080810151608083015260a081015160a08301525050565b602080825282518282018190526000918401906040840190835b81811015611f4f57611f39838551805182526020810151602083015260408101516040830152606081015160608301526080810151608083015260a081015160a08301525050565b6020939093019260c09290920191600101611ef1565b509095945050505050565b600060208284031215611f6c57600080fd5b5035919050565b60008060008060808587031215611f8957600080fd5b5050823594602084013594506040840135936060013592509050565b634e487b7160e01b600052602160045260246000fd5b815160a082019060038110611fe057634e487b7160e01b600052602160045260246000fd5b808352506020830151602083015260408301516040830152606083015160608301526080830151608083015292915050565b634e487b7160e01b600052601160045260246000fd5b818103818111156103ae576103ae612012565b634e487b7160e01b600052604160045260246000fd5b634e487b7160e01b600052603260045260246000fd5b60006001820161207957612079612012565b5060010190565b634e487b7160e01b600052600160045260246000fd5b808201808211156103ae576103ae612012565b6000826120c657634e487b7160e01b600052601260045260246000fd5b500490565b60608101818360005b60038110156120f35781518352602092830192909101906001016120d4565b50505092915050565b60006020828403121561210e57600080fd5b5051919050565b60408101818360005b60028110156120f357815183526020928301929091019060010161211e56fea264697066735822122077f9673d1416576e7d371601023983c7b092a6b3b61c827c9f615cfa82dd175164736f6c634300081b0033",
  "linkReferences": {
    "@iden3/contracts/lib/Poseidon.sol": {
      "PoseidonUnit2L": [
        {
          "length": 20,
          "start": 7526
        }
      ],
      "PoseidonUnit3L": [
        {
          "length": 20,
          "start": 7323
        }
      ]
    }
  },
  "deployedLinkReferences": {
    "@iden3/contracts/lib/Poseidon.sol": {
      "PoseidonUnit2L": [
        {
          "length": 20,
          "start": 7469
        }
      ],
      "PoseidonUnit3L": [
        {
          "length": 20,
          "start": 7266
        }
      ]
    }
  }
}