{
  "_format": "hh-sol-artifact-1",
  "contractName": "SpongePoseidon",
  "sourceName": "@iden3/contracts/lib/Poseidon.sol",
  "abi": [
    {
      "inputs": [
        {
          "internalType": "uint256[]",
          "name": "values",
          "type": "uint256[]"
        }
      ],
      "name": "hash",
      "outputs": [
        {
          "internalType": "uint256",
          "name": "",
          "type": "uint256"
        }
      ],
      "stateMutability": "pure",
      "type": "function"
    }
  ],
  "bytecode": "0x610462610039600b82828239805160001a607314602c57634e487b7160e01b600052600060045260246000fd5b30600052607381538281f3fe73000000000000000000000000000000000000000030146080604052600436106100355760003560e01c806340ec6e491461003a575b600080fd5b61004d6100483660046102a2565b61005f565b60405190815260200160405180910390f35b6000806040518060c001604052806000815260200160008152602001600081526020016000815260200160008152602001600081525090506000806000805b86518163ffffffff1610156102015760019350868163ffffffff16815181106100c9576100c961036f565b6020026020010151858363ffffffff16600681106100e9576100e961036f565b60200201526100fa6001600661039b565b63ffffffff168263ffffffff16036101e157604051631eb694f160e31b815273__$037d0ef5096c0205b2ca530e7bc3ca349a$__9063f5b4a788906101439088906004016103bd565b602060405180830381865af4158015610160573d6000803e3d6000fd5b505050506040513d601f19601f8201168201806040525081019061018491906103ee565b9250600093506040518060c0016040528060008152602001600081526020016000815260200160008152602001600081526020016000815250945082856000600681106101d3576101d361036f565b6020020152600191506101ef565b816101eb81610407565b9250505b806101f981610407565b91505061009e565b50821561028357604051631eb694f160e31b815273__$037d0ef5096c0205b2ca530e7bc3ca349a$__9063f5b4a7889061023f9087906004016103bd565b602060405180830381865af415801561025c573d6000803e3d6000fd5b505050506040513d601f19601f8201168201806040525081019061028091906103ee565b91505b50949350505050565b634e487b7160e01b600052604160045260246000fd5b6000602082840312156102b457600080fd5b813567ffffffffffffffff8111156102cb57600080fd5b8201601f810184136102dc57600080fd5b803567ffffffffffffffff8111156102f6576102f661028c565b8060051b604051601f19603f830116810181811067ffffffffffffffff821117156103235761032361028c565b60405291825260208184018101929081018784111561034157600080fd5b6020850194505b8385101561036457843580825260209586019590935001610348565b509695505050505050565b634e487b7160e01b600052603260045260246000fd5b634e487b7160e01b600052601160045260246000fd5b63ffffffff82811682821603908111156103b7576103b7610385565b92915050565b60c08101818360005b60068110156103e55781518352602092830192909101906001016103c6565b50505092915050565b60006020828403121561040057600080fd5b5051919050565b600063ffffffff821663ffffffff810361042357610423610385565b6001019291505056fea26469706673582212203289c107842585e4b2940c593847bc9fd908dd69b10104638931c7aea90242fa64736f6c634300081b0033",
  "linkReferences": {
    "@iden3/contracts/lib/Poseidon.sol": {
      "PoseidonUnit6L": [
        {
          "length": 20,
          "start": 340
        },
        {
          "length": 20,
          "start": 592
        }
      ]
    }
  },
  "deployedLinkReferences": {
    "@iden3/contracts/lib/Poseidon.sol": {
      "PoseidonUnit6L": [
        {
          "length": 20,
          "start": 283
        },
        {
          "length": 20,
          "start": 535
        }
      ]
    }
  }
}