{
  "_format": "hh-sol-artifact-1",
  "contractName": "TenDecimals",
  "sourceName": "contracts/test/tendecimals.sol",
  "abi": [
    {
      "inputs": [
        {
          "internalType": "address",
          "name": "target",
          "type": "address"
        }
      ],
      "name": "AddressEmptyCode",
      "type": "error"
    },
    {
      "inputs": [
        {
          "internalType": "address",
          "name": "implementation",
          "type": "address"
        }
      ],
      "name": "ERC1967InvalidImplementation",
      "type": "error"
    },
    {
      "inputs": [],
      "name": "ERC1967NonPayable",
      "type": "error"
    },
    {
      "inputs": [],
      "name": "FailedCall",
      "type": "error"
    },
    {
      "inputs": [],
      "name": "InvalidInitialization",
      "type": "error"
    },
    {
      "inputs": [],
      "name": "NotInitializing",
      "type": "error"
    },
    {
      "inputs": [
        {
          "internalType": "uint256",
          "name": "utxo",
          "type": "uint256"
        },
        {
          "internalType": "address",
          "name": "delegate",
          "type": "address"
        },
        {
          "internalType": "address",
          "name": "sender",
          "type": "address"
        }
      ],
      "name": "NotLockDelegate",
      "type": "error"
    },
    {
      "inputs": [
        {
          "internalType": "address",
          "name": "owner",
          "type": "address"
        }
      ],
      "name": "OwnableInvalidOwner",
      "type": "error"
    },
    {
      "inputs": [
        {
          "internalType": "address",
          "name": "account",
          "type": "address"
        }
      ],
      "name": "OwnableUnauthorizedAccount",
      "type": "error"
    },
    {
      "inputs": [
        {
          "internalType": "uint256",
          "name": "utxo",
          "type": "uint256"
        }
      ],
      "name": "UTXOAlreadyLocked",
      "type": "error"
    },
    {
      "inputs": [
        {
          "internalType": "uint256",
          "name": "utxo",
          "type": "uint256"
        }
      ],
      "name": "UTXOAlreadyOwned",
      "type": "error"
    },
    {
      "inputs": [
        {
          "internalType": "uint256",
          "name": "utxo",
          "type": "uint256"
        }
      ],
      "name": "UTXOAlreadySpent",
      "type": "error"
    },
    {
      "inputs": [
        {
          "internalType": "uint256",
          "name": "maxAllowed",
          "type": "uint256"
        }
      ],
      "name": "UTXOArrayTooLarge",
      "type": "error"
    },
    {
      "inputs": [
        {
          "internalType": "uint256",
          "name": "utxo",
          "type": "uint256"
        }
      ],
      "name": "UTXODuplicate",
      "type": "error"
    },
    {
      "inputs": [
        {
          "internalType": "uint256",
          "name": "utxo",
          "type": "uint256"
        }
      ],
      "name": "UTXONotLocked",
      "type": "error"
    },
    {
      "inputs": [
        {
          "internalType": "uint256",
          "name": "utxo",
          "type": "uint256"
        }
      ],
      "name": "UTXONotMinted",
      "type": "error"
    },
    {
      "inputs": [],
      "name": "UUPSUnauthorizedCallContext",
      "type": "error"
    },
    {
      "inputs": [
        {
          "internalType": "bytes32",
          "name": "slot",
          "type": "bytes32"
        }
      ],
      "name": "UUPSUnsupportedProxiableUUID",
      "type": "error"
    },
    {
      "inputs": [
        {
          "internalType": "uint256",
          "name": "maxAllowed",
          "type": "uint256"
        }
      ],
      "name": "WithdrawArrayTooLarge",
      "type": "error"
    },
    {
      "anonymous": false,
      "inputs": [
        {
          "indexed": false,
          "internalType": "uint64",
          "name": "version",
          "type": "uint64"
        }
      ],
      "name": "Initialized",
      "type": "event"
    },
    {
      "anonymous": false,
      "inputs": [
        {
          "indexed": false,
          "internalType": "uint256[]",
          "name": "lockedOutputs",
          "type": "uint256[]"
        },
        {
          "indexed": true,
          "internalType": "address",
          "name": "oldDelegate",
          "type": "address"
        },
        {
          "indexed": true,
          "internalType": "address",
          "name": "newDelegate",
          "type": "address"
        },
        {
          "indexed": false,
          "internalType": "bytes",
          "name": "data",
          "type": "bytes"
        }
      ],
      "name": "LockDelegateChanged",
      "type": "event"
    },
    {
      "anonymous": false,
      "inputs": [
        {
          "indexed": true,
          "internalType": "address",
          "name": "previousOwner",
          "type": "address"
        },
        {
          "indexed": true,
          "internalType": "address",
          "name": "newOwner",
          "type": "address"
        }
      ],
      "name": "OwnershipTransferred",
      "type": "event"
    },
    {
      "anonymous": false,
      "inputs": [
        {
          "indexed": false,
          "internalType": "uint256[]",
          "name": "inputs",
          "type": "uint256[]"
        },
        {
          "indexed": false,
          "internalType": "uint256",
          "name": "output",
          "type": "uint256"
        },
        {
          "indexed": true,
          "internalType": "address",
          "name": "submitter",
          "type": "address"
        },
        {
          "indexed": false,
          "internalType": "bytes",
          "name": "data",
          "type": "bytes"
        }
      ],
      "name": "UTXOBurn",
      "type": "event"
    },
    {
      "anonymous": false,
      "inputs": [
        {
          "indexed": false,
          "internalType": "uint256[]",
          "name": "outputs",
          "type": "uint256[]"
        },
        {
          "indexed": true,
          "internalType": "address",
          "name": "submitter",
          "type": "address"
        },
        {
          "indexed": false,
          "internalType": "bytes",
          "name": "data",
          "type": "bytes"
        }
      ],
      "name": "UTXOMint",
      "type": "event"
    },
    {
      "anonymous": false,
      "inputs": [
        {
          "indexed": false,
          "internalType": "uint256[]",
          "name": "inputs",
          "type": "uint256[]"
        },
        {
          "indexed": false,
          "internalType": "uint256[]",
          "name": "outputs",
          "type": "uint256[]"
        },
        {
          "indexed": true,
          "internalType": "address",
          "name": "submitter",
          "type": "address"
        },
        {
          "indexed": false,
          "internalType": "bytes",
          "name": "data",
          "type": "bytes"
        }
      ],
      "name": "UTXOTransfer",
      "type": "event"
    },
    {
      "anonymous": false,
      "inputs": [
        {
          "indexed": false,
          "internalType": "uint256[]",
          "name": "inputs",
          "type": "uint256[]"
        },
        {
          "indexed": false,
          "internalType": "uint256[]",
          "name": "outputs",
          "type": "uint256[]"
        },
        {
          "indexed": false,
          "internalType": "uint256",
          "name": "encryptionNonce",
          "type": "uint256"
        },
        {
          "indexed": false,
          "internalType": "uint256[2]",
          "name": "ecdhPublicKey",
          "type": "uint256[2]"
        },
        {
          "indexed": false,
          "internalType": "uint256[]",
          "name": "encryptedValues",
          "type": "uint256[]"
        },
        {
          "indexed": true,
          "internalType": "address",
          "name": "submitter",
          "type": "address"
        },
        {
          "indexed": false,
          "internalType": "bytes",
          "name": "data",
          "type": "bytes"
        }
      ],
      "name": "UTXOTransferWithEncryptedValues",
      "type": "event"
    },
    {
      "anonymous": false,
      "inputs": [
        {
          "indexed": false,
          "internalType": "uint256",
          "name": "amount",
          "type": "uint256"
        },
        {
          "indexed": false,
          "internalType": "uint256[]",
          "name": "inputs",
          "type": "uint256[]"
        },
        {
          "indexed": false,
          "internalType": "uint256",
          "name": "output",
          "type": "uint256"
        },
        {
          "indexed": true,
          "internalType": "address",
          "name": "submitter",
          "type": "address"
        },
        {
          "indexed": false,
          "internalType": "bytes",
          "name": "data",
          "type": "bytes"
        }
      ],
      "name": "UTXOWithdraw",
      "type": "event"
    },
    {
      "anonymous": false,
      "inputs": [
        {
          "indexed": false,
          "internalType": "uint256[]",
          "name": "inputs",
          "type": "uint256[]"
        },
        {
          "indexed": false,
          "internalType": "uint256[]",
          "name": "outputs",
          "type": "uint256[]"
        },
        {
          "indexed": false,
          "internalType": "uint256[]",
          "name": "lockedOutputs",
          "type": "uint256[]"
        },
        {
          "indexed": true,
          "internalType": "address",
          "name": "delegate",
          "type": "address"
        },
        {
          "indexed": true,
          "internalType": "address",
          "name": "submitter",
          "type": "address"
        },
        {
          "indexed": false,
          "internalType": "bytes",
          "name": "data",
          "type": "bytes"
        }
      ],
      "name": "UTXOsLocked",
      "type": "event"
    },
    {
      "anonymous": false,
      "inputs": [
        {
          "indexed": true,
          "internalType": "address",
          "name": "implementation",
          "type": "address"
        }
      ],
      "name": "Upgraded",
      "type": "event"
    },
    {
      "inputs": [],
      "name": "UPGRADE_INTERFACE_VERSION",
      "outputs": [
        {
          "internalType": "string",
          "name": "",
          "type": "string"
        }
      ],
      "stateMutability": "view",
      "type": "function"
    },
    {
      "inputs": [
        {
          "internalType": "contract Groth16Verifier_Deposit",
          "name": "depositVerifier",
          "type": "address"
        },
        {
          "internalType": "contract Groth16Verifier_Withdraw",
          "name": "withdrawVerifier",
          "type": "address"
        },
        {
          "internalType": "contract Groth16Verifier_WithdrawBatch",
          "name": "batchWithdrawVerifier",
          "type": "address"
        }
      ],
      "name": "__ZetoFungibleWithdraw_init",
      "outputs": [],
      "stateMutability": "nonpayable",
      "type": "function"
    },
    {
      "inputs": [
        {
          "internalType": "contract Groth16Verifier_Deposit",
          "name": "depositVerifier",
          "type": "address"
        }
      ],
      "name": "__ZetoFungible_init",
      "outputs": [],
      "stateMutability": "nonpayable",
      "type": "function"
    },
    {
      "inputs": [
        {
          "internalType": "uint256",
          "name": "amount",
          "type": "uint256"
        },
        {
          "internalType": "uint256[]",
          "name": "outputs",
          "type": "uint256[]"
        },
        {
          "components": [
            {
              "internalType": "uint256[2]",
              "name": "pA",
              "type": "uint256[2]"
            },
            {
              "internalType": "uint256[2][2]",
              "name": "pB",
              "type": "uint256[2][2]"
            },
            {
              "internalType": "uint256[2]",
              "name": "pC",
              "type": "uint256[2]"
            }
          ],
          "internalType": "struct Commonlib.Proof",
          "name": "proof",
          "type": "tuple"
        }
      ],
      "name": "_deposit",
      "outputs": [],
      "stateMutability": "nonpayable",
      "type": "function"
    },
    {
      "inputs": [
        {
          "internalType": "uint256",
          "name": "amount",
          "type": "uint256"
        },
        {
          "internalType": "uint256[]",
          "name": "inputs",
          "type": "uint256[]"
        },
        {
          "internalType": "uint256",
          "name": "output",
          "type": "uint256"
        },
        {
          "components": [
            {
              "internalType": "uint256[2]",
              "name": "pA",
              "type": "uint256[2]"
            },
            {
              "internalType": "uint256[2][2]",
              "name": "pB",
              "type": "uint256[2][2]"
            },
            {
              "internalType": "uint256[2]",
              "name": "pC",
              "type": "uint256[2]"
            }
          ],
          "internalType": "struct Commonlib.Proof",
          "name": "proof",
          "type": "tuple"
        }
      ],
      "name": "_withdraw",
      "outputs": [],
      "stateMutability": "nonpayable",
      "type": "function"
    },
    {
      "inputs": [
        {
          "internalType": "uint256[]",
          "name": "commitments",
          "type": "uint256[]"
        }
      ],
      "name": "checkAndPadCommitments",
      "outputs": [
        {
          "internalType": "uint256[]",
          "name": "",
          "type": "uint256[]"
        }
      ],
      "stateMutability": "pure",
      "type": "function"
    },
    {
      "inputs": [],
      "name": "decimals",
      "outputs": [
        {
          "internalType": "uint8",
          "name": "",
          "type": "uint8"
        }
      ],
      "stateMutability": "pure",
      "type": "function"
    },
    {
      "inputs": [
        {
          "internalType": "uint256[]",
          "name": "utxos",
          "type": "uint256[]"
        },
        {
          "internalType": "address",
          "name": "delegate",
          "type": "address"
        },
        {
          "internalType": "bytes",
          "name": "data",
          "type": "bytes"
        }
      ],
      "name": "delegateLock",
      "outputs": [],
      "stateMutability": "nonpayable",
      "type": "function"
    },
    {
      "inputs": [
        {
          "internalType": "uint256",
          "name": "amount",
          "type": "uint256"
        },
        {
          "internalType": "uint256[]",
          "name": "outputs",
          "type": "uint256[]"
        },
        {
          "components": [
            {
              "internalType": "uint256[2]",
              "name": "pA",
              "type": "uint256[2]"
            },
            {
              "internalType": "uint256[2][2]",
              "name": "pB",
              "type": "uint256[2][2]"
            },
            {
              "internalType": "uint256[2]",
              "name": "pC",
              "type": "uint256[2]"
            }
          ],
          "internalType": "struct Commonlib.Proof",
          "name": "proof",
          "type": "tuple"
        },
        {
          "internalType": "bytes",
          "name": "data",
          "type": "bytes"
        }
      ],
      "name": "deposit",
      "outputs": [],
      "stateMutability": "nonpayable",
      "type": "function"
    },
    {
      "inputs": [
        {
          "internalType": "string",
          "name": "name",
          "type": "string"
        },
        {
          "internalType": "string",
          "name": "symbol",
          "type": "string"
        },
        {
          "internalType": "address",
          "name": "initialOwner",
          "type": "address"
        },
        {
          "components": [
            {
              "internalType": "address",
              "name": "verifier",
              "type": "address"
            },
            {
              "internalType": "address",
              "name": "depositVerifier",
              "type": "address"
            },
            {
              "internalType": "address",
              "name": "withdrawVerifier",
              "type": "address"
            },
            {
              "internalType": "address",
              "name": "lockVerifier",
              "type": "address"
            },
            {
              "internalType": "address",
              "name": "burnVerifier",
              "type": "address"
            },
            {
              "internalType": "address",
              "name": "batchVerifier",
              "type": "address"
            },
            {
              "internalType": "address",
              "name": "batchWithdrawVerifier",
              "type": "address"
            },
            {
              "internalType": "address",
              "name": "batchLockVerifier",
              "type": "address"
            },
            {
              "internalType": "address",
              "name": "batchBurnVerifier",
              "type": "address"
            }
          ],
          "internalType": "struct IZetoInitializable.VerifiersInfo",
          "name": "verifiersInfo",
          "type": "tuple"
        }
      ],
      "name": "initialize",
      "outputs": [],
      "stateMutability": "nonpayable",
      "type": "function"
    },
    {
      "inputs": [
        {
          "internalType": "uint256[]",
          "name": "inputs",
          "type": "uint256[]"
        },
        {
          "internalType": "uint256[]",
          "name": "outputs",
          "type": "uint256[]"
        },
        {
          "internalType": "uint256[]",
          "name": "lockedOutputs",
          "type": "uint256[]"
        },
        {
          "components": [
            {
              "internalType": "uint256[2]",
              "name": "pA",
              "type": "uint256[2]"
            },
            {
              "internalType": "uint256[2][2]",
              "name": "pB",
              "type": "uint256[2][2]"
            },
            {
              "internalType": "uint256[2]",
              "name": "pC",
              "type": "uint256[2]"
            }
          ],
          "internalType": "struct Commonlib.Proof",
          "name": "proof",
          "type": "tuple"
        },
        {
          "internalType": "address",
          "name": "delegate",
          "type": "address"
        },
        {
          "internalType": "bytes",
          "name": "data",
          "type": "bytes"
        }
      ],
      "name": "lock",
      "outputs": [],
      "stateMutability": "nonpayable",
      "type": "function"
    },
    {
      "inputs": [
        {
          "internalType": "uint256",
          "name": "utxo",
          "type": "uint256"
        }
      ],
      "name": "locked",
      "outputs": [
        {
          "internalType": "bool",
          "name": "",
          "type": "bool"
        },
        {
          "internalType": "address",
          "name": "",
          "type": "address"
        }
      ],
      "stateMutability": "view",
      "type": "function"
    },
    {
      "inputs": [
        {
          "internalType": "uint256[]",
          "name": "utxos",
          "type": "uint256[]"
        },
        {
          "internalType": "bytes",
          "name": "data",
          "type": "bytes"
        }
      ],
      "name": "mint",
      "outputs": [],
      "stateMutability": "nonpayable",
      "type": "function"
    },
    {
      "inputs": [],
      "name": "name",
      "outputs": [
        {
          "internalType": "string",
          "name": "",
          "type": "string"
        }
      ],
      "stateMutability": "view",
      "type": "function"
    },
    {
      "inputs": [],
      "name": "owner",
      "outputs": [
        {
          "internalType": "address",
          "name": "",
          "type": "address"
        }
      ],
      "stateMutability": "view",
      "type": "function"
    },
    {
      "inputs": [],
      "name": "proxiableUUID",
      "outputs": [
        {
          "internalType": "bytes32",
          "name": "",
          "type": "bytes32"
        }
      ],
      "stateMutability": "view",
      "type": "function"
    },
    {
      "inputs": [],
      "name": "renounceOwnership",
      "outputs": [],
      "stateMutability": "nonpayable",
      "type": "function"
    },
    {
      "inputs": [
        {
          "internalType": "contract IERC20",
          "name": "erc20",
          "type": "address"
        }
      ],
      "name": "setERC20",
      "outputs": [],
      "stateMutability": "nonpayable",
      "type": "function"
    },
    {
      "inputs": [
        {
          "internalType": "uint256",
          "name": "txo",
          "type": "uint256"
        }
      ],
      "name": "spent",
      "outputs": [
        {
          "internalType": "bool",
          "name": "",
          "type": "bool"
        }
      ],
      "stateMutability": "view",
      "type": "function"
    },
    {
      "inputs": [],
      "name": "symbol",
      "outputs": [
        {
          "internalType": "string",
          "name": "",
          "type": "string"
        }
      ],
      "stateMutability": "view",
      "type": "function"
    },
    {
      "inputs": [
        {
          "internalType": "uint256[]",
          "name": "inputs",
          "type": "uint256[]"
        },
        {
          "internalType": "uint256[]",
          "name": "outputs",
          "type": "uint256[]"
        },
        {
          "components": [
            {
              "internalType": "uint256[2]",
              "name": "pA",
              "type": "uint256[2]"
            },
            {
              "internalType": "uint256[2][2]",
              "name": "pB",
              "type": "uint256[2][2]"
            },
            {
              "internalType": "uint256[2]",
              "name": "pC",
              "type": "uint256[2]"
            }
          ],
          "internalType": "struct Commonlib.Proof",
          "name": "proof",
          "type": "tuple"
        },
        {
          "internalType": "bytes",
          "name": "data",
          "type": "bytes"
        }
      ],
      "name": "transfer",
      "outputs": [
        {
          "internalType": "bool",
          "name": "",
          "type": "bool"
        }
      ],
      "stateMutability": "nonpayable",
      "type": "function"
    },
    {
      "inputs": [
        {
          "internalType": "uint256[]",
          "name": "inputs",
          "type": "uint256[]"
        },
        {
          "internalType": "uint256[]",
          "name": "outputs",
          "type": "uint256[]"
        },
        {
          "components": [
            {
              "internalType": "uint256[2]",
              "name": "pA",
              "type": "uint256[2]"
            },
            {
              "internalType": "uint256[2][2]",
              "name": "pB",
              "type": "uint256[2][2]"
            },
            {
              "internalType": "uint256[2]",
              "name": "pC",
              "type": "uint256[2]"
            }
          ],
          "internalType": "struct Commonlib.Proof",
          "name": "proof",
          "type": "tuple"
        },
        {
          "internalType": "bytes",
          "name": "data",
          "type": "bytes"
        }
      ],
      "name": "transferLocked",
      "outputs": [
        {
          "internalType": "bool",
          "name": "",
          "type": "bool"
        }
      ],
      "stateMutability": "nonpayable",
      "type": "function"
    },
    {
      "inputs": [
        {
          "internalType": "address",
          "name": "newOwner",
          "type": "address"
        }
      ],
      "name": "transferOwnership",
      "outputs": [],
      "stateMutability": "nonpayable",
      "type": "function"
    },
    {
      "inputs": [
        {
          "internalType": "uint256[]",
          "name": "inputs",
          "type": "uint256[]"
        },
        {
          "internalType": "uint256[]",
          "name": "outputs",
          "type": "uint256[]"
        },
        {
          "components": [
            {
              "internalType": "uint256[2]",
              "name": "pA",
              "type": "uint256[2]"
            },
            {
              "internalType": "uint256[2][2]",
              "name": "pB",
              "type": "uint256[2][2]"
            },
            {
              "internalType": "uint256[2]",
              "name": "pC",
              "type": "uint256[2]"
            }
          ],
          "internalType": "struct Commonlib.Proof",
          "name": "proof",
          "type": "tuple"
        },
        {
          "internalType": "bytes",
          "name": "data",
          "type": "bytes"
        }
      ],
      "name": "unlock",
      "outputs": [],
      "stateMutability": "nonpayable",
      "type": "function"
    },
    {
      "inputs": [
        {
          "internalType": "address",
          "name": "newImplementation",
          "type": "address"
        },
        {
          "internalType": "bytes",
          "name": "data",
          "type": "bytes"
        }
      ],
      "name": "upgradeToAndCall",
      "outputs": [],
      "stateMutability": "payable",
      "type": "function"
    },
    {
      "inputs": [
        {
          "internalType": "uint256[]",
          "name": "inputs",
          "type": "uint256[]"
        },
        {
          "internalType": "uint256[]",
          "name": "outputs",
          "type": "uint256[]"
        },
        {
          "components": [
            {
              "internalType": "uint256[2]",
              "name": "pA",
              "type": "uint256[2]"
            },
            {
              "internalType": "uint256[2][2]",
              "name": "pB",
              "type": "uint256[2][2]"
            },
            {
              "internalType": "uint256[2]",
              "name": "pC",
              "type": "uint256[2]"
            }
          ],
          "internalType": "struct Commonlib.Proof",
          "name": "proof",
          "type": "tuple"
        }
      ],
      "name": "verifyProof",
      "outputs": [
        {
          "internalType": "bool",
          "name": "",
          "type": "bool"
        }
      ],
      "stateMutability": "view",
      "type": "function"
    },
    {
      "inputs": [
        {
          "internalType": "uint256",
          "name": "amount",
          "type": "uint256"
        },
        {
          "internalType": "uint256[]",
          "name": "inputs",
          "type": "uint256[]"
        },
        {
          "internalType": "uint256",
          "name": "output",
          "type": "uint256"
        },
        {
          "components": [
            {
              "internalType": "uint256[2]",
              "name": "pA",
              "type": "uint256[2]"
            },
            {
              "internalType": "uint256[2][2]",
              "name": "pB",
              "type": "uint256[2][2]"
            },
            {
              "internalType": "uint256[2]",
              "name": "pC",
              "type": "uint256[2]"
            }
          ],
          "internalType": "struct Commonlib.Proof",
          "name": "proof",
          "type": "tuple"
        },
        {
          "internalType": "bytes",
          "name": "data",
          "type": "bytes"
        }
      ],
      "name": "withdraw",
      "outputs": [],
      "stateMutability": "nonpayable",
      "type": "function"
    }
  ],
  "bytecode": "0x60a060405230608052348015601357600080fd5b50608051613b0261003d60003960008181611c8401528181611cad0152611e2b0152613b026000f3fe6080604052600436106101ac5760003560e01c80638da5cb5b116100ec578063cd523c731161008a578063da805f1111610064578063da805f1114610506578063f2fde38b14610526578063f586acdb14610546578063fb85d41c1461056657600080fd5b8063cd523c73146104a6578063d46e446a146104c6578063d5b5cc23146104e657600080fd5b8063a4ef9ad1116100c6578063a4ef9ad1146103de578063ad3cb1cc146103fe578063b45a3c0e14610447578063c29a6fda1461048657600080fd5b80638da5cb5b1461036257806395d89b41146103a95780639fcc50af146103be57600080fd5b8063313ce567116101595780634f1ef286116101335780634f1ef286146102f757806352d1902d1461030a578063715018a61461032d5780638bb2513b1461034257600080fd5b8063313ce5671461029b5780633e96e273146102b75780634ad89929146102d757600080fd5b80630b1a03581161018a5780630b1a03581461022e578063165252211461024e57806324ce729e1461026e57600080fd5b80630107eb4a146101b157806306fdde03146101d35780630a978c84146101fe575b600080fd5b3480156101bd57600080fd5b506101d16101cc366004612dd7565b610586565b005b3480156101df57600080fd5b506101e86105c6565b6040516101f59190612e46565b60405180910390f35b34801561020a57600080fd5b5061021e610219366004612fa5565b610658565b60405190151581526020016101f5565b34801561023a57600080fd5b5061021e610249366004613054565b6106ed565b34801561025a57600080fd5b506101d16102693660046130df565b610974565b34801561027a57600080fd5b5061028e6102893660046131cb565b610aab565b6040516101f5919061323c565b3480156102a757600080fd5b50604051600a81526020016101f5565b3480156102c357600080fd5b5061021e6102d2366004612fa5565b610b19565b3480156102e357600080fd5b506101d16102f236600461324f565b610b40565b6101d161030536600461330e565b610ebb565b34801561031657600080fd5b5061031f610eda565b6040519081526020016101f5565b34801561033957600080fd5b506101d1610f09565b34801561034e57600080fd5b506101d161035d366004613372565b610f1d565b34801561036e57600080fd5b507f9016d09d72d40fdae2fd8ceac6b6234c7706214fd39c1cd1e609a0528c199300546040516001600160a01b0390911681526020016101f5565b3480156103b557600080fd5b506101e8610f35565b3480156103ca57600080fd5b506101d16103d93660046133e0565b610f44565b3480156103ea57600080fd5b506101d16103f93660046133fd565b610f6e565b34801561040a57600080fd5b506101e86040518060400160405280600581526020017f352e302e3000000000000000000000000000000000000000000000000000000081525081565b34801561045357600080fd5b5061046761046236600461347b565b6110e4565b6040805192151583526001600160a01b039091166020830152016101f5565b34801561049257600080fd5b506101d16104a13660046133e0565b61113e565b3480156104b257600080fd5b506101d16104c1366004613494565b611168565b3480156104d257600080fd5b506101d16104e1366004612fa5565b611185565b3480156104f257600080fd5b5061021e61050136600461347b565b61119a565b34801561051257600080fd5b506101d16105213660046134cb565b6111f2565b34801561053257600080fd5b506101d16105413660046133e0565b61138c565b34801561055257600080fd5b506101d161056136600461351f565b6113e3565b34801561057257600080fd5b506101d16105813660046135b7565b61150d565b61058e611607565b61059783610f44565b600780546001600160a01b039384166001600160a01b0319918216179091556008805492909316911617905550565b6060600080546105d59061364d565b80601f01602080910402602001604051908101604052809291908181526020018280546106019061364d565b801561064e5780601f106106235761010080835404028352916020019161064e565b820191906000526020600020905b81548152906001019060200180831161063157829003601f168201915b5050505050905090565b600061066386610aab565b955061066e85610aab565b9450606061067f878783600161166e565b5061068b8787876106ed565b506106998787836000611786565b336001600160a01b03167fcb56a7130431b68e0e636f24584d40580490c1bf882bef3701f317d47ba98c38888887876040516106d894939291906136aa565b60405180910390a25060019695505050505050565b6000600284511180610700575060028351115b15610850576000610713858560146117a2565b905061071d612d48565b60005b60148110156107625782818151811061073b5761073b6136ef565b6020026020010151828260148110610755576107556136ef565b6020020152600101610720565b50600a54604080517fe56ac42f0000000000000000000000000000000000000000000000000000000081526001600160a01b039092169163e56ac42f916107b791889182019060c0830190879060040161372a565b602060405180830381865afa1580156107d4573d6000803e3d6000fd5b505050506040513d601f19601f820116820180604052508101906107f8919061377d565b6108495760405162461bcd60e51b815260206004820152601560248201527f496e76616c69642070726f6f662028626174636829000000000000000000000060448201526064015b60405180910390fd5b5050610969565b600061085e858560046117a2565b9050610868612d67565b60005b60048110156108ad57828181518110610886576108866136ef565b60200260200101518282600481106108a0576108a06136ef565b602002015260010161086b565b5060095460408051635fe8c13b60e01b81526001600160a01b0390921691635fe8c13b916108e991889182019060c0830190879060040161379f565b602060405180830381865afa158015610906573d6000803e3d6000fd5b505050506040513d601f19601f8201168201806040525081019061092a919061377d565b6109665760405162461bcd60e51b815260206004820152600d60248201526c24b73b30b634b210383937b7b360991b6044820152606401610840565b50505b5060015b9392505050565b610981878787600061166e565b5060008551875161099291906137fc565b67ffffffffffffffff8111156109aa576109aa612e79565b6040519080825280602002602001820160405280156109d3578160200160208202803683370190505b50905060005b8751811015610a21578781815181106109f4576109f46136ef565b6020026020010151828281518110610a0e57610a0e6136ef565b60209081029190910101526001016109d9565b5060005b8651811015610a7957868181518110610a4057610a406136ef565b602002602001015182828a51610a5691906137fc565b81518110610a6657610a666136ef565b6020908102919091010152600101610a25565b50610a858882876106ed565b50610a938888886000611786565b610aa18888888787876118a2565b5050505050505050565b8051606090600a811115610aee576040517f9ebbc98e000000000000000000000000000000000000000000000000000000008152600a6004820152602401610840565b60006002821115610b015750600a610b05565b5060025b610b1184826000611a9d565b949350505050565b6000610b2486610aab565b9550610b2f85610aab565b9450606061067f878783600061166e565b600283511115610cc057600c83511115610b89576040517f71798fb5000000000000000000000000000000000000000000000000000000008152600c6004820152602401610840565b6000610b98858585600c611b7b565b9050610ba2612d85565b60005b600c811015610be757828181518110610bc057610bc06136ef565b60200260200101518282600c8110610bda57610bda6136ef565b6020020152600101610ba5565b50600854604080517f8cbac0fa0000000000000000000000000000000000000000000000000000000081526001600160a01b0390921691638cbac0fa91610c3c91879182019060c0830190879060040161380f565b602060405180830381865afa158015610c59573d6000803e3d6000fd5b505050506040513d601f19601f82011682018060405250810190610c7d919061377d565b610cb95760405162461bcd60e51b815260206004820152600d60248201526c24b73b30b634b210383937b7b360991b6044820152606401610840565b5050610dda565b6000610ccf8585856004611b7b565b9050610cd9612d67565b60005b6004811015610d1e57828181518110610cf757610cf76136ef565b6020026020010151828260048110610d1157610d116136ef565b6020020152600101610cdc565b5060075460408051635fe8c13b60e01b81526001600160a01b0390921691635fe8c13b91610d5a91879182019060c0830190879060040161379f565b602060405180830381865afa158015610d77573d6000803e3d6000fd5b505050506040513d601f19601f82011682018060405250810190610d9b919061377d565b610dd75760405162461bcd60e51b815260206004820152600d60248201526c24b73b30b634b210383937b7b360991b6044820152606401610840565b50505b6006546040517fa9059cbb000000000000000000000000000000000000000000000000000000008152336004820152602481018690526001600160a01b039091169063a9059cbb906044015b6020604051808303816000875af1158015610e45573d6000803e3d6000fd5b505050506040513d601f19601f82011682018060405250810190610e69919061377d565b610eb55760405162461bcd60e51b815260206004820152601f60248201527f4661696c656420746f207472616e7366657220455243323020746f6b656e73006044820152606401610840565b50505050565b610ec3611c79565b610ecc82611d30565b610ed68282611d38565b5050565b6000610ee4611e20565b507f360894a13ba1a3210667c828492db98dca3e2076cc3735a920a3ca505d382bbc90565b610f11611e69565b610f1b6000611edd565b565b610f25611e69565b610f30838383611f4e565b505050565b6060600180546105d59061364d565b610f4c611607565b600580546001600160a01b0319166001600160a01b0392909216919091179055565b60005b845181101561108e57848181518110610f8c57610f8c6136ef565b60200260200101516000031561108657336001600160a01b031660046000878481518110610fbc57610fbc6136ef565b6020908102919091018101518252810191909152604001600020546001600160a01b03161461103457848181518110610ff757610ff76136ef565b6020908102919091010151604051639fec262f60e01b815260048101919091526001600160a01b0385166024820152336044820152606401610840565b836004600087848151811061104b5761104b6136ef565b6020026020010151815260200190815260200160002060006101000a8154816001600160a01b0302191690836001600160a01b031602179055505b600101610f71565b50826001600160a01b0316336001600160a01b03167fb81fc4239cf1f8a9964a337bb7866ffeb712f9e482d9cef0f5fac9fe3bd655b28685856040516110d693929190613856565b60405180910390a350505050565b600080600160008481526003602052604090205460ff16600281111561110c5761110c61387c565b036111335750506000908152600460205260409020546001916001600160a01b0390911690565b506000928392509050565b611146611e69565b600680546001600160a01b0319166001600160a01b0392909216919091179055565b6111738585856111f2565b61117e848383611f4e565b5050505050565b6111928585858585610658565b505050505050565b600081815260026020819052604082205460ff16818111156111be576111be61387c565b14806111ec5750600260008381526003602052604090205460ff1660028111156111ea576111ea61387c565b145b92915050565b6111fa612da4565b83815282518390600090611210576112106136ef565b60200260200101518160016003811061122b5761122b6136ef565b6020020152825183906001908110611245576112456136ef565b602002602001015181600260038110611260576112606136ef565b6020020152600554604080517f11479fea0000000000000000000000000000000000000000000000000000000081526001600160a01b03909216916311479fea916112b991869182019060c08301908790600401613892565b602060405180830381865afa1580156112d6573d6000803e3d6000fd5b505050506040513d601f19601f820116820180604052508101906112fa919061377d565b6113365760405162461bcd60e51b815260206004820152600d60248201526c24b73b30b634b210383937b7b360991b6044820152606401610840565b6006546040517f23b872dd000000000000000000000000000000000000000000000000000000008152336004820152306024820152604481018690526001600160a01b03909116906323b872dd90606401610e26565b611394611e69565b6001600160a01b0381166113d7576040517f1e4fbdf700000000000000000000000000000000000000000000000000000000815260006004820152602401610840565b6113e081611edd565b50565b7ff0c57e16840df040f15088dc2f81fe391c3923bec73e23a9662efc9c229c6a00805468010000000000000000810460ff16159067ffffffffffffffff1660008115801561142e5750825b905060008267ffffffffffffffff16600114801561144b5750303b155b905081158015611459575080155b156114775760405163f92ee8a960e01b815260040160405180910390fd5b845467ffffffffffffffff1916600117855583156114ab57845468ff00000000000000001916680100000000000000001785555b6114b789898989611faa565b831561150257845468ff000000000000000019168555604051600181527fc7f505b2f371ae2175ee4913f4499e1f2633a7b5936321eed1cdaeb6115181d29060200160405180910390a15b505050505050505050565b6000855167ffffffffffffffff81111561152957611529612e79565b604051908082528060200260200182016040528015611552578160200160208202803683370190505b5090508481600081518110611569576115696136ef565b60200260200101818152505061157e86610aab565b955061158981610aab565b9050606061159a878383600061166e565b506115a788888888610b40565b6115b48783836000611786565b336001600160a01b03167f7d8a8f009bcd9cd0dc27e36fe37cc7cfe2bbd1469c0970d31046d3c12ec7f48c89898988886040516115f59594939291906138d9565b60405180910390a25050505050505050565b7ff0c57e16840df040f15088dc2f81fe391c3923bec73e23a9662efc9c229c6a005468010000000000000000900460ff16610f1b576040517fd7e6bcf800000000000000000000000000000000000000000000000000000000815260040160405180910390fd5b6000808351855161167f91906137fc565b67ffffffffffffffff81111561169757611697612e79565b6040519080825280602002602001820160405280156116c0578160200160208202803683370190505b50905060005b855181101561170e578581815181106116e1576116e16136ef565b60200260200101518282815181106116fb576116fb6136ef565b60209081029190910101526001016116c6565b5060005b84518110156117665784818151811061172d5761172d6136ef565b60200260200101518282885161174391906137fc565b81518110611753576117536136ef565b6020908102919091010152600101611712565b50611771868461207e565b61177a816124af565b50600195945050505050565b6117908482612701565b6117998361279d565b610eb582612827565b60608167ffffffffffffffff8111156117bd576117bd612e79565b6040519080825280602002602001820160405280156117e6578160200160208202803683370190505b5090506000805b855181101561184157858181518110611808576118086136ef565b602002602001015183838061181c90613917565b94508151811061182e5761182e6136ef565b60209081029190910101526001016117ed565b5060005b845181101561189957848181518110611860576118606136ef565b602002602001015183838061187490613917565b945081518110611886576118866136ef565b6020908102919091010152600101611845565b50509392505050565b60005b8451811015611a41578481815181106118c0576118c06136ef565b602002602001015160000315611a395760006001600160a01b0316600460008784815181106118f1576118f16136ef565b6020908102919091018101518252810191909152604001600020546001600160a01b0316148015906119655750336001600160a01b03166004600087848151811061193e5761193e6136ef565b6020908102919091018101518252810191909152604001600020546001600160a01b031614155b156119e75784818151811061197c5761197c6136ef565b60200260200101516004600087848151811061199a5761199a6136ef565b60209081029190910181015182528101919091526040908101600020549051639fec262f60e01b815260048101929092526001600160a01b03166024820152336044820152606401610840565b83600460008784815181106119fe576119fe6136ef565b6020026020010151815260200190815260200160002060006101000a8154816001600160a01b0302191690836001600160a01b031602179055505b6001016118a5565b50336001600160a01b0316836001600160a01b03167f2478e2370a2c14a2eb7579b8a4a140dc020d4d75daf0016542656bee955395f38888888787604051611a8d959493929190613930565b60405180910390a3505050505050565b606082845103611aae57508261096d565b60008367ffffffffffffffff811115611ac957611ac9612e79565b604051908082528060200260200182016040528015611af2578160200160208202803683370190505b50905060005b8551811015611b4057858181518110611b1357611b136136ef565b6020026020010151828281518110611b2d57611b2d6136ef565b6020908102919091010152600101611af8565b5084515b84811015611b725783828281518110611b5f57611b5f6136ef565b6020908102919091010152600101611b44565b50949350505050565b60608167ffffffffffffffff811115611b9657611b96612e79565b604051908082528060200260200182016040528015611bbf578160200160208202803683370190505b5090506000858282611bd081613917565b935081518110611be257611be26136ef565b60200260200101818152505060005b8551811015611c4557858181518110611c0c57611c0c6136ef565b6020026020010151838380611c2090613917565b945081518110611c3257611c326136ef565b6020908102919091010152600101611bf1565b50838282611c5281613917565b935081518110611c6457611c646136ef565b60200260200101818152505050949350505050565b306001600160a01b037f0000000000000000000000000000000000000000000000000000000000000000161480611d1257507f00000000000000000000000000000000000000000000000000000000000000006001600160a01b0316611d067f360894a13ba1a3210667c828492db98dca3e2076cc3735a920a3ca505d382bbc546001600160a01b031690565b6001600160a01b031614155b15610f1b5760405163703e46dd60e11b815260040160405180910390fd5b6113e0611e69565b816001600160a01b03166352d1902d6040518163ffffffff1660e01b8152600401602060405180830381865afa925050508015611d92575060408051601f3d908101601f19168201909252611d8f9181019061397e565b60015b611dba57604051634c9c8ce360e01b81526001600160a01b0383166004820152602401610840565b7f360894a13ba1a3210667c828492db98dca3e2076cc3735a920a3ca505d382bbc8114611e16576040517faa1d49a400000000000000000000000000000000000000000000000000000000815260048101829052602401610840565b610f3083836128b1565b306001600160a01b037f00000000000000000000000000000000000000000000000000000000000000001614610f1b5760405163703e46dd60e11b815260040160405180910390fd5b33611e9b7f9016d09d72d40fdae2fd8ceac6b6234c7706214fd39c1cd1e609a0528c199300546001600160a01b031690565b6001600160a01b031614610f1b576040517f118cdaa7000000000000000000000000000000000000000000000000000000008152336004820152602401610840565b7f9016d09d72d40fdae2fd8ceac6b6234c7706214fd39c1cd1e609a0528c19930080546001600160a01b031981166001600160a01b03848116918217845560405192169182907f8be0079c531659141344cd1fd0a4f28419497f9722a3daafe3b4186f6b6457e090600090a3505050565b611f57836124af565b611f608361279d565b336001600160a01b03167f7ff08e0ca1fce6b202b83128811e4f6ceda54930aa074cd365bf68f95c20ce19848484604051611f9d93929190613856565b60405180910390a2505050565b7ff0c57e16840df040f15088dc2f81fe391c3923bec73e23a9662efc9c229c6a00805468010000000000000000810460ff16159067ffffffffffffffff16600081158015611ff55750825b905060008267ffffffffffffffff1660011480156120125750303b155b905081158015612020575080155b1561203e5760405163f92ee8a960e01b815260040160405180910390fd5b845467ffffffffffffffff19166001178555831561207257845468ff00000000000000001916680100000000000000001785555b6114b789898989612907565b6000612089836129b0565b905060005b8151811015610eb5578181815181106120a9576120a96136ef565b6020026020010151600003156124a7576000811180156121045750816120d0600183613997565b815181106120e0576120e06136ef565b60200260200101518282815181106120fa576120fa6136ef565b6020026020010151145b156121585781818151811061211b5761211b6136ef565b60200260200101516040517fdd57483100000000000000000000000000000000000000000000000000000000815260040161084091815260200190565b600060036000848481518110612170576121706136ef565b60209081029190910181015182528101919091526040016000205460ff16600281111561219f5761219f61387c565b1480156121f057506000600260008484815181106121bf576121bf6136ef565b60209081029190910181015182528101919091526040016000205460ff1660028111156121ee576121ee61387c565b145b1561224457818181518110612207576122076136ef565b60200260200101516040517f8392512700000000000000000000000000000000000000000000000000000000815260040161084091815260200190565b60026003600084848151811061225c5761225c6136ef565b60209081029190910181015182528101919091526040016000205460ff16600281111561228b5761228b61387c565b14806122da575060028060008484815181106122a9576122a96136ef565b60209081029190910181015182528101919091526040016000205460ff1660028111156122d8576122d861387c565b145b1561232e578181815181106122f1576122f16136ef565b60200260200101516040517f41a06d2800000000000000000000000000000000000000000000000000000000815260040161084091815260200190565b82158015612380575060016003600084848151811061234f5761234f6136ef565b60209081029190910181015182528101919091526040016000205460ff16600281111561237e5761237e61387c565b145b156123d457818181518110612397576123976136ef565b60200260200101516040517fd60f4acc00000000000000000000000000000000000000000000000000000000815260040161084091815260200190565b8280156124235750336001600160a01b0316600460008484815181106123fc576123fc6136ef565b6020908102919091018101518252810191909152604001600020546001600160a01b031614155b8015612472575060006001600160a01b03166004600084848151811061244b5761244b6136ef565b6020908102919091018101518252810191909152604001600020546001600160a01b031614155b156124a757818181518110612489576124896136ef565b60200260200101516004600084848151811061199a5761199a6136ef565b60010161208e565b60006124ba826129b0565b905060005b8151811015612554578181815181106124da576124da6136ef565b60200260200101516000031561254c57600081118015612535575081612501600183613997565b81518110612511576125116136ef565b602002602001015182828151811061252b5761252b6136ef565b6020026020010151145b1561254c5781818151811061211b5761211b6136ef565b6001016124bf565b5060005b8251811015610f30576002806000858481518110612578576125786136ef565b60209081029190910181015182528101919091526040016000205460ff1660028111156125a7576125a761387c565b14806125f757506002600360008584815181106125c6576125c66136ef565b60209081029190910181015182528101919091526040016000205460ff1660028111156125f5576125f561387c565b145b1561260e578281815181106122f1576122f16136ef565b600160026000858481518110612626576126266136ef565b60209081029190910181015182528101919091526040016000205460ff1660028111156126555761265561387c565b14806126a55750600160036000858481518110612674576126746136ef565b60209081029190910181015182528101919091526040016000205460ff1660028111156126a3576126a361387c565b145b156126f9578281815181106126bc576126bc6136ef565b60200260200101516040517f79e1da4700000000000000000000000000000000000000000000000000000000815260040161084091815260200190565b600101612558565b60008161270f576002612712565b60035b905060005b8351811015610eb557838181518110612732576127326136ef565b6020026020010151600014612795576002826000868481518110612758576127586136ef565b6020026020010151815260200190815260200160002060006101000a81548160ff0219169083600281111561278f5761278f61387c565b02179055505b600101612717565b60005b8151811015610ed6578181815181106127bb576127bb6136ef565b602002602001015160001461281f576001600260008484815181106127e2576127e26136ef565b6020026020010151815260200190815260200160002060006101000a81548160ff021916908360028111156128195761281961387c565b02179055505b6001016127a0565b60005b8151811015610ed657818181518110612845576128456136ef565b60200260200101516000146128a95760016003600084848151811061286c5761286c6136ef565b6020026020010151815260200190815260200160002060006101000a81548160ff021916908360028111156128a3576128a361387c565b02179055505b60010161282a565b6128ba82612a4f565b6040516001600160a01b038316907fbc7cd75a20ee27fd9adebab32041f755214dbc6bffa90cc0225b39da2e5c2d3b90600090a28051156128ff57610f308282612ac6565b610ed6612b3c565b61290f611607565b61291a848484612b74565b61294d61292d60408301602084016133e0565b61293d60608401604085016133e0565b6101cc60e0850160c086016133e0565b61295a60208201826133e0565b600980546001600160a01b0319166001600160a01b039290921691909117905561298a60c0820160a083016133e0565b600a80546001600160a01b0319166001600160a01b039290921691909117905550505050565b60606000825167ffffffffffffffff8111156129ce576129ce612e79565b6040519080825280602002602001820160405280156129f7578160200160208202803683370190505b50905060005b8351811015612a4557838181518110612a1857612a186136ef565b6020026020010151828281518110612a3257612a326136ef565b60209081029190910101526001016129fd565b5061096d81612b87565b806001600160a01b03163b600003612a8557604051634c9c8ce360e01b81526001600160a01b0382166004820152602401610840565b7f360894a13ba1a3210667c828492db98dca3e2076cc3735a920a3ca505d382bbc80546001600160a01b0319166001600160a01b0392909216919091179055565b6060600080846001600160a01b031684604051612ae391906139aa565b600060405180830381855af49150503d8060008114612b1e576040519150601f19603f3d011682016040523d82523d6000602084013e612b23565b606091505b5091509150612b33858383612b9c565b95945050505050565b3415610f1b576040517fb398979f00000000000000000000000000000000000000000000000000000000815260040160405180910390fd5b612b7c611607565b610f30838383612c11565b6060612b9582612c3b612c3f565b5090919050565b606082612bb157612bac82612c57565b61096d565b8151158015612bc857506001600160a01b0384163b155b15612c0a576040517f9996b3150000000000000000000000000000000000000000000000000000000081526001600160a01b0385166004820152602401610840565b508061096d565b612c19611607565b612c2281612c99565b6000612c2e8482613a0d565b506001610eb58382613a0d565b1190565b6060612b9560208401612c5185612caa565b84612cc2565b805115612c675780518082602001fd5b6040517fd6bda27500000000000000000000000000000000000000000000000000000000815260040160405180910390fd5b612ca1611607565b6113e081612d40565b60008151602002612cbb8360200190565b0192915050565b60408383031015612cd257505050565b6000612cdc845190565b905083602081015b84811015612d1e57612d01612cf7825190565b848663ffffffff16565b15612d16576020919091018051825182528252905b602001612ce4565b508451815186528152612d32858285612cc2565b61117e816020018585612cc2565b611394611607565b6040518061028001604052806014906020820280368337509192915050565b60405180608001604052806004906020820280368337509192915050565b604051806101800160405280600c906020820280368337509192915050565b60405180606001604052806003906020820280368337509192915050565b6001600160a01b03811681146113e057600080fd5b600080600060608486031215612dec57600080fd5b8335612df781612dc2565b92506020840135612e0781612dc2565b91506040840135612e1781612dc2565b809150509250925092565b60005b83811015612e3d578181015183820152602001612e25565b50506000910152565b6020815260008251806020840152612e65816040850160208701612e22565b601f01601f19169190910160400192915050565b634e487b7160e01b600052604160045260246000fd5b604051601f8201601f1916810167ffffffffffffffff81118282101715612eb857612eb8612e79565b604052919050565b600082601f830112612ed157600080fd5b813567ffffffffffffffff811115612eeb57612eeb612e79565b8060051b612efb60208201612e8f565b91825260208185018101929081019086841115612f1757600080fd5b6020860192505b83831015612f39578235825260209283019290910190612f1e565b9695505050505050565b60006101008284031215612f5657600080fd5b50919050565b60008083601f840112612f6e57600080fd5b50813567ffffffffffffffff811115612f8657600080fd5b602083019150836020828501011115612f9e57600080fd5b9250929050565b60008060008060006101608688031215612fbe57600080fd5b853567ffffffffffffffff811115612fd557600080fd5b612fe188828901612ec0565b955050602086013567ffffffffffffffff811115612ffe57600080fd5b61300a88828901612ec0565b94505061301a8760408801612f43565b925061014086013567ffffffffffffffff81111561303757600080fd5b61304388828901612f5c565b969995985093965092949392505050565b6000806000610140848603121561306a57600080fd5b833567ffffffffffffffff81111561308157600080fd5b61308d86828701612ec0565b935050602084013567ffffffffffffffff8111156130aa57600080fd5b6130b686828701612ec0565b9250506130c68560408601612f43565b90509250925092565b80356130da81612dc2565b919050565b60008060008060008060006101a0888a0312156130fb57600080fd5b873567ffffffffffffffff81111561311257600080fd5b61311e8a828b01612ec0565b975050602088013567ffffffffffffffff81111561313b57600080fd5b6131478a828b01612ec0565b965050604088013567ffffffffffffffff81111561316457600080fd5b6131708a828b01612ec0565b9550506131808960608a01612f43565b935061318f61016089016130cf565b925061018088013567ffffffffffffffff8111156131ac57600080fd5b6131b88a828b01612f5c565b989b979a50959850939692959293505050565b6000602082840312156131dd57600080fd5b813567ffffffffffffffff8111156131f457600080fd5b610b1184828501612ec0565b600081518084526020840193506020830160005b82811015613232578151865260209586019590910190600101613214565b5093949350505050565b60208152600061096d6020830184613200565b600080600080610160858703121561326657600080fd5b84359350602085013567ffffffffffffffff81111561328457600080fd5b61329087828801612ec0565b935050604085013591506132a78660608701612f43565b905092959194509250565b60008067ffffffffffffffff8411156132cd576132cd612e79565b50601f8301601f19166020016132e281612e8f565b9150508281528383830111156132f757600080fd5b828260208301376000602084830101529392505050565b6000806040838503121561332157600080fd5b823561332c81612dc2565b9150602083013567ffffffffffffffff81111561334857600080fd5b8301601f8101851361335957600080fd5b613368858235602084016132b2565b9150509250929050565b60008060006040848603121561338757600080fd5b833567ffffffffffffffff81111561339e57600080fd5b6133aa86828701612ec0565b935050602084013567ffffffffffffffff8111156133c757600080fd5b6133d386828701612f5c565b9497909650939450505050565b6000602082840312156133f257600080fd5b813561096d81612dc2565b6000806000806060858703121561341357600080fd5b843567ffffffffffffffff81111561342a57600080fd5b61343687828801612ec0565b945050602085013561344781612dc2565b9250604085013567ffffffffffffffff81111561346357600080fd5b61346f87828801612f5c565b95989497509550505050565b60006020828403121561348d57600080fd5b5035919050565b600080600080600061016086880312156134ad57600080fd5b85359450602086013567ffffffffffffffff811115612ffe57600080fd5b600080600061014084860312156134e157600080fd5b83359250602084013567ffffffffffffffff8111156130aa57600080fd5b600082601f83011261351057600080fd5b61096d838335602085016132b2565b60008060008084860361018081121561353757600080fd5b853567ffffffffffffffff81111561354e57600080fd5b61355a888289016134ff565b955050602086013567ffffffffffffffff81111561357757600080fd5b613583888289016134ff565b945050604086013561359481612dc2565b9250610120605f19820112156135a957600080fd5b509295919450926060019150565b60008060008060008061018087890312156135d157600080fd5b86359550602087013567ffffffffffffffff8111156135ef57600080fd5b6135fb89828a01612ec0565b955050604087013593506136128860608901612f43565b925061016087013567ffffffffffffffff81111561362f57600080fd5b61363b89828a01612f5c565b979a9699509497509295939492505050565b600181811c9082168061366157607f821691505b602082108103612f5657634e487b7160e01b600052602260045260246000fd5b81835281816020850137506000828201602090810191909152601f909101601f19169091010190565b6060815260006136bd6060830187613200565b82810360208401526136cf8187613200565b905082810360408401526136e4818587613681565b979650505050505050565b634e487b7160e01b600052603260045260246000fd5b8060005b6002811015610eb55760408285376040938401939190910190600101613709565b610380810160408683376137416040830186613705565b60408460c084013761010082018360005b6014811015613771578151835260209283019290910190600101613752565b50505095945050505050565b60006020828403121561378f57600080fd5b8151801515811461096d57600080fd5b610180810160408683376137b66040830186613705565b60408460c084013761010082018360005b60048110156137715781518352602092830192909101906001016137c7565b634e487b7160e01b600052601160045260246000fd5b808201808211156111ec576111ec6137e6565b610280810160408683376138266040830186613705565b60408460c084013761010082018360005b600c811015613771578151835260209283019290910190600101613837565b6040815260006138696040830186613200565b8281036020840152612f39818587613681565b634e487b7160e01b600052602160045260246000fd5b610160810160408683376138a96040830186613705565b60408460c084013761010082018360005b60038110156137715781518352602092830192909101906001016138ba565b8581526080602082015260006138f26080830187613200565b856040840152828103606084015261390b818587613681565b98975050505050505050565b600060018201613929576139296137e6565b5060010190565b6080815260006139436080830188613200565b82810360208401526139558188613200565b905082810360408401526139698187613200565b9050828103606084015261390b818587613681565b60006020828403121561399057600080fd5b5051919050565b818103818111156111ec576111ec6137e6565b600082516139bc818460208701612e22565b9190910192915050565b601f821115610f3057806000526020600020601f840160051c810160208510156139ed5750805b601f840160051c820191505b8181101561117e57600081556001016139f9565b815167ffffffffffffffff811115613a2757613a27612e79565b613a3b81613a35845461364d565b846139c6565b6020601f821160018114613a6f5760008315613a575750848201515b600019600385901b1c1916600184901b17845561117e565b600084815260208120601f198516915b82811015613a9f5787850151825560209485019460019092019101613a7f565b5084821015613abd5786840151600019600387901b60f8161c191681555b50505050600190811b0190555056fea2646970667358221220d080b7a7eccda1b63ce6440aad3661f197f7c2472c4fcd210d5fac061a10ce2a64736f6c634300081b0033",
  "linkReferences": {},
  "deployedLinkReferences": {}
}