{
  "_format": "hh-sol-artifact-1",
  "contractName": "TestSmt",
  "sourceName": "contracts/test/smt.sol",
  "abi": [
    {
      "inputs": [],
      "stateMutability": "nonpayable",
      "type": "constructor"
    },
    {
      "inputs": [
        {
          "internalType": "uint256",
          "name": "key",
          "type": "uint256"
        },
        {
          "internalType": "uint256",
          "name": "value",
          "type": "uint256"
        }
      ],
      "name": "get",
      "outputs": [
        {
          "components": [
            {
              "internalType": "enum SmtLib.NodeType",
              "name": "nodeType",
              "type": "uint8"
            },
            {
              "internalType": "uint256",
              "name": "childLeft",
              "type": "uint256"
            },
            {
              "internalType": "uint256",
              "name": "childRight",
              "type": "uint256"
            },
            {
              "internalType": "uint256",
              "name": "index",
              "type": "uint256"
            },
            {
              "internalType": "uint256",
              "name": "value",
              "type": "uint256"
            }
          ],
          "internalType": "struct SmtLib.Node",
          "name": "",
          "type": "tuple"
        }
      ],
      "stateMutability": "view",
      "type": "function"
    },
    {
      "inputs": [
        {
          "internalType": "uint256",
          "name": "key",
          "type": "uint256"
        }
      ],
      "name": "getProof",
      "outputs": [
        {
          "components": [
            {
              "internalType": "uint256",
              "name": "root",
              "type": "uint256"
            },
            {
              "internalType": "bool",
              "name": "existence",
              "type": "bool"
            },
            {
              "internalType": "uint256[]",
              "name": "siblings",
              "type": "uint256[]"
            },
            {
              "internalType": "uint256",
              "name": "index",
              "type": "uint256"
            },
            {
              "internalType": "uint256",
              "name": "value",
              "type": "uint256"
            },
            {
              "internalType": "bool",
              "name": "auxExistence",
              "type": "bool"
            },
            {
              "internalType": "uint256",
              "name": "auxIndex",
              "type": "uint256"
            },
            {
              "internalType": "uint256",
              "name": "auxValue",
              "type": "uint256"
            }
          ],
          "internalType": "struct SmtLib.Proof",
          "name": "",
          "type": "tuple"
        }
      ],
      "stateMutability": "view",
      "type": "function"
    },
    {
      "inputs": [
        {
          "internalType": "uint256",
          "name": "key",
          "type": "uint256"
        },
        {
          "internalType": "uint256",
          "name": "value",
          "type": "uint256"
        }
      ],
      "name": "insert",
      "outputs": [],
      "stateMutability": "nonpayable",
      "type": "function"
    },
    {
      "inputs": [],
      "name": "root",
      "outputs": [
        {
          "internalType": "uint256",
          "name": "",
          "type": "uint256"
        }
      ],
      "stateMutability": "view",
      "type": "function"
    }
  ],
  "bytecode": "0x6080604052348015600f57600080fd5b50604051639e43b81360e01b815260006004820152600a602482015273__$dc6c4dd02ac6da041aea5ed0aea43c2a22$__90639e43b8139060440160006040518083038186803b158015606157600080fd5b505af41580156074573d6000803e3d6000fd5b50505050610881806100876000396000f3fe608060405234801561001057600080fd5b506004361061004c5760003560e01c806311149ada146100515780631d834a1b1461007a578063669e48aa1461008f578063ebf0c717146100af575b600080fd5b61006461005f36600461046d565b6100c5565b6040516100719190610486565b60405180910390f35b61008d610088366004610537565b6101b3565b005b6100a261009d366004610537565b610241565b6040516100719190610559565b6100b7610322565b604051908152602001610071565b6101116040518061010001604052806000815260200160001515815260200160608152602001600081526020016000815260200160001515815260200160008152602001600081525090565b6040517f5db40cda000000000000000000000000000000000000000000000000000000008152600060048201819052602482018490529073__$dc6c4dd02ac6da041aea5ed0aea43c2a22$__90635db40cda90604401600060405180830381865af4158015610184573d6000803e3d6000fd5b505050506040513d6000823e601f3d908101601f191682016040526101ac91908101906106b9565b9392505050565b6040517fc1d29f0100000000000000000000000000000000000000000000000000000000815260006004820152602481018390526044810182905273__$dc6c4dd02ac6da041aea5ed0aea43c2a22$__9063c1d29f019060640160006040518083038186803b15801561022557600080fd5b505af4158015610239573d6000803e3d6000fd5b505050505050565b6102746040805160a081019091528060008152602001600081526020016000815260200160008152602001600081525090565b600061028084846103b7565b6040517fe170cf6e0000000000000000000000000000000000000000000000000000000081526000600482018190526024820183905291925073__$dc6c4dd02ac6da041aea5ed0aea43c2a22$__9063e170cf6e9060440160a060405180830381865af41580156102f5573d6000803e3d6000fd5b505050506040513d601f19601f820116820180604052508101906103199190610781565b95945050505050565b6040517f79f971250000000000000000000000000000000000000000000000000000000081526000600482018190529073__$dc6c4dd02ac6da041aea5ed0aea43c2a22$__906379f9712590602401602060405180830381865af415801561038e573d6000803e3d6000fd5b505050506040513d601f19601f820116820180604052508101906103b29190610801565b905090565b604080516060810182528381526020810183905260018183015290517f25cc70e80000000000000000000000000000000000000000000000000000000081526000919073__$03320550cd1b629da90608251571b2532e$__906325cc70e89061042490849060040161081a565b602060405180830381865af4158015610441573d6000803e3d6000fd5b505050506040513d601f19601f820116820180604052508101906104659190610801565b949350505050565b60006020828403121561047f57600080fd5b5035919050565b6020815260006101208201835160208401526020840151151560408401526040840151610100606085015281815180845261014086019150602083019350600092505b808310156104ec57835182526020820191506020840193506001830192506104c9565b5060608601516080860152608086015160a086015260a0860151925061051660c086018415159052565b60c086015160e086015260e086015161010086015280935050505092915050565b6000806040838503121561054a57600080fd5b50508035926020909101359150565b815160a08201906003811061057e57634e487b7160e01b600052602160045260246000fd5b808352506020830151602083015260408301516040830152606083015160608301526080830151608083015292915050565b634e487b7160e01b600052604160045260246000fd5b604051610100810167ffffffffffffffff811182821017156105ea576105ea6105b0565b60405290565b604051601f8201601f1916810167ffffffffffffffff81118282101715610619576106196105b0565b604052919050565b8051801515811461063157600080fd5b919050565b600082601f83011261064757600080fd5b815167ffffffffffffffff811115610661576106616105b0565b8060051b610671602082016105f0565b9182526020818501810192908101908684111561068d57600080fd5b6020860192505b838310156106af578251825260209283019290910190610694565b9695505050505050565b6000602082840312156106cb57600080fd5b815167ffffffffffffffff8111156106e257600080fd5b820161010081850312156106f557600080fd5b6106fd6105c6565b8151815261070d60208301610621565b6020820152604082015167ffffffffffffffff81111561072c57600080fd5b61073886828501610636565b604083015250606082810151908201526080808301519082015261075e60a08301610621565b60a082015260c0828101519082015260e091820151918101919091529392505050565b600060a082840312801561079457600080fd5b5060405160009060a0810167ffffffffffffffff811182821017156107bb576107bb6105b0565b6040528351600381106107cc578283fd5b815260208481015190820152604080850151908201526060808501519082015260809384015193810193909352509092915050565b60006020828403121561081357600080fd5b5051919050565b60608101818360005b6003811015610842578151835260209283019290910190600101610823565b5050509291505056fea26469706673582212208ea0d39328b8fd4631e748da293a9830f2a86697193af94c64a4c35fc7e1587f64736f6c634300081b0033",
  "linkReferences": {
    "@iden3/contracts/lib/Poseidon.sol": {
      "PoseidonUnit3L": [
        {
          "length": 20,
          "start": 1155
        }
      ]
    },
    "@iden3/contracts/lib/SmtLib.sol": {
      "SmtLib": [
        {
          "length": 20,
          "start": 45
        },
        {
          "length": 20,
          "start": 465
        },
        {
          "length": 20,
          "start": 631
        },
        {
          "length": 20,
          "start": 834
        },
        {
          "length": 20,
          "start": 987
        }
      ]
    }
  },
  "deployedLinkReferences": {
    "@iden3/contracts/lib/Poseidon.sol": {
      "PoseidonUnit3L": [
        {
          "length": 20,
          "start": 1020
        }
      ]
    },
    "@iden3/contracts/lib/SmtLib.sol": {
      "SmtLib": [
        {
          "length": 20,
          "start": 330
        },
        {
          "length": 20,
          "start": 496
        },
        {
          "length": 20,
          "start": 699
        },
        {
          "length": 20,
          "start": 852
        }
      ]
    }
  }
}