{
  "_format": "hh-sol-artifact-1",
  "contractName": "Zeto_AnonEncNullifierNonRepudiation",
  "sourceName": "contracts/zeto_anon_enc_nullifier_non_repudiation.sol",
  "abi": [
    {
      "inputs": [
        {
          "internalType": "address",
          "name": "target",
          "type": "address"
        }
      ],
      "name": "AddressEmptyCode",
      "type": "error"
    },
    {
      "inputs": [
        {
          "internalType": "address",
          "name": "implementation",
          "type": "address"
        }
      ],
      "name": "ERC1967InvalidImplementation",
      "type": "error"
    },
    {
      "inputs": [],
      "name": "ERC1967NonPayable",
      "type": "error"
    },
    {
      "inputs": [],
      "name": "FailedCall",
      "type": "error"
    },
    {
      "inputs": [],
      "name": "InvalidInitialization",
      "type": "error"
    },
    {
      "inputs": [],
      "name": "NotInitializing",
      "type": "error"
    },
    {
      "inputs": [
        {
          "internalType": "uint256",
          "name": "utxo",
          "type": "uint256"
        },
        {
          "internalType": "address",
          "name": "delegate",
          "type": "address"
        },
        {
          "internalType": "address",
          "name": "sender",
          "type": "address"
        }
      ],
      "name": "NotLockDelegate",
      "type": "error"
    },
    {
      "inputs": [
        {
          "internalType": "address",
          "name": "owner",
          "type": "address"
        }
      ],
      "name": "OwnableInvalidOwner",
      "type": "error"
    },
    {
      "inputs": [
        {
          "internalType": "address",
          "name": "account",
          "type": "address"
        }
      ],
      "name": "OwnableUnauthorizedAccount",
      "type": "error"
    },
    {
      "inputs": [
        {
          "internalType": "uint256",
          "name": "utxo",
          "type": "uint256"
        }
      ],
      "name": "UTXOAlreadyLocked",
      "type": "error"
    },
    {
      "inputs": [
        {
          "internalType": "uint256",
          "name": "utxo",
          "type": "uint256"
        }
      ],
      "name": "UTXOAlreadyOwned",
      "type": "error"
    },
    {
      "inputs": [
        {
          "internalType": "uint256",
          "name": "utxo",
          "type": "uint256"
        }
      ],
      "name": "UTXOAlreadySpent",
      "type": "error"
    },
    {
      "inputs": [
        {
          "internalType": "uint256",
          "name": "maxAllowed",
          "type": "uint256"
        }
      ],
      "name": "UTXOArrayTooLarge",
      "type": "error"
    },
    {
      "inputs": [
        {
          "internalType": "uint256",
          "name": "utxo",
          "type": "uint256"
        }
      ],
      "name": "UTXODuplicate",
      "type": "error"
    },
    {
      "inputs": [
        {
          "internalType": "uint256",
          "name": "utxo",
          "type": "uint256"
        }
      ],
      "name": "UTXONotLocked",
      "type": "error"
    },
    {
      "inputs": [
        {
          "internalType": "uint256",
          "name": "utxo",
          "type": "uint256"
        }
      ],
      "name": "UTXONotMinted",
      "type": "error"
    },
    {
      "inputs": [
        {
          "internalType": "uint256",
          "name": "root",
          "type": "uint256"
        }
      ],
      "name": "UTXORootNotFound",
      "type": "error"
    },
    {
      "inputs": [],
      "name": "UUPSUnauthorizedCallContext",
      "type": "error"
    },
    {
      "inputs": [
        {
          "internalType": "bytes32",
          "name": "slot",
          "type": "bytes32"
        }
      ],
      "name": "UUPSUnsupportedProxiableUUID",
      "type": "error"
    },
    {
      "inputs": [
        {
          "internalType": "uint256",
          "name": "maxAllowed",
          "type": "uint256"
        }
      ],
      "name": "WithdrawArrayTooLarge",
      "type": "error"
    },
    {
      "anonymous": false,
      "inputs": [
        {
          "indexed": false,
          "internalType": "uint64",
          "name": "version",
          "type": "uint64"
        }
      ],
      "name": "Initialized",
      "type": "event"
    },
    {
      "anonymous": false,
      "inputs": [
        {
          "indexed": false,
          "internalType": "uint256[]",
          "name": "lockedOutputs",
          "type": "uint256[]"
        },
        {
          "indexed": true,
          "internalType": "address",
          "name": "oldDelegate",
          "type": "address"
        },
        {
          "indexed": true,
          "internalType": "address",
          "name": "newDelegate",
          "type": "address"
        },
        {
          "indexed": false,
          "internalType": "bytes",
          "name": "data",
          "type": "bytes"
        }
      ],
      "name": "LockDelegateChanged",
      "type": "event"
    },
    {
      "anonymous": false,
      "inputs": [
        {
          "indexed": true,
          "internalType": "address",
          "name": "previousOwner",
          "type": "address"
        },
        {
          "indexed": true,
          "internalType": "address",
          "name": "newOwner",
          "type": "address"
        }
      ],
      "name": "OwnershipTransferred",
      "type": "event"
    },
    {
      "anonymous": false,
      "inputs": [
        {
          "indexed": false,
          "internalType": "uint256[]",
          "name": "inputs",
          "type": "uint256[]"
        },
        {
          "indexed": false,
          "internalType": "uint256",
          "name": "output",
          "type": "uint256"
        },
        {
          "indexed": true,
          "internalType": "address",
          "name": "submitter",
          "type": "address"
        },
        {
          "indexed": false,
          "internalType": "bytes",
          "name": "data",
          "type": "bytes"
        }
      ],
      "name": "UTXOBurn",
      "type": "event"
    },
    {
      "anonymous": false,
      "inputs": [
        {
          "indexed": false,
          "internalType": "uint256[]",
          "name": "outputs",
          "type": "uint256[]"
        },
        {
          "indexed": true,
          "internalType": "address",
          "name": "submitter",
          "type": "address"
        },
        {
          "indexed": false,
          "internalType": "bytes",
          "name": "data",
          "type": "bytes"
        }
      ],
      "name": "UTXOMint",
      "type": "event"
    },
    {
      "anonymous": false,
      "inputs": [
        {
          "indexed": false,
          "internalType": "uint256[]",
          "name": "inputs",
          "type": "uint256[]"
        },
        {
          "indexed": false,
          "internalType": "uint256[]",
          "name": "outputs",
          "type": "uint256[]"
        },
        {
          "indexed": true,
          "internalType": "address",
          "name": "submitter",
          "type": "address"
        },
        {
          "indexed": false,
          "internalType": "bytes",
          "name": "data",
          "type": "bytes"
        }
      ],
      "name": "UTXOTransfer",
      "type": "event"
    },
    {
      "anonymous": false,
      "inputs": [
        {
          "indexed": false,
          "internalType": "uint256[]",
          "name": "inputs",
          "type": "uint256[]"
        },
        {
          "indexed": false,
          "internalType": "uint256[]",
          "name": "outputs",
          "type": "uint256[]"
        },
        {
          "indexed": false,
          "internalType": "uint256",
          "name": "encryptionNonce",
          "type": "uint256"
        },
        {
          "indexed": false,
          "internalType": "uint256[2]",
          "name": "ecdhPublicKey",
          "type": "uint256[2]"
        },
        {
          "indexed": false,
          "internalType": "uint256[]",
          "name": "encryptedValuesForReceiver",
          "type": "uint256[]"
        },
        {
          "indexed": false,
          "internalType": "uint256[]",
          "name": "encryptedValuesForAuthority",
          "type": "uint256[]"
        },
        {
          "indexed": true,
          "internalType": "address",
          "name": "submitter",
          "type": "address"
        },
        {
          "indexed": false,
          "internalType": "bytes",
          "name": "data",
          "type": "bytes"
        }
      ],
      "name": "UTXOTransferNonRepudiation",
      "type": "event"
    },
    {
      "anonymous": false,
      "inputs": [
        {
          "indexed": false,
          "internalType": "uint256[]",
          "name": "inputs",
          "type": "uint256[]"
        },
        {
          "indexed": false,
          "internalType": "uint256[]",
          "name": "outputs",
          "type": "uint256[]"
        },
        {
          "indexed": false,
          "internalType": "uint256",
          "name": "encryptionNonce",
          "type": "uint256"
        },
        {
          "indexed": false,
          "internalType": "uint256[2]",
          "name": "ecdhPublicKey",
          "type": "uint256[2]"
        },
        {
          "indexed": false,
          "internalType": "uint256[]",
          "name": "encryptedValues",
          "type": "uint256[]"
        },
        {
          "indexed": true,
          "internalType": "address",
          "name": "submitter",
          "type": "address"
        },
        {
          "indexed": false,
          "internalType": "bytes",
          "name": "data",
          "type": "bytes"
        }
      ],
      "name": "UTXOTransferWithEncryptedValues",
      "type": "event"
    },
    {
      "anonymous": false,
      "inputs": [
        {
          "indexed": false,
          "internalType": "uint256",
          "name": "amount",
          "type": "uint256"
        },
        {
          "indexed": false,
          "internalType": "uint256[]",
          "name": "inputs",
          "type": "uint256[]"
        },
        {
          "indexed": false,
          "internalType": "uint256",
          "name": "output",
          "type": "uint256"
        },
        {
          "indexed": true,
          "internalType": "address",
          "name": "submitter",
          "type": "address"
        },
        {
          "indexed": false,
          "internalType": "bytes",
          "name": "data",
          "type": "bytes"
        }
      ],
      "name": "UTXOWithdraw",
      "type": "event"
    },
    {
      "anonymous": false,
      "inputs": [
        {
          "indexed": false,
          "internalType": "uint256[]",
          "name": "inputs",
          "type": "uint256[]"
        },
        {
          "indexed": false,
          "internalType": "uint256[]",
          "name": "outputs",
          "type": "uint256[]"
        },
        {
          "indexed": false,
          "internalType": "uint256[]",
          "name": "lockedOutputs",
          "type": "uint256[]"
        },
        {
          "indexed": true,
          "internalType": "address",
          "name": "delegate",
          "type": "address"
        },
        {
          "indexed": true,
          "internalType": "address",
          "name": "submitter",
          "type": "address"
        },
        {
          "indexed": false,
          "internalType": "bytes",
          "name": "data",
          "type": "bytes"
        }
      ],
      "name": "UTXOsLocked",
      "type": "event"
    },
    {
      "anonymous": false,
      "inputs": [
        {
          "indexed": true,
          "internalType": "address",
          "name": "implementation",
          "type": "address"
        }
      ],
      "name": "Upgraded",
      "type": "event"
    },
    {
      "inputs": [],
      "name": "UPGRADE_INTERFACE_VERSION",
      "outputs": [
        {
          "internalType": "string",
          "name": "",
          "type": "string"
        }
      ],
      "stateMutability": "view",
      "type": "function"
    },
    {
      "inputs": [
        {
          "internalType": "contract Groth16Verifier_Deposit",
          "name": "depositVerifier",
          "type": "address"
        }
      ],
      "name": "__ZetoFungible_init",
      "outputs": [],
      "stateMutability": "nonpayable",
      "type": "function"
    },
    {
      "inputs": [
        {
          "internalType": "uint256",
          "name": "amount",
          "type": "uint256"
        },
        {
          "internalType": "uint256[]",
          "name": "outputs",
          "type": "uint256[]"
        },
        {
          "components": [
            {
              "internalType": "uint256[2]",
              "name": "pA",
              "type": "uint256[2]"
            },
            {
              "internalType": "uint256[2][2]",
              "name": "pB",
              "type": "uint256[2][2]"
            },
            {
              "internalType": "uint256[2]",
              "name": "pC",
              "type": "uint256[2]"
            }
          ],
          "internalType": "struct Commonlib.Proof",
          "name": "proof",
          "type": "tuple"
        }
      ],
      "name": "_deposit",
      "outputs": [],
      "stateMutability": "nonpayable",
      "type": "function"
    },
    {
      "inputs": [
        {
          "internalType": "uint256",
          "name": "amount",
          "type": "uint256"
        },
        {
          "internalType": "uint256[]",
          "name": "nullifiers",
          "type": "uint256[]"
        },
        {
          "internalType": "uint256",
          "name": "output",
          "type": "uint256"
        },
        {
          "internalType": "uint256",
          "name": "root",
          "type": "uint256"
        },
        {
          "components": [
            {
              "internalType": "uint256[2]",
              "name": "pA",
              "type": "uint256[2]"
            },
            {
              "internalType": "uint256[2][2]",
              "name": "pB",
              "type": "uint256[2][2]"
            },
            {
              "internalType": "uint256[2]",
              "name": "pC",
              "type": "uint256[2]"
            }
          ],
          "internalType": "struct Commonlib.Proof",
          "name": "proof",
          "type": "tuple"
        }
      ],
      "name": "_withdrawWithNullifiers",
      "outputs": [],
      "stateMutability": "nonpayable",
      "type": "function"
    },
    {
      "inputs": [
        {
          "internalType": "uint256[]",
          "name": "commitments",
          "type": "uint256[]"
        }
      ],
      "name": "checkAndPadCommitments",
      "outputs": [
        {
          "internalType": "uint256[]",
          "name": "",
          "type": "uint256[]"
        }
      ],
      "stateMutability": "pure",
      "type": "function"
    },
    {
      "inputs": [],
      "name": "decimals",
      "outputs": [
        {
          "internalType": "uint8",
          "name": "",
          "type": "uint8"
        }
      ],
      "stateMutability": "view",
      "type": "function"
    },
    {
      "inputs": [
        {
          "internalType": "uint256[]",
          "name": "utxos",
          "type": "uint256[]"
        },
        {
          "internalType": "address",
          "name": "delegate",
          "type": "address"
        },
        {
          "internalType": "bytes",
          "name": "data",
          "type": "bytes"
        }
      ],
      "name": "delegateLock",
      "outputs": [],
      "stateMutability": "nonpayable",
      "type": "function"
    },
    {
      "inputs": [
        {
          "internalType": "uint256",
          "name": "amount",
          "type": "uint256"
        },
        {
          "internalType": "uint256[]",
          "name": "outputs",
          "type": "uint256[]"
        },
        {
          "components": [
            {
              "internalType": "uint256[2]",
              "name": "pA",
              "type": "uint256[2]"
            },
            {
              "internalType": "uint256[2][2]",
              "name": "pB",
              "type": "uint256[2][2]"
            },
            {
              "internalType": "uint256[2]",
              "name": "pC",
              "type": "uint256[2]"
            }
          ],
          "internalType": "struct Commonlib.Proof",
          "name": "proof",
          "type": "tuple"
        },
        {
          "internalType": "bytes",
          "name": "data",
          "type": "bytes"
        }
      ],
      "name": "deposit",
      "outputs": [],
      "stateMutability": "nonpayable",
      "type": "function"
    },
    {
      "inputs": [],
      "name": "getArbiter",
      "outputs": [
        {
          "internalType": "uint256[2]",
          "name": "",
          "type": "uint256[2]"
        }
      ],
      "stateMutability": "view",
      "type": "function"
    },
    {
      "inputs": [],
      "name": "getRoot",
      "outputs": [
        {
          "internalType": "uint256",
          "name": "",
          "type": "uint256"
        }
      ],
      "stateMutability": "view",
      "type": "function"
    },
    {
      "inputs": [],
      "name": "getRootForLocked",
      "outputs": [
        {
          "internalType": "uint256",
          "name": "",
          "type": "uint256"
        }
      ],
      "stateMutability": "view",
      "type": "function"
    },
    {
      "inputs": [
        {
          "internalType": "string",
          "name": "name",
          "type": "string"
        },
        {
          "internalType": "string",
          "name": "symbol",
          "type": "string"
        },
        {
          "internalType": "address",
          "name": "initialOwner",
          "type": "address"
        },
        {
          "components": [
            {
              "internalType": "address",
              "name": "verifier",
              "type": "address"
            },
            {
              "internalType": "address",
              "name": "depositVerifier",
              "type": "address"
            },
            {
              "internalType": "address",
              "name": "withdrawVerifier",
              "type": "address"
            },
            {
              "internalType": "address",
              "name": "lockVerifier",
              "type": "address"
            },
            {
              "internalType": "address",
              "name": "burnVerifier",
              "type": "address"
            },
            {
              "internalType": "address",
              "name": "batchVerifier",
              "type": "address"
            },
            {
              "internalType": "address",
              "name": "batchWithdrawVerifier",
              "type": "address"
            },
            {
              "internalType": "address",
              "name": "batchLockVerifier",
              "type": "address"
            },
            {
              "internalType": "address",
              "name": "batchBurnVerifier",
              "type": "address"
            }
          ],
          "internalType": "struct IZetoInitializable.VerifiersInfo",
          "name": "verifiers",
          "type": "tuple"
        }
      ],
      "name": "initialize",
      "outputs": [],
      "stateMutability": "nonpayable",
      "type": "function"
    },
    {
      "inputs": [
        {
          "internalType": "uint256",
          "name": "utxo",
          "type": "uint256"
        },
        {
          "internalType": "address",
          "name": "delegate",
          "type": "address"
        }
      ],
      "name": "locked",
      "outputs": [
        {
          "internalType": "bool",
          "name": "",
          "type": "bool"
        },
        {
          "internalType": "address",
          "name": "",
          "type": "address"
        }
      ],
      "stateMutability": "view",
      "type": "function"
    },
    {
      "inputs": [
        {
          "internalType": "uint256[]",
          "name": "utxos",
          "type": "uint256[]"
        },
        {
          "internalType": "bytes",
          "name": "data",
          "type": "bytes"
        }
      ],
      "name": "mint",
      "outputs": [],
      "stateMutability": "nonpayable",
      "type": "function"
    },
    {
      "inputs": [],
      "name": "name",
      "outputs": [
        {
          "internalType": "string",
          "name": "",
          "type": "string"
        }
      ],
      "stateMutability": "view",
      "type": "function"
    },
    {
      "inputs": [],
      "name": "owner",
      "outputs": [
        {
          "internalType": "address",
          "name": "",
          "type": "address"
        }
      ],
      "stateMutability": "view",
      "type": "function"
    },
    {
      "inputs": [],
      "name": "proxiableUUID",
      "outputs": [
        {
          "internalType": "bytes32",
          "name": "",
          "type": "bytes32"
        }
      ],
      "stateMutability": "view",
      "type": "function"
    },
    {
      "inputs": [],
      "name": "renounceOwnership",
      "outputs": [],
      "stateMutability": "nonpayable",
      "type": "function"
    },
    {
      "inputs": [
        {
          "internalType": "uint256[2]",
          "name": "_arbiter",
          "type": "uint256[2]"
        }
      ],
      "name": "setArbiter",
      "outputs": [],
      "stateMutability": "nonpayable",
      "type": "function"
    },
    {
      "inputs": [
        {
          "internalType": "contract IERC20",
          "name": "erc20",
          "type": "address"
        }
      ],
      "name": "setERC20",
      "outputs": [],
      "stateMutability": "nonpayable",
      "type": "function"
    },
    {
      "inputs": [],
      "name": "symbol",
      "outputs": [
        {
          "internalType": "string",
          "name": "",
          "type": "string"
        }
      ],
      "stateMutability": "view",
      "type": "function"
    },
    {
      "inputs": [
        {
          "internalType": "uint256[]",
          "name": "nullifiers",
          "type": "uint256[]"
        },
        {
          "internalType": "uint256[]",
          "name": "outputs",
          "type": "uint256[]"
        },
        {
          "internalType": "uint256",
          "name": "root",
          "type": "uint256"
        },
        {
          "internalType": "uint256",
          "name": "encryptionNonce",
          "type": "uint256"
        },
        {
          "internalType": "uint256[2]",
          "name": "ecdhPublicKey",
          "type": "uint256[2]"
        },
        {
          "internalType": "uint256[]",
          "name": "encryptedValuesForReceiver",
          "type": "uint256[]"
        },
        {
          "internalType": "uint256[]",
          "name": "encryptedValuesForAuthority",
          "type": "uint256[]"
        },
        {
          "components": [
            {
              "internalType": "uint256[2]",
              "name": "pA",
              "type": "uint256[2]"
            },
            {
              "internalType": "uint256[2][2]",
              "name": "pB",
              "type": "uint256[2][2]"
            },
            {
              "internalType": "uint256[2]",
              "name": "pC",
              "type": "uint256[2]"
            }
          ],
          "internalType": "struct Commonlib.Proof",
          "name": "proof",
          "type": "tuple"
        },
        {
          "internalType": "bytes",
          "name": "data",
          "type": "bytes"
        }
      ],
      "name": "transfer",
      "outputs": [
        {
          "internalType": "bool",
          "name": "",
          "type": "bool"
        }
      ],
      "stateMutability": "nonpayable",
      "type": "function"
    },
    {
      "inputs": [
        {
          "internalType": "address",
          "name": "newOwner",
          "type": "address"
        }
      ],
      "name": "transferOwnership",
      "outputs": [],
      "stateMutability": "nonpayable",
      "type": "function"
    },
    {
      "inputs": [
        {
          "internalType": "address",
          "name": "newImplementation",
          "type": "address"
        },
        {
          "internalType": "bytes",
          "name": "data",
          "type": "bytes"
        }
      ],
      "name": "upgradeToAndCall",
      "outputs": [],
      "stateMutability": "payable",
      "type": "function"
    },
    {
      "inputs": [
        {
          "internalType": "uint256",
          "name": "amount",
          "type": "uint256"
        },
        {
          "internalType": "uint256[]",
          "name": "nullifiers",
          "type": "uint256[]"
        },
        {
          "internalType": "uint256",
          "name": "output",
          "type": "uint256"
        },
        {
          "internalType": "uint256",
          "name": "root",
          "type": "uint256"
        },
        {
          "components": [
            {
              "internalType": "uint256[2]",
              "name": "pA",
              "type": "uint256[2]"
            },
            {
              "internalType": "uint256[2][2]",
              "name": "pB",
              "type": "uint256[2][2]"
            },
            {
              "internalType": "uint256[2]",
              "name": "pC",
              "type": "uint256[2]"
            }
          ],
          "internalType": "struct Commonlib.Proof",
          "name": "proof",
          "type": "tuple"
        },
        {
          "internalType": "bytes",
          "name": "data",
          "type": "bytes"
        }
      ],
      "name": "withdraw",
      "outputs": [],
      "stateMutability": "nonpayable",
      "type": "function"
    }
  ],
  "bytecode": "0x60a060405230608052348015601357600080fd5b5060805161415461003d60003960008181611e1501528181611e3e0152611fbc01526141546000f3fe6080604052600436106101965760003560e01c80638da5cb5b116100e1578063c29a6fda1161008a578063da805f1111610064578063da805f11146104a3578063f2fde38b146104c3578063f586acdb146104e3578063f7e648d31461050357600080fd5b8063c29a6fda14610441578063cd523c7314610461578063cffe00f91461048157600080fd5b80639fcc50af116100bb5780639fcc50af146103b8578063a4ef9ad1146103d8578063ad3cb1cc146103f857600080fd5b80638da5cb5b1461033c57806395d89b41146103835780639e2a71941461039857600080fd5b806352d1902d11610143578063715018a61161011d578063715018a6146102e757806383f0ef49146102fc5780638bb2513b1461031c57600080fd5b806352d1902d1461028f5780635ca1e165146102b257806366eded99146102c757600080fd5b806324ef458a1161017457806324ef458a1461021f578063313ce5671461025e5780634f1ef2861461027a57600080fd5b806304b10b9f1461019b57806306fdde03146101d057806324ce729e146101f2575b600080fd5b3480156101a757600080fd5b506101bb6101b636600461337a565b610518565b60405190151581526020015b60405180910390f35b3480156101dc57600080fd5b506101e5610ad5565b6040516101c791906134cc565b3480156101fe57600080fd5b5061021261020d3660046134ff565b610b67565b6040516101c79190613570565b34801561022b57600080fd5b5061023f61023a366004613598565b610bd5565b6040805192151583526001600160a01b039091166020830152016101c7565b34801561026a57600080fd5b50604051600481526020016101c7565b61028d610288366004613624565b610bee565b005b34801561029b57600080fd5b506102a4610c0d565b6040519081526020016101c7565b3480156102be57600080fd5b506102a4610c3c565b3480156102d357600080fd5b5061028d6102e2366004613688565b610cb9565b3480156102f357600080fd5b5061028d610db5565b34801561030857600080fd5b5061028d610317366004613728565b610dc9565b34801561032857600080fd5b5061028d610337366004613744565b610dde565b34801561034857600080fd5b507f9016d09d72d40fdae2fd8ceac6b6234c7706214fd39c1cd1e609a0528c199300546040516001600160a01b0390911681526020016101c7565b34801561038f57600080fd5b506101e5610df6565b3480156103a457600080fd5b5061028d6103b33660046137b2565b610e05565b3480156103c457600080fd5b5061028d6103d336600461381f565b61119b565b3480156103e457600080fd5b5061028d6103f336600461383c565b6111c5565b34801561040457600080fd5b506101e56040518060400160405280600581526020017f352e302e3000000000000000000000000000000000000000000000000000000081525081565b34801561044d57600080fd5b5061028d61045c36600461381f565b611401565b34801561046d57600080fd5b5061028d61047c3660046138ba565b61142b565b34801561048d57600080fd5b50610496611441565b6040516101c7919061396a565b3480156104af57600080fd5b5061028d6104be366004613978565b61147b565b3480156104cf57600080fd5b5061028d6104de36600461381f565b6116a5565b3480156104ef57600080fd5b5061028d6104fe3660046139f1565b6116fc565b34801561050f57600080fd5b506102a46118d3565b60006105238b610b67565b9a5061052e8a610b67565b995061053d8b8b8b600061190e565b5060028b51118061054f575060028a51115b1561076757845160401461061c5760405162461bcd60e51b815260206004820152606c60248201527f436970686572205465787420666f7220417574686f72697479206d757374206860448201527f6176652061206c656e677468206f66203634207769746820696e707574206f7260648201527f206f757470757473206e756d626572206d6f7265207468616e203220616e642060848201527f6c657373207468616e203130000000000000000000000000000000000000000060a482015260c4015b60405180910390fd5b600061062f8c8c8c8c8c8c8c608c61193a565b90506106396130a3565b60005b608c81101561067e5782818151811061065757610657613a89565b60200260200101518282608c811061067157610671613a89565b602002015260010161063c565b50606c54604080517f1438cd220000000000000000000000000000000000000000000000000000000081526001600160a01b0390921691631438cd22916106d3918a9182019060c08301908790600401613ac4565b602060405180830381865afa1580156106f0573d6000803e3d6000fd5b505050506040513d601f19601f820116820180604052508101906107149190613b2c565b6107605760405162461bcd60e51b815260206004820152601560248201527f496e76616c69642070726f6f66202862617463682900000000000000000000006044820152606401610613565b505061093b565b84516010146108045760405162461bcd60e51b815260206004820152605760248201527f436970686572205465787420666f7220417574686f72697479206d757374206860448201527f6176652061206c656e677468206f6620313620666f72206e6f206d6f7265207460648201527f68616e203220696e70757473206f72206f757470757473000000000000000000608482015260a401610613565b60006108178c8c8c8c8c8c8c602461193a565b90506108216130c2565b60005b60248110156108665782818151811061083f5761083f613a89565b602002602001015182826024811061085957610859613a89565b6020020152600101610824565b50606b54604080517f881453ac0000000000000000000000000000000000000000000000000000000081526001600160a01b039092169163881453ac916108bb918a9182019060c08301908790600401613b47565b602060405180830381865afa1580156108d8573d6000803e3d6000fd5b505050506040513d601f19601f820116820180604052508101906108fc9190613b2c565b6109385760405162461bcd60e51b815260206004820152600d60248201526c24b73b30b634b210383937b7b360991b6044820152606401610613565b50505b606061094a8c8c836000611c58565b6000875167ffffffffffffffff811115610966576109666131ad565b60405190808252806020026020018201604052801561098f578160200160208202803683370190505b5090506000875167ffffffffffffffff8111156109ae576109ae6131ad565b6040519080825280602002602001820160405280156109d7578160200160208202803683370190505b50905060005b8951811015610a25578981815181106109f8576109f8613a89565b6020026020010151838281518110610a1257610a12613a89565b60209081029190910101526001016109dd565b5060005b8851811015610a7157888181518110610a4457610a44613a89565b6020026020010151828281518110610a5e57610a5e613a89565b6020908102919091010152600101610a29565b50336001600160a01b03167f2de65d88bad801ae25960ccc943b3a24033838692a43078533014e938562b02b8f8f8e8e87878d8d604051610ab9989796959493929190613bb7565b60405180910390a25060019d9c50505050505050505050505050565b606060008054610ae490613c3d565b80601f0160208091040260200160405190810160405280929190818152602001828054610b1090613c3d565b8015610b5d5780601f10610b3257610100808354040283529160200191610b5d565b820191906000526020600020905b815481529060010190602001808311610b4057829003601f168201915b5050505050905090565b8051606090600a811115610baa576040517f9ebbc98e000000000000000000000000000000000000000000000000000000008152600a6004820152602401610613565b60006002821115610bbd5750600a610bc1565b5060025b610bcd84826000611c74565b949350505050565b600080610be28484611d54565b915091505b9250929050565b610bf6611e0a565b610bff82611ec1565b610c098282611ec9565b5050565b6000610c17611fb1565b507f360894a13ba1a3210667c828492db98dca3e2076cc3735a920a3ca505d382bbc90565b6040516379f9712560e01b81526002600482015260009073__$dc6c4dd02ac6da041aea5ed0aea43c2a22$__906379f97125906024015b602060405180830381865af4158015610c90573d6000803e3d6000fd5b505050506040513d601f19601f82011682018060405250810190610cb49190613c71565b905090565b6000865167ffffffffffffffff811115610cd557610cd56131ad565b604051908082528060200260200182016040528015610cfe578160200160208202803683370190505b5090508581600081518110610d1557610d15613a89565b602002602001018181525050610d2a87610b67565b9650610d3581610b67565b9050610d44878287600061190e565b50610d528888888888610e05565b6060610d618883836000611c58565b336001600160a01b03167f7d8a8f009bcd9cd0dc27e36fe37cc7cfe2bbd1469c0970d31046d3c12ec7f48c8a8a8a8888604051610da2959493929190613c8a565b60405180910390a2505050505050505050565b610dbd611ffa565b610dc7600061206e565b565b610dd1611ffa565b610c09606d8260026130e1565b610de6611ffa565b610df18383836120df565b505050565b606060018054610ae490613c3d565b600284511115610f8657601784511115610e4e576040517f71798fb500000000000000000000000000000000000000000000000000000000815260176004820152602401610613565b6000610e5e86868686601761213c565b9050610e6861311f565b60005b6017811015610ead57828181518110610e8657610e86613a89565b6020026020010151828260178110610ea057610ea0613a89565b6020020152600101610e6b565b50606a54604080517fa0c2a19a0000000000000000000000000000000000000000000000000000000081526001600160a01b039092169163a0c2a19a91610f0291879182019060c08301908790600401613cc8565b602060405180830381865afa158015610f1f573d6000803e3d6000fd5b505050506040513d601f19601f82011682018060405250810190610f439190613b2c565b610f7f5760405162461bcd60e51b815260206004820152600d60248201526c24b73b30b634b210383937b7b360991b6044820152606401610613565b50506110ba565b6000610f9686868686600761213c565b9050610fa061313e565b60005b6007811015610fe557828181518110610fbe57610fbe613a89565b6020026020010151828260078110610fd857610fd8613a89565b6020020152600101610fa3565b50606954604080517fc894e7570000000000000000000000000000000000000000000000000000000081526001600160a01b039092169163c894e7579161103a91879182019060c08301908790600401613d0f565b602060405180830381865afa158015611057573d6000803e3d6000fd5b505050506040513d601f19601f8201168201806040525081019061107b9190613b2c565b6110b75760405162461bcd60e51b815260206004820152600d60248201526c24b73b30b634b210383937b7b360991b6044820152606401610613565b50505b6068546040517fa9059cbb000000000000000000000000000000000000000000000000000000008152336004820152602481018790526001600160a01b039091169063a9059cbb906044016020604051808303816000875af1158015611124573d6000803e3d6000fd5b505050506040513d601f19601f820116820180604052508101906111489190613b2c565b6111945760405162461bcd60e51b815260206004820152601f60248201527f4661696c656420746f207472616e7366657220455243323020746f6b656e73006044820152606401610613565b5050505050565b6111a36122d0565b606780546001600160a01b0319166001600160a01b0392909216919091179055565b60005b84518110156113ab578481815181106111e3576111e3613a89565b6020026020010151600003156113a35760008061121987848151811061120b5761120b613a89565b602002602001015133611d54565b9092509050816112725786838151811061123557611235613a89565b60200260200101516040517fe41859a600000000000000000000000000000000000000000000000000000000815260040161061391815260200190565b6001600160a01b03811633146112ea5786838151811061129457611294613a89565b60209081029190910101516040517f9fec262f00000000000000000000000000000000000000000000000000000000815260048101919091526001600160a01b0387166024820152336044820152606401610613565b603473__$dc6c4dd02ac6da041aea5ed0aea43c2a22$__63c1d29f01909189868151811061131a5761131a613a89565b60209081029190910101516040517fffffffff0000000000000000000000000000000000000000000000000000000060e085901b168152600481019290925260248201526001600160a01b038916604482015260640160006040518083038186803b15801561138857600080fd5b505af415801561139c573d6000803e3d6000fd5b5050505050505b6001016111c8565b50826001600160a01b0316336001600160a01b03167fb81fc4239cf1f8a9964a337bb7866ffeb712f9e482d9cef0f5fac9fe3bd655b28685856040516113f393929190613d56565b60405180910390a350505050565b611409611ffa565b606880546001600160a01b0319166001600160a01b0392909216919091179055565b61143685858561147b565b6111948483836120df565b61144961315c565b604080518082019182905290606d9060029082845b81548152602001906001019080831161145e575050505050905090565b61148361317a565b8381528251839060009061149957611499613a89565b6020026020010151816001600381106114b4576114b4613a89565b60200201528251839060019081106114ce576114ce613a89565b6020026020010151816002600381106114e9576114e9613a89565b6020020152606754604080517f11479fea0000000000000000000000000000000000000000000000000000000081526001600160a01b03909216916311479fea9161154291869182019060c08301908790600401613d86565b602060405180830381865afa15801561155f573d6000803e3d6000fd5b505050506040513d601f19601f820116820180604052508101906115839190613b2c565b6115bf5760405162461bcd60e51b815260206004820152600d60248201526c24b73b30b634b210383937b7b360991b6044820152606401610613565b6068546040517f23b872dd000000000000000000000000000000000000000000000000000000008152336004820152306024820152604481018690526001600160a01b03909116906323b872dd906064016020604051808303816000875af115801561162f573d6000803e3d6000fd5b505050506040513d601f19601f820116820180604052508101906116539190613b2c565b61169f5760405162461bcd60e51b815260206004820152601f60248201527f4661696c656420746f207472616e7366657220455243323020746f6b656e73006044820152606401610613565b50505050565b6116ad611ffa565b6001600160a01b0381166116f0576040517f1e4fbdf700000000000000000000000000000000000000000000000000000000815260006004820152602401610613565b6116f98161206e565b50565b7ff0c57e16840df040f15088dc2f81fe391c3923bec73e23a9662efc9c229c6a00805468010000000000000000810460ff16159067ffffffffffffffff166000811580156117475750825b905060008267ffffffffffffffff1660011480156117645750303b155b905081158015611772575080155b156117a9576040517ff92ee8a900000000000000000000000000000000000000000000000000000000815260040160405180910390fd5b845467ffffffffffffffff1916600117855583156117dd57845468ff00000000000000001916680100000000000000001785555b6117e8898989612337565b6118206117fb604088016020890161381f565b61180b6060890160408a0161381f565b61181b60e08a0160c08b0161381f565b612427565b61182d602087018761381f565b606b80546001600160a01b0319166001600160a01b039290921691909117905561185d60c0870160a0880161381f565b606c80546001600160a01b0319166001600160a01b039290921691909117905583156118c857845468ff000000000000000019168555604051600181527fc7f505b2f371ae2175ee4913f4499e1f2633a7b5936321eed1cdaeb6115181d29060200160405180910390a15b505050505050505050565b6040516379f9712560e01b81526034600482015260009073__$dc6c4dd02ac6da041aea5ed0aea43c2a22$__906379f9712590602401610c73565b600061191985612467565b50611923846125dd565b5061192e8383612700565b50600195945050505050565b60608167ffffffffffffffff811115611955576119556131ad565b60405190808252806020026020018201604052801561197e578160200160208202803683370190505b5090506000805b60028110156119d5578681600281106119a0576119a0613a89565b602002015183836119b081613de3565b9450815181106119c2576119c2613a89565b6020908102919091010152600101611985565b5060005b8551811015611a2d578581815181106119f4576119f4613a89565b6020026020010151838380611a0890613de3565b945081518110611a1a57611a1a613a89565b60209081029190910101526001016119d9565b5060005b8451811015611a8557848181518110611a4c57611a4c613a89565b6020026020010151838380611a6090613de3565b945081518110611a7257611a72613a89565b6020908102919091010152600101611a31565b5060005b8a51811015611add578a8181518110611aa457611aa4613a89565b6020026020010151838380611ab890613de3565b945081518110611aca57611aca613a89565b6020908102919091010152600101611a89565b50878282611aea81613de3565b935081518110611afc57611afc613a89565b60200260200101818152505060005b8a51811015611b72578a8181518110611b2657611b26613a89565b6020026020010151600014611b3c576001611b3f565b60005b60ff168383611b4d81613de3565b945081518110611b5f57611b5f613a89565b6020908102919091010152600101611b0b565b5060005b8951811015611bca57898181518110611b9157611b91613a89565b6020026020010151838380611ba590613de3565b945081518110611bb757611bb7613a89565b6020908102919091010152600101611b76565b50868282611bd781613de3565b935081518110611be957611be9613a89565b6020908102919091010152606d548282611c0281613de3565b935081518110611c1457611c14613a89565b6020908102919091010152606e548282611c2d81613de3565b935081518110611c3f57611c3f613a89565b6020026020010181815250505098975050505050505050565b611c6184612859565b611c6a836128d4565b61169f82826129bb565b606082845103611c85575082611d4d565b60008367ffffffffffffffff811115611ca057611ca06131ad565b604051908082528060200260200182016040528015611cc9578160200160208202803683370190505b50905060005b8551811015611d1757858181518110611cea57611cea613a89565b6020026020010151828281518110611d0457611d04613a89565b6020908102919091010152600101611ccf565b5084515b84811015611d495783828281518110611d3657611d36613a89565b6020908102919091010152600101611d1b565b5090505b9392505050565b604051632eda066d60e11b815260346004820152602481018390526000908190819073__$dc6c4dd02ac6da041aea5ed0aea43c2a22$__90635db40cda90604401600060405180830381865af4158015611db2573d6000803e3d6000fd5b505050506040513d6000823e601f3d908101601f19168201604052611dda9190810190613e5a565b905080602001518015611df95750836001600160a01b03168160800151145b816080015192509250509250929050565b306001600160a01b037f0000000000000000000000000000000000000000000000000000000000000000161480611ea357507f00000000000000000000000000000000000000000000000000000000000000006001600160a01b0316611e977f360894a13ba1a3210667c828492db98dca3e2076cc3735a920a3ca505d382bbc546001600160a01b031690565b6001600160a01b031614155b15610dc75760405163703e46dd60e11b815260040160405180910390fd5b6116f9611ffa565b816001600160a01b03166352d1902d6040518163ffffffff1660e01b8152600401602060405180830381865afa925050508015611f23575060408051601f3d908101601f19168201909252611f2091810190613c71565b60015b611f4b57604051634c9c8ce360e01b81526001600160a01b0383166004820152602401610613565b7f360894a13ba1a3210667c828492db98dca3e2076cc3735a920a3ca505d382bbc8114611fa7576040517faa1d49a400000000000000000000000000000000000000000000000000000000815260048101829052602401610613565b610df18383612aa7565b306001600160a01b037f00000000000000000000000000000000000000000000000000000000000000001614610dc75760405163703e46dd60e11b815260040160405180910390fd5b3361202c7f9016d09d72d40fdae2fd8ceac6b6234c7706214fd39c1cd1e609a0528c199300546001600160a01b031690565b6001600160a01b031614610dc7576040517f118cdaa7000000000000000000000000000000000000000000000000000000008152336004820152602401610613565b7f9016d09d72d40fdae2fd8ceac6b6234c7706214fd39c1cd1e609a0528c19930080546001600160a01b031981166001600160a01b03848116918217845560405192169182907f8be0079c531659141344cd1fd0a4f28419497f9722a3daafe3b4186f6b6457e090600090a3505050565b6120e8836125dd565b506120f2836128d4565b336001600160a01b03167f7ff08e0ca1fce6b202b83128811e4f6ceda54930aa074cd365bf68f95c20ce1984848460405161212f93929190613d56565b60405180910390a2505050565b60608167ffffffffffffffff811115612157576121576131ad565b604051908082528060200260200182016040528015612180578160200160208202803683370190505b509050600086828261219181613de3565b9350815181106121a3576121a3613a89565b60200260200101818152505060005b8651811015612206578681815181106121cd576121cd613a89565b60200260200101518383806121e190613de3565b9450815181106121f3576121f3613a89565b60209081029190910101526001016121b2565b5083828261221381613de3565b93508151811061222557612225613a89565b60200260200101818152505060005b865181101561229b5786818151811061224f5761224f613a89565b6020026020010151600014612265576001612268565b60005b60ff16838361227681613de3565b94508151811061228857612288613a89565b6020908102919091010152600101612234565b508482826122a881613de3565b9350815181106122ba576122ba613a89565b6020026020010181815250505095945050505050565b7ff0c57e16840df040f15088dc2f81fe391c3923bec73e23a9662efc9c229c6a005468010000000000000000900460ff16610dc7576040517fd7e6bcf800000000000000000000000000000000000000000000000000000000815260040160405180910390fd5b61233f6122d0565b61234a838383612afd565b60408051639e43b81360e01b815260026004820152602481019190915273__$dc6c4dd02ac6da041aea5ed0aea43c2a22$__90639e43b8139060440160006040518083038186803b15801561239e57600080fd5b505af41580156123b2573d6000803e3d6000fd5b505060408051639e43b81360e01b815260346004820152602481019190915273__$dc6c4dd02ac6da041aea5ed0aea43c2a22$__9250639e43b813915060440160006040518083038186803b15801561240a57600080fd5b505af415801561241e573d6000803e3d6000fd5b50505050505050565b61242f6122d0565b6124388361119b565b606980546001600160a01b039384166001600160a01b031991821617909155606a805492909316911617905550565b60008061247383612b27565b905060005b81518110156125d65781818151811061249357612493613a89565b6020026020010151600003156125ce576000811180156124ee5750816124ba600183613f22565b815181106124ca576124ca613a89565b60200260200101518282815181106124e4576124e4613a89565b6020026020010151145b156125425781818151811061250557612505613a89565b60200260200101516040517fdd57483100000000000000000000000000000000000000000000000000000000815260040161061391815260200190565b6066600083838151811061255857612558613a89565b60209081029190910181015182528101919091526040016000205460ff1615156001036125ce5781818151811061259157612591613a89565b60200260200101516040517f41a06d2800000000000000000000000000000000000000000000000000000000815260040161061391815260200190565b600101612478565b5050919050565b6000806125e983612b27565b905060005b81518110156125d65781818151811061260957612609613a89565b6020026020010151600003156126f857600081118015612664575081612630600183613f22565b8151811061264057612640613a89565b602002602001015182828151811061265a5761265a613a89565b6020026020010151145b1561267b5781818151811061250557612505613a89565b600061269f83838151811061269257612692613a89565b6020026020010151612bc6565b905080156126f6578282815181106126b9576126b9613a89565b60200260200101516040517f79e1da4700000000000000000000000000000000000000000000000000000000815260040161061391815260200190565b505b6001016125ee565b600081801561278757506040516324bd6c1b60e21b8152603460048201526024810184905273__$dc6c4dd02ac6da041aea5ed0aea43c2a22$__906392f5b06c90604401602060405180830381865af4158015612761573d6000803e3d6000fd5b505050506040513d601f19601f820116820180604052508101906127859190613b2c565b155b156127a857604051630959af5760e31b815260048101849052602401610613565b8115801561282e57506040516324bd6c1b60e21b8152600260048201526024810184905273__$dc6c4dd02ac6da041aea5ed0aea43c2a22$__906392f5b06c90604401602060405180830381865af4158015612808573d6000803e3d6000fd5b505050506040513d601f19601f8201168201806040525081019061282c9190613b2c565b155b1561284f57604051630959af5760e31b815260048101849052602401610613565b5060015b92915050565b60005b8151811015610c095781818151811061287757612877613a89565b60200260200101516000146128cc5760016066600084848151811061289e5761289e613a89565b6020026020010151815260200190815260200160002060006101000a81548160ff0219169083151502179055505b60010161285c565b60005b8151811015610c09578181815181106128f2576128f2613a89565b60200260200101516000146129b357600273__$dc6c4dd02ac6da041aea5ed0aea43c2a22$__63c1d29f01909184848151811061293157612931613a89565b602002602001015185858151811061294b5761294b613a89565b60200260200101516040518463ffffffff1660e01b8152600401612982939291909283526020830191909152604082015260600190565b60006040518083038186803b15801561299a57600080fd5b505af41580156129ae573d6000803e3d6000fd5b505050505b6001016128d7565b60005b8251811015610df1578281815181106129d9576129d9613a89565b6020026020010151600014612a9f57603473__$dc6c4dd02ac6da041aea5ed0aea43c2a22$__63c1d29f019091858481518110612a1857612a18613a89565b60209081029190910101516040517fffffffff0000000000000000000000000000000000000000000000000000000060e085901b168152600481019290925260248201526001600160a01b038516604482015260640160006040518083038186803b158015612a8657600080fd5b505af4158015612a9a573d6000803e3d6000fd5b505050505b6001016129be565b612ab082612be2565b6040516001600160a01b038316907fbc7cd75a20ee27fd9adebab32041f755214dbc6bffa90cc0225b39da2e5c2d3b90600090a2805115612af557610df18282612c59565b610c09612ccf565b612b056122d0565b612b0e81612d07565b6000612b1a8482613f7c565b50600161169f8382613f7c565b60606000825167ffffffffffffffff811115612b4557612b456131ad565b604051908082528060200260200182016040528015612b6e578160200160208202803683370190505b50905060005b8351811015612bbc57838181518110612b8f57612b8f613a89565b6020026020010151828281518110612ba957612ba9613a89565b6020908102919091010152600101612b74565b50611d4d81612d18565b600080612bd283612d2d565b90508061285357611d4d83612df5565b806001600160a01b03163b600003612c1857604051634c9c8ce360e01b81526001600160a01b0382166004820152602401610613565b7f360894a13ba1a3210667c828492db98dca3e2076cc3735a920a3ca505d382bbc80546001600160a01b0319166001600160a01b0392909216919091179055565b6060600080846001600160a01b031684604051612c76919061403b565b600060405180830381855af49150503d8060008114612cb1576040519150601f19603f3d011682016040523d82523d6000602084013e612cb6565b606091505b5091509150612cc6858383612e84565b95945050505050565b3415610dc7576040517fb398979f00000000000000000000000000000000000000000000000000000000815260040160405180910390fd5b612d0f6122d0565b6116f981612ef9565b6060612d2682612f01612f05565b5090919050565b600080612d3a8384612f1d565b6040517fe170cf6e000000000000000000000000000000000000000000000000000000008152600260048201526024810182905290915060009073__$dc6c4dd02ac6da041aea5ed0aea43c2a22$__9063e170cf6e9060440160a060405180830381865af4158015612db0573d6000803e3d6000fd5b505050506040513d601f19601f82011682018060405250810190612dd49190614057565b9050600081516002811115612deb57612deb6140d7565b1415949350505050565b604051632eda066d60e11b81526034600482015260248101829052600090819073__$dc6c4dd02ac6da041aea5ed0aea43c2a22$__90635db40cda90604401600060405180830381865af4158015612e51573d6000803e3d6000fd5b505050506040513d6000823e601f3d908101601f19168201604052612e799190810190613e5a565b602001519392505050565b606082612e9957612e9482612fcb565b611d4d565b8151158015612eb057506001600160a01b0384163b155b15612ef2576040517f9996b3150000000000000000000000000000000000000000000000000000000081526001600160a01b0385166004820152602401610613565b5080611d4d565b6116ad6122d0565b1190565b6060612d2660208401612f178561300d565b84613025565b604080516060810182528381526020810183905260018183015290517f25cc70e80000000000000000000000000000000000000000000000000000000081526000919073__$03320550cd1b629da90608251571b2532e$__906325cc70e890612f8a9084906004016140ed565b602060405180830381865af4158015612fa7573d6000803e3d6000fd5b505050506040513d601f19601f82011682018060405250810190610bcd9190613c71565b805115612fdb5780518082602001fd5b6040517fd6bda27500000000000000000000000000000000000000000000000000000000815260040160405180910390fd5b6000815160200261301e8360200190565b0192915050565b6040838303101561303557505050565b600061303f845190565b905083602081015b848110156130815761306461305a825190565b848663ffffffff16565b15613079576020919091018051825182528252905b602001613047565b508451815186528152613095858285613025565b611194816020018585613025565b604051806111800160405280608c906020820280368337509192915050565b6040518061048001604052806024906020820280368337509192915050565b826002810192821561310f579160200282015b8281111561310f5782518255916020019190600101906130f4565b5061311b929150613198565b5090565b604051806102e001604052806017906020820280368337509192915050565b6040518060e001604052806007906020820280368337509192915050565b60405180604001604052806002906020820280368337509192915050565b60405180606001604052806003906020820280368337509192915050565b5b8082111561311b5760008155600101613199565b634e487b7160e01b600052604160045260246000fd5b604051610100810167ffffffffffffffff811182821017156131e7576131e76131ad565b60405290565b604051601f8201601f1916810167ffffffffffffffff81118282101715613216576132166131ad565b604052919050565b600067ffffffffffffffff821115613238576132386131ad565b5060051b60200190565b600082601f83011261325357600080fd5b81356132666132618261321e565b6131ed565b8082825260208201915060208360051b86010192508583111561328857600080fd5b602085015b838110156132a557803583526020928301920161328d565b5095945050505050565b600082601f8301126132c057600080fd5b6040805190810167ffffffffffffffff811182821017156132e3576132e36131ad565b80604052508060408401858111156132fa57600080fd5b845b818110156133145780358352602092830192016132fc565b509195945050505050565b6000610100828403121561333257600080fd5b50919050565b60008083601f84011261334a57600080fd5b50813567ffffffffffffffff81111561336257600080fd5b602083019150836020828501011115610be757600080fd5b6000806000806000806000806000806102208b8d03121561339a57600080fd5b8a3567ffffffffffffffff8111156133b157600080fd5b6133bd8d828e01613242565b9a505060208b013567ffffffffffffffff8111156133da57600080fd5b6133e68d828e01613242565b99505060408b0135975060608b013596506134048c60808d016132af565b955060c08b013567ffffffffffffffff81111561342057600080fd5b61342c8d828e01613242565b95505060e08b013567ffffffffffffffff81111561344957600080fd5b6134558d828e01613242565b9450506134668c6101008d0161331f565b92506102008b013567ffffffffffffffff81111561348357600080fd5b61348f8d828e01613338565b915080935050809150509295989b9194979a5092959850565b60005b838110156134c35781810151838201526020016134ab565b50506000910152565b60208152600082518060208401526134eb8160408501602087016134a8565b601f01601f19169190910160400192915050565b60006020828403121561351157600080fd5b813567ffffffffffffffff81111561352857600080fd5b610bcd84828501613242565b600081518084526020840193506020830160005b82811015613566578151865260209586019590910190600101613548565b5093949350505050565b602081526000611d4d6020830184613534565b6001600160a01b03811681146116f957600080fd5b600080604083850312156135ab57600080fd5b8235915060208301356135bd81613583565b809150509250929050565b60008067ffffffffffffffff8411156135e3576135e36131ad565b50601f8301601f19166020016135f8816131ed565b91505082815283838301111561360d57600080fd5b828260208301376000602084830101529392505050565b6000806040838503121561363757600080fd5b823561364281613583565b9150602083013567ffffffffffffffff81111561365e57600080fd5b8301601f8101851361366f57600080fd5b61367e858235602084016135c8565b9150509250929050565b60008060008060008060006101a0888a0312156136a457600080fd5b87359650602088013567ffffffffffffffff8111156136c257600080fd5b6136ce8a828b01613242565b96505060408801359450606088013593506136ec8960808a0161331f565b925061018088013567ffffffffffffffff81111561370957600080fd5b6137158a828b01613338565b989b979a50959850939692959293505050565b60006040828403121561373a57600080fd5b611d4d83836132af565b60008060006040848603121561375957600080fd5b833567ffffffffffffffff81111561377057600080fd5b61377c86828701613242565b935050602084013567ffffffffffffffff81111561379957600080fd5b6137a586828701613338565b9497909650939450505050565b600080600080600061018086880312156137cb57600080fd5b85359450602086013567ffffffffffffffff8111156137e957600080fd5b6137f588828901613242565b9450506040860135925060608601359150613813876080880161331f565b90509295509295909350565b60006020828403121561383157600080fd5b8135611d4d81613583565b6000806000806060858703121561385257600080fd5b843567ffffffffffffffff81111561386957600080fd5b61387587828801613242565b945050602085013561388681613583565b9250604085013567ffffffffffffffff8111156138a257600080fd5b6138ae87828801613338565b95989497509550505050565b600080600080600061016086880312156138d357600080fd5b85359450602086013567ffffffffffffffff8111156138f157600080fd5b6138fd88828901613242565b94505061390d876040880161331f565b925061014086013567ffffffffffffffff81111561392a57600080fd5b61393688828901613338565b969995985093965092949392505050565b8060005b600281101561169f57815184526020938401939091019060010161394b565b604081016128538284613947565b6000806000610140848603121561398e57600080fd5b83359250602084013567ffffffffffffffff8111156139ac57600080fd5b6139b886828701613242565b9250506139c8856040860161331f565b90509250925092565b600082601f8301126139e257600080fd5b611d4d838335602085016135c8565b600080600080848603610180811215613a0957600080fd5b853567ffffffffffffffff811115613a2057600080fd5b613a2c888289016139d1565b955050602086013567ffffffffffffffff811115613a4957600080fd5b613a55888289016139d1565b9450506040860135613a6681613583565b9250610120605f1982011215613a7b57600080fd5b509295919450926060019150565b634e487b7160e01b600052603260045260246000fd5b8060005b600281101561169f5760408285376040938401939190910190600101613aa3565b61128081016040868337613adb6040830186613a9f565b60408460c084013761010082018360005b608c811015613b0b578151835260209283019290910190600101613aec565b50505095945050505050565b80518015158114613b2757600080fd5b919050565b600060208284031215613b3e57600080fd5b611d4d82613b17565b61058081016040868337613b5e6040830186613a9f565b60408460c084013761010082018360005b6024811015613b0b578151835260209283019290910190600101613b6f565b81835281816020850137506000828201602090810191909152601f909101601f19169091010190565b61010081526000613bcc61010083018b613534565b8281036020840152613bde818b613534565b9050886040840152613bf36060840189613947565b82810360a0840152613c058188613534565b905082810360c0840152613c198187613534565b905082810360e0840152613c2e818587613b8e565b9b9a5050505050505050505050565b600181811c90821680613c5157607f821691505b60208210810361333257634e487b7160e01b600052602260045260246000fd5b600060208284031215613c8357600080fd5b5051919050565b858152608060208201526000613ca36080830187613534565b8560408401528281036060840152613cbc818587613b8e565b98975050505050505050565b6103e081016040868337613cdf6040830186613a9f565b60408460c084013761010082018360005b6017811015613b0b578151835260209283019290910190600101613cf0565b6101e081016040868337613d266040830186613a9f565b60408460c084013761010082018360005b6007811015613b0b578151835260209283019290910190600101613d37565b604081526000613d696040830186613534565b8281036020840152613d7c818587613b8e565b9695505050505050565b61016081016040868337613d9d6040830186613a9f565b60408460c084013761010082018360005b6003811015613b0b578151835260209283019290910190600101613dae565b634e487b7160e01b600052601160045260246000fd5b600060018201613df557613df5613dcd565b5060010190565b600082601f830112613e0d57600080fd5b8151613e1b6132618261321e565b8082825260208201915060208360051b860101925085831115613e3d57600080fd5b602085015b838110156132a5578051835260209283019201613e42565b600060208284031215613e6c57600080fd5b815167ffffffffffffffff811115613e8357600080fd5b82016101008185031215613e9657600080fd5b613e9e6131c3565b81518152613eae60208301613b17565b6020820152604082015167ffffffffffffffff811115613ecd57600080fd5b613ed986828501613dfc565b6040830152506060828101519082015260808083015190820152613eff60a08301613b17565b60a082015260c0828101519082015260e091820151918101919091529392505050565b8181038181111561285357612853613dcd565b601f821115610df157806000526020600020601f840160051c81016020851015613f5c5750805b601f840160051c820191505b818110156111945760008155600101613f68565b815167ffffffffffffffff811115613f9657613f966131ad565b613faa81613fa48454613c3d565b84613f35565b6020601f821160018114613fde5760008315613fc65750848201515b600019600385901b1c1916600184901b178455611194565b600084815260208120601f198516915b8281101561400e5787850151825560209485019460019092019101613fee565b508482101561402c5786840151600019600387901b60f8161c191681555b50505050600190811b01905550565b6000825161404d8184602087016134a8565b9190910192915050565b600060a082840312801561406a57600080fd5b5060405160009060a0810167ffffffffffffffff81118282101715614091576140916131ad565b6040528351600381106140a2578283fd5b815260208481015190820152604080850151908201526060808501519082015260809384015193810193909352509092915050565b634e487b7160e01b600052602160045260246000fd5b60608101818360005b60038110156141155781518352602092830192909101906001016140f6565b5050509291505056fea26469706673582212208c14cb3372a0bb96428790554668bcfd68d44e6fee850a3f97c9ad9acf0efcff64736f6c634300081b0033",
  "linkReferences": {
    "@iden3/contracts/lib/Poseidon.sol": {
      "PoseidonUnit3L": [
        {
          "length": 20,
          "start": 12191
        }
      ]
    },
    "@iden3/contracts/lib/SmtLib.sol": {
      "SmtLib": [
        {
          "length": 20,
          "start": 3218
        },
        {
          "length": 20,
          "start": 4907
        },
        {
          "length": 20,
          "start": 6441
        },
        {
          "length": 20,
          "start": 7605
        },
        {
          "length": 20,
          "start": 9126
        },
        {
          "length": 20,
          "start": 9232
        },
        {
          "length": 20,
          "start": 10084
        },
        {
          "length": 20,
          "start": 10251
        },
        {
          "length": 20,
          "start": 10562
        },
        {
          "length": 20,
          "start": 10793
        },
        {
          "length": 20,
          "start": 11699
        },
        {
          "length": 20,
          "start": 11860
        }
      ]
    }
  },
  "deployedLinkReferences": {
    "@iden3/contracts/lib/Poseidon.sol": {
      "PoseidonUnit3L": [
        {
          "length": 20,
          "start": 12130
        }
      ]
    },
    "@iden3/contracts/lib/SmtLib.sol": {
      "SmtLib": [
        {
          "length": 20,
          "start": 3157
        },
        {
          "length": 20,
          "start": 4846
        },
        {
          "length": 20,
          "start": 6380
        },
        {
          "length": 20,
          "start": 7544
        },
        {
          "length": 20,
          "start": 9065
        },
        {
          "length": 20,
          "start": 9171
        },
        {
          "length": 20,
          "start": 10023
        },
        {
          "length": 20,
          "start": 10190
        },
        {
          "length": 20,
          "start": 10501
        },
        {
          "length": 20,
          "start": 10732
        },
        {
          "length": 20,
          "start": 11638
        },
        {
          "length": 20,
          "start": 11799
        }
      ]
    }
  }
}