{
  "_format": "hh-sol-artifact-1",
  "contractName": "Zeto_AnonNullifierQurrency",
  "sourceName": "contracts/zeto_anon_nullifier_qurrency.sol",
  "abi": [
    {
      "inputs": [
        {
          "internalType": "address",
          "name": "target",
          "type": "address"
        }
      ],
      "name": "AddressEmptyCode",
      "type": "error"
    },
    {
      "inputs": [
        {
          "internalType": "address",
          "name": "implementation",
          "type": "address"
        }
      ],
      "name": "ERC1967InvalidImplementation",
      "type": "error"
    },
    {
      "inputs": [],
      "name": "ERC1967NonPayable",
      "type": "error"
    },
    {
      "inputs": [],
      "name": "FailedCall",
      "type": "error"
    },
    {
      "inputs": [],
      "name": "InvalidInitialization",
      "type": "error"
    },
    {
      "inputs": [],
      "name": "NotInitializing",
      "type": "error"
    },
    {
      "inputs": [
        {
          "internalType": "uint256",
          "name": "utxo",
          "type": "uint256"
        },
        {
          "internalType": "address",
          "name": "delegate",
          "type": "address"
        },
        {
          "internalType": "address",
          "name": "sender",
          "type": "address"
        }
      ],
      "name": "NotLockDelegate",
      "type": "error"
    },
    {
      "inputs": [
        {
          "internalType": "address",
          "name": "owner",
          "type": "address"
        }
      ],
      "name": "OwnableInvalidOwner",
      "type": "error"
    },
    {
      "inputs": [
        {
          "internalType": "address",
          "name": "account",
          "type": "address"
        }
      ],
      "name": "OwnableUnauthorizedAccount",
      "type": "error"
    },
    {
      "inputs": [
        {
          "internalType": "uint256",
          "name": "utxo",
          "type": "uint256"
        }
      ],
      "name": "UTXOAlreadyLocked",
      "type": "error"
    },
    {
      "inputs": [
        {
          "internalType": "uint256",
          "name": "utxo",
          "type": "uint256"
        }
      ],
      "name": "UTXOAlreadyOwned",
      "type": "error"
    },
    {
      "inputs": [
        {
          "internalType": "uint256",
          "name": "utxo",
          "type": "uint256"
        }
      ],
      "name": "UTXOAlreadySpent",
      "type": "error"
    },
    {
      "inputs": [
        {
          "internalType": "uint256",
          "name": "maxAllowed",
          "type": "uint256"
        }
      ],
      "name": "UTXOArrayTooLarge",
      "type": "error"
    },
    {
      "inputs": [
        {
          "internalType": "uint256",
          "name": "utxo",
          "type": "uint256"
        }
      ],
      "name": "UTXODuplicate",
      "type": "error"
    },
    {
      "inputs": [
        {
          "internalType": "uint256",
          "name": "utxo",
          "type": "uint256"
        }
      ],
      "name": "UTXONotLocked",
      "type": "error"
    },
    {
      "inputs": [
        {
          "internalType": "uint256",
          "name": "utxo",
          "type": "uint256"
        }
      ],
      "name": "UTXONotMinted",
      "type": "error"
    },
    {
      "inputs": [
        {
          "internalType": "uint256",
          "name": "root",
          "type": "uint256"
        }
      ],
      "name": "UTXORootNotFound",
      "type": "error"
    },
    {
      "inputs": [],
      "name": "UUPSUnauthorizedCallContext",
      "type": "error"
    },
    {
      "inputs": [
        {
          "internalType": "bytes32",
          "name": "slot",
          "type": "bytes32"
        }
      ],
      "name": "UUPSUnsupportedProxiableUUID",
      "type": "error"
    },
    {
      "inputs": [
        {
          "internalType": "uint256",
          "name": "maxAllowed",
          "type": "uint256"
        }
      ],
      "name": "WithdrawArrayTooLarge",
      "type": "error"
    },
    {
      "anonymous": false,
      "inputs": [
        {
          "indexed": false,
          "internalType": "uint64",
          "name": "version",
          "type": "uint64"
        }
      ],
      "name": "Initialized",
      "type": "event"
    },
    {
      "anonymous": false,
      "inputs": [
        {
          "indexed": false,
          "internalType": "uint256[]",
          "name": "lockedOutputs",
          "type": "uint256[]"
        },
        {
          "indexed": true,
          "internalType": "address",
          "name": "oldDelegate",
          "type": "address"
        },
        {
          "indexed": true,
          "internalType": "address",
          "name": "newDelegate",
          "type": "address"
        },
        {
          "indexed": false,
          "internalType": "bytes",
          "name": "data",
          "type": "bytes"
        }
      ],
      "name": "LockDelegateChanged",
      "type": "event"
    },
    {
      "anonymous": false,
      "inputs": [
        {
          "indexed": true,
          "internalType": "address",
          "name": "previousOwner",
          "type": "address"
        },
        {
          "indexed": true,
          "internalType": "address",
          "name": "newOwner",
          "type": "address"
        }
      ],
      "name": "OwnershipTransferred",
      "type": "event"
    },
    {
      "anonymous": false,
      "inputs": [
        {
          "indexed": false,
          "internalType": "uint256[]",
          "name": "inputs",
          "type": "uint256[]"
        },
        {
          "indexed": false,
          "internalType": "uint256",
          "name": "output",
          "type": "uint256"
        },
        {
          "indexed": true,
          "internalType": "address",
          "name": "submitter",
          "type": "address"
        },
        {
          "indexed": false,
          "internalType": "bytes",
          "name": "data",
          "type": "bytes"
        }
      ],
      "name": "UTXOBurn",
      "type": "event"
    },
    {
      "anonymous": false,
      "inputs": [
        {
          "indexed": false,
          "internalType": "uint256[]",
          "name": "outputs",
          "type": "uint256[]"
        },
        {
          "indexed": true,
          "internalType": "address",
          "name": "submitter",
          "type": "address"
        },
        {
          "indexed": false,
          "internalType": "bytes",
          "name": "data",
          "type": "bytes"
        }
      ],
      "name": "UTXOMint",
      "type": "event"
    },
    {
      "anonymous": false,
      "inputs": [
        {
          "indexed": false,
          "internalType": "uint256[]",
          "name": "inputs",
          "type": "uint256[]"
        },
        {
          "indexed": false,
          "internalType": "uint256[]",
          "name": "outputs",
          "type": "uint256[]"
        },
        {
          "indexed": true,
          "internalType": "address",
          "name": "submitter",
          "type": "address"
        },
        {
          "indexed": false,
          "internalType": "bytes",
          "name": "data",
          "type": "bytes"
        }
      ],
      "name": "UTXOTransfer",
      "type": "event"
    },
    {
      "anonymous": false,
      "inputs": [
        {
          "indexed": false,
          "internalType": "uint256[]",
          "name": "inputs",
          "type": "uint256[]"
        },
        {
          "indexed": false,
          "internalType": "uint256[]",
          "name": "outputs",
          "type": "uint256[]"
        },
        {
          "indexed": false,
          "internalType": "uint256",
          "name": "encryptionNonce",
          "type": "uint256"
        },
        {
          "indexed": false,
          "internalType": "uint256[2]",
          "name": "ecdhPublicKey",
          "type": "uint256[2]"
        },
        {
          "indexed": false,
          "internalType": "uint256[]",
          "name": "encryptedValues",
          "type": "uint256[]"
        },
        {
          "indexed": true,
          "internalType": "address",
          "name": "submitter",
          "type": "address"
        },
        {
          "indexed": false,
          "internalType": "bytes",
          "name": "data",
          "type": "bytes"
        }
      ],
      "name": "UTXOTransferWithEncryptedValues",
      "type": "event"
    },
    {
      "anonymous": false,
      "inputs": [
        {
          "indexed": false,
          "internalType": "uint256",
          "name": "amount",
          "type": "uint256"
        },
        {
          "indexed": false,
          "internalType": "uint256[]",
          "name": "inputs",
          "type": "uint256[]"
        },
        {
          "indexed": false,
          "internalType": "uint256",
          "name": "output",
          "type": "uint256"
        },
        {
          "indexed": true,
          "internalType": "address",
          "name": "submitter",
          "type": "address"
        },
        {
          "indexed": false,
          "internalType": "bytes",
          "name": "data",
          "type": "bytes"
        }
      ],
      "name": "UTXOWithdraw",
      "type": "event"
    },
    {
      "anonymous": false,
      "inputs": [
        {
          "indexed": false,
          "internalType": "uint256[]",
          "name": "inputs",
          "type": "uint256[]"
        },
        {
          "indexed": false,
          "internalType": "uint256[]",
          "name": "outputs",
          "type": "uint256[]"
        },
        {
          "indexed": false,
          "internalType": "uint256[]",
          "name": "lockedOutputs",
          "type": "uint256[]"
        },
        {
          "indexed": true,
          "internalType": "address",
          "name": "delegate",
          "type": "address"
        },
        {
          "indexed": true,
          "internalType": "address",
          "name": "submitter",
          "type": "address"
        },
        {
          "indexed": false,
          "internalType": "bytes",
          "name": "data",
          "type": "bytes"
        }
      ],
      "name": "UTXOsLocked",
      "type": "event"
    },
    {
      "anonymous": false,
      "inputs": [
        {
          "indexed": true,
          "internalType": "address",
          "name": "implementation",
          "type": "address"
        }
      ],
      "name": "Upgraded",
      "type": "event"
    },
    {
      "inputs": [],
      "name": "UPGRADE_INTERFACE_VERSION",
      "outputs": [
        {
          "internalType": "string",
          "name": "",
          "type": "string"
        }
      ],
      "stateMutability": "view",
      "type": "function"
    },
    {
      "inputs": [
        {
          "internalType": "contract Groth16Verifier_Deposit",
          "name": "depositVerifier",
          "type": "address"
        }
      ],
      "name": "__ZetoFungible_init",
      "outputs": [],
      "stateMutability": "nonpayable",
      "type": "function"
    },
    {
      "inputs": [
        {
          "internalType": "uint256",
          "name": "amount",
          "type": "uint256"
        },
        {
          "internalType": "uint256[]",
          "name": "outputs",
          "type": "uint256[]"
        },
        {
          "components": [
            {
              "internalType": "uint256[2]",
              "name": "pA",
              "type": "uint256[2]"
            },
            {
              "internalType": "uint256[2][2]",
              "name": "pB",
              "type": "uint256[2][2]"
            },
            {
              "internalType": "uint256[2]",
              "name": "pC",
              "type": "uint256[2]"
            }
          ],
          "internalType": "struct Commonlib.Proof",
          "name": "proof",
          "type": "tuple"
        }
      ],
      "name": "_deposit",
      "outputs": [],
      "stateMutability": "nonpayable",
      "type": "function"
    },
    {
      "inputs": [
        {
          "internalType": "uint256",
          "name": "amount",
          "type": "uint256"
        },
        {
          "internalType": "uint256[]",
          "name": "nullifiers",
          "type": "uint256[]"
        },
        {
          "internalType": "uint256",
          "name": "output",
          "type": "uint256"
        },
        {
          "internalType": "uint256",
          "name": "root",
          "type": "uint256"
        },
        {
          "components": [
            {
              "internalType": "uint256[2]",
              "name": "pA",
              "type": "uint256[2]"
            },
            {
              "internalType": "uint256[2][2]",
              "name": "pB",
              "type": "uint256[2][2]"
            },
            {
              "internalType": "uint256[2]",
              "name": "pC",
              "type": "uint256[2]"
            }
          ],
          "internalType": "struct Commonlib.Proof",
          "name": "proof",
          "type": "tuple"
        }
      ],
      "name": "_withdrawWithNullifiers",
      "outputs": [],
      "stateMutability": "nonpayable",
      "type": "function"
    },
    {
      "inputs": [
        {
          "internalType": "uint256[]",
          "name": "commitments",
          "type": "uint256[]"
        }
      ],
      "name": "checkAndPadCommitments",
      "outputs": [
        {
          "internalType": "uint256[]",
          "name": "",
          "type": "uint256[]"
        }
      ],
      "stateMutability": "pure",
      "type": "function"
    },
    {
      "inputs": [],
      "name": "decimals",
      "outputs": [
        {
          "internalType": "uint8",
          "name": "",
          "type": "uint8"
        }
      ],
      "stateMutability": "view",
      "type": "function"
    },
    {
      "inputs": [
        {
          "internalType": "uint256[]",
          "name": "utxos",
          "type": "uint256[]"
        },
        {
          "internalType": "address",
          "name": "delegate",
          "type": "address"
        },
        {
          "internalType": "bytes",
          "name": "data",
          "type": "bytes"
        }
      ],
      "name": "delegateLock",
      "outputs": [],
      "stateMutability": "nonpayable",
      "type": "function"
    },
    {
      "inputs": [
        {
          "internalType": "uint256",
          "name": "amount",
          "type": "uint256"
        },
        {
          "internalType": "uint256[]",
          "name": "outputs",
          "type": "uint256[]"
        },
        {
          "components": [
            {
              "internalType": "uint256[2]",
              "name": "pA",
              "type": "uint256[2]"
            },
            {
              "internalType": "uint256[2][2]",
              "name": "pB",
              "type": "uint256[2][2]"
            },
            {
              "internalType": "uint256[2]",
              "name": "pC",
              "type": "uint256[2]"
            }
          ],
          "internalType": "struct Commonlib.Proof",
          "name": "proof",
          "type": "tuple"
        },
        {
          "internalType": "bytes",
          "name": "data",
          "type": "bytes"
        }
      ],
      "name": "deposit",
      "outputs": [],
      "stateMutability": "nonpayable",
      "type": "function"
    },
    {
      "inputs": [],
      "name": "getRoot",
      "outputs": [
        {
          "internalType": "uint256",
          "name": "",
          "type": "uint256"
        }
      ],
      "stateMutability": "view",
      "type": "function"
    },
    {
      "inputs": [],
      "name": "getRootForLocked",
      "outputs": [
        {
          "internalType": "uint256",
          "name": "",
          "type": "uint256"
        }
      ],
      "stateMutability": "view",
      "type": "function"
    },
    {
      "inputs": [
        {
          "internalType": "string",
          "name": "name",
          "type": "string"
        },
        {
          "internalType": "string",
          "name": "symbol",
          "type": "string"
        },
        {
          "internalType": "address",
          "name": "initialOwner",
          "type": "address"
        },
        {
          "components": [
            {
              "internalType": "address",
              "name": "verifier",
              "type": "address"
            },
            {
              "internalType": "address",
              "name": "depositVerifier",
              "type": "address"
            },
            {
              "internalType": "address",
              "name": "withdrawVerifier",
              "type": "address"
            },
            {
              "internalType": "address",
              "name": "lockVerifier",
              "type": "address"
            },
            {
              "internalType": "address",
              "name": "burnVerifier",
              "type": "address"
            },
            {
              "internalType": "address",
              "name": "batchVerifier",
              "type": "address"
            },
            {
              "internalType": "address",
              "name": "batchWithdrawVerifier",
              "type": "address"
            },
            {
              "internalType": "address",
              "name": "batchLockVerifier",
              "type": "address"
            },
            {
              "internalType": "address",
              "name": "batchBurnVerifier",
              "type": "address"
            }
          ],
          "internalType": "struct IZetoInitializable.VerifiersInfo",
          "name": "verifiers",
          "type": "tuple"
        }
      ],
      "name": "initialize",
      "outputs": [],
      "stateMutability": "nonpayable",
      "type": "function"
    },
    {
      "inputs": [
        {
          "internalType": "uint256",
          "name": "utxo",
          "type": "uint256"
        },
        {
          "internalType": "address",
          "name": "delegate",
          "type": "address"
        }
      ],
      "name": "locked",
      "outputs": [
        {
          "internalType": "bool",
          "name": "",
          "type": "bool"
        },
        {
          "internalType": "address",
          "name": "",
          "type": "address"
        }
      ],
      "stateMutability": "view",
      "type": "function"
    },
    {
      "inputs": [
        {
          "internalType": "uint256[]",
          "name": "utxos",
          "type": "uint256[]"
        },
        {
          "internalType": "bytes",
          "name": "data",
          "type": "bytes"
        }
      ],
      "name": "mint",
      "outputs": [],
      "stateMutability": "nonpayable",
      "type": "function"
    },
    {
      "inputs": [],
      "name": "name",
      "outputs": [
        {
          "internalType": "string",
          "name": "",
          "type": "string"
        }
      ],
      "stateMutability": "view",
      "type": "function"
    },
    {
      "inputs": [],
      "name": "owner",
      "outputs": [
        {
          "internalType": "address",
          "name": "",
          "type": "address"
        }
      ],
      "stateMutability": "view",
      "type": "function"
    },
    {
      "inputs": [],
      "name": "proxiableUUID",
      "outputs": [
        {
          "internalType": "bytes32",
          "name": "",
          "type": "bytes32"
        }
      ],
      "stateMutability": "view",
      "type": "function"
    },
    {
      "inputs": [],
      "name": "renounceOwnership",
      "outputs": [],
      "stateMutability": "nonpayable",
      "type": "function"
    },
    {
      "inputs": [
        {
          "internalType": "contract IERC20",
          "name": "erc20",
          "type": "address"
        }
      ],
      "name": "setERC20",
      "outputs": [],
      "stateMutability": "nonpayable",
      "type": "function"
    },
    {
      "inputs": [],
      "name": "symbol",
      "outputs": [
        {
          "internalType": "string",
          "name": "",
          "type": "string"
        }
      ],
      "stateMutability": "view",
      "type": "function"
    },
    {
      "inputs": [
        {
          "internalType": "uint256[]",
          "name": "nullifiers",
          "type": "uint256[]"
        },
        {
          "internalType": "uint256[]",
          "name": "outputs",
          "type": "uint256[]"
        },
        {
          "internalType": "uint256",
          "name": "root",
          "type": "uint256"
        },
        {
          "internalType": "bytes",
          "name": "ciphertext",
          "type": "bytes"
        },
        {
          "components": [
            {
              "internalType": "uint256[2]",
              "name": "pA",
              "type": "uint256[2]"
            },
            {
              "internalType": "uint256[2][2]",
              "name": "pB",
              "type": "uint256[2][2]"
            },
            {
              "internalType": "uint256[2]",
              "name": "pC",
              "type": "uint256[2]"
            }
          ],
          "internalType": "struct Commonlib.Proof",
          "name": "proof",
          "type": "tuple"
        },
        {
          "internalType": "bytes",
          "name": "data",
          "type": "bytes"
        }
      ],
      "name": "transfer",
      "outputs": [
        {
          "internalType": "bool",
          "name": "",
          "type": "bool"
        }
      ],
      "stateMutability": "nonpayable",
      "type": "function"
    },
    {
      "inputs": [
        {
          "internalType": "address",
          "name": "newOwner",
          "type": "address"
        }
      ],
      "name": "transferOwnership",
      "outputs": [],
      "stateMutability": "nonpayable",
      "type": "function"
    },
    {
      "inputs": [
        {
          "internalType": "address",
          "name": "newImplementation",
          "type": "address"
        },
        {
          "internalType": "bytes",
          "name": "data",
          "type": "bytes"
        }
      ],
      "name": "upgradeToAndCall",
      "outputs": [],
      "stateMutability": "payable",
      "type": "function"
    },
    {
      "inputs": [
        {
          "internalType": "uint256[2]",
          "name": "computed_hashes",
          "type": "uint256[2]"
        },
        {
          "internalType": "uint256[]",
          "name": "nullifiers",
          "type": "uint256[]"
        },
        {
          "internalType": "uint256[]",
          "name": "outputs",
          "type": "uint256[]"
        },
        {
          "internalType": "uint256",
          "name": "root",
          "type": "uint256"
        },
        {
          "components": [
            {
              "internalType": "uint256[2]",
              "name": "pA",
              "type": "uint256[2]"
            },
            {
              "internalType": "uint256[2][2]",
              "name": "pB",
              "type": "uint256[2][2]"
            },
            {
              "internalType": "uint256[2]",
              "name": "pC",
              "type": "uint256[2]"
            }
          ],
          "internalType": "struct Commonlib.Proof",
          "name": "proof",
          "type": "tuple"
        }
      ],
      "name": "verifyProof",
      "outputs": [
        {
          "internalType": "bool",
          "name": "",
          "type": "bool"
        }
      ],
      "stateMutability": "view",
      "type": "function"
    },
    {
      "inputs": [
        {
          "internalType": "uint256",
          "name": "amount",
          "type": "uint256"
        },
        {
          "internalType": "uint256[]",
          "name": "nullifiers",
          "type": "uint256[]"
        },
        {
          "internalType": "uint256",
          "name": "output",
          "type": "uint256"
        },
        {
          "internalType": "uint256",
          "name": "root",
          "type": "uint256"
        },
        {
          "components": [
            {
              "internalType": "uint256[2]",
              "name": "pA",
              "type": "uint256[2]"
            },
            {
              "internalType": "uint256[2][2]",
              "name": "pB",
              "type": "uint256[2][2]"
            },
            {
              "internalType": "uint256[2]",
              "name": "pC",
              "type": "uint256[2]"
            }
          ],
          "internalType": "struct Commonlib.Proof",
          "name": "proof",
          "type": "tuple"
        },
        {
          "internalType": "bytes",
          "name": "data",
          "type": "bytes"
        }
      ],
      "name": "withdraw",
      "outputs": [],
      "stateMutability": "nonpayable",
      "type": "function"
    }
  ],
  "bytecode": "0x60a060405230608052348015601357600080fd5b50608051613f8561003d600039600081816118e0015281816119090152611a870152613f856000f3fe60806040526004361061018b5760003560e01c80639e2a7194116100d6578063cd523c731161007f578063f586acdb11610059578063f586acdb1461049a578063f7e648d3146104ba578063f8bf53c0146104cf57600080fd5b8063cd523c731461043a578063da805f111461045a578063f2fde38b1461047a57600080fd5b8063ad3cb1cc116100b0578063ad3cb1cc146103a1578063b940e151146103ea578063c29a6fda1461041a57600080fd5b80639e2a7194146103415780639fcc50af14610361578063a4ef9ad11461038157600080fd5b80635ca1e165116101385780638bb2513b116101125780638bb2513b146102c55780638da5cb5b146102e557806395d89b411461032c57600080fd5b80635ca1e1651461027b57806366eded9914610290578063715018a6146102b057600080fd5b8063313ce56711610169578063313ce567146102275780634f1ef2861461024357806352d1902d1461025857600080fd5b806306fdde031461019057806324ce729e146101bb57806324ef458a146101e8575b600080fd5b34801561019c57600080fd5b506101a56104ef565b6040516101b2919061308e565b60405180910390f35b3480156101c757600080fd5b506101db6101d63660046131e6565b610581565b6040516101b29190613257565b3480156101f457600080fd5b5061020861020336600461327f565b6105f4565b6040805192151583526001600160a01b039091166020830152016101b2565b34801561023357600080fd5b50604051600481526020016101b2565b610256610251366004613326565b61060d565b005b34801561026457600080fd5b5061026d61062c565b6040519081526020016101b2565b34801561028757600080fd5b5061026d61065b565b34801561029c57600080fd5b506102566102ab3660046133d1565b6106d8565b3480156102bc57600080fd5b506102566107d4565b3480156102d157600080fd5b506102566102e0366004613471565b6107e8565b3480156102f157600080fd5b507f9016d09d72d40fdae2fd8ceac6b6234c7706214fd39c1cd1e609a0528c199300546040516001600160a01b0390911681526020016101b2565b34801561033857600080fd5b506101a5610800565b34801561034d57600080fd5b5061025661035c3660046134df565b61080f565b34801561036d57600080fd5b5061025661037c36600461354c565b610ba5565b34801561038d57600080fd5b5061025661039c366004613569565b610bcf565b3480156103ad57600080fd5b506101a56040518060400160405280600581526020017f352e302e3000000000000000000000000000000000000000000000000000000081525081565b3480156103f657600080fd5b5061040a6104053660046135e7565b610e0b565b60405190151581526020016101b2565b34801561042657600080fd5b5061025661043536600461354c565b610fc8565b34801561044657600080fd5b5061025661045536600461368f565b610ff2565b34801561046657600080fd5b5061025661047536600461371c565b611008565b34801561048657600080fd5b5061025661049536600461354c565b611232565b3480156104a657600080fd5b506102566104b5366004613775565b611289565b3480156104c657600080fd5b5061026d611460565b3480156104db57600080fd5b5061040a6104ea36600461380d565b61149b565b6060600080546104fe906138d1565b80601f016020809104026020016040519081016040528092919081815260200182805461052a906138d1565b80156105775780601f1061054c57610100808354040283529160200191610577565b820191906000526020600020905b81548152906001019060200180831161055a57829003601f168201915b5050505050905090565b8051606090600a8111156105c9576040517f9ebbc98e000000000000000000000000000000000000000000000000000000008152600a60048201526024015b60405180910390fd5b600060028211156105dc5750600a6105e0565b5060025b6105ec8482600061173f565b949350505050565b600080610601848461181f565b915091505b9250929050565b6106156118d5565b61061e8261198c565b6106288282611994565b5050565b6000610636611a7c565b507f360894a13ba1a3210667c828492db98dca3e2076cc3735a920a3ca505d382bbc90565b6040516379f9712560e01b81526002600482015260009073__$dc6c4dd02ac6da041aea5ed0aea43c2a22$__906379f97125906024015b602060405180830381865af41580156106af573d6000803e3d6000fd5b505050506040513d601f19601f820116820180604052508101906106d39190613905565b905090565b6000865167ffffffffffffffff8111156106f4576106f46130c1565b60405190808252806020026020018201604052801561071d578160200160208202803683370190505b50905085816000815181106107345761073461391e565b60200260200101818152505061074987610581565b965061075481610581565b90506107638782876000611ac5565b50610771888888888861080f565b60606107808883836000611ae5565b336001600160a01b03167f7d8a8f009bcd9cd0dc27e36fe37cc7cfe2bbd1469c0970d31046d3c12ec7f48c8a8a8a88886040516107c195949392919061395d565b60405180910390a2505050505050505050565b6107dc611b01565b6107e66000611b75565b565b6107f0611b01565b6107fb838383611be6565b505050565b6060600180546104fe906138d1565b60028451111561099057601784511115610858576040517f71798fb5000000000000000000000000000000000000000000000000000000008152601760048201526024016105c0565b6000610868868686866017611c43565b9050610872612fb3565b60005b60178110156108b7578281815181106108905761089061391e565b60200260200101518282601781106108aa576108aa61391e565b6020020152600101610875565b50606a54604080517fa0c2a19a0000000000000000000000000000000000000000000000000000000081526001600160a01b039092169163a0c2a19a9161090c91879182019060c083019087906004016139c0565b602060405180830381865afa158015610929573d6000803e3d6000fd5b505050506040513d601f19601f8201168201806040525081019061094d9190613a28565b6109895760405162461bcd60e51b815260206004820152600d60248201526c24b73b30b634b210383937b7b360991b60448201526064016105c0565b5050610ac4565b60006109a0868686866007611c43565b90506109aa612fd2565b60005b60078110156109ef578281815181106109c8576109c861391e565b60200260200101518282600781106109e2576109e261391e565b60200201526001016109ad565b50606954604080517fc894e7570000000000000000000000000000000000000000000000000000000081526001600160a01b039092169163c894e75791610a4491879182019060c08301908790600401613a43565b602060405180830381865afa158015610a61573d6000803e3d6000fd5b505050506040513d601f19601f82011682018060405250810190610a859190613a28565b610ac15760405162461bcd60e51b815260206004820152600d60248201526c24b73b30b634b210383937b7b360991b60448201526064016105c0565b50505b6068546040517fa9059cbb000000000000000000000000000000000000000000000000000000008152336004820152602481018790526001600160a01b039091169063a9059cbb906044016020604051808303816000875af1158015610b2e573d6000803e3d6000fd5b505050506040513d601f19601f82011682018060405250810190610b529190613a28565b610b9e5760405162461bcd60e51b815260206004820152601f60248201527f4661696c656420746f207472616e7366657220455243323020746f6b656e730060448201526064016105c0565b5050505050565b610bad611dd7565b606780546001600160a01b0319166001600160a01b0392909216919091179055565b60005b8451811015610db557848181518110610bed57610bed61391e565b602002602001015160000315610dad57600080610c23878481518110610c1557610c1561391e565b60200260200101513361181f565b909250905081610c7c57868381518110610c3f57610c3f61391e565b60200260200101516040517fe41859a60000000000000000000000000000000000000000000000000000000081526004016105c091815260200190565b6001600160a01b0381163314610cf457868381518110610c9e57610c9e61391e565b60209081029190910101516040517f9fec262f00000000000000000000000000000000000000000000000000000000815260048101919091526001600160a01b03871660248201523360448201526064016105c0565b603473__$dc6c4dd02ac6da041aea5ed0aea43c2a22$__63c1d29f019091898681518110610d2457610d2461391e565b60209081029190910101516040517fffffffff0000000000000000000000000000000000000000000000000000000060e085901b168152600481019290925260248201526001600160a01b038916604482015260640160006040518083038186803b158015610d9257600080fd5b505af4158015610da6573d6000803e3d6000fd5b5050505050505b600101610bd2565b50826001600160a01b0316336001600160a01b03167fb81fc4239cf1f8a9964a337bb7866ffeb712f9e482d9cef0f5fac9fe3bd655b2868585604051610dfd93929190613a8a565b60405180910390a350505050565b6000610e1688610581565b9750610e2187610581565b9650610e308888886000611ac5565b506000610e3c86611e3e565b9050610e4b818a8a8a8961149b565b506060610e5b8a8a836000611ae5565b60008a5167ffffffffffffffff811115610e7757610e776130c1565b604051908082528060200260200182016040528015610ea0578160200160208202803683370190505b50905060008a5167ffffffffffffffff811115610ebf57610ebf6130c1565b604051908082528060200260200182016040528015610ee8578160200160208202803683370190505b50905060005b8c51811015610f6e578c8181518110610f0957610f0961391e565b6020026020010151838281518110610f2357610f2361391e565b6020026020010181815250508b8181518110610f4157610f4161391e565b6020026020010151828281518110610f5b57610f5b61391e565b6020908102919091010152600101610eee565b50336001600160a01b03167fcb56a7130431b68e0e636f24584d40580490c1bf882bef3701f317d47ba98c3883838a8a604051610fae9493929190613aba565b60405180910390a25060019b9a5050505050505050505050565b610fd0611b01565b606880546001600160a01b0319166001600160a01b0392909216919091179055565b610ffd858585611008565b610b9e848383611be6565b611010612ff0565b838152825183906000906110265761102661391e565b6020026020010151816001600381106110415761104161391e565b602002015282518390600190811061105b5761105b61391e565b6020026020010151816002600381106110765761107661391e565b6020020152606754604080517f11479fea0000000000000000000000000000000000000000000000000000000081526001600160a01b03909216916311479fea916110cf91869182019060c08301908790600401613aff565b602060405180830381865afa1580156110ec573d6000803e3d6000fd5b505050506040513d601f19601f820116820180604052508101906111109190613a28565b61114c5760405162461bcd60e51b815260206004820152600d60248201526c24b73b30b634b210383937b7b360991b60448201526064016105c0565b6068546040517f23b872dd000000000000000000000000000000000000000000000000000000008152336004820152306024820152604481018690526001600160a01b03909116906323b872dd906064016020604051808303816000875af11580156111bc573d6000803e3d6000fd5b505050506040513d601f19601f820116820180604052508101906111e09190613a28565b61122c5760405162461bcd60e51b815260206004820152601f60248201527f4661696c656420746f207472616e7366657220455243323020746f6b656e730060448201526064016105c0565b50505050565b61123a611b01565b6001600160a01b03811661127d576040517f1e4fbdf7000000000000000000000000000000000000000000000000000000008152600060048201526024016105c0565b61128681611b75565b50565b7ff0c57e16840df040f15088dc2f81fe391c3923bec73e23a9662efc9c229c6a00805468010000000000000000810460ff16159067ffffffffffffffff166000811580156112d45750825b905060008267ffffffffffffffff1660011480156112f15750303b155b9050811580156112ff575080155b15611336576040517ff92ee8a900000000000000000000000000000000000000000000000000000000815260040160405180910390fd5b845467ffffffffffffffff19166001178555831561136a57845468ff00000000000000001916680100000000000000001785555b611375898989612031565b6113ad611388604088016020890161354c565b6113986060890160408a0161354c565b6113a860e08a0160c08b0161354c565b612121565b6113ba602087018761354c565b606b80546001600160a01b0319166001600160a01b03929092169190911790556113ea60c0870160a0880161354c565b606c80546001600160a01b0319166001600160a01b0392909216919091179055831561145557845468ff000000000000000019168555604051600181527fc7f505b2f371ae2175ee4913f4499e1f2633a7b5936321eed1cdaeb6115181d29060200160405180910390a15b505050505050505050565b6040516379f9712560e01b81526034600482015260009073__$dc6c4dd02ac6da041aea5ed0aea43c2a22$__906379f9712590602401610692565b60006002855111806114ae575060028451115b156115fd5760006114c58787878760216000612161565b90506114cf61300e565b60005b6021811015611514578281815181106114ed576114ed61391e565b60200260200101518282602181106115075761150761391e565b60200201526001016114d2565b50606c54604080517fee56750f0000000000000000000000000000000000000000000000000000000081526001600160a01b039092169163ee56750f9161156991889182019060c08301908790600401613b46565b602060405180830381865afa158015611586573d6000803e3d6000fd5b505050506040513d601f19601f820116820180604052508101906115aa9190613a28565b6115f65760405162461bcd60e51b815260206004820152601560248201527f496e76616c69642070726f6f662028626174636829000000000000000000000060448201526064016105c0565b5050611733565b600061160f8787878760096000612161565b905061161961302d565b60005b600981101561165e578281815181106116375761163761391e565b60200260200101518282600981106116515761165161391e565b602002015260010161161c565b50606b54604080517fc542c93b0000000000000000000000000000000000000000000000000000000081526001600160a01b039092169163c542c93b916116b391889182019060c08301908790600401613b8d565b602060405180830381865afa1580156116d0573d6000803e3d6000fd5b505050506040513d601f19601f820116820180604052508101906116f49190613a28565b6117305760405162461bcd60e51b815260206004820152600d60248201526c24b73b30b634b210383937b7b360991b60448201526064016105c0565b50505b50600195945050505050565b606082845103611750575082611818565b60008367ffffffffffffffff81111561176b5761176b6130c1565b604051908082528060200260200182016040528015611794578160200160208202803683370190505b50905060005b85518110156117e2578581815181106117b5576117b561391e565b60200260200101518282815181106117cf576117cf61391e565b602090810291909101015260010161179a565b5084515b8481101561181457838282815181106118015761180161391e565b60209081029190910101526001016117e6565b5090505b9392505050565b604051632eda066d60e11b815260346004820152602481018390526000908190819073__$dc6c4dd02ac6da041aea5ed0aea43c2a22$__90635db40cda90604401600060405180830381865af415801561187d573d6000803e3d6000fd5b505050506040513d6000823e601f3d908101601f191682016040526118a59190810190613c32565b9050806020015180156118c45750836001600160a01b03168160800151145b816080015192509250509250929050565b306001600160a01b037f000000000000000000000000000000000000000000000000000000000000000016148061196e57507f00000000000000000000000000000000000000000000000000000000000000006001600160a01b03166119627f360894a13ba1a3210667c828492db98dca3e2076cc3735a920a3ca505d382bbc546001600160a01b031690565b6001600160a01b031614155b156107e65760405163703e46dd60e11b815260040160405180910390fd5b611286611b01565b816001600160a01b03166352d1902d6040518163ffffffff1660e01b8152600401602060405180830381865afa9250505080156119ee575060408051601f3d908101601f191682019092526119eb91810190613905565b60015b611a1657604051634c9c8ce360e01b81526001600160a01b03831660048201526024016105c0565b7f360894a13ba1a3210667c828492db98dca3e2076cc3735a920a3ca505d382bbc8114611a72576040517faa1d49a4000000000000000000000000000000000000000000000000000000008152600481018290526024016105c0565b6107fb8383612377565b306001600160a01b037f000000000000000000000000000000000000000000000000000000000000000016146107e65760405163703e46dd60e11b815260040160405180910390fd5b6000611ad0856123cd565b50611ada84612543565b506117338383612666565b611aee846127bf565b611af78361283a565b61122c8282612921565b33611b337f9016d09d72d40fdae2fd8ceac6b6234c7706214fd39c1cd1e609a0528c199300546001600160a01b031690565b6001600160a01b0316146107e6576040517f118cdaa70000000000000000000000000000000000000000000000000000000081523360048201526024016105c0565b7f9016d09d72d40fdae2fd8ceac6b6234c7706214fd39c1cd1e609a0528c19930080546001600160a01b031981166001600160a01b03848116918217845560405192169182907f8be0079c531659141344cd1fd0a4f28419497f9722a3daafe3b4186f6b6457e090600090a3505050565b611bef83612543565b50611bf98361283a565b336001600160a01b03167f7ff08e0ca1fce6b202b83128811e4f6ceda54930aa074cd365bf68f95c20ce19848484604051611c3693929190613a8a565b60405180910390a2505050565b60608167ffffffffffffffff811115611c5e57611c5e6130c1565b604051908082528060200260200182016040528015611c87578160200160208202803683370190505b5090506000868282611c9881613d10565b935081518110611caa57611caa61391e565b60200260200101818152505060005b8651811015611d0d57868181518110611cd457611cd461391e565b6020026020010151838380611ce890613d10565b945081518110611cfa57611cfa61391e565b6020908102919091010152600101611cb9565b50838282611d1a81613d10565b935081518110611d2c57611d2c61391e565b60200260200101818152505060005b8651811015611da257868181518110611d5657611d5661391e565b6020026020010151600014611d6c576001611d6f565b60005b60ff168383611d7d81613d10565b945081518110611d8f57611d8f61391e565b6020908102919091010152600101611d3b565b50848282611daf81613d10565b935081518110611dc157611dc161391e565b6020026020010181815250505095945050505050565b7ff0c57e16840df040f15088dc2f81fe391c3923bec73e23a9662efc9c229c6a005468010000000000000000900460ff166107e6576040517fd7e6bcf800000000000000000000000000000000000000000000000000000000815260040160405180910390fd5b611e4661304c565b6040805160208082528183019092526000916020820181803683375050604080516103008082526103208201909252929350600092839250829160208201818036833701905050905060005b8151811015611f0157868181518110611ead57611ead61391e565b602001015160f81c60f81b828281518110611eca57611eca61391e565b60200101907effffffffffffffffffffffffffffffffffffffffffffffffffffffffffffff1916908160001a905350600101611e92565b5060208085016103006020840160025afa92506020840151915082611f685760405162461bcd60e51b815260206004820152600b60248201527f68617368206661696c656400000000000000000000000000000000000000000060448201526064016105c0565b81611f7161304c565b60005b6010811015611fc457611f88816008613d29565b6001901b838260208110611f9e57611f9e61391e565b611faa9291901a613d29565b82518390611fb9908390613d40565b905250600101611f74565b5060105b602081101561202557611fdc601082613d53565b611fe7906008613d29565b6001901b838260208110611ffd57611ffd61391e565b6120099291901a613d29565b60208301805161201a908390613d40565b905250600101611fc8565b50979650505050505050565b612039611dd7565b612044838383612a0d565b60408051639e43b81360e01b815260026004820152602481019190915273__$dc6c4dd02ac6da041aea5ed0aea43c2a22$__90639e43b8139060440160006040518083038186803b15801561209857600080fd5b505af41580156120ac573d6000803e3d6000fd5b505060408051639e43b81360e01b815260346004820152602481019190915273__$dc6c4dd02ac6da041aea5ed0aea43c2a22$__9250639e43b813915060440160006040518083038186803b15801561210457600080fd5b505af4158015612118573d6000803e3d6000fd5b50505050505050565b612129611dd7565b61213283610ba5565b606980546001600160a01b039384166001600160a01b031991821617909155606a805492909316911617905550565b60608267ffffffffffffffff81111561217c5761217c6130c1565b6040519080825280602002602001820160405280156121a5578160200160208202803683370190505b5090508660006020020151816000815181106121c3576121c361391e565b60209081029190910101528660016020020151816001815181106121e9576121e961391e565b6020908102919091010152600260005b875181101561224d578781815181106122145761221461391e565b602002602001015183838061222890613d10565b94508151811061223a5761223a61391e565b60209081029190910101526001016121f9565b50821561227f5733828261226081613d10565b9350815181106122725761227261391e565b6020026020010181815250505b84828261228b81613d10565b93508151811061229d5761229d61391e565b60200260200101818152505060005b8751811015612313578781815181106122c7576122c761391e565b60200260200101516000146122dd5760016122e0565b60005b60ff1683836122ee81613d10565b9450815181106123005761230061391e565b60209081029190910101526001016122ac565b5060005b865181101561236b578681815181106123325761233261391e565b602002602001015183838061234690613d10565b9450815181106123585761235861391e565b6020908102919091010152600101612317565b50509695505050505050565b61238082612a37565b6040516001600160a01b038316907fbc7cd75a20ee27fd9adebab32041f755214dbc6bffa90cc0225b39da2e5c2d3b90600090a28051156123c5576107fb8282612aae565b610628612b24565b6000806123d983612b5c565b905060005b815181101561253c578181815181106123f9576123f961391e565b60200260200101516000031561253457600081118015612454575081612420600183613d53565b815181106124305761243061391e565b602002602001015182828151811061244a5761244a61391e565b6020026020010151145b156124a85781818151811061246b5761246b61391e565b60200260200101516040517fdd5748310000000000000000000000000000000000000000000000000000000081526004016105c091815260200190565b606660008383815181106124be576124be61391e565b60209081029190910181015182528101919091526040016000205460ff161515600103612534578181815181106124f7576124f761391e565b60200260200101516040517f41a06d280000000000000000000000000000000000000000000000000000000081526004016105c091815260200190565b6001016123de565b5050919050565b60008061254f83612b5c565b905060005b815181101561253c5781818151811061256f5761256f61391e565b60200260200101516000031561265e576000811180156125ca575081612596600183613d53565b815181106125a6576125a661391e565b60200260200101518282815181106125c0576125c061391e565b6020026020010151145b156125e15781818151811061246b5761246b61391e565b60006126058383815181106125f8576125f861391e565b6020026020010151612bfb565b9050801561265c5782828151811061261f5761261f61391e565b60200260200101516040517f79e1da470000000000000000000000000000000000000000000000000000000081526004016105c091815260200190565b505b600101612554565b60008180156126ed57506040516324bd6c1b60e21b8152603460048201526024810184905273__$dc6c4dd02ac6da041aea5ed0aea43c2a22$__906392f5b06c90604401602060405180830381865af41580156126c7573d6000803e3d6000fd5b505050506040513d601f19601f820116820180604052508101906126eb9190613a28565b155b1561270e57604051630959af5760e31b8152600481018490526024016105c0565b8115801561279457506040516324bd6c1b60e21b8152600260048201526024810184905273__$dc6c4dd02ac6da041aea5ed0aea43c2a22$__906392f5b06c90604401602060405180830381865af415801561276e573d6000803e3d6000fd5b505050506040513d601f19601f820116820180604052508101906127929190613a28565b155b156127b557604051630959af5760e31b8152600481018490526024016105c0565b5060015b92915050565b60005b8151811015610628578181815181106127dd576127dd61391e565b6020026020010151600014612832576001606660008484815181106128045761280461391e565b6020026020010151815260200190815260200160002060006101000a81548160ff0219169083151502179055505b6001016127c2565b60005b8151811015610628578181815181106128585761285861391e565b602002602001015160001461291957600273__$dc6c4dd02ac6da041aea5ed0aea43c2a22$__63c1d29f0190918484815181106128975761289761391e565b60200260200101518585815181106128b1576128b161391e565b60200260200101516040518463ffffffff1660e01b81526004016128e8939291909283526020830191909152604082015260600190565b60006040518083038186803b15801561290057600080fd5b505af4158015612914573d6000803e3d6000fd5b505050505b60010161283d565b60005b82518110156107fb5782818151811061293f5761293f61391e565b6020026020010151600014612a0557603473__$dc6c4dd02ac6da041aea5ed0aea43c2a22$__63c1d29f01909185848151811061297e5761297e61391e565b60209081029190910101516040517fffffffff0000000000000000000000000000000000000000000000000000000060e085901b168152600481019290925260248201526001600160a01b038516604482015260640160006040518083038186803b1580156129ec57600080fd5b505af4158015612a00573d6000803e3d6000fd5b505050505b600101612924565b612a15611dd7565b612a1e81612c17565b6000612a2a8482613dad565b50600161122c8382613dad565b806001600160a01b03163b600003612a6d57604051634c9c8ce360e01b81526001600160a01b03821660048201526024016105c0565b7f360894a13ba1a3210667c828492db98dca3e2076cc3735a920a3ca505d382bbc80546001600160a01b0319166001600160a01b0392909216919091179055565b6060600080846001600160a01b031684604051612acb9190613e6c565b600060405180830381855af49150503d8060008114612b06576040519150601f19603f3d011682016040523d82523d6000602084013e612b0b565b606091505b5091509150612b1b858383612c28565b95945050505050565b34156107e6576040517fb398979f00000000000000000000000000000000000000000000000000000000815260040160405180910390fd5b60606000825167ffffffffffffffff811115612b7a57612b7a6130c1565b604051908082528060200260200182016040528015612ba3578160200160208202803683370190505b50905060005b8351811015612bf157838181518110612bc457612bc461391e565b6020026020010151828281518110612bde57612bde61391e565b6020908102919091010152600101612ba9565b5061181881612c9d565b600080612c0783612cb2565b9050806127b95761181883612d7a565b612c1f611dd7565b61128681612e09565b606082612c3d57612c3882612e11565b611818565b8151158015612c5457506001600160a01b0384163b155b15612c96576040517f9996b3150000000000000000000000000000000000000000000000000000000081526001600160a01b03851660048201526024016105c0565b5080611818565b6060612cab82612e53612e57565b5090919050565b600080612cbf8384612e6f565b6040517fe170cf6e000000000000000000000000000000000000000000000000000000008152600260048201526024810182905290915060009073__$dc6c4dd02ac6da041aea5ed0aea43c2a22$__9063e170cf6e9060440160a060405180830381865af4158015612d35573d6000803e3d6000fd5b505050506040513d601f19601f82011682018060405250810190612d599190613e88565b9050600081516002811115612d7057612d70613f08565b1415949350505050565b604051632eda066d60e11b81526034600482015260248101829052600090819073__$dc6c4dd02ac6da041aea5ed0aea43c2a22$__90635db40cda90604401600060405180830381865af4158015612dd6573d6000803e3d6000fd5b505050506040513d6000823e601f3d908101601f19168201604052612dfe9190810190613c32565b602001519392505050565b61123a611dd7565b805115612e215780518082602001fd5b6040517fd6bda27500000000000000000000000000000000000000000000000000000000815260040160405180910390fd5b1190565b6060612cab60208401612e6985612f1d565b84612f35565b604080516060810182528381526020810183905260018183015290517f25cc70e80000000000000000000000000000000000000000000000000000000081526000919073__$03320550cd1b629da90608251571b2532e$__906325cc70e890612edc908490600401613f1e565b602060405180830381865af4158015612ef9573d6000803e3d6000fd5b505050506040513d601f19601f820116820180604052508101906105ec9190613905565b60008151602002612f2e8360200190565b0192915050565b60408383031015612f4557505050565b6000612f4f845190565b905083602081015b84811015612f9157612f74612f6a825190565b848663ffffffff16565b15612f89576020919091018051825182528252905b602001612f57565b508451815186528152612fa5858285612f35565b610b9e816020018585612f35565b604051806102e001604052806017906020820280368337509192915050565b6040518060e001604052806007906020820280368337509192915050565b60405180606001604052806003906020820280368337509192915050565b6040518061042001604052806021906020820280368337509192915050565b6040518061012001604052806009906020820280368337509192915050565b60405180604001604052806002906020820280368337509192915050565b60005b8381101561308557818101518382015260200161306d565b50506000910152565b60208152600082518060208401526130ad81604085016020870161306a565b601f01601f19169190910160400192915050565b634e487b7160e01b600052604160045260246000fd5b6040805190810167ffffffffffffffff811182821017156130fa576130fa6130c1565b60405290565b604051610100810167ffffffffffffffff811182821017156130fa576130fa6130c1565b604051601f8201601f1916810167ffffffffffffffff8111828210171561314d5761314d6130c1565b604052919050565b600067ffffffffffffffff82111561316f5761316f6130c1565b5060051b60200190565b600082601f83011261318a57600080fd5b813561319d61319882613155565b613124565b8082825260208201915060208360051b8601019250858311156131bf57600080fd5b602085015b838110156131dc5780358352602092830192016131c4565b5095945050505050565b6000602082840312156131f857600080fd5b813567ffffffffffffffff81111561320f57600080fd5b6105ec84828501613179565b600081518084526020840193506020830160005b8281101561324d57815186526020958601959091019060010161322f565b5093949350505050565b602081526000611818602083018461321b565b6001600160a01b038116811461128657600080fd5b6000806040838503121561329257600080fd5b8235915060208301356132a48161326a565b809150509250929050565b600082601f8301126132c057600080fd5b81356020830160008067ffffffffffffffff8411156132e1576132e16130c1565b50601f8301601f19166020016132f681613124565b91505082815285838301111561330b57600080fd5b82826020830137600092810160200192909252509392505050565b6000806040838503121561333957600080fd5b82356133448161326a565b9150602083013567ffffffffffffffff81111561336057600080fd5b61336c858286016132af565b9150509250929050565b6000610100828403121561338957600080fd5b50919050565b60008083601f8401126133a157600080fd5b50813567ffffffffffffffff8111156133b957600080fd5b60208301915083602082850101111561060657600080fd5b60008060008060008060006101a0888a0312156133ed57600080fd5b87359650602088013567ffffffffffffffff81111561340b57600080fd5b6134178a828b01613179565b96505060408801359450606088013593506134358960808a01613376565b925061018088013567ffffffffffffffff81111561345257600080fd5b61345e8a828b0161338f565b989b979a50959850939692959293505050565b60008060006040848603121561348657600080fd5b833567ffffffffffffffff81111561349d57600080fd5b6134a986828701613179565b935050602084013567ffffffffffffffff8111156134c657600080fd5b6134d28682870161338f565b9497909650939450505050565b600080600080600061018086880312156134f857600080fd5b85359450602086013567ffffffffffffffff81111561351657600080fd5b61352288828901613179565b94505060408601359250606086013591506135408760808801613376565b90509295509295909350565b60006020828403121561355e57600080fd5b81356118188161326a565b6000806000806060858703121561357f57600080fd5b843567ffffffffffffffff81111561359657600080fd5b6135a287828801613179565b94505060208501356135b38161326a565b9250604085013567ffffffffffffffff8111156135cf57600080fd5b6135db8782880161338f565b95989497509550505050565b60008060008060008060006101a0888a03121561360357600080fd5b873567ffffffffffffffff81111561361a57600080fd5b6136268a828b01613179565b975050602088013567ffffffffffffffff81111561364357600080fd5b61364f8a828b01613179565b96505060408801359450606088013567ffffffffffffffff81111561367357600080fd5b61367f8a828b016132af565b9450506134358960808a01613376565b600080600080600061016086880312156136a857600080fd5b85359450602086013567ffffffffffffffff8111156136c657600080fd5b6136d288828901613179565b9450506136e28760408801613376565b925061014086013567ffffffffffffffff8111156136ff57600080fd5b61370b8882890161338f565b969995985093965092949392505050565b6000806000610140848603121561373257600080fd5b83359250602084013567ffffffffffffffff81111561375057600080fd5b61375c86828701613179565b92505061376c8560408601613376565b90509250925092565b60008060008084860361018081121561378d57600080fd5b853567ffffffffffffffff8111156137a457600080fd5b6137b0888289016132af565b955050602086013567ffffffffffffffff8111156137cd57600080fd5b6137d9888289016132af565b94505060408601356137ea8161326a565b9250610120605f19820112156137ff57600080fd5b509295919450926060019150565b60008060008060006101a0868803121561382657600080fd5b86601f87011261383557600080fd5b61383d6130d7565b80604088018981111561384f57600080fd5b885b81811015613869578035845260209384019301613851565b5090965035905067ffffffffffffffff81111561388557600080fd5b61389188828901613179565b945050606086013567ffffffffffffffff8111156138ae57600080fd5b6138ba88828901613179565b935050608086013591506135408760a08801613376565b600181811c908216806138e557607f821691505b60208210810361338957634e487b7160e01b600052602260045260246000fd5b60006020828403121561391757600080fd5b5051919050565b634e487b7160e01b600052603260045260246000fd5b81835281816020850137506000828201602090810191909152601f909101601f19169091010190565b858152608060208201526000613976608083018761321b565b856040840152828103606084015261398f818587613934565b98975050505050505050565b8060005b600281101561122c576040828537604093840193919091019060010161399f565b6103e0810160408683376139d7604083018661399b565b60408460c084013761010082018360005b6017811015613a075781518352602092830192909101906001016139e8565b50505095945050505050565b80518015158114613a2357600080fd5b919050565b600060208284031215613a3a57600080fd5b61181882613a13565b6101e081016040868337613a5a604083018661399b565b60408460c084013761010082018360005b6007811015613a07578151835260209283019290910190600101613a6b565b604081526000613a9d604083018661321b565b8281036020840152613ab0818587613934565b9695505050505050565b606081526000613acd606083018761321b565b8281036020840152613adf818761321b565b90508281036040840152613af4818587613934565b979650505050505050565b61016081016040868337613b16604083018661399b565b60408460c084013761010082018360005b6003811015613a07578151835260209283019290910190600101613b27565b61052081016040868337613b5d604083018661399b565b60408460c084013761010082018360005b6021811015613a07578151835260209283019290910190600101613b6e565b61022081016040868337613ba4604083018661399b565b60408460c084013761010082018360005b6009811015613a07578151835260209283019290910190600101613bb5565b600082601f830112613be557600080fd5b8151613bf361319882613155565b8082825260208201915060208360051b860101925085831115613c1557600080fd5b602085015b838110156131dc578051835260209283019201613c1a565b600060208284031215613c4457600080fd5b815167ffffffffffffffff811115613c5b57600080fd5b82016101008185031215613c6e57600080fd5b613c76613100565b81518152613c8660208301613a13565b6020820152604082015167ffffffffffffffff811115613ca557600080fd5b613cb186828501613bd4565b6040830152506060828101519082015260808083015190820152613cd760a08301613a13565b60a082015260c0828101519082015260e091820151918101919091529392505050565b634e487b7160e01b600052601160045260246000fd5b600060018201613d2257613d22613cfa565b5060010190565b80820281158282048414176127b9576127b9613cfa565b808201808211156127b9576127b9613cfa565b818103818111156127b9576127b9613cfa565b601f8211156107fb57806000526020600020601f840160051c81016020851015613d8d5750805b601f840160051c820191505b81811015610b9e5760008155600101613d99565b815167ffffffffffffffff811115613dc757613dc76130c1565b613ddb81613dd584546138d1565b84613d66565b6020601f821160018114613e0f5760008315613df75750848201515b600019600385901b1c1916600184901b178455610b9e565b600084815260208120601f198516915b82811015613e3f5787850151825560209485019460019092019101613e1f565b5084821015613e5d5786840151600019600387901b60f8161c191681555b50505050600190811b01905550565b60008251613e7e81846020870161306a565b9190910192915050565b600060a0828403128015613e9b57600080fd5b5060405160009060a0810167ffffffffffffffff81118282101715613ec257613ec26130c1565b604052835160038110613ed3578283fd5b815260208481015190820152604080850151908201526060808501519082015260809384015193810193909352509092915050565b634e487b7160e01b600052602160045260246000fd5b60608101818360005b6003811015613f46578151835260209283019290910190600101613f27565b5050509291505056fea2646970667358221220602ca05889554ddbe2628c8a08e341810cbd587030db78620922ac8def5b055e64736f6c634300081b0033",
  "linkReferences": {
    "@iden3/contracts/lib/Poseidon.sol": {
      "PoseidonUnit3L": [
        {
          "length": 20,
          "start": 12017
        }
      ]
    },
    "@iden3/contracts/lib/SmtLib.sol": {
      "SmtLib": [
        {
          "length": 20,
          "start": 1713
        },
        {
          "length": 20,
          "start": 3381
        },
        {
          "length": 20,
          "start": 5302
        },
        {
          "length": 20,
          "start": 6272
        },
        {
          "length": 20,
          "start": 8352
        },
        {
          "length": 20,
          "start": 8458
        },
        {
          "length": 20,
          "start": 9930
        },
        {
          "length": 20,
          "start": 10097
        },
        {
          "length": 20,
          "start": 10408
        },
        {
          "length": 20,
          "start": 10639
        },
        {
          "length": 20,
          "start": 11576
        },
        {
          "length": 20,
          "start": 11737
        }
      ]
    }
  },
  "deployedLinkReferences": {
    "@iden3/contracts/lib/Poseidon.sol": {
      "PoseidonUnit3L": [
        {
          "length": 20,
          "start": 11956
        }
      ]
    },
    "@iden3/contracts/lib/SmtLib.sol": {
      "SmtLib": [
        {
          "length": 20,
          "start": 1652
        },
        {
          "length": 20,
          "start": 3320
        },
        {
          "length": 20,
          "start": 5241
        },
        {
          "length": 20,
          "start": 6211
        },
        {
          "length": 20,
          "start": 8291
        },
        {
          "length": 20,
          "start": 8397
        },
        {
          "length": 20,
          "start": 9869
        },
        {
          "length": 20,
          "start": 10036
        },
        {
          "length": 20,
          "start": 10347
        },
        {
          "length": 20,
          "start": 10578
        },
        {
          "length": 20,
          "start": 11515
        },
        {
          "length": 20,
          "start": 11676
        }
      ]
    }
  }
}