{
  "_format": "hh-sol-artifact-1",
  "contractName": "Zeto_Anon",
  "sourceName": "contracts/zeto_anon.sol",
  "abi": [
    {
      "inputs": [
        {
          "internalType": "address",
          "name": "target",
          "type": "address"
        }
      ],
      "name": "AddressEmptyCode",
      "type": "error"
    },
    {
      "inputs": [
        {
          "internalType": "address",
          "name": "implementation",
          "type": "address"
        }
      ],
      "name": "ERC1967InvalidImplementation",
      "type": "error"
    },
    {
      "inputs": [],
      "name": "ERC1967NonPayable",
      "type": "error"
    },
    {
      "inputs": [],
      "name": "FailedCall",
      "type": "error"
    },
    {
      "inputs": [],
      "name": "InvalidInitialization",
      "type": "error"
    },
    {
      "inputs": [],
      "name": "NotInitializing",
      "type": "error"
    },
    {
      "inputs": [
        {
          "internalType": "uint256",
          "name": "utxo",
          "type": "uint256"
        },
        {
          "internalType": "address",
          "name": "delegate",
          "type": "address"
        },
        {
          "internalType": "address",
          "name": "sender",
          "type": "address"
        }
      ],
      "name": "NotLockDelegate",
      "type": "error"
    },
    {
      "inputs": [
        {
          "internalType": "address",
          "name": "owner",
          "type": "address"
        }
      ],
      "name": "OwnableInvalidOwner",
      "type": "error"
    },
    {
      "inputs": [
        {
          "internalType": "address",
          "name": "account",
          "type": "address"
        }
      ],
      "name": "OwnableUnauthorizedAccount",
      "type": "error"
    },
    {
      "inputs": [
        {
          "internalType": "uint256",
          "name": "utxo",
          "type": "uint256"
        }
      ],
      "name": "UTXOAlreadyLocked",
      "type": "error"
    },
    {
      "inputs": [
        {
          "internalType": "uint256",
          "name": "utxo",
          "type": "uint256"
        }
      ],
      "name": "UTXOAlreadyOwned",
      "type": "error"
    },
    {
      "inputs": [
        {
          "internalType": "uint256",
          "name": "utxo",
          "type": "uint256"
        }
      ],
      "name": "UTXOAlreadySpent",
      "type": "error"
    },
    {
      "inputs": [
        {
          "internalType": "uint256",
          "name": "maxAllowed",
          "type": "uint256"
        }
      ],
      "name": "UTXOArrayTooLarge",
      "type": "error"
    },
    {
      "inputs": [
        {
          "internalType": "uint256",
          "name": "utxo",
          "type": "uint256"
        }
      ],
      "name": "UTXODuplicate",
      "type": "error"
    },
    {
      "inputs": [
        {
          "internalType": "uint256",
          "name": "utxo",
          "type": "uint256"
        }
      ],
      "name": "UTXONotLocked",
      "type": "error"
    },
    {
      "inputs": [
        {
          "internalType": "uint256",
          "name": "utxo",
          "type": "uint256"
        }
      ],
      "name": "UTXONotMinted",
      "type": "error"
    },
    {
      "inputs": [],
      "name": "UUPSUnauthorizedCallContext",
      "type": "error"
    },
    {
      "inputs": [
        {
          "internalType": "bytes32",
          "name": "slot",
          "type": "bytes32"
        }
      ],
      "name": "UUPSUnsupportedProxiableUUID",
      "type": "error"
    },
    {
      "inputs": [
        {
          "internalType": "uint256",
          "name": "maxAllowed",
          "type": "uint256"
        }
      ],
      "name": "WithdrawArrayTooLarge",
      "type": "error"
    },
    {
      "anonymous": false,
      "inputs": [
        {
          "indexed": false,
          "internalType": "uint64",
          "name": "version",
          "type": "uint64"
        }
      ],
      "name": "Initialized",
      "type": "event"
    },
    {
      "anonymous": false,
      "inputs": [
        {
          "indexed": false,
          "internalType": "uint256[]",
          "name": "lockedOutputs",
          "type": "uint256[]"
        },
        {
          "indexed": true,
          "internalType": "address",
          "name": "oldDelegate",
          "type": "address"
        },
        {
          "indexed": true,
          "internalType": "address",
          "name": "newDelegate",
          "type": "address"
        },
        {
          "indexed": false,
          "internalType": "bytes",
          "name": "data",
          "type": "bytes"
        }
      ],
      "name": "LockDelegateChanged",
      "type": "event"
    },
    {
      "anonymous": false,
      "inputs": [
        {
          "indexed": true,
          "internalType": "address",
          "name": "previousOwner",
          "type": "address"
        },
        {
          "indexed": true,
          "internalType": "address",
          "name": "newOwner",
          "type": "address"
        }
      ],
      "name": "OwnershipTransferred",
      "type": "event"
    },
    {
      "anonymous": false,
      "inputs": [
        {
          "indexed": false,
          "internalType": "uint256[]",
          "name": "inputs",
          "type": "uint256[]"
        },
        {
          "indexed": false,
          "internalType": "uint256",
          "name": "output",
          "type": "uint256"
        },
        {
          "indexed": true,
          "internalType": "address",
          "name": "submitter",
          "type": "address"
        },
        {
          "indexed": false,
          "internalType": "bytes",
          "name": "data",
          "type": "bytes"
        }
      ],
      "name": "UTXOBurn",
      "type": "event"
    },
    {
      "anonymous": false,
      "inputs": [
        {
          "indexed": false,
          "internalType": "uint256[]",
          "name": "outputs",
          "type": "uint256[]"
        },
        {
          "indexed": true,
          "internalType": "address",
          "name": "submitter",
          "type": "address"
        },
        {
          "indexed": false,
          "internalType": "bytes",
          "name": "data",
          "type": "bytes"
        }
      ],
      "name": "UTXOMint",
      "type": "event"
    },
    {
      "anonymous": false,
      "inputs": [
        {
          "indexed": false,
          "internalType": "uint256[]",
          "name": "inputs",
          "type": "uint256[]"
        },
        {
          "indexed": false,
          "internalType": "uint256[]",
          "name": "outputs",
          "type": "uint256[]"
        },
        {
          "indexed": true,
          "internalType": "address",
          "name": "submitter",
          "type": "address"
        },
        {
          "indexed": false,
          "internalType": "bytes",
          "name": "data",
          "type": "bytes"
        }
      ],
      "name": "UTXOTransfer",
      "type": "event"
    },
    {
      "anonymous": false,
      "inputs": [
        {
          "indexed": false,
          "internalType": "uint256[]",
          "name": "inputs",
          "type": "uint256[]"
        },
        {
          "indexed": false,
          "internalType": "uint256[]",
          "name": "outputs",
          "type": "uint256[]"
        },
        {
          "indexed": false,
          "internalType": "uint256",
          "name": "encryptionNonce",
          "type": "uint256"
        },
        {
          "indexed": false,
          "internalType": "uint256[2]",
          "name": "ecdhPublicKey",
          "type": "uint256[2]"
        },
        {
          "indexed": false,
          "internalType": "uint256[]",
          "name": "encryptedValues",
          "type": "uint256[]"
        },
        {
          "indexed": true,
          "internalType": "address",
          "name": "submitter",
          "type": "address"
        },
        {
          "indexed": false,
          "internalType": "bytes",
          "name": "data",
          "type": "bytes"
        }
      ],
      "name": "UTXOTransferWithEncryptedValues",
      "type": "event"
    },
    {
      "anonymous": false,
      "inputs": [
        {
          "indexed": false,
          "internalType": "uint256",
          "name": "amount",
          "type": "uint256"
        },
        {
          "indexed": false,
          "internalType": "uint256[]",
          "name": "inputs",
          "type": "uint256[]"
        },
        {
          "indexed": false,
          "internalType": "uint256",
          "name": "output",
          "type": "uint256"
        },
        {
          "indexed": true,
          "internalType": "address",
          "name": "submitter",
          "type": "address"
        },
        {
          "indexed": false,
          "internalType": "bytes",
          "name": "data",
          "type": "bytes"
        }
      ],
      "name": "UTXOWithdraw",
      "type": "event"
    },
    {
      "anonymous": false,
      "inputs": [
        {
          "indexed": false,
          "internalType": "uint256[]",
          "name": "inputs",
          "type": "uint256[]"
        },
        {
          "indexed": false,
          "internalType": "uint256[]",
          "name": "outputs",
          "type": "uint256[]"
        },
        {
          "indexed": false,
          "internalType": "uint256[]",
          "name": "lockedOutputs",
          "type": "uint256[]"
        },
        {
          "indexed": true,
          "internalType": "address",
          "name": "delegate",
          "type": "address"
        },
        {
          "indexed": true,
          "internalType": "address",
          "name": "submitter",
          "type": "address"
        },
        {
          "indexed": false,
          "internalType": "bytes",
          "name": "data",
          "type": "bytes"
        }
      ],
      "name": "UTXOsLocked",
      "type": "event"
    },
    {
      "anonymous": false,
      "inputs": [
        {
          "indexed": true,
          "internalType": "address",
          "name": "implementation",
          "type": "address"
        }
      ],
      "name": "Upgraded",
      "type": "event"
    },
    {
      "inputs": [],
      "name": "UPGRADE_INTERFACE_VERSION",
      "outputs": [
        {
          "internalType": "string",
          "name": "",
          "type": "string"
        }
      ],
      "stateMutability": "view",
      "type": "function"
    },
    {
      "inputs": [
        {
          "internalType": "contract Groth16Verifier_Deposit",
          "name": "depositVerifier",
          "type": "address"
        },
        {
          "internalType": "contract Groth16Verifier_Withdraw",
          "name": "withdrawVerifier",
          "type": "address"
        },
        {
          "internalType": "contract Groth16Verifier_WithdrawBatch",
          "name": "batchWithdrawVerifier",
          "type": "address"
        }
      ],
      "name": "__ZetoFungibleWithdraw_init",
      "outputs": [],
      "stateMutability": "nonpayable",
      "type": "function"
    },
    {
      "inputs": [
        {
          "internalType": "contract Groth16Verifier_Deposit",
          "name": "depositVerifier",
          "type": "address"
        }
      ],
      "name": "__ZetoFungible_init",
      "outputs": [],
      "stateMutability": "nonpayable",
      "type": "function"
    },
    {
      "inputs": [
        {
          "internalType": "uint256",
          "name": "amount",
          "type": "uint256"
        },
        {
          "internalType": "uint256[]",
          "name": "outputs",
          "type": "uint256[]"
        },
        {
          "components": [
            {
              "internalType": "uint256[2]",
              "name": "pA",
              "type": "uint256[2]"
            },
            {
              "internalType": "uint256[2][2]",
              "name": "pB",
              "type": "uint256[2][2]"
            },
            {
              "internalType": "uint256[2]",
              "name": "pC",
              "type": "uint256[2]"
            }
          ],
          "internalType": "struct Commonlib.Proof",
          "name": "proof",
          "type": "tuple"
        }
      ],
      "name": "_deposit",
      "outputs": [],
      "stateMutability": "nonpayable",
      "type": "function"
    },
    {
      "inputs": [
        {
          "internalType": "uint256",
          "name": "amount",
          "type": "uint256"
        },
        {
          "internalType": "uint256[]",
          "name": "inputs",
          "type": "uint256[]"
        },
        {
          "internalType": "uint256",
          "name": "output",
          "type": "uint256"
        },
        {
          "components": [
            {
              "internalType": "uint256[2]",
              "name": "pA",
              "type": "uint256[2]"
            },
            {
              "internalType": "uint256[2][2]",
              "name": "pB",
              "type": "uint256[2][2]"
            },
            {
              "internalType": "uint256[2]",
              "name": "pC",
              "type": "uint256[2]"
            }
          ],
          "internalType": "struct Commonlib.Proof",
          "name": "proof",
          "type": "tuple"
        }
      ],
      "name": "_withdraw",
      "outputs": [],
      "stateMutability": "nonpayable",
      "type": "function"
    },
    {
      "inputs": [
        {
          "internalType": "uint256[]",
          "name": "commitments",
          "type": "uint256[]"
        }
      ],
      "name": "checkAndPadCommitments",
      "outputs": [
        {
          "internalType": "uint256[]",
          "name": "",
          "type": "uint256[]"
        }
      ],
      "stateMutability": "pure",
      "type": "function"
    },
    {
      "inputs": [],
      "name": "decimals",
      "outputs": [
        {
          "internalType": "uint8",
          "name": "",
          "type": "uint8"
        }
      ],
      "stateMutability": "view",
      "type": "function"
    },
    {
      "inputs": [
        {
          "internalType": "uint256[]",
          "name": "utxos",
          "type": "uint256[]"
        },
        {
          "internalType": "address",
          "name": "delegate",
          "type": "address"
        },
        {
          "internalType": "bytes",
          "name": "data",
          "type": "bytes"
        }
      ],
      "name": "delegateLock",
      "outputs": [],
      "stateMutability": "nonpayable",
      "type": "function"
    },
    {
      "inputs": [
        {
          "internalType": "uint256",
          "name": "amount",
          "type": "uint256"
        },
        {
          "internalType": "uint256[]",
          "name": "outputs",
          "type": "uint256[]"
        },
        {
          "components": [
            {
              "internalType": "uint256[2]",
              "name": "pA",
              "type": "uint256[2]"
            },
            {
              "internalType": "uint256[2][2]",
              "name": "pB",
              "type": "uint256[2][2]"
            },
            {
              "internalType": "uint256[2]",
              "name": "pC",
              "type": "uint256[2]"
            }
          ],
          "internalType": "struct Commonlib.Proof",
          "name": "proof",
          "type": "tuple"
        },
        {
          "internalType": "bytes",
          "name": "data",
          "type": "bytes"
        }
      ],
      "name": "deposit",
      "outputs": [],
      "stateMutability": "nonpayable",
      "type": "function"
    },
    {
      "inputs": [
        {
          "internalType": "string",
          "name": "name",
          "type": "string"
        },
        {
          "internalType": "string",
          "name": "symbol",
          "type": "string"
        },
        {
          "internalType": "address",
          "name": "initialOwner",
          "type": "address"
        },
        {
          "components": [
            {
              "internalType": "address",
              "name": "verifier",
              "type": "address"
            },
            {
              "internalType": "address",
              "name": "depositVerifier",
              "type": "address"
            },
            {
              "internalType": "address",
              "name": "withdrawVerifier",
              "type": "address"
            },
            {
              "internalType": "address",
              "name": "lockVerifier",
              "type": "address"
            },
            {
              "internalType": "address",
              "name": "burnVerifier",
              "type": "address"
            },
            {
              "internalType": "address",
              "name": "batchVerifier",
              "type": "address"
            },
            {
              "internalType": "address",
              "name": "batchWithdrawVerifier",
              "type": "address"
            },
            {
              "internalType": "address",
              "name": "batchLockVerifier",
              "type": "address"
            },
            {
              "internalType": "address",
              "name": "batchBurnVerifier",
              "type": "address"
            }
          ],
          "internalType": "struct IZetoInitializable.VerifiersInfo",
          "name": "verifiers",
          "type": "tuple"
        }
      ],
      "name": "initialize",
      "outputs": [],
      "stateMutability": "nonpayable",
      "type": "function"
    },
    {
      "inputs": [
        {
          "internalType": "uint256[]",
          "name": "inputs",
          "type": "uint256[]"
        },
        {
          "internalType": "uint256[]",
          "name": "outputs",
          "type": "uint256[]"
        },
        {
          "internalType": "uint256[]",
          "name": "lockedOutputs",
          "type": "uint256[]"
        },
        {
          "components": [
            {
              "internalType": "uint256[2]",
              "name": "pA",
              "type": "uint256[2]"
            },
            {
              "internalType": "uint256[2][2]",
              "name": "pB",
              "type": "uint256[2][2]"
            },
            {
              "internalType": "uint256[2]",
              "name": "pC",
              "type": "uint256[2]"
            }
          ],
          "internalType": "struct Commonlib.Proof",
          "name": "proof",
          "type": "tuple"
        },
        {
          "internalType": "address",
          "name": "delegate",
          "type": "address"
        },
        {
          "internalType": "bytes",
          "name": "data",
          "type": "bytes"
        }
      ],
      "name": "lock",
      "outputs": [],
      "stateMutability": "nonpayable",
      "type": "function"
    },
    {
      "inputs": [
        {
          "internalType": "uint256",
          "name": "utxo",
          "type": "uint256"
        }
      ],
      "name": "locked",
      "outputs": [
        {
          "internalType": "bool",
          "name": "",
          "type": "bool"
        },
        {
          "internalType": "address",
          "name": "",
          "type": "address"
        }
      ],
      "stateMutability": "view",
      "type": "function"
    },
    {
      "inputs": [
        {
          "internalType": "uint256[]",
          "name": "utxos",
          "type": "uint256[]"
        },
        {
          "internalType": "bytes",
          "name": "data",
          "type": "bytes"
        }
      ],
      "name": "mint",
      "outputs": [],
      "stateMutability": "nonpayable",
      "type": "function"
    },
    {
      "inputs": [],
      "name": "name",
      "outputs": [
        {
          "internalType": "string",
          "name": "",
          "type": "string"
        }
      ],
      "stateMutability": "view",
      "type": "function"
    },
    {
      "inputs": [],
      "name": "owner",
      "outputs": [
        {
          "internalType": "address",
          "name": "",
          "type": "address"
        }
      ],
      "stateMutability": "view",
      "type": "function"
    },
    {
      "inputs": [],
      "name": "proxiableUUID",
      "outputs": [
        {
          "internalType": "bytes32",
          "name": "",
          "type": "bytes32"
        }
      ],
      "stateMutability": "view",
      "type": "function"
    },
    {
      "inputs": [],
      "name": "renounceOwnership",
      "outputs": [],
      "stateMutability": "nonpayable",
      "type": "function"
    },
    {
      "inputs": [
        {
          "internalType": "contract IERC20",
          "name": "erc20",
          "type": "address"
        }
      ],
      "name": "setERC20",
      "outputs": [],
      "stateMutability": "nonpayable",
      "type": "function"
    },
    {
      "inputs": [
        {
          "internalType": "uint256",
          "name": "txo",
          "type": "uint256"
        }
      ],
      "name": "spent",
      "outputs": [
        {
          "internalType": "bool",
          "name": "",
          "type": "bool"
        }
      ],
      "stateMutability": "view",
      "type": "function"
    },
    {
      "inputs": [],
      "name": "symbol",
      "outputs": [
        {
          "internalType": "string",
          "name": "",
          "type": "string"
        }
      ],
      "stateMutability": "view",
      "type": "function"
    },
    {
      "inputs": [
        {
          "internalType": "uint256[]",
          "name": "inputs",
          "type": "uint256[]"
        },
        {
          "internalType": "uint256[]",
          "name": "outputs",
          "type": "uint256[]"
        },
        {
          "components": [
            {
              "internalType": "uint256[2]",
              "name": "pA",
              "type": "uint256[2]"
            },
            {
              "internalType": "uint256[2][2]",
              "name": "pB",
              "type": "uint256[2][2]"
            },
            {
              "internalType": "uint256[2]",
              "name": "pC",
              "type": "uint256[2]"
            }
          ],
          "internalType": "struct Commonlib.Proof",
          "name": "proof",
          "type": "tuple"
        },
        {
          "internalType": "bytes",
          "name": "data",
          "type": "bytes"
        }
      ],
      "name": "transfer",
      "outputs": [
        {
          "internalType": "bool",
          "name": "",
          "type": "bool"
        }
      ],
      "stateMutability": "nonpayable",
      "type": "function"
    },
    {
      "inputs": [
        {
          "internalType": "uint256[]",
          "name": "inputs",
          "type": "uint256[]"
        },
        {
          "internalType": "uint256[]",
          "name": "outputs",
          "type": "uint256[]"
        },
        {
          "components": [
            {
              "internalType": "uint256[2]",
              "name": "pA",
              "type": "uint256[2]"
            },
            {
              "internalType": "uint256[2][2]",
              "name": "pB",
              "type": "uint256[2][2]"
            },
            {
              "internalType": "uint256[2]",
              "name": "pC",
              "type": "uint256[2]"
            }
          ],
          "internalType": "struct Commonlib.Proof",
          "name": "proof",
          "type": "tuple"
        },
        {
          "internalType": "bytes",
          "name": "data",
          "type": "bytes"
        }
      ],
      "name": "transferLocked",
      "outputs": [
        {
          "internalType": "bool",
          "name": "",
          "type": "bool"
        }
      ],
      "stateMutability": "nonpayable",
      "type": "function"
    },
    {
      "inputs": [
        {
          "internalType": "address",
          "name": "newOwner",
          "type": "address"
        }
      ],
      "name": "transferOwnership",
      "outputs": [],
      "stateMutability": "nonpayable",
      "type": "function"
    },
    {
      "inputs": [
        {
          "internalType": "uint256[]",
          "name": "inputs",
          "type": "uint256[]"
        },
        {
          "internalType": "uint256[]",
          "name": "outputs",
          "type": "uint256[]"
        },
        {
          "components": [
            {
              "internalType": "uint256[2]",
              "name": "pA",
              "type": "uint256[2]"
            },
            {
              "internalType": "uint256[2][2]",
              "name": "pB",
              "type": "uint256[2][2]"
            },
            {
              "internalType": "uint256[2]",
              "name": "pC",
              "type": "uint256[2]"
            }
          ],
          "internalType": "struct Commonlib.Proof",
          "name": "proof",
          "type": "tuple"
        },
        {
          "internalType": "bytes",
          "name": "data",
          "type": "bytes"
        }
      ],
      "name": "unlock",
      "outputs": [],
      "stateMutability": "nonpayable",
      "type": "function"
    },
    {
      "inputs": [
        {
          "internalType": "address",
          "name": "newImplementation",
          "type": "address"
        },
        {
          "internalType": "bytes",
          "name": "data",
          "type": "bytes"
        }
      ],
      "name": "upgradeToAndCall",
      "outputs": [],
      "stateMutability": "payable",
      "type": "function"
    },
    {
      "inputs": [
        {
          "internalType": "uint256[]",
          "name": "inputs",
          "type": "uint256[]"
        },
        {
          "internalType": "uint256[]",
          "name": "outputs",
          "type": "uint256[]"
        },
        {
          "components": [
            {
              "internalType": "uint256[2]",
              "name": "pA",
              "type": "uint256[2]"
            },
            {
              "internalType": "uint256[2][2]",
              "name": "pB",
              "type": "uint256[2][2]"
            },
            {
              "internalType": "uint256[2]",
              "name": "pC",
              "type": "uint256[2]"
            }
          ],
          "internalType": "struct Commonlib.Proof",
          "name": "proof",
          "type": "tuple"
        }
      ],
      "name": "verifyProof",
      "outputs": [
        {
          "internalType": "bool",
          "name": "",
          "type": "bool"
        }
      ],
      "stateMutability": "view",
      "type": "function"
    },
    {
      "inputs": [
        {
          "internalType": "uint256",
          "name": "amount",
          "type": "uint256"
        },
        {
          "internalType": "uint256[]",
          "name": "inputs",
          "type": "uint256[]"
        },
        {
          "internalType": "uint256",
          "name": "output",
          "type": "uint256"
        },
        {
          "components": [
            {
              "internalType": "uint256[2]",
              "name": "pA",
              "type": "uint256[2]"
            },
            {
              "internalType": "uint256[2][2]",
              "name": "pB",
              "type": "uint256[2][2]"
            },
            {
              "internalType": "uint256[2]",
              "name": "pC",
              "type": "uint256[2]"
            }
          ],
          "internalType": "struct Commonlib.Proof",
          "name": "proof",
          "type": "tuple"
        },
        {
          "internalType": "bytes",
          "name": "data",
          "type": "bytes"
        }
      ],
      "name": "withdraw",
      "outputs": [],
      "stateMutability": "nonpayable",
      "type": "function"
    }
  ],
  "bytecode": "0x60a060405230608052348015601357600080fd5b50608051613a4761003d60003960008181611c9d01528181611cc60152611e440152613a476000f3fe6080604052600436106101ac5760003560e01c80638da5cb5b116100ec578063cd523c731161008a578063da805f1111610064578063da805f1114610506578063f2fde38b14610526578063f586acdb14610546578063fb85d41c1461056657600080fd5b8063cd523c73146104a6578063d46e446a146104c6578063d5b5cc23146104e657600080fd5b8063a4ef9ad1116100c6578063a4ef9ad1146103de578063ad3cb1cc146103fe578063b45a3c0e14610447578063c29a6fda1461048657600080fd5b80638da5cb5b1461036257806395d89b41146103a95780639fcc50af146103be57600080fd5b8063313ce567116101595780634f1ef286116101335780634f1ef286146102f757806352d1902d1461030a578063715018a61461032d5780638bb2513b1461034257600080fd5b8063313ce5671461029b5780633e96e273146102b75780634ad89929146102d757600080fd5b80630b1a03581161018a5780630b1a03581461022e578063165252211461024e57806324ce729e1461026e57600080fd5b80630107eb4a146101b157806306fdde03146101d35780630a978c84146101fe575b600080fd5b3480156101bd57600080fd5b506101d16101cc366004612d1c565b610586565b005b3480156101df57600080fd5b506101e86105c6565b6040516101f59190612d8b565b60405180910390f35b34801561020a57600080fd5b5061021e610219366004612eea565b610658565b60405190151581526020016101f5565b34801561023a57600080fd5b5061021e610249366004612f99565b6106ed565b34801561025a57600080fd5b506101d1610269366004613024565b610974565b34801561027a57600080fd5b5061028e610289366004613110565b610aab565b6040516101f59190613181565b3480156102a757600080fd5b50604051600481526020016101f5565b3480156102c357600080fd5b5061021e6102d2366004612eea565b610b19565b3480156102e357600080fd5b506101d16102f2366004613194565b610b40565b6101d1610305366004613253565b610ebb565b34801561031657600080fd5b5061031f610eda565b6040519081526020016101f5565b34801561033957600080fd5b506101d1610f09565b34801561034e57600080fd5b506101d161035d3660046132b7565b610f1d565b34801561036e57600080fd5b507f9016d09d72d40fdae2fd8ceac6b6234c7706214fd39c1cd1e609a0528c199300546040516001600160a01b0390911681526020016101f5565b3480156103b557600080fd5b506101e8610f35565b3480156103ca57600080fd5b506101d16103d9366004613325565b610f44565b3480156103ea57600080fd5b506101d16103f9366004613342565b610f6e565b34801561040a57600080fd5b506101e86040518060400160405280600581526020017f352e302e3000000000000000000000000000000000000000000000000000000081525081565b34801561045357600080fd5b506104676104623660046133c0565b6110e4565b6040805192151583526001600160a01b039091166020830152016101f5565b34801561049257600080fd5b506101d16104a1366004613325565b61113e565b3480156104b257600080fd5b506101d16104c13660046133d9565b611168565b3480156104d257600080fd5b506101d16104e1366004612eea565b611185565b3480156104f257600080fd5b5061021e6105013660046133c0565b61119a565b34801561051257600080fd5b506101d1610521366004613410565b6111f2565b34801561053257600080fd5b506101d1610541366004613325565b61138c565b34801561055257600080fd5b506101d1610561366004613464565b6113e3565b34801561057257600080fd5b506101d16105813660046134fc565b611526565b61058e611620565b61059783610f44565b600780546001600160a01b039384166001600160a01b0319918216179091556008805492909316911617905550565b6060600080546105d590613592565b80601f016020809104026020016040519081016040528092919081815260200182805461060190613592565b801561064e5780601f106106235761010080835404028352916020019161064e565b820191906000526020600020905b81548152906001019060200180831161063157829003601f168201915b5050505050905090565b600061066386610aab565b955061066e85610aab565b9450606061067f8787836001611687565b5061068b8787876106ed565b50610699878783600061179f565b336001600160a01b03167fcb56a7130431b68e0e636f24584d40580490c1bf882bef3701f317d47ba98c38888887876040516106d894939291906135ef565b60405180910390a25060019695505050505050565b6000600284511180610700575060028351115b15610850576000610713858560146117bb565b905061071d612c8d565b60005b60148110156107625782818151811061073b5761073b613634565b602002602001015182826014811061075557610755613634565b6020020152600101610720565b50600a54604080517fe56ac42f0000000000000000000000000000000000000000000000000000000081526001600160a01b039092169163e56ac42f916107b791889182019060c0830190879060040161366f565b602060405180830381865afa1580156107d4573d6000803e3d6000fd5b505050506040513d601f19601f820116820180604052508101906107f891906136c2565b6108495760405162461bcd60e51b815260206004820152601560248201527f496e76616c69642070726f6f662028626174636829000000000000000000000060448201526064015b60405180910390fd5b5050610969565b600061085e858560046117bb565b9050610868612cac565b60005b60048110156108ad5782818151811061088657610886613634565b60200260200101518282600481106108a0576108a0613634565b602002015260010161086b565b5060095460408051635fe8c13b60e01b81526001600160a01b0390921691635fe8c13b916108e991889182019060c083019087906004016136e4565b602060405180830381865afa158015610906573d6000803e3d6000fd5b505050506040513d601f19601f8201168201806040525081019061092a91906136c2565b6109665760405162461bcd60e51b815260206004820152600d60248201526c24b73b30b634b210383937b7b360991b6044820152606401610840565b50505b5060015b9392505050565b6109818787876000611687565b506000855187516109929190613741565b67ffffffffffffffff8111156109aa576109aa612dbe565b6040519080825280602002602001820160405280156109d3578160200160208202803683370190505b50905060005b8751811015610a21578781815181106109f4576109f4613634565b6020026020010151828281518110610a0e57610a0e613634565b60209081029190910101526001016109d9565b5060005b8651811015610a7957868181518110610a4057610a40613634565b602002602001015182828a51610a569190613741565b81518110610a6657610a66613634565b6020908102919091010152600101610a25565b50610a858882876106ed565b50610a93888888600061179f565b610aa18888888787876118bb565b5050505050505050565b8051606090600a811115610aee576040517f9ebbc98e000000000000000000000000000000000000000000000000000000008152600a6004820152602401610840565b60006002821115610b015750600a610b05565b5060025b610b1184826000611ab6565b949350505050565b6000610b2486610aab565b9550610b2f85610aab565b9450606061067f8787836000611687565b600283511115610cc057600c83511115610b89576040517f71798fb5000000000000000000000000000000000000000000000000000000008152600c6004820152602401610840565b6000610b98858585600c611b94565b9050610ba2612cca565b60005b600c811015610be757828181518110610bc057610bc0613634565b60200260200101518282600c8110610bda57610bda613634565b6020020152600101610ba5565b50600854604080517f8cbac0fa0000000000000000000000000000000000000000000000000000000081526001600160a01b0390921691638cbac0fa91610c3c91879182019060c08301908790600401613754565b602060405180830381865afa158015610c59573d6000803e3d6000fd5b505050506040513d601f19601f82011682018060405250810190610c7d91906136c2565b610cb95760405162461bcd60e51b815260206004820152600d60248201526c24b73b30b634b210383937b7b360991b6044820152606401610840565b5050610dda565b6000610ccf8585856004611b94565b9050610cd9612cac565b60005b6004811015610d1e57828181518110610cf757610cf7613634565b6020026020010151828260048110610d1157610d11613634565b6020020152600101610cdc565b5060075460408051635fe8c13b60e01b81526001600160a01b0390921691635fe8c13b91610d5a91879182019060c083019087906004016136e4565b602060405180830381865afa158015610d77573d6000803e3d6000fd5b505050506040513d601f19601f82011682018060405250810190610d9b91906136c2565b610dd75760405162461bcd60e51b815260206004820152600d60248201526c24b73b30b634b210383937b7b360991b6044820152606401610840565b50505b6006546040517fa9059cbb000000000000000000000000000000000000000000000000000000008152336004820152602481018690526001600160a01b039091169063a9059cbb906044015b6020604051808303816000875af1158015610e45573d6000803e3d6000fd5b505050506040513d601f19601f82011682018060405250810190610e6991906136c2565b610eb55760405162461bcd60e51b815260206004820152601f60248201527f4661696c656420746f207472616e7366657220455243323020746f6b656e73006044820152606401610840565b50505050565b610ec3611c92565b610ecc82611d49565b610ed68282611d51565b5050565b6000610ee4611e39565b507f360894a13ba1a3210667c828492db98dca3e2076cc3735a920a3ca505d382bbc90565b610f11611e82565b610f1b6000611ef6565b565b610f25611e82565b610f30838383611f67565b505050565b6060600180546105d590613592565b610f4c611620565b600580546001600160a01b0319166001600160a01b0392909216919091179055565b60005b845181101561108e57848181518110610f8c57610f8c613634565b60200260200101516000031561108657336001600160a01b031660046000878481518110610fbc57610fbc613634565b6020908102919091018101518252810191909152604001600020546001600160a01b03161461103457848181518110610ff757610ff7613634565b6020908102919091010151604051639fec262f60e01b815260048101919091526001600160a01b0385166024820152336044820152606401610840565b836004600087848151811061104b5761104b613634565b6020026020010151815260200190815260200160002060006101000a8154816001600160a01b0302191690836001600160a01b031602179055505b600101610f71565b50826001600160a01b0316336001600160a01b03167fb81fc4239cf1f8a9964a337bb7866ffeb712f9e482d9cef0f5fac9fe3bd655b28685856040516110d69392919061379b565b60405180910390a350505050565b600080600160008481526003602052604090205460ff16600281111561110c5761110c6137c1565b036111335750506000908152600460205260409020546001916001600160a01b0390911690565b506000928392509050565b611146611e82565b600680546001600160a01b0319166001600160a01b0392909216919091179055565b6111738585856111f2565b61117e848383611f67565b5050505050565b6111928585858585610658565b505050505050565b600081815260026020819052604082205460ff16818111156111be576111be6137c1565b14806111ec5750600260008381526003602052604090205460ff1660028111156111ea576111ea6137c1565b145b92915050565b6111fa612ce9565b8381528251839060009061121057611210613634565b60200260200101518160016003811061122b5761122b613634565b602002015282518390600190811061124557611245613634565b60200260200101518160026003811061126057611260613634565b6020020152600554604080517f11479fea0000000000000000000000000000000000000000000000000000000081526001600160a01b03909216916311479fea916112b991869182019060c083019087906004016137d7565b602060405180830381865afa1580156112d6573d6000803e3d6000fd5b505050506040513d601f19601f820116820180604052508101906112fa91906136c2565b6113365760405162461bcd60e51b815260206004820152600d60248201526c24b73b30b634b210383937b7b360991b6044820152606401610840565b6006546040517f23b872dd000000000000000000000000000000000000000000000000000000008152336004820152306024820152604481018690526001600160a01b03909116906323b872dd90606401610e26565b611394611e82565b6001600160a01b0381166113d7576040517f1e4fbdf700000000000000000000000000000000000000000000000000000000815260006004820152602401610840565b6113e081611ef6565b50565b7ff0c57e16840df040f15088dc2f81fe391c3923bec73e23a9662efc9c229c6a00805468010000000000000000810460ff16159067ffffffffffffffff1660008115801561142e5750825b905060008267ffffffffffffffff16600114801561144b5750303b155b905081158015611459575080155b15611490576040517ff92ee8a900000000000000000000000000000000000000000000000000000000815260040160405180910390fd5b845467ffffffffffffffff1916600117855583156114c457845468ff00000000000000001916680100000000000000001785555b6114d089898989611fc3565b831561151b57845468ff000000000000000019168555604051600181527fc7f505b2f371ae2175ee4913f4499e1f2633a7b5936321eed1cdaeb6115181d29060200160405180910390a15b505050505050505050565b6000855167ffffffffffffffff81111561154257611542612dbe565b60405190808252806020026020018201604052801561156b578160200160208202803683370190505b509050848160008151811061158257611582613634565b60200260200101818152505061159786610aab565b95506115a281610aab565b905060606115b38783836000611687565b506115c088888888610b40565b6115cd878383600061179f565b336001600160a01b03167f7d8a8f009bcd9cd0dc27e36fe37cc7cfe2bbd1469c0970d31046d3c12ec7f48c898989888860405161160e95949392919061381e565b60405180910390a25050505050505050565b7ff0c57e16840df040f15088dc2f81fe391c3923bec73e23a9662efc9c229c6a005468010000000000000000900460ff16610f1b576040517fd7e6bcf800000000000000000000000000000000000000000000000000000000815260040160405180910390fd5b600080835185516116989190613741565b67ffffffffffffffff8111156116b0576116b0612dbe565b6040519080825280602002602001820160405280156116d9578160200160208202803683370190505b50905060005b8551811015611727578581815181106116fa576116fa613634565b602002602001015182828151811061171457611714613634565b60209081029190910101526001016116df565b5060005b845181101561177f5784818151811061174657611746613634565b60200260200101518282885161175c9190613741565b8151811061176c5761176c613634565b602090810291909101015260010161172b565b5061178a868461206c565b6117938161249d565b50600195945050505050565b6117a984826126ef565b6117b28361278b565b610eb582612815565b60608167ffffffffffffffff8111156117d6576117d6612dbe565b6040519080825280602002602001820160405280156117ff578160200160208202803683370190505b5090506000805b855181101561185a5785818151811061182157611821613634565b60200260200101518383806118359061385c565b94508151811061184757611847613634565b6020908102919091010152600101611806565b5060005b84518110156118b25784818151811061187957611879613634565b602002602001015183838061188d9061385c565b94508151811061189f5761189f613634565b602090810291909101015260010161185e565b50509392505050565b60005b8451811015611a5a578481815181106118d9576118d9613634565b602002602001015160000315611a525760006001600160a01b03166004600087848151811061190a5761190a613634565b6020908102919091018101518252810191909152604001600020546001600160a01b03161480159061197e5750336001600160a01b03166004600087848151811061195757611957613634565b6020908102919091018101518252810191909152604001600020546001600160a01b031614155b15611a005784818151811061199557611995613634565b6020026020010151600460008784815181106119b3576119b3613634565b60209081029190910181015182528101919091526040908101600020549051639fec262f60e01b815260048101929092526001600160a01b03166024820152336044820152606401610840565b8360046000878481518110611a1757611a17613634565b6020026020010151815260200190815260200160002060006101000a8154816001600160a01b0302191690836001600160a01b031602179055505b6001016118be565b50336001600160a01b0316836001600160a01b03167f2478e2370a2c14a2eb7579b8a4a140dc020d4d75daf0016542656bee955395f38888888787604051611aa6959493929190613875565b60405180910390a3505050505050565b606082845103611ac757508261096d565b60008367ffffffffffffffff811115611ae257611ae2612dbe565b604051908082528060200260200182016040528015611b0b578160200160208202803683370190505b50905060005b8551811015611b5957858181518110611b2c57611b2c613634565b6020026020010151828281518110611b4657611b46613634565b6020908102919091010152600101611b11565b5084515b84811015611b8b5783828281518110611b7857611b78613634565b6020908102919091010152600101611b5d565b50949350505050565b60608167ffffffffffffffff811115611baf57611baf612dbe565b604051908082528060200260200182016040528015611bd8578160200160208202803683370190505b5090506000858282611be98161385c565b935081518110611bfb57611bfb613634565b60200260200101818152505060005b8551811015611c5e57858181518110611c2557611c25613634565b6020026020010151838380611c399061385c565b945081518110611c4b57611c4b613634565b6020908102919091010152600101611c0a565b50838282611c6b8161385c565b935081518110611c7d57611c7d613634565b60200260200101818152505050949350505050565b306001600160a01b037f0000000000000000000000000000000000000000000000000000000000000000161480611d2b57507f00000000000000000000000000000000000000000000000000000000000000006001600160a01b0316611d1f7f360894a13ba1a3210667c828492db98dca3e2076cc3735a920a3ca505d382bbc546001600160a01b031690565b6001600160a01b031614155b15610f1b5760405163703e46dd60e11b815260040160405180910390fd5b6113e0611e82565b816001600160a01b03166352d1902d6040518163ffffffff1660e01b8152600401602060405180830381865afa925050508015611dab575060408051601f3d908101601f19168201909252611da8918101906138c3565b60015b611dd357604051634c9c8ce360e01b81526001600160a01b0383166004820152602401610840565b7f360894a13ba1a3210667c828492db98dca3e2076cc3735a920a3ca505d382bbc8114611e2f576040517faa1d49a400000000000000000000000000000000000000000000000000000000815260048101829052602401610840565b610f30838361289f565b306001600160a01b037f00000000000000000000000000000000000000000000000000000000000000001614610f1b5760405163703e46dd60e11b815260040160405180910390fd5b33611eb47f9016d09d72d40fdae2fd8ceac6b6234c7706214fd39c1cd1e609a0528c199300546001600160a01b031690565b6001600160a01b031614610f1b576040517f118cdaa7000000000000000000000000000000000000000000000000000000008152336004820152602401610840565b7f9016d09d72d40fdae2fd8ceac6b6234c7706214fd39c1cd1e609a0528c19930080546001600160a01b031981166001600160a01b03848116918217845560405192169182907f8be0079c531659141344cd1fd0a4f28419497f9722a3daafe3b4186f6b6457e090600090a3505050565b611f708361249d565b611f798361278b565b336001600160a01b03167f7ff08e0ca1fce6b202b83128811e4f6ceda54930aa074cd365bf68f95c20ce19848484604051611fb69392919061379b565b60405180910390a2505050565b611fcb611620565b611fd68484846128f5565b612009611fe96040830160208401613325565b611ff96060840160408501613325565b6101cc60e0850160c08601613325565b6120166020820182613325565b600980546001600160a01b0319166001600160a01b039290921691909117905561204660c0820160a08301613325565b600a80546001600160a01b0319166001600160a01b039290921691909117905550505050565b600061207783612908565b905060005b8151811015610eb55781818151811061209757612097613634565b602002602001015160000315612495576000811180156120f25750816120be6001836138dc565b815181106120ce576120ce613634565b60200260200101518282815181106120e8576120e8613634565b6020026020010151145b156121465781818151811061210957612109613634565b60200260200101516040517fdd57483100000000000000000000000000000000000000000000000000000000815260040161084091815260200190565b60006003600084848151811061215e5761215e613634565b60209081029190910181015182528101919091526040016000205460ff16600281111561218d5761218d6137c1565b1480156121de57506000600260008484815181106121ad576121ad613634565b60209081029190910181015182528101919091526040016000205460ff1660028111156121dc576121dc6137c1565b145b15612232578181815181106121f5576121f5613634565b60200260200101516040517f8392512700000000000000000000000000000000000000000000000000000000815260040161084091815260200190565b60026003600084848151811061224a5761224a613634565b60209081029190910181015182528101919091526040016000205460ff166002811115612279576122796137c1565b14806122c85750600280600084848151811061229757612297613634565b60209081029190910181015182528101919091526040016000205460ff1660028111156122c6576122c66137c1565b145b1561231c578181815181106122df576122df613634565b60200260200101516040517f41a06d2800000000000000000000000000000000000000000000000000000000815260040161084091815260200190565b8215801561236e575060016003600084848151811061233d5761233d613634565b60209081029190910181015182528101919091526040016000205460ff16600281111561236c5761236c6137c1565b145b156123c25781818151811061238557612385613634565b60200260200101516040517fd60f4acc00000000000000000000000000000000000000000000000000000000815260040161084091815260200190565b8280156124115750336001600160a01b0316600460008484815181106123ea576123ea613634565b6020908102919091018101518252810191909152604001600020546001600160a01b031614155b8015612460575060006001600160a01b03166004600084848151811061243957612439613634565b6020908102919091018101518252810191909152604001600020546001600160a01b031614155b156124955781818151811061247757612477613634565b6020026020010151600460008484815181106119b3576119b3613634565b60010161207c565b60006124a882612908565b905060005b8151811015612542578181815181106124c8576124c8613634565b60200260200101516000031561253a576000811180156125235750816124ef6001836138dc565b815181106124ff576124ff613634565b602002602001015182828151811061251957612519613634565b6020026020010151145b1561253a5781818151811061210957612109613634565b6001016124ad565b5060005b8251811015610f3057600280600085848151811061256657612566613634565b60209081029190910181015182528101919091526040016000205460ff166002811115612595576125956137c1565b14806125e557506002600360008584815181106125b4576125b4613634565b60209081029190910181015182528101919091526040016000205460ff1660028111156125e3576125e36137c1565b145b156125fc578281815181106122df576122df613634565b60016002600085848151811061261457612614613634565b60209081029190910181015182528101919091526040016000205460ff166002811115612643576126436137c1565b1480612693575060016003600085848151811061266257612662613634565b60209081029190910181015182528101919091526040016000205460ff166002811115612691576126916137c1565b145b156126e7578281815181106126aa576126aa613634565b60200260200101516040517f79e1da4700000000000000000000000000000000000000000000000000000000815260040161084091815260200190565b600101612546565b6000816126fd576002612700565b60035b905060005b8351811015610eb55783818151811061272057612720613634565b602002602001015160001461278357600282600086848151811061274657612746613634565b6020026020010151815260200190815260200160002060006101000a81548160ff0219169083600281111561277d5761277d6137c1565b02179055505b600101612705565b60005b8151811015610ed6578181815181106127a9576127a9613634565b602002602001015160001461280d576001600260008484815181106127d0576127d0613634565b6020026020010151815260200190815260200160002060006101000a81548160ff02191690836002811115612807576128076137c1565b02179055505b60010161278e565b60005b8151811015610ed65781818151811061283357612833613634565b60200260200101516000146128975760016003600084848151811061285a5761285a613634565b6020026020010151815260200190815260200160002060006101000a81548160ff02191690836002811115612891576128916137c1565b02179055505b600101612818565b6128a8826129a7565b6040516001600160a01b038316907fbc7cd75a20ee27fd9adebab32041f755214dbc6bffa90cc0225b39da2e5c2d3b90600090a28051156128ed57610f308282612a1e565b610ed6612a94565b6128fd611620565b610f30838383612acc565b60606000825167ffffffffffffffff81111561292657612926612dbe565b60405190808252806020026020018201604052801561294f578160200160208202803683370190505b50905060005b835181101561299d5783818151811061297057612970613634565b602002602001015182828151811061298a5761298a613634565b6020908102919091010152600101612955565b5061096d81612af6565b806001600160a01b03163b6000036129dd57604051634c9c8ce360e01b81526001600160a01b0382166004820152602401610840565b7f360894a13ba1a3210667c828492db98dca3e2076cc3735a920a3ca505d382bbc80546001600160a01b0319166001600160a01b0392909216919091179055565b6060600080846001600160a01b031684604051612a3b91906138ef565b600060405180830381855af49150503d8060008114612a76576040519150601f19603f3d011682016040523d82523d6000602084013e612a7b565b606091505b5091509150612a8b858383612b0b565b95945050505050565b3415610f1b576040517fb398979f00000000000000000000000000000000000000000000000000000000815260040160405180910390fd5b612ad4611620565b612add81612b80565b6000612ae98482613952565b506001610eb58382613952565b6060612b0482612b91612b95565b5090919050565b606082612b2057612b1b82612bad565b61096d565b8151158015612b3757506001600160a01b0384163b155b15612b79576040517f9996b3150000000000000000000000000000000000000000000000000000000081526001600160a01b0385166004820152602401610840565b508061096d565b612b88611620565b6113e081612bef565b1190565b6060612b0460208401612ba785612bf7565b84612c0f565b805115612bbd5780518082602001fd5b6040517fd6bda27500000000000000000000000000000000000000000000000000000000815260040160405180910390fd5b611394611620565b60008151602002612c088360200190565b0192915050565b60408383031015612c1f57505050565b6000612c29845190565b905083602081015b84811015612c6b57612c4e612c44825190565b848663ffffffff16565b15612c63576020919091018051825182528252905b602001612c31565b508451815186528152612c7f858285612c0f565b61117e816020018585612c0f565b6040518061028001604052806014906020820280368337509192915050565b60405180608001604052806004906020820280368337509192915050565b604051806101800160405280600c906020820280368337509192915050565b60405180606001604052806003906020820280368337509192915050565b6001600160a01b03811681146113e057600080fd5b600080600060608486031215612d3157600080fd5b8335612d3c81612d07565b92506020840135612d4c81612d07565b91506040840135612d5c81612d07565b809150509250925092565b60005b83811015612d82578181015183820152602001612d6a565b50506000910152565b6020815260008251806020840152612daa816040850160208701612d67565b601f01601f19169190910160400192915050565b634e487b7160e01b600052604160045260246000fd5b604051601f8201601f1916810167ffffffffffffffff81118282101715612dfd57612dfd612dbe565b604052919050565b600082601f830112612e1657600080fd5b813567ffffffffffffffff811115612e3057612e30612dbe565b8060051b612e4060208201612dd4565b91825260208185018101929081019086841115612e5c57600080fd5b6020860192505b83831015612e7e578235825260209283019290910190612e63565b9695505050505050565b60006101008284031215612e9b57600080fd5b50919050565b60008083601f840112612eb357600080fd5b50813567ffffffffffffffff811115612ecb57600080fd5b602083019150836020828501011115612ee357600080fd5b9250929050565b60008060008060006101608688031215612f0357600080fd5b853567ffffffffffffffff811115612f1a57600080fd5b612f2688828901612e05565b955050602086013567ffffffffffffffff811115612f4357600080fd5b612f4f88828901612e05565b945050612f5f8760408801612e88565b925061014086013567ffffffffffffffff811115612f7c57600080fd5b612f8888828901612ea1565b969995985093965092949392505050565b60008060006101408486031215612faf57600080fd5b833567ffffffffffffffff811115612fc657600080fd5b612fd286828701612e05565b935050602084013567ffffffffffffffff811115612fef57600080fd5b612ffb86828701612e05565b92505061300b8560408601612e88565b90509250925092565b803561301f81612d07565b919050565b60008060008060008060006101a0888a03121561304057600080fd5b873567ffffffffffffffff81111561305757600080fd5b6130638a828b01612e05565b975050602088013567ffffffffffffffff81111561308057600080fd5b61308c8a828b01612e05565b965050604088013567ffffffffffffffff8111156130a957600080fd5b6130b58a828b01612e05565b9550506130c58960608a01612e88565b93506130d46101608901613014565b925061018088013567ffffffffffffffff8111156130f157600080fd5b6130fd8a828b01612ea1565b989b979a50959850939692959293505050565b60006020828403121561312257600080fd5b813567ffffffffffffffff81111561313957600080fd5b610b1184828501612e05565b600081518084526020840193506020830160005b82811015613177578151865260209586019590910190600101613159565b5093949350505050565b60208152600061096d6020830184613145565b60008060008061016085870312156131ab57600080fd5b84359350602085013567ffffffffffffffff8111156131c957600080fd5b6131d587828801612e05565b935050604085013591506131ec8660608701612e88565b905092959194509250565b60008067ffffffffffffffff84111561321257613212612dbe565b50601f8301601f191660200161322781612dd4565b91505082815283838301111561323c57600080fd5b828260208301376000602084830101529392505050565b6000806040838503121561326657600080fd5b823561327181612d07565b9150602083013567ffffffffffffffff81111561328d57600080fd5b8301601f8101851361329e57600080fd5b6132ad858235602084016131f7565b9150509250929050565b6000806000604084860312156132cc57600080fd5b833567ffffffffffffffff8111156132e357600080fd5b6132ef86828701612e05565b935050602084013567ffffffffffffffff81111561330c57600080fd5b61331886828701612ea1565b9497909650939450505050565b60006020828403121561333757600080fd5b813561096d81612d07565b6000806000806060858703121561335857600080fd5b843567ffffffffffffffff81111561336f57600080fd5b61337b87828801612e05565b945050602085013561338c81612d07565b9250604085013567ffffffffffffffff8111156133a857600080fd5b6133b487828801612ea1565b95989497509550505050565b6000602082840312156133d257600080fd5b5035919050565b600080600080600061016086880312156133f257600080fd5b85359450602086013567ffffffffffffffff811115612f4357600080fd5b6000806000610140848603121561342657600080fd5b83359250602084013567ffffffffffffffff811115612fef57600080fd5b600082601f83011261345557600080fd5b61096d838335602085016131f7565b60008060008084860361018081121561347c57600080fd5b853567ffffffffffffffff81111561349357600080fd5b61349f88828901613444565b955050602086013567ffffffffffffffff8111156134bc57600080fd5b6134c888828901613444565b94505060408601356134d981612d07565b9250610120605f19820112156134ee57600080fd5b509295919450926060019150565b600080600080600080610180878903121561351657600080fd5b86359550602087013567ffffffffffffffff81111561353457600080fd5b61354089828a01612e05565b955050604087013593506135578860608901612e88565b925061016087013567ffffffffffffffff81111561357457600080fd5b61358089828a01612ea1565b979a9699509497509295939492505050565b600181811c908216806135a657607f821691505b602082108103612e9b57634e487b7160e01b600052602260045260246000fd5b81835281816020850137506000828201602090810191909152601f909101601f19169091010190565b6060815260006136026060830187613145565b82810360208401526136148187613145565b905082810360408401526136298185876135c6565b979650505050505050565b634e487b7160e01b600052603260045260246000fd5b8060005b6002811015610eb5576040828537604093840193919091019060010161364e565b61038081016040868337613686604083018661364a565b60408460c084013761010082018360005b60148110156136b6578151835260209283019290910190600101613697565b50505095945050505050565b6000602082840312156136d457600080fd5b8151801515811461096d57600080fd5b610180810160408683376136fb604083018661364a565b60408460c084013761010082018360005b60048110156136b657815183526020928301929091019060010161370c565b634e487b7160e01b600052601160045260246000fd5b808201808211156111ec576111ec61372b565b6102808101604086833761376b604083018661364a565b60408460c084013761010082018360005b600c8110156136b657815183526020928301929091019060010161377c565b6040815260006137ae6040830186613145565b8281036020840152612e7e8185876135c6565b634e487b7160e01b600052602160045260246000fd5b610160810160408683376137ee604083018661364a565b60408460c084013761010082018360005b60038110156136b65781518352602092830192909101906001016137ff565b8581526080602082015260006138376080830187613145565b85604084015282810360608401526138508185876135c6565b98975050505050505050565b60006001820161386e5761386e61372b565b5060010190565b6080815260006138886080830188613145565b828103602084015261389a8188613145565b905082810360408401526138ae8187613145565b905082810360608401526138508185876135c6565b6000602082840312156138d557600080fd5b5051919050565b818103818111156111ec576111ec61372b565b60008251613901818460208701612d67565b9190910192915050565b601f821115610f3057806000526020600020601f840160051c810160208510156139325750805b601f840160051c820191505b8181101561117e576000815560010161393e565b815167ffffffffffffffff81111561396c5761396c612dbe565b6139808161397a8454613592565b8461390b565b6020601f8211600181146139b4576000831561399c5750848201515b600019600385901b1c1916600184901b17845561117e565b600084815260208120601f198516915b828110156139e457878501518255602094850194600190920191016139c4565b5084821015613a025786840151600019600387901b60f8161c191681555b50505050600190811b0190555056fea2646970667358221220a91365bff65936c822614daf95d9eb357522c18f3a91b2cd9c752cbe72664c0164736f6c634300081b0033",
  "linkReferences": {},
  "deployedLinkReferences": {}
}