{
  "_format": "hh-sol-artifact-1",
  "contractName": "Zeto_NfAnonNullifier",
  "sourceName": "contracts/zeto_nf_anon_nullifier.sol",
  "abi": [
    {
      "inputs": [
        {
          "internalType": "address",
          "name": "target",
          "type": "address"
        }
      ],
      "name": "AddressEmptyCode",
      "type": "error"
    },
    {
      "inputs": [
        {
          "internalType": "address",
          "name": "implementation",
          "type": "address"
        }
      ],
      "name": "ERC1967InvalidImplementation",
      "type": "error"
    },
    {
      "inputs": [],
      "name": "ERC1967NonPayable",
      "type": "error"
    },
    {
      "inputs": [],
      "name": "FailedCall",
      "type": "error"
    },
    {
      "inputs": [],
      "name": "InvalidInitialization",
      "type": "error"
    },
    {
      "inputs": [],
      "name": "NotInitializing",
      "type": "error"
    },
    {
      "inputs": [
        {
          "internalType": "uint256",
          "name": "utxo",
          "type": "uint256"
        },
        {
          "internalType": "address",
          "name": "delegate",
          "type": "address"
        },
        {
          "internalType": "address",
          "name": "sender",
          "type": "address"
        }
      ],
      "name": "NotLockDelegate",
      "type": "error"
    },
    {
      "inputs": [
        {
          "internalType": "address",
          "name": "owner",
          "type": "address"
        }
      ],
      "name": "OwnableInvalidOwner",
      "type": "error"
    },
    {
      "inputs": [
        {
          "internalType": "address",
          "name": "account",
          "type": "address"
        }
      ],
      "name": "OwnableUnauthorizedAccount",
      "type": "error"
    },
    {
      "inputs": [
        {
          "internalType": "uint256",
          "name": "utxo",
          "type": "uint256"
        }
      ],
      "name": "UTXOAlreadyLocked",
      "type": "error"
    },
    {
      "inputs": [
        {
          "internalType": "uint256",
          "name": "utxo",
          "type": "uint256"
        }
      ],
      "name": "UTXOAlreadyOwned",
      "type": "error"
    },
    {
      "inputs": [
        {
          "internalType": "uint256",
          "name": "utxo",
          "type": "uint256"
        }
      ],
      "name": "UTXOAlreadySpent",
      "type": "error"
    },
    {
      "inputs": [
        {
          "internalType": "uint256",
          "name": "maxAllowed",
          "type": "uint256"
        }
      ],
      "name": "UTXOArrayTooLarge",
      "type": "error"
    },
    {
      "inputs": [
        {
          "internalType": "uint256",
          "name": "utxo",
          "type": "uint256"
        }
      ],
      "name": "UTXODuplicate",
      "type": "error"
    },
    {
      "inputs": [
        {
          "internalType": "uint256",
          "name": "utxo",
          "type": "uint256"
        }
      ],
      "name": "UTXONotLocked",
      "type": "error"
    },
    {
      "inputs": [
        {
          "internalType": "uint256",
          "name": "utxo",
          "type": "uint256"
        }
      ],
      "name": "UTXONotMinted",
      "type": "error"
    },
    {
      "inputs": [
        {
          "internalType": "uint256",
          "name": "root",
          "type": "uint256"
        }
      ],
      "name": "UTXORootNotFound",
      "type": "error"
    },
    {
      "inputs": [],
      "name": "UUPSUnauthorizedCallContext",
      "type": "error"
    },
    {
      "inputs": [
        {
          "internalType": "bytes32",
          "name": "slot",
          "type": "bytes32"
        }
      ],
      "name": "UUPSUnsupportedProxiableUUID",
      "type": "error"
    },
    {
      "anonymous": false,
      "inputs": [
        {
          "indexed": false,
          "internalType": "uint64",
          "name": "version",
          "type": "uint64"
        }
      ],
      "name": "Initialized",
      "type": "event"
    },
    {
      "anonymous": false,
      "inputs": [
        {
          "indexed": false,
          "internalType": "uint256[]",
          "name": "lockedOutputs",
          "type": "uint256[]"
        },
        {
          "indexed": true,
          "internalType": "address",
          "name": "oldDelegate",
          "type": "address"
        },
        {
          "indexed": true,
          "internalType": "address",
          "name": "newDelegate",
          "type": "address"
        },
        {
          "indexed": false,
          "internalType": "bytes",
          "name": "data",
          "type": "bytes"
        }
      ],
      "name": "LockDelegateChanged",
      "type": "event"
    },
    {
      "anonymous": false,
      "inputs": [
        {
          "indexed": true,
          "internalType": "address",
          "name": "previousOwner",
          "type": "address"
        },
        {
          "indexed": true,
          "internalType": "address",
          "name": "newOwner",
          "type": "address"
        }
      ],
      "name": "OwnershipTransferred",
      "type": "event"
    },
    {
      "anonymous": false,
      "inputs": [
        {
          "indexed": false,
          "internalType": "uint256[]",
          "name": "inputs",
          "type": "uint256[]"
        },
        {
          "indexed": false,
          "internalType": "uint256",
          "name": "output",
          "type": "uint256"
        },
        {
          "indexed": true,
          "internalType": "address",
          "name": "submitter",
          "type": "address"
        },
        {
          "indexed": false,
          "internalType": "bytes",
          "name": "data",
          "type": "bytes"
        }
      ],
      "name": "UTXOBurn",
      "type": "event"
    },
    {
      "anonymous": false,
      "inputs": [
        {
          "indexed": false,
          "internalType": "uint256[]",
          "name": "outputs",
          "type": "uint256[]"
        },
        {
          "indexed": true,
          "internalType": "address",
          "name": "submitter",
          "type": "address"
        },
        {
          "indexed": false,
          "internalType": "bytes",
          "name": "data",
          "type": "bytes"
        }
      ],
      "name": "UTXOMint",
      "type": "event"
    },
    {
      "anonymous": false,
      "inputs": [
        {
          "indexed": false,
          "internalType": "uint256[]",
          "name": "inputs",
          "type": "uint256[]"
        },
        {
          "indexed": false,
          "internalType": "uint256[]",
          "name": "outputs",
          "type": "uint256[]"
        },
        {
          "indexed": true,
          "internalType": "address",
          "name": "submitter",
          "type": "address"
        },
        {
          "indexed": false,
          "internalType": "bytes",
          "name": "data",
          "type": "bytes"
        }
      ],
      "name": "UTXOTransfer",
      "type": "event"
    },
    {
      "anonymous": false,
      "inputs": [
        {
          "indexed": false,
          "internalType": "uint256[]",
          "name": "inputs",
          "type": "uint256[]"
        },
        {
          "indexed": false,
          "internalType": "uint256[]",
          "name": "outputs",
          "type": "uint256[]"
        },
        {
          "indexed": false,
          "internalType": "uint256",
          "name": "encryptionNonce",
          "type": "uint256"
        },
        {
          "indexed": false,
          "internalType": "uint256[2]",
          "name": "ecdhPublicKey",
          "type": "uint256[2]"
        },
        {
          "indexed": false,
          "internalType": "uint256[]",
          "name": "encryptedValues",
          "type": "uint256[]"
        },
        {
          "indexed": true,
          "internalType": "address",
          "name": "submitter",
          "type": "address"
        },
        {
          "indexed": false,
          "internalType": "bytes",
          "name": "data",
          "type": "bytes"
        }
      ],
      "name": "UTXOTransferWithEncryptedValues",
      "type": "event"
    },
    {
      "anonymous": false,
      "inputs": [
        {
          "indexed": false,
          "internalType": "uint256",
          "name": "amount",
          "type": "uint256"
        },
        {
          "indexed": false,
          "internalType": "uint256[]",
          "name": "inputs",
          "type": "uint256[]"
        },
        {
          "indexed": false,
          "internalType": "uint256",
          "name": "output",
          "type": "uint256"
        },
        {
          "indexed": true,
          "internalType": "address",
          "name": "submitter",
          "type": "address"
        },
        {
          "indexed": false,
          "internalType": "bytes",
          "name": "data",
          "type": "bytes"
        }
      ],
      "name": "UTXOWithdraw",
      "type": "event"
    },
    {
      "anonymous": false,
      "inputs": [
        {
          "indexed": false,
          "internalType": "uint256[]",
          "name": "inputs",
          "type": "uint256[]"
        },
        {
          "indexed": false,
          "internalType": "uint256[]",
          "name": "outputs",
          "type": "uint256[]"
        },
        {
          "indexed": false,
          "internalType": "uint256[]",
          "name": "lockedOutputs",
          "type": "uint256[]"
        },
        {
          "indexed": true,
          "internalType": "address",
          "name": "delegate",
          "type": "address"
        },
        {
          "indexed": true,
          "internalType": "address",
          "name": "submitter",
          "type": "address"
        },
        {
          "indexed": false,
          "internalType": "bytes",
          "name": "data",
          "type": "bytes"
        }
      ],
      "name": "UTXOsLocked",
      "type": "event"
    },
    {
      "anonymous": false,
      "inputs": [
        {
          "indexed": true,
          "internalType": "address",
          "name": "implementation",
          "type": "address"
        }
      ],
      "name": "Upgraded",
      "type": "event"
    },
    {
      "inputs": [],
      "name": "UPGRADE_INTERFACE_VERSION",
      "outputs": [
        {
          "internalType": "string",
          "name": "",
          "type": "string"
        }
      ],
      "stateMutability": "view",
      "type": "function"
    },
    {
      "inputs": [
        {
          "internalType": "uint256[]",
          "name": "commitments",
          "type": "uint256[]"
        }
      ],
      "name": "checkAndPadCommitments",
      "outputs": [
        {
          "internalType": "uint256[]",
          "name": "",
          "type": "uint256[]"
        }
      ],
      "stateMutability": "pure",
      "type": "function"
    },
    {
      "inputs": [],
      "name": "decimals",
      "outputs": [
        {
          "internalType": "uint8",
          "name": "",
          "type": "uint8"
        }
      ],
      "stateMutability": "view",
      "type": "function"
    },
    {
      "inputs": [
        {
          "internalType": "uint256[]",
          "name": "utxos",
          "type": "uint256[]"
        },
        {
          "internalType": "address",
          "name": "delegate",
          "type": "address"
        },
        {
          "internalType": "bytes",
          "name": "data",
          "type": "bytes"
        }
      ],
      "name": "delegateLock",
      "outputs": [],
      "stateMutability": "nonpayable",
      "type": "function"
    },
    {
      "inputs": [],
      "name": "getRoot",
      "outputs": [
        {
          "internalType": "uint256",
          "name": "",
          "type": "uint256"
        }
      ],
      "stateMutability": "view",
      "type": "function"
    },
    {
      "inputs": [],
      "name": "getRootForLocked",
      "outputs": [
        {
          "internalType": "uint256",
          "name": "",
          "type": "uint256"
        }
      ],
      "stateMutability": "view",
      "type": "function"
    },
    {
      "inputs": [
        {
          "internalType": "string",
          "name": "name",
          "type": "string"
        },
        {
          "internalType": "string",
          "name": "symbol",
          "type": "string"
        },
        {
          "internalType": "address",
          "name": "initialOwner",
          "type": "address"
        },
        {
          "components": [
            {
              "internalType": "address",
              "name": "verifier",
              "type": "address"
            },
            {
              "internalType": "address",
              "name": "depositVerifier",
              "type": "address"
            },
            {
              "internalType": "address",
              "name": "withdrawVerifier",
              "type": "address"
            },
            {
              "internalType": "address",
              "name": "lockVerifier",
              "type": "address"
            },
            {
              "internalType": "address",
              "name": "burnVerifier",
              "type": "address"
            },
            {
              "internalType": "address",
              "name": "batchVerifier",
              "type": "address"
            },
            {
              "internalType": "address",
              "name": "batchWithdrawVerifier",
              "type": "address"
            },
            {
              "internalType": "address",
              "name": "batchLockVerifier",
              "type": "address"
            },
            {
              "internalType": "address",
              "name": "batchBurnVerifier",
              "type": "address"
            }
          ],
          "internalType": "struct IZetoInitializable.VerifiersInfo",
          "name": "verifiers",
          "type": "tuple"
        }
      ],
      "name": "initialize",
      "outputs": [],
      "stateMutability": "nonpayable",
      "type": "function"
    },
    {
      "inputs": [
        {
          "internalType": "uint256",
          "name": "nullifier",
          "type": "uint256"
        },
        {
          "internalType": "uint256",
          "name": "lockedOutput",
          "type": "uint256"
        },
        {
          "internalType": "uint256",
          "name": "root",
          "type": "uint256"
        },
        {
          "components": [
            {
              "internalType": "uint256[2]",
              "name": "pA",
              "type": "uint256[2]"
            },
            {
              "internalType": "uint256[2][2]",
              "name": "pB",
              "type": "uint256[2][2]"
            },
            {
              "internalType": "uint256[2]",
              "name": "pC",
              "type": "uint256[2]"
            }
          ],
          "internalType": "struct Commonlib.Proof",
          "name": "proof",
          "type": "tuple"
        },
        {
          "internalType": "address",
          "name": "delegate",
          "type": "address"
        },
        {
          "internalType": "bytes",
          "name": "data",
          "type": "bytes"
        }
      ],
      "name": "lock",
      "outputs": [],
      "stateMutability": "nonpayable",
      "type": "function"
    },
    {
      "inputs": [
        {
          "internalType": "uint256",
          "name": "utxo",
          "type": "uint256"
        },
        {
          "internalType": "address",
          "name": "delegate",
          "type": "address"
        }
      ],
      "name": "locked",
      "outputs": [
        {
          "internalType": "bool",
          "name": "",
          "type": "bool"
        },
        {
          "internalType": "address",
          "name": "",
          "type": "address"
        }
      ],
      "stateMutability": "view",
      "type": "function"
    },
    {
      "inputs": [
        {
          "internalType": "uint256[]",
          "name": "utxos",
          "type": "uint256[]"
        },
        {
          "internalType": "bytes",
          "name": "data",
          "type": "bytes"
        }
      ],
      "name": "mint",
      "outputs": [],
      "stateMutability": "nonpayable",
      "type": "function"
    },
    {
      "inputs": [],
      "name": "name",
      "outputs": [
        {
          "internalType": "string",
          "name": "",
          "type": "string"
        }
      ],
      "stateMutability": "view",
      "type": "function"
    },
    {
      "inputs": [],
      "name": "owner",
      "outputs": [
        {
          "internalType": "address",
          "name": "",
          "type": "address"
        }
      ],
      "stateMutability": "view",
      "type": "function"
    },
    {
      "inputs": [],
      "name": "proxiableUUID",
      "outputs": [
        {
          "internalType": "bytes32",
          "name": "",
          "type": "bytes32"
        }
      ],
      "stateMutability": "view",
      "type": "function"
    },
    {
      "inputs": [],
      "name": "renounceOwnership",
      "outputs": [],
      "stateMutability": "nonpayable",
      "type": "function"
    },
    {
      "inputs": [],
      "name": "symbol",
      "outputs": [
        {
          "internalType": "string",
          "name": "",
          "type": "string"
        }
      ],
      "stateMutability": "view",
      "type": "function"
    },
    {
      "inputs": [
        {
          "internalType": "uint256",
          "name": "nullifier",
          "type": "uint256"
        },
        {
          "internalType": "uint256",
          "name": "output",
          "type": "uint256"
        },
        {
          "internalType": "uint256",
          "name": "root",
          "type": "uint256"
        },
        {
          "components": [
            {
              "internalType": "uint256[2]",
              "name": "pA",
              "type": "uint256[2]"
            },
            {
              "internalType": "uint256[2][2]",
              "name": "pB",
              "type": "uint256[2][2]"
            },
            {
              "internalType": "uint256[2]",
              "name": "pC",
              "type": "uint256[2]"
            }
          ],
          "internalType": "struct Commonlib.Proof",
          "name": "proof",
          "type": "tuple"
        },
        {
          "internalType": "bytes",
          "name": "data",
          "type": "bytes"
        }
      ],
      "name": "transfer",
      "outputs": [
        {
          "internalType": "bool",
          "name": "",
          "type": "bool"
        }
      ],
      "stateMutability": "nonpayable",
      "type": "function"
    },
    {
      "inputs": [
        {
          "internalType": "uint256",
          "name": "nullifier",
          "type": "uint256"
        },
        {
          "internalType": "uint256",
          "name": "output",
          "type": "uint256"
        },
        {
          "internalType": "uint256",
          "name": "root",
          "type": "uint256"
        },
        {
          "components": [
            {
              "internalType": "uint256[2]",
              "name": "pA",
              "type": "uint256[2]"
            },
            {
              "internalType": "uint256[2][2]",
              "name": "pB",
              "type": "uint256[2][2]"
            },
            {
              "internalType": "uint256[2]",
              "name": "pC",
              "type": "uint256[2]"
            }
          ],
          "internalType": "struct Commonlib.Proof",
          "name": "proof",
          "type": "tuple"
        },
        {
          "internalType": "bytes",
          "name": "data",
          "type": "bytes"
        }
      ],
      "name": "transferLocked",
      "outputs": [
        {
          "internalType": "bool",
          "name": "",
          "type": "bool"
        }
      ],
      "stateMutability": "nonpayable",
      "type": "function"
    },
    {
      "inputs": [
        {
          "internalType": "address",
          "name": "newOwner",
          "type": "address"
        }
      ],
      "name": "transferOwnership",
      "outputs": [],
      "stateMutability": "nonpayable",
      "type": "function"
    },
    {
      "inputs": [
        {
          "internalType": "address",
          "name": "newImplementation",
          "type": "address"
        },
        {
          "internalType": "bytes",
          "name": "data",
          "type": "bytes"
        }
      ],
      "name": "upgradeToAndCall",
      "outputs": [],
      "stateMutability": "payable",
      "type": "function"
    }
  ],
  "bytecode": "0x60a060405230608052348015601357600080fd5b5060805161303561003d60003960008181611081015281816110aa015261122801526130356000f3fe6080604052600436106101445760003560e01c8063715018a6116100c0578063a4ef9ad111610074578063f2fde38b11610059578063f2fde38b146103b3578063f586acdb146103d3578063f7e648d3146103f357600080fd5b8063a4ef9ad11461034a578063ad3cb1cc1461036a57600080fd5b80638da5cb5b116100a55780638da5cb5b146102ce57806395d89b4114610315578063a4a2f10d1461032a57600080fd5b8063715018a6146102995780638bb2513b146102ae57600080fd5b8063313ce5671161011757806352d1902d116100fc57806352d1902d146102415780635bb69aee146102645780635ca1e1651461028457600080fd5b8063313ce567146102105780634f1ef2861461022c57600080fd5b806306fdde03146101495780630dd1dc8b1461017457806324ce729e146101a457806324ef458a146101d1575b600080fd5b34801561015557600080fd5b5061015e610408565b60405161016b91906124bb565b60405180910390f35b34801561018057600080fd5b5061019461018f366004612549565b61049a565b604051901515815260200161016b565b3480156101b057600080fd5b506101c46101bf3660046126bf565b6105a2565b60405161016b9190612730565b3480156101dd57600080fd5b506101f16101ec36600461275f565b610615565b6040805192151583526001600160a01b0390911660208301520161016b565b34801561021c57600080fd5b506040516004815260200161016b565b61023f61023a3660046127e7565b61062e565b005b34801561024d57600080fd5b5061025661064d565b60405190815260200161016b565b34801561027057600080fd5b5061023f61027f366004612849565b61067c565b34801561029057600080fd5b50610256610740565b3480156102a557600080fd5b5061023f6107bd565b3480156102ba57600080fd5b5061023f6102c93660046128cf565b6107d1565b3480156102da57600080fd5b507f9016d09d72d40fdae2fd8ceac6b6234c7706214fd39c1cd1e609a0528c199300546040516001600160a01b03909116815260200161016b565b34801561032157600080fd5b5061015e6107e1565b34801561033657600080fd5b50610194610345366004612549565b6107f0565b34801561035657600080fd5b5061023f61036536600461293d565b610892565b34801561037657600080fd5b5061015e6040518060400160405280600581526020017f352e302e3000000000000000000000000000000000000000000000000000000081525081565b3480156103bf57600080fd5b5061023f6103ce3660046129b9565b610ace565b3480156103df57600080fd5b5061023f6103ee3660046129f4565b610b25565b3480156103ff57600080fd5b50610256610cde565b60606000805461041790612a8a565b80601f016020809104026020016040519081016040528092919081815260200182805461044390612a8a565b80156104905780601f1061046557610100808354040283529160200191610490565b820191906000526020600020905b81548152906001019060200180831161047357829003601f168201915b5050505050905090565b6040805160018082528183019092526000918291906020808301908036833701905050905087816000815181106104d3576104d3612abe565b6020908102919091010152604080516001808252818301909252600091816020016020820280368337019050509050878160008151811061051657610516612abe565b60200260200101818152505061052f8282896000610d19565b5061053c82828989610d45565b606061054b8383836000610ebe565b336001600160a01b03167fcb56a7130431b68e0e636f24584d40580490c1bf882bef3701f317d47ba98c388484898960405161058a9493929190612afd565b60405180910390a25060019998505050505050505050565b8051606090600a8111156105ea576040517f9ebbc98e000000000000000000000000000000000000000000000000000000008152600a60048201526024015b60405180910390fd5b600060028211156105fd5750600a610601565b5060025b61060d84826000610ee0565b949350505050565b6000806106228484610fc0565b915091505b9250929050565b610636611076565b61063f8261112d565b6106498282611135565b5050565b600061065761121d565b507f360894a13ba1a3210667c828492db98dca3e2076cc3735a920a3ca505d382bbc90565b6040805160018082528183019092526000916020808301908036833701905050905087816000815181106106b2576106b2612abe565b602090810291909101015260408051600180825281830190925260009181602001602082028036833701905050905087816000815181106106f5576106f5612abe565b60200260200101818152505061070e8282896000610d19565b5061071b82828989610d45565b61072482611266565b60606107348382848989896112e1565b50505050505050505050565b6040516379f9712560e01b81526002600482015260009073__$dc6c4dd02ac6da041aea5ed0aea43c2a22$__906379f97125906024015b602060405180830381865af4158015610794573d6000803e3d6000fd5b505050506040513d601f19601f820116820180604052508101906107b89190612b42565b905090565b6107c5611513565b6107cf6000611587565b565b6107dc838383611605565b505050565b60606001805461041790612a8a565b60408051600180825281830190925260009182919060208083019080368337019050509050878160008151811061082957610829612abe565b6020908102919091010152604080516001808252818301909252600091816020016020820280368337019050509050878160008151811061086c5761086c612abe565b6020026020010181815250506108858282896001610d19565b5061053c82828989611662565b60005b8451811015610a78578481815181106108b0576108b0612abe565b602002602001015160000315610a70576000806108e68784815181106108d8576108d8612abe565b602002602001015133610fc0565b90925090508161093f5786838151811061090257610902612abe565b60200260200101516040517fe41859a60000000000000000000000000000000000000000000000000000000081526004016105e191815260200190565b6001600160a01b03811633146109b75786838151811061096157610961612abe565b60209081029190910101516040517f9fec262f00000000000000000000000000000000000000000000000000000000815260048101919091526001600160a01b03871660248201523360448201526064016105e1565b603473__$dc6c4dd02ac6da041aea5ed0aea43c2a22$__63c1d29f0190918986815181106109e7576109e7612abe565b60209081029190910101516040517fffffffff0000000000000000000000000000000000000000000000000000000060e085901b168152600481019290925260248201526001600160a01b038916604482015260640160006040518083038186803b158015610a5557600080fd5b505af4158015610a69573d6000803e3d6000fd5b5050505050505b600101610895565b50826001600160a01b0316336001600160a01b03167fb81fc4239cf1f8a9964a337bb7866ffeb712f9e482d9cef0f5fac9fe3bd655b2868585604051610ac093929190612b5b565b60405180910390a350505050565b610ad6611513565b6001600160a01b038116610b19576040517f1e4fbdf7000000000000000000000000000000000000000000000000000000008152600060048201526024016105e1565b610b2281611587565b50565b7ff0c57e16840df040f15088dc2f81fe391c3923bec73e23a9662efc9c229c6a00805468010000000000000000810460ff16159067ffffffffffffffff16600081158015610b705750825b905060008267ffffffffffffffff166001148015610b8d5750303b155b905081158015610b9b575080155b15610bd2576040517ff92ee8a900000000000000000000000000000000000000000000000000000000815260040160405180910390fd5b845467ffffffffffffffff191660011785558315610c0657845468ff00000000000000001916680100000000000000001785555b610c11898989611736565b610c1e60208701876129b9565b6067805473ffffffffffffffffffffffffffffffffffffffff19166001600160a01b0392909216919091179055610c5b60808701606088016129b9565b6068805473ffffffffffffffffffffffffffffffffffffffff19166001600160a01b03929092169190911790558315610cd357845468ff000000000000000019168555604051600181527fc7f505b2f371ae2175ee4913f4499e1f2633a7b5936321eed1cdaeb6115181d29060200160405180910390a15b505050505050505050565b6040516379f9712560e01b81526034600482015260009073__$dc6c4dd02ac6da041aea5ed0aea43c2a22$__906379f9712590602401610777565b6000610d2485611826565b50610d2e8461199c565b50610d398383611abf565b50600195945050505050565b610d4d61245b565b84600081518110610d6057610d60612abe565b602002602001015181600060038110610d7b57610d7b612abe565b602002015282816001602002015283518490600090610d9c57610d9c612abe565b602002602001015181600260038110610db757610db7612abe565b6020020152606754604080517f11479fea0000000000000000000000000000000000000000000000000000000081526001600160a01b03909216916311479fea91610e1091869182019060c08301908790600401612bb0565b602060405180830381865afa158015610e2d573d6000803e3d6000fd5b505050506040513d601f19601f82011682018060405250810190610e519190612c13565b610eb7576040517f08c379a000000000000000000000000000000000000000000000000000000000815260206004820152600d60248201527f496e76616c69642070726f6f660000000000000000000000000000000000000060448201526064016105e1565b5050505050565b610ec784611266565b610ed083611c18565b610eda8282611cff565b50505050565b606082845103610ef1575082610fb9565b60008367ffffffffffffffff811115610f0c57610f0c6125bd565b604051908082528060200260200182016040528015610f35578160200160208202803683370190505b50905060005b8551811015610f8357858181518110610f5657610f56612abe565b6020026020010151828281518110610f7057610f70612abe565b6020908102919091010152600101610f3b565b5084515b84811015610fb55783828281518110610fa257610fa2612abe565b6020908102919091010152600101610f87565b5090505b9392505050565b604051632eda066d60e11b815260346004820152602481018390526000908190819073__$dc6c4dd02ac6da041aea5ed0aea43c2a22$__90635db40cda90604401600060405180830381865af415801561101e573d6000803e3d6000fd5b505050506040513d6000823e601f3d908101601f191682016040526110469190810190612c8c565b9050806020015180156110655750836001600160a01b03168160800151145b816080015192509250509250929050565b306001600160a01b037f000000000000000000000000000000000000000000000000000000000000000016148061110f57507f00000000000000000000000000000000000000000000000000000000000000006001600160a01b03166111037f360894a13ba1a3210667c828492db98dca3e2076cc3735a920a3ca505d382bbc546001600160a01b031690565b6001600160a01b031614155b156107cf5760405163703e46dd60e11b815260040160405180910390fd5b610b22611513565b816001600160a01b03166352d1902d6040518163ffffffff1660e01b8152600401602060405180830381865afa92505050801561118f575060408051601f3d908101601f1916820190925261118c91810190612b42565b60015b6111b757604051634c9c8ce360e01b81526001600160a01b03831660048201526024016105e1565b7f360894a13ba1a3210667c828492db98dca3e2076cc3735a920a3ca505d382bbc8114611213576040517faa1d49a4000000000000000000000000000000000000000000000000000000008152600481018290526024016105e1565b6107dc8383611deb565b306001600160a01b037f000000000000000000000000000000000000000000000000000000000000000016146107cf5760405163703e46dd60e11b815260040160405180910390fd5b60005b81518110156106495781818151811061128457611284612abe565b60200260200101516000146112d9576001606660008484815181106112ab576112ab612abe565b6020026020010151815260200190815260200160002060006101000a81548160ff0219169083151502179055505b600101611269565b60005b85518110156113c9578581815181106112ff576112ff612abe565b6020026020010151600003156113c157600273__$dc6c4dd02ac6da041aea5ed0aea43c2a22$__63c1d29f01909188848151811061133f5761133f612abe565b602002602001015189858151811061135957611359612abe565b60200260200101516040518463ffffffff1660e01b8152600401611390939291909283526020830191909152604082015260600190565b60006040518083038186803b1580156113a857600080fd5b505af41580156113bc573d6000803e3d6000fd5b505050505b6001016112e4565b5060005b84518110156114b7578481815181106113e8576113e8612abe565b6020026020010151600003156114af57603473__$dc6c4dd02ac6da041aea5ed0aea43c2a22$__63c1d29f01909187848151811061142857611428612abe565b60209081029190910101516040517fffffffff0000000000000000000000000000000000000000000000000000000060e085901b168152600481019290925260248201526001600160a01b038716604482015260640160006040518083038186803b15801561149657600080fd5b505af41580156114aa573d6000803e3d6000fd5b505050505b6001016113cd565b50336001600160a01b0316836001600160a01b03167f2478e2370a2c14a2eb7579b8a4a140dc020d4d75daf0016542656bee955395f38888888787604051611503959493929190612d54565b60405180910390a3505050505050565b336115457f9016d09d72d40fdae2fd8ceac6b6234c7706214fd39c1cd1e609a0528c199300546001600160a01b031690565b6001600160a01b0316146107cf576040517f118cdaa70000000000000000000000000000000000000000000000000000000081523360048201526024016105e1565b7f9016d09d72d40fdae2fd8ceac6b6234c7706214fd39c1cd1e609a0528c199300805473ffffffffffffffffffffffffffffffffffffffff1981166001600160a01b03848116918217845560405192169182907f8be0079c531659141344cd1fd0a4f28419497f9722a3daafe3b4186f6b6457e090600090a3505050565b61160e8361199c565b5061161883611c18565b336001600160a01b03167f7ff08e0ca1fce6b202b83128811e4f6ceda54930aa074cd365bf68f95c20ce1984848460405161165593929190612b5b565b60405180910390a2505050565b61166a612479565b8460008151811061167d5761167d612abe565b60200260200101518160006004811061169857611698612abe565b6020020152338160016020020152828160026020020152835184906000906116c2576116c2612abe565b6020026020010151816003600481106116dd576116dd612abe565b6020020152606854604080517f5fe8c13b0000000000000000000000000000000000000000000000000000000081526001600160a01b0390921691635fe8c13b91610e1091869182019060c08301908790600401612dae565b61173e611e41565b611749838383611ea8565b60408051639e43b81360e01b815260026004820152602481019190915273__$dc6c4dd02ac6da041aea5ed0aea43c2a22$__90639e43b8139060440160006040518083038186803b15801561179d57600080fd5b505af41580156117b1573d6000803e3d6000fd5b505060408051639e43b81360e01b815260346004820152602481019190915273__$dc6c4dd02ac6da041aea5ed0aea43c2a22$__9250639e43b813915060440160006040518083038186803b15801561180957600080fd5b505af415801561181d573d6000803e3d6000fd5b50505050505050565b60008061183283611ed2565b905060005b81518110156119955781818151811061185257611852612abe565b60200260200101516000031561198d576000811180156118ad575081611879600183612df5565b8151811061188957611889612abe565b60200260200101518282815181106118a3576118a3612abe565b6020026020010151145b15611901578181815181106118c4576118c4612abe565b60200260200101516040517fdd5748310000000000000000000000000000000000000000000000000000000081526004016105e191815260200190565b6066600083838151811061191757611917612abe565b60209081029190910181015182528101919091526040016000205460ff16151560010361198d5781818151811061195057611950612abe565b60200260200101516040517f41a06d280000000000000000000000000000000000000000000000000000000081526004016105e191815260200190565b600101611837565b5050919050565b6000806119a883611ed2565b905060005b8151811015611995578181815181106119c8576119c8612abe565b602002602001015160000315611ab757600081118015611a235750816119ef600183612df5565b815181106119ff576119ff612abe565b6020026020010151828281518110611a1957611a19612abe565b6020026020010151145b15611a3a578181815181106118c4576118c4612abe565b6000611a5e838381518110611a5157611a51612abe565b6020026020010151611f71565b90508015611ab557828281518110611a7857611a78612abe565b60200260200101516040517f79e1da470000000000000000000000000000000000000000000000000000000081526004016105e191815260200190565b505b6001016119ad565b6000818015611b4657506040516324bd6c1b60e21b8152603460048201526024810184905273__$dc6c4dd02ac6da041aea5ed0aea43c2a22$__906392f5b06c90604401602060405180830381865af4158015611b20573d6000803e3d6000fd5b505050506040513d601f19601f82011682018060405250810190611b449190612c13565b155b15611b6757604051630959af5760e31b8152600481018490526024016105e1565b81158015611bed57506040516324bd6c1b60e21b8152600260048201526024810184905273__$dc6c4dd02ac6da041aea5ed0aea43c2a22$__906392f5b06c90604401602060405180830381865af4158015611bc7573d6000803e3d6000fd5b505050506040513d601f19601f82011682018060405250810190611beb9190612c13565b155b15611c0e57604051630959af5760e31b8152600481018490526024016105e1565b5060015b92915050565b60005b815181101561064957818181518110611c3657611c36612abe565b6020026020010151600014611cf757600273__$dc6c4dd02ac6da041aea5ed0aea43c2a22$__63c1d29f019091848481518110611c7557611c75612abe565b6020026020010151858581518110611c8f57611c8f612abe565b60200260200101516040518463ffffffff1660e01b8152600401611cc6939291909283526020830191909152604082015260600190565b60006040518083038186803b158015611cde57600080fd5b505af4158015611cf2573d6000803e3d6000fd5b505050505b600101611c1b565b60005b82518110156107dc57828181518110611d1d57611d1d612abe565b6020026020010151600014611de357603473__$dc6c4dd02ac6da041aea5ed0aea43c2a22$__63c1d29f019091858481518110611d5c57611d5c612abe565b60209081029190910101516040517fffffffff0000000000000000000000000000000000000000000000000000000060e085901b168152600481019290925260248201526001600160a01b038516604482015260640160006040518083038186803b158015611dca57600080fd5b505af4158015611dde573d6000803e3d6000fd5b505050505b600101611d02565b611df482611f8d565b6040516001600160a01b038316907fbc7cd75a20ee27fd9adebab32041f755214dbc6bffa90cc0225b39da2e5c2d3b90600090a2805115611e39576107dc8282612011565b610649612087565b7ff0c57e16840df040f15088dc2f81fe391c3923bec73e23a9662efc9c229c6a005468010000000000000000900460ff166107cf576040517fd7e6bcf800000000000000000000000000000000000000000000000000000000815260040160405180910390fd5b611eb0611e41565b611eb9816120bf565b6000611ec58482612e5d565b506001610eda8382612e5d565b60606000825167ffffffffffffffff811115611ef057611ef06125bd565b604051908082528060200260200182016040528015611f19578160200160208202803683370190505b50905060005b8351811015611f6757838181518110611f3a57611f3a612abe565b6020026020010151828281518110611f5457611f54612abe565b6020908102919091010152600101611f1f565b50610fb9816120d0565b600080611f7d836120e5565b905080611c1257610fb9836121ad565b806001600160a01b03163b600003611fc357604051634c9c8ce360e01b81526001600160a01b03821660048201526024016105e1565b7f360894a13ba1a3210667c828492db98dca3e2076cc3735a920a3ca505d382bbc805473ffffffffffffffffffffffffffffffffffffffff19166001600160a01b0392909216919091179055565b6060600080846001600160a01b03168460405161202e9190612f1c565b600060405180830381855af49150503d8060008114612069576040519150601f19603f3d011682016040523d82523d6000602084013e61206e565b606091505b509150915061207e85838361223c565b95945050505050565b34156107cf576040517fb398979f00000000000000000000000000000000000000000000000000000000815260040160405180910390fd5b6120c7611e41565b610b22816122b1565b60606120de826122b96122bd565b5090919050565b6000806120f283846122d5565b6040517fe170cf6e000000000000000000000000000000000000000000000000000000008152600260048201526024810182905290915060009073__$dc6c4dd02ac6da041aea5ed0aea43c2a22$__9063e170cf6e9060440160a060405180830381865af4158015612168573d6000803e3d6000fd5b505050506040513d601f19601f8201168201806040525081019061218c9190612f38565b90506000815160028111156121a3576121a3612fb8565b1415949350505050565b604051632eda066d60e11b81526034600482015260248101829052600090819073__$dc6c4dd02ac6da041aea5ed0aea43c2a22$__90635db40cda90604401600060405180830381865af4158015612209573d6000803e3d6000fd5b505050506040513d6000823e601f3d908101601f191682016040526122319190810190612c8c565b602001519392505050565b6060826122515761224c82612383565b610fb9565b815115801561226857506001600160a01b0384163b155b156122aa576040517f9996b3150000000000000000000000000000000000000000000000000000000081526001600160a01b03851660048201526024016105e1565b5080610fb9565b610ad6611e41565b1190565b60606120de602084016122cf856123c5565b846123dd565b604080516060810182528381526020810183905260018183015290517f25cc70e80000000000000000000000000000000000000000000000000000000081526000919073__$03320550cd1b629da90608251571b2532e$__906325cc70e890612342908490600401612fce565b602060405180830381865af415801561235f573d6000803e3d6000fd5b505050506040513d601f19601f8201168201806040525081019061060d9190612b42565b8051156123935780518082602001fd5b6040517fd6bda27500000000000000000000000000000000000000000000000000000000815260040160405180910390fd5b600081516020026123d68360200190565b0192915050565b604083830310156123ed57505050565b60006123f7845190565b905083602081015b848110156124395761241c612412825190565b848663ffffffff16565b15612431576020919091018051825182528252905b6020016123ff565b50845181518652815261244d8582856123dd565b610eb78160200185856123dd565b60405180606001604052806003906020820280368337509192915050565b60405180608001604052806004906020820280368337509192915050565b60005b838110156124b257818101518382015260200161249a565b50506000910152565b60208152600082518060208401526124da816040850160208701612497565b601f01601f19169190910160400192915050565b6000610100828403121561250157600080fd5b50919050565b60008083601f84011261251957600080fd5b50813567ffffffffffffffff81111561253157600080fd5b60208301915083602082850101111561062757600080fd5b600080600080600080610180878903121561256357600080fd5b86359550602087013594506040870135935061258288606089016124ee565b925061016087013567ffffffffffffffff81111561259f57600080fd5b6125ab89828a01612507565b979a9699509497509295939492505050565b634e487b7160e01b600052604160045260246000fd5b604051610100810167ffffffffffffffff811182821017156125f7576125f76125bd565b60405290565b604051601f8201601f1916810167ffffffffffffffff81118282101715612626576126266125bd565b604052919050565b600067ffffffffffffffff821115612648576126486125bd565b5060051b60200190565b600082601f83011261266357600080fd5b81356126766126718261262e565b6125fd565b8082825260208201915060208360051b86010192508583111561269857600080fd5b602085015b838110156126b557803583526020928301920161269d565b5095945050505050565b6000602082840312156126d157600080fd5b813567ffffffffffffffff8111156126e857600080fd5b61060d84828501612652565b600081518084526020840193506020830160005b82811015612726578151865260209586019590910190600101612708565b5093949350505050565b602081526000610fb960208301846126f4565b80356001600160a01b038116811461275a57600080fd5b919050565b6000806040838503121561277257600080fd5b8235915061278260208401612743565b90509250929050565b60008067ffffffffffffffff8411156127a6576127a66125bd565b50601f8301601f19166020016127bb816125fd565b9150508281528383830111156127d057600080fd5b828260208301376000602084830101529392505050565b600080604083850312156127fa57600080fd5b61280383612743565b9150602083013567ffffffffffffffff81111561281f57600080fd5b8301601f8101851361283057600080fd5b61283f8582356020840161278b565b9150509250929050565b60008060008060008060006101a0888a03121561286557600080fd5b8735965060208801359550604088013594506128848960608a016124ee565b93506128936101608901612743565b925061018088013567ffffffffffffffff8111156128b057600080fd5b6128bc8a828b01612507565b989b979a50959850939692959293505050565b6000806000604084860312156128e457600080fd5b833567ffffffffffffffff8111156128fb57600080fd5b61290786828701612652565b935050602084013567ffffffffffffffff81111561292457600080fd5b61293086828701612507565b9497909650939450505050565b6000806000806060858703121561295357600080fd5b843567ffffffffffffffff81111561296a57600080fd5b61297687828801612652565b94505061298560208601612743565b9250604085013567ffffffffffffffff8111156129a157600080fd5b6129ad87828801612507565b95989497509550505050565b6000602082840312156129cb57600080fd5b610fb982612743565b600082601f8301126129e557600080fd5b610fb98383356020850161278b565b600080600080848603610180811215612a0c57600080fd5b853567ffffffffffffffff811115612a2357600080fd5b612a2f888289016129d4565b955050602086013567ffffffffffffffff811115612a4c57600080fd5b612a58888289016129d4565b945050612a6760408701612743565b9250610120605f1982011215612a7c57600080fd5b509295919450926060019150565b600181811c90821680612a9e57607f821691505b60208210810361250157634e487b7160e01b600052602260045260246000fd5b634e487b7160e01b600052603260045260246000fd5b81835281816020850137506000828201602090810191909152601f909101601f19169091010190565b606081526000612b1060608301876126f4565b8281036020840152612b2281876126f4565b90508281036040840152612b37818587612ad4565b979650505050505050565b600060208284031215612b5457600080fd5b5051919050565b604081526000612b6e60408301866126f4565b8281036020840152612b81818587612ad4565b9695505050505050565b8060005b6002811015610eda5760408285376040938401939190910190600101612b8f565b61016081016040868337612bc76040830186612b8b565b60408460c084013761010082018360005b6003811015612bf7578151835260209283019290910190600101612bd8565b50505095945050505050565b8051801515811461275a57600080fd5b600060208284031215612c2557600080fd5b610fb982612c03565b600082601f830112612c3f57600080fd5b8151612c4d6126718261262e565b8082825260208201915060208360051b860101925085831115612c6f57600080fd5b602085015b838110156126b5578051835260209283019201612c74565b600060208284031215612c9e57600080fd5b815167ffffffffffffffff811115612cb557600080fd5b82016101008185031215612cc857600080fd5b612cd06125d3565b81518152612ce060208301612c03565b6020820152604082015167ffffffffffffffff811115612cff57600080fd5b612d0b86828501612c2e565b6040830152506060828101519082015260808083015190820152612d3160a08301612c03565b60a082015260c0828101519082015260e091820151918101919091529392505050565b608081526000612d6760808301886126f4565b8281036020840152612d7981886126f4565b90508281036040840152612d8d81876126f4565b90508281036060840152612da2818587612ad4565b98975050505050505050565b61018081016040868337612dc56040830186612b8b565b60408460c084013761010082018360005b6004811015612bf7578151835260209283019290910190600101612dd6565b81810381811115611c1257634e487b7160e01b600052601160045260246000fd5b601f8211156107dc57806000526020600020601f840160051c81016020851015612e3d5750805b601f840160051c820191505b81811015610eb75760008155600101612e49565b815167ffffffffffffffff811115612e7757612e776125bd565b612e8b81612e858454612a8a565b84612e16565b6020601f821160018114612ebf5760008315612ea75750848201515b600019600385901b1c1916600184901b178455610eb7565b600084815260208120601f198516915b82811015612eef5787850151825560209485019460019092019101612ecf565b5084821015612f0d5786840151600019600387901b60f8161c191681555b50505050600190811b01905550565b60008251612f2e818460208701612497565b9190910192915050565b600060a0828403128015612f4b57600080fd5b5060405160009060a0810167ffffffffffffffff81118282101715612f7257612f726125bd565b604052835160038110612f83578283fd5b815260208481015190820152604080850151908201526060808501519082015260809384015193810193909352509092915050565b634e487b7160e01b600052602160045260246000fd5b60608101818360005b6003811015612ff6578151835260209283019290910190600101612fd7565b5050509291505056fea264697066735822122082117fcced12f76e09fffbb8d88c47512f448649aacd493ca89d11e39ea5113e64736f6c634300081b0033",
  "linkReferences": {
    "@iden3/contracts/lib/Poseidon.sol": {
      "PoseidonUnit3L": [
        {
          "length": 20,
          "start": 9047
        }
      ]
    },
    "@iden3/contracts/lib/SmtLib.sol": {
      "SmtLib": [
        {
          "length": 20,
          "start": 1942
        },
        {
          "length": 20,
          "start": 2552
        },
        {
          "length": 20,
          "start": 3380
        },
        {
          "length": 20,
          "start": 4129
        },
        {
          "length": 20,
          "start": 4944
        },
        {
          "length": 20,
          "start": 5177
        },
        {
          "length": 20,
          "start": 6053
        },
        {
          "length": 20,
          "start": 6159
        },
        {
          "length": 20,
          "start": 6947
        },
        {
          "length": 20,
          "start": 7114
        },
        {
          "length": 20,
          "start": 7302
        },
        {
          "length": 20,
          "start": 7533
        },
        {
          "length": 20,
          "start": 8555
        },
        {
          "length": 20,
          "start": 8716
        }
      ]
    }
  },
  "deployedLinkReferences": {
    "@iden3/contracts/lib/Poseidon.sol": {
      "PoseidonUnit3L": [
        {
          "length": 20,
          "start": 8986
        }
      ]
    },
    "@iden3/contracts/lib/SmtLib.sol": {
      "SmtLib": [
        {
          "length": 20,
          "start": 1881
        },
        {
          "length": 20,
          "start": 2491
        },
        {
          "length": 20,
          "start": 3319
        },
        {
          "length": 20,
          "start": 4068
        },
        {
          "length": 20,
          "start": 4883
        },
        {
          "length": 20,
          "start": 5116
        },
        {
          "length": 20,
          "start": 5992
        },
        {
          "length": 20,
          "start": 6098
        },
        {
          "length": 20,
          "start": 6886
        },
        {
          "length": 20,
          "start": 7053
        },
        {
          "length": 20,
          "start": 7241
        },
        {
          "length": 20,
          "start": 7472
        },
        {
          "length": 20,
          "start": 8494
        },
        {
          "length": 20,
          "start": 8655
        }
      ]
    }
  }
}