{
  "_format": "hh-sol-artifact-1",
  "contractName": "Zeto_AnonNullifierBurnable",
  "sourceName": "contracts/zeto_anon_nullifier_burnable.sol",
  "abi": [
    {
      "inputs": [
        {
          "internalType": "address",
          "name": "target",
          "type": "address"
        }
      ],
      "name": "AddressEmptyCode",
      "type": "error"
    },
    {
      "inputs": [
        {
          "internalType": "address",
          "name": "implementation",
          "type": "address"
        }
      ],
      "name": "ERC1967InvalidImplementation",
      "type": "error"
    },
    {
      "inputs": [],
      "name": "ERC1967NonPayable",
      "type": "error"
    },
    {
      "inputs": [],
      "name": "FailedCall",
      "type": "error"
    },
    {
      "inputs": [],
      "name": "InvalidInitialization",
      "type": "error"
    },
    {
      "inputs": [],
      "name": "NotInitializing",
      "type": "error"
    },
    {
      "inputs": [
        {
          "internalType": "uint256",
          "name": "utxo",
          "type": "uint256"
        },
        {
          "internalType": "address",
          "name": "delegate",
          "type": "address"
        },
        {
          "internalType": "address",
          "name": "sender",
          "type": "address"
        }
      ],
      "name": "NotLockDelegate",
      "type": "error"
    },
    {
      "inputs": [
        {
          "internalType": "address",
          "name": "owner",
          "type": "address"
        }
      ],
      "name": "OwnableInvalidOwner",
      "type": "error"
    },
    {
      "inputs": [
        {
          "internalType": "address",
          "name": "account",
          "type": "address"
        }
      ],
      "name": "OwnableUnauthorizedAccount",
      "type": "error"
    },
    {
      "inputs": [
        {
          "internalType": "uint256",
          "name": "utxo",
          "type": "uint256"
        }
      ],
      "name": "UTXOAlreadyLocked",
      "type": "error"
    },
    {
      "inputs": [
        {
          "internalType": "uint256",
          "name": "utxo",
          "type": "uint256"
        }
      ],
      "name": "UTXOAlreadyOwned",
      "type": "error"
    },
    {
      "inputs": [
        {
          "internalType": "uint256",
          "name": "utxo",
          "type": "uint256"
        }
      ],
      "name": "UTXOAlreadySpent",
      "type": "error"
    },
    {
      "inputs": [
        {
          "internalType": "uint256",
          "name": "maxAllowed",
          "type": "uint256"
        }
      ],
      "name": "UTXOArrayTooLarge",
      "type": "error"
    },
    {
      "inputs": [
        {
          "internalType": "uint256",
          "name": "utxo",
          "type": "uint256"
        }
      ],
      "name": "UTXODuplicate",
      "type": "error"
    },
    {
      "inputs": [
        {
          "internalType": "uint256",
          "name": "utxo",
          "type": "uint256"
        }
      ],
      "name": "UTXONotLocked",
      "type": "error"
    },
    {
      "inputs": [
        {
          "internalType": "uint256",
          "name": "utxo",
          "type": "uint256"
        }
      ],
      "name": "UTXONotMinted",
      "type": "error"
    },
    {
      "inputs": [
        {
          "internalType": "uint256",
          "name": "root",
          "type": "uint256"
        }
      ],
      "name": "UTXORootNotFound",
      "type": "error"
    },
    {
      "inputs": [],
      "name": "UUPSUnauthorizedCallContext",
      "type": "error"
    },
    {
      "inputs": [
        {
          "internalType": "bytes32",
          "name": "slot",
          "type": "bytes32"
        }
      ],
      "name": "UUPSUnsupportedProxiableUUID",
      "type": "error"
    },
    {
      "inputs": [
        {
          "internalType": "uint256",
          "name": "maxAllowed",
          "type": "uint256"
        }
      ],
      "name": "WithdrawArrayTooLarge",
      "type": "error"
    },
    {
      "anonymous": false,
      "inputs": [
        {
          "indexed": false,
          "internalType": "uint64",
          "name": "version",
          "type": "uint64"
        }
      ],
      "name": "Initialized",
      "type": "event"
    },
    {
      "anonymous": false,
      "inputs": [
        {
          "indexed": false,
          "internalType": "uint256[]",
          "name": "lockedOutputs",
          "type": "uint256[]"
        },
        {
          "indexed": true,
          "internalType": "address",
          "name": "oldDelegate",
          "type": "address"
        },
        {
          "indexed": true,
          "internalType": "address",
          "name": "newDelegate",
          "type": "address"
        },
        {
          "indexed": false,
          "internalType": "bytes",
          "name": "data",
          "type": "bytes"
        }
      ],
      "name": "LockDelegateChanged",
      "type": "event"
    },
    {
      "anonymous": false,
      "inputs": [
        {
          "indexed": true,
          "internalType": "address",
          "name": "previousOwner",
          "type": "address"
        },
        {
          "indexed": true,
          "internalType": "address",
          "name": "newOwner",
          "type": "address"
        }
      ],
      "name": "OwnershipTransferred",
      "type": "event"
    },
    {
      "anonymous": false,
      "inputs": [
        {
          "indexed": false,
          "internalType": "uint256[]",
          "name": "inputs",
          "type": "uint256[]"
        },
        {
          "indexed": false,
          "internalType": "uint256",
          "name": "output",
          "type": "uint256"
        },
        {
          "indexed": true,
          "internalType": "address",
          "name": "submitter",
          "type": "address"
        },
        {
          "indexed": false,
          "internalType": "bytes",
          "name": "data",
          "type": "bytes"
        }
      ],
      "name": "UTXOBurn",
      "type": "event"
    },
    {
      "anonymous": false,
      "inputs": [
        {
          "indexed": false,
          "internalType": "uint256[]",
          "name": "outputs",
          "type": "uint256[]"
        },
        {
          "indexed": true,
          "internalType": "address",
          "name": "submitter",
          "type": "address"
        },
        {
          "indexed": false,
          "internalType": "bytes",
          "name": "data",
          "type": "bytes"
        }
      ],
      "name": "UTXOMint",
      "type": "event"
    },
    {
      "anonymous": false,
      "inputs": [
        {
          "indexed": false,
          "internalType": "uint256[]",
          "name": "inputs",
          "type": "uint256[]"
        },
        {
          "indexed": false,
          "internalType": "uint256[]",
          "name": "outputs",
          "type": "uint256[]"
        },
        {
          "indexed": true,
          "internalType": "address",
          "name": "submitter",
          "type": "address"
        },
        {
          "indexed": false,
          "internalType": "bytes",
          "name": "data",
          "type": "bytes"
        }
      ],
      "name": "UTXOTransfer",
      "type": "event"
    },
    {
      "anonymous": false,
      "inputs": [
        {
          "indexed": false,
          "internalType": "uint256[]",
          "name": "inputs",
          "type": "uint256[]"
        },
        {
          "indexed": false,
          "internalType": "uint256[]",
          "name": "outputs",
          "type": "uint256[]"
        },
        {
          "indexed": false,
          "internalType": "uint256",
          "name": "encryptionNonce",
          "type": "uint256"
        },
        {
          "indexed": false,
          "internalType": "uint256[2]",
          "name": "ecdhPublicKey",
          "type": "uint256[2]"
        },
        {
          "indexed": false,
          "internalType": "uint256[]",
          "name": "encryptedValues",
          "type": "uint256[]"
        },
        {
          "indexed": true,
          "internalType": "address",
          "name": "submitter",
          "type": "address"
        },
        {
          "indexed": false,
          "internalType": "bytes",
          "name": "data",
          "type": "bytes"
        }
      ],
      "name": "UTXOTransferWithEncryptedValues",
      "type": "event"
    },
    {
      "anonymous": false,
      "inputs": [
        {
          "indexed": false,
          "internalType": "uint256",
          "name": "amount",
          "type": "uint256"
        },
        {
          "indexed": false,
          "internalType": "uint256[]",
          "name": "inputs",
          "type": "uint256[]"
        },
        {
          "indexed": false,
          "internalType": "uint256",
          "name": "output",
          "type": "uint256"
        },
        {
          "indexed": true,
          "internalType": "address",
          "name": "submitter",
          "type": "address"
        },
        {
          "indexed": false,
          "internalType": "bytes",
          "name": "data",
          "type": "bytes"
        }
      ],
      "name": "UTXOWithdraw",
      "type": "event"
    },
    {
      "anonymous": false,
      "inputs": [
        {
          "indexed": false,
          "internalType": "uint256[]",
          "name": "inputs",
          "type": "uint256[]"
        },
        {
          "indexed": false,
          "internalType": "uint256[]",
          "name": "outputs",
          "type": "uint256[]"
        },
        {
          "indexed": false,
          "internalType": "uint256[]",
          "name": "lockedOutputs",
          "type": "uint256[]"
        },
        {
          "indexed": true,
          "internalType": "address",
          "name": "delegate",
          "type": "address"
        },
        {
          "indexed": true,
          "internalType": "address",
          "name": "submitter",
          "type": "address"
        },
        {
          "indexed": false,
          "internalType": "bytes",
          "name": "data",
          "type": "bytes"
        }
      ],
      "name": "UTXOsLocked",
      "type": "event"
    },
    {
      "anonymous": false,
      "inputs": [
        {
          "indexed": true,
          "internalType": "address",
          "name": "implementation",
          "type": "address"
        }
      ],
      "name": "Upgraded",
      "type": "event"
    },
    {
      "inputs": [],
      "name": "UPGRADE_INTERFACE_VERSION",
      "outputs": [
        {
          "internalType": "string",
          "name": "",
          "type": "string"
        }
      ],
      "stateMutability": "view",
      "type": "function"
    },
    {
      "inputs": [
        {
          "internalType": "contract Groth16Verifier_BurnNullifier",
          "name": "burnVerifier",
          "type": "address"
        },
        {
          "internalType": "contract Groth16Verifier_BurnNullifierBatch",
          "name": "batchBurnVerifier",
          "type": "address"
        }
      ],
      "name": "__ZetoFungibleBurnableWithNullifiers_init",
      "outputs": [],
      "stateMutability": "nonpayable",
      "type": "function"
    },
    {
      "inputs": [
        {
          "internalType": "contract Groth16Verifier_Deposit",
          "name": "depositVerifier",
          "type": "address"
        }
      ],
      "name": "__ZetoFungible_init",
      "outputs": [],
      "stateMutability": "nonpayable",
      "type": "function"
    },
    {
      "inputs": [
        {
          "internalType": "uint256",
          "name": "amount",
          "type": "uint256"
        },
        {
          "internalType": "uint256[]",
          "name": "outputs",
          "type": "uint256[]"
        },
        {
          "components": [
            {
              "internalType": "uint256[2]",
              "name": "pA",
              "type": "uint256[2]"
            },
            {
              "internalType": "uint256[2][2]",
              "name": "pB",
              "type": "uint256[2][2]"
            },
            {
              "internalType": "uint256[2]",
              "name": "pC",
              "type": "uint256[2]"
            }
          ],
          "internalType": "struct Commonlib.Proof",
          "name": "proof",
          "type": "tuple"
        }
      ],
      "name": "_deposit",
      "outputs": [],
      "stateMutability": "nonpayable",
      "type": "function"
    },
    {
      "inputs": [
        {
          "internalType": "uint256",
          "name": "amount",
          "type": "uint256"
        },
        {
          "internalType": "uint256[]",
          "name": "nullifiers",
          "type": "uint256[]"
        },
        {
          "internalType": "uint256",
          "name": "output",
          "type": "uint256"
        },
        {
          "internalType": "uint256",
          "name": "root",
          "type": "uint256"
        },
        {
          "components": [
            {
              "internalType": "uint256[2]",
              "name": "pA",
              "type": "uint256[2]"
            },
            {
              "internalType": "uint256[2][2]",
              "name": "pB",
              "type": "uint256[2][2]"
            },
            {
              "internalType": "uint256[2]",
              "name": "pC",
              "type": "uint256[2]"
            }
          ],
          "internalType": "struct Commonlib.Proof",
          "name": "proof",
          "type": "tuple"
        }
      ],
      "name": "_withdrawWithNullifiers",
      "outputs": [],
      "stateMutability": "nonpayable",
      "type": "function"
    },
    {
      "inputs": [
        {
          "internalType": "uint256[]",
          "name": "nullifiers",
          "type": "uint256[]"
        },
        {
          "internalType": "uint256",
          "name": "output",
          "type": "uint256"
        },
        {
          "internalType": "uint256",
          "name": "root",
          "type": "uint256"
        },
        {
          "components": [
            {
              "internalType": "uint256[2]",
              "name": "pA",
              "type": "uint256[2]"
            },
            {
              "internalType": "uint256[2][2]",
              "name": "pB",
              "type": "uint256[2][2]"
            },
            {
              "internalType": "uint256[2]",
              "name": "pC",
              "type": "uint256[2]"
            }
          ],
          "internalType": "struct Commonlib.Proof",
          "name": "proof",
          "type": "tuple"
        },
        {
          "internalType": "bytes",
          "name": "data",
          "type": "bytes"
        }
      ],
      "name": "burn",
      "outputs": [],
      "stateMutability": "nonpayable",
      "type": "function"
    },
    {
      "inputs": [
        {
          "internalType": "uint256[]",
          "name": "commitments",
          "type": "uint256[]"
        }
      ],
      "name": "checkAndPadCommitments",
      "outputs": [
        {
          "internalType": "uint256[]",
          "name": "",
          "type": "uint256[]"
        }
      ],
      "stateMutability": "pure",
      "type": "function"
    },
    {
      "inputs": [],
      "name": "decimals",
      "outputs": [
        {
          "internalType": "uint8",
          "name": "",
          "type": "uint8"
        }
      ],
      "stateMutability": "view",
      "type": "function"
    },
    {
      "inputs": [
        {
          "internalType": "uint256[]",
          "name": "utxos",
          "type": "uint256[]"
        },
        {
          "internalType": "address",
          "name": "delegate",
          "type": "address"
        },
        {
          "internalType": "bytes",
          "name": "data",
          "type": "bytes"
        }
      ],
      "name": "delegateLock",
      "outputs": [],
      "stateMutability": "nonpayable",
      "type": "function"
    },
    {
      "inputs": [
        {
          "internalType": "uint256",
          "name": "amount",
          "type": "uint256"
        },
        {
          "internalType": "uint256[]",
          "name": "outputs",
          "type": "uint256[]"
        },
        {
          "components": [
            {
              "internalType": "uint256[2]",
              "name": "pA",
              "type": "uint256[2]"
            },
            {
              "internalType": "uint256[2][2]",
              "name": "pB",
              "type": "uint256[2][2]"
            },
            {
              "internalType": "uint256[2]",
              "name": "pC",
              "type": "uint256[2]"
            }
          ],
          "internalType": "struct Commonlib.Proof",
          "name": "proof",
          "type": "tuple"
        },
        {
          "internalType": "bytes",
          "name": "data",
          "type": "bytes"
        }
      ],
      "name": "deposit",
      "outputs": [],
      "stateMutability": "nonpayable",
      "type": "function"
    },
    {
      "inputs": [],
      "name": "getRoot",
      "outputs": [
        {
          "internalType": "uint256",
          "name": "",
          "type": "uint256"
        }
      ],
      "stateMutability": "view",
      "type": "function"
    },
    {
      "inputs": [],
      "name": "getRootForLocked",
      "outputs": [
        {
          "internalType": "uint256",
          "name": "",
          "type": "uint256"
        }
      ],
      "stateMutability": "view",
      "type": "function"
    },
    {
      "inputs": [
        {
          "internalType": "string",
          "name": "name",
          "type": "string"
        },
        {
          "internalType": "string",
          "name": "symbol",
          "type": "string"
        },
        {
          "internalType": "address",
          "name": "initialOwner",
          "type": "address"
        },
        {
          "components": [
            {
              "internalType": "address",
              "name": "verifier",
              "type": "address"
            },
            {
              "internalType": "address",
              "name": "depositVerifier",
              "type": "address"
            },
            {
              "internalType": "address",
              "name": "withdrawVerifier",
              "type": "address"
            },
            {
              "internalType": "address",
              "name": "lockVerifier",
              "type": "address"
            },
            {
              "internalType": "address",
              "name": "burnVerifier",
              "type": "address"
            },
            {
              "internalType": "address",
              "name": "batchVerifier",
              "type": "address"
            },
            {
              "internalType": "address",
              "name": "batchWithdrawVerifier",
              "type": "address"
            },
            {
              "internalType": "address",
              "name": "batchLockVerifier",
              "type": "address"
            },
            {
              "internalType": "address",
              "name": "batchBurnVerifier",
              "type": "address"
            }
          ],
          "internalType": "struct IZetoInitializable.VerifiersInfo",
          "name": "verifiers",
          "type": "tuple"
        }
      ],
      "name": "initialize",
      "outputs": [],
      "stateMutability": "nonpayable",
      "type": "function"
    },
    {
      "inputs": [
        {
          "internalType": "uint256[]",
          "name": "nullifiers",
          "type": "uint256[]"
        },
        {
          "internalType": "uint256[]",
          "name": "outputs",
          "type": "uint256[]"
        },
        {
          "internalType": "uint256[]",
          "name": "lockedOutputs",
          "type": "uint256[]"
        },
        {
          "internalType": "uint256",
          "name": "root",
          "type": "uint256"
        },
        {
          "components": [
            {
              "internalType": "uint256[2]",
              "name": "pA",
              "type": "uint256[2]"
            },
            {
              "internalType": "uint256[2][2]",
              "name": "pB",
              "type": "uint256[2][2]"
            },
            {
              "internalType": "uint256[2]",
              "name": "pC",
              "type": "uint256[2]"
            }
          ],
          "internalType": "struct Commonlib.Proof",
          "name": "proof",
          "type": "tuple"
        },
        {
          "internalType": "address",
          "name": "delegate",
          "type": "address"
        },
        {
          "internalType": "bytes",
          "name": "data",
          "type": "bytes"
        }
      ],
      "name": "lock",
      "outputs": [],
      "stateMutability": "nonpayable",
      "type": "function"
    },
    {
      "inputs": [
        {
          "internalType": "uint256",
          "name": "utxo",
          "type": "uint256"
        },
        {
          "internalType": "address",
          "name": "delegate",
          "type": "address"
        }
      ],
      "name": "locked",
      "outputs": [
        {
          "internalType": "bool",
          "name": "",
          "type": "bool"
        },
        {
          "internalType": "address",
          "name": "",
          "type": "address"
        }
      ],
      "stateMutability": "view",
      "type": "function"
    },
    {
      "inputs": [
        {
          "internalType": "uint256[]",
          "name": "utxos",
          "type": "uint256[]"
        },
        {
          "internalType": "bytes",
          "name": "data",
          "type": "bytes"
        }
      ],
      "name": "mint",
      "outputs": [],
      "stateMutability": "nonpayable",
      "type": "function"
    },
    {
      "inputs": [],
      "name": "name",
      "outputs": [
        {
          "internalType": "string",
          "name": "",
          "type": "string"
        }
      ],
      "stateMutability": "view",
      "type": "function"
    },
    {
      "inputs": [],
      "name": "owner",
      "outputs": [
        {
          "internalType": "address",
          "name": "",
          "type": "address"
        }
      ],
      "stateMutability": "view",
      "type": "function"
    },
    {
      "inputs": [],
      "name": "proxiableUUID",
      "outputs": [
        {
          "internalType": "bytes32",
          "name": "",
          "type": "bytes32"
        }
      ],
      "stateMutability": "view",
      "type": "function"
    },
    {
      "inputs": [],
      "name": "renounceOwnership",
      "outputs": [],
      "stateMutability": "nonpayable",
      "type": "function"
    },
    {
      "inputs": [
        {
          "internalType": "contract IERC20",
          "name": "erc20",
          "type": "address"
        }
      ],
      "name": "setERC20",
      "outputs": [],
      "stateMutability": "nonpayable",
      "type": "function"
    },
    {
      "inputs": [],
      "name": "symbol",
      "outputs": [
        {
          "internalType": "string",
          "name": "",
          "type": "string"
        }
      ],
      "stateMutability": "view",
      "type": "function"
    },
    {
      "inputs": [
        {
          "internalType": "uint256[]",
          "name": "nullifiers",
          "type": "uint256[]"
        },
        {
          "internalType": "uint256[]",
          "name": "outputs",
          "type": "uint256[]"
        },
        {
          "internalType": "uint256",
          "name": "root",
          "type": "uint256"
        },
        {
          "components": [
            {
              "internalType": "uint256[2]",
              "name": "pA",
              "type": "uint256[2]"
            },
            {
              "internalType": "uint256[2][2]",
              "name": "pB",
              "type": "uint256[2][2]"
            },
            {
              "internalType": "uint256[2]",
              "name": "pC",
              "type": "uint256[2]"
            }
          ],
          "internalType": "struct Commonlib.Proof",
          "name": "proof",
          "type": "tuple"
        },
        {
          "internalType": "bytes",
          "name": "data",
          "type": "bytes"
        }
      ],
      "name": "transfer",
      "outputs": [
        {
          "internalType": "bool",
          "name": "",
          "type": "bool"
        }
      ],
      "stateMutability": "nonpayable",
      "type": "function"
    },
    {
      "inputs": [
        {
          "internalType": "uint256[]",
          "name": "nullifiers",
          "type": "uint256[]"
        },
        {
          "internalType": "uint256[]",
          "name": "outputs",
          "type": "uint256[]"
        },
        {
          "internalType": "uint256",
          "name": "root",
          "type": "uint256"
        },
        {
          "components": [
            {
              "internalType": "uint256[2]",
              "name": "pA",
              "type": "uint256[2]"
            },
            {
              "internalType": "uint256[2][2]",
              "name": "pB",
              "type": "uint256[2][2]"
            },
            {
              "internalType": "uint256[2]",
              "name": "pC",
              "type": "uint256[2]"
            }
          ],
          "internalType": "struct Commonlib.Proof",
          "name": "proof",
          "type": "tuple"
        },
        {
          "internalType": "bytes",
          "name": "data",
          "type": "bytes"
        }
      ],
      "name": "transferLocked",
      "outputs": [
        {
          "internalType": "bool",
          "name": "",
          "type": "bool"
        }
      ],
      "stateMutability": "nonpayable",
      "type": "function"
    },
    {
      "inputs": [
        {
          "internalType": "address",
          "name": "newOwner",
          "type": "address"
        }
      ],
      "name": "transferOwnership",
      "outputs": [],
      "stateMutability": "nonpayable",
      "type": "function"
    },
    {
      "inputs": [
        {
          "internalType": "uint256[]",
          "name": "nullifiers",
          "type": "uint256[]"
        },
        {
          "internalType": "uint256[]",
          "name": "outputs",
          "type": "uint256[]"
        },
        {
          "internalType": "uint256",
          "name": "root",
          "type": "uint256"
        },
        {
          "components": [
            {
              "internalType": "uint256[2]",
              "name": "pA",
              "type": "uint256[2]"
            },
            {
              "internalType": "uint256[2][2]",
              "name": "pB",
              "type": "uint256[2][2]"
            },
            {
              "internalType": "uint256[2]",
              "name": "pC",
              "type": "uint256[2]"
            }
          ],
          "internalType": "struct Commonlib.Proof",
          "name": "proof",
          "type": "tuple"
        },
        {
          "internalType": "bytes",
          "name": "data",
          "type": "bytes"
        }
      ],
      "name": "unlock",
      "outputs": [],
      "stateMutability": "nonpayable",
      "type": "function"
    },
    {
      "inputs": [
        {
          "internalType": "address",
          "name": "newImplementation",
          "type": "address"
        },
        {
          "internalType": "bytes",
          "name": "data",
          "type": "bytes"
        }
      ],
      "name": "upgradeToAndCall",
      "outputs": [],
      "stateMutability": "payable",
      "type": "function"
    },
    {
      "inputs": [
        {
          "internalType": "uint256[]",
          "name": "nullifiers",
          "type": "uint256[]"
        },
        {
          "internalType": "uint256[]",
          "name": "outputs",
          "type": "uint256[]"
        },
        {
          "internalType": "uint256",
          "name": "root",
          "type": "uint256"
        },
        {
          "components": [
            {
              "internalType": "uint256[2]",
              "name": "pA",
              "type": "uint256[2]"
            },
            {
              "internalType": "uint256[2][2]",
              "name": "pB",
              "type": "uint256[2][2]"
            },
            {
              "internalType": "uint256[2]",
              "name": "pC",
              "type": "uint256[2]"
            }
          ],
          "internalType": "struct Commonlib.Proof",
          "name": "proof",
          "type": "tuple"
        }
      ],
      "name": "verifyProof",
      "outputs": [
        {
          "internalType": "bool",
          "name": "",
          "type": "bool"
        }
      ],
      "stateMutability": "view",
      "type": "function"
    },
    {
      "inputs": [
        {
          "internalType": "uint256[]",
          "name": "nullifiers",
          "type": "uint256[]"
        },
        {
          "internalType": "uint256[]",
          "name": "outputs",
          "type": "uint256[]"
        },
        {
          "internalType": "uint256",
          "name": "root",
          "type": "uint256"
        },
        {
          "components": [
            {
              "internalType": "uint256[2]",
              "name": "pA",
              "type": "uint256[2]"
            },
            {
              "internalType": "uint256[2][2]",
              "name": "pB",
              "type": "uint256[2][2]"
            },
            {
              "internalType": "uint256[2]",
              "name": "pC",
              "type": "uint256[2]"
            }
          ],
          "internalType": "struct Commonlib.Proof",
          "name": "proof",
          "type": "tuple"
        }
      ],
      "name": "verifyProofLocked",
      "outputs": [
        {
          "internalType": "bool",
          "name": "",
          "type": "bool"
        }
      ],
      "stateMutability": "view",
      "type": "function"
    },
    {
      "inputs": [
        {
          "internalType": "uint256",
          "name": "amount",
          "type": "uint256"
        },
        {
          "internalType": "uint256[]",
          "name": "nullifiers",
          "type": "uint256[]"
        },
        {
          "internalType": "uint256",
          "name": "output",
          "type": "uint256"
        },
        {
          "internalType": "uint256",
          "name": "root",
          "type": "uint256"
        },
        {
          "components": [
            {
              "internalType": "uint256[2]",
              "name": "pA",
              "type": "uint256[2]"
            },
            {
              "internalType": "uint256[2][2]",
              "name": "pB",
              "type": "uint256[2][2]"
            },
            {
              "internalType": "uint256[2]",
              "name": "pC",
              "type": "uint256[2]"
            }
          ],
          "internalType": "struct Commonlib.Proof",
          "name": "proof",
          "type": "tuple"
        },
        {
          "internalType": "bytes",
          "name": "data",
          "type": "bytes"
        }
      ],
      "name": "withdraw",
      "outputs": [],
      "stateMutability": "nonpayable",
      "type": "function"
    }
  ],
  "bytecode": "0x60a060405230608052348015601357600080fd5b50608051614ccb61003d600039600081816124de0152818161250701526126850152614ccb6000f3fe6080604052600436106101cd5760003560e01c80638da5cb5b116100f7578063cd0af7f311610095578063da805f1111610064578063da805f111461057c578063f2fde38b1461059c578063f586acdb146105bc578063f7e648d3146105dc57600080fd5b8063cd0af7f3146104fc578063cd523c731461051c578063d07b1cfb1461053c578063d0b8cdb11461055c57600080fd5b80639fcc50af116100d15780639fcc50af14610453578063a4ef9ad114610473578063ad3cb1cc14610493578063c29a6fda146104dc57600080fd5b80638da5cb5b146103d757806395d89b411461041e5780639e2a71941461043357600080fd5b80633f2b2a1d1161016f57806366eded991161013e57806366eded9914610362578063715018a61461038257806374366e3c146103975780638bb2513b146103b757600080fd5b80633f2b2a1d146102f55780634f1ef2861461031757806352d1902d1461032a5780635ca1e1651461034d57600080fd5b806324ce729e116101ab57806324ce729e1461024d57806324ef458a1461027a57806329bb0a84146102b9578063313ce567146102d957600080fd5b806306fdde03146101d257806322414cf3146101fd578063234ea4b21461022d575b600080fd5b3480156101de57600080fd5b506101e76105f1565b6040516101f49190613b35565b60405180910390f35b34801561020957600080fd5b5061021d610218366004613cc5565b610683565b60405190151581526020016101f4565b34801561023957600080fd5b5061021d610248366004613d7d565b610830565b34801561025957600080fd5b5061026d610268366004613e02565b610abd565b6040516101f49190613e73565b34801561028657600080fd5b5061029a610295366004613eab565b610b2b565b6040805192151583526001600160a01b039091166020830152016101f4565b3480156102c557600080fd5b5061021d6102d4366004613d7d565b610b44565b3480156102e557600080fd5b50604051600481526020016101f4565b34801561030157600080fd5b50610315610310366004613edb565b610cc6565b005b61031561032536600461402c565b610e11565b34801561033657600080fd5b5061033f610e30565b6040519081526020016101f4565b34801561035957600080fd5b5061033f610e5f565b34801561036e57600080fd5b5061031561037d366004614090565b610edc565b34801561038e57600080fd5b50610315610fd8565b3480156103a357600080fd5b506103156103b2366004613cc5565b610fec565b3480156103c357600080fd5b506103156103d2366004614130565b611003565b3480156103e357600080fd5b507f9016d09d72d40fdae2fd8ceac6b6234c7706214fd39c1cd1e609a0528c199300546040516001600160a01b0390911681526020016101f4565b34801561042a57600080fd5b506101e761101b565b34801561043f57600080fd5b5061031561044e36600461419e565b61102a565b34801561045f57600080fd5b5061031561046e36600461420b565b6113a7565b34801561047f57600080fd5b5061031561048e366004614228565b6113d1565b34801561049f57600080fd5b506101e76040518060400160405280600581526020017f352e302e3000000000000000000000000000000000000000000000000000000081525081565b3480156104e857600080fd5b506103156104f736600461420b565b61160d565b34801561050857600080fd5b506103156105173660046142a6565b611637565b34801561052857600080fd5b50610315610537366004614301565b6118bc565b34801561054857600080fd5b5061021d610557366004613cc5565b6118d2565b34801561056857600080fd5b5061031561057736600461438e565b611a27565b34801561058857600080fd5b506103156105973660046143bc565b611a5d565b3480156105a857600080fd5b506103156105b736600461420b565b611c87565b3480156105c857600080fd5b506103156105d7366004614435565b611cde565b3480156105e857600080fd5b5061033f611e45565b606060008054610600906144cd565b80601f016020809104026020016040519081016040528092919081815260200182805461062c906144cd565b80156106795780601f1061064e57610100808354040283529160200191610679565b820191906000526020600020905b81548152906001019060200180831161065c57829003601f168201915b5050505050905090565b600061068e87610abd565b965061069986610abd565b95506106a88787876000611e80565b506106b587878787610830565b5060606106c58888836000611eac565b6000885167ffffffffffffffff8111156106e1576106e1613b68565b60405190808252806020026020018201604052801561070a578160200160208202803683370190505b5090506000885167ffffffffffffffff81111561072957610729613b68565b604051908082528060200260200182016040528015610752578160200160208202803683370190505b50905060005b8a518110156107d8578a818151811061077357610773614501565b602002602001015183828151811061078d5761078d614501565b6020026020010181815250508981815181106107ab576107ab614501565b60200260200101518282815181106107c5576107c5614501565b6020908102919091010152600101610758565b50336001600160a01b03167fcb56a7130431b68e0e636f24584d40580490c1bf882bef3701f317d47ba98c38838389896040516108189493929190614540565b60405180910390a25060019998505050505050505050565b6000600285511180610843575060028451115b15610996576000610859868686601f6000611ec8565b9050610863613a1c565b60005b601f8110156108a85782818151811061088157610881614501565b60200260200101518282601f811061089b5761089b614501565b6020020152600101610866565b50606c54604080517f44a173dd0000000000000000000000000000000000000000000000000000000081526001600160a01b03909216916344a173dd916108fd91889182019060c083019087906004016145aa565b602060405180830381865afa15801561091a573d6000803e3d6000fd5b505050506040513d601f19601f8201168201806040525081019061093e919061460d565b61098f5760405162461bcd60e51b815260206004820152601560248201527f496e76616c69642070726f6f662028626174636829000000000000000000000060448201526064015b60405180910390fd5b5050610ab2565b60006109a786868660076000611ec8565b90506109b1613a3b565b60005b60078110156109f6578281815181106109cf576109cf614501565b60200260200101518282600781106109e9576109e9614501565b60200201526001016109b4565b50606b546040805163c894e75760e01b81526001600160a01b039092169163c894e75791610a3291889182019060c08301908790600401614628565b602060405180830381865afa158015610a4f573d6000803e3d6000fd5b505050506040513d601f19601f82011682018060405250810190610a73919061460d565b610aaf5760405162461bcd60e51b815260206004820152600d60248201526c24b73b30b634b210383937b7b360991b6044820152606401610986565b50505b506001949350505050565b8051606090600a811115610b00576040517f9ebbc98e000000000000000000000000000000000000000000000000000000008152600a6004820152602401610986565b60006002821115610b135750600a610b17565b5060025b610b2384826000612090565b949350505050565b600080610b388484612170565b915091505b9250929050565b6000600285511180610b57575060028451115b15610c11576000610b6d86868660206001611ec8565b9050610b77613a59565b60005b6020811015610bbc57828181518110610b9557610b95614501565b6020026020010151828260208110610baf57610baf614501565b6020020152600101610b7a565b50606e54604080517f3cc08b240000000000000000000000000000000000000000000000000000000081526001600160a01b0390921691633cc08b24916108fd91889182019060c0830190879060040161466f565b6000610c2286868660086001611ec8565b9050610c2c613a78565b60005b6008811015610c7157828181518110610c4a57610c4a614501565b6020026020010151828260088110610c6457610c64614501565b6020020152600101610c2f565b50606d54604080517fc9219a7a0000000000000000000000000000000000000000000000000000000081526001600160a01b039092169163c9219a7a91610a3291889182019060c083019087906004016146b6565b600086518851610cd69190614713565b67ffffffffffffffff811115610cee57610cee613b68565b604051908082528060200260200182016040528015610d17578160200160208202803683370190505b50905060005b8851811015610d6557888181518110610d3857610d38614501565b6020026020010151828281518110610d5257610d52614501565b6020908102919091010152600101610d1d565b5060005b8751811015610dbd57878181518110610d8457610d84614501565b602002602001015182828b51610d9a9190614713565b81518110610daa57610daa614501565b6020908102919091010152600101610d69565b50610dc789610abd565b9850610dd281610abd565b9050610de18982886000611e80565b50610dee89828888610830565b50610df889612226565b610e068989898787876122a1565b505050505050505050565b610e196124d3565b610e228261258a565b610e2c8282612592565b5050565b6000610e3a61267a565b507f360894a13ba1a3210667c828492db98dca3e2076cc3735a920a3ca505d382bbc90565b6040516379f9712560e01b81526002600482015260009073__$dc6c4dd02ac6da041aea5ed0aea43c2a22$__906379f97125906024015b602060405180830381865af4158015610eb3573d6000803e3d6000fd5b505050506040513d601f19601f82011682018060405250810190610ed79190614726565b905090565b6000865167ffffffffffffffff811115610ef857610ef8613b68565b604051908082528060200260200182016040528015610f21578160200160208202803683370190505b5090508581600081518110610f3857610f38614501565b602002602001018181525050610f4d87610abd565b9650610f5881610abd565b9050610f678782876000611e80565b50610f75888888888861102a565b6060610f848883836000611eac565b336001600160a01b03167f7d8a8f009bcd9cd0dc27e36fe37cc7cfe2bbd1469c0970d31046d3c12ec7f48c8a8a8a8888604051610fc595949392919061473f565b60405180910390a2505050505050505050565b610fe06126c3565b610fea6000612737565b565b610ffa8686868686866118d2565b50505050505050565b61100b6126c3565b6110168383836127a8565b505050565b606060018054610600906144cd565b6002845111156111ab57601784511115611073576040517f71798fb500000000000000000000000000000000000000000000000000000000815260176004820152602401610986565b6000611083868686866017612805565b905061108d613a97565b60005b60178110156110d2578281815181106110ab576110ab614501565b60200260200101518282601781106110c5576110c5614501565b6020020152600101611090565b50606a54604080517fa0c2a19a0000000000000000000000000000000000000000000000000000000081526001600160a01b039092169163a0c2a19a9161112791879182019060c0830190879060040161477d565b602060405180830381865afa158015611144573d6000803e3d6000fd5b505050506040513d601f19601f82011682018060405250810190611168919061460d565b6111a45760405162461bcd60e51b815260206004820152600d60248201526c24b73b30b634b210383937b7b360991b6044820152606401610986565b50506112c6565b60006111bb868686866007612805565b90506111c5613a3b565b60005b600781101561120a578281815181106111e3576111e3614501565b60200260200101518282600781106111fd576111fd614501565b60200201526001016111c8565b506069546040805163c894e75760e01b81526001600160a01b039092169163c894e7579161124691879182019060c08301908790600401614628565b602060405180830381865afa158015611263573d6000803e3d6000fd5b505050506040513d601f19601f82011682018060405250810190611287919061460d565b6112c35760405162461bcd60e51b815260206004820152600d60248201526c24b73b30b634b210383937b7b360991b6044820152606401610986565b50505b6068546040517fa9059cbb000000000000000000000000000000000000000000000000000000008152336004820152602481018790526001600160a01b039091169063a9059cbb906044016020604051808303816000875af1158015611330573d6000803e3d6000fd5b505050506040513d601f19601f82011682018060405250810190611354919061460d565b6113a05760405162461bcd60e51b815260206004820152601f60248201527f4661696c656420746f207472616e7366657220455243323020746f6b656e73006044820152606401610986565b5050505050565b6113af612999565b606780546001600160a01b0319166001600160a01b0392909216919091179055565b60005b84518110156115b7578481815181106113ef576113ef614501565b6020026020010151600003156115af5760008061142587848151811061141757611417614501565b602002602001015133612170565b90925090508161147e5786838151811061144157611441614501565b60200260200101516040517fe41859a600000000000000000000000000000000000000000000000000000000815260040161098691815260200190565b6001600160a01b03811633146114f6578683815181106114a0576114a0614501565b60209081029190910101516040517f9fec262f00000000000000000000000000000000000000000000000000000000815260048101919091526001600160a01b0387166024820152336044820152606401610986565b603473__$dc6c4dd02ac6da041aea5ed0aea43c2a22$__63c1d29f01909189868151811061152657611526614501565b60209081029190910101516040517fffffffff0000000000000000000000000000000000000000000000000000000060e085901b168152600481019290925260248201526001600160a01b038916604482015260640160006040518083038186803b15801561159457600080fd5b505af41580156115a8573d6000803e3d6000fd5b5050505050505b6001016113d4565b50826001600160a01b0316336001600160a01b03167fb81fc4239cf1f8a9964a337bb7866ffeb712f9e482d9cef0f5fac9fe3bd655b28685856040516115ff939291906147c4565b60405180910390a350505050565b6116156126c3565b606880546001600160a01b0319166001600160a01b0392909216919091179055565b60028651111561177657600061164e878787612a00565b9050611658613ab6565b60005b601681101561169d5782818151811061167657611676614501565b602002602001015182826016811061169057611690614501565b602002015260010161165b565b50607054604080517fc5a0fc260000000000000000000000000000000000000000000000000000000081526001600160a01b039092169163c5a0fc26916116f291899182019060c083019087906004016147f4565b602060405180830381865afa15801561170f573d6000803e3d6000fd5b505050506040513d601f19601f82011682018060405250810190611733919061460d565b61176f5760405162461bcd60e51b815260206004820152600d60248201526c24b73b30b634b210383937b7b360991b6044820152606401610986565b50506118a7565b6000611783878787612a00565b905061178d613ad5565b60005b60068110156117d2578281815181106117ab576117ab614501565b60200260200101518282600681106117c5576117c5614501565b6020020152600101611790565b50606f54604080517ff398789b0000000000000000000000000000000000000000000000000000000081526001600160a01b039092169163f398789b9161182791899182019060c0830190879060040161483b565b602060405180830381865afa158015611844573d6000803e3d6000fd5b505050506040513d601f19601f82011682018060405250810190611868919061460d565b6118a45760405162461bcd60e51b815260206004820152600d60248201526c24b73b30b634b210383937b7b360991b6044820152606401610986565b50505b6118b48686868585612b74565b505050505050565b6118c7858585611a5d565b6113a08483836127a8565b60006118dd87610abd565b96506118e886610abd565b95506118f78787876001611e80565b5061190487878787610b44565b5060606119148888836000611eac565b6000885167ffffffffffffffff81111561193057611930613b68565b604051908082528060200260200182016040528015611959578160200160208202803683370190505b5090506000885167ffffffffffffffff81111561197857611978613b68565b6040519080825280602002602001820160405280156119a1578160200160208202803683370190505b50905060005b8a518110156107d8578a81815181106119c2576119c2614501565b60200260200101518382815181106119dc576119dc614501565b6020026020010181815250508981815181106119fa576119fa614501565b6020026020010151828281518110611a1457611a14614501565b60209081029190910101526001016119a7565b611a2f612999565b606f80546001600160a01b039384166001600160a01b03199182161790915560708054929093169116179055565b611a65613af3565b83815282518390600090611a7b57611a7b614501565b602002602001015181600160038110611a9657611a96614501565b6020020152825183906001908110611ab057611ab0614501565b602002602001015181600260038110611acb57611acb614501565b6020020152606754604080517f11479fea0000000000000000000000000000000000000000000000000000000081526001600160a01b03909216916311479fea91611b2491869182019060c08301908790600401614882565b602060405180830381865afa158015611b41573d6000803e3d6000fd5b505050506040513d601f19601f82011682018060405250810190611b65919061460d565b611ba15760405162461bcd60e51b815260206004820152600d60248201526c24b73b30b634b210383937b7b360991b6044820152606401610986565b6068546040517f23b872dd000000000000000000000000000000000000000000000000000000008152336004820152306024820152604481018690526001600160a01b03909116906323b872dd906064016020604051808303816000875af1158015611c11573d6000803e3d6000fd5b505050506040513d601f19601f82011682018060405250810190611c35919061460d565b611c815760405162461bcd60e51b815260206004820152601f60248201527f4661696c656420746f207472616e7366657220455243323020746f6b656e73006044820152606401610986565b50505050565b611c8f6126c3565b6001600160a01b038116611cd2576040517f1e4fbdf700000000000000000000000000000000000000000000000000000000815260006004820152602401610986565b611cdb81612737565b50565b7ff0c57e16840df040f15088dc2f81fe391c3923bec73e23a9662efc9c229c6a00805468010000000000000000810460ff16159067ffffffffffffffff16600081158015611d295750825b905060008267ffffffffffffffff166001148015611d465750303b155b905081158015611d54575080155b15611d8b576040517ff92ee8a900000000000000000000000000000000000000000000000000000000815260040160405180910390fd5b845467ffffffffffffffff191660011785558315611dbf57845468ff00000000000000001916680100000000000000001785555b611dcb89898989612c25565b611df0611dde60a088016080890161420b565b61057761012089016101008a0161420b565b8315610e0657845468ff000000000000000019168555604051600181527fc7f505b2f371ae2175ee4913f4499e1f2633a7b5936321eed1cdaeb6115181d29060200160405180910390a1505050505050505050565b6040516379f9712560e01b81526034600482015260009073__$dc6c4dd02ac6da041aea5ed0aea43c2a22$__906379f9712590602401610e96565b6000611e8b85612d34565b50611e9584612eaa565b50611ea08383612fcd565b50600195945050505050565b611eb584612226565b611ebe83613126565b611c81828261320d565b60608267ffffffffffffffff811115611ee357611ee3613b68565b604051908082528060200260200182016040528015611f0c578160200160208202803683370190505b5090506000805b8751811015611f6757878181518110611f2e57611f2e614501565b6020026020010151838380611f42906148c9565b945081518110611f5457611f54614501565b6020908102919091010152600101611f13565b508215611f9957338282611f7a816148c9565b935081518110611f8c57611f8c614501565b6020026020010181815250505b848282611fa5816148c9565b935081518110611fb757611fb7614501565b60200260200101818152505060005b875181101561202d57878181518110611fe157611fe1614501565b6020026020010151600014611ff7576001611ffa565b60005b60ff168383612008816148c9565b94508151811061201a5761201a614501565b6020908102919091010152600101611fc6565b5060005b86518110156120855786818151811061204c5761204c614501565b6020026020010151838380612060906148c9565b94508151811061207257612072614501565b6020908102919091010152600101612031565b505095945050505050565b6060828451036120a1575082612169565b60008367ffffffffffffffff8111156120bc576120bc613b68565b6040519080825280602002602001820160405280156120e5578160200160208202803683370190505b50905060005b85518110156121335785818151811061210657612106614501565b602002602001015182828151811061212057612120614501565b60209081029190910101526001016120eb565b5084515b84811015612165578382828151811061215257612152614501565b6020908102919091010152600101612137565b5090505b9392505050565b604051632eda066d60e11b815260346004820152602481018390526000908190819073__$dc6c4dd02ac6da041aea5ed0aea43c2a22$__90635db40cda90604401600060405180830381865af41580156121ce573d6000803e3d6000fd5b505050506040513d6000823e601f3d908101601f191682016040526121f69190810190614940565b9050806020015180156122155750836001600160a01b03168160800151145b816080015192509250509250929050565b60005b8151811015610e2c5781818151811061224457612244614501565b60200260200101516000146122995760016066600084848151811061226b5761226b614501565b6020026020010151815260200190815260200160002060006101000a81548160ff0219169083151502179055505b600101612229565b60005b8551811015612389578581815181106122bf576122bf614501565b60200260200101516000031561238157600273__$dc6c4dd02ac6da041aea5ed0aea43c2a22$__63c1d29f0190918884815181106122ff576122ff614501565b602002602001015189858151811061231957612319614501565b60200260200101516040518463ffffffff1660e01b8152600401612350939291909283526020830191909152604082015260600190565b60006040518083038186803b15801561236857600080fd5b505af415801561237c573d6000803e3d6000fd5b505050505b6001016122a4565b5060005b8451811015612477578481815181106123a8576123a8614501565b60200260200101516000031561246f57603473__$dc6c4dd02ac6da041aea5ed0aea43c2a22$__63c1d29f0190918784815181106123e8576123e8614501565b60209081029190910101516040517fffffffff0000000000000000000000000000000000000000000000000000000060e085901b168152600481019290925260248201526001600160a01b038716604482015260640160006040518083038186803b15801561245657600080fd5b505af415801561246a573d6000803e3d6000fd5b505050505b60010161238d565b50336001600160a01b0316836001600160a01b03167f2478e2370a2c14a2eb7579b8a4a140dc020d4d75daf0016542656bee955395f388888887876040516124c3959493929190614a08565b60405180910390a3505050505050565b306001600160a01b037f000000000000000000000000000000000000000000000000000000000000000016148061256c57507f00000000000000000000000000000000000000000000000000000000000000006001600160a01b03166125607f360894a13ba1a3210667c828492db98dca3e2076cc3735a920a3ca505d382bbc546001600160a01b031690565b6001600160a01b031614155b15610fea5760405163703e46dd60e11b815260040160405180910390fd5b611cdb6126c3565b816001600160a01b03166352d1902d6040518163ffffffff1660e01b8152600401602060405180830381865afa9250505080156125ec575060408051601f3d908101601f191682019092526125e991810190614726565b60015b61261457604051634c9c8ce360e01b81526001600160a01b0383166004820152602401610986565b7f360894a13ba1a3210667c828492db98dca3e2076cc3735a920a3ca505d382bbc8114612670576040517faa1d49a400000000000000000000000000000000000000000000000000000000815260048101829052602401610986565b61101683836132f9565b306001600160a01b037f00000000000000000000000000000000000000000000000000000000000000001614610fea5760405163703e46dd60e11b815260040160405180910390fd5b336126f57f9016d09d72d40fdae2fd8ceac6b6234c7706214fd39c1cd1e609a0528c199300546001600160a01b031690565b6001600160a01b031614610fea576040517f118cdaa7000000000000000000000000000000000000000000000000000000008152336004820152602401610986565b7f9016d09d72d40fdae2fd8ceac6b6234c7706214fd39c1cd1e609a0528c19930080546001600160a01b031981166001600160a01b03848116918217845560405192169182907f8be0079c531659141344cd1fd0a4f28419497f9722a3daafe3b4186f6b6457e090600090a3505050565b6127b183612eaa565b506127bb83613126565b336001600160a01b03167f7ff08e0ca1fce6b202b83128811e4f6ceda54930aa074cd365bf68f95c20ce198484846040516127f8939291906147c4565b60405180910390a2505050565b60608167ffffffffffffffff81111561282057612820613b68565b604051908082528060200260200182016040528015612849578160200160208202803683370190505b509050600086828261285a816148c9565b93508151811061286c5761286c614501565b60200260200101818152505060005b86518110156128cf5786818151811061289657612896614501565b60200260200101518383806128aa906148c9565b9450815181106128bc576128bc614501565b602090810291909101015260010161287b565b508382826128dc816148c9565b9350815181106128ee576128ee614501565b60200260200101818152505060005b86518110156129645786818151811061291857612918614501565b602002602001015160001461292e576001612931565b60005b60ff16838361293f816148c9565b94508151811061295157612951614501565b60209081029190910101526001016128fd565b50848282612971816148c9565b93508151811061298357612983614501565b6020026020010181815250505095945050505050565b7ff0c57e16840df040f15088dc2f81fe391c3923bec73e23a9662efc9c229c6a005468010000000000000000900460ff16610fea576040517fd7e6bcf800000000000000000000000000000000000000000000000000000000815260040160405180910390fd5b606083516002612a109190614a56565b612a1b906002614713565b67ffffffffffffffff811115612a3357612a33613b68565b604051908082528060200260200182016040528015612a5c578160200160208202803683370190505b5090506000805b8551811015612ab757858181518110612a7e57612a7e614501565b6020026020010151838380612a92906148c9565b945081518110612aa457612aa4614501565b6020908102919091010152600101612a63565b50828282612ac4816148c9565b935081518110612ad657612ad6614501565b60200260200101818152505060005b8551811015612b4c57858181518110612b0057612b00614501565b6020026020010151600014612b16576001612b19565b60005b60ff168383612b27816148c9565b945081518110612b3957612b39614501565b6020908102919091010152600101612ae5565b5083828281518110612b6057612b60614501565b602002602001018181525050509392505050565b612b7d85612d34565b50604080516001808252818301909252600091602080830190803683370190505090508481600081518110612bb457612bb4614501565b602002602001018181525050612bc981612eaa565b50612bd5846000612fcd565b50336001600160a01b03167f2d872524ee3f5c962e9a4701928e8254565c0b76f165704bb5511ba041f3c27c87878686604051612c159493929190614a6d565b60405180910390a2505050505050565b612c2d612999565b612c3884848461334f565b612c70612c4b604083016020840161420b565b612c5b606084016040850161420b565b612c6b60e0850160c0860161420b565b613436565b612c7d602082018261420b565b606b80546001600160a01b0319166001600160a01b0392909216919091179055612cad608082016060830161420b565b606d80546001600160a01b0319166001600160a01b0392909216919091179055612cdd60c0820160a0830161420b565b606c80546001600160a01b0319166001600160a01b0392909216919091179055612d0e610100820160e0830161420b565b606e80546001600160a01b0319166001600160a01b039290921691909117905550505050565b600080612d4083613476565b905060005b8151811015612ea357818181518110612d6057612d60614501565b602002602001015160000315612e9b57600081118015612dbb575081612d87600183614a99565b81518110612d9757612d97614501565b6020026020010151828281518110612db157612db1614501565b6020026020010151145b15612e0f57818181518110612dd257612dd2614501565b60200260200101516040517fdd57483100000000000000000000000000000000000000000000000000000000815260040161098691815260200190565b60666000838381518110612e2557612e25614501565b60209081029190910181015182528101919091526040016000205460ff161515600103612e9b57818181518110612e5e57612e5e614501565b60200260200101516040517f41a06d2800000000000000000000000000000000000000000000000000000000815260040161098691815260200190565b600101612d45565b5050919050565b600080612eb683613476565b905060005b8151811015612ea357818181518110612ed657612ed6614501565b602002602001015160000315612fc557600081118015612f31575081612efd600183614a99565b81518110612f0d57612f0d614501565b6020026020010151828281518110612f2757612f27614501565b6020026020010151145b15612f4857818181518110612dd257612dd2614501565b6000612f6c838381518110612f5f57612f5f614501565b6020026020010151613515565b90508015612fc357828281518110612f8657612f86614501565b60200260200101516040517f79e1da4700000000000000000000000000000000000000000000000000000000815260040161098691815260200190565b505b600101612ebb565b600081801561305457506040516324bd6c1b60e21b8152603460048201526024810184905273__$dc6c4dd02ac6da041aea5ed0aea43c2a22$__906392f5b06c90604401602060405180830381865af415801561302e573d6000803e3d6000fd5b505050506040513d601f19601f82011682018060405250810190613052919061460d565b155b1561307557604051630959af5760e31b815260048101849052602401610986565b811580156130fb57506040516324bd6c1b60e21b8152600260048201526024810184905273__$dc6c4dd02ac6da041aea5ed0aea43c2a22$__906392f5b06c90604401602060405180830381865af41580156130d5573d6000803e3d6000fd5b505050506040513d601f19601f820116820180604052508101906130f9919061460d565b155b1561311c57604051630959af5760e31b815260048101849052602401610986565b5060015b92915050565b60005b8151811015610e2c5781818151811061314457613144614501565b602002602001015160001461320557600273__$dc6c4dd02ac6da041aea5ed0aea43c2a22$__63c1d29f01909184848151811061318357613183614501565b602002602001015185858151811061319d5761319d614501565b60200260200101516040518463ffffffff1660e01b81526004016131d4939291909283526020830191909152604082015260600190565b60006040518083038186803b1580156131ec57600080fd5b505af4158015613200573d6000803e3d6000fd5b505050505b600101613129565b60005b82518110156110165782818151811061322b5761322b614501565b60200260200101516000146132f157603473__$dc6c4dd02ac6da041aea5ed0aea43c2a22$__63c1d29f01909185848151811061326a5761326a614501565b60209081029190910101516040517fffffffff0000000000000000000000000000000000000000000000000000000060e085901b168152600481019290925260248201526001600160a01b038516604482015260640160006040518083038186803b1580156132d857600080fd5b505af41580156132ec573d6000803e3d6000fd5b505050505b600101613210565b61330282613531565b6040516001600160a01b038316907fbc7cd75a20ee27fd9adebab32041f755214dbc6bffa90cc0225b39da2e5c2d3b90600090a28051156133475761101682826135a8565b610e2c61361e565b613357612999565b613362838383613656565b60408051639e43b81360e01b815260026004820152602481019190915273__$dc6c4dd02ac6da041aea5ed0aea43c2a22$__90639e43b8139060440160006040518083038186803b1580156133b657600080fd5b505af41580156133ca573d6000803e3d6000fd5b505060408051639e43b81360e01b815260346004820152602481019190915273__$dc6c4dd02ac6da041aea5ed0aea43c2a22$__9250639e43b813915060440160006040518083038186803b15801561342257600080fd5b505af4158015610ffa573d6000803e3d6000fd5b61343e612999565b613447836113a7565b606980546001600160a01b039384166001600160a01b031991821617909155606a805492909316911617905550565b60606000825167ffffffffffffffff81111561349457613494613b68565b6040519080825280602002602001820160405280156134bd578160200160208202803683370190505b50905060005b835181101561350b578381815181106134de576134de614501565b60200260200101518282815181106134f8576134f8614501565b60209081029190910101526001016134c3565b5061216981613680565b60008061352183613695565b905080613120576121698361375d565b806001600160a01b03163b60000361356757604051634c9c8ce360e01b81526001600160a01b0382166004820152602401610986565b7f360894a13ba1a3210667c828492db98dca3e2076cc3735a920a3ca505d382bbc80546001600160a01b0319166001600160a01b0392909216919091179055565b6060600080846001600160a01b0316846040516135c59190614aac565b600060405180830381855af49150503d8060008114613600576040519150601f19603f3d011682016040523d82523d6000602084013e613605565b606091505b50915091506136158583836137ec565b95945050505050565b3415610fea576040517fb398979f00000000000000000000000000000000000000000000000000000000815260040160405180910390fd5b61365e612999565b61366781613861565b60006136738482614b0f565b506001611c818382614b0f565b606061368e82613872613876565b5090919050565b6000806136a2838461388e565b6040517fe170cf6e000000000000000000000000000000000000000000000000000000008152600260048201526024810182905290915060009073__$dc6c4dd02ac6da041aea5ed0aea43c2a22$__9063e170cf6e9060440160a060405180830381865af4158015613718573d6000803e3d6000fd5b505050506040513d601f19601f8201168201806040525081019061373c9190614bce565b905060008151600281111561375357613753614c4e565b1415949350505050565b604051632eda066d60e11b81526034600482015260248101829052600090819073__$dc6c4dd02ac6da041aea5ed0aea43c2a22$__90635db40cda90604401600060405180830381865af41580156137b9573d6000803e3d6000fd5b505050506040513d6000823e601f3d908101601f191682016040526137e19190810190614940565b602001519392505050565b606082613801576137fc8261393c565b612169565b815115801561381857506001600160a01b0384163b155b1561385a576040517f9996b3150000000000000000000000000000000000000000000000000000000081526001600160a01b0385166004820152602401610986565b5080612169565b613869612999565b611cdb8161397e565b1190565b606061368e6020840161388885613986565b8461399e565b604080516060810182528381526020810183905260018183015290517f25cc70e80000000000000000000000000000000000000000000000000000000081526000919073__$03320550cd1b629da90608251571b2532e$__906325cc70e8906138fb908490600401614c64565b602060405180830381865af4158015613918573d6000803e3d6000fd5b505050506040513d601f19601f82011682018060405250810190610b239190614726565b80511561394c5780518082602001fd5b6040517fd6bda27500000000000000000000000000000000000000000000000000000000815260040160405180910390fd5b611c8f612999565b600081516020026139978360200190565b0192915050565b604083830310156139ae57505050565b60006139b8845190565b905083602081015b848110156139fa576139dd6139d3825190565b848663ffffffff16565b156139f2576020919091018051825182528252905b6020016139c0565b508451815186528152613a0e85828561399e565b6113a081602001858561399e565b604051806103e00160405280601f906020820280368337509192915050565b6040518060e001604052806007906020820280368337509192915050565b6040518061040001604052806020906020820280368337509192915050565b6040518061010001604052806008906020820280368337509192915050565b604051806102e001604052806017906020820280368337509192915050565b604051806102c001604052806016906020820280368337509192915050565b6040518060c001604052806006906020820280368337509192915050565b60405180606001604052806003906020820280368337509192915050565b60005b83811015613b2c578181015183820152602001613b14565b50506000910152565b6020815260008251806020840152613b54816040850160208701613b11565b601f01601f19169190910160400192915050565b634e487b7160e01b600052604160045260246000fd5b604051610100810167ffffffffffffffff81118282101715613ba257613ba2613b68565b60405290565b604051601f8201601f1916810167ffffffffffffffff81118282101715613bd157613bd1613b68565b604052919050565b600067ffffffffffffffff821115613bf357613bf3613b68565b5060051b60200190565b600082601f830112613c0e57600080fd5b8135613c21613c1c82613bd9565b613ba8565b8082825260208201915060208360051b860101925085831115613c4357600080fd5b602085015b83811015613c60578035835260209283019201613c48565b5095945050505050565b60006101008284031215613c7d57600080fd5b50919050565b60008083601f840112613c9557600080fd5b50813567ffffffffffffffff811115613cad57600080fd5b602083019150836020828501011115610b3d57600080fd5b6000806000806000806101808789031215613cdf57600080fd5b863567ffffffffffffffff811115613cf657600080fd5b613d0289828a01613bfd565b965050602087013567ffffffffffffffff811115613d1f57600080fd5b613d2b89828a01613bfd565b95505060408701359350613d428860608901613c6a565b925061016087013567ffffffffffffffff811115613d5f57600080fd5b613d6b89828a01613c83565b979a9699509497509295939492505050565b6000806000806101608587031215613d9457600080fd5b843567ffffffffffffffff811115613dab57600080fd5b613db787828801613bfd565b945050602085013567ffffffffffffffff811115613dd457600080fd5b613de087828801613bfd565b93505060408501359150613df78660608701613c6a565b905092959194509250565b600060208284031215613e1457600080fd5b813567ffffffffffffffff811115613e2b57600080fd5b610b2384828501613bfd565b600081518084526020840193506020830160005b82811015613e69578151865260209586019590910190600101613e4b565b5093949350505050565b6020815260006121696020830184613e37565b6001600160a01b0381168114611cdb57600080fd5b8035613ea681613e86565b919050565b60008060408385031215613ebe57600080fd5b823591506020830135613ed081613e86565b809150509250929050565b6000806000806000806000806101c0898b031215613ef857600080fd5b883567ffffffffffffffff811115613f0f57600080fd5b613f1b8b828c01613bfd565b985050602089013567ffffffffffffffff811115613f3857600080fd5b613f448b828c01613bfd565b975050604089013567ffffffffffffffff811115613f6157600080fd5b613f6d8b828c01613bfd565b96505060608901359450613f848a60808b01613c6a565b9350613f936101808a01613e9b565b92506101a089013567ffffffffffffffff811115613fb057600080fd5b613fbc8b828c01613c83565b999c989b5096995094979396929594505050565b60008067ffffffffffffffff841115613feb57613feb613b68565b50601f8301601f191660200161400081613ba8565b91505082815283838301111561401557600080fd5b828260208301376000602084830101529392505050565b6000806040838503121561403f57600080fd5b823561404a81613e86565b9150602083013567ffffffffffffffff81111561406657600080fd5b8301601f8101851361407757600080fd5b61408685823560208401613fd0565b9150509250929050565b60008060008060008060006101a0888a0312156140ac57600080fd5b87359650602088013567ffffffffffffffff8111156140ca57600080fd5b6140d68a828b01613bfd565b96505060408801359450606088013593506140f48960808a01613c6a565b925061018088013567ffffffffffffffff81111561411157600080fd5b61411d8a828b01613c83565b989b979a50959850939692959293505050565b60008060006040848603121561414557600080fd5b833567ffffffffffffffff81111561415c57600080fd5b61416886828701613bfd565b935050602084013567ffffffffffffffff81111561418557600080fd5b61419186828701613c83565b9497909650939450505050565b600080600080600061018086880312156141b757600080fd5b85359450602086013567ffffffffffffffff8111156141d557600080fd5b6141e188828901613bfd565b94505060408601359250606086013591506141ff8760808801613c6a565b90509295509295909350565b60006020828403121561421d57600080fd5b813561216981613e86565b6000806000806060858703121561423e57600080fd5b843567ffffffffffffffff81111561425557600080fd5b61426187828801613bfd565b945050602085013561427281613e86565b9250604085013567ffffffffffffffff81111561428e57600080fd5b61429a87828801613c83565b95989497509550505050565b60008060008060008061018087890312156142c057600080fd5b863567ffffffffffffffff8111156142d757600080fd5b6142e389828a01613bfd565b9650506020870135945060408701359350613d428860608901613c6a565b6000806000806000610160868803121561431a57600080fd5b85359450602086013567ffffffffffffffff81111561433857600080fd5b61434488828901613bfd565b9450506143548760408801613c6a565b925061014086013567ffffffffffffffff81111561437157600080fd5b61437d88828901613c83565b969995985093965092949392505050565b600080604083850312156143a157600080fd5b82356143ac81613e86565b91506020830135613ed081613e86565b600080600061014084860312156143d257600080fd5b83359250602084013567ffffffffffffffff8111156143f057600080fd5b6143fc86828701613bfd565b92505061440c8560408601613c6a565b90509250925092565b600082601f83011261442657600080fd5b61216983833560208501613fd0565b60008060008084860361018081121561444d57600080fd5b853567ffffffffffffffff81111561446457600080fd5b61447088828901614415565b955050602086013567ffffffffffffffff81111561448d57600080fd5b61449988828901614415565b94505060408601356144aa81613e86565b9250610120605f19820112156144bf57600080fd5b509295919450926060019150565b600181811c908216806144e157607f821691505b602082108103613c7d57634e487b7160e01b600052602260045260246000fd5b634e487b7160e01b600052603260045260246000fd5b81835281816020850137506000828201602090810191909152601f909101601f19169091010190565b6060815260006145536060830187613e37565b82810360208401526145658187613e37565b9050828103604084015261457a818587614517565b979650505050505050565b8060005b6002811015611c815760408285376040938401939190910190600101614589565b6104e0810160408683376145c16040830186614585565b60408460c084013761010082018360005b601f8110156145f15781518352602092830192909101906001016145d2565b50505095945050505050565b80518015158114613ea657600080fd5b60006020828403121561461f57600080fd5b612169826145fd565b6101e08101604086833761463f6040830186614585565b60408460c084013761010082018360005b60078110156145f1578151835260209283019290910190600101614650565b610500810160408683376146866040830186614585565b60408460c084013761010082018360005b60208110156145f1578151835260209283019290910190600101614697565b610200810160408683376146cd6040830186614585565b60408460c084013761010082018360005b60088110156145f15781518352602092830192909101906001016146de565b634e487b7160e01b600052601160045260246000fd5b80820180821115613120576131206146fd565b60006020828403121561473857600080fd5b5051919050565b8581526080602082015260006147586080830187613e37565b8560408401528281036060840152614771818587614517565b98975050505050505050565b6103e0810160408683376147946040830186614585565b60408460c084013761010082018360005b60178110156145f15781518352602092830192909101906001016147a5565b6040815260006147d76040830186613e37565b82810360208401526147ea818587614517565b9695505050505050565b6103c08101604086833761480b6040830186614585565b60408460c084013761010082018360005b60168110156145f157815183526020928301929091019060010161481c565b6101c0810160408683376148526040830186614585565b60408460c084013761010082018360005b60068110156145f1578151835260209283019290910190600101614863565b610160810160408683376148996040830186614585565b60408460c084013761010082018360005b60038110156145f15781518352602092830192909101906001016148aa565b6000600182016148db576148db6146fd565b5060010190565b600082601f8301126148f357600080fd5b8151614901613c1c82613bd9565b8082825260208201915060208360051b86010192508583111561492357600080fd5b602085015b83811015613c60578051835260209283019201614928565b60006020828403121561495257600080fd5b815167ffffffffffffffff81111561496957600080fd5b8201610100818503121561497c57600080fd5b614984613b7e565b81518152614994602083016145fd565b6020820152604082015167ffffffffffffffff8111156149b357600080fd5b6149bf868285016148e2565b60408301525060608281015190820152608080830151908201526149e560a083016145fd565b60a082015260c0828101519082015260e091820151918101919091529392505050565b608081526000614a1b6080830188613e37565b8281036020840152614a2d8188613e37565b90508281036040840152614a418187613e37565b90508281036060840152614771818587614517565b8082028115828204841417613120576131206146fd565b606081526000614a806060830187613e37565b856020840152828103604084015261457a818587614517565b81810381811115613120576131206146fd565b60008251614abe818460208701613b11565b9190910192915050565b601f82111561101657806000526020600020601f840160051c81016020851015614aef5750805b601f840160051c820191505b818110156113a05760008155600101614afb565b815167ffffffffffffffff811115614b2957614b29613b68565b614b3d81614b3784546144cd565b84614ac8565b6020601f821160018114614b715760008315614b595750848201515b600019600385901b1c1916600184901b1784556113a0565b600084815260208120601f198516915b82811015614ba15787850151825560209485019460019092019101614b81565b5084821015614bbf5786840151600019600387901b60f8161c191681555b50505050600190811b01905550565b600060a0828403128015614be157600080fd5b5060405160009060a0810167ffffffffffffffff81118282101715614c0857614c08613b68565b604052835160038110614c19578283fd5b815260208481015190820152604080850151908201526060808501519082015260809384015193810193909352509092915050565b634e487b7160e01b600052602160045260246000fd5b60608101818360005b6003811015614c8c578151835260209283019290910190600101614c6d565b5050509291505056fea2646970667358221220cda63dfff2114ed565f2cac9760b137e589c4068f11db2e8b58e61b1ac88a15064736f6c634300081b0033",
  "linkReferences": {
    "@iden3/contracts/lib/Poseidon.sol": {
      "PoseidonUnit3L": [
        {
          "length": 20,
          "start": 14608
        }
      ]
    },
    "@iden3/contracts/lib/SmtLib.sol": {
      "SmtLib": [
        {
          "length": 20,
          "start": 3765
        },
        {
          "length": 20,
          "start": 5431
        },
        {
          "length": 20,
          "start": 7835
        },
        {
          "length": 20,
          "start": 8657
        },
        {
          "length": 20,
          "start": 8976
        },
        {
          "length": 20,
          "start": 9209
        },
        {
          "length": 20,
          "start": 12337
        },
        {
          "length": 20,
          "start": 12504
        },
        {
          "length": 20,
          "start": 12692
        },
        {
          "length": 20,
          "start": 12923
        },
        {
          "length": 20,
          "start": 13246
        },
        {
          "length": 20,
          "start": 13352
        },
        {
          "length": 20,
          "start": 14107
        },
        {
          "length": 20,
          "start": 14268
        }
      ]
    }
  },
  "deployedLinkReferences": {
    "@iden3/contracts/lib/Poseidon.sol": {
      "PoseidonUnit3L": [
        {
          "length": 20,
          "start": 14547
        }
      ]
    },
    "@iden3/contracts/lib/SmtLib.sol": {
      "SmtLib": [
        {
          "length": 20,
          "start": 3704
        },
        {
          "length": 20,
          "start": 5370
        },
        {
          "length": 20,
          "start": 7774
        },
        {
          "length": 20,
          "start": 8596
        },
        {
          "length": 20,
          "start": 8915
        },
        {
          "length": 20,
          "start": 9148
        },
        {
          "length": 20,
          "start": 12276
        },
        {
          "length": 20,
          "start": 12443
        },
        {
          "length": 20,
          "start": 12631
        },
        {
          "length": 20,
          "start": 12862
        },
        {
          "length": 20,
          "start": 13185
        },
        {
          "length": 20,
          "start": 13291
        },
        {
          "length": 20,
          "start": 14046
        },
        {
          "length": 20,
          "start": 14207
        }
      ]
    }
  }
}