{
  "_format": "hh-sol-artifact-1",
  "contractName": "Zeto_AnonBurnable",
  "sourceName": "contracts/zeto_anon_burnable.sol",
  "abi": [
    {
      "inputs": [
        {
          "internalType": "address",
          "name": "target",
          "type": "address"
        }
      ],
      "name": "AddressEmptyCode",
      "type": "error"
    },
    {
      "inputs": [
        {
          "internalType": "address",
          "name": "implementation",
          "type": "address"
        }
      ],
      "name": "ERC1967InvalidImplementation",
      "type": "error"
    },
    {
      "inputs": [],
      "name": "ERC1967NonPayable",
      "type": "error"
    },
    {
      "inputs": [],
      "name": "FailedCall",
      "type": "error"
    },
    {
      "inputs": [],
      "name": "InvalidInitialization",
      "type": "error"
    },
    {
      "inputs": [],
      "name": "NotInitializing",
      "type": "error"
    },
    {
      "inputs": [
        {
          "internalType": "uint256",
          "name": "utxo",
          "type": "uint256"
        },
        {
          "internalType": "address",
          "name": "delegate",
          "type": "address"
        },
        {
          "internalType": "address",
          "name": "sender",
          "type": "address"
        }
      ],
      "name": "NotLockDelegate",
      "type": "error"
    },
    {
      "inputs": [
        {
          "internalType": "address",
          "name": "owner",
          "type": "address"
        }
      ],
      "name": "OwnableInvalidOwner",
      "type": "error"
    },
    {
      "inputs": [
        {
          "internalType": "address",
          "name": "account",
          "type": "address"
        }
      ],
      "name": "OwnableUnauthorizedAccount",
      "type": "error"
    },
    {
      "inputs": [
        {
          "internalType": "uint256",
          "name": "utxo",
          "type": "uint256"
        }
      ],
      "name": "UTXOAlreadyLocked",
      "type": "error"
    },
    {
      "inputs": [
        {
          "internalType": "uint256",
          "name": "utxo",
          "type": "uint256"
        }
      ],
      "name": "UTXOAlreadyOwned",
      "type": "error"
    },
    {
      "inputs": [
        {
          "internalType": "uint256",
          "name": "utxo",
          "type": "uint256"
        }
      ],
      "name": "UTXOAlreadySpent",
      "type": "error"
    },
    {
      "inputs": [
        {
          "internalType": "uint256",
          "name": "maxAllowed",
          "type": "uint256"
        }
      ],
      "name": "UTXOArrayTooLarge",
      "type": "error"
    },
    {
      "inputs": [
        {
          "internalType": "uint256",
          "name": "utxo",
          "type": "uint256"
        }
      ],
      "name": "UTXODuplicate",
      "type": "error"
    },
    {
      "inputs": [
        {
          "internalType": "uint256",
          "name": "utxo",
          "type": "uint256"
        }
      ],
      "name": "UTXONotLocked",
      "type": "error"
    },
    {
      "inputs": [
        {
          "internalType": "uint256",
          "name": "utxo",
          "type": "uint256"
        }
      ],
      "name": "UTXONotMinted",
      "type": "error"
    },
    {
      "inputs": [],
      "name": "UUPSUnauthorizedCallContext",
      "type": "error"
    },
    {
      "inputs": [
        {
          "internalType": "bytes32",
          "name": "slot",
          "type": "bytes32"
        }
      ],
      "name": "UUPSUnsupportedProxiableUUID",
      "type": "error"
    },
    {
      "inputs": [
        {
          "internalType": "uint256",
          "name": "maxAllowed",
          "type": "uint256"
        }
      ],
      "name": "WithdrawArrayTooLarge",
      "type": "error"
    },
    {
      "anonymous": false,
      "inputs": [
        {
          "indexed": false,
          "internalType": "uint64",
          "name": "version",
          "type": "uint64"
        }
      ],
      "name": "Initialized",
      "type": "event"
    },
    {
      "anonymous": false,
      "inputs": [
        {
          "indexed": false,
          "internalType": "uint256[]",
          "name": "lockedOutputs",
          "type": "uint256[]"
        },
        {
          "indexed": true,
          "internalType": "address",
          "name": "oldDelegate",
          "type": "address"
        },
        {
          "indexed": true,
          "internalType": "address",
          "name": "newDelegate",
          "type": "address"
        },
        {
          "indexed": false,
          "internalType": "bytes",
          "name": "data",
          "type": "bytes"
        }
      ],
      "name": "LockDelegateChanged",
      "type": "event"
    },
    {
      "anonymous": false,
      "inputs": [
        {
          "indexed": true,
          "internalType": "address",
          "name": "previousOwner",
          "type": "address"
        },
        {
          "indexed": true,
          "internalType": "address",
          "name": "newOwner",
          "type": "address"
        }
      ],
      "name": "OwnershipTransferred",
      "type": "event"
    },
    {
      "anonymous": false,
      "inputs": [
        {
          "indexed": false,
          "internalType": "uint256[]",
          "name": "inputs",
          "type": "uint256[]"
        },
        {
          "indexed": false,
          "internalType": "uint256",
          "name": "output",
          "type": "uint256"
        },
        {
          "indexed": true,
          "internalType": "address",
          "name": "submitter",
          "type": "address"
        },
        {
          "indexed": false,
          "internalType": "bytes",
          "name": "data",
          "type": "bytes"
        }
      ],
      "name": "UTXOBurn",
      "type": "event"
    },
    {
      "anonymous": false,
      "inputs": [
        {
          "indexed": false,
          "internalType": "uint256[]",
          "name": "outputs",
          "type": "uint256[]"
        },
        {
          "indexed": true,
          "internalType": "address",
          "name": "submitter",
          "type": "address"
        },
        {
          "indexed": false,
          "internalType": "bytes",
          "name": "data",
          "type": "bytes"
        }
      ],
      "name": "UTXOMint",
      "type": "event"
    },
    {
      "anonymous": false,
      "inputs": [
        {
          "indexed": false,
          "internalType": "uint256[]",
          "name": "inputs",
          "type": "uint256[]"
        },
        {
          "indexed": false,
          "internalType": "uint256[]",
          "name": "outputs",
          "type": "uint256[]"
        },
        {
          "indexed": true,
          "internalType": "address",
          "name": "submitter",
          "type": "address"
        },
        {
          "indexed": false,
          "internalType": "bytes",
          "name": "data",
          "type": "bytes"
        }
      ],
      "name": "UTXOTransfer",
      "type": "event"
    },
    {
      "anonymous": false,
      "inputs": [
        {
          "indexed": false,
          "internalType": "uint256[]",
          "name": "inputs",
          "type": "uint256[]"
        },
        {
          "indexed": false,
          "internalType": "uint256[]",
          "name": "outputs",
          "type": "uint256[]"
        },
        {
          "indexed": false,
          "internalType": "uint256",
          "name": "encryptionNonce",
          "type": "uint256"
        },
        {
          "indexed": false,
          "internalType": "uint256[2]",
          "name": "ecdhPublicKey",
          "type": "uint256[2]"
        },
        {
          "indexed": false,
          "internalType": "uint256[]",
          "name": "encryptedValues",
          "type": "uint256[]"
        },
        {
          "indexed": true,
          "internalType": "address",
          "name": "submitter",
          "type": "address"
        },
        {
          "indexed": false,
          "internalType": "bytes",
          "name": "data",
          "type": "bytes"
        }
      ],
      "name": "UTXOTransferWithEncryptedValues",
      "type": "event"
    },
    {
      "anonymous": false,
      "inputs": [
        {
          "indexed": false,
          "internalType": "uint256",
          "name": "amount",
          "type": "uint256"
        },
        {
          "indexed": false,
          "internalType": "uint256[]",
          "name": "inputs",
          "type": "uint256[]"
        },
        {
          "indexed": false,
          "internalType": "uint256",
          "name": "output",
          "type": "uint256"
        },
        {
          "indexed": true,
          "internalType": "address",
          "name": "submitter",
          "type": "address"
        },
        {
          "indexed": false,
          "internalType": "bytes",
          "name": "data",
          "type": "bytes"
        }
      ],
      "name": "UTXOWithdraw",
      "type": "event"
    },
    {
      "anonymous": false,
      "inputs": [
        {
          "indexed": false,
          "internalType": "uint256[]",
          "name": "inputs",
          "type": "uint256[]"
        },
        {
          "indexed": false,
          "internalType": "uint256[]",
          "name": "outputs",
          "type": "uint256[]"
        },
        {
          "indexed": false,
          "internalType": "uint256[]",
          "name": "lockedOutputs",
          "type": "uint256[]"
        },
        {
          "indexed": true,
          "internalType": "address",
          "name": "delegate",
          "type": "address"
        },
        {
          "indexed": true,
          "internalType": "address",
          "name": "submitter",
          "type": "address"
        },
        {
          "indexed": false,
          "internalType": "bytes",
          "name": "data",
          "type": "bytes"
        }
      ],
      "name": "UTXOsLocked",
      "type": "event"
    },
    {
      "anonymous": false,
      "inputs": [
        {
          "indexed": true,
          "internalType": "address",
          "name": "implementation",
          "type": "address"
        }
      ],
      "name": "Upgraded",
      "type": "event"
    },
    {
      "inputs": [],
      "name": "UPGRADE_INTERFACE_VERSION",
      "outputs": [
        {
          "internalType": "string",
          "name": "",
          "type": "string"
        }
      ],
      "stateMutability": "view",
      "type": "function"
    },
    {
      "inputs": [
        {
          "internalType": "contract Groth16Verifier_Burn",
          "name": "burnVerifier",
          "type": "address"
        },
        {
          "internalType": "contract Groth16Verifier_BurnBatch",
          "name": "batchBurnVerifier",
          "type": "address"
        }
      ],
      "name": "__ZetoFungibleBurnable_init",
      "outputs": [],
      "stateMutability": "nonpayable",
      "type": "function"
    },
    {
      "inputs": [
        {
          "internalType": "contract Groth16Verifier_Deposit",
          "name": "depositVerifier",
          "type": "address"
        },
        {
          "internalType": "contract Groth16Verifier_Withdraw",
          "name": "withdrawVerifier",
          "type": "address"
        },
        {
          "internalType": "contract Groth16Verifier_WithdrawBatch",
          "name": "batchWithdrawVerifier",
          "type": "address"
        }
      ],
      "name": "__ZetoFungibleWithdraw_init",
      "outputs": [],
      "stateMutability": "nonpayable",
      "type": "function"
    },
    {
      "inputs": [
        {
          "internalType": "contract Groth16Verifier_Deposit",
          "name": "depositVerifier",
          "type": "address"
        }
      ],
      "name": "__ZetoFungible_init",
      "outputs": [],
      "stateMutability": "nonpayable",
      "type": "function"
    },
    {
      "inputs": [
        {
          "internalType": "uint256",
          "name": "amount",
          "type": "uint256"
        },
        {
          "internalType": "uint256[]",
          "name": "outputs",
          "type": "uint256[]"
        },
        {
          "components": [
            {
              "internalType": "uint256[2]",
              "name": "pA",
              "type": "uint256[2]"
            },
            {
              "internalType": "uint256[2][2]",
              "name": "pB",
              "type": "uint256[2][2]"
            },
            {
              "internalType": "uint256[2]",
              "name": "pC",
              "type": "uint256[2]"
            }
          ],
          "internalType": "struct Commonlib.Proof",
          "name": "proof",
          "type": "tuple"
        }
      ],
      "name": "_deposit",
      "outputs": [],
      "stateMutability": "nonpayable",
      "type": "function"
    },
    {
      "inputs": [
        {
          "internalType": "uint256",
          "name": "amount",
          "type": "uint256"
        },
        {
          "internalType": "uint256[]",
          "name": "inputs",
          "type": "uint256[]"
        },
        {
          "internalType": "uint256",
          "name": "output",
          "type": "uint256"
        },
        {
          "components": [
            {
              "internalType": "uint256[2]",
              "name": "pA",
              "type": "uint256[2]"
            },
            {
              "internalType": "uint256[2][2]",
              "name": "pB",
              "type": "uint256[2][2]"
            },
            {
              "internalType": "uint256[2]",
              "name": "pC",
              "type": "uint256[2]"
            }
          ],
          "internalType": "struct Commonlib.Proof",
          "name": "proof",
          "type": "tuple"
        }
      ],
      "name": "_withdraw",
      "outputs": [],
      "stateMutability": "nonpayable",
      "type": "function"
    },
    {
      "inputs": [
        {
          "internalType": "uint256[]",
          "name": "inputs",
          "type": "uint256[]"
        },
        {
          "internalType": "uint256",
          "name": "output",
          "type": "uint256"
        },
        {
          "components": [
            {
              "internalType": "uint256[2]",
              "name": "pA",
              "type": "uint256[2]"
            },
            {
              "internalType": "uint256[2][2]",
              "name": "pB",
              "type": "uint256[2][2]"
            },
            {
              "internalType": "uint256[2]",
              "name": "pC",
              "type": "uint256[2]"
            }
          ],
          "internalType": "struct Commonlib.Proof",
          "name": "proof",
          "type": "tuple"
        },
        {
          "internalType": "bytes",
          "name": "data",
          "type": "bytes"
        }
      ],
      "name": "burn",
      "outputs": [],
      "stateMutability": "nonpayable",
      "type": "function"
    },
    {
      "inputs": [
        {
          "internalType": "uint256[]",
          "name": "commitments",
          "type": "uint256[]"
        }
      ],
      "name": "checkAndPadCommitments",
      "outputs": [
        {
          "internalType": "uint256[]",
          "name": "",
          "type": "uint256[]"
        }
      ],
      "stateMutability": "pure",
      "type": "function"
    },
    {
      "inputs": [],
      "name": "decimals",
      "outputs": [
        {
          "internalType": "uint8",
          "name": "",
          "type": "uint8"
        }
      ],
      "stateMutability": "view",
      "type": "function"
    },
    {
      "inputs": [
        {
          "internalType": "uint256[]",
          "name": "utxos",
          "type": "uint256[]"
        },
        {
          "internalType": "address",
          "name": "delegate",
          "type": "address"
        },
        {
          "internalType": "bytes",
          "name": "data",
          "type": "bytes"
        }
      ],
      "name": "delegateLock",
      "outputs": [],
      "stateMutability": "nonpayable",
      "type": "function"
    },
    {
      "inputs": [
        {
          "internalType": "uint256",
          "name": "amount",
          "type": "uint256"
        },
        {
          "internalType": "uint256[]",
          "name": "outputs",
          "type": "uint256[]"
        },
        {
          "components": [
            {
              "internalType": "uint256[2]",
              "name": "pA",
              "type": "uint256[2]"
            },
            {
              "internalType": "uint256[2][2]",
              "name": "pB",
              "type": "uint256[2][2]"
            },
            {
              "internalType": "uint256[2]",
              "name": "pC",
              "type": "uint256[2]"
            }
          ],
          "internalType": "struct Commonlib.Proof",
          "name": "proof",
          "type": "tuple"
        },
        {
          "internalType": "bytes",
          "name": "data",
          "type": "bytes"
        }
      ],
      "name": "deposit",
      "outputs": [],
      "stateMutability": "nonpayable",
      "type": "function"
    },
    {
      "inputs": [
        {
          "internalType": "string",
          "name": "name",
          "type": "string"
        },
        {
          "internalType": "string",
          "name": "symbol",
          "type": "string"
        },
        {
          "internalType": "address",
          "name": "initialOwner",
          "type": "address"
        },
        {
          "components": [
            {
              "internalType": "address",
              "name": "verifier",
              "type": "address"
            },
            {
              "internalType": "address",
              "name": "depositVerifier",
              "type": "address"
            },
            {
              "internalType": "address",
              "name": "withdrawVerifier",
              "type": "address"
            },
            {
              "internalType": "address",
              "name": "lockVerifier",
              "type": "address"
            },
            {
              "internalType": "address",
              "name": "burnVerifier",
              "type": "address"
            },
            {
              "internalType": "address",
              "name": "batchVerifier",
              "type": "address"
            },
            {
              "internalType": "address",
              "name": "batchWithdrawVerifier",
              "type": "address"
            },
            {
              "internalType": "address",
              "name": "batchLockVerifier",
              "type": "address"
            },
            {
              "internalType": "address",
              "name": "batchBurnVerifier",
              "type": "address"
            }
          ],
          "internalType": "struct IZetoInitializable.VerifiersInfo",
          "name": "verifiers",
          "type": "tuple"
        }
      ],
      "name": "initialize",
      "outputs": [],
      "stateMutability": "nonpayable",
      "type": "function"
    },
    {
      "inputs": [
        {
          "internalType": "uint256[]",
          "name": "inputs",
          "type": "uint256[]"
        },
        {
          "internalType": "uint256[]",
          "name": "outputs",
          "type": "uint256[]"
        },
        {
          "internalType": "uint256[]",
          "name": "lockedOutputs",
          "type": "uint256[]"
        },
        {
          "components": [
            {
              "internalType": "uint256[2]",
              "name": "pA",
              "type": "uint256[2]"
            },
            {
              "internalType": "uint256[2][2]",
              "name": "pB",
              "type": "uint256[2][2]"
            },
            {
              "internalType": "uint256[2]",
              "name": "pC",
              "type": "uint256[2]"
            }
          ],
          "internalType": "struct Commonlib.Proof",
          "name": "proof",
          "type": "tuple"
        },
        {
          "internalType": "address",
          "name": "delegate",
          "type": "address"
        },
        {
          "internalType": "bytes",
          "name": "data",
          "type": "bytes"
        }
      ],
      "name": "lock",
      "outputs": [],
      "stateMutability": "nonpayable",
      "type": "function"
    },
    {
      "inputs": [
        {
          "internalType": "uint256",
          "name": "utxo",
          "type": "uint256"
        }
      ],
      "name": "locked",
      "outputs": [
        {
          "internalType": "bool",
          "name": "",
          "type": "bool"
        },
        {
          "internalType": "address",
          "name": "",
          "type": "address"
        }
      ],
      "stateMutability": "view",
      "type": "function"
    },
    {
      "inputs": [
        {
          "internalType": "uint256[]",
          "name": "utxos",
          "type": "uint256[]"
        },
        {
          "internalType": "bytes",
          "name": "data",
          "type": "bytes"
        }
      ],
      "name": "mint",
      "outputs": [],
      "stateMutability": "nonpayable",
      "type": "function"
    },
    {
      "inputs": [],
      "name": "name",
      "outputs": [
        {
          "internalType": "string",
          "name": "",
          "type": "string"
        }
      ],
      "stateMutability": "view",
      "type": "function"
    },
    {
      "inputs": [],
      "name": "owner",
      "outputs": [
        {
          "internalType": "address",
          "name": "",
          "type": "address"
        }
      ],
      "stateMutability": "view",
      "type": "function"
    },
    {
      "inputs": [],
      "name": "proxiableUUID",
      "outputs": [
        {
          "internalType": "bytes32",
          "name": "",
          "type": "bytes32"
        }
      ],
      "stateMutability": "view",
      "type": "function"
    },
    {
      "inputs": [],
      "name": "renounceOwnership",
      "outputs": [],
      "stateMutability": "nonpayable",
      "type": "function"
    },
    {
      "inputs": [
        {
          "internalType": "contract IERC20",
          "name": "erc20",
          "type": "address"
        }
      ],
      "name": "setERC20",
      "outputs": [],
      "stateMutability": "nonpayable",
      "type": "function"
    },
    {
      "inputs": [
        {
          "internalType": "uint256",
          "name": "txo",
          "type": "uint256"
        }
      ],
      "name": "spent",
      "outputs": [
        {
          "internalType": "bool",
          "name": "",
          "type": "bool"
        }
      ],
      "stateMutability": "view",
      "type": "function"
    },
    {
      "inputs": [],
      "name": "symbol",
      "outputs": [
        {
          "internalType": "string",
          "name": "",
          "type": "string"
        }
      ],
      "stateMutability": "view",
      "type": "function"
    },
    {
      "inputs": [
        {
          "internalType": "uint256[]",
          "name": "inputs",
          "type": "uint256[]"
        },
        {
          "internalType": "uint256[]",
          "name": "outputs",
          "type": "uint256[]"
        },
        {
          "components": [
            {
              "internalType": "uint256[2]",
              "name": "pA",
              "type": "uint256[2]"
            },
            {
              "internalType": "uint256[2][2]",
              "name": "pB",
              "type": "uint256[2][2]"
            },
            {
              "internalType": "uint256[2]",
              "name": "pC",
              "type": "uint256[2]"
            }
          ],
          "internalType": "struct Commonlib.Proof",
          "name": "proof",
          "type": "tuple"
        },
        {
          "internalType": "bytes",
          "name": "data",
          "type": "bytes"
        }
      ],
      "name": "transfer",
      "outputs": [
        {
          "internalType": "bool",
          "name": "",
          "type": "bool"
        }
      ],
      "stateMutability": "nonpayable",
      "type": "function"
    },
    {
      "inputs": [
        {
          "internalType": "uint256[]",
          "name": "inputs",
          "type": "uint256[]"
        },
        {
          "internalType": "uint256[]",
          "name": "outputs",
          "type": "uint256[]"
        },
        {
          "components": [
            {
              "internalType": "uint256[2]",
              "name": "pA",
              "type": "uint256[2]"
            },
            {
              "internalType": "uint256[2][2]",
              "name": "pB",
              "type": "uint256[2][2]"
            },
            {
              "internalType": "uint256[2]",
              "name": "pC",
              "type": "uint256[2]"
            }
          ],
          "internalType": "struct Commonlib.Proof",
          "name": "proof",
          "type": "tuple"
        },
        {
          "internalType": "bytes",
          "name": "data",
          "type": "bytes"
        }
      ],
      "name": "transferLocked",
      "outputs": [
        {
          "internalType": "bool",
          "name": "",
          "type": "bool"
        }
      ],
      "stateMutability": "nonpayable",
      "type": "function"
    },
    {
      "inputs": [
        {
          "internalType": "address",
          "name": "newOwner",
          "type": "address"
        }
      ],
      "name": "transferOwnership",
      "outputs": [],
      "stateMutability": "nonpayable",
      "type": "function"
    },
    {
      "inputs": [
        {
          "internalType": "uint256[]",
          "name": "inputs",
          "type": "uint256[]"
        },
        {
          "internalType": "uint256[]",
          "name": "outputs",
          "type": "uint256[]"
        },
        {
          "components": [
            {
              "internalType": "uint256[2]",
              "name": "pA",
              "type": "uint256[2]"
            },
            {
              "internalType": "uint256[2][2]",
              "name": "pB",
              "type": "uint256[2][2]"
            },
            {
              "internalType": "uint256[2]",
              "name": "pC",
              "type": "uint256[2]"
            }
          ],
          "internalType": "struct Commonlib.Proof",
          "name": "proof",
          "type": "tuple"
        },
        {
          "internalType": "bytes",
          "name": "data",
          "type": "bytes"
        }
      ],
      "name": "unlock",
      "outputs": [],
      "stateMutability": "nonpayable",
      "type": "function"
    },
    {
      "inputs": [
        {
          "internalType": "address",
          "name": "newImplementation",
          "type": "address"
        },
        {
          "internalType": "bytes",
          "name": "data",
          "type": "bytes"
        }
      ],
      "name": "upgradeToAndCall",
      "outputs": [],
      "stateMutability": "payable",
      "type": "function"
    },
    {
      "inputs": [
        {
          "internalType": "uint256[]",
          "name": "inputs",
          "type": "uint256[]"
        },
        {
          "internalType": "uint256[]",
          "name": "outputs",
          "type": "uint256[]"
        },
        {
          "components": [
            {
              "internalType": "uint256[2]",
              "name": "pA",
              "type": "uint256[2]"
            },
            {
              "internalType": "uint256[2][2]",
              "name": "pB",
              "type": "uint256[2][2]"
            },
            {
              "internalType": "uint256[2]",
              "name": "pC",
              "type": "uint256[2]"
            }
          ],
          "internalType": "struct Commonlib.Proof",
          "name": "proof",
          "type": "tuple"
        }
      ],
      "name": "verifyProof",
      "outputs": [
        {
          "internalType": "bool",
          "name": "",
          "type": "bool"
        }
      ],
      "stateMutability": "view",
      "type": "function"
    },
    {
      "inputs": [
        {
          "internalType": "uint256",
          "name": "amount",
          "type": "uint256"
        },
        {
          "internalType": "uint256[]",
          "name": "inputs",
          "type": "uint256[]"
        },
        {
          "internalType": "uint256",
          "name": "output",
          "type": "uint256"
        },
        {
          "components": [
            {
              "internalType": "uint256[2]",
              "name": "pA",
              "type": "uint256[2]"
            },
            {
              "internalType": "uint256[2][2]",
              "name": "pB",
              "type": "uint256[2][2]"
            },
            {
              "internalType": "uint256[2]",
              "name": "pC",
              "type": "uint256[2]"
            }
          ],
          "internalType": "struct Commonlib.Proof",
          "name": "proof",
          "type": "tuple"
        },
        {
          "internalType": "bytes",
          "name": "data",
          "type": "bytes"
        }
      ],
      "name": "withdraw",
      "outputs": [],
      "stateMutability": "nonpayable",
      "type": "function"
    }
  ],
  "bytecode": "0x60a060405230608052348015601357600080fd5b50608051613f3e61003d600039600081816120760152818161209f015261221d0152613f3e6000f3fe6080604052600436106101c25760003560e01c80638da5cb5b116100f7578063cd523c7311610095578063f2fde38b11610064578063f2fde38b1461055c578063f586acdb1461057c578063f60c8c1e1461059c578063fb85d41c146105bc57600080fd5b8063cd523c73146104dc578063d46e446a146104fc578063d5b5cc231461051c578063da805f111461053c57600080fd5b8063a4ef9ad1116100d1578063a4ef9ad114610414578063ad3cb1cc14610434578063b45a3c0e1461047d578063c29a6fda146104bc57600080fd5b80638da5cb5b1461039857806395d89b41146103df5780639fcc50af146103f457600080fd5b8063313ce567116101645780634f1ef2861161013e5780634f1ef2861461032d57806352d1902d14610340578063715018a6146103635780638bb2513b1461037857600080fd5b8063313ce567146102d15780633e96e273146102ed5780634ad899291461030d57600080fd5b80630a978c84116101a05780630a978c84146102345780630b1a035814610264578063165252211461028457806324ce729e146102a457600080fd5b80630107eb4a146101c7578063060653a5146101e957806306fdde0314610209575b600080fd5b3480156101d357600080fd5b506101e76101e2366004613114565b6105dc565b005b3480156101f557600080fd5b506101e761020436600461328b565b61061c565b34801561021557600080fd5b5061021e6108b1565b60405161022b919061333c565b60405180910390f35b34801561024057600080fd5b5061025461024f36600461336f565b610943565b604051901515815260200161022b565b34801561027057600080fd5b5061025461027f3660046133e4565b6109d8565b34801561029057600080fd5b506101e761029f36600461346f565b610c5a565b3480156102b057600080fd5b506102c46102bf36600461355b565b610d91565b60405161022b91906135cc565b3480156102dd57600080fd5b506040516004815260200161022b565b3480156102f957600080fd5b5061025461030836600461336f565b610dff565b34801561031957600080fd5b506101e76103283660046135df565b610e26565b6101e761033b36600461369e565b6111a1565b34801561034c57600080fd5b506103556111c0565b60405190815260200161022b565b34801561036f57600080fd5b506101e76111ef565b34801561038457600080fd5b506101e7610393366004613702565b611203565b3480156103a457600080fd5b507f9016d09d72d40fdae2fd8ceac6b6234c7706214fd39c1cd1e609a0528c199300546040516001600160a01b03909116815260200161022b565b3480156103eb57600080fd5b5061021e61121b565b34801561040057600080fd5b506101e761040f366004613770565b61122a565b34801561042057600080fd5b506101e761042f36600461378d565b611254565b34801561044057600080fd5b5061021e6040518060400160405280600581526020017f352e302e3000000000000000000000000000000000000000000000000000000081525081565b34801561048957600080fd5b5061049d61049836600461380b565b6113ca565b6040805192151583526001600160a01b0390911660208301520161022b565b3480156104c857600080fd5b506101e76104d7366004613770565b611424565b3480156104e857600080fd5b506101e76104f7366004613824565b61144e565b34801561050857600080fd5b506101e761051736600461336f565b611464565b34801561052857600080fd5b5061025461053736600461380b565b611479565b34801561054857600080fd5b506101e761055736600461385b565b6114d1565b34801561056857600080fd5b506101e7610577366004613770565b611652565b34801561058857600080fd5b506101e76105973660046138af565b6116a9565b3480156105a857600080fd5b506101e76105b7366004613947565b611811565b3480156105c857600080fd5b506101e76105d7366004613980565b611847565b6105e4611941565b6105ed8361122a565b600780546001600160a01b039384166001600160a01b0319918216179091556008805492909316911617905550565b6002855111156107735761062e613066565b60005b86518110156106735786818151811061064c5761064c613a16565b60200260200101518282600b811061066657610666613a16565b6020020152600101610631565b5084816106826001600b613a42565b600b811061069257610692613a16565b6020020152600c54604080517fb9c6ea870000000000000000000000000000000000000000000000000000000081526001600160a01b039092169163b9c6ea87916106eb91889182019060c08301908790600401613a7a565b602060405180830381865afa158015610708573d6000803e3d6000fd5b505050506040513d601f19601f8201168201806040525081019061072c9190613acd565b61076d5760405162461bcd60e51b815260206004820152600d60248201526c24b73b30b634b210383937b7b360991b60448201526064015b60405180910390fd5b5061089e565b61077b613085565b60005b86518110156107c05786818151811061079957610799613a16565b60200260200101518282600381106107b3576107b3613a16565b602002015260010161077e565b5084816107cf60016003613a42565b600381106107df576107df613a16565b6020020152600b54604080516308a3cff560e11b81526001600160a01b03909216916311479fea9161081f91889182019060c08301908790600401613aef565b602060405180830381865afa15801561083c573d6000803e3d6000fd5b505050506040513d601f19601f820116820180604052508101906108609190613acd565b61089c5760405162461bcd60e51b815260206004820152600d60248201526c24b73b30b634b210383937b7b360991b6044820152606401610764565b505b6108aa858584846119a8565b5050505050565b6060600080546108c090613b36565b80601f01602080910402602001604051908101604052809291908181526020018280546108ec90613b36565b80156109395780601f1061090e57610100808354040283529160200191610939565b820191906000526020600020905b81548152906001019060200180831161091c57829003601f168201915b5050505050905090565b600061094e86610d91565b955061095985610d91565b9450606061096a8787836001611a60565b506109768787876109d8565b506109848787836000611b78565b336001600160a01b03167fcb56a7130431b68e0e636f24584d40580490c1bf882bef3701f317d47ba98c38888887876040516109c39493929190613b93565b60405180910390a25060019695505050505050565b60006002845111806109eb575060028351115b15610b365760006109fe85856014611b94565b9050610a086130a3565b60005b6014811015610a4d57828181518110610a2657610a26613a16565b6020026020010151828260148110610a4057610a40613a16565b6020020152600101610a0b565b50600a54604080517fe56ac42f0000000000000000000000000000000000000000000000000000000081526001600160a01b039092169163e56ac42f91610aa291889182019060c08301908790600401613bd8565b602060405180830381865afa158015610abf573d6000803e3d6000fd5b505050506040513d601f19601f82011682018060405250810190610ae39190613acd565b610b2f5760405162461bcd60e51b815260206004820152601560248201527f496e76616c69642070726f6f66202862617463682900000000000000000000006044820152606401610764565b5050610c4f565b6000610b4485856004611b94565b9050610b4e6130c2565b60005b6004811015610b9357828181518110610b6c57610b6c613a16565b6020026020010151828260048110610b8657610b86613a16565b6020020152600101610b51565b5060095460408051635fe8c13b60e01b81526001600160a01b0390921691635fe8c13b91610bcf91889182019060c08301908790600401613c1f565b602060405180830381865afa158015610bec573d6000803e3d6000fd5b505050506040513d601f19601f82011682018060405250810190610c109190613acd565b610c4c5760405162461bcd60e51b815260206004820152600d60248201526c24b73b30b634b210383937b7b360991b6044820152606401610764565b50505b5060015b9392505050565b610c678787876000611a60565b50600085518751610c789190613c66565b67ffffffffffffffff811115610c9057610c9061315f565b604051908082528060200260200182016040528015610cb9578160200160208202803683370190505b50905060005b8751811015610d0757878181518110610cda57610cda613a16565b6020026020010151828281518110610cf457610cf4613a16565b6020908102919091010152600101610cbf565b5060005b8651811015610d5f57868181518110610d2657610d26613a16565b602002602001015182828a51610d3c9190613c66565b81518110610d4c57610d4c613a16565b6020908102919091010152600101610d0b565b50610d6b8882876109d8565b50610d798888886000611b78565b610d87888888878787611c94565b5050505050505050565b8051606090600a811115610dd4576040517f9ebbc98e000000000000000000000000000000000000000000000000000000008152600a6004820152602401610764565b60006002821115610de75750600a610deb565b5060025b610df784826000611e8f565b949350505050565b6000610e0a86610d91565b9550610e1585610d91565b9450606061096a8787836000611a60565b600283511115610fa657600c83511115610e6f576040517f71798fb5000000000000000000000000000000000000000000000000000000008152600c6004820152602401610764565b6000610e7e858585600c611f6d565b9050610e886130e0565b60005b600c811015610ecd57828181518110610ea657610ea6613a16565b60200260200101518282600c8110610ec057610ec0613a16565b6020020152600101610e8b565b50600854604080517f8cbac0fa0000000000000000000000000000000000000000000000000000000081526001600160a01b0390921691638cbac0fa91610f2291879182019060c08301908790600401613c79565b602060405180830381865afa158015610f3f573d6000803e3d6000fd5b505050506040513d601f19601f82011682018060405250810190610f639190613acd565b610f9f5760405162461bcd60e51b815260206004820152600d60248201526c24b73b30b634b210383937b7b360991b6044820152606401610764565b50506110c0565b6000610fb58585856004611f6d565b9050610fbf6130c2565b60005b600481101561100457828181518110610fdd57610fdd613a16565b6020026020010151828260048110610ff757610ff7613a16565b6020020152600101610fc2565b5060075460408051635fe8c13b60e01b81526001600160a01b0390921691635fe8c13b9161104091879182019060c08301908790600401613c1f565b602060405180830381865afa15801561105d573d6000803e3d6000fd5b505050506040513d601f19601f820116820180604052508101906110819190613acd565b6110bd5760405162461bcd60e51b815260206004820152600d60248201526c24b73b30b634b210383937b7b360991b6044820152606401610764565b50505b6006546040517fa9059cbb000000000000000000000000000000000000000000000000000000008152336004820152602481018690526001600160a01b039091169063a9059cbb906044015b6020604051808303816000875af115801561112b573d6000803e3d6000fd5b505050506040513d601f19601f8201168201806040525081019061114f9190613acd565b61119b5760405162461bcd60e51b815260206004820152601f60248201527f4661696c656420746f207472616e7366657220455243323020746f6b656e73006044820152606401610764565b50505050565b6111a961206b565b6111b282612122565b6111bc828261212a565b5050565b60006111ca612212565b507f360894a13ba1a3210667c828492db98dca3e2076cc3735a920a3ca505d382bbc90565b6111f761225b565b61120160006122cf565b565b61120b61225b565b611216838383612340565b505050565b6060600180546108c090613b36565b611232611941565b600580546001600160a01b0319166001600160a01b0392909216919091179055565b60005b84518110156113745784818151811061127257611272613a16565b60200260200101516000031561136c57336001600160a01b0316600460008784815181106112a2576112a2613a16565b6020908102919091018101518252810191909152604001600020546001600160a01b03161461131a578481815181106112dd576112dd613a16565b6020908102919091010151604051639fec262f60e01b815260048101919091526001600160a01b0385166024820152336044820152606401610764565b836004600087848151811061133157611331613a16565b6020026020010151815260200190815260200160002060006101000a8154816001600160a01b0302191690836001600160a01b031602179055505b600101611257565b50826001600160a01b0316336001600160a01b03167fb81fc4239cf1f8a9964a337bb7866ffeb712f9e482d9cef0f5fac9fe3bd655b28685856040516113bc93929190613cc0565b60405180910390a350505050565b600080600160008481526003602052604090205460ff1660028111156113f2576113f2613ce6565b036114195750506000908152600460205260409020546001916001600160a01b0390911690565b506000928392509050565b61142c61225b565b600680546001600160a01b0319166001600160a01b0392909216919091179055565b6114598585856114d1565b6108aa848383612340565b6114718585858585610943565b505050505050565b600081815260026020819052604082205460ff168181111561149d5761149d613ce6565b14806114cb5750600260008381526003602052604090205460ff1660028111156114c9576114c9613ce6565b145b92915050565b6114d9613085565b838152825183906000906114ef576114ef613a16565b60200260200101518160016003811061150a5761150a613a16565b602002015282518390600190811061152457611524613a16565b60200260200101518160026003811061153f5761153f613a16565b6020020152600554604080516308a3cff560e11b81526001600160a01b03909216916311479fea9161157f91869182019060c08301908790600401613aef565b602060405180830381865afa15801561159c573d6000803e3d6000fd5b505050506040513d601f19601f820116820180604052508101906115c09190613acd565b6115fc5760405162461bcd60e51b815260206004820152600d60248201526c24b73b30b634b210383937b7b360991b6044820152606401610764565b6006546040517f23b872dd000000000000000000000000000000000000000000000000000000008152336004820152306024820152604481018690526001600160a01b03909116906323b872dd9060640161110c565b61165a61225b565b6001600160a01b03811661169d576040517f1e4fbdf700000000000000000000000000000000000000000000000000000000815260006004820152602401610764565b6116a6816122cf565b50565b7ff0c57e16840df040f15088dc2f81fe391c3923bec73e23a9662efc9c229c6a00805468010000000000000000810460ff16159067ffffffffffffffff166000811580156116f45750825b905060008267ffffffffffffffff1660011480156117115750303b155b90508115801561171f575080155b15611756576040517ff92ee8a900000000000000000000000000000000000000000000000000000000815260040160405180910390fd5b845467ffffffffffffffff19166001178555831561178a57845468ff00000000000000001916680100000000000000001785555b6117968989898961239c565b6117bb6117a960a0880160808901613770565b6105b761012089016101008a01613770565b831561180657845468ff000000000000000019168555604051600181527fc7f505b2f371ae2175ee4913f4499e1f2633a7b5936321eed1cdaeb6115181d29060200160405180910390a15b505050505050505050565b611819611941565b600b80546001600160a01b039384166001600160a01b031991821617909155600c8054929093169116179055565b6000855167ffffffffffffffff8111156118635761186361315f565b60405190808252806020026020018201604052801561188c578160200160208202803683370190505b50905084816000815181106118a3576118a3613a16565b6020026020010181815250506118b886610d91565b95506118c381610d91565b905060606118d48783836000611a60565b506118e188888888610e26565b6118ee8783836000611b78565b336001600160a01b03167f7d8a8f009bcd9cd0dc27e36fe37cc7cfe2bbd1469c0970d31046d3c12ec7f48c898989888860405161192f959493929190613cfc565b60405180910390a25050505050505050565b7ff0c57e16840df040f15088dc2f81fe391c3923bec73e23a9662efc9c229c6a005468010000000000000000900460ff16611201576040517fd7e6bcf800000000000000000000000000000000000000000000000000000000815260040160405180910390fd5b6119b3846000612445565b6040805160018082528183019092526000916020808301908036833701905050905083816000815181106119e9576119e9613a16565b6020026020010181815250506119fe81612876565b611a09856000612ac8565b611a1281612b64565b336001600160a01b03167f2d872524ee3f5c962e9a4701928e8254565c0b76f165704bb5511ba041f3c27c86868686604051611a519493929190613d3a565b60405180910390a25050505050565b60008083518551611a719190613c66565b67ffffffffffffffff811115611a8957611a8961315f565b604051908082528060200260200182016040528015611ab2578160200160208202803683370190505b50905060005b8551811015611b0057858181518110611ad357611ad3613a16565b6020026020010151828281518110611aed57611aed613a16565b6020908102919091010152600101611ab8565b5060005b8451811015611b5857848181518110611b1f57611b1f613a16565b602002602001015182828851611b359190613c66565b81518110611b4557611b45613a16565b6020908102919091010152600101611b04565b50611b638684612445565b611b6c81612876565b50600195945050505050565b611b828482612ac8565b611b8b83612b64565b61119b82612bee565b60608167ffffffffffffffff811115611baf57611baf61315f565b604051908082528060200260200182016040528015611bd8578160200160208202803683370190505b5090506000805b8551811015611c3357858181518110611bfa57611bfa613a16565b6020026020010151838380611c0e90613d66565b945081518110611c2057611c20613a16565b6020908102919091010152600101611bdf565b5060005b8451811015611c8b57848181518110611c5257611c52613a16565b6020026020010151838380611c6690613d66565b945081518110611c7857611c78613a16565b6020908102919091010152600101611c37565b50509392505050565b60005b8451811015611e3357848181518110611cb257611cb2613a16565b602002602001015160000315611e2b5760006001600160a01b031660046000878481518110611ce357611ce3613a16565b6020908102919091018101518252810191909152604001600020546001600160a01b031614801590611d575750336001600160a01b031660046000878481518110611d3057611d30613a16565b6020908102919091018101518252810191909152604001600020546001600160a01b031614155b15611dd957848181518110611d6e57611d6e613a16565b602002602001015160046000878481518110611d8c57611d8c613a16565b60209081029190910181015182528101919091526040908101600020549051639fec262f60e01b815260048101929092526001600160a01b03166024820152336044820152606401610764565b8360046000878481518110611df057611df0613a16565b6020026020010151815260200190815260200160002060006101000a8154816001600160a01b0302191690836001600160a01b031602179055505b600101611c97565b50336001600160a01b0316836001600160a01b03167f2478e2370a2c14a2eb7579b8a4a140dc020d4d75daf0016542656bee955395f38888888787604051611e7f959493929190613d7f565b60405180910390a3505050505050565b606082845103611ea0575082610c53565b60008367ffffffffffffffff811115611ebb57611ebb61315f565b604051908082528060200260200182016040528015611ee4578160200160208202803683370190505b50905060005b8551811015611f3257858181518110611f0557611f05613a16565b6020026020010151828281518110611f1f57611f1f613a16565b6020908102919091010152600101611eea565b5084515b84811015611f645783828281518110611f5157611f51613a16565b6020908102919091010152600101611f36565b50949350505050565b60608167ffffffffffffffff811115611f8857611f8861315f565b604051908082528060200260200182016040528015611fb1578160200160208202803683370190505b5090506000858282611fc281613d66565b935081518110611fd457611fd4613a16565b60200260200101818152505060005b855181101561203757858181518110611ffe57611ffe613a16565b602002602001015183838061201290613d66565b94508151811061202457612024613a16565b6020908102919091010152600101611fe3565b5083828261204481613d66565b93508151811061205657612056613a16565b60200260200101818152505050949350505050565b306001600160a01b037f000000000000000000000000000000000000000000000000000000000000000016148061210457507f00000000000000000000000000000000000000000000000000000000000000006001600160a01b03166120f87f360894a13ba1a3210667c828492db98dca3e2076cc3735a920a3ca505d382bbc546001600160a01b031690565b6001600160a01b031614155b156112015760405163703e46dd60e11b815260040160405180910390fd5b6116a661225b565b816001600160a01b03166352d1902d6040518163ffffffff1660e01b8152600401602060405180830381865afa925050508015612184575060408051601f3d908101601f1916820190925261218191810190613dcd565b60015b6121ac57604051634c9c8ce360e01b81526001600160a01b0383166004820152602401610764565b7f360894a13ba1a3210667c828492db98dca3e2076cc3735a920a3ca505d382bbc8114612208576040517faa1d49a400000000000000000000000000000000000000000000000000000000815260048101829052602401610764565b6112168383612c78565b306001600160a01b037f000000000000000000000000000000000000000000000000000000000000000016146112015760405163703e46dd60e11b815260040160405180910390fd5b3361228d7f9016d09d72d40fdae2fd8ceac6b6234c7706214fd39c1cd1e609a0528c199300546001600160a01b031690565b6001600160a01b031614611201576040517f118cdaa7000000000000000000000000000000000000000000000000000000008152336004820152602401610764565b7f9016d09d72d40fdae2fd8ceac6b6234c7706214fd39c1cd1e609a0528c19930080546001600160a01b031981166001600160a01b03848116918217845560405192169182907f8be0079c531659141344cd1fd0a4f28419497f9722a3daafe3b4186f6b6457e090600090a3505050565b61234983612876565b61235283612b64565b336001600160a01b03167f7ff08e0ca1fce6b202b83128811e4f6ceda54930aa074cd365bf68f95c20ce1984848460405161238f93929190613cc0565b60405180910390a2505050565b6123a4611941565b6123af848484612cce565b6123e26123c26040830160208401613770565b6123d26060840160408501613770565b6101e260e0850160c08601613770565b6123ef6020820182613770565b600980546001600160a01b0319166001600160a01b039290921691909117905561241f60c0820160a08301613770565b600a80546001600160a01b0319166001600160a01b039290921691909117905550505050565b600061245083612ce1565b905060005b815181101561119b5781818151811061247057612470613a16565b60200260200101516000031561286e576000811180156124cb575081612497600183613a42565b815181106124a7576124a7613a16565b60200260200101518282815181106124c1576124c1613a16565b6020026020010151145b1561251f578181815181106124e2576124e2613a16565b60200260200101516040517fdd57483100000000000000000000000000000000000000000000000000000000815260040161076491815260200190565b60006003600084848151811061253757612537613a16565b60209081029190910181015182528101919091526040016000205460ff16600281111561256657612566613ce6565b1480156125b7575060006002600084848151811061258657612586613a16565b60209081029190910181015182528101919091526040016000205460ff1660028111156125b5576125b5613ce6565b145b1561260b578181815181106125ce576125ce613a16565b60200260200101516040517f8392512700000000000000000000000000000000000000000000000000000000815260040161076491815260200190565b60026003600084848151811061262357612623613a16565b60209081029190910181015182528101919091526040016000205460ff16600281111561265257612652613ce6565b14806126a15750600280600084848151811061267057612670613a16565b60209081029190910181015182528101919091526040016000205460ff16600281111561269f5761269f613ce6565b145b156126f5578181815181106126b8576126b8613a16565b60200260200101516040517f41a06d2800000000000000000000000000000000000000000000000000000000815260040161076491815260200190565b82158015612747575060016003600084848151811061271657612716613a16565b60209081029190910181015182528101919091526040016000205460ff16600281111561274557612745613ce6565b145b1561279b5781818151811061275e5761275e613a16565b60200260200101516040517fd60f4acc00000000000000000000000000000000000000000000000000000000815260040161076491815260200190565b8280156127ea5750336001600160a01b0316600460008484815181106127c3576127c3613a16565b6020908102919091018101518252810191909152604001600020546001600160a01b031614155b8015612839575060006001600160a01b03166004600084848151811061281257612812613a16565b6020908102919091018101518252810191909152604001600020546001600160a01b031614155b1561286e5781818151811061285057612850613a16565b602002602001015160046000848481518110611d8c57611d8c613a16565b600101612455565b600061288182612ce1565b905060005b815181101561291b578181815181106128a1576128a1613a16565b602002602001015160000315612913576000811180156128fc5750816128c8600183613a42565b815181106128d8576128d8613a16565b60200260200101518282815181106128f2576128f2613a16565b6020026020010151145b15612913578181815181106124e2576124e2613a16565b600101612886565b5060005b825181101561121657600280600085848151811061293f5761293f613a16565b60209081029190910181015182528101919091526040016000205460ff16600281111561296e5761296e613ce6565b14806129be575060026003600085848151811061298d5761298d613a16565b60209081029190910181015182528101919091526040016000205460ff1660028111156129bc576129bc613ce6565b145b156129d5578281815181106126b8576126b8613a16565b6001600260008584815181106129ed576129ed613a16565b60209081029190910181015182528101919091526040016000205460ff166002811115612a1c57612a1c613ce6565b1480612a6c5750600160036000858481518110612a3b57612a3b613a16565b60209081029190910181015182528101919091526040016000205460ff166002811115612a6a57612a6a613ce6565b145b15612ac057828181518110612a8357612a83613a16565b60200260200101516040517f79e1da4700000000000000000000000000000000000000000000000000000000815260040161076491815260200190565b60010161291f565b600081612ad6576002612ad9565b60035b905060005b835181101561119b57838181518110612af957612af9613a16565b6020026020010151600014612b5c576002826000868481518110612b1f57612b1f613a16565b6020026020010151815260200190815260200160002060006101000a81548160ff02191690836002811115612b5657612b56613ce6565b02179055505b600101612ade565b60005b81518110156111bc57818181518110612b8257612b82613a16565b6020026020010151600014612be657600160026000848481518110612ba957612ba9613a16565b6020026020010151815260200190815260200160002060006101000a81548160ff02191690836002811115612be057612be0613ce6565b02179055505b600101612b67565b60005b81518110156111bc57818181518110612c0c57612c0c613a16565b6020026020010151600014612c7057600160036000848481518110612c3357612c33613a16565b6020026020010151815260200190815260200160002060006101000a81548160ff02191690836002811115612c6a57612c6a613ce6565b02179055505b600101612bf1565b612c8182612d80565b6040516001600160a01b038316907fbc7cd75a20ee27fd9adebab32041f755214dbc6bffa90cc0225b39da2e5c2d3b90600090a2805115612cc6576112168282612df7565b6111bc612e6d565b612cd6611941565b611216838383612ea5565b60606000825167ffffffffffffffff811115612cff57612cff61315f565b604051908082528060200260200182016040528015612d28578160200160208202803683370190505b50905060005b8351811015612d7657838181518110612d4957612d49613a16565b6020026020010151828281518110612d6357612d63613a16565b6020908102919091010152600101612d2e565b50610c5381612ecf565b806001600160a01b03163b600003612db657604051634c9c8ce360e01b81526001600160a01b0382166004820152602401610764565b7f360894a13ba1a3210667c828492db98dca3e2076cc3735a920a3ca505d382bbc80546001600160a01b0319166001600160a01b0392909216919091179055565b6060600080846001600160a01b031684604051612e149190613de6565b600060405180830381855af49150503d8060008114612e4f576040519150601f19603f3d011682016040523d82523d6000602084013e612e54565b606091505b5091509150612e64858383612ee4565b95945050505050565b3415611201576040517fb398979f00000000000000000000000000000000000000000000000000000000815260040160405180910390fd5b612ead611941565b612eb681612f59565b6000612ec28482613e49565b50600161119b8382613e49565b6060612edd82612f6a612f6e565b5090919050565b606082612ef957612ef482612f86565b610c53565b8151158015612f1057506001600160a01b0384163b155b15612f52576040517f9996b3150000000000000000000000000000000000000000000000000000000081526001600160a01b0385166004820152602401610764565b5080610c53565b612f61611941565b6116a681612fc8565b1190565b6060612edd60208401612f8085612fd0565b84612fe8565b805115612f965780518082602001fd5b6040517fd6bda27500000000000000000000000000000000000000000000000000000000815260040160405180910390fd5b61165a611941565b60008151602002612fe18360200190565b0192915050565b60408383031015612ff857505050565b6000613002845190565b905083602081015b848110156130445761302761301d825190565b848663ffffffff16565b1561303c576020919091018051825182528252905b60200161300a565b508451815186528152613058858285612fe8565b6108aa816020018585612fe8565b604051806101600160405280600b906020820280368337509192915050565b60405180606001604052806003906020820280368337509192915050565b6040518061028001604052806014906020820280368337509192915050565b60405180608001604052806004906020820280368337509192915050565b604051806101800160405280600c906020820280368337509192915050565b6001600160a01b03811681146116a657600080fd5b60008060006060848603121561312957600080fd5b8335613134816130ff565b92506020840135613144816130ff565b91506040840135613154816130ff565b809150509250925092565b634e487b7160e01b600052604160045260246000fd5b604051601f8201601f1916810167ffffffffffffffff8111828210171561319e5761319e61315f565b604052919050565b600082601f8301126131b757600080fd5b813567ffffffffffffffff8111156131d1576131d161315f565b8060051b6131e160208201613175565b918252602081850181019290810190868411156131fd57600080fd5b6020860192505b8383101561321f578235825260209283019290910190613204565b9695505050505050565b6000610100828403121561323c57600080fd5b50919050565b60008083601f84011261325457600080fd5b50813567ffffffffffffffff81111561326c57600080fd5b60208301915083602082850101111561328457600080fd5b9250929050565b600080600080600061016086880312156132a457600080fd5b853567ffffffffffffffff8111156132bb57600080fd5b6132c7888289016131a6565b955050602086013593506132de8760408801613229565b925061014086013567ffffffffffffffff8111156132fb57600080fd5b61330788828901613242565b969995985093965092949392505050565b60005b8381101561333357818101518382015260200161331b565b50506000910152565b602081526000825180602084015261335b816040850160208701613318565b601f01601f19169190910160400192915050565b6000806000806000610160868803121561338857600080fd5b853567ffffffffffffffff81111561339f57600080fd5b6133ab888289016131a6565b955050602086013567ffffffffffffffff8111156133c857600080fd5b6133d4888289016131a6565b9450506132de8760408801613229565b600080600061014084860312156133fa57600080fd5b833567ffffffffffffffff81111561341157600080fd5b61341d868287016131a6565b935050602084013567ffffffffffffffff81111561343a57600080fd5b613446868287016131a6565b9250506134568560408601613229565b90509250925092565b803561346a816130ff565b919050565b60008060008060008060006101a0888a03121561348b57600080fd5b873567ffffffffffffffff8111156134a257600080fd5b6134ae8a828b016131a6565b975050602088013567ffffffffffffffff8111156134cb57600080fd5b6134d78a828b016131a6565b965050604088013567ffffffffffffffff8111156134f457600080fd5b6135008a828b016131a6565b9550506135108960608a01613229565b935061351f610160890161345f565b925061018088013567ffffffffffffffff81111561353c57600080fd5b6135488a828b01613242565b989b979a50959850939692959293505050565b60006020828403121561356d57600080fd5b813567ffffffffffffffff81111561358457600080fd5b610df7848285016131a6565b600081518084526020840193506020830160005b828110156135c25781518652602095860195909101906001016135a4565b5093949350505050565b602081526000610c536020830184613590565b60008060008061016085870312156135f657600080fd5b84359350602085013567ffffffffffffffff81111561361457600080fd5b613620878288016131a6565b935050604085013591506136378660608701613229565b905092959194509250565b60008067ffffffffffffffff84111561365d5761365d61315f565b50601f8301601f191660200161367281613175565b91505082815283838301111561368757600080fd5b828260208301376000602084830101529392505050565b600080604083850312156136b157600080fd5b82356136bc816130ff565b9150602083013567ffffffffffffffff8111156136d857600080fd5b8301601f810185136136e957600080fd5b6136f885823560208401613642565b9150509250929050565b60008060006040848603121561371757600080fd5b833567ffffffffffffffff81111561372e57600080fd5b61373a868287016131a6565b935050602084013567ffffffffffffffff81111561375757600080fd5b61376386828701613242565b9497909650939450505050565b60006020828403121561378257600080fd5b8135610c53816130ff565b600080600080606085870312156137a357600080fd5b843567ffffffffffffffff8111156137ba57600080fd5b6137c6878288016131a6565b94505060208501356137d7816130ff565b9250604085013567ffffffffffffffff8111156137f357600080fd5b6137ff87828801613242565b95989497509550505050565b60006020828403121561381d57600080fd5b5035919050565b6000806000806000610160868803121561383d57600080fd5b85359450602086013567ffffffffffffffff8111156133c857600080fd5b6000806000610140848603121561387157600080fd5b83359250602084013567ffffffffffffffff81111561343a57600080fd5b600082601f8301126138a057600080fd5b610c5383833560208501613642565b6000806000808486036101808112156138c757600080fd5b853567ffffffffffffffff8111156138de57600080fd5b6138ea8882890161388f565b955050602086013567ffffffffffffffff81111561390757600080fd5b6139138882890161388f565b9450506040860135613924816130ff565b9250610120605f198201121561393957600080fd5b509295919450926060019150565b6000806040838503121561395a57600080fd5b8235613965816130ff565b91506020830135613975816130ff565b809150509250929050565b600080600080600080610180878903121561399a57600080fd5b86359550602087013567ffffffffffffffff8111156139b857600080fd5b6139c489828a016131a6565b955050604087013593506139db8860608901613229565b925061016087013567ffffffffffffffff8111156139f857600080fd5b613a0489828a01613242565b979a9699509497509295939492505050565b634e487b7160e01b600052603260045260246000fd5b634e487b7160e01b600052601160045260246000fd5b818103818111156114cb576114cb613a2c565b8060005b600281101561119b5760408285376040938401939190910190600101613a59565b61026081016040868337613a916040830186613a55565b60408460c084013761010082018360005b600b811015613ac1578151835260209283019290910190600101613aa2565b50505095945050505050565b600060208284031215613adf57600080fd5b81518015158114610c5357600080fd5b61016081016040868337613b066040830186613a55565b60408460c084013761010082018360005b6003811015613ac1578151835260209283019290910190600101613b17565b600181811c90821680613b4a57607f821691505b60208210810361323c57634e487b7160e01b600052602260045260246000fd5b81835281816020850137506000828201602090810191909152601f909101601f19169091010190565b606081526000613ba66060830187613590565b8281036020840152613bb88187613590565b90508281036040840152613bcd818587613b6a565b979650505050505050565b61038081016040868337613bef6040830186613a55565b60408460c084013761010082018360005b6014811015613ac1578151835260209283019290910190600101613c00565b61018081016040868337613c366040830186613a55565b60408460c084013761010082018360005b6004811015613ac1578151835260209283019290910190600101613c47565b808201808211156114cb576114cb613a2c565b61028081016040868337613c906040830186613a55565b60408460c084013761010082018360005b600c811015613ac1578151835260209283019290910190600101613ca1565b604081526000613cd36040830186613590565b828103602084015261321f818587613b6a565b634e487b7160e01b600052602160045260246000fd5b858152608060208201526000613d156080830187613590565b8560408401528281036060840152613d2e818587613b6a565b98975050505050505050565b606081526000613d4d6060830187613590565b8560208401528281036040840152613bcd818587613b6a565b600060018201613d7857613d78613a2c565b5060010190565b608081526000613d926080830188613590565b8281036020840152613da48188613590565b90508281036040840152613db88187613590565b90508281036060840152613d2e818587613b6a565b600060208284031215613ddf57600080fd5b5051919050565b60008251613df8818460208701613318565b9190910192915050565b601f82111561121657806000526020600020601f840160051c81016020851015613e295750805b601f840160051c820191505b818110156108aa5760008155600101613e35565b815167ffffffffffffffff811115613e6357613e6361315f565b613e7781613e718454613b36565b84613e02565b6020601f821160018114613eab5760008315613e935750848201515b600019600385901b1c1916600184901b1784556108aa565b600084815260208120601f198516915b82811015613edb5787850151825560209485019460019092019101613ebb565b5084821015613ef95786840151600019600387901b60f8161c191681555b50505050600190811b0190555056fea26469706673582212208f282ece91a88a0378e8ce488692e2aa60fa8ee99c42c3fd0e626768d6a4437d64736f6c634300081b0033",
  "linkReferences": {},
  "deployedLinkReferences": {}
}