{
  "_format": "hh-sol-artifact-1",
  "contractName": "Zeto_NfAnon",
  "sourceName": "contracts/zeto_nf_anon.sol",
  "abi": [
    {
      "inputs": [
        {
          "internalType": "address",
          "name": "target",
          "type": "address"
        }
      ],
      "name": "AddressEmptyCode",
      "type": "error"
    },
    {
      "inputs": [
        {
          "internalType": "address",
          "name": "implementation",
          "type": "address"
        }
      ],
      "name": "ERC1967InvalidImplementation",
      "type": "error"
    },
    {
      "inputs": [],
      "name": "ERC1967NonPayable",
      "type": "error"
    },
    {
      "inputs": [],
      "name": "FailedCall",
      "type": "error"
    },
    {
      "inputs": [],
      "name": "InvalidInitialization",
      "type": "error"
    },
    {
      "inputs": [],
      "name": "NotInitializing",
      "type": "error"
    },
    {
      "inputs": [
        {
          "internalType": "uint256",
          "name": "utxo",
          "type": "uint256"
        },
        {
          "internalType": "address",
          "name": "delegate",
          "type": "address"
        },
        {
          "internalType": "address",
          "name": "sender",
          "type": "address"
        }
      ],
      "name": "NotLockDelegate",
      "type": "error"
    },
    {
      "inputs": [
        {
          "internalType": "address",
          "name": "owner",
          "type": "address"
        }
      ],
      "name": "OwnableInvalidOwner",
      "type": "error"
    },
    {
      "inputs": [
        {
          "internalType": "address",
          "name": "account",
          "type": "address"
        }
      ],
      "name": "OwnableUnauthorizedAccount",
      "type": "error"
    },
    {
      "inputs": [
        {
          "internalType": "uint256",
          "name": "utxo",
          "type": "uint256"
        }
      ],
      "name": "UTXOAlreadyLocked",
      "type": "error"
    },
    {
      "inputs": [
        {
          "internalType": "uint256",
          "name": "utxo",
          "type": "uint256"
        }
      ],
      "name": "UTXOAlreadyOwned",
      "type": "error"
    },
    {
      "inputs": [
        {
          "internalType": "uint256",
          "name": "utxo",
          "type": "uint256"
        }
      ],
      "name": "UTXOAlreadySpent",
      "type": "error"
    },
    {
      "inputs": [
        {
          "internalType": "uint256",
          "name": "maxAllowed",
          "type": "uint256"
        }
      ],
      "name": "UTXOArrayTooLarge",
      "type": "error"
    },
    {
      "inputs": [
        {
          "internalType": "uint256",
          "name": "utxo",
          "type": "uint256"
        }
      ],
      "name": "UTXODuplicate",
      "type": "error"
    },
    {
      "inputs": [
        {
          "internalType": "uint256",
          "name": "utxo",
          "type": "uint256"
        }
      ],
      "name": "UTXONotLocked",
      "type": "error"
    },
    {
      "inputs": [
        {
          "internalType": "uint256",
          "name": "utxo",
          "type": "uint256"
        }
      ],
      "name": "UTXONotMinted",
      "type": "error"
    },
    {
      "inputs": [],
      "name": "UUPSUnauthorizedCallContext",
      "type": "error"
    },
    {
      "inputs": [
        {
          "internalType": "bytes32",
          "name": "slot",
          "type": "bytes32"
        }
      ],
      "name": "UUPSUnsupportedProxiableUUID",
      "type": "error"
    },
    {
      "anonymous": false,
      "inputs": [
        {
          "indexed": false,
          "internalType": "uint64",
          "name": "version",
          "type": "uint64"
        }
      ],
      "name": "Initialized",
      "type": "event"
    },
    {
      "anonymous": false,
      "inputs": [
        {
          "indexed": false,
          "internalType": "uint256[]",
          "name": "lockedOutputs",
          "type": "uint256[]"
        },
        {
          "indexed": true,
          "internalType": "address",
          "name": "oldDelegate",
          "type": "address"
        },
        {
          "indexed": true,
          "internalType": "address",
          "name": "newDelegate",
          "type": "address"
        },
        {
          "indexed": false,
          "internalType": "bytes",
          "name": "data",
          "type": "bytes"
        }
      ],
      "name": "LockDelegateChanged",
      "type": "event"
    },
    {
      "anonymous": false,
      "inputs": [
        {
          "indexed": true,
          "internalType": "address",
          "name": "previousOwner",
          "type": "address"
        },
        {
          "indexed": true,
          "internalType": "address",
          "name": "newOwner",
          "type": "address"
        }
      ],
      "name": "OwnershipTransferred",
      "type": "event"
    },
    {
      "anonymous": false,
      "inputs": [
        {
          "indexed": false,
          "internalType": "uint256[]",
          "name": "inputs",
          "type": "uint256[]"
        },
        {
          "indexed": false,
          "internalType": "uint256",
          "name": "output",
          "type": "uint256"
        },
        {
          "indexed": true,
          "internalType": "address",
          "name": "submitter",
          "type": "address"
        },
        {
          "indexed": false,
          "internalType": "bytes",
          "name": "data",
          "type": "bytes"
        }
      ],
      "name": "UTXOBurn",
      "type": "event"
    },
    {
      "anonymous": false,
      "inputs": [
        {
          "indexed": false,
          "internalType": "uint256[]",
          "name": "outputs",
          "type": "uint256[]"
        },
        {
          "indexed": true,
          "internalType": "address",
          "name": "submitter",
          "type": "address"
        },
        {
          "indexed": false,
          "internalType": "bytes",
          "name": "data",
          "type": "bytes"
        }
      ],
      "name": "UTXOMint",
      "type": "event"
    },
    {
      "anonymous": false,
      "inputs": [
        {
          "indexed": false,
          "internalType": "uint256[]",
          "name": "inputs",
          "type": "uint256[]"
        },
        {
          "indexed": false,
          "internalType": "uint256[]",
          "name": "outputs",
          "type": "uint256[]"
        },
        {
          "indexed": true,
          "internalType": "address",
          "name": "submitter",
          "type": "address"
        },
        {
          "indexed": false,
          "internalType": "bytes",
          "name": "data",
          "type": "bytes"
        }
      ],
      "name": "UTXOTransfer",
      "type": "event"
    },
    {
      "anonymous": false,
      "inputs": [
        {
          "indexed": false,
          "internalType": "uint256[]",
          "name": "inputs",
          "type": "uint256[]"
        },
        {
          "indexed": false,
          "internalType": "uint256[]",
          "name": "outputs",
          "type": "uint256[]"
        },
        {
          "indexed": false,
          "internalType": "uint256",
          "name": "encryptionNonce",
          "type": "uint256"
        },
        {
          "indexed": false,
          "internalType": "uint256[2]",
          "name": "ecdhPublicKey",
          "type": "uint256[2]"
        },
        {
          "indexed": false,
          "internalType": "uint256[]",
          "name": "encryptedValues",
          "type": "uint256[]"
        },
        {
          "indexed": true,
          "internalType": "address",
          "name": "submitter",
          "type": "address"
        },
        {
          "indexed": false,
          "internalType": "bytes",
          "name": "data",
          "type": "bytes"
        }
      ],
      "name": "UTXOTransferWithEncryptedValues",
      "type": "event"
    },
    {
      "anonymous": false,
      "inputs": [
        {
          "indexed": false,
          "internalType": "uint256",
          "name": "amount",
          "type": "uint256"
        },
        {
          "indexed": false,
          "internalType": "uint256[]",
          "name": "inputs",
          "type": "uint256[]"
        },
        {
          "indexed": false,
          "internalType": "uint256",
          "name": "output",
          "type": "uint256"
        },
        {
          "indexed": true,
          "internalType": "address",
          "name": "submitter",
          "type": "address"
        },
        {
          "indexed": false,
          "internalType": "bytes",
          "name": "data",
          "type": "bytes"
        }
      ],
      "name": "UTXOWithdraw",
      "type": "event"
    },
    {
      "anonymous": false,
      "inputs": [
        {
          "indexed": false,
          "internalType": "uint256[]",
          "name": "inputs",
          "type": "uint256[]"
        },
        {
          "indexed": false,
          "internalType": "uint256[]",
          "name": "outputs",
          "type": "uint256[]"
        },
        {
          "indexed": false,
          "internalType": "uint256[]",
          "name": "lockedOutputs",
          "type": "uint256[]"
        },
        {
          "indexed": true,
          "internalType": "address",
          "name": "delegate",
          "type": "address"
        },
        {
          "indexed": true,
          "internalType": "address",
          "name": "submitter",
          "type": "address"
        },
        {
          "indexed": false,
          "internalType": "bytes",
          "name": "data",
          "type": "bytes"
        }
      ],
      "name": "UTXOsLocked",
      "type": "event"
    },
    {
      "anonymous": false,
      "inputs": [
        {
          "indexed": true,
          "internalType": "address",
          "name": "implementation",
          "type": "address"
        }
      ],
      "name": "Upgraded",
      "type": "event"
    },
    {
      "inputs": [],
      "name": "UPGRADE_INTERFACE_VERSION",
      "outputs": [
        {
          "internalType": "string",
          "name": "",
          "type": "string"
        }
      ],
      "stateMutability": "view",
      "type": "function"
    },
    {
      "inputs": [
        {
          "internalType": "uint256[]",
          "name": "commitments",
          "type": "uint256[]"
        }
      ],
      "name": "checkAndPadCommitments",
      "outputs": [
        {
          "internalType": "uint256[]",
          "name": "",
          "type": "uint256[]"
        }
      ],
      "stateMutability": "pure",
      "type": "function"
    },
    {
      "inputs": [],
      "name": "decimals",
      "outputs": [
        {
          "internalType": "uint8",
          "name": "",
          "type": "uint8"
        }
      ],
      "stateMutability": "view",
      "type": "function"
    },
    {
      "inputs": [
        {
          "internalType": "uint256[]",
          "name": "utxos",
          "type": "uint256[]"
        },
        {
          "internalType": "address",
          "name": "delegate",
          "type": "address"
        },
        {
          "internalType": "bytes",
          "name": "data",
          "type": "bytes"
        }
      ],
      "name": "delegateLock",
      "outputs": [],
      "stateMutability": "nonpayable",
      "type": "function"
    },
    {
      "inputs": [
        {
          "internalType": "string",
          "name": "name",
          "type": "string"
        },
        {
          "internalType": "string",
          "name": "symbol",
          "type": "string"
        },
        {
          "internalType": "address",
          "name": "initialOwner",
          "type": "address"
        },
        {
          "components": [
            {
              "internalType": "address",
              "name": "verifier",
              "type": "address"
            },
            {
              "internalType": "address",
              "name": "depositVerifier",
              "type": "address"
            },
            {
              "internalType": "address",
              "name": "withdrawVerifier",
              "type": "address"
            },
            {
              "internalType": "address",
              "name": "lockVerifier",
              "type": "address"
            },
            {
              "internalType": "address",
              "name": "burnVerifier",
              "type": "address"
            },
            {
              "internalType": "address",
              "name": "batchVerifier",
              "type": "address"
            },
            {
              "internalType": "address",
              "name": "batchWithdrawVerifier",
              "type": "address"
            },
            {
              "internalType": "address",
              "name": "batchLockVerifier",
              "type": "address"
            },
            {
              "internalType": "address",
              "name": "batchBurnVerifier",
              "type": "address"
            }
          ],
          "internalType": "struct IZetoInitializable.VerifiersInfo",
          "name": "verifiers",
          "type": "tuple"
        }
      ],
      "name": "initialize",
      "outputs": [],
      "stateMutability": "nonpayable",
      "type": "function"
    },
    {
      "inputs": [
        {
          "internalType": "uint256",
          "name": "input",
          "type": "uint256"
        },
        {
          "internalType": "uint256",
          "name": "lockedOutput",
          "type": "uint256"
        },
        {
          "components": [
            {
              "internalType": "uint256[2]",
              "name": "pA",
              "type": "uint256[2]"
            },
            {
              "internalType": "uint256[2][2]",
              "name": "pB",
              "type": "uint256[2][2]"
            },
            {
              "internalType": "uint256[2]",
              "name": "pC",
              "type": "uint256[2]"
            }
          ],
          "internalType": "struct Commonlib.Proof",
          "name": "proof",
          "type": "tuple"
        },
        {
          "internalType": "address",
          "name": "delegate",
          "type": "address"
        },
        {
          "internalType": "bytes",
          "name": "data",
          "type": "bytes"
        }
      ],
      "name": "lock",
      "outputs": [],
      "stateMutability": "nonpayable",
      "type": "function"
    },
    {
      "inputs": [
        {
          "internalType": "uint256",
          "name": "utxo",
          "type": "uint256"
        }
      ],
      "name": "locked",
      "outputs": [
        {
          "internalType": "bool",
          "name": "",
          "type": "bool"
        },
        {
          "internalType": "address",
          "name": "",
          "type": "address"
        }
      ],
      "stateMutability": "view",
      "type": "function"
    },
    {
      "inputs": [
        {
          "internalType": "uint256[]",
          "name": "utxos",
          "type": "uint256[]"
        },
        {
          "internalType": "bytes",
          "name": "data",
          "type": "bytes"
        }
      ],
      "name": "mint",
      "outputs": [],
      "stateMutability": "nonpayable",
      "type": "function"
    },
    {
      "inputs": [],
      "name": "name",
      "outputs": [
        {
          "internalType": "string",
          "name": "",
          "type": "string"
        }
      ],
      "stateMutability": "view",
      "type": "function"
    },
    {
      "inputs": [],
      "name": "owner",
      "outputs": [
        {
          "internalType": "address",
          "name": "",
          "type": "address"
        }
      ],
      "stateMutability": "view",
      "type": "function"
    },
    {
      "inputs": [],
      "name": "proxiableUUID",
      "outputs": [
        {
          "internalType": "bytes32",
          "name": "",
          "type": "bytes32"
        }
      ],
      "stateMutability": "view",
      "type": "function"
    },
    {
      "inputs": [],
      "name": "renounceOwnership",
      "outputs": [],
      "stateMutability": "nonpayable",
      "type": "function"
    },
    {
      "inputs": [
        {
          "internalType": "uint256",
          "name": "txo",
          "type": "uint256"
        }
      ],
      "name": "spent",
      "outputs": [
        {
          "internalType": "bool",
          "name": "",
          "type": "bool"
        }
      ],
      "stateMutability": "view",
      "type": "function"
    },
    {
      "inputs": [],
      "name": "symbol",
      "outputs": [
        {
          "internalType": "string",
          "name": "",
          "type": "string"
        }
      ],
      "stateMutability": "view",
      "type": "function"
    },
    {
      "inputs": [
        {
          "internalType": "uint256",
          "name": "input",
          "type": "uint256"
        },
        {
          "internalType": "uint256",
          "name": "output",
          "type": "uint256"
        },
        {
          "components": [
            {
              "internalType": "uint256[2]",
              "name": "pA",
              "type": "uint256[2]"
            },
            {
              "internalType": "uint256[2][2]",
              "name": "pB",
              "type": "uint256[2][2]"
            },
            {
              "internalType": "uint256[2]",
              "name": "pC",
              "type": "uint256[2]"
            }
          ],
          "internalType": "struct Commonlib.Proof",
          "name": "proof",
          "type": "tuple"
        },
        {
          "internalType": "bytes",
          "name": "data",
          "type": "bytes"
        }
      ],
      "name": "transfer",
      "outputs": [
        {
          "internalType": "bool",
          "name": "",
          "type": "bool"
        }
      ],
      "stateMutability": "nonpayable",
      "type": "function"
    },
    {
      "inputs": [
        {
          "internalType": "uint256",
          "name": "input",
          "type": "uint256"
        },
        {
          "internalType": "uint256",
          "name": "output",
          "type": "uint256"
        },
        {
          "components": [
            {
              "internalType": "uint256[2]",
              "name": "pA",
              "type": "uint256[2]"
            },
            {
              "internalType": "uint256[2][2]",
              "name": "pB",
              "type": "uint256[2][2]"
            },
            {
              "internalType": "uint256[2]",
              "name": "pC",
              "type": "uint256[2]"
            }
          ],
          "internalType": "struct Commonlib.Proof",
          "name": "proof",
          "type": "tuple"
        },
        {
          "internalType": "bytes",
          "name": "data",
          "type": "bytes"
        }
      ],
      "name": "transferLocked",
      "outputs": [
        {
          "internalType": "bool",
          "name": "",
          "type": "bool"
        }
      ],
      "stateMutability": "nonpayable",
      "type": "function"
    },
    {
      "inputs": [
        {
          "internalType": "address",
          "name": "newOwner",
          "type": "address"
        }
      ],
      "name": "transferOwnership",
      "outputs": [],
      "stateMutability": "nonpayable",
      "type": "function"
    },
    {
      "inputs": [
        {
          "internalType": "uint256",
          "name": "input",
          "type": "uint256"
        },
        {
          "internalType": "uint256",
          "name": "output",
          "type": "uint256"
        },
        {
          "components": [
            {
              "internalType": "uint256[2]",
              "name": "pA",
              "type": "uint256[2]"
            },
            {
              "internalType": "uint256[2][2]",
              "name": "pB",
              "type": "uint256[2][2]"
            },
            {
              "internalType": "uint256[2]",
              "name": "pC",
              "type": "uint256[2]"
            }
          ],
          "internalType": "struct Commonlib.Proof",
          "name": "proof",
          "type": "tuple"
        },
        {
          "internalType": "bytes",
          "name": "data",
          "type": "bytes"
        }
      ],
      "name": "unlock",
      "outputs": [],
      "stateMutability": "nonpayable",
      "type": "function"
    },
    {
      "inputs": [
        {
          "internalType": "address",
          "name": "newImplementation",
          "type": "address"
        },
        {
          "internalType": "bytes",
          "name": "data",
          "type": "bytes"
        }
      ],
      "name": "upgradeToAndCall",
      "outputs": [],
      "stateMutability": "payable",
      "type": "function"
    }
  ],
  "bytecode": "0x60a060405230608052348015601357600080fd5b50608051612ba961003d60003960008181611291015281816112ba01526114380152612ba96000f3fe6080604052600436106101445760003560e01c80638bb2513b116100c0578063b45a3c0e11610074578063d907b54911610059578063d907b549146103be578063f2fde38b146103de578063f586acdb146103fe57600080fd5b8063b45a3c0e1461035f578063d5b5cc231461039e57600080fd5b806395d89b41116100a557806395d89b41146102e1578063a4ef9ad1146102f6578063ad3cb1cc1461031657600080fd5b80638bb2513b1461027a5780638da5cb5b1461029a57600080fd5b80634aa81d7e1161011757806352d1902d116100fc57806352d1902d146102125780636ed9d6a114610235578063715018a61461026557600080fd5b80634aa81d7e146101df5780634f1ef286146101ff57600080fd5b806306fdde03146101495780631faf7c191461017457806324ce729e14610196578063313ce567146101c3575b600080fd5b34801561015557600080fd5b5061015e61041e565b60405161016b91906122a2565b60405180910390f35b34801561018057600080fd5b5061019461018f366004612353565b6104b0565b005b3480156101a257600080fd5b506101b66101b1366004612499565b61063d565b60405161016b919061250a565b3480156101cf57600080fd5b506040516004815260200161016b565b3480156101eb57600080fd5b506101946101fa36600461251d565b6106ab565b61019461020d3660046125e4565b6106c0565b34801561021e57600080fd5b506102276106df565b60405190815260200161016b565b34801561024157600080fd5b5061025561025036600461251d565b61070e565b604051901515815260200161016b565b34801561027157600080fd5b506101946108d4565b34801561028657600080fd5b50610194610295366004612646565b6108e8565b3480156102a657600080fd5b507f9016d09d72d40fdae2fd8ceac6b6234c7706214fd39c1cd1e609a0528c199300546040516001600160a01b03909116815260200161016b565b3480156102ed57600080fd5b5061015e6108f8565b34801561030257600080fd5b506101946103113660046126b4565b610907565b34801561032257600080fd5b5061015e6040518060400160405280600581526020017f352e302e3000000000000000000000000000000000000000000000000000000081525081565b34801561036b57600080fd5b5061037f61037a366004612730565b610a7d565b6040805192151583526001600160a01b0390911660208301520161016b565b3480156103aa57600080fd5b506102556103b9366004612730565b610ad7565b3480156103ca57600080fd5b506102556103d936600461251d565b610b2f565b3480156103ea57600080fd5b506101946103f9366004612749565b610c9e565b34801561040a57600080fd5b50610194610419366004612784565b610cf5565b60606000805461042d9061281a565b80601f01602080910402602001604051908101604052809291908181526020018280546104599061281a565b80156104a65780601f1061047b576101008083540402835291602001916104a6565b820191906000526020600020905b81548152906001019060200180831161048957829003601f168201915b5050505050905090565b6040805160018082528183019092526000916020808301908036833701905050905086816000815181106104e6576104e661284e565b602090810291909101015260408051600180825281830190925260609160009190816020016020820280368337019050509050878160008151811061052d5761052d61284e565b6020026020010181815250506105468383836000610e71565b5061054f612260565b8981526020810189905260055460408051637ae4eb4f60e11b81526001600160a01b039092169163f5c9d69e91610594918c9182019060c08301908790600401612864565b602060405180830381865afa1580156105b1573d6000803e3d6000fd5b505050506040513d601f19601f820116820180604052508101906105d591906128d6565b6106165760405162461bcd60e51b815260206004820152600d60248201526c24b73b30b634b210383937b7b360991b60448201526064015b60405180910390fd5b6106238484846000610f89565b6106318484848a8a8a610fab565b50505050505050505050565b8051606090600a811115610680576040517f9ebbc98e000000000000000000000000000000000000000000000000000000008152600a600482015260240161060d565b600060028211156106935750600a610697565b5060025b6106a3848260006111a6565b949350505050565b6106b88585858585610b2f565b505050505050565b6106c8611286565b6106d18261133d565b6106db8282611345565b5050565b60006106e961142d565b507f360894a13ba1a3210667c828492db98dca3e2076cc3735a920a3ca505d382bbc90565b6040805160018082528183019092526000918291906020808301908036833701905050905086816000815181106107475761074761284e565b6020908102919091010152604080516001808252818301909252600091816020016020820280368337019050509050868160008151811061078a5761078a61284e565b60200260200101818152505060606107a58383836000610e71565b506107ae612260565b8981526020810189905260055460408051637ae4eb4f60e11b81526001600160a01b039092169163f5c9d69e916107f3918c9182019060c08301908790600401612864565b602060405180830381865afa158015610810573d6000803e3d6000fd5b505050506040513d601f19601f8201168201806040525081019061083491906128d6565b6108705760405162461bcd60e51b815260206004820152600d60248201526c24b73b30b634b210383937b7b360991b604482015260640161060d565b61087d8484846000610f89565b336001600160a01b03167fcb56a7130431b68e0e636f24584d40580490c1bf882bef3701f317d47ba98c3885858a8a6040516108bc9493929190612921565b60405180910390a25060019998505050505050505050565b6108dc611476565b6108e660006114ea565b565b6108f3838383611568565b505050565b60606001805461042d9061281a565b60005b8451811015610a27578481815181106109255761092561284e565b602002602001015160000315610a1f57336001600160a01b0316600460008784815181106109555761095561284e565b6020908102919091018101518252810191909152604001600020546001600160a01b0316146109cd578481815181106109905761099061284e565b6020908102919091010151604051639fec262f60e01b815260048101919091526001600160a01b038516602482015233604482015260640161060d565b83600460008784815181106109e4576109e461284e565b6020026020010151815260200190815260200160002060006101000a8154816001600160a01b0302191690836001600160a01b031602179055505b60010161090a565b50826001600160a01b0316336001600160a01b03167fb81fc4239cf1f8a9964a337bb7866ffeb712f9e482d9cef0f5fac9fe3bd655b2868585604051610a6f93929190612966565b60405180910390a350505050565b600080600160008481526003602052604090205460ff166002811115610aa557610aa561298c565b03610acc5750506000908152600460205260409020546001916001600160a01b0390911690565b506000928392509050565b600081815260026020819052604082205460ff1681811115610afb57610afb61298c565b1480610b295750600260008381526003602052604090205460ff166002811115610b2757610b2761298c565b145b92915050565b604080516001808252818301909252600091829190602080830190803683370190505090508681600081518110610b6857610b6861284e565b60209081029190910101526040805160018082528183019092526000918160200160208202803683370190505090508681600081518110610bab57610bab61284e565b6020026020010181815250506060610bc68383836001610e71565b50610bcf612260565b8981526020810189905260055460408051637ae4eb4f60e11b81526001600160a01b039092169163f5c9d69e91610c14918c9182019060c08301908790600401612864565b602060405180830381865afa158015610c31573d6000803e3d6000fd5b505050506040513d601f19601f82011682018060405250810190610c5591906128d6565b610c915760405162461bcd60e51b815260206004820152600d60248201526c24b73b30b634b210383937b7b360991b604482015260640161060d565b61087d8484846001610f89565b610ca6611476565b6001600160a01b038116610ce9576040517f1e4fbdf70000000000000000000000000000000000000000000000000000000081526000600482015260240161060d565b610cf2816114ea565b50565b7ff0c57e16840df040f15088dc2f81fe391c3923bec73e23a9662efc9c229c6a00805468010000000000000000810460ff16159067ffffffffffffffff16600081158015610d405750825b905060008267ffffffffffffffff166001148015610d5d5750303b155b905081158015610d6b575080155b15610da2576040517ff92ee8a900000000000000000000000000000000000000000000000000000000815260040160405180910390fd5b845467ffffffffffffffff191660011785558315610dd657845468ff00000000000000001916680100000000000000001785555b610de18989896115c4565b610dee6020870187612749565b6005805473ffffffffffffffffffffffffffffffffffffffff19166001600160a01b03929092169190911790558315610e6657845468ff000000000000000019168555604051600181527fc7f505b2f371ae2175ee4913f4499e1f2633a7b5936321eed1cdaeb6115181d29060200160405180910390a15b505050505050505050565b60008083518551610e8291906129b8565b67ffffffffffffffff811115610e9a57610e9a6123cf565b604051908082528060200260200182016040528015610ec3578160200160208202803683370190505b50905060005b8551811015610f1157858181518110610ee457610ee461284e565b6020026020010151828281518110610efe57610efe61284e565b6020908102919091010152600101610ec9565b5060005b8451811015610f6957848181518110610f3057610f3061284e565b602002602001015182828851610f4691906129b8565b81518110610f5657610f5661284e565b6020908102919091010152600101610f15565b50610f7486846115d7565b610f7d81611a08565b50600195945050505050565b610f938482611c5a565b610f9c83611cf6565b610fa582611d80565b50505050565b60005b845181101561114a57848181518110610fc957610fc961284e565b6020026020010151600003156111425760006001600160a01b031660046000878481518110610ffa57610ffa61284e565b6020908102919091018101518252810191909152604001600020546001600160a01b03161480159061106e5750336001600160a01b0316600460008784815181106110475761104761284e565b6020908102919091018101518252810191909152604001600020546001600160a01b031614155b156110f0578481815181106110855761108561284e565b6020026020010151600460008784815181106110a3576110a361284e565b60209081029190910181015182528101919091526040908101600020549051639fec262f60e01b815260048101929092526001600160a01b0316602482015233604482015260640161060d565b83600460008784815181106111075761110761284e565b6020026020010151815260200190815260200160002060006101000a8154816001600160a01b0302191690836001600160a01b031602179055505b600101610fae565b50336001600160a01b0316836001600160a01b03167f2478e2370a2c14a2eb7579b8a4a140dc020d4d75daf0016542656bee955395f388888887876040516111969594939291906129cb565b60405180910390a3505050505050565b6060828451036111b757508261127f565b60008367ffffffffffffffff8111156111d2576111d26123cf565b6040519080825280602002602001820160405280156111fb578160200160208202803683370190505b50905060005b85518110156112495785818151811061121c5761121c61284e565b60200260200101518282815181106112365761123661284e565b6020908102919091010152600101611201565b5084515b8481101561127b57838282815181106112685761126861284e565b602090810291909101015260010161124d565b5090505b9392505050565b306001600160a01b037f000000000000000000000000000000000000000000000000000000000000000016148061131f57507f00000000000000000000000000000000000000000000000000000000000000006001600160a01b03166113137f360894a13ba1a3210667c828492db98dca3e2076cc3735a920a3ca505d382bbc546001600160a01b031690565b6001600160a01b031614155b156108e65760405163703e46dd60e11b815260040160405180910390fd5b610cf2611476565b816001600160a01b03166352d1902d6040518163ffffffff1660e01b8152600401602060405180830381865afa92505050801561139f575060408051601f3d908101601f1916820190925261139c91810190612a25565b60015b6113c757604051634c9c8ce360e01b81526001600160a01b038316600482015260240161060d565b7f360894a13ba1a3210667c828492db98dca3e2076cc3735a920a3ca505d382bbc8114611423576040517faa1d49a40000000000000000000000000000000000000000000000000000000081526004810182905260240161060d565b6108f38383611e0a565b306001600160a01b037f000000000000000000000000000000000000000000000000000000000000000016146108e65760405163703e46dd60e11b815260040160405180910390fd5b336114a87f9016d09d72d40fdae2fd8ceac6b6234c7706214fd39c1cd1e609a0528c199300546001600160a01b031690565b6001600160a01b0316146108e6576040517f118cdaa700000000000000000000000000000000000000000000000000000000815233600482015260240161060d565b7f9016d09d72d40fdae2fd8ceac6b6234c7706214fd39c1cd1e609a0528c199300805473ffffffffffffffffffffffffffffffffffffffff1981166001600160a01b03848116918217845560405192169182907f8be0079c531659141344cd1fd0a4f28419497f9722a3daafe3b4186f6b6457e090600090a3505050565b61157183611a08565b61157a83611cf6565b336001600160a01b03167f7ff08e0ca1fce6b202b83128811e4f6ceda54930aa074cd365bf68f95c20ce198484846040516115b793929190612966565b60405180910390a2505050565b6115cc611e60565b6108f3838383611ec7565b60006115e283611ef1565b905060005b8151811015610fa5578181815181106116025761160261284e565b602002602001015160000315611a005760008111801561165d575081611629600183612a3e565b815181106116395761163961284e565b60200260200101518282815181106116535761165361284e565b6020026020010151145b156116b1578181815181106116745761167461284e565b60200260200101516040517fdd57483100000000000000000000000000000000000000000000000000000000815260040161060d91815260200190565b6000600360008484815181106116c9576116c961284e565b60209081029190910181015182528101919091526040016000205460ff1660028111156116f8576116f861298c565b14801561174957506000600260008484815181106117185761171861284e565b60209081029190910181015182528101919091526040016000205460ff1660028111156117475761174761298c565b145b1561179d578181815181106117605761176061284e565b60200260200101516040517f8392512700000000000000000000000000000000000000000000000000000000815260040161060d91815260200190565b6002600360008484815181106117b5576117b561284e565b60209081029190910181015182528101919091526040016000205460ff1660028111156117e4576117e461298c565b1480611833575060028060008484815181106118025761180261284e565b60209081029190910181015182528101919091526040016000205460ff1660028111156118315761183161298c565b145b156118875781818151811061184a5761184a61284e565b60200260200101516040517f41a06d2800000000000000000000000000000000000000000000000000000000815260040161060d91815260200190565b821580156118d957506001600360008484815181106118a8576118a861284e565b60209081029190910181015182528101919091526040016000205460ff1660028111156118d7576118d761298c565b145b1561192d578181815181106118f0576118f061284e565b60200260200101516040517fd60f4acc00000000000000000000000000000000000000000000000000000000815260040161060d91815260200190565b82801561197c5750336001600160a01b0316600460008484815181106119555761195561284e565b6020908102919091018101518252810191909152604001600020546001600160a01b031614155b80156119cb575060006001600160a01b0316600460008484815181106119a4576119a461284e565b6020908102919091018101518252810191909152604001600020546001600160a01b031614155b15611a00578181815181106119e2576119e261284e565b6020026020010151600460008484815181106110a3576110a361284e565b6001016115e7565b6000611a1382611ef1565b905060005b8151811015611aad57818181518110611a3357611a3361284e565b602002602001015160000315611aa557600081118015611a8e575081611a5a600183612a3e565b81518110611a6a57611a6a61284e565b6020026020010151828281518110611a8457611a8461284e565b6020026020010151145b15611aa5578181815181106116745761167461284e565b600101611a18565b5060005b82518110156108f3576002806000858481518110611ad157611ad161284e565b60209081029190910181015182528101919091526040016000205460ff166002811115611b0057611b0061298c565b1480611b505750600260036000858481518110611b1f57611b1f61284e565b60209081029190910181015182528101919091526040016000205460ff166002811115611b4e57611b4e61298c565b145b15611b675782818151811061184a5761184a61284e565b600160026000858481518110611b7f57611b7f61284e565b60209081029190910181015182528101919091526040016000205460ff166002811115611bae57611bae61298c565b1480611bfe5750600160036000858481518110611bcd57611bcd61284e565b60209081029190910181015182528101919091526040016000205460ff166002811115611bfc57611bfc61298c565b145b15611c5257828181518110611c1557611c1561284e565b60200260200101516040517f79e1da4700000000000000000000000000000000000000000000000000000000815260040161060d91815260200190565b600101611ab1565b600081611c68576002611c6b565b60035b905060005b8351811015610fa557838181518110611c8b57611c8b61284e565b6020026020010151600014611cee576002826000868481518110611cb157611cb161284e565b6020026020010151815260200190815260200160002060006101000a81548160ff02191690836002811115611ce857611ce861298c565b02179055505b600101611c70565b60005b81518110156106db57818181518110611d1457611d1461284e565b6020026020010151600014611d7857600160026000848481518110611d3b57611d3b61284e565b6020026020010151815260200190815260200160002060006101000a81548160ff02191690836002811115611d7257611d7261298c565b02179055505b600101611cf9565b60005b81518110156106db57818181518110611d9e57611d9e61284e565b6020026020010151600014611e0257600160036000848481518110611dc557611dc561284e565b6020026020010151815260200190815260200160002060006101000a81548160ff02191690836002811115611dfc57611dfc61298c565b02179055505b600101611d83565b611e1382611f90565b6040516001600160a01b038316907fbc7cd75a20ee27fd9adebab32041f755214dbc6bffa90cc0225b39da2e5c2d3b90600090a2805115611e58576108f38282612014565b6106db61208a565b7ff0c57e16840df040f15088dc2f81fe391c3923bec73e23a9662efc9c229c6a005468010000000000000000900460ff166108e6576040517fd7e6bcf800000000000000000000000000000000000000000000000000000000815260040160405180910390fd5b611ecf611e60565b611ed8816120c2565b6000611ee48482612a98565b506001610fa58382612a98565b60606000825167ffffffffffffffff811115611f0f57611f0f6123cf565b604051908082528060200260200182016040528015611f38578160200160208202803683370190505b50905060005b8351811015611f8657838181518110611f5957611f5961284e565b6020026020010151828281518110611f7357611f7361284e565b6020908102919091010152600101611f3e565b5061127f816120d3565b806001600160a01b03163b600003611fc657604051634c9c8ce360e01b81526001600160a01b038216600482015260240161060d565b7f360894a13ba1a3210667c828492db98dca3e2076cc3735a920a3ca505d382bbc805473ffffffffffffffffffffffffffffffffffffffff19166001600160a01b0392909216919091179055565b6060600080846001600160a01b0316846040516120319190612b57565b600060405180830381855af49150503d806000811461206c576040519150601f19603f3d011682016040523d82523d6000602084013e612071565b606091505b50915091506120818583836120e8565b95945050505050565b34156108e6576040517fb398979f00000000000000000000000000000000000000000000000000000000815260040160405180910390fd5b6120ca611e60565b610cf28161215d565b60606120e182612165612169565b5090919050565b6060826120fd576120f882612181565b61127f565b815115801561211457506001600160a01b0384163b155b15612156576040517f9996b3150000000000000000000000000000000000000000000000000000000081526001600160a01b038516600482015260240161060d565b508061127f565b610ca6611e60565b1190565b60606120e16020840161217b856121c3565b846121db565b8051156121915780518082602001fd5b6040517fd6bda27500000000000000000000000000000000000000000000000000000000815260040160405180910390fd5b600081516020026121d48360200190565b0192915050565b604083830310156121eb57505050565b60006121f5845190565b905083602081015b848110156122375761221a612210825190565b848663ffffffff16565b1561222f576020919091018051825182528252905b6020016121fd565b50845181518652815261224b8582856121db565b6122598160200185856121db565b5050505050565b60405180604001604052806002906020820280368337509192915050565b60005b83811015612299578181015183820152602001612281565b50506000910152565b60208152600082518060208401526122c181604085016020870161227e565b601f01601f19169190910160400192915050565b600061010082840312156122e857600080fd5b50919050565b80356001600160a01b038116811461230557600080fd5b919050565b60008083601f84011261231c57600080fd5b50813567ffffffffffffffff81111561233457600080fd5b60208301915083602082850101111561234c57600080fd5b9250929050565b600080600080600080610180878903121561236d57600080fd5b863595506020870135945061238588604089016122d5565b935061239461014088016122ee565b925061016087013567ffffffffffffffff8111156123b157600080fd5b6123bd89828a0161230a565b979a9699509497509295939492505050565b634e487b7160e01b600052604160045260246000fd5b604051601f8201601f1916810167ffffffffffffffff8111828210171561240e5761240e6123cf565b604052919050565b600082601f83011261242757600080fd5b813567ffffffffffffffff811115612441576124416123cf565b8060051b612451602082016123e5565b9182526020818501810192908101908684111561246d57600080fd5b6020860192505b8383101561248f578235825260209283019290910190612474565b9695505050505050565b6000602082840312156124ab57600080fd5b813567ffffffffffffffff8111156124c257600080fd5b6106a384828501612416565b600081518084526020840193506020830160005b828110156125005781518652602095860195909101906001016124e2565b5093949350505050565b60208152600061127f60208301846124ce565b6000806000806000610160868803121561253657600080fd5b853594506020860135935061254e87604088016122d5565b925061014086013567ffffffffffffffff81111561256b57600080fd5b6125778882890161230a565b969995985093965092949392505050565b60008067ffffffffffffffff8411156125a3576125a36123cf565b50601f8301601f19166020016125b8816123e5565b9150508281528383830111156125cd57600080fd5b828260208301376000602084830101529392505050565b600080604083850312156125f757600080fd5b612600836122ee565b9150602083013567ffffffffffffffff81111561261c57600080fd5b8301601f8101851361262d57600080fd5b61263c85823560208401612588565b9150509250929050565b60008060006040848603121561265b57600080fd5b833567ffffffffffffffff81111561267257600080fd5b61267e86828701612416565b935050602084013567ffffffffffffffff81111561269b57600080fd5b6126a78682870161230a565b9497909650939450505050565b600080600080606085870312156126ca57600080fd5b843567ffffffffffffffff8111156126e157600080fd5b6126ed87828801612416565b9450506126fc602086016122ee565b9250604085013567ffffffffffffffff81111561271857600080fd5b6127248782880161230a565b95989497509550505050565b60006020828403121561274257600080fd5b5035919050565b60006020828403121561275b57600080fd5b61127f826122ee565b600082601f83011261277557600080fd5b61127f83833560208501612588565b60008060008084860361018081121561279c57600080fd5b853567ffffffffffffffff8111156127b357600080fd5b6127bf88828901612764565b955050602086013567ffffffffffffffff8111156127dc57600080fd5b6127e888828901612764565b9450506127f7604087016122ee565b9250610120605f198201121561280c57600080fd5b509295919450926060019150565b600181811c9082168061282e57607f821691505b6020821081036122e857634e487b7160e01b600052602260045260246000fd5b634e487b7160e01b600052603260045260246000fd5b61014081016040868337604082018560005b60028110156128975760408284376040928301929190910190600101612876565b50505060408460c084013761010082018360005b60028110156128ca5781518352602092830192909101906001016128ab565b50505095945050505050565b6000602082840312156128e857600080fd5b8151801515811461127f57600080fd5b81835281816020850137506000828201602090810191909152601f909101601f19169091010190565b60608152600061293460608301876124ce565b828103602084015261294681876124ce565b9050828103604084015261295b8185876128f8565b979650505050505050565b60408152600061297960408301866124ce565b828103602084015261248f8185876128f8565b634e487b7160e01b600052602160045260246000fd5b634e487b7160e01b600052601160045260246000fd5b80820180821115610b2957610b296129a2565b6080815260006129de60808301886124ce565b82810360208401526129f081886124ce565b90508281036040840152612a0481876124ce565b90508281036060840152612a198185876128f8565b98975050505050505050565b600060208284031215612a3757600080fd5b5051919050565b81810381811115610b2957610b296129a2565b601f8211156108f357806000526020600020601f840160051c81016020851015612a785750805b601f840160051c820191505b818110156122595760008155600101612a84565b815167ffffffffffffffff811115612ab257612ab26123cf565b612ac681612ac0845461281a565b84612a51565b6020601f821160018114612afa5760008315612ae25750848201515b600019600385901b1c1916600184901b178455612259565b600084815260208120601f198516915b82811015612b2a5787850151825560209485019460019092019101612b0a565b5084821015612b485786840151600019600387901b60f8161c191681555b50505050600190811b01905550565b60008251612b6981846020870161227e565b919091019291505056fea26469706673582212205f5f5002e9253875655fca5b7ed8fdd0a807952d381dc52c48faf8bab6ea641364736f6c634300081b0033",
  "linkReferences": {},
  "deployedLinkReferences": {}
}