{
  "_format": "hh-sol-artifact-1",
  "contractName": "Zeto_AnonEncNullifierKyc",
  "sourceName": "contracts/zeto_anon_enc_nullifier_kyc.sol",
  "abi": [
    {
      "inputs": [
        {
          "internalType": "address",
          "name": "target",
          "type": "address"
        }
      ],
      "name": "AddressEmptyCode",
      "type": "error"
    },
    {
      "inputs": [
        {
          "internalType": "uint256[2]",
          "name": "",
          "type": "uint256[2]"
        }
      ],
      "name": "AlreadyRegistered",
      "type": "error"
    },
    {
      "inputs": [
        {
          "internalType": "address",
          "name": "implementation",
          "type": "address"
        }
      ],
      "name": "ERC1967InvalidImplementation",
      "type": "error"
    },
    {
      "inputs": [],
      "name": "ERC1967NonPayable",
      "type": "error"
    },
    {
      "inputs": [],
      "name": "FailedCall",
      "type": "error"
    },
    {
      "inputs": [],
      "name": "InvalidInitialization",
      "type": "error"
    },
    {
      "inputs": [],
      "name": "NotInitializing",
      "type": "error"
    },
    {
      "inputs": [
        {
          "internalType": "uint256",
          "name": "utxo",
          "type": "uint256"
        },
        {
          "internalType": "address",
          "name": "delegate",
          "type": "address"
        },
        {
          "internalType": "address",
          "name": "sender",
          "type": "address"
        }
      ],
      "name": "NotLockDelegate",
      "type": "error"
    },
    {
      "inputs": [
        {
          "internalType": "address",
          "name": "owner",
          "type": "address"
        }
      ],
      "name": "OwnableInvalidOwner",
      "type": "error"
    },
    {
      "inputs": [
        {
          "internalType": "address",
          "name": "account",
          "type": "address"
        }
      ],
      "name": "OwnableUnauthorizedAccount",
      "type": "error"
    },
    {
      "inputs": [
        {
          "internalType": "uint256",
          "name": "utxo",
          "type": "uint256"
        }
      ],
      "name": "UTXOAlreadyLocked",
      "type": "error"
    },
    {
      "inputs": [
        {
          "internalType": "uint256",
          "name": "utxo",
          "type": "uint256"
        }
      ],
      "name": "UTXOAlreadyOwned",
      "type": "error"
    },
    {
      "inputs": [
        {
          "internalType": "uint256",
          "name": "utxo",
          "type": "uint256"
        }
      ],
      "name": "UTXOAlreadySpent",
      "type": "error"
    },
    {
      "inputs": [
        {
          "internalType": "uint256",
          "name": "maxAllowed",
          "type": "uint256"
        }
      ],
      "name": "UTXOArrayTooLarge",
      "type": "error"
    },
    {
      "inputs": [
        {
          "internalType": "uint256",
          "name": "utxo",
          "type": "uint256"
        }
      ],
      "name": "UTXODuplicate",
      "type": "error"
    },
    {
      "inputs": [
        {
          "internalType": "uint256",
          "name": "utxo",
          "type": "uint256"
        }
      ],
      "name": "UTXONotLocked",
      "type": "error"
    },
    {
      "inputs": [
        {
          "internalType": "uint256",
          "name": "utxo",
          "type": "uint256"
        }
      ],
      "name": "UTXONotMinted",
      "type": "error"
    },
    {
      "inputs": [
        {
          "internalType": "uint256",
          "name": "root",
          "type": "uint256"
        }
      ],
      "name": "UTXORootNotFound",
      "type": "error"
    },
    {
      "inputs": [],
      "name": "UUPSUnauthorizedCallContext",
      "type": "error"
    },
    {
      "inputs": [
        {
          "internalType": "bytes32",
          "name": "slot",
          "type": "bytes32"
        }
      ],
      "name": "UUPSUnsupportedProxiableUUID",
      "type": "error"
    },
    {
      "inputs": [
        {
          "internalType": "uint256",
          "name": "maxAllowed",
          "type": "uint256"
        }
      ],
      "name": "WithdrawArrayTooLarge",
      "type": "error"
    },
    {
      "anonymous": false,
      "inputs": [
        {
          "indexed": false,
          "internalType": "uint256[2]",
          "name": "publicKey",
          "type": "uint256[2]"
        },
        {
          "indexed": false,
          "internalType": "bytes",
          "name": "data",
          "type": "bytes"
        }
      ],
      "name": "IdentityRegistered",
      "type": "event"
    },
    {
      "anonymous": false,
      "inputs": [
        {
          "indexed": false,
          "internalType": "uint64",
          "name": "version",
          "type": "uint64"
        }
      ],
      "name": "Initialized",
      "type": "event"
    },
    {
      "anonymous": false,
      "inputs": [
        {
          "indexed": false,
          "internalType": "uint256[]",
          "name": "lockedOutputs",
          "type": "uint256[]"
        },
        {
          "indexed": true,
          "internalType": "address",
          "name": "oldDelegate",
          "type": "address"
        },
        {
          "indexed": true,
          "internalType": "address",
          "name": "newDelegate",
          "type": "address"
        },
        {
          "indexed": false,
          "internalType": "bytes",
          "name": "data",
          "type": "bytes"
        }
      ],
      "name": "LockDelegateChanged",
      "type": "event"
    },
    {
      "anonymous": false,
      "inputs": [
        {
          "indexed": true,
          "internalType": "address",
          "name": "previousOwner",
          "type": "address"
        },
        {
          "indexed": true,
          "internalType": "address",
          "name": "newOwner",
          "type": "address"
        }
      ],
      "name": "OwnershipTransferred",
      "type": "event"
    },
    {
      "anonymous": false,
      "inputs": [
        {
          "indexed": false,
          "internalType": "uint256[]",
          "name": "inputs",
          "type": "uint256[]"
        },
        {
          "indexed": false,
          "internalType": "uint256",
          "name": "output",
          "type": "uint256"
        },
        {
          "indexed": true,
          "internalType": "address",
          "name": "submitter",
          "type": "address"
        },
        {
          "indexed": false,
          "internalType": "bytes",
          "name": "data",
          "type": "bytes"
        }
      ],
      "name": "UTXOBurn",
      "type": "event"
    },
    {
      "anonymous": false,
      "inputs": [
        {
          "indexed": false,
          "internalType": "uint256[]",
          "name": "outputs",
          "type": "uint256[]"
        },
        {
          "indexed": true,
          "internalType": "address",
          "name": "submitter",
          "type": "address"
        },
        {
          "indexed": false,
          "internalType": "bytes",
          "name": "data",
          "type": "bytes"
        }
      ],
      "name": "UTXOMint",
      "type": "event"
    },
    {
      "anonymous": false,
      "inputs": [
        {
          "indexed": false,
          "internalType": "uint256[]",
          "name": "inputs",
          "type": "uint256[]"
        },
        {
          "indexed": false,
          "internalType": "uint256[]",
          "name": "outputs",
          "type": "uint256[]"
        },
        {
          "indexed": true,
          "internalType": "address",
          "name": "submitter",
          "type": "address"
        },
        {
          "indexed": false,
          "internalType": "bytes",
          "name": "data",
          "type": "bytes"
        }
      ],
      "name": "UTXOTransfer",
      "type": "event"
    },
    {
      "anonymous": false,
      "inputs": [
        {
          "indexed": false,
          "internalType": "uint256[]",
          "name": "inputs",
          "type": "uint256[]"
        },
        {
          "indexed": false,
          "internalType": "uint256[]",
          "name": "outputs",
          "type": "uint256[]"
        },
        {
          "indexed": false,
          "internalType": "uint256",
          "name": "encryptionNonce",
          "type": "uint256"
        },
        {
          "indexed": false,
          "internalType": "uint256[2]",
          "name": "ecdhPublicKey",
          "type": "uint256[2]"
        },
        {
          "indexed": false,
          "internalType": "uint256[]",
          "name": "encryptedValues",
          "type": "uint256[]"
        },
        {
          "indexed": true,
          "internalType": "address",
          "name": "submitter",
          "type": "address"
        },
        {
          "indexed": false,
          "internalType": "bytes",
          "name": "data",
          "type": "bytes"
        }
      ],
      "name": "UTXOTransferWithEncryptedValues",
      "type": "event"
    },
    {
      "anonymous": false,
      "inputs": [
        {
          "indexed": false,
          "internalType": "uint256",
          "name": "amount",
          "type": "uint256"
        },
        {
          "indexed": false,
          "internalType": "uint256[]",
          "name": "inputs",
          "type": "uint256[]"
        },
        {
          "indexed": false,
          "internalType": "uint256",
          "name": "output",
          "type": "uint256"
        },
        {
          "indexed": true,
          "internalType": "address",
          "name": "submitter",
          "type": "address"
        },
        {
          "indexed": false,
          "internalType": "bytes",
          "name": "data",
          "type": "bytes"
        }
      ],
      "name": "UTXOWithdraw",
      "type": "event"
    },
    {
      "anonymous": false,
      "inputs": [
        {
          "indexed": false,
          "internalType": "uint256[]",
          "name": "inputs",
          "type": "uint256[]"
        },
        {
          "indexed": false,
          "internalType": "uint256[]",
          "name": "outputs",
          "type": "uint256[]"
        },
        {
          "indexed": false,
          "internalType": "uint256[]",
          "name": "lockedOutputs",
          "type": "uint256[]"
        },
        {
          "indexed": true,
          "internalType": "address",
          "name": "delegate",
          "type": "address"
        },
        {
          "indexed": true,
          "internalType": "address",
          "name": "submitter",
          "type": "address"
        },
        {
          "indexed": false,
          "internalType": "bytes",
          "name": "data",
          "type": "bytes"
        }
      ],
      "name": "UTXOsLocked",
      "type": "event"
    },
    {
      "anonymous": false,
      "inputs": [
        {
          "indexed": true,
          "internalType": "address",
          "name": "implementation",
          "type": "address"
        }
      ],
      "name": "Upgraded",
      "type": "event"
    },
    {
      "inputs": [],
      "name": "UPGRADE_INTERFACE_VERSION",
      "outputs": [
        {
          "internalType": "string",
          "name": "",
          "type": "string"
        }
      ],
      "stateMutability": "view",
      "type": "function"
    },
    {
      "inputs": [
        {
          "internalType": "contract Groth16Verifier_Deposit",
          "name": "depositVerifier",
          "type": "address"
        }
      ],
      "name": "__ZetoFungible_init",
      "outputs": [],
      "stateMutability": "nonpayable",
      "type": "function"
    },
    {
      "inputs": [
        {
          "internalType": "uint256",
          "name": "amount",
          "type": "uint256"
        },
        {
          "internalType": "uint256[]",
          "name": "outputs",
          "type": "uint256[]"
        },
        {
          "components": [
            {
              "internalType": "uint256[2]",
              "name": "pA",
              "type": "uint256[2]"
            },
            {
              "internalType": "uint256[2][2]",
              "name": "pB",
              "type": "uint256[2][2]"
            },
            {
              "internalType": "uint256[2]",
              "name": "pC",
              "type": "uint256[2]"
            }
          ],
          "internalType": "struct Commonlib.Proof",
          "name": "proof",
          "type": "tuple"
        }
      ],
      "name": "_deposit",
      "outputs": [],
      "stateMutability": "nonpayable",
      "type": "function"
    },
    {
      "inputs": [
        {
          "internalType": "uint256",
          "name": "amount",
          "type": "uint256"
        },
        {
          "internalType": "uint256[]",
          "name": "nullifiers",
          "type": "uint256[]"
        },
        {
          "internalType": "uint256",
          "name": "output",
          "type": "uint256"
        },
        {
          "internalType": "uint256",
          "name": "root",
          "type": "uint256"
        },
        {
          "components": [
            {
              "internalType": "uint256[2]",
              "name": "pA",
              "type": "uint256[2]"
            },
            {
              "internalType": "uint256[2][2]",
              "name": "pB",
              "type": "uint256[2][2]"
            },
            {
              "internalType": "uint256[2]",
              "name": "pC",
              "type": "uint256[2]"
            }
          ],
          "internalType": "struct Commonlib.Proof",
          "name": "proof",
          "type": "tuple"
        }
      ],
      "name": "_withdrawWithNullifiers",
      "outputs": [],
      "stateMutability": "nonpayable",
      "type": "function"
    },
    {
      "inputs": [
        {
          "internalType": "uint256[]",
          "name": "commitments",
          "type": "uint256[]"
        }
      ],
      "name": "checkAndPadCommitments",
      "outputs": [
        {
          "internalType": "uint256[]",
          "name": "",
          "type": "uint256[]"
        }
      ],
      "stateMutability": "pure",
      "type": "function"
    },
    {
      "inputs": [],
      "name": "decimals",
      "outputs": [
        {
          "internalType": "uint8",
          "name": "",
          "type": "uint8"
        }
      ],
      "stateMutability": "view",
      "type": "function"
    },
    {
      "inputs": [
        {
          "internalType": "uint256[]",
          "name": "utxos",
          "type": "uint256[]"
        },
        {
          "internalType": "address",
          "name": "delegate",
          "type": "address"
        },
        {
          "internalType": "bytes",
          "name": "data",
          "type": "bytes"
        }
      ],
      "name": "delegateLock",
      "outputs": [],
      "stateMutability": "nonpayable",
      "type": "function"
    },
    {
      "inputs": [
        {
          "internalType": "uint256",
          "name": "amount",
          "type": "uint256"
        },
        {
          "internalType": "uint256[]",
          "name": "outputs",
          "type": "uint256[]"
        },
        {
          "components": [
            {
              "internalType": "uint256[2]",
              "name": "pA",
              "type": "uint256[2]"
            },
            {
              "internalType": "uint256[2][2]",
              "name": "pB",
              "type": "uint256[2][2]"
            },
            {
              "internalType": "uint256[2]",
              "name": "pC",
              "type": "uint256[2]"
            }
          ],
          "internalType": "struct Commonlib.Proof",
          "name": "proof",
          "type": "tuple"
        },
        {
          "internalType": "bytes",
          "name": "data",
          "type": "bytes"
        }
      ],
      "name": "deposit",
      "outputs": [],
      "stateMutability": "nonpayable",
      "type": "function"
    },
    {
      "inputs": [],
      "name": "getIdentitiesRoot",
      "outputs": [
        {
          "internalType": "uint256",
          "name": "",
          "type": "uint256"
        }
      ],
      "stateMutability": "view",
      "type": "function"
    },
    {
      "inputs": [],
      "name": "getRoot",
      "outputs": [
        {
          "internalType": "uint256",
          "name": "",
          "type": "uint256"
        }
      ],
      "stateMutability": "view",
      "type": "function"
    },
    {
      "inputs": [],
      "name": "getRootForLocked",
      "outputs": [
        {
          "internalType": "uint256",
          "name": "",
          "type": "uint256"
        }
      ],
      "stateMutability": "view",
      "type": "function"
    },
    {
      "inputs": [
        {
          "internalType": "string",
          "name": "name",
          "type": "string"
        },
        {
          "internalType": "string",
          "name": "symbol",
          "type": "string"
        },
        {
          "internalType": "address",
          "name": "initialOwner",
          "type": "address"
        },
        {
          "components": [
            {
              "internalType": "address",
              "name": "verifier",
              "type": "address"
            },
            {
              "internalType": "address",
              "name": "depositVerifier",
              "type": "address"
            },
            {
              "internalType": "address",
              "name": "withdrawVerifier",
              "type": "address"
            },
            {
              "internalType": "address",
              "name": "lockVerifier",
              "type": "address"
            },
            {
              "internalType": "address",
              "name": "burnVerifier",
              "type": "address"
            },
            {
              "internalType": "address",
              "name": "batchVerifier",
              "type": "address"
            },
            {
              "internalType": "address",
              "name": "batchWithdrawVerifier",
              "type": "address"
            },
            {
              "internalType": "address",
              "name": "batchLockVerifier",
              "type": "address"
            },
            {
              "internalType": "address",
              "name": "batchBurnVerifier",
              "type": "address"
            }
          ],
          "internalType": "struct IZetoInitializable.VerifiersInfo",
          "name": "verifiers",
          "type": "tuple"
        }
      ],
      "name": "initialize",
      "outputs": [],
      "stateMutability": "nonpayable",
      "type": "function"
    },
    {
      "inputs": [
        {
          "internalType": "uint256[2]",
          "name": "publicKey",
          "type": "uint256[2]"
        }
      ],
      "name": "isRegistered",
      "outputs": [
        {
          "internalType": "bool",
          "name": "",
          "type": "bool"
        }
      ],
      "stateMutability": "view",
      "type": "function"
    },
    {
      "inputs": [
        {
          "internalType": "uint256",
          "name": "utxo",
          "type": "uint256"
        },
        {
          "internalType": "address",
          "name": "delegate",
          "type": "address"
        }
      ],
      "name": "locked",
      "outputs": [
        {
          "internalType": "bool",
          "name": "",
          "type": "bool"
        },
        {
          "internalType": "address",
          "name": "",
          "type": "address"
        }
      ],
      "stateMutability": "view",
      "type": "function"
    },
    {
      "inputs": [
        {
          "internalType": "uint256[]",
          "name": "utxos",
          "type": "uint256[]"
        },
        {
          "internalType": "bytes",
          "name": "data",
          "type": "bytes"
        }
      ],
      "name": "mint",
      "outputs": [],
      "stateMutability": "nonpayable",
      "type": "function"
    },
    {
      "inputs": [],
      "name": "name",
      "outputs": [
        {
          "internalType": "string",
          "name": "",
          "type": "string"
        }
      ],
      "stateMutability": "view",
      "type": "function"
    },
    {
      "inputs": [],
      "name": "owner",
      "outputs": [
        {
          "internalType": "address",
          "name": "",
          "type": "address"
        }
      ],
      "stateMutability": "view",
      "type": "function"
    },
    {
      "inputs": [],
      "name": "proxiableUUID",
      "outputs": [
        {
          "internalType": "bytes32",
          "name": "",
          "type": "bytes32"
        }
      ],
      "stateMutability": "view",
      "type": "function"
    },
    {
      "inputs": [
        {
          "internalType": "uint256[2]",
          "name": "publicKey",
          "type": "uint256[2]"
        },
        {
          "internalType": "bytes",
          "name": "data",
          "type": "bytes"
        }
      ],
      "name": "register",
      "outputs": [],
      "stateMutability": "nonpayable",
      "type": "function"
    },
    {
      "inputs": [],
      "name": "renounceOwnership",
      "outputs": [],
      "stateMutability": "nonpayable",
      "type": "function"
    },
    {
      "inputs": [
        {
          "internalType": "contract IERC20",
          "name": "erc20",
          "type": "address"
        }
      ],
      "name": "setERC20",
      "outputs": [],
      "stateMutability": "nonpayable",
      "type": "function"
    },
    {
      "inputs": [],
      "name": "symbol",
      "outputs": [
        {
          "internalType": "string",
          "name": "",
          "type": "string"
        }
      ],
      "stateMutability": "view",
      "type": "function"
    },
    {
      "inputs": [
        {
          "internalType": "uint256[]",
          "name": "nullifiers",
          "type": "uint256[]"
        },
        {
          "internalType": "uint256[]",
          "name": "outputs",
          "type": "uint256[]"
        },
        {
          "internalType": "uint256",
          "name": "root",
          "type": "uint256"
        },
        {
          "internalType": "uint256",
          "name": "encryptionNonce",
          "type": "uint256"
        },
        {
          "internalType": "uint256[2]",
          "name": "ecdhPublicKey",
          "type": "uint256[2]"
        },
        {
          "internalType": "uint256[]",
          "name": "encryptedValues",
          "type": "uint256[]"
        },
        {
          "components": [
            {
              "internalType": "uint256[2]",
              "name": "pA",
              "type": "uint256[2]"
            },
            {
              "internalType": "uint256[2][2]",
              "name": "pB",
              "type": "uint256[2][2]"
            },
            {
              "internalType": "uint256[2]",
              "name": "pC",
              "type": "uint256[2]"
            }
          ],
          "internalType": "struct Commonlib.Proof",
          "name": "proof",
          "type": "tuple"
        },
        {
          "internalType": "bytes",
          "name": "data",
          "type": "bytes"
        }
      ],
      "name": "transfer",
      "outputs": [
        {
          "internalType": "bool",
          "name": "",
          "type": "bool"
        }
      ],
      "stateMutability": "nonpayable",
      "type": "function"
    },
    {
      "inputs": [
        {
          "internalType": "address",
          "name": "newOwner",
          "type": "address"
        }
      ],
      "name": "transferOwnership",
      "outputs": [],
      "stateMutability": "nonpayable",
      "type": "function"
    },
    {
      "inputs": [
        {
          "internalType": "address",
          "name": "newImplementation",
          "type": "address"
        },
        {
          "internalType": "bytes",
          "name": "data",
          "type": "bytes"
        }
      ],
      "name": "upgradeToAndCall",
      "outputs": [],
      "stateMutability": "payable",
      "type": "function"
    },
    {
      "inputs": [
        {
          "internalType": "uint256",
          "name": "amount",
          "type": "uint256"
        },
        {
          "internalType": "uint256[]",
          "name": "nullifiers",
          "type": "uint256[]"
        },
        {
          "internalType": "uint256",
          "name": "output",
          "type": "uint256"
        },
        {
          "internalType": "uint256",
          "name": "root",
          "type": "uint256"
        },
        {
          "components": [
            {
              "internalType": "uint256[2]",
              "name": "pA",
              "type": "uint256[2]"
            },
            {
              "internalType": "uint256[2][2]",
              "name": "pB",
              "type": "uint256[2][2]"
            },
            {
              "internalType": "uint256[2]",
              "name": "pC",
              "type": "uint256[2]"
            }
          ],
          "internalType": "struct Commonlib.Proof",
          "name": "proof",
          "type": "tuple"
        },
        {
          "internalType": "bytes",
          "name": "data",
          "type": "bytes"
        }
      ],
      "name": "withdraw",
      "outputs": [],
      "stateMutability": "nonpayable",
      "type": "function"
    }
  ],
  "bytecode": "0x60a060405230608052348015601357600080fd5b5060805161426f61003d60003960008181611a9d01528181611ac60152611c44015261426f6000f3fe6080604052600436106101a15760003560e01c806395d89b41116100e1578063c29a6fda1161008a578063e585775211610064578063e5857752146104c5578063f2fde38b146104e5578063f586acdb14610505578063f7e648d31461052557600080fd5b8063c29a6fda14610465578063cd523c7314610485578063da805f11146104a557600080fd5b8063a4ef9ad1116100bb578063a4ef9ad1146103dc578063a576b537146103fc578063ad3cb1cc1461041c57600080fd5b806395d89b41146103875780639e2a71941461039c5780639fcc50af146103bc57600080fd5b80634f1ef2861161014e57806366eded991161012857806366eded99146102eb578063715018a61461030b5780638bb2513b146103205780638da5cb5b1461034057600080fd5b80634f1ef286146102ac57806352d1902d146102c15780635ca1e165146102d657600080fd5b806324ef458a1161017f57806324ef458a1461022e5780632e6ea9941461026d578063313ce5671461029057600080fd5b806306fdde03146101a6578063092a18bc146101d157806324ce729e14610201575b600080fd5b3480156101b257600080fd5b506101bb61053a565b6040516101c891906132ac565b60405180910390f35b3480156101dd57600080fd5b506101f16101ec3660046133c0565b6105cc565b60405190151581526020016101c8565b34801561020d57600080fd5b5061022161021c36600461346d565b61067b565b6040516101c891906134de565b34801561023a57600080fd5b5061024e610249366004613506565b6106ee565b6040805192151583526001600160a01b039091166020830152016101c8565b34801561027957600080fd5b50610282610707565b6040519081526020016101c8565b34801561029c57600080fd5b50604051600481526020016101c8565b6102bf6102ba366004613592565b610784565b005b3480156102cd57600080fd5b506102826107a3565b3480156102e257600080fd5b506102826107d2565b3480156102f757600080fd5b506102bf610306366004613651565b61080d565b34801561031757600080fd5b506102bf610909565b34801561032c57600080fd5b506102bf61033b3660046136f1565b61091d565b34801561034c57600080fd5b507f9016d09d72d40fdae2fd8ceac6b6234c7706214fd39c1cd1e609a0528c199300546040516001600160a01b0390911681526020016101c8565b34801561039357600080fd5b506101bb610935565b3480156103a857600080fd5b506102bf6103b736600461375f565b610944565b3480156103c857600080fd5b506102bf6103d73660046137cc565b610cda565b3480156103e857600080fd5b506102bf6103f73660046137e9565b610d04565b34801561040857600080fd5b506101f1610417366004613867565b610f40565b34801561042857600080fd5b506101bb6040518060400160405280600581526020017f352e302e3000000000000000000000000000000000000000000000000000000081525081565b34801561047157600080fd5b506102bf6104803660046137cc565b6112fe565b34801561049157600080fd5b506102bf6104a0366004613968565b611328565b3480156104b157600080fd5b506102bf6104c03660046139f5565b61133e565b3480156104d157600080fd5b506102bf6104e0366004613a4e565b611568565b3480156104f157600080fd5b506102bf6105003660046137cc565b61157b565b34801561051157600080fd5b506102bf610520366004613aa9565b6115d2565b34801561053157600080fd5b506102826117b1565b60606000805461054990613b41565b80601f016020809104026020016040519081016040528092919081815260200182805461057590613b41565b80156105c25780601f10610597576101008083540402835291602001916105c2565b820191906000526020600020905b8154815290600101906020018083116105a557829003601f168201915b5050505050905090565b6000806105d8836117ec565b6040516370b867b760e11b8152606b60048201526024810182905290915060009073__$dc6c4dd02ac6da041aea5ed0aea43c2a22$__9063e170cf6e906044015b60a060405180830381865af4158015610636573d6000803e3d6000fd5b505050506040513d601f19601f8201168201806040525081019061065a9190613b75565b905060008151600281111561067157610671613bf5565b1415949350505050565b8051606090600a8111156106c3576040517f9ebbc98e000000000000000000000000000000000000000000000000000000008152600a60048201526024015b60405180910390fd5b600060028211156106d65750600a6106da565b5060025b6106e6848260006118fc565b949350505050565b6000806106fb84846119dc565b915091505b9250929050565b6040516379f9712560e01b8152606b600482015260009073__$dc6c4dd02ac6da041aea5ed0aea43c2a22$__906379f97125906024015b602060405180830381865af415801561075b573d6000803e3d6000fd5b505050506040513d601f19601f8201168201806040525081019061077f9190613c0b565b905090565b61078c611a92565b61079582611b49565b61079f8282611b51565b5050565b60006107ad611c39565b507f360894a13ba1a3210667c828492db98dca3e2076cc3735a920a3ca505d382bbc90565b6040516379f9712560e01b81526002600482015260009073__$dc6c4dd02ac6da041aea5ed0aea43c2a22$__906379f971259060240161073e565b6000865167ffffffffffffffff811115610829576108296132df565b604051908082528060200260200182016040528015610852578160200160208202803683370190505b509050858160008151811061086957610869613c24565b60200260200101818152505061087e8761067b565b96506108898161067b565b90506108988782876000611c82565b506108a68888888888610944565b60606108b58883836000611cae565b336001600160a01b03167f7d8a8f009bcd9cd0dc27e36fe37cc7cfe2bbd1469c0970d31046d3c12ec7f48c8a8a8a88886040516108f6959493929190613c63565b60405180910390a2505050505050505050565b610911611cca565b61091b6000611d3e565b565b610925611cca565b610930838383611daf565b505050565b60606001805461054990613b41565b600284511115610ac55760178451111561098d576040517f71798fb5000000000000000000000000000000000000000000000000000000008152601760048201526024016106ba565b600061099d868686866017611e0c565b90506109a76131ef565b60005b60178110156109ec578281815181106109c5576109c5613c24565b60200260200101518282601781106109df576109df613c24565b60200201526001016109aa565b50606a54604080517fa0c2a19a0000000000000000000000000000000000000000000000000000000081526001600160a01b039092169163a0c2a19a91610a4191879182019060c08301908790600401613cc6565b602060405180830381865afa158015610a5e573d6000803e3d6000fd5b505050506040513d601f19601f82011682018060405250810190610a829190613d2e565b610abe5760405162461bcd60e51b815260206004820152600d60248201526c24b73b30b634b210383937b7b360991b60448201526064016106ba565b5050610bf9565b6000610ad5868686866007611e0c565b9050610adf61320e565b60005b6007811015610b2457828181518110610afd57610afd613c24565b6020026020010151828260078110610b1757610b17613c24565b6020020152600101610ae2565b50606954604080517fc894e7570000000000000000000000000000000000000000000000000000000081526001600160a01b039092169163c894e75791610b7991879182019060c08301908790600401613d49565b602060405180830381865afa158015610b96573d6000803e3d6000fd5b505050506040513d601f19601f82011682018060405250810190610bba9190613d2e565b610bf65760405162461bcd60e51b815260206004820152600d60248201526c24b73b30b634b210383937b7b360991b60448201526064016106ba565b50505b6068546040517fa9059cbb000000000000000000000000000000000000000000000000000000008152336004820152602481018790526001600160a01b039091169063a9059cbb906044016020604051808303816000875af1158015610c63573d6000803e3d6000fd5b505050506040513d601f19601f82011682018060405250810190610c879190613d2e565b610cd35760405162461bcd60e51b815260206004820152601f60248201527f4661696c656420746f207472616e7366657220455243323020746f6b656e730060448201526064016106ba565b5050505050565b610ce2611fa0565b606780546001600160a01b0319166001600160a01b0392909216919091179055565b60005b8451811015610eea57848181518110610d2257610d22613c24565b602002602001015160000315610ee257600080610d58878481518110610d4a57610d4a613c24565b6020026020010151336119dc565b909250905081610db157868381518110610d7457610d74613c24565b60200260200101516040517fe41859a60000000000000000000000000000000000000000000000000000000081526004016106ba91815260200190565b6001600160a01b0381163314610e2957868381518110610dd357610dd3613c24565b60209081029190910101516040517f9fec262f00000000000000000000000000000000000000000000000000000000815260048101919091526001600160a01b03871660248201523360448201526064016106ba565b603473__$dc6c4dd02ac6da041aea5ed0aea43c2a22$__63c1d29f019091898681518110610e5957610e59613c24565b60209081029190910101516040517fffffffff0000000000000000000000000000000000000000000000000000000060e085901b168152600481019290925260248201526001600160a01b038916604482015260640160006040518083038186803b158015610ec757600080fd5b505af4158015610edb573d6000803e3d6000fd5b5050505050505b600101610d07565b50826001600160a01b0316336001600160a01b03167fb81fc4239cf1f8a9964a337bb7866ffeb712f9e482d9cef0f5fac9fe3bd655b2868585604051610f3293929190613d90565b60405180910390a350505050565b6000610f4b8a61067b565b9950610f568961067b565b9850610f658a8a8a6000611c82565b5060028a511180610f77575060028951115b156110c6576000610f8e8b8b8b8b8b8b604b612007565b9050610f9861322c565b60005b604b811015610fdd57828181518110610fb657610fb6613c24565b60200260200101518282604b8110610fd057610fd0613c24565b6020020152600101610f9b565b50609e54604080517ff49c1ff40000000000000000000000000000000000000000000000000000000081526001600160a01b039092169163f49c1ff491611032918a9182019060c08301908790600401613dc0565b602060405180830381865afa15801561104f573d6000803e3d6000fd5b505050506040513d601f19601f820116820180604052508101906110739190613d2e565b6110bf5760405162461bcd60e51b815260206004820152601560248201527f496e76616c69642070726f6f662028626174636829000000000000000000000060448201526064016106ba565b50506111fc565b60006110d88b8b8b8b8b8b6013612007565b90506110e261324b565b60005b60138110156111275782818151811061110057611100613c24565b602002602001015182826013811061111a5761111a613c24565b60200201526001016110e5565b50609d54604080517ff3f22e720000000000000000000000000000000000000000000000000000000081526001600160a01b039092169163f3f22e729161117c918a9182019060c08301908790600401613e07565b602060405180830381865afa158015611199573d6000803e3d6000fd5b505050506040513d601f19601f820116820180604052508101906111bd9190613d2e565b6111f95760405162461bcd60e51b815260206004820152600d60248201526c24b73b30b634b210383937b7b360991b60448201526064016106ba565b50505b606061120b8b8b836000611cae565b6000865167ffffffffffffffff811115611227576112276132df565b604051908082528060200260200182016040528015611250578160200160208202803683370190505b50905060005b875181101561129e5787818151811061127157611271613c24565b602002602001015182828151811061128b5761128b613c24565b6020908102919091010152600101611256565b50336001600160a01b03167f18fd5042f65c100c3eb616143f0e3d2d83f7efe63df2a868b19f0b823c08a21b8d8d8c8c868b8b6040516112e49796959493929190613e71565b60405180910390a25060019b9a5050505050505050505050565b611306611cca565b606880546001600160a01b0319166001600160a01b0392909216919091179055565b61133385858561133e565b610cd3848383611daf565b61134661326a565b8381528251839060009061135c5761135c613c24565b60200260200101518160016003811061137757611377613c24565b602002015282518390600190811061139157611391613c24565b6020026020010151816002600381106113ac576113ac613c24565b6020020152606754604080517f11479fea0000000000000000000000000000000000000000000000000000000081526001600160a01b03909216916311479fea9161140591869182019060c08301908790600401613ee0565b602060405180830381865afa158015611422573d6000803e3d6000fd5b505050506040513d601f19601f820116820180604052508101906114469190613d2e565b6114825760405162461bcd60e51b815260206004820152600d60248201526c24b73b30b634b210383937b7b360991b60448201526064016106ba565b6068546040517f23b872dd000000000000000000000000000000000000000000000000000000008152336004820152306024820152604481018690526001600160a01b03909116906323b872dd906064016020604051808303816000875af11580156114f2573d6000803e3d6000fd5b505050506040513d601f19601f820116820180604052508101906115169190613d2e565b6115625760405162461bcd60e51b815260206004820152601f60248201527f4661696c656420746f207472616e7366657220455243323020746f6b656e730060448201526064016106ba565b50505050565b611570611cca565b6109308383836122a7565b611583611cca565b6001600160a01b0381166115c6576040517f1e4fbdf7000000000000000000000000000000000000000000000000000000008152600060048201526024016106ba565b6115cf81611d3e565b50565b7ff0c57e16840df040f15088dc2f81fe391c3923bec73e23a9662efc9c229c6a00805468010000000000000000810460ff16159067ffffffffffffffff1660008115801561161d5750825b905060008267ffffffffffffffff16600114801561163a5750303b155b905081158015611648575080155b1561167f576040517ff92ee8a900000000000000000000000000000000000000000000000000000000815260040160405180910390fd5b845467ffffffffffffffff1916600117855583156116b357845468ff00000000000000001916680100000000000000001785555b6116bb61244f565b6116c68989896124bf565b6116fe6116d960408801602089016137cc565b6116e96060890160408a016137cc565b6116f960e08a0160c08b016137cc565b6125af565b61170b60208701876137cc565b609d80546001600160a01b0319166001600160a01b039290921691909117905561173b60c0870160a088016137cc565b609e80546001600160a01b0319166001600160a01b039290921691909117905583156117a657845468ff000000000000000019168555604051600181527fc7f505b2f371ae2175ee4913f4499e1f2633a7b5936321eed1cdaeb6115181d29060200160405180910390a15b505050505050505050565b6040516379f9712560e01b81526034600482015260009073__$dc6c4dd02ac6da041aea5ed0aea43c2a22$__906379f971259060240161073e565b60008073__$ebe82a1924a894141c89e6680d3cbc7e88$__6329a5f2f6846040518263ffffffff1660e01b81526004016118269190613f27565b602060405180830381865af4158015611843573d6000803e3d6000fd5b505050506040513d601f19601f820116820180604052508101906118679190613c0b565b604080516060810182528281526020810183905260018183015290516304b98e1d60e31b81529192509073__$03320550cd1b629da90608251571b2532e$__906325cc70e8906118bb908490600401613f58565b602060405180830381865af41580156118d8573d6000803e3d6000fd5b505050506040513d601f19601f820116820180604052508101906106e69190613c0b565b60608284510361190d5750826119d5565b60008367ffffffffffffffff811115611928576119286132df565b604051908082528060200260200182016040528015611951578160200160208202803683370190505b50905060005b855181101561199f5785818151811061197257611972613c24565b602002602001015182828151811061198c5761198c613c24565b6020908102919091010152600101611957565b5084515b848110156119d157838282815181106119be576119be613c24565b60209081029190910101526001016119a3565b5090505b9392505050565b604051632eda066d60e11b815260346004820152602481018390526000908190819073__$dc6c4dd02ac6da041aea5ed0aea43c2a22$__90635db40cda90604401600060405180830381865af4158015611a3a573d6000803e3d6000fd5b505050506040513d6000823e601f3d908101601f19168201604052611a629190810190613fde565b905080602001518015611a815750836001600160a01b03168160800151145b816080015192509250509250929050565b306001600160a01b037f0000000000000000000000000000000000000000000000000000000000000000161480611b2b57507f00000000000000000000000000000000000000000000000000000000000000006001600160a01b0316611b1f7f360894a13ba1a3210667c828492db98dca3e2076cc3735a920a3ca505d382bbc546001600160a01b031690565b6001600160a01b031614155b1561091b5760405163703e46dd60e11b815260040160405180910390fd5b6115cf611cca565b816001600160a01b03166352d1902d6040518163ffffffff1660e01b8152600401602060405180830381865afa925050508015611bab575060408051601f3d908101601f19168201909252611ba891810190613c0b565b60015b611bd357604051634c9c8ce360e01b81526001600160a01b03831660048201526024016106ba565b7f360894a13ba1a3210667c828492db98dca3e2076cc3735a920a3ca505d382bbc8114611c2f576040517faa1d49a4000000000000000000000000000000000000000000000000000000008152600481018290526024016106ba565b61093083836125ef565b306001600160a01b037f0000000000000000000000000000000000000000000000000000000000000000161461091b5760405163703e46dd60e11b815260040160405180910390fd5b6000611c8d85612645565b50611c97846127bb565b50611ca283836128de565b50600195945050505050565b611cb784612a37565b611cc083612ab2565b6115628282612b99565b33611cfc7f9016d09d72d40fdae2fd8ceac6b6234c7706214fd39c1cd1e609a0528c199300546001600160a01b031690565b6001600160a01b03161461091b576040517f118cdaa70000000000000000000000000000000000000000000000000000000081523360048201526024016106ba565b7f9016d09d72d40fdae2fd8ceac6b6234c7706214fd39c1cd1e609a0528c19930080546001600160a01b031981166001600160a01b03848116918217845560405192169182907f8be0079c531659141344cd1fd0a4f28419497f9722a3daafe3b4186f6b6457e090600090a3505050565b611db8836127bb565b50611dc283612ab2565b336001600160a01b03167f7ff08e0ca1fce6b202b83128811e4f6ceda54930aa074cd365bf68f95c20ce19848484604051611dff93929190613d90565b60405180910390a2505050565b60608167ffffffffffffffff811115611e2757611e276132df565b604051908082528060200260200182016040528015611e50578160200160208202803683370190505b5090506000868282611e61816140bc565b935081518110611e7357611e73613c24565b60200260200101818152505060005b8651811015611ed657868181518110611e9d57611e9d613c24565b6020026020010151838380611eb1906140bc565b945081518110611ec357611ec3613c24565b6020908102919091010152600101611e82565b50838282611ee3816140bc565b935081518110611ef557611ef5613c24565b60200260200101818152505060005b8651811015611f6b57868181518110611f1f57611f1f613c24565b6020026020010151600014611f35576001611f38565b60005b60ff168383611f46816140bc565b945081518110611f5857611f58613c24565b6020908102919091010152600101611f04565b50848282611f78816140bc565b935081518110611f8a57611f8a613c24565b6020026020010181815250505095945050505050565b7ff0c57e16840df040f15088dc2f81fe391c3923bec73e23a9662efc9c229c6a005468010000000000000000900460ff1661091b576040517fd7e6bcf800000000000000000000000000000000000000000000000000000000815260040160405180910390fd5b60608167ffffffffffffffff811115612022576120226132df565b60405190808252806020026020018201604052801561204b578160200160208202803683370190505b5090506000805b60028110156120a25785816002811061206d5761206d613c24565b6020020151838361207d816140bc565b94508151811061208f5761208f613c24565b6020908102919091010152600101612052565b5060005b84518110156120fa578481815181106120c1576120c1613c24565b60200260200101518383806120d5906140bc565b9450815181106120e7576120e7613c24565b60209081029190910101526001016120a6565b5060005b89518110156121525789818151811061211957612119613c24565b602002602001015183838061212d906140bc565b94508151811061213f5761213f613c24565b60209081029190910101526001016120fe565b5086828261215f816140bc565b93508151811061217157612171613c24565b60200260200101818152505060005b89518110156121e75789818151811061219b5761219b613c24565b60200260200101516000146121b15760016121b4565b60005b60ff1683836121c2816140bc565b9450815181106121d4576121d4613c24565b6020908102919091010152600101612180565b506121f0610707565b82826121fb816140bc565b93508151811061220d5761220d613c24565b60200260200101818152505060005b88518110156122705788818151811061223757612237613c24565b602002602001015183838061224b906140bc565b94508151811061225d5761225d613c24565b602090810291909101015260010161221c565b5085828261227d816140bc565b93508151811061228f5761228f613c24565b60200260200101818152505050979650505050505050565b60006122b284612c85565b6040516370b867b760e11b8152606b60048201526024810182905290915060009073__$dc6c4dd02ac6da041aea5ed0aea43c2a22$__9063e170cf6e9060440160a060405180830381865af415801561230f573d6000803e3d6000fd5b505050506040513d601f19601f820116820180604052508101906123339190613b75565b905060008151600281111561234a5761234a613bf5565b1461238357846040517f7d714ba90000000000000000000000000000000000000000000000000000000081526004016106ba91906140d5565b6040517fc1d29f01000000000000000000000000000000000000000000000000000000008152606b6004820152602481018390526044810183905273__$dc6c4dd02ac6da041aea5ed0aea43c2a22$__9063c1d29f019060640160006040518083038186803b1580156123f557600080fd5b505af4158015612409573d6000803e3d6000fd5b505050507faebf15bab705860574363b0634ea3f3f2caaf50b5d1482278079990cb7c19c0d858585604051612440939291906140e3565b60405180910390a15050505050565b612457611fa0565b60408051639e43b81360e01b8152606b6004820152602481019190915273__$dc6c4dd02ac6da041aea5ed0aea43c2a22$__90639e43b8139060440160006040518083038186803b1580156124ab57600080fd5b505af4158015611562573d6000803e3d6000fd5b6124c7611fa0565b6124d2838383612d19565b60408051639e43b81360e01b815260026004820152602481019190915273__$dc6c4dd02ac6da041aea5ed0aea43c2a22$__90639e43b8139060440160006040518083038186803b15801561252657600080fd5b505af415801561253a573d6000803e3d6000fd5b505060408051639e43b81360e01b815260346004820152602481019190915273__$dc6c4dd02ac6da041aea5ed0aea43c2a22$__9250639e43b813915060440160006040518083038186803b15801561259257600080fd5b505af41580156125a6573d6000803e3d6000fd5b50505050505050565b6125b7611fa0565b6125c083610cda565b606980546001600160a01b039384166001600160a01b031991821617909155606a805492909316911617905550565b6125f882612d43565b6040516001600160a01b038316907fbc7cd75a20ee27fd9adebab32041f755214dbc6bffa90cc0225b39da2e5c2d3b90600090a280511561263d576109308282612dba565b61079f612e30565b60008061265183612e68565b905060005b81518110156127b45781818151811061267157612671613c24565b6020026020010151600003156127ac576000811180156126cc575081612698600183614104565b815181106126a8576126a8613c24565b60200260200101518282815181106126c2576126c2613c24565b6020026020010151145b15612720578181815181106126e3576126e3613c24565b60200260200101516040517fdd5748310000000000000000000000000000000000000000000000000000000081526004016106ba91815260200190565b6066600083838151811061273657612736613c24565b60209081029190910181015182528101919091526040016000205460ff1615156001036127ac5781818151811061276f5761276f613c24565b60200260200101516040517f41a06d280000000000000000000000000000000000000000000000000000000081526004016106ba91815260200190565b600101612656565b5050919050565b6000806127c783612e68565b905060005b81518110156127b4578181815181106127e7576127e7613c24565b6020026020010151600003156128d65760008111801561284257508161280e600183614104565b8151811061281e5761281e613c24565b602002602001015182828151811061283857612838613c24565b6020026020010151145b15612859578181815181106126e3576126e3613c24565b600061287d83838151811061287057612870613c24565b6020026020010151612f07565b905080156128d45782828151811061289757612897613c24565b60200260200101516040517f79e1da470000000000000000000000000000000000000000000000000000000081526004016106ba91815260200190565b505b6001016127cc565b600081801561296557506040516324bd6c1b60e21b8152603460048201526024810184905273__$dc6c4dd02ac6da041aea5ed0aea43c2a22$__906392f5b06c90604401602060405180830381865af415801561293f573d6000803e3d6000fd5b505050506040513d601f19601f820116820180604052508101906129639190613d2e565b155b1561298657604051630959af5760e31b8152600481018490526024016106ba565b81158015612a0c57506040516324bd6c1b60e21b8152600260048201526024810184905273__$dc6c4dd02ac6da041aea5ed0aea43c2a22$__906392f5b06c90604401602060405180830381865af41580156129e6573d6000803e3d6000fd5b505050506040513d601f19601f82011682018060405250810190612a0a9190613d2e565b155b15612a2d57604051630959af5760e31b8152600481018490526024016106ba565b5060015b92915050565b60005b815181101561079f57818181518110612a5557612a55613c24565b6020026020010151600014612aaa57600160666000848481518110612a7c57612a7c613c24565b6020026020010151815260200190815260200160002060006101000a81548160ff0219169083151502179055505b600101612a3a565b60005b815181101561079f57818181518110612ad057612ad0613c24565b6020026020010151600014612b9157600273__$dc6c4dd02ac6da041aea5ed0aea43c2a22$__63c1d29f019091848481518110612b0f57612b0f613c24565b6020026020010151858581518110612b2957612b29613c24565b60200260200101516040518463ffffffff1660e01b8152600401612b60939291909283526020830191909152604082015260600190565b60006040518083038186803b158015612b7857600080fd5b505af4158015612b8c573d6000803e3d6000fd5b505050505b600101612ab5565b60005b825181101561093057828181518110612bb757612bb7613c24565b6020026020010151600014612c7d57603473__$dc6c4dd02ac6da041aea5ed0aea43c2a22$__63c1d29f019091858481518110612bf657612bf6613c24565b60209081029190910101516040517fffffffff0000000000000000000000000000000000000000000000000000000060e085901b168152600481019290925260248201526001600160a01b038516604482015260640160006040518083038186803b158015612c6457600080fd5b505af4158015612c78573d6000803e3d6000fd5b505050505b600101612b9c565b6040517f29a5f2f600000000000000000000000000000000000000000000000000000000815260009073__$ebe82a1924a894141c89e6680d3cbc7e88$__906329a5f2f690612cd8908590600401613f27565b602060405180830381865af4158015612cf5573d6000803e3d6000fd5b505050506040513d601f19601f82011682018060405250810190612a319190613c0b565b612d21611fa0565b612d2a81612f23565b6000612d36848261415e565b506001611562838261415e565b806001600160a01b03163b600003612d7957604051634c9c8ce360e01b81526001600160a01b03821660048201526024016106ba565b7f360894a13ba1a3210667c828492db98dca3e2076cc3735a920a3ca505d382bbc80546001600160a01b0319166001600160a01b0392909216919091179055565b6060600080846001600160a01b031684604051612dd7919061421d565b600060405180830381855af49150503d8060008114612e12576040519150601f19603f3d011682016040523d82523d6000602084013e612e17565b606091505b5091509150612e27858383612f34565b95945050505050565b341561091b576040517fb398979f00000000000000000000000000000000000000000000000000000000815260040160405180910390fd5b60606000825167ffffffffffffffff811115612e8657612e866132df565b604051908082528060200260200182016040528015612eaf578160200160208202803683370190505b50905060005b8351811015612efd57838181518110612ed057612ed0613c24565b6020026020010151828281518110612eea57612eea613c24565b6020908102919091010152600101612eb5565b506119d581612fa9565b600080612f1383612fbe565b905080612a31576119d583613010565b612f2b611fa0565b6115cf8161309f565b606082612f4957612f44826130a7565b6119d5565b8151158015612f6057506001600160a01b0384163b155b15612fa2576040517f9996b3150000000000000000000000000000000000000000000000000000000081526001600160a01b03851660048201526024016106ba565b50806119d5565b6060612fb7826130e96130ed565b5090919050565b600080612fcb8384613105565b6040516370b867b760e11b8152600260048201526024810182905290915060009073__$dc6c4dd02ac6da041aea5ed0aea43c2a22$__9063e170cf6e90604401610619565b604051632eda066d60e11b81526034600482015260248101829052600090819073__$dc6c4dd02ac6da041aea5ed0aea43c2a22$__90635db40cda90604401600060405180830381865af415801561306c573d6000803e3d6000fd5b505050506040513d6000823e601f3d908101601f191682016040526130949190810190613fde565b602001519392505050565b611583611fa0565b8051156130b75780518082602001fd5b6040517fd6bda27500000000000000000000000000000000000000000000000000000000815260040160405180910390fd5b1190565b6060612fb7602084016130ff85613159565b84613171565b604080516060810182528381526020810183905260018183015290516304b98e1d60e31b81526000919073__$03320550cd1b629da90608251571b2532e$__906325cc70e8906118bb908490600401613f58565b6000815160200261316a8360200190565b0192915050565b6040838303101561318157505050565b600061318b845190565b905083602081015b848110156131cd576131b06131a6825190565b848663ffffffff16565b156131c5576020919091018051825182528252905b602001613193565b5084518151865281526131e1858285613171565b610cd3816020018585613171565b604051806102e001604052806017906020820280368337509192915050565b6040518060e001604052806007906020820280368337509192915050565b604051806109600160405280604b906020820280368337509192915050565b6040518061026001604052806013906020820280368337509192915050565b60405180606001604052806003906020820280368337509192915050565b60005b838110156132a357818101518382015260200161328b565b50506000910152565b60208152600082518060208401526132cb816040850160208701613288565b601f01601f19169190910160400192915050565b634e487b7160e01b600052604160045260246000fd5b604051610100810167ffffffffffffffff81118282101715613319576133196132df565b60405290565b604051601f8201601f1916810167ffffffffffffffff81118282101715613348576133486132df565b604052919050565b600082601f83011261336157600080fd5b6040805190810167ffffffffffffffff81118282101715613384576133846132df565b806040525080604084018581111561339b57600080fd5b845b818110156133b557803583526020928301920161339d565b509195945050505050565b6000604082840312156133d257600080fd5b6119d58383613350565b600067ffffffffffffffff8211156133f6576133f66132df565b5060051b60200190565b600082601f83011261341157600080fd5b813561342461341f826133dc565b61331f565b8082825260208201915060208360051b86010192508583111561344657600080fd5b602085015b8381101561346357803583526020928301920161344b565b5095945050505050565b60006020828403121561347f57600080fd5b813567ffffffffffffffff81111561349657600080fd5b6106e684828501613400565b600081518084526020840193506020830160005b828110156134d45781518652602095860195909101906001016134b6565b5093949350505050565b6020815260006119d560208301846134a2565b6001600160a01b03811681146115cf57600080fd5b6000806040838503121561351957600080fd5b82359150602083013561352b816134f1565b809150509250929050565b60008067ffffffffffffffff841115613551576135516132df565b50601f8301601f19166020016135668161331f565b91505082815283838301111561357b57600080fd5b828260208301376000602084830101529392505050565b600080604083850312156135a557600080fd5b82356135b0816134f1565b9150602083013567ffffffffffffffff8111156135cc57600080fd5b8301601f810185136135dd57600080fd5b6135ec85823560208401613536565b9150509250929050565b6000610100828403121561360957600080fd5b50919050565b60008083601f84011261362157600080fd5b50813567ffffffffffffffff81111561363957600080fd5b60208301915083602082850101111561070057600080fd5b60008060008060008060006101a0888a03121561366d57600080fd5b87359650602088013567ffffffffffffffff81111561368b57600080fd5b6136978a828b01613400565b96505060408801359450606088013593506136b58960808a016135f6565b925061018088013567ffffffffffffffff8111156136d257600080fd5b6136de8a828b0161360f565b989b979a50959850939692959293505050565b60008060006040848603121561370657600080fd5b833567ffffffffffffffff81111561371d57600080fd5b61372986828701613400565b935050602084013567ffffffffffffffff81111561374657600080fd5b6137528682870161360f565b9497909650939450505050565b6000806000806000610180868803121561377857600080fd5b85359450602086013567ffffffffffffffff81111561379657600080fd5b6137a288828901613400565b94505060408601359250606086013591506137c087608088016135f6565b90509295509295909350565b6000602082840312156137de57600080fd5b81356119d5816134f1565b600080600080606085870312156137ff57600080fd5b843567ffffffffffffffff81111561381657600080fd5b61382287828801613400565b9450506020850135613833816134f1565b9250604085013567ffffffffffffffff81111561384f57600080fd5b61385b8782880161360f565b95989497509550505050565b60008060008060008060008060006102008a8c03121561388657600080fd5b893567ffffffffffffffff81111561389d57600080fd5b6138a98c828d01613400565b99505060208a013567ffffffffffffffff8111156138c657600080fd5b6138d28c828d01613400565b98505060408a0135965060608a013595506138f08b60808c01613350565b945060c08a013567ffffffffffffffff81111561390c57600080fd5b6139188c828d01613400565b9450506139288b60e08c016135f6565b92506101e08a013567ffffffffffffffff81111561394557600080fd5b6139518c828d0161360f565b915080935050809150509295985092959850929598565b6000806000806000610160868803121561398157600080fd5b85359450602086013567ffffffffffffffff81111561399f57600080fd5b6139ab88828901613400565b9450506139bb87604088016135f6565b925061014086013567ffffffffffffffff8111156139d857600080fd5b6139e48882890161360f565b969995985093965092949392505050565b60008060006101408486031215613a0b57600080fd5b83359250602084013567ffffffffffffffff811115613a2957600080fd5b613a3586828701613400565b925050613a4585604086016135f6565b90509250925092565b600080600060608486031215613a6357600080fd5b613a6d8585613350565b9250604084013567ffffffffffffffff81111561374657600080fd5b600082601f830112613a9a57600080fd5b6119d583833560208501613536565b600080600080848603610180811215613ac157600080fd5b853567ffffffffffffffff811115613ad857600080fd5b613ae488828901613a89565b955050602086013567ffffffffffffffff811115613b0157600080fd5b613b0d88828901613a89565b9450506040860135613b1e816134f1565b9250610120605f1982011215613b3357600080fd5b509295919450926060019150565b600181811c90821680613b5557607f821691505b60208210810361360957634e487b7160e01b600052602260045260246000fd5b600060a0828403128015613b8857600080fd5b5060405160009060a0810167ffffffffffffffff81118282101715613baf57613baf6132df565b604052835160038110613bc0578283fd5b815260208481015190820152604080850151908201526060808501519082015260809384015193810193909352509092915050565b634e487b7160e01b600052602160045260246000fd5b600060208284031215613c1d57600080fd5b5051919050565b634e487b7160e01b600052603260045260246000fd5b81835281816020850137506000828201602090810191909152601f909101601f19169091010190565b858152608060208201526000613c7c60808301876134a2565b8560408401528281036060840152613c95818587613c3a565b98975050505050505050565b8060005b60028110156115625760408285376040938401939190910190600101613ca5565b6103e081016040868337613cdd6040830186613ca1565b60408460c084013761010082018360005b6017811015613d0d578151835260209283019290910190600101613cee565b50505095945050505050565b80518015158114613d2957600080fd5b919050565b600060208284031215613d4057600080fd5b6119d582613d19565b6101e081016040868337613d606040830186613ca1565b60408460c084013761010082018360005b6007811015613d0d578151835260209283019290910190600101613d71565b604081526000613da360408301866134a2565b8281036020840152613db6818587613c3a565b9695505050505050565b610a6081016040868337613dd76040830186613ca1565b60408460c084013761010082018360005b604b811015613d0d578151835260209283019290910190600101613de8565b61036081016040868337613e1e6040830186613ca1565b60408460c084013761010082018360005b6013811015613d0d578151835260209283019290910190600101613e2f565b8060005b6002811015611562578151845260209384019390910190600101613e52565b60e081526000613e8460e083018a6134a2565b8281036020840152613e96818a6134a2565b9050876040840152613eab6060840188613e4e565b82810360a0840152613ebd81876134a2565b905082810360c0840152613ed2818587613c3a565b9a9950505050505050505050565b61016081016040868337613ef76040830186613ca1565b60408460c084013761010082018360005b6003811015613d0d578151835260209283019290910190600101613f08565b60408101818360005b6002811015613f4f578151835260209283019290910190600101613f30565b50505092915050565b60608101818360005b6003811015613f4f578151835260209283019290910190600101613f61565b600082601f830112613f9157600080fd5b8151613f9f61341f826133dc565b8082825260208201915060208360051b860101925085831115613fc157600080fd5b602085015b83811015613463578051835260209283019201613fc6565b600060208284031215613ff057600080fd5b815167ffffffffffffffff81111561400757600080fd5b8201610100818503121561401a57600080fd5b6140226132f5565b8151815261403260208301613d19565b6020820152604082015167ffffffffffffffff81111561405157600080fd5b61405d86828501613f80565b604083015250606082810151908201526080808301519082015261408360a08301613d19565b60a082015260c0828101519082015260e091820151918101919091529392505050565b634e487b7160e01b600052601160045260246000fd5b6000600182016140ce576140ce6140a6565b5060010190565b60408101612a318284613e4e565b6140ed8185613e4e565b606060408201526000612e27606083018486613c3a565b81810381811115612a3157612a316140a6565b601f82111561093057806000526020600020601f840160051c8101602085101561413e5750805b601f840160051c820191505b81811015610cd3576000815560010161414a565b815167ffffffffffffffff811115614178576141786132df565b61418c816141868454613b41565b84614117565b6020601f8211600181146141c057600083156141a85750848201515b600019600385901b1c1916600184901b178455610cd3565b600084815260208120601f198516915b828110156141f057878501518255602094850194600190920191016141d0565b508482101561420e5786840151600019600387901b60f8161c191681555b50505050600190811b01905550565b6000825161422f818460208701613288565b919091019291505056fea264697066735822122051812933d7981fec4da0a5709ad33fa343365baf56848ea98002d57810638f6464736f6c634300081b0033",
  "linkReferences": {
    "@iden3/contracts/lib/Poseidon.sol": {
      "PoseidonUnit2L": [
        {
          "length": 20,
          "start": 6190
        },
        {
          "length": 20,
          "start": 11501
        }
      ],
      "PoseidonUnit3L": [
        {
          "length": 20,
          "start": 6352
        },
        {
          "length": 20,
          "start": 12654
        }
      ]
    },
    "@iden3/contracts/lib/SmtLib.sol": {
      "SmtLib": [
        {
          "length": 20,
          "start": 1592
        },
        {
          "length": 20,
          "start": 1885
        },
        {
          "length": 20,
          "start": 2088
        },
        {
          "length": 20,
          "start": 3690
        },
        {
          "length": 20,
          "start": 6151
        },
        {
          "length": 20,
          "start": 6717
        },
        {
          "length": 20,
          "start": 8978
        },
        {
          "length": 20,
          "start": 9213
        },
        {
          "length": 20,
          "start": 9395
        },
        {
          "length": 20,
          "start": 9518
        },
        {
          "length": 20,
          "start": 9624
        },
        {
          "length": 20,
          "start": 10562
        },
        {
          "length": 20,
          "start": 10729
        },
        {
          "length": 20,
          "start": 11040
        },
        {
          "length": 20,
          "start": 11271
        },
        {
          "length": 20,
          "start": 12331
        },
        {
          "length": 20,
          "start": 12399
        }
      ]
    }
  },
  "deployedLinkReferences": {
    "@iden3/contracts/lib/Poseidon.sol": {
      "PoseidonUnit2L": [
        {
          "length": 20,
          "start": 6129
        },
        {
          "length": 20,
          "start": 11440
        }
      ],
      "PoseidonUnit3L": [
        {
          "length": 20,
          "start": 6291
        },
        {
          "length": 20,
          "start": 12593
        }
      ]
    },
    "@iden3/contracts/lib/SmtLib.sol": {
      "SmtLib": [
        {
          "length": 20,
          "start": 1531
        },
        {
          "length": 20,
          "start": 1824
        },
        {
          "length": 20,
          "start": 2027
        },
        {
          "length": 20,
          "start": 3629
        },
        {
          "length": 20,
          "start": 6090
        },
        {
          "length": 20,
          "start": 6656
        },
        {
          "length": 20,
          "start": 8917
        },
        {
          "length": 20,
          "start": 9152
        },
        {
          "length": 20,
          "start": 9334
        },
        {
          "length": 20,
          "start": 9457
        },
        {
          "length": 20,
          "start": 9563
        },
        {
          "length": 20,
          "start": 10501
        },
        {
          "length": 20,
          "start": 10668
        },
        {
          "length": 20,
          "start": 10979
        },
        {
          "length": 20,
          "start": 11210
        },
        {
          "length": 20,
          "start": 12270
        },
        {
          "length": 20,
          "start": 12338
        }
      ]
    }
  }
}