{
  "_format": "hh-sol-artifact-1",
  "contractName": "Zeto_AnonEncNullifier",
  "sourceName": "contracts/zeto_anon_enc_nullifier.sol",
  "abi": [
    {
      "inputs": [
        {
          "internalType": "address",
          "name": "target",
          "type": "address"
        }
      ],
      "name": "AddressEmptyCode",
      "type": "error"
    },
    {
      "inputs": [
        {
          "internalType": "address",
          "name": "implementation",
          "type": "address"
        }
      ],
      "name": "ERC1967InvalidImplementation",
      "type": "error"
    },
    {
      "inputs": [],
      "name": "ERC1967NonPayable",
      "type": "error"
    },
    {
      "inputs": [],
      "name": "FailedCall",
      "type": "error"
    },
    {
      "inputs": [],
      "name": "InvalidInitialization",
      "type": "error"
    },
    {
      "inputs": [],
      "name": "NotInitializing",
      "type": "error"
    },
    {
      "inputs": [
        {
          "internalType": "uint256",
          "name": "utxo",
          "type": "uint256"
        },
        {
          "internalType": "address",
          "name": "delegate",
          "type": "address"
        },
        {
          "internalType": "address",
          "name": "sender",
          "type": "address"
        }
      ],
      "name": "NotLockDelegate",
      "type": "error"
    },
    {
      "inputs": [
        {
          "internalType": "address",
          "name": "owner",
          "type": "address"
        }
      ],
      "name": "OwnableInvalidOwner",
      "type": "error"
    },
    {
      "inputs": [
        {
          "internalType": "address",
          "name": "account",
          "type": "address"
        }
      ],
      "name": "OwnableUnauthorizedAccount",
      "type": "error"
    },
    {
      "inputs": [
        {
          "internalType": "uint256",
          "name": "utxo",
          "type": "uint256"
        }
      ],
      "name": "UTXOAlreadyLocked",
      "type": "error"
    },
    {
      "inputs": [
        {
          "internalType": "uint256",
          "name": "utxo",
          "type": "uint256"
        }
      ],
      "name": "UTXOAlreadyOwned",
      "type": "error"
    },
    {
      "inputs": [
        {
          "internalType": "uint256",
          "name": "utxo",
          "type": "uint256"
        }
      ],
      "name": "UTXOAlreadySpent",
      "type": "error"
    },
    {
      "inputs": [
        {
          "internalType": "uint256",
          "name": "maxAllowed",
          "type": "uint256"
        }
      ],
      "name": "UTXOArrayTooLarge",
      "type": "error"
    },
    {
      "inputs": [
        {
          "internalType": "uint256",
          "name": "utxo",
          "type": "uint256"
        }
      ],
      "name": "UTXODuplicate",
      "type": "error"
    },
    {
      "inputs": [
        {
          "internalType": "uint256",
          "name": "utxo",
          "type": "uint256"
        }
      ],
      "name": "UTXONotLocked",
      "type": "error"
    },
    {
      "inputs": [
        {
          "internalType": "uint256",
          "name": "utxo",
          "type": "uint256"
        }
      ],
      "name": "UTXONotMinted",
      "type": "error"
    },
    {
      "inputs": [
        {
          "internalType": "uint256",
          "name": "root",
          "type": "uint256"
        }
      ],
      "name": "UTXORootNotFound",
      "type": "error"
    },
    {
      "inputs": [],
      "name": "UUPSUnauthorizedCallContext",
      "type": "error"
    },
    {
      "inputs": [
        {
          "internalType": "bytes32",
          "name": "slot",
          "type": "bytes32"
        }
      ],
      "name": "UUPSUnsupportedProxiableUUID",
      "type": "error"
    },
    {
      "inputs": [
        {
          "internalType": "uint256",
          "name": "maxAllowed",
          "type": "uint256"
        }
      ],
      "name": "WithdrawArrayTooLarge",
      "type": "error"
    },
    {
      "anonymous": false,
      "inputs": [
        {
          "indexed": false,
          "internalType": "uint64",
          "name": "version",
          "type": "uint64"
        }
      ],
      "name": "Initialized",
      "type": "event"
    },
    {
      "anonymous": false,
      "inputs": [
        {
          "indexed": false,
          "internalType": "uint256[]",
          "name": "lockedOutputs",
          "type": "uint256[]"
        },
        {
          "indexed": true,
          "internalType": "address",
          "name": "oldDelegate",
          "type": "address"
        },
        {
          "indexed": true,
          "internalType": "address",
          "name": "newDelegate",
          "type": "address"
        },
        {
          "indexed": false,
          "internalType": "bytes",
          "name": "data",
          "type": "bytes"
        }
      ],
      "name": "LockDelegateChanged",
      "type": "event"
    },
    {
      "anonymous": false,
      "inputs": [
        {
          "indexed": true,
          "internalType": "address",
          "name": "previousOwner",
          "type": "address"
        },
        {
          "indexed": true,
          "internalType": "address",
          "name": "newOwner",
          "type": "address"
        }
      ],
      "name": "OwnershipTransferred",
      "type": "event"
    },
    {
      "anonymous": false,
      "inputs": [
        {
          "indexed": false,
          "internalType": "uint256[]",
          "name": "inputs",
          "type": "uint256[]"
        },
        {
          "indexed": false,
          "internalType": "uint256",
          "name": "output",
          "type": "uint256"
        },
        {
          "indexed": true,
          "internalType": "address",
          "name": "submitter",
          "type": "address"
        },
        {
          "indexed": false,
          "internalType": "bytes",
          "name": "data",
          "type": "bytes"
        }
      ],
      "name": "UTXOBurn",
      "type": "event"
    },
    {
      "anonymous": false,
      "inputs": [
        {
          "indexed": false,
          "internalType": "uint256[]",
          "name": "outputs",
          "type": "uint256[]"
        },
        {
          "indexed": true,
          "internalType": "address",
          "name": "submitter",
          "type": "address"
        },
        {
          "indexed": false,
          "internalType": "bytes",
          "name": "data",
          "type": "bytes"
        }
      ],
      "name": "UTXOMint",
      "type": "event"
    },
    {
      "anonymous": false,
      "inputs": [
        {
          "indexed": false,
          "internalType": "uint256[]",
          "name": "inputs",
          "type": "uint256[]"
        },
        {
          "indexed": false,
          "internalType": "uint256[]",
          "name": "outputs",
          "type": "uint256[]"
        },
        {
          "indexed": true,
          "internalType": "address",
          "name": "submitter",
          "type": "address"
        },
        {
          "indexed": false,
          "internalType": "bytes",
          "name": "data",
          "type": "bytes"
        }
      ],
      "name": "UTXOTransfer",
      "type": "event"
    },
    {
      "anonymous": false,
      "inputs": [
        {
          "indexed": false,
          "internalType": "uint256[]",
          "name": "inputs",
          "type": "uint256[]"
        },
        {
          "indexed": false,
          "internalType": "uint256[]",
          "name": "outputs",
          "type": "uint256[]"
        },
        {
          "indexed": false,
          "internalType": "uint256",
          "name": "encryptionNonce",
          "type": "uint256"
        },
        {
          "indexed": false,
          "internalType": "uint256[2]",
          "name": "ecdhPublicKey",
          "type": "uint256[2]"
        },
        {
          "indexed": false,
          "internalType": "uint256[]",
          "name": "encryptedValues",
          "type": "uint256[]"
        },
        {
          "indexed": true,
          "internalType": "address",
          "name": "submitter",
          "type": "address"
        },
        {
          "indexed": false,
          "internalType": "bytes",
          "name": "data",
          "type": "bytes"
        }
      ],
      "name": "UTXOTransferWithEncryptedValues",
      "type": "event"
    },
    {
      "anonymous": false,
      "inputs": [
        {
          "indexed": false,
          "internalType": "uint256",
          "name": "amount",
          "type": "uint256"
        },
        {
          "indexed": false,
          "internalType": "uint256[]",
          "name": "inputs",
          "type": "uint256[]"
        },
        {
          "indexed": false,
          "internalType": "uint256",
          "name": "output",
          "type": "uint256"
        },
        {
          "indexed": true,
          "internalType": "address",
          "name": "submitter",
          "type": "address"
        },
        {
          "indexed": false,
          "internalType": "bytes",
          "name": "data",
          "type": "bytes"
        }
      ],
      "name": "UTXOWithdraw",
      "type": "event"
    },
    {
      "anonymous": false,
      "inputs": [
        {
          "indexed": false,
          "internalType": "uint256[]",
          "name": "inputs",
          "type": "uint256[]"
        },
        {
          "indexed": false,
          "internalType": "uint256[]",
          "name": "outputs",
          "type": "uint256[]"
        },
        {
          "indexed": false,
          "internalType": "uint256[]",
          "name": "lockedOutputs",
          "type": "uint256[]"
        },
        {
          "indexed": true,
          "internalType": "address",
          "name": "delegate",
          "type": "address"
        },
        {
          "indexed": true,
          "internalType": "address",
          "name": "submitter",
          "type": "address"
        },
        {
          "indexed": false,
          "internalType": "bytes",
          "name": "data",
          "type": "bytes"
        }
      ],
      "name": "UTXOsLocked",
      "type": "event"
    },
    {
      "anonymous": false,
      "inputs": [
        {
          "indexed": true,
          "internalType": "address",
          "name": "implementation",
          "type": "address"
        }
      ],
      "name": "Upgraded",
      "type": "event"
    },
    {
      "inputs": [],
      "name": "UPGRADE_INTERFACE_VERSION",
      "outputs": [
        {
          "internalType": "string",
          "name": "",
          "type": "string"
        }
      ],
      "stateMutability": "view",
      "type": "function"
    },
    {
      "inputs": [
        {
          "internalType": "contract Groth16Verifier_Deposit",
          "name": "depositVerifier",
          "type": "address"
        }
      ],
      "name": "__ZetoFungible_init",
      "outputs": [],
      "stateMutability": "nonpayable",
      "type": "function"
    },
    {
      "inputs": [
        {
          "internalType": "uint256",
          "name": "amount",
          "type": "uint256"
        },
        {
          "internalType": "uint256[]",
          "name": "outputs",
          "type": "uint256[]"
        },
        {
          "components": [
            {
              "internalType": "uint256[2]",
              "name": "pA",
              "type": "uint256[2]"
            },
            {
              "internalType": "uint256[2][2]",
              "name": "pB",
              "type": "uint256[2][2]"
            },
            {
              "internalType": "uint256[2]",
              "name": "pC",
              "type": "uint256[2]"
            }
          ],
          "internalType": "struct Commonlib.Proof",
          "name": "proof",
          "type": "tuple"
        }
      ],
      "name": "_deposit",
      "outputs": [],
      "stateMutability": "nonpayable",
      "type": "function"
    },
    {
      "inputs": [
        {
          "internalType": "uint256",
          "name": "amount",
          "type": "uint256"
        },
        {
          "internalType": "uint256[]",
          "name": "nullifiers",
          "type": "uint256[]"
        },
        {
          "internalType": "uint256",
          "name": "output",
          "type": "uint256"
        },
        {
          "internalType": "uint256",
          "name": "root",
          "type": "uint256"
        },
        {
          "components": [
            {
              "internalType": "uint256[2]",
              "name": "pA",
              "type": "uint256[2]"
            },
            {
              "internalType": "uint256[2][2]",
              "name": "pB",
              "type": "uint256[2][2]"
            },
            {
              "internalType": "uint256[2]",
              "name": "pC",
              "type": "uint256[2]"
            }
          ],
          "internalType": "struct Commonlib.Proof",
          "name": "proof",
          "type": "tuple"
        }
      ],
      "name": "_withdrawWithNullifiers",
      "outputs": [],
      "stateMutability": "nonpayable",
      "type": "function"
    },
    {
      "inputs": [
        {
          "internalType": "uint256[]",
          "name": "commitments",
          "type": "uint256[]"
        }
      ],
      "name": "checkAndPadCommitments",
      "outputs": [
        {
          "internalType": "uint256[]",
          "name": "",
          "type": "uint256[]"
        }
      ],
      "stateMutability": "pure",
      "type": "function"
    },
    {
      "inputs": [],
      "name": "decimals",
      "outputs": [
        {
          "internalType": "uint8",
          "name": "",
          "type": "uint8"
        }
      ],
      "stateMutability": "view",
      "type": "function"
    },
    {
      "inputs": [
        {
          "internalType": "uint256[]",
          "name": "utxos",
          "type": "uint256[]"
        },
        {
          "internalType": "address",
          "name": "delegate",
          "type": "address"
        },
        {
          "internalType": "bytes",
          "name": "data",
          "type": "bytes"
        }
      ],
      "name": "delegateLock",
      "outputs": [],
      "stateMutability": "nonpayable",
      "type": "function"
    },
    {
      "inputs": [
        {
          "internalType": "uint256",
          "name": "amount",
          "type": "uint256"
        },
        {
          "internalType": "uint256[]",
          "name": "outputs",
          "type": "uint256[]"
        },
        {
          "components": [
            {
              "internalType": "uint256[2]",
              "name": "pA",
              "type": "uint256[2]"
            },
            {
              "internalType": "uint256[2][2]",
              "name": "pB",
              "type": "uint256[2][2]"
            },
            {
              "internalType": "uint256[2]",
              "name": "pC",
              "type": "uint256[2]"
            }
          ],
          "internalType": "struct Commonlib.Proof",
          "name": "proof",
          "type": "tuple"
        },
        {
          "internalType": "bytes",
          "name": "data",
          "type": "bytes"
        }
      ],
      "name": "deposit",
      "outputs": [],
      "stateMutability": "nonpayable",
      "type": "function"
    },
    {
      "inputs": [],
      "name": "getRoot",
      "outputs": [
        {
          "internalType": "uint256",
          "name": "",
          "type": "uint256"
        }
      ],
      "stateMutability": "view",
      "type": "function"
    },
    {
      "inputs": [],
      "name": "getRootForLocked",
      "outputs": [
        {
          "internalType": "uint256",
          "name": "",
          "type": "uint256"
        }
      ],
      "stateMutability": "view",
      "type": "function"
    },
    {
      "inputs": [
        {
          "internalType": "string",
          "name": "name",
          "type": "string"
        },
        {
          "internalType": "string",
          "name": "symbol",
          "type": "string"
        },
        {
          "internalType": "address",
          "name": "initialOwner",
          "type": "address"
        },
        {
          "components": [
            {
              "internalType": "address",
              "name": "verifier",
              "type": "address"
            },
            {
              "internalType": "address",
              "name": "depositVerifier",
              "type": "address"
            },
            {
              "internalType": "address",
              "name": "withdrawVerifier",
              "type": "address"
            },
            {
              "internalType": "address",
              "name": "lockVerifier",
              "type": "address"
            },
            {
              "internalType": "address",
              "name": "burnVerifier",
              "type": "address"
            },
            {
              "internalType": "address",
              "name": "batchVerifier",
              "type": "address"
            },
            {
              "internalType": "address",
              "name": "batchWithdrawVerifier",
              "type": "address"
            },
            {
              "internalType": "address",
              "name": "batchLockVerifier",
              "type": "address"
            },
            {
              "internalType": "address",
              "name": "batchBurnVerifier",
              "type": "address"
            }
          ],
          "internalType": "struct IZetoInitializable.VerifiersInfo",
          "name": "verifiers",
          "type": "tuple"
        }
      ],
      "name": "initialize",
      "outputs": [],
      "stateMutability": "nonpayable",
      "type": "function"
    },
    {
      "inputs": [
        {
          "internalType": "uint256",
          "name": "utxo",
          "type": "uint256"
        },
        {
          "internalType": "address",
          "name": "delegate",
          "type": "address"
        }
      ],
      "name": "locked",
      "outputs": [
        {
          "internalType": "bool",
          "name": "",
          "type": "bool"
        },
        {
          "internalType": "address",
          "name": "",
          "type": "address"
        }
      ],
      "stateMutability": "view",
      "type": "function"
    },
    {
      "inputs": [
        {
          "internalType": "uint256[]",
          "name": "utxos",
          "type": "uint256[]"
        },
        {
          "internalType": "bytes",
          "name": "data",
          "type": "bytes"
        }
      ],
      "name": "mint",
      "outputs": [],
      "stateMutability": "nonpayable",
      "type": "function"
    },
    {
      "inputs": [],
      "name": "name",
      "outputs": [
        {
          "internalType": "string",
          "name": "",
          "type": "string"
        }
      ],
      "stateMutability": "view",
      "type": "function"
    },
    {
      "inputs": [],
      "name": "owner",
      "outputs": [
        {
          "internalType": "address",
          "name": "",
          "type": "address"
        }
      ],
      "stateMutability": "view",
      "type": "function"
    },
    {
      "inputs": [],
      "name": "proxiableUUID",
      "outputs": [
        {
          "internalType": "bytes32",
          "name": "",
          "type": "bytes32"
        }
      ],
      "stateMutability": "view",
      "type": "function"
    },
    {
      "inputs": [],
      "name": "renounceOwnership",
      "outputs": [],
      "stateMutability": "nonpayable",
      "type": "function"
    },
    {
      "inputs": [
        {
          "internalType": "contract IERC20",
          "name": "erc20",
          "type": "address"
        }
      ],
      "name": "setERC20",
      "outputs": [],
      "stateMutability": "nonpayable",
      "type": "function"
    },
    {
      "inputs": [],
      "name": "symbol",
      "outputs": [
        {
          "internalType": "string",
          "name": "",
          "type": "string"
        }
      ],
      "stateMutability": "view",
      "type": "function"
    },
    {
      "inputs": [
        {
          "internalType": "uint256[]",
          "name": "nullifiers",
          "type": "uint256[]"
        },
        {
          "internalType": "uint256[]",
          "name": "outputs",
          "type": "uint256[]"
        },
        {
          "internalType": "uint256",
          "name": "root",
          "type": "uint256"
        },
        {
          "internalType": "uint256",
          "name": "encryptionNonce",
          "type": "uint256"
        },
        {
          "internalType": "uint256[2]",
          "name": "ecdhPublicKey",
          "type": "uint256[2]"
        },
        {
          "internalType": "uint256[]",
          "name": "encryptedValues",
          "type": "uint256[]"
        },
        {
          "components": [
            {
              "internalType": "uint256[2]",
              "name": "pA",
              "type": "uint256[2]"
            },
            {
              "internalType": "uint256[2][2]",
              "name": "pB",
              "type": "uint256[2][2]"
            },
            {
              "internalType": "uint256[2]",
              "name": "pC",
              "type": "uint256[2]"
            }
          ],
          "internalType": "struct Commonlib.Proof",
          "name": "proof",
          "type": "tuple"
        },
        {
          "internalType": "bytes",
          "name": "data",
          "type": "bytes"
        }
      ],
      "name": "transfer",
      "outputs": [
        {
          "internalType": "bool",
          "name": "",
          "type": "bool"
        }
      ],
      "stateMutability": "nonpayable",
      "type": "function"
    },
    {
      "inputs": [
        {
          "internalType": "address",
          "name": "newOwner",
          "type": "address"
        }
      ],
      "name": "transferOwnership",
      "outputs": [],
      "stateMutability": "nonpayable",
      "type": "function"
    },
    {
      "inputs": [
        {
          "internalType": "address",
          "name": "newImplementation",
          "type": "address"
        },
        {
          "internalType": "bytes",
          "name": "data",
          "type": "bytes"
        }
      ],
      "name": "upgradeToAndCall",
      "outputs": [],
      "stateMutability": "payable",
      "type": "function"
    },
    {
      "inputs": [
        {
          "internalType": "uint256",
          "name": "amount",
          "type": "uint256"
        },
        {
          "internalType": "uint256[]",
          "name": "nullifiers",
          "type": "uint256[]"
        },
        {
          "internalType": "uint256",
          "name": "output",
          "type": "uint256"
        },
        {
          "internalType": "uint256",
          "name": "root",
          "type": "uint256"
        },
        {
          "components": [
            {
              "internalType": "uint256[2]",
              "name": "pA",
              "type": "uint256[2]"
            },
            {
              "internalType": "uint256[2][2]",
              "name": "pB",
              "type": "uint256[2][2]"
            },
            {
              "internalType": "uint256[2]",
              "name": "pC",
              "type": "uint256[2]"
            }
          ],
          "internalType": "struct Commonlib.Proof",
          "name": "proof",
          "type": "tuple"
        },
        {
          "internalType": "bytes",
          "name": "data",
          "type": "bytes"
        }
      ],
      "name": "withdraw",
      "outputs": [],
      "stateMutability": "nonpayable",
      "type": "function"
    }
  ],
  "bytecode": "0x60a060405230608052348015601357600080fd5b50608051613d2361003d600039600081816118120152818161183b01526119b90152613d236000f3fe6080604052600436106101805760003560e01c806395d89b41116100d6578063c29a6fda1161007f578063f2fde38b11610059578063f2fde38b1461046f578063f586acdb1461048f578063f7e648d3146104af57600080fd5b8063c29a6fda1461040f578063cd523c731461042f578063da805f111461044f57600080fd5b8063a4ef9ad1116100b0578063a4ef9ad114610376578063a576b53714610396578063ad3cb1cc146103c657600080fd5b806395d89b41146103215780639e2a7194146103365780639fcc50af1461035657600080fd5b806352d1902d11610138578063715018a611610112578063715018a6146102a55780638bb2513b146102ba5780638da5cb5b146102da57600080fd5b806352d1902d1461024d5780635ca1e1651461027057806366eded991461028557600080fd5b806324ef458a1161016957806324ef458a146101dd578063313ce5671461021c5780634f1ef2861461023857600080fd5b806306fdde031461018557806324ce729e146101b0575b600080fd5b34801561019157600080fd5b5061019a6104c4565b6040516101a79190612e14565b60405180910390f35b3480156101bc57600080fd5b506101d06101cb366004612f49565b610556565b6040516101a79190612fba565b3480156101e957600080fd5b506101fd6101f8366004612fe2565b6105c9565b6040805192151583526001600160a01b039091166020830152016101a7565b34801561022857600080fd5b50604051600481526020016101a7565b61024b61024636600461306e565b6105e2565b005b34801561025957600080fd5b50610262610601565b6040519081526020016101a7565b34801561027c57600080fd5b50610262610630565b34801561029157600080fd5b5061024b6102a036600461312d565b6106ad565b3480156102b157600080fd5b5061024b6107a9565b3480156102c657600080fd5b5061024b6102d53660046131cd565b6107bd565b3480156102e657600080fd5b507f9016d09d72d40fdae2fd8ceac6b6234c7706214fd39c1cd1e609a0528c199300546040516001600160a01b0390911681526020016101a7565b34801561032d57600080fd5b5061019a6107d5565b34801561034257600080fd5b5061024b61035136600461323b565b6107e4565b34801561036257600080fd5b5061024b6103713660046132a8565b610b7a565b34801561038257600080fd5b5061024b6103913660046132c5565b610ba4565b3480156103a257600080fd5b506103b66103b13660046133b3565b610de0565b60405190151581526020016101a7565b3480156103d257600080fd5b5061019a6040518060400160405280600581526020017f352e302e3000000000000000000000000000000000000000000000000000000081525081565b34801561041b57600080fd5b5061024b61042a3660046132a8565b61119e565b34801561043b57600080fd5b5061024b61044a3660046134b4565b6111c8565b34801561045b57600080fd5b5061024b61046a366004613541565b6111de565b34801561047b57600080fd5b5061024b61048a3660046132a8565b611408565b34801561049b57600080fd5b5061024b6104aa3660046135ba565b61145f565b3480156104bb57600080fd5b50610262611636565b6060600080546104d390613652565b80601f01602080910402602001604051908101604052809291908181526020018280546104ff90613652565b801561054c5780601f106105215761010080835404028352916020019161054c565b820191906000526020600020905b81548152906001019060200180831161052f57829003601f168201915b5050505050905090565b8051606090600a81111561059e576040517f9ebbc98e000000000000000000000000000000000000000000000000000000008152600a60048201526024015b60405180910390fd5b600060028211156105b15750600a6105b5565b5060025b6105c184826000611671565b949350505050565b6000806105d68484611751565b915091505b9250929050565b6105ea611807565b6105f3826118be565b6105fd82826118c6565b5050565b600061060b6119ae565b507f360894a13ba1a3210667c828492db98dca3e2076cc3735a920a3ca505d382bbc90565b6040516379f9712560e01b81526002600482015260009073__$dc6c4dd02ac6da041aea5ed0aea43c2a22$__906379f97125906024015b602060405180830381865af4158015610684573d6000803e3d6000fd5b505050506040513d601f19601f820116820180604052508101906106a89190613686565b905090565b6000865167ffffffffffffffff8111156106c9576106c9612e47565b6040519080825280602002602001820160405280156106f2578160200160208202803683370190505b50905085816000815181106107095761070961369f565b60200260200101818152505061071e87610556565b965061072981610556565b905061073887828760006119f7565b5061074688888888886107e4565b60606107558883836000611a23565b336001600160a01b03167f7d8a8f009bcd9cd0dc27e36fe37cc7cfe2bbd1469c0970d31046d3c12ec7f48c8a8a8a88886040516107969594939291906136de565b60405180910390a2505050505050505050565b6107b1611a3f565b6107bb6000611ab3565b565b6107c5611a3f565b6107d0838383611b24565b505050565b6060600180546104d390613652565b6002845111156109655760178451111561082d576040517f71798fb500000000000000000000000000000000000000000000000000000000815260176004820152602401610595565b600061083d868686866017611b81565b9050610847612d57565b60005b601781101561088c578281815181106108655761086561369f565b602002602001015182826017811061087f5761087f61369f565b602002015260010161084a565b50606a54604080517fa0c2a19a0000000000000000000000000000000000000000000000000000000081526001600160a01b039092169163a0c2a19a916108e191879182019060c08301908790600401613741565b602060405180830381865afa1580156108fe573d6000803e3d6000fd5b505050506040513d601f19601f8201168201806040525081019061092291906137a9565b61095e5760405162461bcd60e51b815260206004820152600d60248201526c24b73b30b634b210383937b7b360991b6044820152606401610595565b5050610a99565b6000610975868686866007611b81565b905061097f612d76565b60005b60078110156109c45782818151811061099d5761099d61369f565b60200260200101518282600781106109b7576109b761369f565b6020020152600101610982565b50606954604080517fc894e7570000000000000000000000000000000000000000000000000000000081526001600160a01b039092169163c894e75791610a1991879182019060c083019087906004016137c4565b602060405180830381865afa158015610a36573d6000803e3d6000fd5b505050506040513d601f19601f82011682018060405250810190610a5a91906137a9565b610a965760405162461bcd60e51b815260206004820152600d60248201526c24b73b30b634b210383937b7b360991b6044820152606401610595565b50505b6068546040517fa9059cbb000000000000000000000000000000000000000000000000000000008152336004820152602481018790526001600160a01b039091169063a9059cbb906044016020604051808303816000875af1158015610b03573d6000803e3d6000fd5b505050506040513d601f19601f82011682018060405250810190610b2791906137a9565b610b735760405162461bcd60e51b815260206004820152601f60248201527f4661696c656420746f207472616e7366657220455243323020746f6b656e73006044820152606401610595565b5050505050565b610b82611d15565b606780546001600160a01b0319166001600160a01b0392909216919091179055565b60005b8451811015610d8a57848181518110610bc257610bc261369f565b602002602001015160000315610d8257600080610bf8878481518110610bea57610bea61369f565b602002602001015133611751565b909250905081610c5157868381518110610c1457610c1461369f565b60200260200101516040517fe41859a600000000000000000000000000000000000000000000000000000000815260040161059591815260200190565b6001600160a01b0381163314610cc957868381518110610c7357610c7361369f565b60209081029190910101516040517f9fec262f00000000000000000000000000000000000000000000000000000000815260048101919091526001600160a01b0387166024820152336044820152606401610595565b603473__$dc6c4dd02ac6da041aea5ed0aea43c2a22$__63c1d29f019091898681518110610cf957610cf961369f565b60209081029190910101516040517fffffffff0000000000000000000000000000000000000000000000000000000060e085901b168152600481019290925260248201526001600160a01b038916604482015260640160006040518083038186803b158015610d6757600080fd5b505af4158015610d7b573d6000803e3d6000fd5b5050505050505b600101610ba7565b50826001600160a01b0316336001600160a01b03167fb81fc4239cf1f8a9964a337bb7866ffeb712f9e482d9cef0f5fac9fe3bd655b2868585604051610dd29392919061380b565b60405180910390a350505050565b6000610deb8a610556565b9950610df689610556565b9850610e058a8a8a60006119f7565b5060028a511180610e17575060028951115b15610f66576000610e2e8b8b8b8b8b8b604a611d7c565b9050610e38612d94565b60005b604a811015610e7d57828181518110610e5657610e5661369f565b60200260200101518282604a8110610e7057610e7061369f565b6020020152600101610e3b565b50606c54604080517ff035c5630000000000000000000000000000000000000000000000000000000081526001600160a01b039092169163f035c56391610ed2918a9182019060c0830190879060040161383b565b602060405180830381865afa158015610eef573d6000803e3d6000fd5b505050506040513d601f19601f82011682018060405250810190610f1391906137a9565b610f5f5760405162461bcd60e51b815260206004820152601560248201527f496e76616c69642070726f6f66202862617463682900000000000000000000006044820152606401610595565b505061109c565b6000610f788b8b8b8b8b8b6012611d7c565b9050610f82612db3565b60005b6012811015610fc757828181518110610fa057610fa061369f565b6020026020010151828260128110610fba57610fba61369f565b6020020152600101610f85565b50606b54604080517f4483e7210000000000000000000000000000000000000000000000000000000081526001600160a01b0390921691634483e7219161101c918a9182019060c08301908790600401613882565b602060405180830381865afa158015611039573d6000803e3d6000fd5b505050506040513d601f19601f8201168201806040525081019061105d91906137a9565b6110995760405162461bcd60e51b815260206004820152600d60248201526c24b73b30b634b210383937b7b360991b6044820152606401610595565b50505b60606110ab8b8b836000611a23565b6000865167ffffffffffffffff8111156110c7576110c7612e47565b6040519080825280602002602001820160405280156110f0578160200160208202803683370190505b50905060005b875181101561113e578781815181106111115761111161369f565b602002602001015182828151811061112b5761112b61369f565b60209081029190910101526001016110f6565b50336001600160a01b03167f18fd5042f65c100c3eb616143f0e3d2d83f7efe63df2a868b19f0b823c08a21b8d8d8c8c868b8b60405161118497969594939291906138c9565b60405180910390a25060019b9a5050505050505050505050565b6111a6611a3f565b606880546001600160a01b0319166001600160a01b0392909216919091179055565b6111d38585856111de565b610b73848383611b24565b6111e6612dd2565b838152825183906000906111fc576111fc61369f565b6020026020010151816001600381106112175761121761369f565b60200201528251839060019081106112315761123161369f565b60200260200101518160026003811061124c5761124c61369f565b6020020152606754604080517f11479fea0000000000000000000000000000000000000000000000000000000081526001600160a01b03909216916311479fea916112a591869182019060c08301908790600401613955565b602060405180830381865afa1580156112c2573d6000803e3d6000fd5b505050506040513d601f19601f820116820180604052508101906112e691906137a9565b6113225760405162461bcd60e51b815260206004820152600d60248201526c24b73b30b634b210383937b7b360991b6044820152606401610595565b6068546040517f23b872dd000000000000000000000000000000000000000000000000000000008152336004820152306024820152604481018690526001600160a01b03909116906323b872dd906064016020604051808303816000875af1158015611392573d6000803e3d6000fd5b505050506040513d601f19601f820116820180604052508101906113b691906137a9565b6114025760405162461bcd60e51b815260206004820152601f60248201527f4661696c656420746f207472616e7366657220455243323020746f6b656e73006044820152606401610595565b50505050565b611410611a3f565b6001600160a01b038116611453576040517f1e4fbdf700000000000000000000000000000000000000000000000000000000815260006004820152602401610595565b61145c81611ab3565b50565b7ff0c57e16840df040f15088dc2f81fe391c3923bec73e23a9662efc9c229c6a00805468010000000000000000810460ff16159067ffffffffffffffff166000811580156114aa5750825b905060008267ffffffffffffffff1660011480156114c75750303b155b9050811580156114d5575080155b1561150c576040517ff92ee8a900000000000000000000000000000000000000000000000000000000815260040160405180910390fd5b845467ffffffffffffffff19166001178555831561154057845468ff00000000000000001916680100000000000000001785555b61154b898989611feb565b61158361155e60408801602089016132a8565b61156e6060890160408a016132a8565b61157e60e08a0160c08b016132a8565b6120db565b61159060208701876132a8565b606b80546001600160a01b0319166001600160a01b03929092169190911790556115c060c0870160a088016132a8565b606c80546001600160a01b0319166001600160a01b0392909216919091179055831561162b57845468ff000000000000000019168555604051600181527fc7f505b2f371ae2175ee4913f4499e1f2633a7b5936321eed1cdaeb6115181d29060200160405180910390a15b505050505050505050565b6040516379f9712560e01b81526034600482015260009073__$dc6c4dd02ac6da041aea5ed0aea43c2a22$__906379f9712590602401610667565b60608284510361168257508261174a565b60008367ffffffffffffffff81111561169d5761169d612e47565b6040519080825280602002602001820160405280156116c6578160200160208202803683370190505b50905060005b8551811015611714578581815181106116e7576116e761369f565b60200260200101518282815181106117015761170161369f565b60209081029190910101526001016116cc565b5084515b8481101561174657838282815181106117335761173361369f565b6020908102919091010152600101611718565b5090505b9392505050565b604051632eda066d60e11b815260346004820152602481018390526000908190819073__$dc6c4dd02ac6da041aea5ed0aea43c2a22$__90635db40cda90604401600060405180830381865af41580156117af573d6000803e3d6000fd5b505050506040513d6000823e601f3d908101601f191682016040526117d791908101906139fa565b9050806020015180156117f65750836001600160a01b03168160800151145b816080015192509250509250929050565b306001600160a01b037f00000000000000000000000000000000000000000000000000000000000000001614806118a057507f00000000000000000000000000000000000000000000000000000000000000006001600160a01b03166118947f360894a13ba1a3210667c828492db98dca3e2076cc3735a920a3ca505d382bbc546001600160a01b031690565b6001600160a01b031614155b156107bb5760405163703e46dd60e11b815260040160405180910390fd5b61145c611a3f565b816001600160a01b03166352d1902d6040518163ffffffff1660e01b8152600401602060405180830381865afa925050508015611920575060408051601f3d908101601f1916820190925261191d91810190613686565b60015b61194857604051634c9c8ce360e01b81526001600160a01b0383166004820152602401610595565b7f360894a13ba1a3210667c828492db98dca3e2076cc3735a920a3ca505d382bbc81146119a4576040517faa1d49a400000000000000000000000000000000000000000000000000000000815260048101829052602401610595565b6107d0838361211b565b306001600160a01b037f000000000000000000000000000000000000000000000000000000000000000016146107bb5760405163703e46dd60e11b815260040160405180910390fd5b6000611a0285612171565b50611a0c846122e7565b50611a17838361240a565b50600195945050505050565b611a2c84612563565b611a35836125de565b61140282826126c5565b33611a717f9016d09d72d40fdae2fd8ceac6b6234c7706214fd39c1cd1e609a0528c199300546001600160a01b031690565b6001600160a01b0316146107bb576040517f118cdaa7000000000000000000000000000000000000000000000000000000008152336004820152602401610595565b7f9016d09d72d40fdae2fd8ceac6b6234c7706214fd39c1cd1e609a0528c19930080546001600160a01b031981166001600160a01b03848116918217845560405192169182907f8be0079c531659141344cd1fd0a4f28419497f9722a3daafe3b4186f6b6457e090600090a3505050565b611b2d836122e7565b50611b37836125de565b336001600160a01b03167f7ff08e0ca1fce6b202b83128811e4f6ceda54930aa074cd365bf68f95c20ce19848484604051611b749392919061380b565b60405180910390a2505050565b60608167ffffffffffffffff811115611b9c57611b9c612e47565b604051908082528060200260200182016040528015611bc5578160200160208202803683370190505b5090506000868282611bd681613ad8565b935081518110611be857611be861369f565b60200260200101818152505060005b8651811015611c4b57868181518110611c1257611c1261369f565b6020026020010151838380611c2690613ad8565b945081518110611c3857611c3861369f565b6020908102919091010152600101611bf7565b50838282611c5881613ad8565b935081518110611c6a57611c6a61369f565b60200260200101818152505060005b8651811015611ce057868181518110611c9457611c9461369f565b6020026020010151600014611caa576001611cad565b60005b60ff168383611cbb81613ad8565b945081518110611ccd57611ccd61369f565b6020908102919091010152600101611c79565b50848282611ced81613ad8565b935081518110611cff57611cff61369f565b6020026020010181815250505095945050505050565b7ff0c57e16840df040f15088dc2f81fe391c3923bec73e23a9662efc9c229c6a005468010000000000000000900460ff166107bb576040517fd7e6bcf800000000000000000000000000000000000000000000000000000000815260040160405180910390fd5b60608167ffffffffffffffff811115611d9757611d97612e47565b604051908082528060200260200182016040528015611dc0578160200160208202803683370190505b5090506000805b6002811015611e1757858160028110611de257611de261369f565b60200201518383611df281613ad8565b945081518110611e0457611e0461369f565b6020908102919091010152600101611dc7565b5060005b8451811015611e6f57848181518110611e3657611e3661369f565b6020026020010151838380611e4a90613ad8565b945081518110611e5c57611e5c61369f565b6020908102919091010152600101611e1b565b5060005b8951811015611ec757898181518110611e8e57611e8e61369f565b6020026020010151838380611ea290613ad8565b945081518110611eb457611eb461369f565b6020908102919091010152600101611e73565b50868282611ed481613ad8565b935081518110611ee657611ee661369f565b60200260200101818152505060005b8951811015611f5c57898181518110611f1057611f1061369f565b6020026020010151600014611f26576001611f29565b60005b60ff168383611f3781613ad8565b945081518110611f4957611f4961369f565b6020908102919091010152600101611ef5565b5060005b8851811015611fb457888181518110611f7b57611f7b61369f565b6020026020010151838380611f8f90613ad8565b945081518110611fa157611fa161369f565b6020908102919091010152600101611f60565b50858282611fc181613ad8565b935081518110611fd357611fd361369f565b60200260200101818152505050979650505050505050565b611ff3611d15565b611ffe8383836127b1565b60408051639e43b81360e01b815260026004820152602481019190915273__$dc6c4dd02ac6da041aea5ed0aea43c2a22$__90639e43b8139060440160006040518083038186803b15801561205257600080fd5b505af4158015612066573d6000803e3d6000fd5b505060408051639e43b81360e01b815260346004820152602481019190915273__$dc6c4dd02ac6da041aea5ed0aea43c2a22$__9250639e43b813915060440160006040518083038186803b1580156120be57600080fd5b505af41580156120d2573d6000803e3d6000fd5b50505050505050565b6120e3611d15565b6120ec83610b7a565b606980546001600160a01b039384166001600160a01b031991821617909155606a805492909316911617905550565b612124826127db565b6040516001600160a01b038316907fbc7cd75a20ee27fd9adebab32041f755214dbc6bffa90cc0225b39da2e5c2d3b90600090a2805115612169576107d08282612852565b6105fd6128c8565b60008061217d83612900565b905060005b81518110156122e05781818151811061219d5761219d61369f565b6020026020010151600003156122d8576000811180156121f85750816121c4600183613af1565b815181106121d4576121d461369f565b60200260200101518282815181106121ee576121ee61369f565b6020026020010151145b1561224c5781818151811061220f5761220f61369f565b60200260200101516040517fdd57483100000000000000000000000000000000000000000000000000000000815260040161059591815260200190565b606660008383815181106122625761226261369f565b60209081029190910181015182528101919091526040016000205460ff1615156001036122d85781818151811061229b5761229b61369f565b60200260200101516040517f41a06d2800000000000000000000000000000000000000000000000000000000815260040161059591815260200190565b600101612182565b5050919050565b6000806122f383612900565b905060005b81518110156122e0578181815181106123135761231361369f565b6020026020010151600003156124025760008111801561236e57508161233a600183613af1565b8151811061234a5761234a61369f565b60200260200101518282815181106123645761236461369f565b6020026020010151145b156123855781818151811061220f5761220f61369f565b60006123a983838151811061239c5761239c61369f565b602002602001015161299f565b90508015612400578282815181106123c3576123c361369f565b60200260200101516040517f79e1da4700000000000000000000000000000000000000000000000000000000815260040161059591815260200190565b505b6001016122f8565b600081801561249157506040516324bd6c1b60e21b8152603460048201526024810184905273__$dc6c4dd02ac6da041aea5ed0aea43c2a22$__906392f5b06c90604401602060405180830381865af415801561246b573d6000803e3d6000fd5b505050506040513d601f19601f8201168201806040525081019061248f91906137a9565b155b156124b257604051630959af5760e31b815260048101849052602401610595565b8115801561253857506040516324bd6c1b60e21b8152600260048201526024810184905273__$dc6c4dd02ac6da041aea5ed0aea43c2a22$__906392f5b06c90604401602060405180830381865af4158015612512573d6000803e3d6000fd5b505050506040513d601f19601f8201168201806040525081019061253691906137a9565b155b1561255957604051630959af5760e31b815260048101849052602401610595565b5060015b92915050565b60005b81518110156105fd578181815181106125815761258161369f565b60200260200101516000146125d6576001606660008484815181106125a8576125a861369f565b6020026020010151815260200190815260200160002060006101000a81548160ff0219169083151502179055505b600101612566565b60005b81518110156105fd578181815181106125fc576125fc61369f565b60200260200101516000146126bd57600273__$dc6c4dd02ac6da041aea5ed0aea43c2a22$__63c1d29f01909184848151811061263b5761263b61369f565b60200260200101518585815181106126555761265561369f565b60200260200101516040518463ffffffff1660e01b815260040161268c939291909283526020830191909152604082015260600190565b60006040518083038186803b1580156126a457600080fd5b505af41580156126b8573d6000803e3d6000fd5b505050505b6001016125e1565b60005b82518110156107d0578281815181106126e3576126e361369f565b60200260200101516000146127a957603473__$dc6c4dd02ac6da041aea5ed0aea43c2a22$__63c1d29f0190918584815181106127225761272261369f565b60209081029190910101516040517fffffffff0000000000000000000000000000000000000000000000000000000060e085901b168152600481019290925260248201526001600160a01b038516604482015260640160006040518083038186803b15801561279057600080fd5b505af41580156127a4573d6000803e3d6000fd5b505050505b6001016126c8565b6127b9611d15565b6127c2816129bb565b60006127ce8482613b4b565b5060016114028382613b4b565b806001600160a01b03163b60000361281157604051634c9c8ce360e01b81526001600160a01b0382166004820152602401610595565b7f360894a13ba1a3210667c828492db98dca3e2076cc3735a920a3ca505d382bbc80546001600160a01b0319166001600160a01b0392909216919091179055565b6060600080846001600160a01b03168460405161286f9190613c0a565b600060405180830381855af49150503d80600081146128aa576040519150601f19603f3d011682016040523d82523d6000602084013e6128af565b606091505b50915091506128bf8583836129cc565b95945050505050565b34156107bb576040517fb398979f00000000000000000000000000000000000000000000000000000000815260040160405180910390fd5b60606000825167ffffffffffffffff81111561291e5761291e612e47565b604051908082528060200260200182016040528015612947578160200160208202803683370190505b50905060005b8351811015612995578381815181106129685761296861369f565b60200260200101518282815181106129825761298261369f565b602090810291909101015260010161294d565b5061174a81612a41565b6000806129ab83612a56565b90508061255d5761174a83612b1e565b6129c3611d15565b61145c81612bad565b6060826129e1576129dc82612bb5565b61174a565b81511580156129f857506001600160a01b0384163b155b15612a3a576040517f9996b3150000000000000000000000000000000000000000000000000000000081526001600160a01b0385166004820152602401610595565b508061174a565b6060612a4f82612bf7612bfb565b5090919050565b600080612a638384612c13565b6040517fe170cf6e000000000000000000000000000000000000000000000000000000008152600260048201526024810182905290915060009073__$dc6c4dd02ac6da041aea5ed0aea43c2a22$__9063e170cf6e9060440160a060405180830381865af4158015612ad9573d6000803e3d6000fd5b505050506040513d601f19601f82011682018060405250810190612afd9190613c26565b9050600081516002811115612b1457612b14613ca6565b1415949350505050565b604051632eda066d60e11b81526034600482015260248101829052600090819073__$dc6c4dd02ac6da041aea5ed0aea43c2a22$__90635db40cda90604401600060405180830381865af4158015612b7a573d6000803e3d6000fd5b505050506040513d6000823e601f3d908101601f19168201604052612ba291908101906139fa565b602001519392505050565b611410611d15565b805115612bc55780518082602001fd5b6040517fd6bda27500000000000000000000000000000000000000000000000000000000815260040160405180910390fd5b1190565b6060612a4f60208401612c0d85612cc1565b84612cd9565b604080516060810182528381526020810183905260018183015290517f25cc70e80000000000000000000000000000000000000000000000000000000081526000919073__$03320550cd1b629da90608251571b2532e$__906325cc70e890612c80908490600401613cbc565b602060405180830381865af4158015612c9d573d6000803e3d6000fd5b505050506040513d601f19601f820116820180604052508101906105c19190613686565b60008151602002612cd28360200190565b0192915050565b60408383031015612ce957505050565b6000612cf3845190565b905083602081015b84811015612d3557612d18612d0e825190565b848663ffffffff16565b15612d2d576020919091018051825182528252905b602001612cfb565b508451815186528152612d49858285612cd9565b610b73816020018585612cd9565b604051806102e001604052806017906020820280368337509192915050565b6040518060e001604052806007906020820280368337509192915050565b604051806109400160405280604a906020820280368337509192915050565b6040518061024001604052806012906020820280368337509192915050565b60405180606001604052806003906020820280368337509192915050565b60005b83811015612e0b578181015183820152602001612df3565b50506000910152565b6020815260008251806020840152612e33816040850160208701612df0565b601f01601f19169190910160400192915050565b634e487b7160e01b600052604160045260246000fd5b604051610100810167ffffffffffffffff81118282101715612e8157612e81612e47565b60405290565b604051601f8201601f1916810167ffffffffffffffff81118282101715612eb057612eb0612e47565b604052919050565b600067ffffffffffffffff821115612ed257612ed2612e47565b5060051b60200190565b600082601f830112612eed57600080fd5b8135612f00612efb82612eb8565b612e87565b8082825260208201915060208360051b860101925085831115612f2257600080fd5b602085015b83811015612f3f578035835260209283019201612f27565b5095945050505050565b600060208284031215612f5b57600080fd5b813567ffffffffffffffff811115612f7257600080fd5b6105c184828501612edc565b600081518084526020840193506020830160005b82811015612fb0578151865260209586019590910190600101612f92565b5093949350505050565b60208152600061174a6020830184612f7e565b6001600160a01b038116811461145c57600080fd5b60008060408385031215612ff557600080fd5b82359150602083013561300781612fcd565b809150509250929050565b60008067ffffffffffffffff84111561302d5761302d612e47565b50601f8301601f191660200161304281612e87565b91505082815283838301111561305757600080fd5b828260208301376000602084830101529392505050565b6000806040838503121561308157600080fd5b823561308c81612fcd565b9150602083013567ffffffffffffffff8111156130a857600080fd5b8301601f810185136130b957600080fd5b6130c885823560208401613012565b9150509250929050565b600061010082840312156130e557600080fd5b50919050565b60008083601f8401126130fd57600080fd5b50813567ffffffffffffffff81111561311557600080fd5b6020830191508360208285010111156105db57600080fd5b60008060008060008060006101a0888a03121561314957600080fd5b87359650602088013567ffffffffffffffff81111561316757600080fd5b6131738a828b01612edc565b96505060408801359450606088013593506131918960808a016130d2565b925061018088013567ffffffffffffffff8111156131ae57600080fd5b6131ba8a828b016130eb565b989b979a50959850939692959293505050565b6000806000604084860312156131e257600080fd5b833567ffffffffffffffff8111156131f957600080fd5b61320586828701612edc565b935050602084013567ffffffffffffffff81111561322257600080fd5b61322e868287016130eb565b9497909650939450505050565b6000806000806000610180868803121561325457600080fd5b85359450602086013567ffffffffffffffff81111561327257600080fd5b61327e88828901612edc565b945050604086013592506060860135915061329c87608088016130d2565b90509295509295909350565b6000602082840312156132ba57600080fd5b813561174a81612fcd565b600080600080606085870312156132db57600080fd5b843567ffffffffffffffff8111156132f257600080fd5b6132fe87828801612edc565b945050602085013561330f81612fcd565b9250604085013567ffffffffffffffff81111561332b57600080fd5b613337878288016130eb565b95989497509550505050565b600082601f83011261335457600080fd5b6040805190810167ffffffffffffffff8111828210171561337757613377612e47565b806040525080604084018581111561338e57600080fd5b845b818110156133a8578035835260209283019201613390565b509195945050505050565b60008060008060008060008060006102008a8c0312156133d257600080fd5b893567ffffffffffffffff8111156133e957600080fd5b6133f58c828d01612edc565b99505060208a013567ffffffffffffffff81111561341257600080fd5b61341e8c828d01612edc565b98505060408a0135965060608a0135955061343c8b60808c01613343565b945060c08a013567ffffffffffffffff81111561345857600080fd5b6134648c828d01612edc565b9450506134748b60e08c016130d2565b92506101e08a013567ffffffffffffffff81111561349157600080fd5b61349d8c828d016130eb565b915080935050809150509295985092959850929598565b600080600080600061016086880312156134cd57600080fd5b85359450602086013567ffffffffffffffff8111156134eb57600080fd5b6134f788828901612edc565b94505061350787604088016130d2565b925061014086013567ffffffffffffffff81111561352457600080fd5b613530888289016130eb565b969995985093965092949392505050565b6000806000610140848603121561355757600080fd5b83359250602084013567ffffffffffffffff81111561357557600080fd5b61358186828701612edc565b92505061359185604086016130d2565b90509250925092565b600082601f8301126135ab57600080fd5b61174a83833560208501613012565b6000806000808486036101808112156135d257600080fd5b853567ffffffffffffffff8111156135e957600080fd5b6135f58882890161359a565b955050602086013567ffffffffffffffff81111561361257600080fd5b61361e8882890161359a565b945050604086013561362f81612fcd565b9250610120605f198201121561364457600080fd5b509295919450926060019150565b600181811c9082168061366657607f821691505b6020821081036130e557634e487b7160e01b600052602260045260246000fd5b60006020828403121561369857600080fd5b5051919050565b634e487b7160e01b600052603260045260246000fd5b81835281816020850137506000828201602090810191909152601f909101601f19169091010190565b8581526080602082015260006136f76080830187612f7e565b85604084015282810360608401526137108185876136b5565b98975050505050505050565b8060005b60028110156114025760408285376040938401939190910190600101613720565b6103e081016040868337613758604083018661371c565b60408460c084013761010082018360005b6017811015613788578151835260209283019290910190600101613769565b50505095945050505050565b805180151581146137a457600080fd5b919050565b6000602082840312156137bb57600080fd5b61174a82613794565b6101e0810160408683376137db604083018661371c565b60408460c084013761010082018360005b60078110156137885781518352602092830192909101906001016137ec565b60408152600061381e6040830186612f7e565b82810360208401526138318185876136b5565b9695505050505050565b610a4081016040868337613852604083018661371c565b60408460c084013761010082018360005b604a811015613788578151835260209283019290910190600101613863565b61034081016040868337613899604083018661371c565b60408460c084013761010082018360005b60128110156137885781518352602092830192909101906001016138aa565b60e0815260006138dc60e083018a612f7e565b82810360208401526138ee818a612f7e565b9050876040840152606083018760005b600281101561391d5781518352602092830192909101906001016138fe565b50505082810360a08401526139328187612f7e565b905082810360c08401526139478185876136b5565b9a9950505050505050505050565b6101608101604086833761396c604083018661371c565b60408460c084013761010082018360005b600381101561378857815183526020928301929091019060010161397d565b600082601f8301126139ad57600080fd5b81516139bb612efb82612eb8565b8082825260208201915060208360051b8601019250858311156139dd57600080fd5b602085015b83811015612f3f5780518352602092830192016139e2565b600060208284031215613a0c57600080fd5b815167ffffffffffffffff811115613a2357600080fd5b82016101008185031215613a3657600080fd5b613a3e612e5d565b81518152613a4e60208301613794565b6020820152604082015167ffffffffffffffff811115613a6d57600080fd5b613a798682850161399c565b6040830152506060828101519082015260808083015190820152613a9f60a08301613794565b60a082015260c0828101519082015260e091820151918101919091529392505050565b634e487b7160e01b600052601160045260246000fd5b600060018201613aea57613aea613ac2565b5060010190565b8181038181111561255d5761255d613ac2565b601f8211156107d057806000526020600020601f840160051c81016020851015613b2b5750805b601f840160051c820191505b81811015610b735760008155600101613b37565b815167ffffffffffffffff811115613b6557613b65612e47565b613b7981613b738454613652565b84613b04565b6020601f821160018114613bad5760008315613b955750848201515b600019600385901b1c1916600184901b178455610b73565b600084815260208120601f198516915b82811015613bdd5787850151825560209485019460019092019101613bbd565b5084821015613bfb5786840151600019600387901b60f8161c191681555b50505050600190811b01905550565b60008251613c1c818460208701612df0565b9190910192915050565b600060a0828403128015613c3957600080fd5b5060405160009060a0810167ffffffffffffffff81118282101715613c6057613c60612e47565b604052835160038110613c71578283fd5b815260208481015190820152604080850151908201526060808501519082015260809384015193810193909352509092915050565b634e487b7160e01b600052602160045260246000fd5b60608101818360005b6003811015613ce4578151835260209283019290910190600101613cc5565b5050509291505056fea26469706673582212200bbedbc76621684c566ea3ffd67bda6c942ac528c0607e6c49b5642f5a01ae6764736f6c634300081b0033",
  "linkReferences": {
    "@iden3/contracts/lib/Poseidon.sol": {
      "PoseidonUnit3L": [
        {
          "length": 20,
          "start": 11413
        }
      ]
    },
    "@iden3/contracts/lib/SmtLib.sol": {
      "SmtLib": [
        {
          "length": 20,
          "start": 1670
        },
        {
          "length": 20,
          "start": 3338
        },
        {
          "length": 20,
          "start": 5772
        },
        {
          "length": 20,
          "start": 6066
        },
        {
          "length": 20,
          "start": 8282
        },
        {
          "length": 20,
          "start": 8388
        },
        {
          "length": 20,
          "start": 9326
        },
        {
          "length": 20,
          "start": 9493
        },
        {
          "length": 20,
          "start": 9804
        },
        {
          "length": 20,
          "start": 10035
        },
        {
          "length": 20,
          "start": 10972
        },
        {
          "length": 20,
          "start": 11133
        }
      ]
    }
  },
  "deployedLinkReferences": {
    "@iden3/contracts/lib/Poseidon.sol": {
      "PoseidonUnit3L": [
        {
          "length": 20,
          "start": 11352
        }
      ]
    },
    "@iden3/contracts/lib/SmtLib.sol": {
      "SmtLib": [
        {
          "length": 20,
          "start": 1609
        },
        {
          "length": 20,
          "start": 3277
        },
        {
          "length": 20,
          "start": 5711
        },
        {
          "length": 20,
          "start": 6005
        },
        {
          "length": 20,
          "start": 8221
        },
        {
          "length": 20,
          "start": 8327
        },
        {
          "length": 20,
          "start": 9265
        },
        {
          "length": 20,
          "start": 9432
        },
        {
          "length": 20,
          "start": 9743
        },
        {
          "length": 20,
          "start": 9974
        },
        {
          "length": 20,
          "start": 10911
        },
        {
          "length": 20,
          "start": 11072
        }
      ]
    }
  }
}