{
  "_format": "hh-sol-artifact-1",
  "contractName": "Zeto_AnonEnc",
  "sourceName": "contracts/zeto_anon_enc.sol",
  "abi": [
    {
      "inputs": [
        {
          "internalType": "address",
          "name": "target",
          "type": "address"
        }
      ],
      "name": "AddressEmptyCode",
      "type": "error"
    },
    {
      "inputs": [
        {
          "internalType": "address",
          "name": "implementation",
          "type": "address"
        }
      ],
      "name": "ERC1967InvalidImplementation",
      "type": "error"
    },
    {
      "inputs": [],
      "name": "ERC1967NonPayable",
      "type": "error"
    },
    {
      "inputs": [],
      "name": "FailedCall",
      "type": "error"
    },
    {
      "inputs": [],
      "name": "InvalidInitialization",
      "type": "error"
    },
    {
      "inputs": [],
      "name": "NotInitializing",
      "type": "error"
    },
    {
      "inputs": [
        {
          "internalType": "uint256",
          "name": "utxo",
          "type": "uint256"
        },
        {
          "internalType": "address",
          "name": "delegate",
          "type": "address"
        },
        {
          "internalType": "address",
          "name": "sender",
          "type": "address"
        }
      ],
      "name": "NotLockDelegate",
      "type": "error"
    },
    {
      "inputs": [
        {
          "internalType": "address",
          "name": "owner",
          "type": "address"
        }
      ],
      "name": "OwnableInvalidOwner",
      "type": "error"
    },
    {
      "inputs": [
        {
          "internalType": "address",
          "name": "account",
          "type": "address"
        }
      ],
      "name": "OwnableUnauthorizedAccount",
      "type": "error"
    },
    {
      "inputs": [
        {
          "internalType": "uint256",
          "name": "utxo",
          "type": "uint256"
        }
      ],
      "name": "UTXOAlreadyLocked",
      "type": "error"
    },
    {
      "inputs": [
        {
          "internalType": "uint256",
          "name": "utxo",
          "type": "uint256"
        }
      ],
      "name": "UTXOAlreadyOwned",
      "type": "error"
    },
    {
      "inputs": [
        {
          "internalType": "uint256",
          "name": "utxo",
          "type": "uint256"
        }
      ],
      "name": "UTXOAlreadySpent",
      "type": "error"
    },
    {
      "inputs": [
        {
          "internalType": "uint256",
          "name": "maxAllowed",
          "type": "uint256"
        }
      ],
      "name": "UTXOArrayTooLarge",
      "type": "error"
    },
    {
      "inputs": [
        {
          "internalType": "uint256",
          "name": "utxo",
          "type": "uint256"
        }
      ],
      "name": "UTXODuplicate",
      "type": "error"
    },
    {
      "inputs": [
        {
          "internalType": "uint256",
          "name": "utxo",
          "type": "uint256"
        }
      ],
      "name": "UTXONotLocked",
      "type": "error"
    },
    {
      "inputs": [
        {
          "internalType": "uint256",
          "name": "utxo",
          "type": "uint256"
        }
      ],
      "name": "UTXONotMinted",
      "type": "error"
    },
    {
      "inputs": [],
      "name": "UUPSUnauthorizedCallContext",
      "type": "error"
    },
    {
      "inputs": [
        {
          "internalType": "bytes32",
          "name": "slot",
          "type": "bytes32"
        }
      ],
      "name": "UUPSUnsupportedProxiableUUID",
      "type": "error"
    },
    {
      "inputs": [
        {
          "internalType": "uint256",
          "name": "maxAllowed",
          "type": "uint256"
        }
      ],
      "name": "WithdrawArrayTooLarge",
      "type": "error"
    },
    {
      "anonymous": false,
      "inputs": [
        {
          "indexed": false,
          "internalType": "uint64",
          "name": "version",
          "type": "uint64"
        }
      ],
      "name": "Initialized",
      "type": "event"
    },
    {
      "anonymous": false,
      "inputs": [
        {
          "indexed": false,
          "internalType": "uint256[]",
          "name": "lockedOutputs",
          "type": "uint256[]"
        },
        {
          "indexed": true,
          "internalType": "address",
          "name": "oldDelegate",
          "type": "address"
        },
        {
          "indexed": true,
          "internalType": "address",
          "name": "newDelegate",
          "type": "address"
        },
        {
          "indexed": false,
          "internalType": "bytes",
          "name": "data",
          "type": "bytes"
        }
      ],
      "name": "LockDelegateChanged",
      "type": "event"
    },
    {
      "anonymous": false,
      "inputs": [
        {
          "indexed": true,
          "internalType": "address",
          "name": "previousOwner",
          "type": "address"
        },
        {
          "indexed": true,
          "internalType": "address",
          "name": "newOwner",
          "type": "address"
        }
      ],
      "name": "OwnershipTransferred",
      "type": "event"
    },
    {
      "anonymous": false,
      "inputs": [
        {
          "indexed": false,
          "internalType": "uint256[]",
          "name": "inputs",
          "type": "uint256[]"
        },
        {
          "indexed": false,
          "internalType": "uint256",
          "name": "output",
          "type": "uint256"
        },
        {
          "indexed": true,
          "internalType": "address",
          "name": "submitter",
          "type": "address"
        },
        {
          "indexed": false,
          "internalType": "bytes",
          "name": "data",
          "type": "bytes"
        }
      ],
      "name": "UTXOBurn",
      "type": "event"
    },
    {
      "anonymous": false,
      "inputs": [
        {
          "indexed": false,
          "internalType": "uint256[]",
          "name": "outputs",
          "type": "uint256[]"
        },
        {
          "indexed": true,
          "internalType": "address",
          "name": "submitter",
          "type": "address"
        },
        {
          "indexed": false,
          "internalType": "bytes",
          "name": "data",
          "type": "bytes"
        }
      ],
      "name": "UTXOMint",
      "type": "event"
    },
    {
      "anonymous": false,
      "inputs": [
        {
          "indexed": false,
          "internalType": "uint256[]",
          "name": "inputs",
          "type": "uint256[]"
        },
        {
          "indexed": false,
          "internalType": "uint256[]",
          "name": "outputs",
          "type": "uint256[]"
        },
        {
          "indexed": true,
          "internalType": "address",
          "name": "submitter",
          "type": "address"
        },
        {
          "indexed": false,
          "internalType": "bytes",
          "name": "data",
          "type": "bytes"
        }
      ],
      "name": "UTXOTransfer",
      "type": "event"
    },
    {
      "anonymous": false,
      "inputs": [
        {
          "indexed": false,
          "internalType": "uint256[]",
          "name": "inputs",
          "type": "uint256[]"
        },
        {
          "indexed": false,
          "internalType": "uint256[]",
          "name": "outputs",
          "type": "uint256[]"
        },
        {
          "indexed": false,
          "internalType": "uint256",
          "name": "encryptionNonce",
          "type": "uint256"
        },
        {
          "indexed": false,
          "internalType": "uint256[2]",
          "name": "ecdhPublicKey",
          "type": "uint256[2]"
        },
        {
          "indexed": false,
          "internalType": "uint256[]",
          "name": "encryptedValues",
          "type": "uint256[]"
        },
        {
          "indexed": true,
          "internalType": "address",
          "name": "submitter",
          "type": "address"
        },
        {
          "indexed": false,
          "internalType": "bytes",
          "name": "data",
          "type": "bytes"
        }
      ],
      "name": "UTXOTransferWithEncryptedValues",
      "type": "event"
    },
    {
      "anonymous": false,
      "inputs": [
        {
          "indexed": false,
          "internalType": "uint256",
          "name": "amount",
          "type": "uint256"
        },
        {
          "indexed": false,
          "internalType": "uint256[]",
          "name": "inputs",
          "type": "uint256[]"
        },
        {
          "indexed": false,
          "internalType": "uint256",
          "name": "output",
          "type": "uint256"
        },
        {
          "indexed": true,
          "internalType": "address",
          "name": "submitter",
          "type": "address"
        },
        {
          "indexed": false,
          "internalType": "bytes",
          "name": "data",
          "type": "bytes"
        }
      ],
      "name": "UTXOWithdraw",
      "type": "event"
    },
    {
      "anonymous": false,
      "inputs": [
        {
          "indexed": false,
          "internalType": "uint256[]",
          "name": "inputs",
          "type": "uint256[]"
        },
        {
          "indexed": false,
          "internalType": "uint256[]",
          "name": "outputs",
          "type": "uint256[]"
        },
        {
          "indexed": false,
          "internalType": "uint256[]",
          "name": "lockedOutputs",
          "type": "uint256[]"
        },
        {
          "indexed": true,
          "internalType": "address",
          "name": "delegate",
          "type": "address"
        },
        {
          "indexed": true,
          "internalType": "address",
          "name": "submitter",
          "type": "address"
        },
        {
          "indexed": false,
          "internalType": "bytes",
          "name": "data",
          "type": "bytes"
        }
      ],
      "name": "UTXOsLocked",
      "type": "event"
    },
    {
      "anonymous": false,
      "inputs": [
        {
          "indexed": true,
          "internalType": "address",
          "name": "implementation",
          "type": "address"
        }
      ],
      "name": "Upgraded",
      "type": "event"
    },
    {
      "inputs": [],
      "name": "UPGRADE_INTERFACE_VERSION",
      "outputs": [
        {
          "internalType": "string",
          "name": "",
          "type": "string"
        }
      ],
      "stateMutability": "view",
      "type": "function"
    },
    {
      "inputs": [
        {
          "internalType": "contract Groth16Verifier_Deposit",
          "name": "depositVerifier",
          "type": "address"
        },
        {
          "internalType": "contract Groth16Verifier_Withdraw",
          "name": "withdrawVerifier",
          "type": "address"
        },
        {
          "internalType": "contract Groth16Verifier_WithdrawBatch",
          "name": "batchWithdrawVerifier",
          "type": "address"
        }
      ],
      "name": "__ZetoFungibleWithdraw_init",
      "outputs": [],
      "stateMutability": "nonpayable",
      "type": "function"
    },
    {
      "inputs": [
        {
          "internalType": "contract Groth16Verifier_Deposit",
          "name": "depositVerifier",
          "type": "address"
        }
      ],
      "name": "__ZetoFungible_init",
      "outputs": [],
      "stateMutability": "nonpayable",
      "type": "function"
    },
    {
      "inputs": [
        {
          "internalType": "uint256",
          "name": "amount",
          "type": "uint256"
        },
        {
          "internalType": "uint256[]",
          "name": "outputs",
          "type": "uint256[]"
        },
        {
          "components": [
            {
              "internalType": "uint256[2]",
              "name": "pA",
              "type": "uint256[2]"
            },
            {
              "internalType": "uint256[2][2]",
              "name": "pB",
              "type": "uint256[2][2]"
            },
            {
              "internalType": "uint256[2]",
              "name": "pC",
              "type": "uint256[2]"
            }
          ],
          "internalType": "struct Commonlib.Proof",
          "name": "proof",
          "type": "tuple"
        }
      ],
      "name": "_deposit",
      "outputs": [],
      "stateMutability": "nonpayable",
      "type": "function"
    },
    {
      "inputs": [
        {
          "internalType": "uint256",
          "name": "amount",
          "type": "uint256"
        },
        {
          "internalType": "uint256[]",
          "name": "inputs",
          "type": "uint256[]"
        },
        {
          "internalType": "uint256",
          "name": "output",
          "type": "uint256"
        },
        {
          "components": [
            {
              "internalType": "uint256[2]",
              "name": "pA",
              "type": "uint256[2]"
            },
            {
              "internalType": "uint256[2][2]",
              "name": "pB",
              "type": "uint256[2][2]"
            },
            {
              "internalType": "uint256[2]",
              "name": "pC",
              "type": "uint256[2]"
            }
          ],
          "internalType": "struct Commonlib.Proof",
          "name": "proof",
          "type": "tuple"
        }
      ],
      "name": "_withdraw",
      "outputs": [],
      "stateMutability": "nonpayable",
      "type": "function"
    },
    {
      "inputs": [
        {
          "internalType": "uint256[]",
          "name": "commitments",
          "type": "uint256[]"
        }
      ],
      "name": "checkAndPadCommitments",
      "outputs": [
        {
          "internalType": "uint256[]",
          "name": "",
          "type": "uint256[]"
        }
      ],
      "stateMutability": "pure",
      "type": "function"
    },
    {
      "inputs": [],
      "name": "decimals",
      "outputs": [
        {
          "internalType": "uint8",
          "name": "",
          "type": "uint8"
        }
      ],
      "stateMutability": "view",
      "type": "function"
    },
    {
      "inputs": [
        {
          "internalType": "uint256[]",
          "name": "utxos",
          "type": "uint256[]"
        },
        {
          "internalType": "address",
          "name": "delegate",
          "type": "address"
        },
        {
          "internalType": "bytes",
          "name": "data",
          "type": "bytes"
        }
      ],
      "name": "delegateLock",
      "outputs": [],
      "stateMutability": "nonpayable",
      "type": "function"
    },
    {
      "inputs": [
        {
          "internalType": "uint256",
          "name": "amount",
          "type": "uint256"
        },
        {
          "internalType": "uint256[]",
          "name": "outputs",
          "type": "uint256[]"
        },
        {
          "components": [
            {
              "internalType": "uint256[2]",
              "name": "pA",
              "type": "uint256[2]"
            },
            {
              "internalType": "uint256[2][2]",
              "name": "pB",
              "type": "uint256[2][2]"
            },
            {
              "internalType": "uint256[2]",
              "name": "pC",
              "type": "uint256[2]"
            }
          ],
          "internalType": "struct Commonlib.Proof",
          "name": "proof",
          "type": "tuple"
        },
        {
          "internalType": "bytes",
          "name": "data",
          "type": "bytes"
        }
      ],
      "name": "deposit",
      "outputs": [],
      "stateMutability": "nonpayable",
      "type": "function"
    },
    {
      "inputs": [
        {
          "internalType": "string",
          "name": "name",
          "type": "string"
        },
        {
          "internalType": "string",
          "name": "symbol",
          "type": "string"
        },
        {
          "internalType": "address",
          "name": "initialOwner",
          "type": "address"
        },
        {
          "components": [
            {
              "internalType": "address",
              "name": "verifier",
              "type": "address"
            },
            {
              "internalType": "address",
              "name": "depositVerifier",
              "type": "address"
            },
            {
              "internalType": "address",
              "name": "withdrawVerifier",
              "type": "address"
            },
            {
              "internalType": "address",
              "name": "lockVerifier",
              "type": "address"
            },
            {
              "internalType": "address",
              "name": "burnVerifier",
              "type": "address"
            },
            {
              "internalType": "address",
              "name": "batchVerifier",
              "type": "address"
            },
            {
              "internalType": "address",
              "name": "batchWithdrawVerifier",
              "type": "address"
            },
            {
              "internalType": "address",
              "name": "batchLockVerifier",
              "type": "address"
            },
            {
              "internalType": "address",
              "name": "batchBurnVerifier",
              "type": "address"
            }
          ],
          "internalType": "struct IZetoInitializable.VerifiersInfo",
          "name": "verifiers",
          "type": "tuple"
        }
      ],
      "name": "initialize",
      "outputs": [],
      "stateMutability": "nonpayable",
      "type": "function"
    },
    {
      "inputs": [
        {
          "internalType": "uint256",
          "name": "utxo",
          "type": "uint256"
        }
      ],
      "name": "locked",
      "outputs": [
        {
          "internalType": "bool",
          "name": "",
          "type": "bool"
        },
        {
          "internalType": "address",
          "name": "",
          "type": "address"
        }
      ],
      "stateMutability": "view",
      "type": "function"
    },
    {
      "inputs": [
        {
          "internalType": "uint256[]",
          "name": "utxos",
          "type": "uint256[]"
        },
        {
          "internalType": "bytes",
          "name": "data",
          "type": "bytes"
        }
      ],
      "name": "mint",
      "outputs": [],
      "stateMutability": "nonpayable",
      "type": "function"
    },
    {
      "inputs": [],
      "name": "name",
      "outputs": [
        {
          "internalType": "string",
          "name": "",
          "type": "string"
        }
      ],
      "stateMutability": "view",
      "type": "function"
    },
    {
      "inputs": [],
      "name": "owner",
      "outputs": [
        {
          "internalType": "address",
          "name": "",
          "type": "address"
        }
      ],
      "stateMutability": "view",
      "type": "function"
    },
    {
      "inputs": [],
      "name": "proxiableUUID",
      "outputs": [
        {
          "internalType": "bytes32",
          "name": "",
          "type": "bytes32"
        }
      ],
      "stateMutability": "view",
      "type": "function"
    },
    {
      "inputs": [],
      "name": "renounceOwnership",
      "outputs": [],
      "stateMutability": "nonpayable",
      "type": "function"
    },
    {
      "inputs": [
        {
          "internalType": "contract IERC20",
          "name": "erc20",
          "type": "address"
        }
      ],
      "name": "setERC20",
      "outputs": [],
      "stateMutability": "nonpayable",
      "type": "function"
    },
    {
      "inputs": [
        {
          "internalType": "uint256",
          "name": "txo",
          "type": "uint256"
        }
      ],
      "name": "spent",
      "outputs": [
        {
          "internalType": "bool",
          "name": "",
          "type": "bool"
        }
      ],
      "stateMutability": "view",
      "type": "function"
    },
    {
      "inputs": [],
      "name": "symbol",
      "outputs": [
        {
          "internalType": "string",
          "name": "",
          "type": "string"
        }
      ],
      "stateMutability": "view",
      "type": "function"
    },
    {
      "inputs": [
        {
          "internalType": "uint256[]",
          "name": "inputs",
          "type": "uint256[]"
        },
        {
          "internalType": "uint256[]",
          "name": "outputs",
          "type": "uint256[]"
        },
        {
          "internalType": "uint256",
          "name": "encryptionNonce",
          "type": "uint256"
        },
        {
          "internalType": "uint256[2]",
          "name": "ecdhPublicKey",
          "type": "uint256[2]"
        },
        {
          "internalType": "uint256[]",
          "name": "encryptedValues",
          "type": "uint256[]"
        },
        {
          "components": [
            {
              "internalType": "uint256[2]",
              "name": "pA",
              "type": "uint256[2]"
            },
            {
              "internalType": "uint256[2][2]",
              "name": "pB",
              "type": "uint256[2][2]"
            },
            {
              "internalType": "uint256[2]",
              "name": "pC",
              "type": "uint256[2]"
            }
          ],
          "internalType": "struct Commonlib.Proof",
          "name": "proof",
          "type": "tuple"
        },
        {
          "internalType": "bytes",
          "name": "data",
          "type": "bytes"
        }
      ],
      "name": "transfer",
      "outputs": [
        {
          "internalType": "bool",
          "name": "",
          "type": "bool"
        }
      ],
      "stateMutability": "nonpayable",
      "type": "function"
    },
    {
      "inputs": [
        {
          "internalType": "address",
          "name": "newOwner",
          "type": "address"
        }
      ],
      "name": "transferOwnership",
      "outputs": [],
      "stateMutability": "nonpayable",
      "type": "function"
    },
    {
      "inputs": [
        {
          "internalType": "address",
          "name": "newImplementation",
          "type": "address"
        },
        {
          "internalType": "bytes",
          "name": "data",
          "type": "bytes"
        }
      ],
      "name": "upgradeToAndCall",
      "outputs": [],
      "stateMutability": "payable",
      "type": "function"
    },
    {
      "inputs": [
        {
          "internalType": "uint256",
          "name": "amount",
          "type": "uint256"
        },
        {
          "internalType": "uint256[]",
          "name": "inputs",
          "type": "uint256[]"
        },
        {
          "internalType": "uint256",
          "name": "output",
          "type": "uint256"
        },
        {
          "components": [
            {
              "internalType": "uint256[2]",
              "name": "pA",
              "type": "uint256[2]"
            },
            {
              "internalType": "uint256[2][2]",
              "name": "pB",
              "type": "uint256[2][2]"
            },
            {
              "internalType": "uint256[2]",
              "name": "pC",
              "type": "uint256[2]"
            }
          ],
          "internalType": "struct Commonlib.Proof",
          "name": "proof",
          "type": "tuple"
        },
        {
          "internalType": "bytes",
          "name": "data",
          "type": "bytes"
        }
      ],
      "name": "withdraw",
      "outputs": [],
      "stateMutability": "nonpayable",
      "type": "function"
    }
  ],
  "bytecode": "0x60a060405230608052348015601357600080fd5b5060805161381161003d6000396000818161179d015281816117c6015261194401526138116000f3fe6080604052600436106101805760003560e01c80639fcc50af116100d6578063d5b5cc231161007f578063f2fde38b11610059578063f2fde38b1461047a578063f586acdb1461049a578063fb85d41c146104ba57600080fd5b8063d5b5cc231461040a578063da805f111461043a578063e4e3842a1461045a57600080fd5b8063b45a3c0e116100b0578063b45a3c0e1461038b578063c29a6fda146103ca578063cd523c73146103ea57600080fd5b80639fcc50af14610302578063a4ef9ad114610322578063ad3cb1cc1461034257600080fd5b80634f1ef286116101385780638bb2513b116101125780638bb2513b146102865780638da5cb5b146102a657806395d89b41146102ed57600080fd5b80634f1ef2861461023b57806352d1902d1461024e578063715018a61461027157600080fd5b806324ce729e1161016957806324ce729e146101d2578063313ce567146101ff5780634ad899291461021b57600080fd5b80630107eb4a1461018557806306fdde03146101a7575b600080fd5b34801561019157600080fd5b506101a56101a0366004612aec565b6104da565b005b3480156101b357600080fd5b506101bc61051a565b6040516101c99190612b5b565b60405180910390f35b3480156101de57600080fd5b506101f26101ed366004612c58565b6105ac565b6040516101c99190612cc9565b34801561020b57600080fd5b50604051600481526020016101c9565b34801561022757600080fd5b506101a5610236366004612cf5565b61061f565b6101a5610249366004612db4565b6109b3565b34801561025a57600080fd5b506102636109d2565b6040519081526020016101c9565b34801561027d57600080fd5b506101a5610a01565b34801561029257600080fd5b506101a56102a1366004612e61565b610a15565b3480156102b257600080fd5b507f9016d09d72d40fdae2fd8ceac6b6234c7706214fd39c1cd1e609a0528c199300546040516001600160a01b0390911681526020016101c9565b3480156102f957600080fd5b506101bc610a2d565b34801561030e57600080fd5b506101a561031d366004612ecf565b610a3c565b34801561032e57600080fd5b506101a561033d366004612eec565b610a66565b34801561034e57600080fd5b506101bc6040518060400160405280600581526020017f352e302e3000000000000000000000000000000000000000000000000000000081525081565b34801561039757600080fd5b506103ab6103a6366004612f6a565b610bdc565b6040805192151583526001600160a01b039091166020830152016101c9565b3480156103d657600080fd5b506101a56103e5366004612ecf565b610c36565b3480156103f657600080fd5b506101a5610405366004612f83565b610c60565b34801561041657600080fd5b5061042a610425366004612f6a565b610c7d565b60405190151581526020016101c9565b34801561044657600080fd5b506101a5610455366004613010565b610cd5565b34801561046657600080fd5b5061042a6104753660046130d9565b610e6f565b34801561048657600080fd5b506101a5610495366004612ecf565b61122a565b3480156104a657600080fd5b506101a56104b53660046131ee565b611281565b3480156104c657600080fd5b506101a56104d5366004613286565b611453565b6104e261154d565b6104eb83610a3c565b600780546001600160a01b039384166001600160a01b0319918216179091556008805492909316911617905550565b6060600080546105299061331c565b80601f01602080910402602001604051908101604052809291908181526020018280546105559061331c565b80156105a25780601f10610577576101008083540402835291602001916105a2565b820191906000526020600020905b81548152906001019060200180831161058557829003601f168201915b5050505050905090565b8051606090600a8111156105f4576040517f9ebbc98e000000000000000000000000000000000000000000000000000000008152600a60048201526024015b60405180910390fd5b600060028211156106075750600a61060b565b5060025b610617848260006115b4565b949350505050565b60028351111561079f57600c83511115610668576040517f71798fb5000000000000000000000000000000000000000000000000000000008152600c60048201526024016105eb565b6000610677858585600c611694565b9050610681612a3e565b60005b600c8110156106c65782818151811061069f5761069f613350565b60200260200101518282600c81106106b9576106b9613350565b6020020152600101610684565b50600854604080517f8cbac0fa0000000000000000000000000000000000000000000000000000000081526001600160a01b0390921691638cbac0fa9161071b91879182019060c0830190879060040161338b565b602060405180830381865afa158015610738573d6000803e3d6000fd5b505050506040513d601f19601f8201168201806040525081019061075c91906133de565b6107985760405162461bcd60e51b815260206004820152600d60248201526c24b73b30b634b210383937b7b360991b60448201526064016105eb565b50506108d2565b60006107ae8585856004611694565b90506107b8612a5d565b60005b60048110156107fd578281815181106107d6576107d6613350565b60200260200101518282600481106107f0576107f0613350565b60200201526001016107bb565b50600754604080517f5fe8c13b0000000000000000000000000000000000000000000000000000000081526001600160a01b0390921691635fe8c13b9161085291879182019060c08301908790600401613400565b602060405180830381865afa15801561086f573d6000803e3d6000fd5b505050506040513d601f19601f8201168201806040525081019061089391906133de565b6108cf5760405162461bcd60e51b815260206004820152600d60248201526c24b73b30b634b210383937b7b360991b60448201526064016105eb565b50505b6006546040517fa9059cbb000000000000000000000000000000000000000000000000000000008152336004820152602481018690526001600160a01b039091169063a9059cbb906044015b6020604051808303816000875af115801561093d573d6000803e3d6000fd5b505050506040513d601f19601f8201168201806040525081019061096191906133de565b6109ad5760405162461bcd60e51b815260206004820152601f60248201527f4661696c656420746f207472616e7366657220455243323020746f6b656e730060448201526064016105eb565b50505050565b6109bb611792565b6109c482611849565b6109ce8282611851565b5050565b60006109dc611939565b507f360894a13ba1a3210667c828492db98dca3e2076cc3735a920a3ca505d382bbc90565b610a09611982565b610a1360006119f6565b565b610a1d611982565b610a28838383611a67565b505050565b6060600180546105299061331c565b610a4461154d565b600580546001600160a01b0319166001600160a01b0392909216919091179055565b60005b8451811015610b8657848181518110610a8457610a84613350565b602002602001015160000315610b7e57336001600160a01b031660046000878481518110610ab457610ab4613350565b6020908102919091018101518252810191909152604001600020546001600160a01b031614610b2c57848181518110610aef57610aef613350565b6020908102919091010151604051639fec262f60e01b815260048101919091526001600160a01b03851660248201523360448201526064016105eb565b8360046000878481518110610b4357610b43613350565b6020026020010151815260200190815260200160002060006101000a8154816001600160a01b0302191690836001600160a01b031602179055505b600101610a69565b50826001600160a01b0316336001600160a01b03167fb81fc4239cf1f8a9964a337bb7866ffeb712f9e482d9cef0f5fac9fe3bd655b2868585604051610bce93929190613470565b60405180910390a350505050565b600080600160008481526003602052604090205460ff166002811115610c0457610c04613496565b03610c2b5750506000908152600460205260409020546001916001600160a01b0390911690565b506000928392509050565b610c3e611982565b600680546001600160a01b0319166001600160a01b0392909216919091179055565b610c6b858585610cd5565b610c76848383611a67565b5050505050565b600081815260026020819052604082205460ff1681811115610ca157610ca1613496565b1480610ccf5750600260008381526003602052604090205460ff166002811115610ccd57610ccd613496565b145b92915050565b610cdd612a7b565b83815282518390600090610cf357610cf3613350565b602002602001015181600160038110610d0e57610d0e613350565b6020020152825183906001908110610d2857610d28613350565b602002602001015181600260038110610d4357610d43613350565b6020020152600554604080517f11479fea0000000000000000000000000000000000000000000000000000000081526001600160a01b03909216916311479fea91610d9c91869182019060c083019087906004016134ac565b602060405180830381865afa158015610db9573d6000803e3d6000fd5b505050506040513d601f19601f82011682018060405250810190610ddd91906133de565b610e195760405162461bcd60e51b815260206004820152600d60248201526c24b73b30b634b210383937b7b360991b60448201526064016105eb565b6006546040517f23b872dd000000000000000000000000000000000000000000000000000000008152336004820152306024820152604481018690526001600160a01b03909116906323b872dd9060640161091e565b6000610e7a896105ac565b9850610e85886105ac565b97506060610e968a8a836000611ac3565b5060028a511180610ea8575060028951115b15610ff6576000610ebe8b8b8b8b8b603f611bdb565b9050610ec8612a99565b60005b603f811015610f0d57828181518110610ee657610ee6613350565b60200260200101518282603f8110610f0057610f00613350565b6020020152600101610ecb565b50600a54604080517f7d4090260000000000000000000000000000000000000000000000000000000081526001600160a01b0390921691637d40902691610f62918b9182019060c083019087906004016134f3565b602060405180830381865afa158015610f7f573d6000803e3d6000fd5b505050506040513d601f19601f82011682018060405250810190610fa391906133de565b610fef5760405162461bcd60e51b815260206004820152601560248201527f496e76616c69642070726f6f662028626174636829000000000000000000000060448201526064016105eb565b505061112b565b60006110078b8b8b8b8b600f611bdb565b9050611011612ab8565b60005b600f8110156110565782818151811061102f5761102f613350565b60200260200101518282600f811061104957611049613350565b6020020152600101611014565b50600954604080517ff054a9a30000000000000000000000000000000000000000000000000000000081526001600160a01b039092169163f054a9a3916110ab918b9182019060c0830190879060040161353a565b602060405180830381865afa1580156110c8573d6000803e3d6000fd5b505050506040513d601f19601f820116820180604052508101906110ec91906133de565b6111285760405162461bcd60e51b815260206004820152600d60248201526c24b73b30b634b210383937b7b360991b60448201526064016105eb565b50505b6111388a8a836000611db4565b6000865167ffffffffffffffff81111561115457611154612b8e565b60405190808252806020026020018201604052801561117d578160200160208202803683370190505b50905060005b87518110156111cb5787818151811061119e5761119e613350565b60200260200101518282815181106111b8576111b8613350565b6020908102919091010152600101611183565b50336001600160a01b03167f18fd5042f65c100c3eb616143f0e3d2d83f7efe63df2a868b19f0b823c08a21b8c8c8c8c868b8b6040516112119796959493929190613581565b60405180910390a25060019a9950505050505050505050565b611232611982565b6001600160a01b038116611275576040517f1e4fbdf7000000000000000000000000000000000000000000000000000000008152600060048201526024016105eb565b61127e816119f6565b50565b7ff0c57e16840df040f15088dc2f81fe391c3923bec73e23a9662efc9c229c6a00805468010000000000000000810460ff16159067ffffffffffffffff166000811580156112cc5750825b905060008267ffffffffffffffff1660011480156112e95750303b155b9050811580156112f7575080155b1561132e576040517ff92ee8a900000000000000000000000000000000000000000000000000000000815260040160405180910390fd5b845467ffffffffffffffff19166001178555831561136257845468ff00000000000000001916680100000000000000001785555b61136d898989611dd0565b6113a06113806040880160208901612ecf565b6113906060890160408a01612ecf565b6101a060e08a0160c08b01612ecf565b6113ad6020870187612ecf565b600980546001600160a01b0319166001600160a01b03929092169190911790556113dd60c0870160a08801612ecf565b600a80546001600160a01b0319166001600160a01b0392909216919091179055831561144857845468ff000000000000000019168555604051600181527fc7f505b2f371ae2175ee4913f4499e1f2633a7b5936321eed1cdaeb6115181d29060200160405180910390a15b505050505050505050565b6000855167ffffffffffffffff81111561146f5761146f612b8e565b604051908082528060200260200182016040528015611498578160200160208202803683370190505b50905084816000815181106114af576114af613350565b6020026020010181815250506114c4866105ac565b95506114cf816105ac565b905060606114e08783836000611ac3565b506114ed8888888861061f565b6114fa8783836000611db4565b336001600160a01b03167f7d8a8f009bcd9cd0dc27e36fe37cc7cfe2bbd1469c0970d31046d3c12ec7f48c898989888860405161153b95949392919061360d565b60405180910390a25050505050505050565b7ff0c57e16840df040f15088dc2f81fe391c3923bec73e23a9662efc9c229c6a005468010000000000000000900460ff16610a13576040517fd7e6bcf800000000000000000000000000000000000000000000000000000000815260040160405180910390fd5b6060828451036115c557508261168d565b60008367ffffffffffffffff8111156115e0576115e0612b8e565b604051908082528060200260200182016040528015611609578160200160208202803683370190505b50905060005b85518110156116575785818151811061162a5761162a613350565b602002602001015182828151811061164457611644613350565b602090810291909101015260010161160f565b5084515b84811015611689578382828151811061167657611676613350565b602090810291909101015260010161165b565b5090505b9392505050565b60608167ffffffffffffffff8111156116af576116af612b8e565b6040519080825280602002602001820160405280156116d8578160200160208202803683370190505b50905060008582826116e981613661565b9350815181106116fb576116fb613350565b60200260200101818152505060005b855181101561175e5785818151811061172557611725613350565b602002602001015183838061173990613661565b94508151811061174b5761174b613350565b602090810291909101015260010161170a565b5083828261176b81613661565b93508151811061177d5761177d613350565b60200260200101818152505050949350505050565b306001600160a01b037f000000000000000000000000000000000000000000000000000000000000000016148061182b57507f00000000000000000000000000000000000000000000000000000000000000006001600160a01b031661181f7f360894a13ba1a3210667c828492db98dca3e2076cc3735a920a3ca505d382bbc546001600160a01b031690565b6001600160a01b031614155b15610a135760405163703e46dd60e11b815260040160405180910390fd5b61127e611982565b816001600160a01b03166352d1902d6040518163ffffffff1660e01b8152600401602060405180830381865afa9250505080156118ab575060408051601f3d908101601f191682019092526118a89181019061367a565b60015b6118d357604051634c9c8ce360e01b81526001600160a01b03831660048201526024016105eb565b7f360894a13ba1a3210667c828492db98dca3e2076cc3735a920a3ca505d382bbc811461192f576040517faa1d49a4000000000000000000000000000000000000000000000000000000008152600481018290526024016105eb565b610a288383611de3565b306001600160a01b037f00000000000000000000000000000000000000000000000000000000000000001614610a135760405163703e46dd60e11b815260040160405180910390fd5b336119b47f9016d09d72d40fdae2fd8ceac6b6234c7706214fd39c1cd1e609a0528c199300546001600160a01b031690565b6001600160a01b031614610a13576040517f118cdaa70000000000000000000000000000000000000000000000000000000081523360048201526024016105eb565b7f9016d09d72d40fdae2fd8ceac6b6234c7706214fd39c1cd1e609a0528c19930080546001600160a01b031981166001600160a01b03848116918217845560405192169182907f8be0079c531659141344cd1fd0a4f28419497f9722a3daafe3b4186f6b6457e090600090a3505050565b611a7083611e39565b611a7983612105565b336001600160a01b03167f7ff08e0ca1fce6b202b83128811e4f6ceda54930aa074cd365bf68f95c20ce19848484604051611ab693929190613470565b60405180910390a2505050565b60008083518551611ad49190613693565b67ffffffffffffffff811115611aec57611aec612b8e565b604051908082528060200260200182016040528015611b15578160200160208202803683370190505b50905060005b8551811015611b6357858181518110611b3657611b36613350565b6020026020010151828281518110611b5057611b50613350565b6020908102919091010152600101611b1b565b5060005b8451811015611bbb57848181518110611b8257611b82613350565b602002602001015182828851611b989190613693565b81518110611ba857611ba8613350565b6020908102919091010152600101611b67565b50611bc6868461218f565b611bcf81611e39565b50600195945050505050565b60608167ffffffffffffffff811115611bf657611bf6612b8e565b604051908082528060200260200182016040528015611c1f578160200160208202803683370190505b5090506000805b6002811015611c7657858160028110611c4157611c41613350565b60200201518383611c5181613661565b945081518110611c6357611c63613350565b6020908102919091010152600101611c26565b5060005b8451811015611cce57848181518110611c9557611c95613350565b6020026020010151838380611ca990613661565b945081518110611cbb57611cbb613350565b6020908102919091010152600101611c7a565b5060005b8851811015611d2657888181518110611ced57611ced613350565b6020026020010151838380611d0190613661565b945081518110611d1357611d13613350565b6020908102919091010152600101611cd2565b5060005b8751811015611d7e57878181518110611d4557611d45613350565b6020026020010151838380611d5990613661565b945081518110611d6b57611d6b613350565b6020908102919091010152600101611d2a565b50858282611d8b81613661565b935081518110611d9d57611d9d613350565b602002602001018181525050509695505050505050565b611dbe8482612593565b611dc783612105565b6109ad8261262f565b611dd861154d565b610a288383836126b9565b611dec826126e3565b6040516001600160a01b038316907fbc7cd75a20ee27fd9adebab32041f755214dbc6bffa90cc0225b39da2e5c2d3b90600090a2805115611e3157610a28828261275a565b6109ce6127d0565b6000611e4482612808565b905060005b8151811015611f1b57818181518110611e6457611e64613350565b602002602001015160000315611f1357600081118015611ebf575081611e8b6001836136a6565b81518110611e9b57611e9b613350565b6020026020010151828281518110611eb557611eb5613350565b6020026020010151145b15611f1357818181518110611ed657611ed6613350565b60200260200101516040517fdd5748310000000000000000000000000000000000000000000000000000000081526004016105eb91815260200190565b600101611e49565b5060005b8251811015610a28576002806000858481518110611f3f57611f3f613350565b60209081029190910181015182528101919091526040016000205460ff166002811115611f6e57611f6e613496565b1480611fbe5750600260036000858481518110611f8d57611f8d613350565b60209081029190910181015182528101919091526040016000205460ff166002811115611fbc57611fbc613496565b145b1561201257828181518110611fd557611fd5613350565b60200260200101516040517f41a06d280000000000000000000000000000000000000000000000000000000081526004016105eb91815260200190565b60016002600085848151811061202a5761202a613350565b60209081029190910181015182528101919091526040016000205460ff16600281111561205957612059613496565b14806120a9575060016003600085848151811061207857612078613350565b60209081029190910181015182528101919091526040016000205460ff1660028111156120a7576120a7613496565b145b156120fd578281815181106120c0576120c0613350565b60200260200101516040517f79e1da470000000000000000000000000000000000000000000000000000000081526004016105eb91815260200190565b600101611f1f565b60005b81518110156109ce5781818151811061212357612123613350565b60200260200101516000146121875760016002600084848151811061214a5761214a613350565b6020026020010151815260200190815260200160002060006101000a81548160ff0219169083600281111561218157612181613496565b02179055505b600101612108565b600061219a83612808565b905060005b81518110156109ad578181815181106121ba576121ba613350565b60200260200101516000031561258b576000811180156122155750816121e16001836136a6565b815181106121f1576121f1613350565b602002602001015182828151811061220b5761220b613350565b6020026020010151145b1561222c57818181518110611ed657611ed6613350565b60006003600084848151811061224457612244613350565b60209081029190910181015182528101919091526040016000205460ff16600281111561227357612273613496565b1480156122c4575060006002600084848151811061229357612293613350565b60209081029190910181015182528101919091526040016000205460ff1660028111156122c2576122c2613496565b145b15612318578181815181106122db576122db613350565b60200260200101516040517f839251270000000000000000000000000000000000000000000000000000000081526004016105eb91815260200190565b60026003600084848151811061233057612330613350565b60209081029190910181015182528101919091526040016000205460ff16600281111561235f5761235f613496565b14806123ae5750600280600084848151811061237d5761237d613350565b60209081029190910181015182528101919091526040016000205460ff1660028111156123ac576123ac613496565b145b156123c557818181518110611fd557611fd5613350565b8215801561241757506001600360008484815181106123e6576123e6613350565b60209081029190910181015182528101919091526040016000205460ff16600281111561241557612415613496565b145b1561246b5781818151811061242e5761242e613350565b60200260200101516040517fd60f4acc0000000000000000000000000000000000000000000000000000000081526004016105eb91815260200190565b8280156124ba5750336001600160a01b03166004600084848151811061249357612493613350565b6020908102919091018101518252810191909152604001600020546001600160a01b031614155b8015612509575060006001600160a01b0316600460008484815181106124e2576124e2613350565b6020908102919091018101518252810191909152604001600020546001600160a01b031614155b1561258b5781818151811061252057612520613350565b60200260200101516004600084848151811061253e5761253e613350565b60209081029190910181015182528101919091526040908101600020549051639fec262f60e01b815260048101929092526001600160a01b031660248201523360448201526064016105eb565b60010161219f565b6000816125a15760026125a4565b60035b905060005b83518110156109ad578381815181106125c4576125c4613350565b60200260200101516000146126275760028260008684815181106125ea576125ea613350565b6020026020010151815260200190815260200160002060006101000a81548160ff0219169083600281111561262157612621613496565b02179055505b6001016125a9565b60005b81518110156109ce5781818151811061264d5761264d613350565b60200260200101516000146126b15760016003600084848151811061267457612674613350565b6020026020010151815260200190815260200160002060006101000a81548160ff021916908360028111156126ab576126ab613496565b02179055505b600101612632565b6126c161154d565b6126ca816128a7565b60006126d68482613700565b5060016109ad8382613700565b806001600160a01b03163b60000361271957604051634c9c8ce360e01b81526001600160a01b03821660048201526024016105eb565b7f360894a13ba1a3210667c828492db98dca3e2076cc3735a920a3ca505d382bbc80546001600160a01b0319166001600160a01b0392909216919091179055565b6060600080846001600160a01b03168460405161277791906137bf565b600060405180830381855af49150503d80600081146127b2576040519150601f19603f3d011682016040523d82523d6000602084013e6127b7565b606091505b50915091506127c78583836128b8565b95945050505050565b3415610a13576040517fb398979f00000000000000000000000000000000000000000000000000000000815260040160405180910390fd5b60606000825167ffffffffffffffff81111561282657612826612b8e565b60405190808252806020026020018201604052801561284f578160200160208202803683370190505b50905060005b835181101561289d5783818151811061287057612870613350565b602002602001015182828151811061288a5761288a613350565b6020908102919091010152600101612855565b5061168d8161292d565b6128af61154d565b61127e81612942565b6060826128cd576128c88261294a565b61168d565b81511580156128e457506001600160a01b0384163b155b15612926576040517f9996b3150000000000000000000000000000000000000000000000000000000081526001600160a01b03851660048201526024016105eb565b508061168d565b606061293b8261298c612990565b5090919050565b61123261154d565b80511561295a5780518082602001fd5b6040517fd6bda27500000000000000000000000000000000000000000000000000000000815260040160405180910390fd5b1190565b606061293b602084016129a2856129a8565b846129c0565b600081516020026129b98360200190565b0192915050565b604083830310156129d057505050565b60006129da845190565b905083602081015b84811015612a1c576129ff6129f5825190565b848663ffffffff16565b15612a14576020919091018051825182528252905b6020016129e2565b508451815186528152612a308582856129c0565b610c768160200185856129c0565b604051806101800160405280600c906020820280368337509192915050565b60405180608001604052806004906020820280368337509192915050565b60405180606001604052806003906020820280368337509192915050565b604051806107e00160405280603f906020820280368337509192915050565b604051806101e00160405280600f906020820280368337509192915050565b6001600160a01b038116811461127e57600080fd5b600080600060608486031215612b0157600080fd5b8335612b0c81612ad7565b92506020840135612b1c81612ad7565b91506040840135612b2c81612ad7565b809150509250925092565b60005b83811015612b52578181015183820152602001612b3a565b50506000910152565b6020815260008251806020840152612b7a816040850160208701612b37565b601f01601f19169190910160400192915050565b634e487b7160e01b600052604160045260246000fd5b604051601f8201601f1916810167ffffffffffffffff81118282101715612bcd57612bcd612b8e565b604052919050565b600082601f830112612be657600080fd5b813567ffffffffffffffff811115612c0057612c00612b8e565b8060051b612c1060208201612ba4565b91825260208185018101929081019086841115612c2c57600080fd5b6020860192505b83831015612c4e578235825260209283019290910190612c33565b9695505050505050565b600060208284031215612c6a57600080fd5b813567ffffffffffffffff811115612c8157600080fd5b61061784828501612bd5565b600081518084526020840193506020830160005b82811015612cbf578151865260209586019590910190600101612ca1565b5093949350505050565b60208152600061168d6020830184612c8d565b60006101008284031215612cef57600080fd5b50919050565b6000806000806101608587031215612d0c57600080fd5b84359350602085013567ffffffffffffffff811115612d2a57600080fd5b612d3687828801612bd5565b93505060408501359150612d4d8660608701612cdc565b905092959194509250565b60008067ffffffffffffffff841115612d7357612d73612b8e565b50601f8301601f1916602001612d8881612ba4565b915050828152838383011115612d9d57600080fd5b828260208301376000602084830101529392505050565b60008060408385031215612dc757600080fd5b8235612dd281612ad7565b9150602083013567ffffffffffffffff811115612dee57600080fd5b8301601f81018513612dff57600080fd5b612e0e85823560208401612d58565b9150509250929050565b60008083601f840112612e2a57600080fd5b50813567ffffffffffffffff811115612e4257600080fd5b602083019150836020828501011115612e5a57600080fd5b9250929050565b600080600060408486031215612e7657600080fd5b833567ffffffffffffffff811115612e8d57600080fd5b612e9986828701612bd5565b935050602084013567ffffffffffffffff811115612eb657600080fd5b612ec286828701612e18565b9497909650939450505050565b600060208284031215612ee157600080fd5b813561168d81612ad7565b60008060008060608587031215612f0257600080fd5b843567ffffffffffffffff811115612f1957600080fd5b612f2587828801612bd5565b9450506020850135612f3681612ad7565b9250604085013567ffffffffffffffff811115612f5257600080fd5b612f5e87828801612e18565b95989497509550505050565b600060208284031215612f7c57600080fd5b5035919050565b60008060008060006101608688031215612f9c57600080fd5b85359450602086013567ffffffffffffffff811115612fba57600080fd5b612fc688828901612bd5565b945050612fd68760408801612cdc565b925061014086013567ffffffffffffffff811115612ff357600080fd5b612fff88828901612e18565b969995985093965092949392505050565b6000806000610140848603121561302657600080fd5b83359250602084013567ffffffffffffffff81111561304457600080fd5b61305086828701612bd5565b9250506130608560408601612cdc565b90509250925092565b600082601f83011261307a57600080fd5b6040805190810167ffffffffffffffff8111828210171561309d5761309d612b8e565b80604052508060408401858111156130b457600080fd5b845b818110156130ce5780358352602092830192016130b6565b509195945050505050565b6000806000806000806000806101e0898b0312156130f657600080fd5b883567ffffffffffffffff81111561310d57600080fd5b6131198b828c01612bd5565b985050602089013567ffffffffffffffff81111561313657600080fd5b6131428b828c01612bd5565b975050604089013595506131598a60608b01613069565b945060a089013567ffffffffffffffff81111561317557600080fd5b6131818b828c01612bd5565b9450506131918a60c08b01612cdc565b92506101c089013567ffffffffffffffff8111156131ae57600080fd5b6131ba8b828c01612e18565b999c989b5096995094979396929594505050565b600082601f8301126131df57600080fd5b61168d83833560208501612d58565b60008060008084860361018081121561320657600080fd5b853567ffffffffffffffff81111561321d57600080fd5b613229888289016131ce565b955050602086013567ffffffffffffffff81111561324657600080fd5b613252888289016131ce565b945050604086013561326381612ad7565b9250610120605f198201121561327857600080fd5b509295919450926060019150565b60008060008060008061018087890312156132a057600080fd5b86359550602087013567ffffffffffffffff8111156132be57600080fd5b6132ca89828a01612bd5565b955050604087013593506132e18860608901612cdc565b925061016087013567ffffffffffffffff8111156132fe57600080fd5b61330a89828a01612e18565b979a9699509497509295939492505050565b600181811c9082168061333057607f821691505b602082108103612cef57634e487b7160e01b600052602260045260246000fd5b634e487b7160e01b600052603260045260246000fd5b8060005b60028110156109ad576040828537604093840193919091019060010161336a565b610280810160408683376133a26040830186613366565b60408460c084013761010082018360005b600c8110156133d25781518352602092830192909101906001016133b3565b50505095945050505050565b6000602082840312156133f057600080fd5b8151801515811461168d57600080fd5b610180810160408683376134176040830186613366565b60408460c084013761010082018360005b60048110156133d2578151835260209283019290910190600101613428565b81835281816020850137506000828201602090810191909152601f909101601f19169091010190565b6040815260006134836040830186612c8d565b8281036020840152612c4e818587613447565b634e487b7160e01b600052602160045260246000fd5b610160810160408683376134c36040830186613366565b60408460c084013761010082018360005b60038110156133d25781518352602092830192909101906001016134d4565b6108e08101604086833761350a6040830186613366565b60408460c084013761010082018360005b603f8110156133d257815183526020928301929091019060010161351b565b6102e0810160408683376135516040830186613366565b60408460c084013761010082018360005b600f8110156133d2578151835260209283019290910190600101613562565b60e08152600061359460e083018a612c8d565b82810360208401526135a6818a612c8d565b9050876040840152606083018760005b60028110156135d55781518352602092830192909101906001016135b6565b50505082810360a08401526135ea8187612c8d565b905082810360c08401526135ff818587613447565b9a9950505050505050505050565b8581526080602082015260006136266080830187612c8d565b856040840152828103606084015261363f818587613447565b98975050505050505050565b634e487b7160e01b600052601160045260246000fd5b6000600182016136735761367361364b565b5060010190565b60006020828403121561368c57600080fd5b5051919050565b80820180821115610ccf57610ccf61364b565b81810381811115610ccf57610ccf61364b565b601f821115610a2857806000526020600020601f840160051c810160208510156136e05750805b601f840160051c820191505b81811015610c7657600081556001016136ec565b815167ffffffffffffffff81111561371a5761371a612b8e565b61372e81613728845461331c565b846136b9565b6020601f821160018114613762576000831561374a5750848201515b600019600385901b1c1916600184901b178455610c76565b600084815260208120601f198516915b828110156137925787850151825560209485019460019092019101613772565b50848210156137b05786840151600019600387901b60f8161c191681555b50505050600190811b01905550565b600082516137d1818460208701612b37565b919091019291505056fea2646970667358221220cecce502df33b99a757fc34d88d756a0dd1c020549a19b6c75aa367a954e236164736f6c634300081b0033",
  "linkReferences": {},
  "deployedLinkReferences": {}
}