{
  "_format": "hh-sol-artifact-1",
  "contractName": "Zeto_AnonNullifierKyc",
  "sourceName": "contracts/zeto_anon_nullifier_kyc.sol",
  "abi": [
    {
      "inputs": [
        {
          "internalType": "address",
          "name": "target",
          "type": "address"
        }
      ],
      "name": "AddressEmptyCode",
      "type": "error"
    },
    {
      "inputs": [
        {
          "internalType": "uint256[2]",
          "name": "",
          "type": "uint256[2]"
        }
      ],
      "name": "AlreadyRegistered",
      "type": "error"
    },
    {
      "inputs": [
        {
          "internalType": "address",
          "name": "implementation",
          "type": "address"
        }
      ],
      "name": "ERC1967InvalidImplementation",
      "type": "error"
    },
    {
      "inputs": [],
      "name": "ERC1967NonPayable",
      "type": "error"
    },
    {
      "inputs": [],
      "name": "FailedCall",
      "type": "error"
    },
    {
      "inputs": [],
      "name": "InvalidInitialization",
      "type": "error"
    },
    {
      "inputs": [],
      "name": "NotInitializing",
      "type": "error"
    },
    {
      "inputs": [
        {
          "internalType": "uint256",
          "name": "utxo",
          "type": "uint256"
        },
        {
          "internalType": "address",
          "name": "delegate",
          "type": "address"
        },
        {
          "internalType": "address",
          "name": "sender",
          "type": "address"
        }
      ],
      "name": "NotLockDelegate",
      "type": "error"
    },
    {
      "inputs": [
        {
          "internalType": "address",
          "name": "owner",
          "type": "address"
        }
      ],
      "name": "OwnableInvalidOwner",
      "type": "error"
    },
    {
      "inputs": [
        {
          "internalType": "address",
          "name": "account",
          "type": "address"
        }
      ],
      "name": "OwnableUnauthorizedAccount",
      "type": "error"
    },
    {
      "inputs": [
        {
          "internalType": "uint256",
          "name": "utxo",
          "type": "uint256"
        }
      ],
      "name": "UTXOAlreadyLocked",
      "type": "error"
    },
    {
      "inputs": [
        {
          "internalType": "uint256",
          "name": "utxo",
          "type": "uint256"
        }
      ],
      "name": "UTXOAlreadyOwned",
      "type": "error"
    },
    {
      "inputs": [
        {
          "internalType": "uint256",
          "name": "utxo",
          "type": "uint256"
        }
      ],
      "name": "UTXOAlreadySpent",
      "type": "error"
    },
    {
      "inputs": [
        {
          "internalType": "uint256",
          "name": "maxAllowed",
          "type": "uint256"
        }
      ],
      "name": "UTXOArrayTooLarge",
      "type": "error"
    },
    {
      "inputs": [
        {
          "internalType": "uint256",
          "name": "utxo",
          "type": "uint256"
        }
      ],
      "name": "UTXODuplicate",
      "type": "error"
    },
    {
      "inputs": [
        {
          "internalType": "uint256",
          "name": "utxo",
          "type": "uint256"
        }
      ],
      "name": "UTXONotLocked",
      "type": "error"
    },
    {
      "inputs": [
        {
          "internalType": "uint256",
          "name": "utxo",
          "type": "uint256"
        }
      ],
      "name": "UTXONotMinted",
      "type": "error"
    },
    {
      "inputs": [
        {
          "internalType": "uint256",
          "name": "root",
          "type": "uint256"
        }
      ],
      "name": "UTXORootNotFound",
      "type": "error"
    },
    {
      "inputs": [],
      "name": "UUPSUnauthorizedCallContext",
      "type": "error"
    },
    {
      "inputs": [
        {
          "internalType": "bytes32",
          "name": "slot",
          "type": "bytes32"
        }
      ],
      "name": "UUPSUnsupportedProxiableUUID",
      "type": "error"
    },
    {
      "inputs": [
        {
          "internalType": "uint256",
          "name": "maxAllowed",
          "type": "uint256"
        }
      ],
      "name": "WithdrawArrayTooLarge",
      "type": "error"
    },
    {
      "anonymous": false,
      "inputs": [
        {
          "indexed": false,
          "internalType": "uint256[2]",
          "name": "publicKey",
          "type": "uint256[2]"
        },
        {
          "indexed": false,
          "internalType": "bytes",
          "name": "data",
          "type": "bytes"
        }
      ],
      "name": "IdentityRegistered",
      "type": "event"
    },
    {
      "anonymous": false,
      "inputs": [
        {
          "indexed": false,
          "internalType": "uint64",
          "name": "version",
          "type": "uint64"
        }
      ],
      "name": "Initialized",
      "type": "event"
    },
    {
      "anonymous": false,
      "inputs": [
        {
          "indexed": false,
          "internalType": "uint256[]",
          "name": "lockedOutputs",
          "type": "uint256[]"
        },
        {
          "indexed": true,
          "internalType": "address",
          "name": "oldDelegate",
          "type": "address"
        },
        {
          "indexed": true,
          "internalType": "address",
          "name": "newDelegate",
          "type": "address"
        },
        {
          "indexed": false,
          "internalType": "bytes",
          "name": "data",
          "type": "bytes"
        }
      ],
      "name": "LockDelegateChanged",
      "type": "event"
    },
    {
      "anonymous": false,
      "inputs": [
        {
          "indexed": true,
          "internalType": "address",
          "name": "previousOwner",
          "type": "address"
        },
        {
          "indexed": true,
          "internalType": "address",
          "name": "newOwner",
          "type": "address"
        }
      ],
      "name": "OwnershipTransferred",
      "type": "event"
    },
    {
      "anonymous": false,
      "inputs": [
        {
          "indexed": false,
          "internalType": "uint256[]",
          "name": "inputs",
          "type": "uint256[]"
        },
        {
          "indexed": false,
          "internalType": "uint256",
          "name": "output",
          "type": "uint256"
        },
        {
          "indexed": true,
          "internalType": "address",
          "name": "submitter",
          "type": "address"
        },
        {
          "indexed": false,
          "internalType": "bytes",
          "name": "data",
          "type": "bytes"
        }
      ],
      "name": "UTXOBurn",
      "type": "event"
    },
    {
      "anonymous": false,
      "inputs": [
        {
          "indexed": false,
          "internalType": "uint256[]",
          "name": "outputs",
          "type": "uint256[]"
        },
        {
          "indexed": true,
          "internalType": "address",
          "name": "submitter",
          "type": "address"
        },
        {
          "indexed": false,
          "internalType": "bytes",
          "name": "data",
          "type": "bytes"
        }
      ],
      "name": "UTXOMint",
      "type": "event"
    },
    {
      "anonymous": false,
      "inputs": [
        {
          "indexed": false,
          "internalType": "uint256[]",
          "name": "inputs",
          "type": "uint256[]"
        },
        {
          "indexed": false,
          "internalType": "uint256[]",
          "name": "outputs",
          "type": "uint256[]"
        },
        {
          "indexed": true,
          "internalType": "address",
          "name": "submitter",
          "type": "address"
        },
        {
          "indexed": false,
          "internalType": "bytes",
          "name": "data",
          "type": "bytes"
        }
      ],
      "name": "UTXOTransfer",
      "type": "event"
    },
    {
      "anonymous": false,
      "inputs": [
        {
          "indexed": false,
          "internalType": "uint256[]",
          "name": "inputs",
          "type": "uint256[]"
        },
        {
          "indexed": false,
          "internalType": "uint256[]",
          "name": "outputs",
          "type": "uint256[]"
        },
        {
          "indexed": false,
          "internalType": "uint256",
          "name": "encryptionNonce",
          "type": "uint256"
        },
        {
          "indexed": false,
          "internalType": "uint256[2]",
          "name": "ecdhPublicKey",
          "type": "uint256[2]"
        },
        {
          "indexed": false,
          "internalType": "uint256[]",
          "name": "encryptedValues",
          "type": "uint256[]"
        },
        {
          "indexed": true,
          "internalType": "address",
          "name": "submitter",
          "type": "address"
        },
        {
          "indexed": false,
          "internalType": "bytes",
          "name": "data",
          "type": "bytes"
        }
      ],
      "name": "UTXOTransferWithEncryptedValues",
      "type": "event"
    },
    {
      "anonymous": false,
      "inputs": [
        {
          "indexed": false,
          "internalType": "uint256",
          "name": "amount",
          "type": "uint256"
        },
        {
          "indexed": false,
          "internalType": "uint256[]",
          "name": "inputs",
          "type": "uint256[]"
        },
        {
          "indexed": false,
          "internalType": "uint256",
          "name": "output",
          "type": "uint256"
        },
        {
          "indexed": true,
          "internalType": "address",
          "name": "submitter",
          "type": "address"
        },
        {
          "indexed": false,
          "internalType": "bytes",
          "name": "data",
          "type": "bytes"
        }
      ],
      "name": "UTXOWithdraw",
      "type": "event"
    },
    {
      "anonymous": false,
      "inputs": [
        {
          "indexed": false,
          "internalType": "uint256[]",
          "name": "inputs",
          "type": "uint256[]"
        },
        {
          "indexed": false,
          "internalType": "uint256[]",
          "name": "outputs",
          "type": "uint256[]"
        },
        {
          "indexed": false,
          "internalType": "uint256[]",
          "name": "lockedOutputs",
          "type": "uint256[]"
        },
        {
          "indexed": true,
          "internalType": "address",
          "name": "delegate",
          "type": "address"
        },
        {
          "indexed": true,
          "internalType": "address",
          "name": "submitter",
          "type": "address"
        },
        {
          "indexed": false,
          "internalType": "bytes",
          "name": "data",
          "type": "bytes"
        }
      ],
      "name": "UTXOsLocked",
      "type": "event"
    },
    {
      "anonymous": false,
      "inputs": [
        {
          "indexed": true,
          "internalType": "address",
          "name": "implementation",
          "type": "address"
        }
      ],
      "name": "Upgraded",
      "type": "event"
    },
    {
      "inputs": [],
      "name": "UPGRADE_INTERFACE_VERSION",
      "outputs": [
        {
          "internalType": "string",
          "name": "",
          "type": "string"
        }
      ],
      "stateMutability": "view",
      "type": "function"
    },
    {
      "inputs": [
        {
          "internalType": "contract Groth16Verifier_Deposit",
          "name": "depositVerifier",
          "type": "address"
        }
      ],
      "name": "__ZetoFungible_init",
      "outputs": [],
      "stateMutability": "nonpayable",
      "type": "function"
    },
    {
      "inputs": [
        {
          "internalType": "uint256",
          "name": "amount",
          "type": "uint256"
        },
        {
          "internalType": "uint256[]",
          "name": "outputs",
          "type": "uint256[]"
        },
        {
          "components": [
            {
              "internalType": "uint256[2]",
              "name": "pA",
              "type": "uint256[2]"
            },
            {
              "internalType": "uint256[2][2]",
              "name": "pB",
              "type": "uint256[2][2]"
            },
            {
              "internalType": "uint256[2]",
              "name": "pC",
              "type": "uint256[2]"
            }
          ],
          "internalType": "struct Commonlib.Proof",
          "name": "proof",
          "type": "tuple"
        }
      ],
      "name": "_deposit",
      "outputs": [],
      "stateMutability": "nonpayable",
      "type": "function"
    },
    {
      "inputs": [
        {
          "internalType": "uint256",
          "name": "amount",
          "type": "uint256"
        },
        {
          "internalType": "uint256[]",
          "name": "nullifiers",
          "type": "uint256[]"
        },
        {
          "internalType": "uint256",
          "name": "output",
          "type": "uint256"
        },
        {
          "internalType": "uint256",
          "name": "root",
          "type": "uint256"
        },
        {
          "components": [
            {
              "internalType": "uint256[2]",
              "name": "pA",
              "type": "uint256[2]"
            },
            {
              "internalType": "uint256[2][2]",
              "name": "pB",
              "type": "uint256[2][2]"
            },
            {
              "internalType": "uint256[2]",
              "name": "pC",
              "type": "uint256[2]"
            }
          ],
          "internalType": "struct Commonlib.Proof",
          "name": "proof",
          "type": "tuple"
        }
      ],
      "name": "_withdrawWithNullifiers",
      "outputs": [],
      "stateMutability": "nonpayable",
      "type": "function"
    },
    {
      "inputs": [
        {
          "internalType": "uint256[]",
          "name": "commitments",
          "type": "uint256[]"
        }
      ],
      "name": "checkAndPadCommitments",
      "outputs": [
        {
          "internalType": "uint256[]",
          "name": "",
          "type": "uint256[]"
        }
      ],
      "stateMutability": "pure",
      "type": "function"
    },
    {
      "inputs": [],
      "name": "decimals",
      "outputs": [
        {
          "internalType": "uint8",
          "name": "",
          "type": "uint8"
        }
      ],
      "stateMutability": "view",
      "type": "function"
    },
    {
      "inputs": [
        {
          "internalType": "uint256[]",
          "name": "utxos",
          "type": "uint256[]"
        },
        {
          "internalType": "address",
          "name": "delegate",
          "type": "address"
        },
        {
          "internalType": "bytes",
          "name": "data",
          "type": "bytes"
        }
      ],
      "name": "delegateLock",
      "outputs": [],
      "stateMutability": "nonpayable",
      "type": "function"
    },
    {
      "inputs": [
        {
          "internalType": "uint256",
          "name": "amount",
          "type": "uint256"
        },
        {
          "internalType": "uint256[]",
          "name": "outputs",
          "type": "uint256[]"
        },
        {
          "components": [
            {
              "internalType": "uint256[2]",
              "name": "pA",
              "type": "uint256[2]"
            },
            {
              "internalType": "uint256[2][2]",
              "name": "pB",
              "type": "uint256[2][2]"
            },
            {
              "internalType": "uint256[2]",
              "name": "pC",
              "type": "uint256[2]"
            }
          ],
          "internalType": "struct Commonlib.Proof",
          "name": "proof",
          "type": "tuple"
        },
        {
          "internalType": "bytes",
          "name": "data",
          "type": "bytes"
        }
      ],
      "name": "deposit",
      "outputs": [],
      "stateMutability": "nonpayable",
      "type": "function"
    },
    {
      "inputs": [],
      "name": "getIdentitiesRoot",
      "outputs": [
        {
          "internalType": "uint256",
          "name": "",
          "type": "uint256"
        }
      ],
      "stateMutability": "view",
      "type": "function"
    },
    {
      "inputs": [],
      "name": "getRoot",
      "outputs": [
        {
          "internalType": "uint256",
          "name": "",
          "type": "uint256"
        }
      ],
      "stateMutability": "view",
      "type": "function"
    },
    {
      "inputs": [],
      "name": "getRootForLocked",
      "outputs": [
        {
          "internalType": "uint256",
          "name": "",
          "type": "uint256"
        }
      ],
      "stateMutability": "view",
      "type": "function"
    },
    {
      "inputs": [
        {
          "internalType": "string",
          "name": "name",
          "type": "string"
        },
        {
          "internalType": "string",
          "name": "symbol",
          "type": "string"
        },
        {
          "internalType": "address",
          "name": "initialOwner",
          "type": "address"
        },
        {
          "components": [
            {
              "internalType": "address",
              "name": "verifier",
              "type": "address"
            },
            {
              "internalType": "address",
              "name": "depositVerifier",
              "type": "address"
            },
            {
              "internalType": "address",
              "name": "withdrawVerifier",
              "type": "address"
            },
            {
              "internalType": "address",
              "name": "lockVerifier",
              "type": "address"
            },
            {
              "internalType": "address",
              "name": "burnVerifier",
              "type": "address"
            },
            {
              "internalType": "address",
              "name": "batchVerifier",
              "type": "address"
            },
            {
              "internalType": "address",
              "name": "batchWithdrawVerifier",
              "type": "address"
            },
            {
              "internalType": "address",
              "name": "batchLockVerifier",
              "type": "address"
            },
            {
              "internalType": "address",
              "name": "batchBurnVerifier",
              "type": "address"
            }
          ],
          "internalType": "struct IZetoInitializable.VerifiersInfo",
          "name": "verifiers",
          "type": "tuple"
        }
      ],
      "name": "initialize",
      "outputs": [],
      "stateMutability": "nonpayable",
      "type": "function"
    },
    {
      "inputs": [
        {
          "internalType": "uint256[2]",
          "name": "publicKey",
          "type": "uint256[2]"
        }
      ],
      "name": "isRegistered",
      "outputs": [
        {
          "internalType": "bool",
          "name": "",
          "type": "bool"
        }
      ],
      "stateMutability": "view",
      "type": "function"
    },
    {
      "inputs": [
        {
          "internalType": "uint256[]",
          "name": "nullifiers",
          "type": "uint256[]"
        },
        {
          "internalType": "uint256[]",
          "name": "outputs",
          "type": "uint256[]"
        },
        {
          "internalType": "uint256[]",
          "name": "lockedOutputs",
          "type": "uint256[]"
        },
        {
          "internalType": "uint256",
          "name": "root",
          "type": "uint256"
        },
        {
          "components": [
            {
              "internalType": "uint256[2]",
              "name": "pA",
              "type": "uint256[2]"
            },
            {
              "internalType": "uint256[2][2]",
              "name": "pB",
              "type": "uint256[2][2]"
            },
            {
              "internalType": "uint256[2]",
              "name": "pC",
              "type": "uint256[2]"
            }
          ],
          "internalType": "struct Commonlib.Proof",
          "name": "proof",
          "type": "tuple"
        },
        {
          "internalType": "address",
          "name": "delegate",
          "type": "address"
        },
        {
          "internalType": "bytes",
          "name": "data",
          "type": "bytes"
        }
      ],
      "name": "lock",
      "outputs": [],
      "stateMutability": "nonpayable",
      "type": "function"
    },
    {
      "inputs": [
        {
          "internalType": "uint256",
          "name": "utxo",
          "type": "uint256"
        },
        {
          "internalType": "address",
          "name": "delegate",
          "type": "address"
        }
      ],
      "name": "locked",
      "outputs": [
        {
          "internalType": "bool",
          "name": "",
          "type": "bool"
        },
        {
          "internalType": "address",
          "name": "",
          "type": "address"
        }
      ],
      "stateMutability": "view",
      "type": "function"
    },
    {
      "inputs": [
        {
          "internalType": "uint256[]",
          "name": "utxos",
          "type": "uint256[]"
        },
        {
          "internalType": "bytes",
          "name": "data",
          "type": "bytes"
        }
      ],
      "name": "mint",
      "outputs": [],
      "stateMutability": "nonpayable",
      "type": "function"
    },
    {
      "inputs": [],
      "name": "name",
      "outputs": [
        {
          "internalType": "string",
          "name": "",
          "type": "string"
        }
      ],
      "stateMutability": "view",
      "type": "function"
    },
    {
      "inputs": [],
      "name": "owner",
      "outputs": [
        {
          "internalType": "address",
          "name": "",
          "type": "address"
        }
      ],
      "stateMutability": "view",
      "type": "function"
    },
    {
      "inputs": [],
      "name": "proxiableUUID",
      "outputs": [
        {
          "internalType": "bytes32",
          "name": "",
          "type": "bytes32"
        }
      ],
      "stateMutability": "view",
      "type": "function"
    },
    {
      "inputs": [
        {
          "internalType": "uint256[2]",
          "name": "publicKey",
          "type": "uint256[2]"
        },
        {
          "internalType": "bytes",
          "name": "data",
          "type": "bytes"
        }
      ],
      "name": "register",
      "outputs": [],
      "stateMutability": "nonpayable",
      "type": "function"
    },
    {
      "inputs": [],
      "name": "renounceOwnership",
      "outputs": [],
      "stateMutability": "nonpayable",
      "type": "function"
    },
    {
      "inputs": [
        {
          "internalType": "contract IERC20",
          "name": "erc20",
          "type": "address"
        }
      ],
      "name": "setERC20",
      "outputs": [],
      "stateMutability": "nonpayable",
      "type": "function"
    },
    {
      "inputs": [],
      "name": "symbol",
      "outputs": [
        {
          "internalType": "string",
          "name": "",
          "type": "string"
        }
      ],
      "stateMutability": "view",
      "type": "function"
    },
    {
      "inputs": [
        {
          "internalType": "uint256[]",
          "name": "nullifiers",
          "type": "uint256[]"
        },
        {
          "internalType": "uint256[]",
          "name": "outputs",
          "type": "uint256[]"
        },
        {
          "internalType": "uint256",
          "name": "root",
          "type": "uint256"
        },
        {
          "components": [
            {
              "internalType": "uint256[2]",
              "name": "pA",
              "type": "uint256[2]"
            },
            {
              "internalType": "uint256[2][2]",
              "name": "pB",
              "type": "uint256[2][2]"
            },
            {
              "internalType": "uint256[2]",
              "name": "pC",
              "type": "uint256[2]"
            }
          ],
          "internalType": "struct Commonlib.Proof",
          "name": "proof",
          "type": "tuple"
        },
        {
          "internalType": "bytes",
          "name": "data",
          "type": "bytes"
        }
      ],
      "name": "transfer",
      "outputs": [
        {
          "internalType": "bool",
          "name": "",
          "type": "bool"
        }
      ],
      "stateMutability": "nonpayable",
      "type": "function"
    },
    {
      "inputs": [
        {
          "internalType": "uint256[]",
          "name": "nullifiers",
          "type": "uint256[]"
        },
        {
          "internalType": "uint256[]",
          "name": "outputs",
          "type": "uint256[]"
        },
        {
          "internalType": "uint256",
          "name": "root",
          "type": "uint256"
        },
        {
          "components": [
            {
              "internalType": "uint256[2]",
              "name": "pA",
              "type": "uint256[2]"
            },
            {
              "internalType": "uint256[2][2]",
              "name": "pB",
              "type": "uint256[2][2]"
            },
            {
              "internalType": "uint256[2]",
              "name": "pC",
              "type": "uint256[2]"
            }
          ],
          "internalType": "struct Commonlib.Proof",
          "name": "proof",
          "type": "tuple"
        },
        {
          "internalType": "bytes",
          "name": "data",
          "type": "bytes"
        }
      ],
      "name": "transferLocked",
      "outputs": [
        {
          "internalType": "bool",
          "name": "",
          "type": "bool"
        }
      ],
      "stateMutability": "nonpayable",
      "type": "function"
    },
    {
      "inputs": [
        {
          "internalType": "address",
          "name": "newOwner",
          "type": "address"
        }
      ],
      "name": "transferOwnership",
      "outputs": [],
      "stateMutability": "nonpayable",
      "type": "function"
    },
    {
      "inputs": [
        {
          "internalType": "uint256[]",
          "name": "nullifiers",
          "type": "uint256[]"
        },
        {
          "internalType": "uint256[]",
          "name": "outputs",
          "type": "uint256[]"
        },
        {
          "internalType": "uint256",
          "name": "root",
          "type": "uint256"
        },
        {
          "components": [
            {
              "internalType": "uint256[2]",
              "name": "pA",
              "type": "uint256[2]"
            },
            {
              "internalType": "uint256[2][2]",
              "name": "pB",
              "type": "uint256[2][2]"
            },
            {
              "internalType": "uint256[2]",
              "name": "pC",
              "type": "uint256[2]"
            }
          ],
          "internalType": "struct Commonlib.Proof",
          "name": "proof",
          "type": "tuple"
        },
        {
          "internalType": "bytes",
          "name": "data",
          "type": "bytes"
        }
      ],
      "name": "unlock",
      "outputs": [],
      "stateMutability": "nonpayable",
      "type": "function"
    },
    {
      "inputs": [
        {
          "internalType": "address",
          "name": "newImplementation",
          "type": "address"
        },
        {
          "internalType": "bytes",
          "name": "data",
          "type": "bytes"
        }
      ],
      "name": "upgradeToAndCall",
      "outputs": [],
      "stateMutability": "payable",
      "type": "function"
    },
    {
      "inputs": [
        {
          "internalType": "uint256[]",
          "name": "nullifiers",
          "type": "uint256[]"
        },
        {
          "internalType": "uint256[]",
          "name": "outputs",
          "type": "uint256[]"
        },
        {
          "internalType": "uint256",
          "name": "root",
          "type": "uint256"
        },
        {
          "components": [
            {
              "internalType": "uint256[2]",
              "name": "pA",
              "type": "uint256[2]"
            },
            {
              "internalType": "uint256[2][2]",
              "name": "pB",
              "type": "uint256[2][2]"
            },
            {
              "internalType": "uint256[2]",
              "name": "pC",
              "type": "uint256[2]"
            }
          ],
          "internalType": "struct Commonlib.Proof",
          "name": "proof",
          "type": "tuple"
        }
      ],
      "name": "verifyProof",
      "outputs": [
        {
          "internalType": "bool",
          "name": "",
          "type": "bool"
        }
      ],
      "stateMutability": "view",
      "type": "function"
    },
    {
      "inputs": [
        {
          "internalType": "uint256[]",
          "name": "nullifiers",
          "type": "uint256[]"
        },
        {
          "internalType": "uint256[]",
          "name": "outputs",
          "type": "uint256[]"
        },
        {
          "internalType": "uint256",
          "name": "root",
          "type": "uint256"
        },
        {
          "components": [
            {
              "internalType": "uint256[2]",
              "name": "pA",
              "type": "uint256[2]"
            },
            {
              "internalType": "uint256[2][2]",
              "name": "pB",
              "type": "uint256[2][2]"
            },
            {
              "internalType": "uint256[2]",
              "name": "pC",
              "type": "uint256[2]"
            }
          ],
          "internalType": "struct Commonlib.Proof",
          "name": "proof",
          "type": "tuple"
        }
      ],
      "name": "verifyProofLocked",
      "outputs": [
        {
          "internalType": "bool",
          "name": "",
          "type": "bool"
        }
      ],
      "stateMutability": "view",
      "type": "function"
    },
    {
      "inputs": [
        {
          "internalType": "uint256",
          "name": "amount",
          "type": "uint256"
        },
        {
          "internalType": "uint256[]",
          "name": "nullifiers",
          "type": "uint256[]"
        },
        {
          "internalType": "uint256",
          "name": "output",
          "type": "uint256"
        },
        {
          "internalType": "uint256",
          "name": "root",
          "type": "uint256"
        },
        {
          "components": [
            {
              "internalType": "uint256[2]",
              "name": "pA",
              "type": "uint256[2]"
            },
            {
              "internalType": "uint256[2][2]",
              "name": "pB",
              "type": "uint256[2][2]"
            },
            {
              "internalType": "uint256[2]",
              "name": "pC",
              "type": "uint256[2]"
            }
          ],
          "internalType": "struct Commonlib.Proof",
          "name": "proof",
          "type": "tuple"
        },
        {
          "internalType": "bytes",
          "name": "data",
          "type": "bytes"
        }
      ],
      "name": "withdraw",
      "outputs": [],
      "stateMutability": "nonpayable",
      "type": "function"
    }
  ],
  "bytecode": "0x60a060405230608052348015601357600080fd5b50608051614c3061003d6000396000818161258b015281816125b401526127320152614c306000f3fe6080604052600436106101d85760003560e01c806374366e3c11610102578063c29a6fda11610095578063e585775211610064578063e58577521461059c578063f2fde38b146105bc578063f586acdb146105dc578063f7e648d3146105fc57600080fd5b8063c29a6fda1461051c578063cd523c731461053c578063d07b1cfb1461055c578063da805f111461057c57600080fd5b80639e2a7194116100d15780639e2a7194146104735780639fcc50af14610493578063a4ef9ad1146104b3578063ad3cb1cc146104d357600080fd5b806374366e3c146103d75780638bb2513b146103f75780638da5cb5b1461041757806395d89b411461045e57600080fd5b80632e6ea9941161017a57806352d1902d1161014957806352d1902d146103785780635ca1e1651461038d57806366eded99146103a2578063715018a6146103c257600080fd5b80632e6ea99414610304578063313ce567146103275780633f2b2a1d146103435780634f1ef2861461036557600080fd5b8063234ea4b2116101b6578063234ea4b21461025857806324ce729e1461027857806324ef458a146102a557806329bb0a84146102e457600080fd5b806306fdde03146101dd578063092a18bc1461020857806322414cf314610238575b600080fd5b3480156101e957600080fd5b506101f2610611565b6040516101ff9190613a6c565b60405180910390f35b34801561021457600080fd5b50610228610223366004613b80565b6106a3565b60405190151581526020016101ff565b34801561024457600080fd5b50610228610253366004613c88565b610752565b34801561026457600080fd5b50610228610273366004613d40565b6108ff565b34801561028457600080fd5b50610298610293366004613dc5565b610ba5565b6040516101ff9190613e36565b3480156102b157600080fd5b506102c56102c0366004613e6e565b610c13565b6040805192151583526001600160a01b039091166020830152016101ff565b3480156102f057600080fd5b506102286102ff366004613d40565b610c2c565b34801561031057600080fd5b50610319610dae565b6040519081526020016101ff565b34801561033357600080fd5b50604051600481526020016101ff565b34801561034f57600080fd5b5061036361035e366004613e9e565b610e2b565b005b610363610373366004613fef565b610f76565b34801561038457600080fd5b50610319610f95565b34801561039957600080fd5b50610319610fc4565b3480156103ae57600080fd5b506103636103bd366004614053565b610fff565b3480156103ce57600080fd5b506103636110fb565b3480156103e357600080fd5b506103636103f2366004613c88565b61110f565b34801561040357600080fd5b506103636104123660046140f3565b611126565b34801561042357600080fd5b507f9016d09d72d40fdae2fd8ceac6b6234c7706214fd39c1cd1e609a0528c199300546040516001600160a01b0390911681526020016101ff565b34801561046a57600080fd5b506101f261113e565b34801561047f57600080fd5b5061036361048e366004614161565b61114d565b34801561049f57600080fd5b506103636104ae3660046141ce565b6114e3565b3480156104bf57600080fd5b506103636104ce3660046141eb565b61150d565b3480156104df57600080fd5b506101f26040518060400160405280600581526020017f352e302e3000000000000000000000000000000000000000000000000000000081525081565b34801561052857600080fd5b506103636105373660046141ce565b611749565b34801561054857600080fd5b50610363610557366004614269565b611773565b34801561056857600080fd5b50610228610577366004613c88565b611789565b34801561058857600080fd5b506103636105973660046142f6565b6118de565b3480156105a857600080fd5b506103636105b736600461434f565b611b08565b3480156105c857600080fd5b506103636105d73660046141ce565b611b1b565b3480156105e857600080fd5b506103636105f73660046143aa565b611b72565b34801561060857600080fd5b50610319611db1565b60606000805461062090614442565b80601f016020809104026020016040519081016040528092919081815260200182805461064c90614442565b80156106995780601f1061066e57610100808354040283529160200191610699565b820191906000526020600020905b81548152906001019060200180831161067c57829003601f168201915b5050505050905090565b6000806106af83611dec565b6040516370b867b760e11b8152606b60048201526024810182905290915060009073__$dc6c4dd02ac6da041aea5ed0aea43c2a22$__9063e170cf6e906044015b60a060405180830381865af415801561070d573d6000803e3d6000fd5b505050506040513d601f19601f820116820180604052508101906107319190614476565b9050600081516002811115610748576107486144f6565b1415949350505050565b600061075d87610ba5565b965061076886610ba5565b95506107778787876000611efc565b50610784878787876108ff565b5060606107948888836000611f28565b6000885167ffffffffffffffff8111156107b0576107b0613a9f565b6040519080825280602002602001820160405280156107d9578160200160208202803683370190505b5090506000885167ffffffffffffffff8111156107f8576107f8613a9f565b604051908082528060200260200182016040528015610821578160200160208202803683370190505b50905060005b8a518110156108a7578a81815181106108425761084261450c565b602002602001015183828151811061085c5761085c61450c565b60200260200101818152505089818151811061087a5761087a61450c565b60200260200101518282815181106108945761089461450c565b6020908102919091010152600101610827565b50336001600160a01b03167fcb56a7130431b68e0e636f24584d40580490c1bf882bef3701f317d47ba98c38838389896040516108e7949392919061454b565b60405180910390a25060019998505050505050505050565b6000600285511180610912575060028451115b15610a6557600061092886868660206000611f44565b9050610932613971565b60005b6020811015610977578281815181106109505761095061450c565b602002602001015182826020811061096a5761096a61450c565b6020020152600101610935565b50609e54604080517f3cc08b240000000000000000000000000000000000000000000000000000000081526001600160a01b0390921691633cc08b24916109cc91889182019060c083019087906004016145b5565b602060405180830381865afa1580156109e9573d6000803e3d6000fd5b505050506040513d601f19601f82011682018060405250810190610a0d9190614618565b610a5e5760405162461bcd60e51b815260206004820152601560248201527f496e76616c69642070726f6f662028626174636829000000000000000000000060448201526064015b60405180910390fd5b5050610b9a565b6000610a7686868660086000611f44565b9050610a80613990565b60005b6008811015610ac557828181518110610a9e57610a9e61450c565b6020026020010151828260088110610ab857610ab861450c565b6020020152600101610a83565b50609d54604080517fc9219a7a0000000000000000000000000000000000000000000000000000000081526001600160a01b039092169163c9219a7a91610b1a91889182019060c08301908790600401614633565b602060405180830381865afa158015610b37573d6000803e3d6000fd5b505050506040513d601f19601f82011682018060405250810190610b5b9190614618565b610b975760405162461bcd60e51b815260206004820152600d60248201526c24b73b30b634b210383937b7b360991b6044820152606401610a55565b50505b506001949350505050565b8051606090600a811115610be8576040517f9ebbc98e000000000000000000000000000000000000000000000000000000008152600a6004820152602401610a55565b60006002821115610bfb5750600a610bff565b5060025b610c0b8482600061213d565b949350505050565b600080610c20848461221d565b915091505b9250929050565b6000600285511180610c3f575060028451115b15610cf9576000610c5586868660216001611f44565b9050610c5f6139af565b60005b6021811015610ca457828181518110610c7d57610c7d61450c565b6020026020010151828260218110610c9757610c9761450c565b6020020152600101610c62565b5060a054604080517fee56750f0000000000000000000000000000000000000000000000000000000081526001600160a01b039092169163ee56750f916109cc91889182019060c0830190879060040161467a565b6000610d0a86868660096001611f44565b9050610d146139ce565b60005b6009811015610d5957828181518110610d3257610d3261450c565b6020026020010151828260098110610d4c57610d4c61450c565b6020020152600101610d17565b50609f54604080517fc542c93b0000000000000000000000000000000000000000000000000000000081526001600160a01b039092169163c542c93b91610b1a91889182019060c083019087906004016146c1565b6040516379f9712560e01b8152606b600482015260009073__$dc6c4dd02ac6da041aea5ed0aea43c2a22$__906379f97125906024015b602060405180830381865af4158015610e02573d6000803e3d6000fd5b505050506040513d601f19601f82011682018060405250810190610e269190614708565b905090565b600086518851610e3b9190614737565b67ffffffffffffffff811115610e5357610e53613a9f565b604051908082528060200260200182016040528015610e7c578160200160208202803683370190505b50905060005b8851811015610eca57888181518110610e9d57610e9d61450c565b6020026020010151828281518110610eb757610eb761450c565b6020908102919091010152600101610e82565b5060005b8751811015610f2257878181518110610ee957610ee961450c565b602002602001015182828b51610eff9190614737565b81518110610f0f57610f0f61450c565b6020908102919091010152600101610ece565b50610f2c89610ba5565b9850610f3781610ba5565b9050610f468982886000611efc565b50610f53898288886108ff565b50610f5d896122d3565b610f6b89898987878761234e565b505050505050505050565b610f7e612580565b610f8782612637565b610f91828261263f565b5050565b6000610f9f612727565b507f360894a13ba1a3210667c828492db98dca3e2076cc3735a920a3ca505d382bbc90565b6040516379f9712560e01b81526002600482015260009073__$dc6c4dd02ac6da041aea5ed0aea43c2a22$__906379f9712590602401610de5565b6000865167ffffffffffffffff81111561101b5761101b613a9f565b604051908082528060200260200182016040528015611044578160200160208202803683370190505b509050858160008151811061105b5761105b61450c565b60200260200101818152505061107087610ba5565b965061107b81610ba5565b905061108a8782876000611efc565b50611098888888888861114d565b60606110a78883836000611f28565b336001600160a01b03167f7d8a8f009bcd9cd0dc27e36fe37cc7cfe2bbd1469c0970d31046d3c12ec7f48c8a8a8a88886040516110e895949392919061474a565b60405180910390a2505050505050505050565b611103612770565b61110d60006127e4565b565b61111d868686868686611789565b50505050505050565b61112e612770565b611139838383612855565b505050565b60606001805461062090614442565b6002845111156112ce57601784511115611196576040517f71798fb500000000000000000000000000000000000000000000000000000000815260176004820152602401610a55565b60006111a68686868660176128b2565b90506111b06139ed565b60005b60178110156111f5578281815181106111ce576111ce61450c565b60200260200101518282601781106111e8576111e861450c565b60200201526001016111b3565b50606a54604080517fa0c2a19a0000000000000000000000000000000000000000000000000000000081526001600160a01b039092169163a0c2a19a9161124a91879182019060c08301908790600401614788565b602060405180830381865afa158015611267573d6000803e3d6000fd5b505050506040513d601f19601f8201168201806040525081019061128b9190614618565b6112c75760405162461bcd60e51b815260206004820152600d60248201526c24b73b30b634b210383937b7b360991b6044820152606401610a55565b5050611402565b60006112de8686868660076128b2565b90506112e8613a0c565b60005b600781101561132d578281815181106113065761130661450c565b60200260200101518282600781106113205761132061450c565b60200201526001016112eb565b50606954604080517fc894e7570000000000000000000000000000000000000000000000000000000081526001600160a01b039092169163c894e7579161138291879182019060c083019087906004016147cf565b602060405180830381865afa15801561139f573d6000803e3d6000fd5b505050506040513d601f19601f820116820180604052508101906113c39190614618565b6113ff5760405162461bcd60e51b815260206004820152600d60248201526c24b73b30b634b210383937b7b360991b6044820152606401610a55565b50505b6068546040517fa9059cbb000000000000000000000000000000000000000000000000000000008152336004820152602481018790526001600160a01b039091169063a9059cbb906044016020604051808303816000875af115801561146c573d6000803e3d6000fd5b505050506040513d601f19601f820116820180604052508101906114909190614618565b6114dc5760405162461bcd60e51b815260206004820152601f60248201527f4661696c656420746f207472616e7366657220455243323020746f6b656e73006044820152606401610a55565b5050505050565b6114eb612a46565b606780546001600160a01b0319166001600160a01b0392909216919091179055565b60005b84518110156116f35784818151811061152b5761152b61450c565b6020026020010151600003156116eb576000806115618784815181106115535761155361450c565b60200260200101513361221d565b9092509050816115ba5786838151811061157d5761157d61450c565b60200260200101516040517fe41859a6000000000000000000000000000000000000000000000000000000008152600401610a5591815260200190565b6001600160a01b0381163314611632578683815181106115dc576115dc61450c565b60209081029190910101516040517f9fec262f00000000000000000000000000000000000000000000000000000000815260048101919091526001600160a01b0387166024820152336044820152606401610a55565b603473__$dc6c4dd02ac6da041aea5ed0aea43c2a22$__63c1d29f0190918986815181106116625761166261450c565b60209081029190910101516040517fffffffff0000000000000000000000000000000000000000000000000000000060e085901b168152600481019290925260248201526001600160a01b038916604482015260640160006040518083038186803b1580156116d057600080fd5b505af41580156116e4573d6000803e3d6000fd5b5050505050505b600101611510565b50826001600160a01b0316336001600160a01b03167fb81fc4239cf1f8a9964a337bb7866ffeb712f9e482d9cef0f5fac9fe3bd655b286858560405161173b93929190614816565b60405180910390a350505050565b611751612770565b606880546001600160a01b0319166001600160a01b0392909216919091179055565b61177e8585856118de565b6114dc848383612855565b600061179487610ba5565b965061179f86610ba5565b95506117ae8787876001611efc565b506117bb87878787610c2c565b5060606117cb8888836000611f28565b6000885167ffffffffffffffff8111156117e7576117e7613a9f565b604051908082528060200260200182016040528015611810578160200160208202803683370190505b5090506000885167ffffffffffffffff81111561182f5761182f613a9f565b604051908082528060200260200182016040528015611858578160200160208202803683370190505b50905060005b8a518110156108a7578a81815181106118795761187961450c565b60200260200101518382815181106118935761189361450c565b6020026020010181815250508981815181106118b1576118b161450c565b60200260200101518282815181106118cb576118cb61450c565b602090810291909101015260010161185e565b6118e6613a2a565b838152825183906000906118fc576118fc61450c565b6020026020010151816001600381106119175761191761450c565b60200201528251839060019081106119315761193161450c565b60200260200101518160026003811061194c5761194c61450c565b6020020152606754604080517f11479fea0000000000000000000000000000000000000000000000000000000081526001600160a01b03909216916311479fea916119a591869182019060c08301908790600401614846565b602060405180830381865afa1580156119c2573d6000803e3d6000fd5b505050506040513d601f19601f820116820180604052508101906119e69190614618565b611a225760405162461bcd60e51b815260206004820152600d60248201526c24b73b30b634b210383937b7b360991b6044820152606401610a55565b6068546040517f23b872dd000000000000000000000000000000000000000000000000000000008152336004820152306024820152604481018690526001600160a01b03909116906323b872dd906064016020604051808303816000875af1158015611a92573d6000803e3d6000fd5b505050506040513d601f19601f82011682018060405250810190611ab69190614618565b611b025760405162461bcd60e51b815260206004820152601f60248201527f4661696c656420746f207472616e7366657220455243323020746f6b656e73006044820152606401610a55565b50505050565b611b10612770565b611139838383612aad565b611b23612770565b6001600160a01b038116611b66576040517f1e4fbdf700000000000000000000000000000000000000000000000000000000815260006004820152602401610a55565b611b6f816127e4565b50565b7ff0c57e16840df040f15088dc2f81fe391c3923bec73e23a9662efc9c229c6a00805468010000000000000000810460ff16159067ffffffffffffffff16600081158015611bbd5750825b905060008267ffffffffffffffff166001148015611bda5750303b155b905081158015611be8575080155b15611c1f576040517ff92ee8a900000000000000000000000000000000000000000000000000000000815260040160405180910390fd5b845467ffffffffffffffff191660011785558315611c5357845468ff00000000000000001916680100000000000000001785555b611c5b612c55565b611c66898989612cc5565b611c9e611c7960408801602089016141ce565b611c896060890160408a016141ce565b611c9960e08a0160c08b016141ce565b612dac565b611cab60208701876141ce565b609d80546001600160a01b0319166001600160a01b0392909216919091179055611cdb60c0870160a088016141ce565b609e80546001600160a01b0319166001600160a01b0392909216919091179055611d0b60808701606088016141ce565b609f80546001600160a01b0319166001600160a01b0392909216919091179055611d3c610100870160e088016141ce565b60a080546001600160a01b0319166001600160a01b03929092169190911790558315610f6b57845468ff000000000000000019168555604051600181527fc7f505b2f371ae2175ee4913f4499e1f2633a7b5936321eed1cdaeb6115181d29060200160405180910390a1505050505050505050565b6040516379f9712560e01b81526034600482015260009073__$dc6c4dd02ac6da041aea5ed0aea43c2a22$__906379f9712590602401610de5565b60008073__$ebe82a1924a894141c89e6680d3cbc7e88$__6329a5f2f6846040518263ffffffff1660e01b8152600401611e26919061488d565b602060405180830381865af4158015611e43573d6000803e3d6000fd5b505050506040513d601f19601f82011682018060405250810190611e679190614708565b604080516060810182528281526020810183905260018183015290516304b98e1d60e31b81529192509073__$03320550cd1b629da90608251571b2532e$__906325cc70e890611ebb9084906004016148be565b602060405180830381865af4158015611ed8573d6000803e3d6000fd5b505050506040513d601f19601f82011682018060405250810190610c0b9190614708565b6000611f0785612dec565b50611f1184612f62565b50611f1c8383613085565b50600195945050505050565b611f31846122d3565b611f3a836131de565b611b0282826132c5565b60608267ffffffffffffffff811115611f5f57611f5f613a9f565b604051908082528060200260200182016040528015611f88578160200160208202803683370190505b5090506000805b8751811015611fe357878181518110611faa57611faa61450c565b6020026020010151838380611fbe906148e6565b945081518110611fd057611fd061450c565b6020908102919091010152600101611f8f565b50821561201557338282611ff6816148e6565b9350815181106120085761200861450c565b6020026020010181815250505b848282612021816148e6565b9350815181106120335761203361450c565b60200260200101818152505060005b87518110156120a95787818151811061205d5761205d61450c565b6020026020010151600014612073576001612076565b60005b60ff168383612084816148e6565b9450815181106120965761209661450c565b6020908102919091010152600101612042565b506120b2610dae565b82826120bd816148e6565b9350815181106120cf576120cf61450c565b60200260200101818152505060005b8651811015612132578681815181106120f9576120f961450c565b602002602001015183838061210d906148e6565b94508151811061211f5761211f61450c565b60209081029190910101526001016120de565b505095945050505050565b60608284510361214e575082612216565b60008367ffffffffffffffff81111561216957612169613a9f565b604051908082528060200260200182016040528015612192578160200160208202803683370190505b50905060005b85518110156121e0578581815181106121b3576121b361450c565b60200260200101518282815181106121cd576121cd61450c565b6020908102919091010152600101612198565b5084515b8481101561221257838282815181106121ff576121ff61450c565b60209081029190910101526001016121e4565b5090505b9392505050565b604051632eda066d60e11b815260346004820152602481018390526000908190819073__$dc6c4dd02ac6da041aea5ed0aea43c2a22$__90635db40cda90604401600060405180830381865af415801561227b573d6000803e3d6000fd5b505050506040513d6000823e601f3d908101601f191682016040526122a3919081019061495d565b9050806020015180156122c25750836001600160a01b03168160800151145b816080015192509250509250929050565b60005b8151811015610f91578181815181106122f1576122f161450c565b6020026020010151600014612346576001606660008484815181106123185761231861450c565b6020026020010151815260200190815260200160002060006101000a81548160ff0219169083151502179055505b6001016122d6565b60005b85518110156124365785818151811061236c5761236c61450c565b60200260200101516000031561242e57600273__$dc6c4dd02ac6da041aea5ed0aea43c2a22$__63c1d29f0190918884815181106123ac576123ac61450c565b60200260200101518985815181106123c6576123c661450c565b60200260200101516040518463ffffffff1660e01b81526004016123fd939291909283526020830191909152604082015260600190565b60006040518083038186803b15801561241557600080fd5b505af4158015612429573d6000803e3d6000fd5b505050505b600101612351565b5060005b8451811015612524578481815181106124555761245561450c565b60200260200101516000031561251c57603473__$dc6c4dd02ac6da041aea5ed0aea43c2a22$__63c1d29f0190918784815181106124955761249561450c565b60209081029190910101516040517fffffffff0000000000000000000000000000000000000000000000000000000060e085901b168152600481019290925260248201526001600160a01b038716604482015260640160006040518083038186803b15801561250357600080fd5b505af4158015612517573d6000803e3d6000fd5b505050505b60010161243a565b50336001600160a01b0316836001600160a01b03167f2478e2370a2c14a2eb7579b8a4a140dc020d4d75daf0016542656bee955395f38888888787604051612570959493929190614a25565b60405180910390a3505050505050565b306001600160a01b037f000000000000000000000000000000000000000000000000000000000000000016148061261957507f00000000000000000000000000000000000000000000000000000000000000006001600160a01b031661260d7f360894a13ba1a3210667c828492db98dca3e2076cc3735a920a3ca505d382bbc546001600160a01b031690565b6001600160a01b031614155b1561110d5760405163703e46dd60e11b815260040160405180910390fd5b611b6f612770565b816001600160a01b03166352d1902d6040518163ffffffff1660e01b8152600401602060405180830381865afa925050508015612699575060408051601f3d908101601f1916820190925261269691810190614708565b60015b6126c157604051634c9c8ce360e01b81526001600160a01b0383166004820152602401610a55565b7f360894a13ba1a3210667c828492db98dca3e2076cc3735a920a3ca505d382bbc811461271d576040517faa1d49a400000000000000000000000000000000000000000000000000000000815260048101829052602401610a55565b61113983836133b1565b306001600160a01b037f0000000000000000000000000000000000000000000000000000000000000000161461110d5760405163703e46dd60e11b815260040160405180910390fd5b336127a27f9016d09d72d40fdae2fd8ceac6b6234c7706214fd39c1cd1e609a0528c199300546001600160a01b031690565b6001600160a01b03161461110d576040517f118cdaa7000000000000000000000000000000000000000000000000000000008152336004820152602401610a55565b7f9016d09d72d40fdae2fd8ceac6b6234c7706214fd39c1cd1e609a0528c19930080546001600160a01b031981166001600160a01b03848116918217845560405192169182907f8be0079c531659141344cd1fd0a4f28419497f9722a3daafe3b4186f6b6457e090600090a3505050565b61285e83612f62565b50612868836131de565b336001600160a01b03167f7ff08e0ca1fce6b202b83128811e4f6ceda54930aa074cd365bf68f95c20ce198484846040516128a593929190614816565b60405180910390a2505050565b60608167ffffffffffffffff8111156128cd576128cd613a9f565b6040519080825280602002602001820160405280156128f6578160200160208202803683370190505b5090506000868282612907816148e6565b9350815181106129195761291961450c565b60200260200101818152505060005b865181101561297c578681815181106129435761294361450c565b6020026020010151838380612957906148e6565b9450815181106129695761296961450c565b6020908102919091010152600101612928565b50838282612989816148e6565b93508151811061299b5761299b61450c565b60200260200101818152505060005b8651811015612a11578681815181106129c5576129c561450c565b60200260200101516000146129db5760016129de565b60005b60ff1683836129ec816148e6565b9450815181106129fe576129fe61450c565b60209081029190910101526001016129aa565b50848282612a1e816148e6565b935081518110612a3057612a3061450c565b6020026020010181815250505095945050505050565b7ff0c57e16840df040f15088dc2f81fe391c3923bec73e23a9662efc9c229c6a005468010000000000000000900460ff1661110d576040517fd7e6bcf800000000000000000000000000000000000000000000000000000000815260040160405180910390fd5b6000612ab884613407565b6040516370b867b760e11b8152606b60048201526024810182905290915060009073__$dc6c4dd02ac6da041aea5ed0aea43c2a22$__9063e170cf6e9060440160a060405180830381865af4158015612b15573d6000803e3d6000fd5b505050506040513d601f19601f82011682018060405250810190612b399190614476565b9050600081516002811115612b5057612b506144f6565b14612b8957846040517f7d714ba9000000000000000000000000000000000000000000000000000000008152600401610a559190614a96565b6040517fc1d29f01000000000000000000000000000000000000000000000000000000008152606b6004820152602481018390526044810183905273__$dc6c4dd02ac6da041aea5ed0aea43c2a22$__9063c1d29f019060640160006040518083038186803b158015612bfb57600080fd5b505af4158015612c0f573d6000803e3d6000fd5b505050507faebf15bab705860574363b0634ea3f3f2caaf50b5d1482278079990cb7c19c0d858585604051612c4693929190614aa4565b60405180910390a15050505050565b612c5d612a46565b60408051639e43b81360e01b8152606b6004820152602481019190915273__$dc6c4dd02ac6da041aea5ed0aea43c2a22$__90639e43b8139060440160006040518083038186803b158015612cb157600080fd5b505af4158015611b02573d6000803e3d6000fd5b612ccd612a46565b612cd883838361349b565b60408051639e43b81360e01b815260026004820152602481019190915273__$dc6c4dd02ac6da041aea5ed0aea43c2a22$__90639e43b8139060440160006040518083038186803b158015612d2c57600080fd5b505af4158015612d40573d6000803e3d6000fd5b505060408051639e43b81360e01b815260346004820152602481019190915273__$dc6c4dd02ac6da041aea5ed0aea43c2a22$__9250639e43b813915060440160006040518083038186803b158015612d9857600080fd5b505af415801561111d573d6000803e3d6000fd5b612db4612a46565b612dbd836114e3565b606980546001600160a01b039384166001600160a01b031991821617909155606a805492909316911617905550565b600080612df8836134c5565b905060005b8151811015612f5b57818181518110612e1857612e1861450c565b602002602001015160000315612f5357600081118015612e73575081612e3f600183614ac5565b81518110612e4f57612e4f61450c565b6020026020010151828281518110612e6957612e6961450c565b6020026020010151145b15612ec757818181518110612e8a57612e8a61450c565b60200260200101516040517fdd574831000000000000000000000000000000000000000000000000000000008152600401610a5591815260200190565b60666000838381518110612edd57612edd61450c565b60209081029190910181015182528101919091526040016000205460ff161515600103612f5357818181518110612f1657612f1661450c565b60200260200101516040517f41a06d28000000000000000000000000000000000000000000000000000000008152600401610a5591815260200190565b600101612dfd565b5050919050565b600080612f6e836134c5565b905060005b8151811015612f5b57818181518110612f8e57612f8e61450c565b60200260200101516000031561307d57600081118015612fe9575081612fb5600183614ac5565b81518110612fc557612fc561450c565b6020026020010151828281518110612fdf57612fdf61450c565b6020026020010151145b1561300057818181518110612e8a57612e8a61450c565b60006130248383815181106130175761301761450c565b6020026020010151613564565b9050801561307b5782828151811061303e5761303e61450c565b60200260200101516040517f79e1da47000000000000000000000000000000000000000000000000000000008152600401610a5591815260200190565b505b600101612f73565b600081801561310c57506040516324bd6c1b60e21b8152603460048201526024810184905273__$dc6c4dd02ac6da041aea5ed0aea43c2a22$__906392f5b06c90604401602060405180830381865af41580156130e6573d6000803e3d6000fd5b505050506040513d601f19601f8201168201806040525081019061310a9190614618565b155b1561312d57604051630959af5760e31b815260048101849052602401610a55565b811580156131b357506040516324bd6c1b60e21b8152600260048201526024810184905273__$dc6c4dd02ac6da041aea5ed0aea43c2a22$__906392f5b06c90604401602060405180830381865af415801561318d573d6000803e3d6000fd5b505050506040513d601f19601f820116820180604052508101906131b19190614618565b155b156131d457604051630959af5760e31b815260048101849052602401610a55565b5060015b92915050565b60005b8151811015610f91578181815181106131fc576131fc61450c565b60200260200101516000146132bd57600273__$dc6c4dd02ac6da041aea5ed0aea43c2a22$__63c1d29f01909184848151811061323b5761323b61450c565b60200260200101518585815181106132555761325561450c565b60200260200101516040518463ffffffff1660e01b815260040161328c939291909283526020830191909152604082015260600190565b60006040518083038186803b1580156132a457600080fd5b505af41580156132b8573d6000803e3d6000fd5b505050505b6001016131e1565b60005b8251811015611139578281815181106132e3576132e361450c565b60200260200101516000146133a957603473__$dc6c4dd02ac6da041aea5ed0aea43c2a22$__63c1d29f0190918584815181106133225761332261450c565b60209081029190910101516040517fffffffff0000000000000000000000000000000000000000000000000000000060e085901b168152600481019290925260248201526001600160a01b038516604482015260640160006040518083038186803b15801561339057600080fd5b505af41580156133a4573d6000803e3d6000fd5b505050505b6001016132c8565b6133ba82613580565b6040516001600160a01b038316907fbc7cd75a20ee27fd9adebab32041f755214dbc6bffa90cc0225b39da2e5c2d3b90600090a28051156133ff5761113982826135f7565b610f9161366d565b6040517f29a5f2f600000000000000000000000000000000000000000000000000000000815260009073__$ebe82a1924a894141c89e6680d3cbc7e88$__906329a5f2f69061345a90859060040161488d565b602060405180830381865af4158015613477573d6000803e3d6000fd5b505050506040513d601f19601f820116820180604052508101906131d89190614708565b6134a3612a46565b6134ac816136a5565b60006134b88482614b1f565b506001611b028382614b1f565b60606000825167ffffffffffffffff8111156134e3576134e3613a9f565b60405190808252806020026020018201604052801561350c578160200160208202803683370190505b50905060005b835181101561355a5783818151811061352d5761352d61450c565b60200260200101518282815181106135475761354761450c565b6020908102919091010152600101613512565b50612216816136b6565b600080613570836136cb565b9050806131d8576122168361371d565b806001600160a01b03163b6000036135b657604051634c9c8ce360e01b81526001600160a01b0382166004820152602401610a55565b7f360894a13ba1a3210667c828492db98dca3e2076cc3735a920a3ca505d382bbc80546001600160a01b0319166001600160a01b0392909216919091179055565b6060600080846001600160a01b0316846040516136149190614bde565b600060405180830381855af49150503d806000811461364f576040519150601f19603f3d011682016040523d82523d6000602084013e613654565b606091505b50915091506136648583836137ac565b95945050505050565b341561110d576040517fb398979f00000000000000000000000000000000000000000000000000000000815260040160405180910390fd5b6136ad612a46565b611b6f81613821565b60606136c48261382961382d565b5090919050565b6000806136d88384613845565b6040516370b867b760e11b8152600260048201526024810182905290915060009073__$dc6c4dd02ac6da041aea5ed0aea43c2a22$__9063e170cf6e906044016106f0565b604051632eda066d60e11b81526034600482015260248101829052600090819073__$dc6c4dd02ac6da041aea5ed0aea43c2a22$__90635db40cda90604401600060405180830381865af4158015613779573d6000803e3d6000fd5b505050506040513d6000823e601f3d908101601f191682016040526137a1919081019061495d565b602001519392505050565b6060826137c1576137bc82613899565b612216565b81511580156137d857506001600160a01b0384163b155b1561381a576040517f9996b3150000000000000000000000000000000000000000000000000000000081526001600160a01b0385166004820152602401610a55565b5080612216565b611b23612a46565b1190565b60606136c46020840161383f856138db565b846138f3565b604080516060810182528381526020810183905260018183015290516304b98e1d60e31b81526000919073__$03320550cd1b629da90608251571b2532e$__906325cc70e890611ebb9084906004016148be565b8051156138a95780518082602001fd5b6040517fd6bda27500000000000000000000000000000000000000000000000000000000815260040160405180910390fd5b600081516020026138ec8360200190565b0192915050565b6040838303101561390357505050565b600061390d845190565b905083602081015b8481101561394f57613932613928825190565b848663ffffffff16565b15613947576020919091018051825182528252905b602001613915565b5084518151865281526139638582856138f3565b6114dc8160200185856138f3565b6040518061040001604052806020906020820280368337509192915050565b6040518061010001604052806008906020820280368337509192915050565b6040518061042001604052806021906020820280368337509192915050565b6040518061012001604052806009906020820280368337509192915050565b604051806102e001604052806017906020820280368337509192915050565b6040518060e001604052806007906020820280368337509192915050565b60405180606001604052806003906020820280368337509192915050565b60005b83811015613a63578181015183820152602001613a4b565b50506000910152565b6020815260008251806020840152613a8b816040850160208701613a48565b601f01601f19169190910160400192915050565b634e487b7160e01b600052604160045260246000fd5b604051610100810167ffffffffffffffff81118282101715613ad957613ad9613a9f565b60405290565b604051601f8201601f1916810167ffffffffffffffff81118282101715613b0857613b08613a9f565b604052919050565b600082601f830112613b2157600080fd5b6040805190810167ffffffffffffffff81118282101715613b4457613b44613a9f565b8060405250806040840185811115613b5b57600080fd5b845b81811015613b75578035835260209283019201613b5d565b509195945050505050565b600060408284031215613b9257600080fd5b6122168383613b10565b600067ffffffffffffffff821115613bb657613bb6613a9f565b5060051b60200190565b600082601f830112613bd157600080fd5b8135613be4613bdf82613b9c565b613adf565b8082825260208201915060208360051b860101925085831115613c0657600080fd5b602085015b83811015613c23578035835260209283019201613c0b565b5095945050505050565b60006101008284031215613c4057600080fd5b50919050565b60008083601f840112613c5857600080fd5b50813567ffffffffffffffff811115613c7057600080fd5b602083019150836020828501011115610c2557600080fd5b6000806000806000806101808789031215613ca257600080fd5b863567ffffffffffffffff811115613cb957600080fd5b613cc589828a01613bc0565b965050602087013567ffffffffffffffff811115613ce257600080fd5b613cee89828a01613bc0565b95505060408701359350613d058860608901613c2d565b925061016087013567ffffffffffffffff811115613d2257600080fd5b613d2e89828a01613c46565b979a9699509497509295939492505050565b6000806000806101608587031215613d5757600080fd5b843567ffffffffffffffff811115613d6e57600080fd5b613d7a87828801613bc0565b945050602085013567ffffffffffffffff811115613d9757600080fd5b613da387828801613bc0565b93505060408501359150613dba8660608701613c2d565b905092959194509250565b600060208284031215613dd757600080fd5b813567ffffffffffffffff811115613dee57600080fd5b610c0b84828501613bc0565b600081518084526020840193506020830160005b82811015613e2c578151865260209586019590910190600101613e0e565b5093949350505050565b6020815260006122166020830184613dfa565b6001600160a01b0381168114611b6f57600080fd5b8035613e6981613e49565b919050565b60008060408385031215613e8157600080fd5b823591506020830135613e9381613e49565b809150509250929050565b6000806000806000806000806101c0898b031215613ebb57600080fd5b883567ffffffffffffffff811115613ed257600080fd5b613ede8b828c01613bc0565b985050602089013567ffffffffffffffff811115613efb57600080fd5b613f078b828c01613bc0565b975050604089013567ffffffffffffffff811115613f2457600080fd5b613f308b828c01613bc0565b96505060608901359450613f478a60808b01613c2d565b9350613f566101808a01613e5e565b92506101a089013567ffffffffffffffff811115613f7357600080fd5b613f7f8b828c01613c46565b999c989b5096995094979396929594505050565b60008067ffffffffffffffff841115613fae57613fae613a9f565b50601f8301601f1916602001613fc381613adf565b915050828152838383011115613fd857600080fd5b828260208301376000602084830101529392505050565b6000806040838503121561400257600080fd5b823561400d81613e49565b9150602083013567ffffffffffffffff81111561402957600080fd5b8301601f8101851361403a57600080fd5b61404985823560208401613f93565b9150509250929050565b60008060008060008060006101a0888a03121561406f57600080fd5b87359650602088013567ffffffffffffffff81111561408d57600080fd5b6140998a828b01613bc0565b96505060408801359450606088013593506140b78960808a01613c2d565b925061018088013567ffffffffffffffff8111156140d457600080fd5b6140e08a828b01613c46565b989b979a50959850939692959293505050565b60008060006040848603121561410857600080fd5b833567ffffffffffffffff81111561411f57600080fd5b61412b86828701613bc0565b935050602084013567ffffffffffffffff81111561414857600080fd5b61415486828701613c46565b9497909650939450505050565b6000806000806000610180868803121561417a57600080fd5b85359450602086013567ffffffffffffffff81111561419857600080fd5b6141a488828901613bc0565b94505060408601359250606086013591506141c28760808801613c2d565b90509295509295909350565b6000602082840312156141e057600080fd5b813561221681613e49565b6000806000806060858703121561420157600080fd5b843567ffffffffffffffff81111561421857600080fd5b61422487828801613bc0565b945050602085013561423581613e49565b9250604085013567ffffffffffffffff81111561425157600080fd5b61425d87828801613c46565b95989497509550505050565b6000806000806000610160868803121561428257600080fd5b85359450602086013567ffffffffffffffff8111156142a057600080fd5b6142ac88828901613bc0565b9450506142bc8760408801613c2d565b925061014086013567ffffffffffffffff8111156142d957600080fd5b6142e588828901613c46565b969995985093965092949392505050565b6000806000610140848603121561430c57600080fd5b83359250602084013567ffffffffffffffff81111561432a57600080fd5b61433686828701613bc0565b9250506143468560408601613c2d565b90509250925092565b60008060006060848603121561436457600080fd5b61436e8585613b10565b9250604084013567ffffffffffffffff81111561414857600080fd5b600082601f83011261439b57600080fd5b61221683833560208501613f93565b6000806000808486036101808112156143c257600080fd5b853567ffffffffffffffff8111156143d957600080fd5b6143e58882890161438a565b955050602086013567ffffffffffffffff81111561440257600080fd5b61440e8882890161438a565b945050604086013561441f81613e49565b9250610120605f198201121561443457600080fd5b509295919450926060019150565b600181811c9082168061445657607f821691505b602082108103613c4057634e487b7160e01b600052602260045260246000fd5b600060a082840312801561448957600080fd5b5060405160009060a0810167ffffffffffffffff811182821017156144b0576144b0613a9f565b6040528351600381106144c1578283fd5b815260208481015190820152604080850151908201526060808501519082015260809384015193810193909352509092915050565b634e487b7160e01b600052602160045260246000fd5b634e487b7160e01b600052603260045260246000fd5b81835281816020850137506000828201602090810191909152601f909101601f19169091010190565b60608152600061455e6060830187613dfa565b82810360208401526145708187613dfa565b90508281036040840152614585818587614522565b979650505050505050565b8060005b6002811015611b025760408285376040938401939190910190600101614594565b610500810160408683376145cc6040830186614590565b60408460c084013761010082018360005b60208110156145fc5781518352602092830192909101906001016145dd565b50505095945050505050565b80518015158114613e6957600080fd5b60006020828403121561462a57600080fd5b61221682614608565b6102008101604086833761464a6040830186614590565b60408460c084013761010082018360005b60088110156145fc57815183526020928301929091019060010161465b565b610520810160408683376146916040830186614590565b60408460c084013761010082018360005b60218110156145fc5781518352602092830192909101906001016146a2565b610220810160408683376146d86040830186614590565b60408460c084013761010082018360005b60098110156145fc5781518352602092830192909101906001016146e9565b60006020828403121561471a57600080fd5b5051919050565b634e487b7160e01b600052601160045260246000fd5b808201808211156131d8576131d8614721565b8581526080602082015260006147636080830187613dfa565b856040840152828103606084015261477c818587614522565b98975050505050505050565b6103e08101604086833761479f6040830186614590565b60408460c084013761010082018360005b60178110156145fc5781518352602092830192909101906001016147b0565b6101e0810160408683376147e66040830186614590565b60408460c084013761010082018360005b60078110156145fc5781518352602092830192909101906001016147f7565b6040815260006148296040830186613dfa565b828103602084015261483c818587614522565b9695505050505050565b6101608101604086833761485d6040830186614590565b60408460c084013761010082018360005b60038110156145fc57815183526020928301929091019060010161486e565b60408101818360005b60028110156148b5578151835260209283019290910190600101614896565b50505092915050565b60608101818360005b60038110156148b55781518352602092830192909101906001016148c7565b6000600182016148f8576148f8614721565b5060010190565b600082601f83011261491057600080fd5b815161491e613bdf82613b9c565b8082825260208201915060208360051b86010192508583111561494057600080fd5b602085015b83811015613c23578051835260209283019201614945565b60006020828403121561496f57600080fd5b815167ffffffffffffffff81111561498657600080fd5b8201610100818503121561499957600080fd5b6149a1613ab5565b815181526149b160208301614608565b6020820152604082015167ffffffffffffffff8111156149d057600080fd5b6149dc868285016148ff565b6040830152506060828101519082015260808083015190820152614a0260a08301614608565b60a082015260c0828101519082015260e091820151918101919091529392505050565b608081526000614a386080830188613dfa565b8281036020840152614a4a8188613dfa565b90508281036040840152614a5e8187613dfa565b9050828103606084015261477c818587614522565b8060005b6002811015611b02578151845260209384019390910190600101614a77565b604081016131d88284614a73565b614aae8185614a73565b606060408201526000613664606083018486614522565b818103818111156131d8576131d8614721565b601f82111561113957806000526020600020601f840160051c81016020851015614aff5750805b601f840160051c820191505b818110156114dc5760008155600101614b0b565b815167ffffffffffffffff811115614b3957614b39613a9f565b614b4d81614b478454614442565b84614ad8565b6020601f821160018114614b815760008315614b695750848201515b600019600385901b1c1916600184901b1784556114dc565b600084815260208120601f198516915b82811015614bb15787850151825560209485019460019092019101614b91565b5084821015614bcf5786840151600019600387901b60f8161c191681555b50505050600190811b01905550565b60008251614bf0818460208701613a48565b919091019291505056fea2646970667358221220e067e5b709584bc188cc07ee9ece4c9ed31b214fe96b0a04d0b46bdb9b7ebcff64736f6c634300081b0033",
  "linkReferences": {
    "@iden3/contracts/lib/Poseidon.sol": {
      "PoseidonUnit2L": [
        {
          "length": 20,
          "start": 7726
        },
        {
          "length": 20,
          "start": 13423
        }
      ],
      "PoseidonUnit3L": [
        {
          "length": 20,
          "start": 7888
        },
        {
          "length": 20,
          "start": 14510
        }
      ]
    },
    "@iden3/contracts/lib/SmtLib.sol": {
      "SmtLib": [
        {
          "length": 20,
          "start": 1807
        },
        {
          "length": 20,
          "start": 3588
        },
        {
          "length": 20,
          "start": 4122
        },
        {
          "length": 20,
          "start": 5747
        },
        {
          "length": 20,
          "start": 7687
        },
        {
          "length": 20,
          "start": 8830
        },
        {
          "length": 20,
          "start": 9149
        },
        {
          "length": 20,
          "start": 9382
        },
        {
          "length": 20,
          "start": 11032
        },
        {
          "length": 20,
          "start": 11267
        },
        {
          "length": 20,
          "start": 11449
        },
        {
          "length": 20,
          "start": 11572
        },
        {
          "length": 20,
          "start": 11678
        },
        {
          "length": 20,
          "start": 12521
        },
        {
          "length": 20,
          "start": 12688
        },
        {
          "length": 20,
          "start": 12876
        },
        {
          "length": 20,
          "start": 13107
        },
        {
          "length": 20,
          "start": 14136
        },
        {
          "length": 20,
          "start": 14204
        }
      ]
    }
  },
  "deployedLinkReferences": {
    "@iden3/contracts/lib/Poseidon.sol": {
      "PoseidonUnit2L": [
        {
          "length": 20,
          "start": 7665
        },
        {
          "length": 20,
          "start": 13362
        }
      ],
      "PoseidonUnit3L": [
        {
          "length": 20,
          "start": 7827
        },
        {
          "length": 20,
          "start": 14449
        }
      ]
    },
    "@iden3/contracts/lib/SmtLib.sol": {
      "SmtLib": [
        {
          "length": 20,
          "start": 1746
        },
        {
          "length": 20,
          "start": 3527
        },
        {
          "length": 20,
          "start": 4061
        },
        {
          "length": 20,
          "start": 5686
        },
        {
          "length": 20,
          "start": 7626
        },
        {
          "length": 20,
          "start": 8769
        },
        {
          "length": 20,
          "start": 9088
        },
        {
          "length": 20,
          "start": 9321
        },
        {
          "length": 20,
          "start": 10971
        },
        {
          "length": 20,
          "start": 11206
        },
        {
          "length": 20,
          "start": 11388
        },
        {
          "length": 20,
          "start": 11511
        },
        {
          "length": 20,
          "start": 11617
        },
        {
          "length": 20,
          "start": 12460
        },
        {
          "length": 20,
          "start": 12627
        },
        {
          "length": 20,
          "start": 12815
        },
        {
          "length": 20,
          "start": 13046
        },
        {
          "length": 20,
          "start": 14075
        },
        {
          "length": 20,
          "start": 14143
        }
      ]
    }
  }
}