{
  "_format": "hh-sol-artifact-1",
  "contractName": "ZetoTokenFactory",
  "sourceName": "contracts/factory.sol",
  "abi": [
    {
      "inputs": [],
      "stateMutability": "nonpayable",
      "type": "constructor"
    },
    {
      "inputs": [],
      "name": "FailedDeployment",
      "type": "error"
    },
    {
      "inputs": [
        {
          "internalType": "uint256",
          "name": "balance",
          "type": "uint256"
        },
        {
          "internalType": "uint256",
          "name": "needed",
          "type": "uint256"
        }
      ],
      "name": "InsufficientBalance",
      "type": "error"
    },
    {
      "inputs": [
        {
          "internalType": "address",
          "name": "owner",
          "type": "address"
        }
      ],
      "name": "OwnableInvalidOwner",
      "type": "error"
    },
    {
      "inputs": [
        {
          "internalType": "address",
          "name": "account",
          "type": "address"
        }
      ],
      "name": "OwnableUnauthorizedAccount",
      "type": "error"
    },
    {
      "anonymous": false,
      "inputs": [
        {
          "indexed": true,
          "internalType": "address",
          "name": "previousOwner",
          "type": "address"
        },
        {
          "indexed": true,
          "internalType": "address",
          "name": "newOwner",
          "type": "address"
        }
      ],
      "name": "OwnershipTransferred",
      "type": "event"
    },
    {
      "anonymous": false,
      "inputs": [
        {
          "indexed": true,
          "internalType": "address",
          "name": "zetoToken",
          "type": "address"
        }
      ],
      "name": "ZetoTokenDeployed",
      "type": "event"
    },
    {
      "inputs": [
        {
          "internalType": "string",
          "name": "name",
          "type": "string"
        },
        {
          "internalType": "string",
          "name": "symbol",
          "type": "string"
        },
        {
          "internalType": "string",
          "name": "tokenImplementation",
          "type": "string"
        },
        {
          "internalType": "address",
          "name": "initialOwner",
          "type": "address"
        }
      ],
      "name": "deployZetoFungibleToken",
      "outputs": [
        {
          "internalType": "address",
          "name": "",
          "type": "address"
        }
      ],
      "stateMutability": "nonpayable",
      "type": "function"
    },
    {
      "inputs": [
        {
          "internalType": "string",
          "name": "name",
          "type": "string"
        },
        {
          "internalType": "string",
          "name": "symbol",
          "type": "string"
        },
        {
          "internalType": "string",
          "name": "tokenImplementation",
          "type": "string"
        },
        {
          "internalType": "address",
          "name": "initialOwner",
          "type": "address"
        }
      ],
      "name": "deployZetoNonFungibleToken",
      "outputs": [
        {
          "internalType": "address",
          "name": "",
          "type": "address"
        }
      ],
      "stateMutability": "nonpayable",
      "type": "function"
    },
    {
      "inputs": [],
      "name": "owner",
      "outputs": [
        {
          "internalType": "address",
          "name": "",
          "type": "address"
        }
      ],
      "stateMutability": "view",
      "type": "function"
    },
    {
      "inputs": [
        {
          "internalType": "string",
          "name": "name",
          "type": "string"
        },
        {
          "components": [
            {
              "internalType": "address",
              "name": "implementation",
              "type": "address"
            },
            {
              "components": [
                {
                  "internalType": "address",
                  "name": "verifier",
                  "type": "address"
                },
                {
                  "internalType": "address",
                  "name": "depositVerifier",
                  "type": "address"
                },
                {
                  "internalType": "address",
                  "name": "withdrawVerifier",
                  "type": "address"
                },
                {
                  "internalType": "address",
                  "name": "lockVerifier",
                  "type": "address"
                },
                {
                  "internalType": "address",
                  "name": "burnVerifier",
                  "type": "address"
                },
                {
                  "internalType": "address",
                  "name": "batchVerifier",
                  "type": "address"
                },
                {
                  "internalType": "address",
                  "name": "batchWithdrawVerifier",
                  "type": "address"
                },
                {
                  "internalType": "address",
                  "name": "batchLockVerifier",
                  "type": "address"
                },
                {
                  "internalType": "address",
                  "name": "batchBurnVerifier",
                  "type": "address"
                }
              ],
              "internalType": "struct IZetoInitializable.VerifiersInfo",
              "name": "verifiers",
              "type": "tuple"
            }
          ],
          "internalType": "struct ZetoTokenFactory.ImplementationInfo",
          "name": "implementation",
          "type": "tuple"
        }
      ],
      "name": "registerImplementation",
      "outputs": [],
      "stateMutability": "nonpayable",
      "type": "function"
    },
    {
      "inputs": [],
      "name": "renounceOwnership",
      "outputs": [],
      "stateMutability": "nonpayable",
      "type": "function"
    },
    {
      "inputs": [
        {
          "internalType": "address",
          "name": "newOwner",
          "type": "address"
        }
      ],
      "name": "transferOwnership",
      "outputs": [],
      "stateMutability": "nonpayable",
      "type": "function"
    }
  ],
  "bytecode": "0x6080604052348015600f57600080fd5b503380603557604051631e4fbdf760e01b81526000600482015260240160405180910390fd5b603c816041565b506091565b600080546001600160a01b038381166001600160a01b0319831681178455604051919092169283917f8be0079c531659141344cd1fd0a4f28419497f9722a3daafe3b4186f6b6457e09190a35050565b610f48806100a06000396000f3fe608060405234801561001057600080fd5b50600436106100725760003560e01c80638da5cb5b116100505780638da5cb5b146100c3578063be17954b146100d4578063f2fde38b146100e757600080fd5b8063180dd117146100775780633924a044146100a6578063715018a6146100bb575b600080fd5b61008a610085366004610baf565b6100fa565b6040516001600160a01b03909116815260200160405180910390f35b6100b96100b4366004610c54565b61056e565b005b6100b961078a565b6000546001600160a01b031661008a565b61008a6100e2366004610baf565b61079e565b6100b96100f5366004610d81565b6108b3565b60008060018460405161010d9190610dc7565b9081526040805160209281900383018120818301835280546001600160a01b039081168352835161012081018552600183015482168152600283015482168187015260038301548216948101949094526004820154811660608501526005820154811660808501526006820154811660a08501526007820154811660c08501526008820154811660e08501526009909101548116610100840152928101919091528051909250166102145760405162461bcd60e51b815260206004820152602660248201527f466163746f72793a206661696c656420746f2066696e6420696d706c656d656e6044820152653a30ba34b7b760d11b60648201526084015b60405180910390fd5b60208082015101516001600160a01b03166102975760405162461bcd60e51b815260206004820152602c60248201527f466163746f72793a206465706f7369745665726966696572206164647265737360448201527f2069732072657175697265640000000000000000000000000000000000000000606482015260840161020b565b6020810151604001516001600160a01b031661031b5760405162461bcd60e51b815260206004820152602d60248201527f466163746f72793a20776974686472617756657269666965722061646472657360448201527f7320697320726571756972656400000000000000000000000000000000000000606482015260840161020b565b602081015160a001516001600160a01b031661039f5760405162461bcd60e51b815260206004820152602a60248201527f466163746f72793a20626174636856657269666965722061646472657373206960448201527f7320726571756972656400000000000000000000000000000000000000000000606482015260840161020b565b602081015160c001516001600160a01b03166104235760405162461bcd60e51b815260206004820152603260248201527f466163746f72793a20626174636857697468647261775665726966696572206160448201527f6464726573732069732072657175697265640000000000000000000000000000606482015260840161020b565b6000610432826000015161090a565b90506001600160a01b0381166104b05760405162461bcd60e51b815260206004820152602760248201527f466163746f72793a206661696c656420746f20636c6f6e6520696d706c656d6560448201527f6e746174696f6e00000000000000000000000000000000000000000000000000606482015260840161020b565b60208201516040517ff586acdb0000000000000000000000000000000000000000000000000000000081526001600160a01b0383169163f586acdb916104fe918b918b918a91600401610e0f565b600060405180830381600087803b15801561051857600080fd5b505af115801561052c573d6000803e3d6000fd5b50506040516001600160a01b03841692507f61a122822c33eb587240ac03c263df8e525c975793c9d3118d54888abdb036279150600090a29695505050505050565b61057661091d565b80516001600160a01b03166105f35760405162461bcd60e51b815260206004820152602b60248201527f466163746f72793a20696d706c656d656e746174696f6e20616464726573732060448201527f6973207265717569726564000000000000000000000000000000000000000000606482015260840161020b565b6020810151516001600160a01b03166106745760405162461bcd60e51b815260206004820152602560248201527f466163746f72793a20766572696669657220616464726573732069732072657160448201527f7569726564000000000000000000000000000000000000000000000000000000606482015260840161020b565b806001836040516106859190610dc7565b90815260408051602092819003830190208351815473ffffffffffffffffffffffffffffffffffffffff199081166001600160a01b039283161783559484015180516001840180548816918416919091179055938401516002830180548716918316919091179055918301516003820180548616918416919091179055606083015160048201805486169184169190911790556080830151600582018054861691841691909117905560a0830151600682018054861691841691909117905560c0830151600782018054861691841691909117905560e08301516008820180548616918416919091179055610100909201516009909201805490931691161790555050565b61079261091d565b61079c6000610963565b565b6000806001846040516107b19190610dc7565b9081526040805160209281900383018120818301835280546001600160a01b039081168352835161012081018552600183015482168152600283015482168187015260038301548216948101949094526004820154811660608501526005820154811660808501526006820154811660a08501526007820154811660c08501526008820154811660e08501526009909101548116610100840152928101919091528051909250166104235760405162461bcd60e51b815260206004820152602660248201527f466163746f72793a206661696c656420746f2066696e6420696d706c656d656e6044820152653a30ba34b7b760d11b606482015260840161020b565b6108bb61091d565b6001600160a01b0381166108fe576040517f1e4fbdf70000000000000000000000000000000000000000000000000000000081526000600482015260240161020b565b61090781610963565b50565b60006109178260006109c0565b92915050565b6000546001600160a01b0316331461079c576040517f118cdaa700000000000000000000000000000000000000000000000000000000815233600482015260240161020b565b600080546001600160a01b0383811673ffffffffffffffffffffffffffffffffffffffff19831681178455604051919092169283917f8be0079c531659141344cd1fd0a4f28419497f9722a3daafe3b4186f6b6457e09190a35050565b600081471015610a05576040517fcf4791810000000000000000000000000000000000000000000000000000000081524760048201526024810183905260440161020b565b763d602d80600a3d3981f3363d3d373d3d3d363d730000008360601b60e81c176000526e5af43d82803e903d91602b57fd5bf38360781b176020526037600983f090506001600160a01b038116610917576040517fb06ebf3d00000000000000000000000000000000000000000000000000000000815260040160405180910390fd5b7f4e487b7100000000000000000000000000000000000000000000000000000000600052604160045260246000fd5b6040805190810167ffffffffffffffff81118282101715610ada57610ada610a88565b60405290565b604051610120810167ffffffffffffffff81118282101715610ada57610ada610a88565b600082601f830112610b1557600080fd5b813567ffffffffffffffff811115610b2f57610b2f610a88565b604051601f8201601f19908116603f0116810167ffffffffffffffff81118282101715610b5e57610b5e610a88565b604052818152838201602001851015610b7657600080fd5b816020850160208301376000918101602001919091529392505050565b80356001600160a01b0381168114610baa57600080fd5b919050565b60008060008060808587031215610bc557600080fd5b843567ffffffffffffffff811115610bdc57600080fd5b610be887828801610b04565b945050602085013567ffffffffffffffff811115610c0557600080fd5b610c1187828801610b04565b935050604085013567ffffffffffffffff811115610c2e57600080fd5b610c3a87828801610b04565b925050610c4960608601610b93565b905092959194509250565b600080828403610160811215610c6957600080fd5b833567ffffffffffffffff811115610c8057600080fd5b610c8c86828701610b04565b935050610140601f1982011215610ca257600080fd5b610caa610ab7565b610cb660208601610b93565b8152610120603f1983011215610ccb57600080fd5b610cd3610ae0565b9150610ce160408601610b93565b8252610cef60608601610b93565b6020830152610d0060808601610b93565b6040830152610d1160a08601610b93565b6060830152610d2260c08601610b93565b6080830152610d3360e08601610b93565b60a0830152610d456101008601610b93565b60c0830152610d576101208601610b93565b60e0830152610d696101408601610b93565b61010083015281602082015280925050509250929050565b600060208284031215610d9357600080fd5b610d9c82610b93565b9392505050565b60005b83811015610dbe578181015183820152602001610da6565b50506000910152565b60008251610dd9818460208701610da3565b9190910192915050565b60008151808452610dfb816020860160208601610da3565b601f01601f19169290920160200192915050565b61018081526000610e24610180830187610de3565b8281036020840152610e368187610de3565b9150506001600160a01b03841660408301526001600160a01b0383511660608301526001600160a01b0360208401511660808301526040830151610e8560a08401826001600160a01b03169052565b5060608301516001600160a01b03811660c08401525060808301516001600160a01b03811660e08401525060a08301516001600160a01b0381166101008401525060c08301516001600160a01b0381166101208401525060e08301516001600160a01b038116610140840152506101008301516001600160a01b038116610160840152509594505050505056fea2646970667358221220cfaab8cf13dcf9804bd72c2b65f2ecf4c5e46f8cef5a9a7a8e631ad710cbc3bb64736f6c634300081b0033",
  "linkReferences": {},
  "deployedLinkReferences": {}
}