{
  "_format": "hh-sol-artifact-1",
  "contractName": "Zeto_AnonNullifier",
  "sourceName": "contracts/zeto_anon_nullifier.sol",
  "abi": [
    {
      "inputs": [
        {
          "internalType": "address",
          "name": "target",
          "type": "address"
        }
      ],
      "name": "AddressEmptyCode",
      "type": "error"
    },
    {
      "inputs": [
        {
          "internalType": "address",
          "name": "implementation",
          "type": "address"
        }
      ],
      "name": "ERC1967InvalidImplementation",
      "type": "error"
    },
    {
      "inputs": [],
      "name": "ERC1967NonPayable",
      "type": "error"
    },
    {
      "inputs": [],
      "name": "FailedCall",
      "type": "error"
    },
    {
      "inputs": [],
      "name": "InvalidInitialization",
      "type": "error"
    },
    {
      "inputs": [],
      "name": "NotInitializing",
      "type": "error"
    },
    {
      "inputs": [
        {
          "internalType": "uint256",
          "name": "utxo",
          "type": "uint256"
        },
        {
          "internalType": "address",
          "name": "delegate",
          "type": "address"
        },
        {
          "internalType": "address",
          "name": "sender",
          "type": "address"
        }
      ],
      "name": "NotLockDelegate",
      "type": "error"
    },
    {
      "inputs": [
        {
          "internalType": "address",
          "name": "owner",
          "type": "address"
        }
      ],
      "name": "OwnableInvalidOwner",
      "type": "error"
    },
    {
      "inputs": [
        {
          "internalType": "address",
          "name": "account",
          "type": "address"
        }
      ],
      "name": "OwnableUnauthorizedAccount",
      "type": "error"
    },
    {
      "inputs": [
        {
          "internalType": "uint256",
          "name": "utxo",
          "type": "uint256"
        }
      ],
      "name": "UTXOAlreadyLocked",
      "type": "error"
    },
    {
      "inputs": [
        {
          "internalType": "uint256",
          "name": "utxo",
          "type": "uint256"
        }
      ],
      "name": "UTXOAlreadyOwned",
      "type": "error"
    },
    {
      "inputs": [
        {
          "internalType": "uint256",
          "name": "utxo",
          "type": "uint256"
        }
      ],
      "name": "UTXOAlreadySpent",
      "type": "error"
    },
    {
      "inputs": [
        {
          "internalType": "uint256",
          "name": "maxAllowed",
          "type": "uint256"
        }
      ],
      "name": "UTXOArrayTooLarge",
      "type": "error"
    },
    {
      "inputs": [
        {
          "internalType": "uint256",
          "name": "utxo",
          "type": "uint256"
        }
      ],
      "name": "UTXODuplicate",
      "type": "error"
    },
    {
      "inputs": [
        {
          "internalType": "uint256",
          "name": "utxo",
          "type": "uint256"
        }
      ],
      "name": "UTXONotLocked",
      "type": "error"
    },
    {
      "inputs": [
        {
          "internalType": "uint256",
          "name": "utxo",
          "type": "uint256"
        }
      ],
      "name": "UTXONotMinted",
      "type": "error"
    },
    {
      "inputs": [
        {
          "internalType": "uint256",
          "name": "root",
          "type": "uint256"
        }
      ],
      "name": "UTXORootNotFound",
      "type": "error"
    },
    {
      "inputs": [],
      "name": "UUPSUnauthorizedCallContext",
      "type": "error"
    },
    {
      "inputs": [
        {
          "internalType": "bytes32",
          "name": "slot",
          "type": "bytes32"
        }
      ],
      "name": "UUPSUnsupportedProxiableUUID",
      "type": "error"
    },
    {
      "inputs": [
        {
          "internalType": "uint256",
          "name": "maxAllowed",
          "type": "uint256"
        }
      ],
      "name": "WithdrawArrayTooLarge",
      "type": "error"
    },
    {
      "anonymous": false,
      "inputs": [
        {
          "indexed": false,
          "internalType": "uint64",
          "name": "version",
          "type": "uint64"
        }
      ],
      "name": "Initialized",
      "type": "event"
    },
    {
      "anonymous": false,
      "inputs": [
        {
          "indexed": false,
          "internalType": "uint256[]",
          "name": "lockedOutputs",
          "type": "uint256[]"
        },
        {
          "indexed": true,
          "internalType": "address",
          "name": "oldDelegate",
          "type": "address"
        },
        {
          "indexed": true,
          "internalType": "address",
          "name": "newDelegate",
          "type": "address"
        },
        {
          "indexed": false,
          "internalType": "bytes",
          "name": "data",
          "type": "bytes"
        }
      ],
      "name": "LockDelegateChanged",
      "type": "event"
    },
    {
      "anonymous": false,
      "inputs": [
        {
          "indexed": true,
          "internalType": "address",
          "name": "previousOwner",
          "type": "address"
        },
        {
          "indexed": true,
          "internalType": "address",
          "name": "newOwner",
          "type": "address"
        }
      ],
      "name": "OwnershipTransferred",
      "type": "event"
    },
    {
      "anonymous": false,
      "inputs": [
        {
          "indexed": false,
          "internalType": "uint256[]",
          "name": "inputs",
          "type": "uint256[]"
        },
        {
          "indexed": false,
          "internalType": "uint256",
          "name": "output",
          "type": "uint256"
        },
        {
          "indexed": true,
          "internalType": "address",
          "name": "submitter",
          "type": "address"
        },
        {
          "indexed": false,
          "internalType": "bytes",
          "name": "data",
          "type": "bytes"
        }
      ],
      "name": "UTXOBurn",
      "type": "event"
    },
    {
      "anonymous": false,
      "inputs": [
        {
          "indexed": false,
          "internalType": "uint256[]",
          "name": "outputs",
          "type": "uint256[]"
        },
        {
          "indexed": true,
          "internalType": "address",
          "name": "submitter",
          "type": "address"
        },
        {
          "indexed": false,
          "internalType": "bytes",
          "name": "data",
          "type": "bytes"
        }
      ],
      "name": "UTXOMint",
      "type": "event"
    },
    {
      "anonymous": false,
      "inputs": [
        {
          "indexed": false,
          "internalType": "uint256[]",
          "name": "inputs",
          "type": "uint256[]"
        },
        {
          "indexed": false,
          "internalType": "uint256[]",
          "name": "outputs",
          "type": "uint256[]"
        },
        {
          "indexed": true,
          "internalType": "address",
          "name": "submitter",
          "type": "address"
        },
        {
          "indexed": false,
          "internalType": "bytes",
          "name": "data",
          "type": "bytes"
        }
      ],
      "name": "UTXOTransfer",
      "type": "event"
    },
    {
      "anonymous": false,
      "inputs": [
        {
          "indexed": false,
          "internalType": "uint256[]",
          "name": "inputs",
          "type": "uint256[]"
        },
        {
          "indexed": false,
          "internalType": "uint256[]",
          "name": "outputs",
          "type": "uint256[]"
        },
        {
          "indexed": false,
          "internalType": "uint256",
          "name": "encryptionNonce",
          "type": "uint256"
        },
        {
          "indexed": false,
          "internalType": "uint256[2]",
          "name": "ecdhPublicKey",
          "type": "uint256[2]"
        },
        {
          "indexed": false,
          "internalType": "uint256[]",
          "name": "encryptedValues",
          "type": "uint256[]"
        },
        {
          "indexed": true,
          "internalType": "address",
          "name": "submitter",
          "type": "address"
        },
        {
          "indexed": false,
          "internalType": "bytes",
          "name": "data",
          "type": "bytes"
        }
      ],
      "name": "UTXOTransferWithEncryptedValues",
      "type": "event"
    },
    {
      "anonymous": false,
      "inputs": [
        {
          "indexed": false,
          "internalType": "uint256",
          "name": "amount",
          "type": "uint256"
        },
        {
          "indexed": false,
          "internalType": "uint256[]",
          "name": "inputs",
          "type": "uint256[]"
        },
        {
          "indexed": false,
          "internalType": "uint256",
          "name": "output",
          "type": "uint256"
        },
        {
          "indexed": true,
          "internalType": "address",
          "name": "submitter",
          "type": "address"
        },
        {
          "indexed": false,
          "internalType": "bytes",
          "name": "data",
          "type": "bytes"
        }
      ],
      "name": "UTXOWithdraw",
      "type": "event"
    },
    {
      "anonymous": false,
      "inputs": [
        {
          "indexed": false,
          "internalType": "uint256[]",
          "name": "inputs",
          "type": "uint256[]"
        },
        {
          "indexed": false,
          "internalType": "uint256[]",
          "name": "outputs",
          "type": "uint256[]"
        },
        {
          "indexed": false,
          "internalType": "uint256[]",
          "name": "lockedOutputs",
          "type": "uint256[]"
        },
        {
          "indexed": true,
          "internalType": "address",
          "name": "delegate",
          "type": "address"
        },
        {
          "indexed": true,
          "internalType": "address",
          "name": "submitter",
          "type": "address"
        },
        {
          "indexed": false,
          "internalType": "bytes",
          "name": "data",
          "type": "bytes"
        }
      ],
      "name": "UTXOsLocked",
      "type": "event"
    },
    {
      "anonymous": false,
      "inputs": [
        {
          "indexed": true,
          "internalType": "address",
          "name": "implementation",
          "type": "address"
        }
      ],
      "name": "Upgraded",
      "type": "event"
    },
    {
      "inputs": [],
      "name": "UPGRADE_INTERFACE_VERSION",
      "outputs": [
        {
          "internalType": "string",
          "name": "",
          "type": "string"
        }
      ],
      "stateMutability": "view",
      "type": "function"
    },
    {
      "inputs": [
        {
          "internalType": "contract Groth16Verifier_Deposit",
          "name": "depositVerifier",
          "type": "address"
        }
      ],
      "name": "__ZetoFungible_init",
      "outputs": [],
      "stateMutability": "nonpayable",
      "type": "function"
    },
    {
      "inputs": [
        {
          "internalType": "uint256",
          "name": "amount",
          "type": "uint256"
        },
        {
          "internalType": "uint256[]",
          "name": "outputs",
          "type": "uint256[]"
        },
        {
          "components": [
            {
              "internalType": "uint256[2]",
              "name": "pA",
              "type": "uint256[2]"
            },
            {
              "internalType": "uint256[2][2]",
              "name": "pB",
              "type": "uint256[2][2]"
            },
            {
              "internalType": "uint256[2]",
              "name": "pC",
              "type": "uint256[2]"
            }
          ],
          "internalType": "struct Commonlib.Proof",
          "name": "proof",
          "type": "tuple"
        }
      ],
      "name": "_deposit",
      "outputs": [],
      "stateMutability": "nonpayable",
      "type": "function"
    },
    {
      "inputs": [
        {
          "internalType": "uint256",
          "name": "amount",
          "type": "uint256"
        },
        {
          "internalType": "uint256[]",
          "name": "nullifiers",
          "type": "uint256[]"
        },
        {
          "internalType": "uint256",
          "name": "output",
          "type": "uint256"
        },
        {
          "internalType": "uint256",
          "name": "root",
          "type": "uint256"
        },
        {
          "components": [
            {
              "internalType": "uint256[2]",
              "name": "pA",
              "type": "uint256[2]"
            },
            {
              "internalType": "uint256[2][2]",
              "name": "pB",
              "type": "uint256[2][2]"
            },
            {
              "internalType": "uint256[2]",
              "name": "pC",
              "type": "uint256[2]"
            }
          ],
          "internalType": "struct Commonlib.Proof",
          "name": "proof",
          "type": "tuple"
        }
      ],
      "name": "_withdrawWithNullifiers",
      "outputs": [],
      "stateMutability": "nonpayable",
      "type": "function"
    },
    {
      "inputs": [
        {
          "internalType": "uint256[]",
          "name": "commitments",
          "type": "uint256[]"
        }
      ],
      "name": "checkAndPadCommitments",
      "outputs": [
        {
          "internalType": "uint256[]",
          "name": "",
          "type": "uint256[]"
        }
      ],
      "stateMutability": "pure",
      "type": "function"
    },
    {
      "inputs": [],
      "name": "decimals",
      "outputs": [
        {
          "internalType": "uint8",
          "name": "",
          "type": "uint8"
        }
      ],
      "stateMutability": "view",
      "type": "function"
    },
    {
      "inputs": [
        {
          "internalType": "uint256[]",
          "name": "utxos",
          "type": "uint256[]"
        },
        {
          "internalType": "address",
          "name": "delegate",
          "type": "address"
        },
        {
          "internalType": "bytes",
          "name": "data",
          "type": "bytes"
        }
      ],
      "name": "delegateLock",
      "outputs": [],
      "stateMutability": "nonpayable",
      "type": "function"
    },
    {
      "inputs": [
        {
          "internalType": "uint256",
          "name": "amount",
          "type": "uint256"
        },
        {
          "internalType": "uint256[]",
          "name": "outputs",
          "type": "uint256[]"
        },
        {
          "components": [
            {
              "internalType": "uint256[2]",
              "name": "pA",
              "type": "uint256[2]"
            },
            {
              "internalType": "uint256[2][2]",
              "name": "pB",
              "type": "uint256[2][2]"
            },
            {
              "internalType": "uint256[2]",
              "name": "pC",
              "type": "uint256[2]"
            }
          ],
          "internalType": "struct Commonlib.Proof",
          "name": "proof",
          "type": "tuple"
        },
        {
          "internalType": "bytes",
          "name": "data",
          "type": "bytes"
        }
      ],
      "name": "deposit",
      "outputs": [],
      "stateMutability": "nonpayable",
      "type": "function"
    },
    {
      "inputs": [],
      "name": "getRoot",
      "outputs": [
        {
          "internalType": "uint256",
          "name": "",
          "type": "uint256"
        }
      ],
      "stateMutability": "view",
      "type": "function"
    },
    {
      "inputs": [],
      "name": "getRootForLocked",
      "outputs": [
        {
          "internalType": "uint256",
          "name": "",
          "type": "uint256"
        }
      ],
      "stateMutability": "view",
      "type": "function"
    },
    {
      "inputs": [
        {
          "internalType": "string",
          "name": "name",
          "type": "string"
        },
        {
          "internalType": "string",
          "name": "symbol",
          "type": "string"
        },
        {
          "internalType": "address",
          "name": "initialOwner",
          "type": "address"
        },
        {
          "components": [
            {
              "internalType": "address",
              "name": "verifier",
              "type": "address"
            },
            {
              "internalType": "address",
              "name": "depositVerifier",
              "type": "address"
            },
            {
              "internalType": "address",
              "name": "withdrawVerifier",
              "type": "address"
            },
            {
              "internalType": "address",
              "name": "lockVerifier",
              "type": "address"
            },
            {
              "internalType": "address",
              "name": "burnVerifier",
              "type": "address"
            },
            {
              "internalType": "address",
              "name": "batchVerifier",
              "type": "address"
            },
            {
              "internalType": "address",
              "name": "batchWithdrawVerifier",
              "type": "address"
            },
            {
              "internalType": "address",
              "name": "batchLockVerifier",
              "type": "address"
            },
            {
              "internalType": "address",
              "name": "batchBurnVerifier",
              "type": "address"
            }
          ],
          "internalType": "struct IZetoInitializable.VerifiersInfo",
          "name": "verifiers",
          "type": "tuple"
        }
      ],
      "name": "initialize",
      "outputs": [],
      "stateMutability": "nonpayable",
      "type": "function"
    },
    {
      "inputs": [
        {
          "internalType": "uint256[]",
          "name": "nullifiers",
          "type": "uint256[]"
        },
        {
          "internalType": "uint256[]",
          "name": "outputs",
          "type": "uint256[]"
        },
        {
          "internalType": "uint256[]",
          "name": "lockedOutputs",
          "type": "uint256[]"
        },
        {
          "internalType": "uint256",
          "name": "root",
          "type": "uint256"
        },
        {
          "components": [
            {
              "internalType": "uint256[2]",
              "name": "pA",
              "type": "uint256[2]"
            },
            {
              "internalType": "uint256[2][2]",
              "name": "pB",
              "type": "uint256[2][2]"
            },
            {
              "internalType": "uint256[2]",
              "name": "pC",
              "type": "uint256[2]"
            }
          ],
          "internalType": "struct Commonlib.Proof",
          "name": "proof",
          "type": "tuple"
        },
        {
          "internalType": "address",
          "name": "delegate",
          "type": "address"
        },
        {
          "internalType": "bytes",
          "name": "data",
          "type": "bytes"
        }
      ],
      "name": "lock",
      "outputs": [],
      "stateMutability": "nonpayable",
      "type": "function"
    },
    {
      "inputs": [
        {
          "internalType": "uint256",
          "name": "utxo",
          "type": "uint256"
        },
        {
          "internalType": "address",
          "name": "delegate",
          "type": "address"
        }
      ],
      "name": "locked",
      "outputs": [
        {
          "internalType": "bool",
          "name": "",
          "type": "bool"
        },
        {
          "internalType": "address",
          "name": "",
          "type": "address"
        }
      ],
      "stateMutability": "view",
      "type": "function"
    },
    {
      "inputs": [
        {
          "internalType": "uint256[]",
          "name": "utxos",
          "type": "uint256[]"
        },
        {
          "internalType": "bytes",
          "name": "data",
          "type": "bytes"
        }
      ],
      "name": "mint",
      "outputs": [],
      "stateMutability": "nonpayable",
      "type": "function"
    },
    {
      "inputs": [],
      "name": "name",
      "outputs": [
        {
          "internalType": "string",
          "name": "",
          "type": "string"
        }
      ],
      "stateMutability": "view",
      "type": "function"
    },
    {
      "inputs": [],
      "name": "owner",
      "outputs": [
        {
          "internalType": "address",
          "name": "",
          "type": "address"
        }
      ],
      "stateMutability": "view",
      "type": "function"
    },
    {
      "inputs": [],
      "name": "proxiableUUID",
      "outputs": [
        {
          "internalType": "bytes32",
          "name": "",
          "type": "bytes32"
        }
      ],
      "stateMutability": "view",
      "type": "function"
    },
    {
      "inputs": [],
      "name": "renounceOwnership",
      "outputs": [],
      "stateMutability": "nonpayable",
      "type": "function"
    },
    {
      "inputs": [
        {
          "internalType": "contract IERC20",
          "name": "erc20",
          "type": "address"
        }
      ],
      "name": "setERC20",
      "outputs": [],
      "stateMutability": "nonpayable",
      "type": "function"
    },
    {
      "inputs": [],
      "name": "symbol",
      "outputs": [
        {
          "internalType": "string",
          "name": "",
          "type": "string"
        }
      ],
      "stateMutability": "view",
      "type": "function"
    },
    {
      "inputs": [
        {
          "internalType": "uint256[]",
          "name": "nullifiers",
          "type": "uint256[]"
        },
        {
          "internalType": "uint256[]",
          "name": "outputs",
          "type": "uint256[]"
        },
        {
          "internalType": "uint256",
          "name": "root",
          "type": "uint256"
        },
        {
          "components": [
            {
              "internalType": "uint256[2]",
              "name": "pA",
              "type": "uint256[2]"
            },
            {
              "internalType": "uint256[2][2]",
              "name": "pB",
              "type": "uint256[2][2]"
            },
            {
              "internalType": "uint256[2]",
              "name": "pC",
              "type": "uint256[2]"
            }
          ],
          "internalType": "struct Commonlib.Proof",
          "name": "proof",
          "type": "tuple"
        },
        {
          "internalType": "bytes",
          "name": "data",
          "type": "bytes"
        }
      ],
      "name": "transfer",
      "outputs": [
        {
          "internalType": "bool",
          "name": "",
          "type": "bool"
        }
      ],
      "stateMutability": "nonpayable",
      "type": "function"
    },
    {
      "inputs": [
        {
          "internalType": "uint256[]",
          "name": "nullifiers",
          "type": "uint256[]"
        },
        {
          "internalType": "uint256[]",
          "name": "outputs",
          "type": "uint256[]"
        },
        {
          "internalType": "uint256",
          "name": "root",
          "type": "uint256"
        },
        {
          "components": [
            {
              "internalType": "uint256[2]",
              "name": "pA",
              "type": "uint256[2]"
            },
            {
              "internalType": "uint256[2][2]",
              "name": "pB",
              "type": "uint256[2][2]"
            },
            {
              "internalType": "uint256[2]",
              "name": "pC",
              "type": "uint256[2]"
            }
          ],
          "internalType": "struct Commonlib.Proof",
          "name": "proof",
          "type": "tuple"
        },
        {
          "internalType": "bytes",
          "name": "data",
          "type": "bytes"
        }
      ],
      "name": "transferLocked",
      "outputs": [
        {
          "internalType": "bool",
          "name": "",
          "type": "bool"
        }
      ],
      "stateMutability": "nonpayable",
      "type": "function"
    },
    {
      "inputs": [
        {
          "internalType": "address",
          "name": "newOwner",
          "type": "address"
        }
      ],
      "name": "transferOwnership",
      "outputs": [],
      "stateMutability": "nonpayable",
      "type": "function"
    },
    {
      "inputs": [
        {
          "internalType": "uint256[]",
          "name": "nullifiers",
          "type": "uint256[]"
        },
        {
          "internalType": "uint256[]",
          "name": "outputs",
          "type": "uint256[]"
        },
        {
          "internalType": "uint256",
          "name": "root",
          "type": "uint256"
        },
        {
          "components": [
            {
              "internalType": "uint256[2]",
              "name": "pA",
              "type": "uint256[2]"
            },
            {
              "internalType": "uint256[2][2]",
              "name": "pB",
              "type": "uint256[2][2]"
            },
            {
              "internalType": "uint256[2]",
              "name": "pC",
              "type": "uint256[2]"
            }
          ],
          "internalType": "struct Commonlib.Proof",
          "name": "proof",
          "type": "tuple"
        },
        {
          "internalType": "bytes",
          "name": "data",
          "type": "bytes"
        }
      ],
      "name": "unlock",
      "outputs": [],
      "stateMutability": "nonpayable",
      "type": "function"
    },
    {
      "inputs": [
        {
          "internalType": "address",
          "name": "newImplementation",
          "type": "address"
        },
        {
          "internalType": "bytes",
          "name": "data",
          "type": "bytes"
        }
      ],
      "name": "upgradeToAndCall",
      "outputs": [],
      "stateMutability": "payable",
      "type": "function"
    },
    {
      "inputs": [
        {
          "internalType": "uint256[]",
          "name": "nullifiers",
          "type": "uint256[]"
        },
        {
          "internalType": "uint256[]",
          "name": "outputs",
          "type": "uint256[]"
        },
        {
          "internalType": "uint256",
          "name": "root",
          "type": "uint256"
        },
        {
          "components": [
            {
              "internalType": "uint256[2]",
              "name": "pA",
              "type": "uint256[2]"
            },
            {
              "internalType": "uint256[2][2]",
              "name": "pB",
              "type": "uint256[2][2]"
            },
            {
              "internalType": "uint256[2]",
              "name": "pC",
              "type": "uint256[2]"
            }
          ],
          "internalType": "struct Commonlib.Proof",
          "name": "proof",
          "type": "tuple"
        }
      ],
      "name": "verifyProof",
      "outputs": [
        {
          "internalType": "bool",
          "name": "",
          "type": "bool"
        }
      ],
      "stateMutability": "view",
      "type": "function"
    },
    {
      "inputs": [
        {
          "internalType": "uint256[]",
          "name": "nullifiers",
          "type": "uint256[]"
        },
        {
          "internalType": "uint256[]",
          "name": "outputs",
          "type": "uint256[]"
        },
        {
          "internalType": "uint256",
          "name": "root",
          "type": "uint256"
        },
        {
          "components": [
            {
              "internalType": "uint256[2]",
              "name": "pA",
              "type": "uint256[2]"
            },
            {
              "internalType": "uint256[2][2]",
              "name": "pB",
              "type": "uint256[2][2]"
            },
            {
              "internalType": "uint256[2]",
              "name": "pC",
              "type": "uint256[2]"
            }
          ],
          "internalType": "struct Commonlib.Proof",
          "name": "proof",
          "type": "tuple"
        }
      ],
      "name": "verifyProofLocked",
      "outputs": [
        {
          "internalType": "bool",
          "name": "",
          "type": "bool"
        }
      ],
      "stateMutability": "view",
      "type": "function"
    },
    {
      "inputs": [
        {
          "internalType": "uint256",
          "name": "amount",
          "type": "uint256"
        },
        {
          "internalType": "uint256[]",
          "name": "nullifiers",
          "type": "uint256[]"
        },
        {
          "internalType": "uint256",
          "name": "output",
          "type": "uint256"
        },
        {
          "internalType": "uint256",
          "name": "root",
          "type": "uint256"
        },
        {
          "components": [
            {
              "internalType": "uint256[2]",
              "name": "pA",
              "type": "uint256[2]"
            },
            {
              "internalType": "uint256[2][2]",
              "name": "pB",
              "type": "uint256[2][2]"
            },
            {
              "internalType": "uint256[2]",
              "name": "pC",
              "type": "uint256[2]"
            }
          ],
          "internalType": "struct Commonlib.Proof",
          "name": "proof",
          "type": "tuple"
        },
        {
          "internalType": "bytes",
          "name": "data",
          "type": "bytes"
        }
      ],
      "name": "withdraw",
      "outputs": [],
      "stateMutability": "nonpayable",
      "type": "function"
    }
  ],
  "bytecode": "0x60a060405230608052348015601357600080fd5b506080516145d961003d600039600081816121a8015281816121d1015261234f01526145d96000f3fe6080604052600436106101b75760003560e01c80638bb2513b116100ec578063c29a6fda1161008a578063da805f1111610064578063da805f1114610526578063f2fde38b14610546578063f586acdb14610566578063f7e648d31461058657600080fd5b8063c29a6fda146104c6578063cd523c73146104e6578063d07b1cfb1461050657600080fd5b80639e2a7194116100c65780639e2a71941461041d5780639fcc50af1461043d578063a4ef9ad11461045d578063ad3cb1cc1461047d57600080fd5b80638bb2513b146103a15780638da5cb5b146103c157806395d89b411461040857600080fd5b80633f2b2a1d116101595780635ca1e165116101335780635ca1e1651461033757806366eded991461034c578063715018a61461036c57806374366e3c1461038157600080fd5b80633f2b2a1d146102df5780634f1ef2861461030157806352d1902d1461031457600080fd5b806324ce729e1161019557806324ce729e1461023757806324ef458a1461026457806329bb0a84146102a3578063313ce567146102c357600080fd5b806306fdde03146101bc57806322414cf3146101e7578063234ea4b214610217575b600080fd5b3480156101c857600080fd5b506101d161059b565b6040516101de919061359d565b60405180910390f35b3480156101f357600080fd5b5061020761020236600461372d565b61062d565b60405190151581526020016101de565b34801561022357600080fd5b506102076102323660046137e5565b6107da565b34801561024357600080fd5b5061025761025236600461386a565b610a67565b6040516101de91906138db565b34801561027057600080fd5b5061028461027f366004613913565b610ad5565b6040805192151583526001600160a01b039091166020830152016101de565b3480156102af57600080fd5b506102076102be3660046137e5565b610aee565b3480156102cf57600080fd5b50604051600481526020016101de565b3480156102eb57600080fd5b506102ff6102fa366004613943565b610c70565b005b6102ff61030f366004613a94565b610dbb565b34801561032057600080fd5b50610329610dda565b6040519081526020016101de565b34801561034357600080fd5b50610329610e09565b34801561035857600080fd5b506102ff610367366004613af8565b610e86565b34801561037857600080fd5b506102ff610f82565b34801561038d57600080fd5b506102ff61039c36600461372d565b610f96565b3480156103ad57600080fd5b506102ff6103bc366004613b98565b610fad565b3480156103cd57600080fd5b507f9016d09d72d40fdae2fd8ceac6b6234c7706214fd39c1cd1e609a0528c199300546040516001600160a01b0390911681526020016101de565b34801561041457600080fd5b506101d1610fc5565b34801561042957600080fd5b506102ff610438366004613c06565b610fd4565b34801561044957600080fd5b506102ff610458366004613c73565b611351565b34801561046957600080fd5b506102ff610478366004613c90565b61137b565b34801561048957600080fd5b506101d16040518060400160405280600581526020017f352e302e3000000000000000000000000000000000000000000000000000000081525081565b3480156104d257600080fd5b506102ff6104e1366004613c73565b6115b7565b3480156104f257600080fd5b506102ff610501366004613d0e565b6115e1565b34801561051257600080fd5b5061020761052136600461372d565b6115f7565b34801561053257600080fd5b506102ff610541366004613d9b565b61174c565b34801561055257600080fd5b506102ff610561366004613c73565b611976565b34801561057257600080fd5b506102ff610581366004613e14565b6119cd565b34801561059257600080fd5b50610329611b0f565b6060600080546105aa90613eac565b80601f01602080910402602001604051908101604052809291908181526020018280546105d690613eac565b80156106235780601f106105f857610100808354040283529160200191610623565b820191906000526020600020905b81548152906001019060200180831161060657829003601f168201915b5050505050905090565b600061063887610a67565b965061064386610a67565b95506106528787876000611b4a565b5061065f878787876107da565b50606061066f8888836000611b76565b6000885167ffffffffffffffff81111561068b5761068b6135d0565b6040519080825280602002602001820160405280156106b4578160200160208202803683370190505b5090506000885167ffffffffffffffff8111156106d3576106d36135d0565b6040519080825280602002602001820160405280156106fc578160200160208202803683370190505b50905060005b8a51811015610782578a818151811061071d5761071d613ee0565b602002602001015183828151811061073757610737613ee0565b60200260200101818152505089818151811061075557610755613ee0565b602002602001015182828151811061076f5761076f613ee0565b6020908102919091010152600101610702565b50336001600160a01b03167fcb56a7130431b68e0e636f24584d40580490c1bf882bef3701f317d47ba98c38838389896040516107c29493929190613f1f565b60405180910390a25060019998505050505050505050565b60006002855111806107ed575060028451115b15610940576000610803868686601f6000611b92565b905061080d6134c1565b60005b601f8110156108525782818151811061082b5761082b613ee0565b60200260200101518282601f811061084557610845613ee0565b6020020152600101610810565b50606c54604080517f44a173dd0000000000000000000000000000000000000000000000000000000081526001600160a01b03909216916344a173dd916108a791889182019060c08301908790600401613f89565b602060405180830381865afa1580156108c4573d6000803e3d6000fd5b505050506040513d601f19601f820116820180604052508101906108e89190613fec565b6109395760405162461bcd60e51b815260206004820152601560248201527f496e76616c69642070726f6f662028626174636829000000000000000000000060448201526064015b60405180910390fd5b5050610a5c565b600061095186868660076000611b92565b905061095b6134e0565b60005b60078110156109a05782818151811061097957610979613ee0565b602002602001015182826007811061099357610993613ee0565b602002015260010161095e565b50606b546040805163c894e75760e01b81526001600160a01b039092169163c894e757916109dc91889182019060c08301908790600401614007565b602060405180830381865afa1580156109f9573d6000803e3d6000fd5b505050506040513d601f19601f82011682018060405250810190610a1d9190613fec565b610a595760405162461bcd60e51b815260206004820152600d60248201526c24b73b30b634b210383937b7b360991b6044820152606401610930565b50505b506001949350505050565b8051606090600a811115610aaa576040517f9ebbc98e000000000000000000000000000000000000000000000000000000008152600a6004820152602401610930565b60006002821115610abd5750600a610ac1565b5060025b610acd84826000611d5a565b949350505050565b600080610ae28484611e3a565b915091505b9250929050565b6000600285511180610b01575060028451115b15610bbb576000610b1786868660206001611b92565b9050610b216134fe565b60005b6020811015610b6657828181518110610b3f57610b3f613ee0565b6020026020010151828260208110610b5957610b59613ee0565b6020020152600101610b24565b50606e54604080517f3cc08b240000000000000000000000000000000000000000000000000000000081526001600160a01b0390921691633cc08b24916108a791889182019060c0830190879060040161404e565b6000610bcc86868660086001611b92565b9050610bd661351d565b60005b6008811015610c1b57828181518110610bf457610bf4613ee0565b6020026020010151828260088110610c0e57610c0e613ee0565b6020020152600101610bd9565b50606d54604080517fc9219a7a0000000000000000000000000000000000000000000000000000000081526001600160a01b039092169163c9219a7a916109dc91889182019060c08301908790600401614095565b600086518851610c8091906140f2565b67ffffffffffffffff811115610c9857610c986135d0565b604051908082528060200260200182016040528015610cc1578160200160208202803683370190505b50905060005b8851811015610d0f57888181518110610ce257610ce2613ee0565b6020026020010151828281518110610cfc57610cfc613ee0565b6020908102919091010152600101610cc7565b5060005b8751811015610d6757878181518110610d2e57610d2e613ee0565b602002602001015182828b51610d4491906140f2565b81518110610d5457610d54613ee0565b6020908102919091010152600101610d13565b50610d7189610a67565b9850610d7c81610a67565b9050610d8b8982886000611b4a565b50610d98898288886107da565b50610da289611ef0565b610db0898989878787611f6b565b505050505050505050565b610dc361219d565b610dcc82612254565b610dd6828261225c565b5050565b6000610de4612344565b507f360894a13ba1a3210667c828492db98dca3e2076cc3735a920a3ca505d382bbc90565b6040516379f9712560e01b81526002600482015260009073__$dc6c4dd02ac6da041aea5ed0aea43c2a22$__906379f97125906024015b602060405180830381865af4158015610e5d573d6000803e3d6000fd5b505050506040513d601f19601f82011682018060405250810190610e819190614105565b905090565b6000865167ffffffffffffffff811115610ea257610ea26135d0565b604051908082528060200260200182016040528015610ecb578160200160208202803683370190505b5090508581600081518110610ee257610ee2613ee0565b602002602001018181525050610ef787610a67565b9650610f0281610a67565b9050610f118782876000611b4a565b50610f1f8888888888610fd4565b6060610f2e8883836000611b76565b336001600160a01b03167f7d8a8f009bcd9cd0dc27e36fe37cc7cfe2bbd1469c0970d31046d3c12ec7f48c8a8a8a8888604051610f6f95949392919061411e565b60405180910390a2505050505050505050565b610f8a61238d565b610f946000612401565b565b610fa48686868686866115f7565b50505050505050565b610fb561238d565b610fc0838383612472565b505050565b6060600180546105aa90613eac565b6002845111156111555760178451111561101d576040517f71798fb500000000000000000000000000000000000000000000000000000000815260176004820152602401610930565b600061102d8686868660176124cf565b905061103761353c565b60005b601781101561107c5782818151811061105557611055613ee0565b602002602001015182826017811061106f5761106f613ee0565b602002015260010161103a565b50606a54604080517fa0c2a19a0000000000000000000000000000000000000000000000000000000081526001600160a01b039092169163a0c2a19a916110d191879182019060c0830190879060040161415c565b602060405180830381865afa1580156110ee573d6000803e3d6000fd5b505050506040513d601f19601f820116820180604052508101906111129190613fec565b61114e5760405162461bcd60e51b815260206004820152600d60248201526c24b73b30b634b210383937b7b360991b6044820152606401610930565b5050611270565b60006111658686868660076124cf565b905061116f6134e0565b60005b60078110156111b45782818151811061118d5761118d613ee0565b60200260200101518282600781106111a7576111a7613ee0565b6020020152600101611172565b506069546040805163c894e75760e01b81526001600160a01b039092169163c894e757916111f091879182019060c08301908790600401614007565b602060405180830381865afa15801561120d573d6000803e3d6000fd5b505050506040513d601f19601f820116820180604052508101906112319190613fec565b61126d5760405162461bcd60e51b815260206004820152600d60248201526c24b73b30b634b210383937b7b360991b6044820152606401610930565b50505b6068546040517fa9059cbb000000000000000000000000000000000000000000000000000000008152336004820152602481018790526001600160a01b039091169063a9059cbb906044016020604051808303816000875af11580156112da573d6000803e3d6000fd5b505050506040513d601f19601f820116820180604052508101906112fe9190613fec565b61134a5760405162461bcd60e51b815260206004820152601f60248201527f4661696c656420746f207472616e7366657220455243323020746f6b656e73006044820152606401610930565b5050505050565b611359612663565b606780546001600160a01b0319166001600160a01b0392909216919091179055565b60005b84518110156115615784818151811061139957611399613ee0565b602002602001015160000315611559576000806113cf8784815181106113c1576113c1613ee0565b602002602001015133611e3a565b909250905081611428578683815181106113eb576113eb613ee0565b60200260200101516040517fe41859a600000000000000000000000000000000000000000000000000000000815260040161093091815260200190565b6001600160a01b03811633146114a05786838151811061144a5761144a613ee0565b60209081029190910101516040517f9fec262f00000000000000000000000000000000000000000000000000000000815260048101919091526001600160a01b0387166024820152336044820152606401610930565b603473__$dc6c4dd02ac6da041aea5ed0aea43c2a22$__63c1d29f0190918986815181106114d0576114d0613ee0565b60209081029190910101516040517fffffffff0000000000000000000000000000000000000000000000000000000060e085901b168152600481019290925260248201526001600160a01b038916604482015260640160006040518083038186803b15801561153e57600080fd5b505af4158015611552573d6000803e3d6000fd5b5050505050505b60010161137e565b50826001600160a01b0316336001600160a01b03167fb81fc4239cf1f8a9964a337bb7866ffeb712f9e482d9cef0f5fac9fe3bd655b28685856040516115a9939291906141a3565b60405180910390a350505050565b6115bf61238d565b606880546001600160a01b0319166001600160a01b0392909216919091179055565b6115ec85858561174c565b61134a848383612472565b600061160287610a67565b965061160d86610a67565b955061161c8787876001611b4a565b5061162987878787610aee565b5060606116398888836000611b76565b6000885167ffffffffffffffff811115611655576116556135d0565b60405190808252806020026020018201604052801561167e578160200160208202803683370190505b5090506000885167ffffffffffffffff81111561169d5761169d6135d0565b6040519080825280602002602001820160405280156116c6578160200160208202803683370190505b50905060005b8a51811015610782578a81815181106116e7576116e7613ee0565b602002602001015183828151811061170157611701613ee0565b60200260200101818152505089818151811061171f5761171f613ee0565b602002602001015182828151811061173957611739613ee0565b60209081029190910101526001016116cc565b61175461355b565b8381528251839060009061176a5761176a613ee0565b60200260200101518160016003811061178557611785613ee0565b602002015282518390600190811061179f5761179f613ee0565b6020026020010151816002600381106117ba576117ba613ee0565b6020020152606754604080517f11479fea0000000000000000000000000000000000000000000000000000000081526001600160a01b03909216916311479fea9161181391869182019060c083019087906004016141d3565b602060405180830381865afa158015611830573d6000803e3d6000fd5b505050506040513d601f19601f820116820180604052508101906118549190613fec565b6118905760405162461bcd60e51b815260206004820152600d60248201526c24b73b30b634b210383937b7b360991b6044820152606401610930565b6068546040517f23b872dd000000000000000000000000000000000000000000000000000000008152336004820152306024820152604481018690526001600160a01b03909116906323b872dd906064016020604051808303816000875af1158015611900573d6000803e3d6000fd5b505050506040513d601f19601f820116820180604052508101906119249190613fec565b6119705760405162461bcd60e51b815260206004820152601f60248201527f4661696c656420746f207472616e7366657220455243323020746f6b656e73006044820152606401610930565b50505050565b61197e61238d565b6001600160a01b0381166119c1576040517f1e4fbdf700000000000000000000000000000000000000000000000000000000815260006004820152602401610930565b6119ca81612401565b50565b7ff0c57e16840df040f15088dc2f81fe391c3923bec73e23a9662efc9c229c6a00805468010000000000000000810460ff16159067ffffffffffffffff16600081158015611a185750825b905060008267ffffffffffffffff166001148015611a355750303b155b905081158015611a43575080155b15611a7a576040517ff92ee8a900000000000000000000000000000000000000000000000000000000815260040160405180910390fd5b845467ffffffffffffffff191660011785558315611aae57845468ff00000000000000001916680100000000000000001785555b611aba898989896126ca565b8315610db057845468ff000000000000000019168555604051600181527fc7f505b2f371ae2175ee4913f4499e1f2633a7b5936321eed1cdaeb6115181d29060200160405180910390a1505050505050505050565b6040516379f9712560e01b81526034600482015260009073__$dc6c4dd02ac6da041aea5ed0aea43c2a22$__906379f9712590602401610e40565b6000611b55856127d9565b50611b5f8461294f565b50611b6a8383612a72565b50600195945050505050565b611b7f84611ef0565b611b8883612bcb565b6119708282612cb2565b60608267ffffffffffffffff811115611bad57611bad6135d0565b604051908082528060200260200182016040528015611bd6578160200160208202803683370190505b5090506000805b8751811015611c3157878181518110611bf857611bf8613ee0565b6020026020010151838380611c0c9061421a565b945081518110611c1e57611c1e613ee0565b6020908102919091010152600101611bdd565b508215611c6357338282611c448161421a565b935081518110611c5657611c56613ee0565b6020026020010181815250505b848282611c6f8161421a565b935081518110611c8157611c81613ee0565b60200260200101818152505060005b8751811015611cf757878181518110611cab57611cab613ee0565b6020026020010151600014611cc1576001611cc4565b60005b60ff168383611cd28161421a565b945081518110611ce457611ce4613ee0565b6020908102919091010152600101611c90565b5060005b8651811015611d4f57868181518110611d1657611d16613ee0565b6020026020010151838380611d2a9061421a565b945081518110611d3c57611d3c613ee0565b6020908102919091010152600101611cfb565b505095945050505050565b606082845103611d6b575082611e33565b60008367ffffffffffffffff811115611d8657611d866135d0565b604051908082528060200260200182016040528015611daf578160200160208202803683370190505b50905060005b8551811015611dfd57858181518110611dd057611dd0613ee0565b6020026020010151828281518110611dea57611dea613ee0565b6020908102919091010152600101611db5565b5084515b84811015611e2f5783828281518110611e1c57611e1c613ee0565b6020908102919091010152600101611e01565b5090505b9392505050565b604051632eda066d60e11b815260346004820152602481018390526000908190819073__$dc6c4dd02ac6da041aea5ed0aea43c2a22$__90635db40cda90604401600060405180830381865af4158015611e98573d6000803e3d6000fd5b505050506040513d6000823e601f3d908101601f19168201604052611ec09190810190614291565b905080602001518015611edf5750836001600160a01b03168160800151145b816080015192509250509250929050565b60005b8151811015610dd657818181518110611f0e57611f0e613ee0565b6020026020010151600014611f6357600160666000848481518110611f3557611f35613ee0565b6020026020010151815260200190815260200160002060006101000a81548160ff0219169083151502179055505b600101611ef3565b60005b855181101561205357858181518110611f8957611f89613ee0565b60200260200101516000031561204b57600273__$dc6c4dd02ac6da041aea5ed0aea43c2a22$__63c1d29f019091888481518110611fc957611fc9613ee0565b6020026020010151898581518110611fe357611fe3613ee0565b60200260200101516040518463ffffffff1660e01b815260040161201a939291909283526020830191909152604082015260600190565b60006040518083038186803b15801561203257600080fd5b505af4158015612046573d6000803e3d6000fd5b505050505b600101611f6e565b5060005b84518110156121415784818151811061207257612072613ee0565b60200260200101516000031561213957603473__$dc6c4dd02ac6da041aea5ed0aea43c2a22$__63c1d29f0190918784815181106120b2576120b2613ee0565b60209081029190910101516040517fffffffff0000000000000000000000000000000000000000000000000000000060e085901b168152600481019290925260248201526001600160a01b038716604482015260640160006040518083038186803b15801561212057600080fd5b505af4158015612134573d6000803e3d6000fd5b505050505b600101612057565b50336001600160a01b0316836001600160a01b03167f2478e2370a2c14a2eb7579b8a4a140dc020d4d75daf0016542656bee955395f3888888878760405161218d959493929190614359565b60405180910390a3505050505050565b306001600160a01b037f000000000000000000000000000000000000000000000000000000000000000016148061223657507f00000000000000000000000000000000000000000000000000000000000000006001600160a01b031661222a7f360894a13ba1a3210667c828492db98dca3e2076cc3735a920a3ca505d382bbc546001600160a01b031690565b6001600160a01b031614155b15610f945760405163703e46dd60e11b815260040160405180910390fd5b6119ca61238d565b816001600160a01b03166352d1902d6040518163ffffffff1660e01b8152600401602060405180830381865afa9250505080156122b6575060408051601f3d908101601f191682019092526122b391810190614105565b60015b6122de57604051634c9c8ce360e01b81526001600160a01b0383166004820152602401610930565b7f360894a13ba1a3210667c828492db98dca3e2076cc3735a920a3ca505d382bbc811461233a576040517faa1d49a400000000000000000000000000000000000000000000000000000000815260048101829052602401610930565b610fc08383612d9e565b306001600160a01b037f00000000000000000000000000000000000000000000000000000000000000001614610f945760405163703e46dd60e11b815260040160405180910390fd5b336123bf7f9016d09d72d40fdae2fd8ceac6b6234c7706214fd39c1cd1e609a0528c199300546001600160a01b031690565b6001600160a01b031614610f94576040517f118cdaa7000000000000000000000000000000000000000000000000000000008152336004820152602401610930565b7f9016d09d72d40fdae2fd8ceac6b6234c7706214fd39c1cd1e609a0528c19930080546001600160a01b031981166001600160a01b03848116918217845560405192169182907f8be0079c531659141344cd1fd0a4f28419497f9722a3daafe3b4186f6b6457e090600090a3505050565b61247b8361294f565b5061248583612bcb565b336001600160a01b03167f7ff08e0ca1fce6b202b83128811e4f6ceda54930aa074cd365bf68f95c20ce198484846040516124c2939291906141a3565b60405180910390a2505050565b60608167ffffffffffffffff8111156124ea576124ea6135d0565b604051908082528060200260200182016040528015612513578160200160208202803683370190505b50905060008682826125248161421a565b93508151811061253657612536613ee0565b60200260200101818152505060005b86518110156125995786818151811061256057612560613ee0565b60200260200101518383806125749061421a565b94508151811061258657612586613ee0565b6020908102919091010152600101612545565b508382826125a68161421a565b9350815181106125b8576125b8613ee0565b60200260200101818152505060005b865181101561262e578681815181106125e2576125e2613ee0565b60200260200101516000146125f85760016125fb565b60005b60ff1683836126098161421a565b94508151811061261b5761261b613ee0565b60209081029190910101526001016125c7565b5084828261263b8161421a565b93508151811061264d5761264d613ee0565b6020026020010181815250505095945050505050565b7ff0c57e16840df040f15088dc2f81fe391c3923bec73e23a9662efc9c229c6a005468010000000000000000900460ff16610f94576040517fd7e6bcf800000000000000000000000000000000000000000000000000000000815260040160405180910390fd5b6126d2612663565b6126dd848484612df4565b6127156126f06040830160208401613c73565b6127006060840160408501613c73565b61271060e0850160c08601613c73565b612edb565b6127226020820182613c73565b606b80546001600160a01b0319166001600160a01b03929092169190911790556127526080820160608301613c73565b606d80546001600160a01b0319166001600160a01b039290921691909117905561278260c0820160a08301613c73565b606c80546001600160a01b0319166001600160a01b03929092169190911790556127b3610100820160e08301613c73565b606e80546001600160a01b0319166001600160a01b039290921691909117905550505050565b6000806127e583612f1b565b905060005b81518110156129485781818151811061280557612805613ee0565b6020026020010151600003156129405760008111801561286057508161282c6001836143a7565b8151811061283c5761283c613ee0565b602002602001015182828151811061285657612856613ee0565b6020026020010151145b156128b45781818151811061287757612877613ee0565b60200260200101516040517fdd57483100000000000000000000000000000000000000000000000000000000815260040161093091815260200190565b606660008383815181106128ca576128ca613ee0565b60209081029190910181015182528101919091526040016000205460ff1615156001036129405781818151811061290357612903613ee0565b60200260200101516040517f41a06d2800000000000000000000000000000000000000000000000000000000815260040161093091815260200190565b6001016127ea565b5050919050565b60008061295b83612f1b565b905060005b81518110156129485781818151811061297b5761297b613ee0565b602002602001015160000315612a6a576000811180156129d65750816129a26001836143a7565b815181106129b2576129b2613ee0565b60200260200101518282815181106129cc576129cc613ee0565b6020026020010151145b156129ed5781818151811061287757612877613ee0565b6000612a11838381518110612a0457612a04613ee0565b6020026020010151612fba565b90508015612a6857828281518110612a2b57612a2b613ee0565b60200260200101516040517f79e1da4700000000000000000000000000000000000000000000000000000000815260040161093091815260200190565b505b600101612960565b6000818015612af957506040516324bd6c1b60e21b8152603460048201526024810184905273__$dc6c4dd02ac6da041aea5ed0aea43c2a22$__906392f5b06c90604401602060405180830381865af4158015612ad3573d6000803e3d6000fd5b505050506040513d601f19601f82011682018060405250810190612af79190613fec565b155b15612b1a57604051630959af5760e31b815260048101849052602401610930565b81158015612ba057506040516324bd6c1b60e21b8152600260048201526024810184905273__$dc6c4dd02ac6da041aea5ed0aea43c2a22$__906392f5b06c90604401602060405180830381865af4158015612b7a573d6000803e3d6000fd5b505050506040513d601f19601f82011682018060405250810190612b9e9190613fec565b155b15612bc157604051630959af5760e31b815260048101849052602401610930565b5060015b92915050565b60005b8151811015610dd657818181518110612be957612be9613ee0565b6020026020010151600014612caa57600273__$dc6c4dd02ac6da041aea5ed0aea43c2a22$__63c1d29f019091848481518110612c2857612c28613ee0565b6020026020010151858581518110612c4257612c42613ee0565b60200260200101516040518463ffffffff1660e01b8152600401612c79939291909283526020830191909152604082015260600190565b60006040518083038186803b158015612c9157600080fd5b505af4158015612ca5573d6000803e3d6000fd5b505050505b600101612bce565b60005b8251811015610fc057828181518110612cd057612cd0613ee0565b6020026020010151600014612d9657603473__$dc6c4dd02ac6da041aea5ed0aea43c2a22$__63c1d29f019091858481518110612d0f57612d0f613ee0565b60209081029190910101516040517fffffffff0000000000000000000000000000000000000000000000000000000060e085901b168152600481019290925260248201526001600160a01b038516604482015260640160006040518083038186803b158015612d7d57600080fd5b505af4158015612d91573d6000803e3d6000fd5b505050505b600101612cb5565b612da782612fd6565b6040516001600160a01b038316907fbc7cd75a20ee27fd9adebab32041f755214dbc6bffa90cc0225b39da2e5c2d3b90600090a2805115612dec57610fc0828261304d565b610dd66130c3565b612dfc612663565b612e078383836130fb565b60408051639e43b81360e01b815260026004820152602481019190915273__$dc6c4dd02ac6da041aea5ed0aea43c2a22$__90639e43b8139060440160006040518083038186803b158015612e5b57600080fd5b505af4158015612e6f573d6000803e3d6000fd5b505060408051639e43b81360e01b815260346004820152602481019190915273__$dc6c4dd02ac6da041aea5ed0aea43c2a22$__9250639e43b813915060440160006040518083038186803b158015612ec757600080fd5b505af4158015610fa4573d6000803e3d6000fd5b612ee3612663565b612eec83611351565b606980546001600160a01b039384166001600160a01b031991821617909155606a805492909316911617905550565b60606000825167ffffffffffffffff811115612f3957612f396135d0565b604051908082528060200260200182016040528015612f62578160200160208202803683370190505b50905060005b8351811015612fb057838181518110612f8357612f83613ee0565b6020026020010151828281518110612f9d57612f9d613ee0565b6020908102919091010152600101612f68565b50611e3381613125565b600080612fc68361313a565b905080612bc557611e3383613202565b806001600160a01b03163b60000361300c57604051634c9c8ce360e01b81526001600160a01b0382166004820152602401610930565b7f360894a13ba1a3210667c828492db98dca3e2076cc3735a920a3ca505d382bbc80546001600160a01b0319166001600160a01b0392909216919091179055565b6060600080846001600160a01b03168460405161306a91906143ba565b600060405180830381855af49150503d80600081146130a5576040519150601f19603f3d011682016040523d82523d6000602084013e6130aa565b606091505b50915091506130ba858383613291565b95945050505050565b3415610f94576040517fb398979f00000000000000000000000000000000000000000000000000000000815260040160405180910390fd5b613103612663565b61310c81613306565b6000613118848261441d565b506001611970838261441d565b60606131338261331761331b565b5090919050565b6000806131478384613333565b6040517fe170cf6e000000000000000000000000000000000000000000000000000000008152600260048201526024810182905290915060009073__$dc6c4dd02ac6da041aea5ed0aea43c2a22$__9063e170cf6e9060440160a060405180830381865af41580156131bd573d6000803e3d6000fd5b505050506040513d601f19601f820116820180604052508101906131e191906144dc565b90506000815160028111156131f8576131f861455c565b1415949350505050565b604051632eda066d60e11b81526034600482015260248101829052600090819073__$dc6c4dd02ac6da041aea5ed0aea43c2a22$__90635db40cda90604401600060405180830381865af415801561325e573d6000803e3d6000fd5b505050506040513d6000823e601f3d908101601f191682016040526132869190810190614291565b602001519392505050565b6060826132a6576132a1826133e1565b611e33565b81511580156132bd57506001600160a01b0384163b155b156132ff576040517f9996b3150000000000000000000000000000000000000000000000000000000081526001600160a01b0385166004820152602401610930565b5080611e33565b61330e612663565b6119ca81613423565b1190565b60606131336020840161332d8561342b565b84613443565b604080516060810182528381526020810183905260018183015290517f25cc70e80000000000000000000000000000000000000000000000000000000081526000919073__$03320550cd1b629da90608251571b2532e$__906325cc70e8906133a0908490600401614572565b602060405180830381865af41580156133bd573d6000803e3d6000fd5b505050506040513d601f19601f82011682018060405250810190610acd9190614105565b8051156133f15780518082602001fd5b6040517fd6bda27500000000000000000000000000000000000000000000000000000000815260040160405180910390fd5b61197e612663565b6000815160200261343c8360200190565b0192915050565b6040838303101561345357505050565b600061345d845190565b905083602081015b8481101561349f57613482613478825190565b848663ffffffff16565b15613497576020919091018051825182528252905b602001613465565b5084518151865281526134b3858285613443565b61134a816020018585613443565b604051806103e00160405280601f906020820280368337509192915050565b6040518060e001604052806007906020820280368337509192915050565b6040518061040001604052806020906020820280368337509192915050565b6040518061010001604052806008906020820280368337509192915050565b604051806102e001604052806017906020820280368337509192915050565b60405180606001604052806003906020820280368337509192915050565b60005b8381101561359457818101518382015260200161357c565b50506000910152565b60208152600082518060208401526135bc816040850160208701613579565b601f01601f19169190910160400192915050565b634e487b7160e01b600052604160045260246000fd5b604051610100810167ffffffffffffffff8111828210171561360a5761360a6135d0565b60405290565b604051601f8201601f1916810167ffffffffffffffff81118282101715613639576136396135d0565b604052919050565b600067ffffffffffffffff82111561365b5761365b6135d0565b5060051b60200190565b600082601f83011261367657600080fd5b813561368961368482613641565b613610565b8082825260208201915060208360051b8601019250858311156136ab57600080fd5b602085015b838110156136c85780358352602092830192016136b0565b5095945050505050565b600061010082840312156136e557600080fd5b50919050565b60008083601f8401126136fd57600080fd5b50813567ffffffffffffffff81111561371557600080fd5b602083019150836020828501011115610ae757600080fd5b600080600080600080610180878903121561374757600080fd5b863567ffffffffffffffff81111561375e57600080fd5b61376a89828a01613665565b965050602087013567ffffffffffffffff81111561378757600080fd5b61379389828a01613665565b955050604087013593506137aa88606089016136d2565b925061016087013567ffffffffffffffff8111156137c757600080fd5b6137d389828a016136eb565b979a9699509497509295939492505050565b60008060008061016085870312156137fc57600080fd5b843567ffffffffffffffff81111561381357600080fd5b61381f87828801613665565b945050602085013567ffffffffffffffff81111561383c57600080fd5b61384887828801613665565b9350506040850135915061385f86606087016136d2565b905092959194509250565b60006020828403121561387c57600080fd5b813567ffffffffffffffff81111561389357600080fd5b610acd84828501613665565b600081518084526020840193506020830160005b828110156138d15781518652602095860195909101906001016138b3565b5093949350505050565b602081526000611e33602083018461389f565b6001600160a01b03811681146119ca57600080fd5b803561390e816138ee565b919050565b6000806040838503121561392657600080fd5b823591506020830135613938816138ee565b809150509250929050565b6000806000806000806000806101c0898b03121561396057600080fd5b883567ffffffffffffffff81111561397757600080fd5b6139838b828c01613665565b985050602089013567ffffffffffffffff8111156139a057600080fd5b6139ac8b828c01613665565b975050604089013567ffffffffffffffff8111156139c957600080fd5b6139d58b828c01613665565b965050606089013594506139ec8a60808b016136d2565b93506139fb6101808a01613903565b92506101a089013567ffffffffffffffff811115613a1857600080fd5b613a248b828c016136eb565b999c989b5096995094979396929594505050565b60008067ffffffffffffffff841115613a5357613a536135d0565b50601f8301601f1916602001613a6881613610565b915050828152838383011115613a7d57600080fd5b828260208301376000602084830101529392505050565b60008060408385031215613aa757600080fd5b8235613ab2816138ee565b9150602083013567ffffffffffffffff811115613ace57600080fd5b8301601f81018513613adf57600080fd5b613aee85823560208401613a38565b9150509250929050565b60008060008060008060006101a0888a031215613b1457600080fd5b87359650602088013567ffffffffffffffff811115613b3257600080fd5b613b3e8a828b01613665565b9650506040880135945060608801359350613b5c8960808a016136d2565b925061018088013567ffffffffffffffff811115613b7957600080fd5b613b858a828b016136eb565b989b979a50959850939692959293505050565b600080600060408486031215613bad57600080fd5b833567ffffffffffffffff811115613bc457600080fd5b613bd086828701613665565b935050602084013567ffffffffffffffff811115613bed57600080fd5b613bf9868287016136eb565b9497909650939450505050565b60008060008060006101808688031215613c1f57600080fd5b85359450602086013567ffffffffffffffff811115613c3d57600080fd5b613c4988828901613665565b9450506040860135925060608601359150613c6787608088016136d2565b90509295509295909350565b600060208284031215613c8557600080fd5b8135611e33816138ee565b60008060008060608587031215613ca657600080fd5b843567ffffffffffffffff811115613cbd57600080fd5b613cc987828801613665565b9450506020850135613cda816138ee565b9250604085013567ffffffffffffffff811115613cf657600080fd5b613d02878288016136eb565b95989497509550505050565b60008060008060006101608688031215613d2757600080fd5b85359450602086013567ffffffffffffffff811115613d4557600080fd5b613d5188828901613665565b945050613d6187604088016136d2565b925061014086013567ffffffffffffffff811115613d7e57600080fd5b613d8a888289016136eb565b969995985093965092949392505050565b60008060006101408486031215613db157600080fd5b83359250602084013567ffffffffffffffff811115613dcf57600080fd5b613ddb86828701613665565b925050613deb85604086016136d2565b90509250925092565b600082601f830112613e0557600080fd5b611e3383833560208501613a38565b600080600080848603610180811215613e2c57600080fd5b853567ffffffffffffffff811115613e4357600080fd5b613e4f88828901613df4565b955050602086013567ffffffffffffffff811115613e6c57600080fd5b613e7888828901613df4565b9450506040860135613e89816138ee565b9250610120605f1982011215613e9e57600080fd5b509295919450926060019150565b600181811c90821680613ec057607f821691505b6020821081036136e557634e487b7160e01b600052602260045260246000fd5b634e487b7160e01b600052603260045260246000fd5b81835281816020850137506000828201602090810191909152601f909101601f19169091010190565b606081526000613f32606083018761389f565b8281036020840152613f44818761389f565b90508281036040840152613f59818587613ef6565b979650505050505050565b8060005b60028110156119705760408285376040938401939190910190600101613f68565b6104e081016040868337613fa06040830186613f64565b60408460c084013761010082018360005b601f811015613fd0578151835260209283019290910190600101613fb1565b50505095945050505050565b8051801515811461390e57600080fd5b600060208284031215613ffe57600080fd5b611e3382613fdc565b6101e08101604086833761401e6040830186613f64565b60408460c084013761010082018360005b6007811015613fd057815183526020928301929091019060010161402f565b610500810160408683376140656040830186613f64565b60408460c084013761010082018360005b6020811015613fd0578151835260209283019290910190600101614076565b610200810160408683376140ac6040830186613f64565b60408460c084013761010082018360005b6008811015613fd05781518352602092830192909101906001016140bd565b634e487b7160e01b600052601160045260246000fd5b80820180821115612bc557612bc56140dc565b60006020828403121561411757600080fd5b5051919050565b858152608060208201526000614137608083018761389f565b8560408401528281036060840152614150818587613ef6565b98975050505050505050565b6103e0810160408683376141736040830186613f64565b60408460c084013761010082018360005b6017811015613fd0578151835260209283019290910190600101614184565b6040815260006141b6604083018661389f565b82810360208401526141c9818587613ef6565b9695505050505050565b610160810160408683376141ea6040830186613f64565b60408460c084013761010082018360005b6003811015613fd05781518352602092830192909101906001016141fb565b60006001820161422c5761422c6140dc565b5060010190565b600082601f83011261424457600080fd5b815161425261368482613641565b8082825260208201915060208360051b86010192508583111561427457600080fd5b602085015b838110156136c8578051835260209283019201614279565b6000602082840312156142a357600080fd5b815167ffffffffffffffff8111156142ba57600080fd5b820161010081850312156142cd57600080fd5b6142d56135e6565b815181526142e560208301613fdc565b6020820152604082015167ffffffffffffffff81111561430457600080fd5b61431086828501614233565b604083015250606082810151908201526080808301519082015261433660a08301613fdc565b60a082015260c0828101519082015260e091820151918101919091529392505050565b60808152600061436c608083018861389f565b828103602084015261437e818861389f565b90508281036040840152614392818761389f565b90508281036060840152614150818587613ef6565b81810381811115612bc557612bc56140dc565b600082516143cc818460208701613579565b9190910192915050565b601f821115610fc057806000526020600020601f840160051c810160208510156143fd5750805b601f840160051c820191505b8181101561134a5760008155600101614409565b815167ffffffffffffffff811115614437576144376135d0565b61444b816144458454613eac565b846143d6565b6020601f82116001811461447f57600083156144675750848201515b600019600385901b1c1916600184901b17845561134a565b600084815260208120601f198516915b828110156144af578785015182556020948501946001909201910161448f565b50848210156144cd5786840151600019600387901b60f8161c191681555b50505050600190811b01905550565b600060a08284031280156144ef57600080fd5b5060405160009060a0810167ffffffffffffffff81118282101715614516576145166135d0565b604052835160038110614527578283fd5b815260208481015190820152604080850151908201526060808501519082015260809384015193810193909352509092915050565b634e487b7160e01b600052602160045260246000fd5b60608101818360005b600381101561459a57815183526020928301929091019060010161457b565b5050509291505056fea2646970667358221220caa74f58371a5c06450b1217a76588813206190c27916877f4a6e051d99a8d4464736f6c634300081b0033",
  "linkReferences": {
    "@iden3/contracts/lib/Poseidon.sol": {
      "PoseidonUnit3L": [
        {
          "length": 20,
          "start": 13237
        }
      ]
    },
    "@iden3/contracts/lib/SmtLib.sol": {
      "SmtLib": [
        {
          "length": 20,
          "start": 3679
        },
        {
          "length": 20,
          "start": 5345
        },
        {
          "length": 20,
          "start": 7013
        },
        {
          "length": 20,
          "start": 7835
        },
        {
          "length": 20,
          "start": 8154
        },
        {
          "length": 20,
          "start": 8387
        },
        {
          "length": 20,
          "start": 10966
        },
        {
          "length": 20,
          "start": 11133
        },
        {
          "length": 20,
          "start": 11321
        },
        {
          "length": 20,
          "start": 11552
        },
        {
          "length": 20,
          "start": 11875
        },
        {
          "length": 20,
          "start": 11981
        },
        {
          "length": 20,
          "start": 12736
        },
        {
          "length": 20,
          "start": 12897
        }
      ]
    }
  },
  "deployedLinkReferences": {
    "@iden3/contracts/lib/Poseidon.sol": {
      "PoseidonUnit3L": [
        {
          "length": 20,
          "start": 13176
        }
      ]
    },
    "@iden3/contracts/lib/SmtLib.sol": {
      "SmtLib": [
        {
          "length": 20,
          "start": 3618
        },
        {
          "length": 20,
          "start": 5284
        },
        {
          "length": 20,
          "start": 6952
        },
        {
          "length": 20,
          "start": 7774
        },
        {
          "length": 20,
          "start": 8093
        },
        {
          "length": 20,
          "start": 8326
        },
        {
          "length": 20,
          "start": 10905
        },
        {
          "length": 20,
          "start": 11072
        },
        {
          "length": 20,
          "start": 11260
        },
        {
          "length": 20,
          "start": 11491
        },
        {
          "length": 20,
          "start": 11814
        },
        {
          "length": 20,
          "start": 11920
        },
        {
          "length": 20,
          "start": 12675
        },
        {
          "length": 20,
          "start": 12836
        }
      ]
    }
  }
}