{
  "_format": "hh-sol-artifact-1",
  "contractName": "zkEscrow2",
  "sourceName": "contracts/test/escrow2.sol",
  "abi": [
    {
      "inputs": [
        {
          "internalType": "address",
          "name": "zetoAddress",
          "type": "address"
        }
      ],
      "stateMutability": "nonpayable",
      "type": "constructor"
    },
    {
      "anonymous": false,
      "inputs": [
        {
          "indexed": false,
          "internalType": "uint256",
          "name": "paymentId",
          "type": "uint256"
        },
        {
          "indexed": false,
          "internalType": "bytes",
          "name": "data",
          "type": "bytes"
        }
      ],
      "name": "PaymentApproved",
      "type": "event"
    },
    {
      "anonymous": false,
      "inputs": [
        {
          "indexed": false,
          "internalType": "uint256",
          "name": "paymentId",
          "type": "uint256"
        },
        {
          "indexed": false,
          "internalType": "bytes",
          "name": "data",
          "type": "bytes"
        }
      ],
      "name": "PaymentCompleted",
      "type": "event"
    },
    {
      "anonymous": false,
      "inputs": [
        {
          "indexed": false,
          "internalType": "uint256",
          "name": "paymentId",
          "type": "uint256"
        },
        {
          "indexed": false,
          "internalType": "uint256[]",
          "name": "nullifiers",
          "type": "uint256[]"
        },
        {
          "indexed": false,
          "internalType": "uint256[]",
          "name": "outputs",
          "type": "uint256[]"
        },
        {
          "indexed": false,
          "internalType": "bytes",
          "name": "data",
          "type": "bytes"
        }
      ],
      "name": "PaymentInitiated",
      "type": "event"
    },
    {
      "inputs": [
        {
          "internalType": "uint256",
          "name": "paymentId",
          "type": "uint256"
        },
        {
          "internalType": "uint256",
          "name": "root",
          "type": "uint256"
        },
        {
          "components": [
            {
              "internalType": "uint256[2]",
              "name": "pA",
              "type": "uint256[2]"
            },
            {
              "internalType": "uint256[2][2]",
              "name": "pB",
              "type": "uint256[2][2]"
            },
            {
              "internalType": "uint256[2]",
              "name": "pC",
              "type": "uint256[2]"
            }
          ],
          "internalType": "struct Commonlib.Proof",
          "name": "proof",
          "type": "tuple"
        },
        {
          "internalType": "bytes",
          "name": "data",
          "type": "bytes"
        }
      ],
      "name": "approvePayment",
      "outputs": [],
      "stateMutability": "nonpayable",
      "type": "function"
    },
    {
      "inputs": [
        {
          "internalType": "uint256",
          "name": "paymentId",
          "type": "uint256"
        },
        {
          "internalType": "bytes",
          "name": "data",
          "type": "bytes"
        }
      ],
      "name": "completePayment",
      "outputs": [],
      "stateMutability": "nonpayable",
      "type": "function"
    },
    {
      "inputs": [
        {
          "internalType": "uint256[]",
          "name": "nullifiers",
          "type": "uint256[]"
        },
        {
          "internalType": "uint256[]",
          "name": "outputs",
          "type": "uint256[]"
        },
        {
          "internalType": "bytes",
          "name": "data",
          "type": "bytes"
        }
      ],
      "name": "initiatePayment",
      "outputs": [],
      "stateMutability": "nonpayable",
      "type": "function"
    },
    {
      "inputs": [
        {
          "internalType": "uint256",
          "name": "",
          "type": "uint256"
        }
      ],
      "name": "payments",
      "outputs": [
        {
          "internalType": "uint256",
          "name": "root",
          "type": "uint256"
        },
        {
          "components": [
            {
              "internalType": "uint256[2]",
              "name": "pA",
              "type": "uint256[2]"
            },
            {
              "internalType": "uint256[2][2]",
              "name": "pB",
              "type": "uint256[2][2]"
            },
            {
              "internalType": "uint256[2]",
              "name": "pC",
              "type": "uint256[2]"
            }
          ],
          "internalType": "struct Commonlib.Proof",
          "name": "proof",
          "type": "tuple"
        },
        {
          "internalType": "enum zkEscrow2.PaymentStatus",
          "name": "status",
          "type": "uint8"
        }
      ],
      "stateMutability": "view",
      "type": "function"
    },
    {
      "inputs": [],
      "name": "zeto",
      "outputs": [
        {
          "internalType": "contract Zeto_AnonNullifier",
          "name": "",
          "type": "address"
        }
      ],
      "stateMutability": "view",
      "type": "function"
    }
  ],
  "bytecode": "0x6080604052348015600f57600080fd5b50604051611172380380611172833981016040819052602c916050565b600280546001600160a01b0319166001600160a01b0392909216919091179055607e565b600060208284031215606157600080fd5b81516001600160a01b0381168114607757600080fd5b9392505050565b6110e58061008d6000396000f3fe608060405234801561001057600080fd5b50600436106100675760003560e01c806387d817891161005057806387d81789146100b1578063b2b3202f146100d3578063e13e2adb146100e657600080fd5b80630a9306021461006c5780635f44682a14610081575b600080fd5b61007f61007a366004610962565b6100f9565b005b600254610094906001600160a01b031681565b6040516001600160a01b0390911681526020015b60405180910390f35b6100c46100bf3660046109ae565b610261565b6040516100a893929190610a61565b61007f6100e1366004610ba4565b610362565b61007f6100f4366004610c8d565b6104c5565b60008381526020819052604090206002600b82015460ff16600481111561012257610122610a4b565b146101745760405162461bcd60e51b815260206004820152601460248201527f5061796d656e74206e6f7420617070726f76656400000000000000000000000060448201526064015b60405180910390fd5b60028054908201546040517fd07b1cfb0000000000000000000000000000000000000000000000000000000081526001600160a01b039092169163d07b1cfb916101cc91859160018301916003840190600401610de9565b6020604051808303816000875af11580156101eb573d6000803e3d6000fd5b505050506040513d601f19601f8201168201806040525081019061020f9190610eaf565b50600b8101805460ff191660031790556040517fb931789441679289dc8924573160ed6f01df9870fcb47e2b353a72209d4d39369061025390869086908690610f01565b60405180910390a150505050565b60006020819052908152604090819020600280820154835160a08101948590529093909160038401918391606083019184919082845b815481526020019060010190808311610297575050505050815260200160028201600280602002604051908101604052809291906000905b8282101561031557604080518082019182905290600284810287019182845b8154815260200190600101908083116102ee575050505050815260200190600101906102cf565b50505090825250604080518082019182905260209092019190600684019060029082845b8154815260200190600101908083116103395750505091909252505050600b9091015460ff1683565b6001805490600061037283610f24565b919050555061037f6107ae565b6040518060a0016040528086815260200185815260200160008152602001828152602001600160048111156103b6576103b6610a4b565b90526001546000908152602081815260409091208251805191926103df928492909101906107e0565b5060208281015180516103f892600185019201906107e0565b506040820151816002015560608201518160030160008201518160000190600261042392919061082b565b5060208201516104399060028084019190610858565b50604082015161044f906006830190600261082b565b5050506080820151600b8201805460ff1916600183600481111561047557610475610a4b565b02179055509050507f65abbbd385e4815434532892d59f0702d32ef39a6665874604ffbdf992e09dbb600154868686866040516104b6959493929190610f7d565b60405180910390a15050505050565b60008581526020819052604090206001600b82015460ff1660048111156104ee576104ee610a4b565b1461053b5760405162461bcd60e51b815260206004820152601560248201527f5061796d656e74206e6f7420696e697469617465640000000000000000000000604482015260640161016b565b600254604051631267394f60e11b81526000916001600160a01b0316906324ce729e9061056c908590600401610fc9565b600060405180830381865afa158015610589573d6000803e3d6000fd5b505050506040513d6000823e601f3d908101601f191682016040526105b19190810190610fdc565b600254604051631267394f60e11b81529192506000916001600160a01b03909116906324ce729e906105ea906001870190600401610fc9565b600060405180830381865afa158015610607573d6000803e3d6000fd5b505050506040513d6000823e601f3d908101601f1916820160405261062f9190810190610fdc565b6002546040517f29bb0a840000000000000000000000000000000000000000000000000000000081529192506001600160a01b0316906329bb0a849061067f90859085908c908c90600401611072565b602060405180830381865afa15801561069c573d6000803e3d6000fd5b505050506040513d601f19601f820116820180604052508101906106c09190610eaf565b61070c5760405162461bcd60e51b815260206004820152600d60248201527f496e76616c69642070726f6f6600000000000000000000000000000000000000604482015260640161016b565b855186906003850190610722908290600261082b565b5060208201516107389060028084019190610858565b50604082015161074e906006830190600261082b565b5050506002838101889055600b8401805460ff191690911790556040517f1c5cbc1c0b9c9aebab4951845aa54dd32a65acb61db3c0a880b9a7318553d26a9061079c908a9088908890610f01565b60405180910390a15050505050505050565b60405180606001604052806107c161089f565b81526020016107ce6108bd565b81526020016107db61089f565b905290565b82805482825590600052602060002090810192821561081b579160200282015b8281111561081b578251825591602001919060010190610800565b506108279291506108ea565b5090565b826002810192821561081b579160200282018281111561081b578251825591602001919060010190610800565b600483019183908215610893579160200282015b82811115610893578251610883908390600261082b565b509160200191906002019061086c565b506108279291506108ff565b60405180604001604052806002906020820280368337509192915050565b60405180604001604052806002905b6108d461089f565b8152602001906001900390816108cc5790505090565b5b8082111561082757600081556001016108eb565b8082111561082757600080825560018201556002016108ff565b60008083601f84011261092b57600080fd5b50813567ffffffffffffffff81111561094357600080fd5b60208301915083602082850101111561095b57600080fd5b9250929050565b60008060006040848603121561097757600080fd5b83359250602084013567ffffffffffffffff81111561099557600080fd5b6109a186828701610919565b9497909650939450505050565b6000602082840312156109c057600080fd5b5035919050565b8060005b60028110156109ea5781518452602093840193909101906001016109cb565b50505050565b6109fb8282516109c7565b60208101516040830160005b6002811015610a3157610a1b8284516109c7565b6020929092019160409190910190600101610a07565b5050506040810151610a4660c08401826109c7565b505050565b634e487b7160e01b600052602160045260246000fd5b8381526101408101610a7660208301856109f0565b60058310610a9457634e487b7160e01b600052602160045260246000fd5b82610120830152949350505050565b634e487b7160e01b600052604160045260246000fd5b6040516060810167ffffffffffffffff81118282101715610adc57610adc610aa3565b60405290565b604051601f8201601f1916810167ffffffffffffffff81118282101715610b0b57610b0b610aa3565b604052919050565b600067ffffffffffffffff821115610b2d57610b2d610aa3565b5060051b60200190565b600082601f830112610b4857600080fd5b8135610b5b610b5682610b13565b610ae2565b8082825260208201915060208360051b860101925085831115610b7d57600080fd5b602085015b83811015610b9a578035835260209283019201610b82565b5095945050505050565b60008060008060608587031215610bba57600080fd5b843567ffffffffffffffff811115610bd157600080fd5b610bdd87828801610b37565b945050602085013567ffffffffffffffff811115610bfa57600080fd5b610c0687828801610b37565b935050604085013567ffffffffffffffff811115610c2357600080fd5b610c2f87828801610919565b95989497509550505050565b600082601f830112610c4c57600080fd5b610c566040610ae2565b806040840185811115610c6857600080fd5b845b81811015610c82578035845260209384019301610c6a565b509095945050505050565b6000806000806000858703610160811215610ca757600080fd5b8635955060208701359450610100603f1982011215610cc557600080fd5b50610cce610ab9565b610cdb8860408901610c3b565b815287609f880112610cec57600080fd5b6040610cf781610ae2565b806101008a018b811115610d0a57600080fd5b60808b015b81811015610d3057610d218d82610c3b565b84526020909301928401610d0f565b50816020860152610d418c82610c3b565b84860152505050508093505061014086013567ffffffffffffffff811115610d6857600080fd5b610d7488828901610919565b969995985093965092949392505050565b6000815480845260208401935082600052602060002060005b82811015610dbc578154865260209095019460019182019101610d9e565b5093949350505050565b8060005b60028110156109ea578154845260209093019260019182019101610dca565b61018081526000610dfe610180830187610d85565b8281036020840152610e108187610d85565b9050846040840152610e256060840185610dc6565b60a083016002850160005b6002811015610e5957610e438383610dc6565b6040929092019160029190910190600101610e30565b505050610e6d610120840160068601610dc6565b828103610160840152600281527f3078000000000000000000000000000000000000000000000000000000000000602082015260408101979650505050505050565b600060208284031215610ec157600080fd5b81518015158114610ed157600080fd5b9392505050565b81835281816020850137506000828201602090810191909152601f909101601f19169091010190565b838152604060208201526000610f1b604083018486610ed8565b95945050505050565b600060018201610f4457634e487b7160e01b600052601160045260246000fd5b5060010190565b600081518084526020840193506020830160005b82811015610dbc578151865260209586019590910190600101610f5f565b858152608060208201526000610f966080830187610f4b565b8281036040840152610fa88187610f4b565b90508281036060840152610fbd818587610ed8565b98975050505050505050565b602081526000610ed16020830184610d85565b600060208284031215610fee57600080fd5b815167ffffffffffffffff81111561100557600080fd5b8201601f8101841361101657600080fd5b8051611024610b5682610b13565b8082825260208201915060208360051b85010192508683111561104657600080fd5b6020840193505b8284101561106857835182526020938401939091019061104d565b9695505050505050565b61016081526000611087610160830187610f4b565b82810360208401526110998187610f4b565b915050836040830152610f1b60608301846109f056fea26469706673582212206074e75e1a1e0d48c925febfe8e0564b24ec455803ecdcedea83eb3318be618864736f6c634300081b0033",
  "linkReferences": {},
  "deployedLinkReferences": {}
}