{
  "_format": "hh-sol-artifact-1",
  "contractName": "zkEscrow1",
  "sourceName": "contracts/test/escrow1.sol",
  "abi": [
    {
      "inputs": [
        {
          "internalType": "address",
          "name": "zetoAddress",
          "type": "address"
        }
      ],
      "stateMutability": "nonpayable",
      "type": "constructor"
    },
    {
      "anonymous": false,
      "inputs": [
        {
          "indexed": false,
          "internalType": "uint256",
          "name": "paymentId",
          "type": "uint256"
        },
        {
          "indexed": false,
          "internalType": "bytes",
          "name": "data",
          "type": "bytes"
        }
      ],
      "name": "PaymentApproved",
      "type": "event"
    },
    {
      "anonymous": false,
      "inputs": [
        {
          "indexed": false,
          "internalType": "uint256",
          "name": "paymentId",
          "type": "uint256"
        },
        {
          "indexed": false,
          "internalType": "bytes",
          "name": "data",
          "type": "bytes"
        }
      ],
      "name": "PaymentCompleted",
      "type": "event"
    },
    {
      "anonymous": false,
      "inputs": [
        {
          "indexed": false,
          "internalType": "uint256",
          "name": "paymentId",
          "type": "uint256"
        },
        {
          "indexed": false,
          "internalType": "uint256[]",
          "name": "lockedInputs",
          "type": "uint256[]"
        },
        {
          "indexed": false,
          "internalType": "uint256[]",
          "name": "outputs",
          "type": "uint256[]"
        },
        {
          "indexed": false,
          "internalType": "bytes",
          "name": "data",
          "type": "bytes"
        }
      ],
      "name": "PaymentInitiated",
      "type": "event"
    },
    {
      "inputs": [
        {
          "internalType": "uint256",
          "name": "paymentId",
          "type": "uint256"
        },
        {
          "components": [
            {
              "internalType": "uint256[2]",
              "name": "pA",
              "type": "uint256[2]"
            },
            {
              "internalType": "uint256[2][2]",
              "name": "pB",
              "type": "uint256[2][2]"
            },
            {
              "internalType": "uint256[2]",
              "name": "pC",
              "type": "uint256[2]"
            }
          ],
          "internalType": "struct Commonlib.Proof",
          "name": "proof",
          "type": "tuple"
        },
        {
          "internalType": "bytes",
          "name": "data",
          "type": "bytes"
        }
      ],
      "name": "approvePayment",
      "outputs": [],
      "stateMutability": "nonpayable",
      "type": "function"
    },
    {
      "inputs": [
        {
          "internalType": "uint256",
          "name": "paymentId",
          "type": "uint256"
        },
        {
          "internalType": "bytes",
          "name": "data",
          "type": "bytes"
        }
      ],
      "name": "completePayment",
      "outputs": [],
      "stateMutability": "nonpayable",
      "type": "function"
    },
    {
      "inputs": [
        {
          "internalType": "uint256[]",
          "name": "lockedInputs",
          "type": "uint256[]"
        },
        {
          "internalType": "uint256[]",
          "name": "outputs",
          "type": "uint256[]"
        },
        {
          "internalType": "bytes",
          "name": "data",
          "type": "bytes"
        }
      ],
      "name": "initiatePayment",
      "outputs": [],
      "stateMutability": "nonpayable",
      "type": "function"
    },
    {
      "inputs": [
        {
          "internalType": "uint256",
          "name": "",
          "type": "uint256"
        }
      ],
      "name": "payments",
      "outputs": [
        {
          "internalType": "enum zkEscrow1.PaymentStatus",
          "name": "status",
          "type": "uint8"
        },
        {
          "components": [
            {
              "internalType": "uint256[2]",
              "name": "pA",
              "type": "uint256[2]"
            },
            {
              "internalType": "uint256[2][2]",
              "name": "pB",
              "type": "uint256[2][2]"
            },
            {
              "internalType": "uint256[2]",
              "name": "pC",
              "type": "uint256[2]"
            }
          ],
          "internalType": "struct Commonlib.Proof",
          "name": "proof",
          "type": "tuple"
        }
      ],
      "stateMutability": "view",
      "type": "function"
    },
    {
      "inputs": [],
      "name": "zeto",
      "outputs": [
        {
          "internalType": "contract Zeto_Anon",
          "name": "",
          "type": "address"
        }
      ],
      "stateMutability": "view",
      "type": "function"
    }
  ],
  "bytecode": "0x6080604052348015600f57600080fd5b506040516112f03803806112f0833981016040819052602c916050565b600280546001600160a01b0319166001600160a01b0392909216919091179055607e565b600060208284031215606157600080fd5b81516001600160a01b0381168114607757600080fd5b9392505050565b6112638061008d6000396000f3fe608060405234801561001057600080fd5b50600436106100675760003560e01c80637fdf5dbe116100505780637fdf5dbe146100b157806387d81789146100c4578063b2b3202f146100e557600080fd5b80630a9306021461006c5780635f44682a14610081575b600080fd5b61007f61007a366004610ab3565b6100f8565b005b600254610094906001600160a01b031681565b6040516001600160a01b0390911681526020015b60405180910390f35b61007f6100bf366004610bc1565b61025a565b6100d76100d2366004610caa565b61055d565b6040516100a8929190610d5d565b61007f6100f3366004610e28565b61065a565b600083815260208190526040902060028082015460ff16600481111561012057610120610cc3565b146101725760405162461bcd60e51b815260206004820152601460248201527f5061796d656e74206e6f7420617070726f76656400000000000000000000000060448201526064015b60405180910390fd5b6002546040517f0a978c840000000000000000000000000000000000000000000000000000000081526001600160a01b0390911690630a978c84906101c590849060018201906003830190600401610f0b565b6020604051808303816000875af11580156101e4573d6000803e3d6000fd5b505050506040513d601f19601f820116820180604052508101906102089190610fe0565b5060028101805460ff191660031790556040517fb931789441679289dc8924573160ed6f01df9870fcb47e2b353a72209d4d39369061024c90869086908690611024565b60405180910390a150505050565b60008481526020819052604090206001600282015460ff16600481111561028357610283610cc3565b146102d05760405162461bcd60e51b815260206004820152601560248201527f5061796d656e74206e6f7420696e6974696174656400000000000000000000006044820152606401610169565b600254604051631267394f60e11b81526001600160a01b03909116906324ce729e90610300908490600401611047565b600060405180830381865afa15801561031d573d6000803e3d6000fd5b505050506040513d6000823e601f3d908101601f19168201604052610345919081019061105a565b80516103589183916020909101906108ff565b50600254604051631267394f60e11b81526001600160a01b03909116906324ce729e9061038c906001850190600401611047565b600060405180830381865afa1580156103a9573d6000803e3d6000fd5b505050506040513d6000823e601f3d908101601f191682016040526103d1919081019061105a565b80516103e79160018401916020909101906108ff565b506002546040517f0b1a03580000000000000000000000000000000000000000000000000000000081526001600160a01b0390911690630b1a035890610438908490600182019089906004016110f0565b602060405180830381865afa158015610455573d6000803e3d6000fd5b505050506040513d601f19601f820116820180604052508101906104799190610fe0565b6104c55760405162461bcd60e51b815260206004820152600d60248201527f496e76616c69642070726f6f66000000000000000000000000000000000000006044820152606401610169565b8351849060038301906104db908290600261094a565b5060208201516104f19060028084019190610977565b506040820151610507906006830190600261094a565b5050506002818101805460ff191690911790556040517f1c5cbc1c0b9c9aebab4951845aa54dd32a65acb61db3c0a880b9a7318553d26a9061054e90879086908690611024565b60405180910390a15050505050565b60006020819052908152604090819020600280820154835160a081019485905260ff90911693909160038401918391606083019184919082845b815481526020019060010190808311610597575050505050815260200160028201600280602002604051908101604052809291906000905b8282101561061557604080518082019182905290600284810287019182845b8154815260200190600101908083116105ee575050505050815260200190600101906105cf565b50505090825250604080518082019182905260209092019190600684019060029082845b81548152602001906001019080831161063957505050505081525050905082565b60005b84518110156107d457600254855160009182916001600160a01b039091169063b45a3c0e908990869081106106945761069461112f565b60200260200101516040518263ffffffff1660e01b81526004016106ba91815260200190565b6040805180830381865afa1580156106d6573d6000803e3d6000fd5b505050506040513d601f19601f820116820180604052508101906106fa9190611145565b90925090508161074c5760405162461bcd60e51b815260206004820152601060248201527f496e707574206e6f74206c6f636b6564000000000000000000000000000000006044820152606401610169565b6001600160a01b03811630146107ca5760405162461bcd60e51b815260206004820152602160248201527f496e707574206e6f74206c6f636b656420746f207468697320636f6e7472616360448201527f74000000000000000000000000000000000000000000000000000000000000006064820152608401610169565b505060010161065d565b50600180549060006107e583611188565b91905055506107f26109be565b6040805160808101825286815260208101869052908101600181526020908101839052600154600090815280825260409020825180519192610839928492909101906108ff565b50602082810151805161085292600185019201906108ff565b50604082015160028201805460ff1916600183600481111561087657610876610cc3565b0217905550606082015180516003830190610894908290600261094a565b5060208201516108aa9060028084019190610977565b5060408201516108c0906006830190600261094a565b5050509050507f65abbbd385e4815434532892d59f0702d32ef39a6665874604ffbdf992e09dbb6001548686868660405161054e9594939291906111e1565b82805482825590600052602060002090810192821561093a579160200282015b8281111561093a57825182559160200191906001019061091f565b506109469291506109f0565b5090565b826002810192821561093a579160200282018281111561093a57825182559160200191906001019061091f565b6004830191839082156109b2579160200282015b828111156109b25782516109a2908390600261094a565b509160200191906002019061098b565b50610946929150610a05565b60405180606001604052806109d1610a1f565b81526020016109de610a3d565b81526020016109eb610a1f565b905290565b5b8082111561094657600081556001016109f1565b808211156109465760008082556001820155600201610a05565b60405180604001604052806002906020820280368337509192915050565b60405180604001604052806002905b610a54610a1f565b815260200190600190039081610a4c5790505090565b60008083601f840112610a7c57600080fd5b50813567ffffffffffffffff811115610a9457600080fd5b602083019150836020828501011115610aac57600080fd5b9250929050565b600080600060408486031215610ac857600080fd5b83359250602084013567ffffffffffffffff811115610ae657600080fd5b610af286828701610a6a565b9497909650939450505050565b634e487b7160e01b600052604160045260246000fd5b6040516060810167ffffffffffffffff81118282101715610b3857610b38610aff565b60405290565b604051601f8201601f1916810167ffffffffffffffff81118282101715610b6757610b67610aff565b604052919050565b600082601f830112610b8057600080fd5b610b8a6040610b3e565b806040840185811115610b9c57600080fd5b845b81811015610bb6578035845260209384019301610b9e565b509095945050505050565b600080600080848603610140811215610bd957600080fd5b85359450610100601f1982011215610bf057600080fd5b50610bf9610b15565b610c068760208801610b6f565b815286607f870112610c1757600080fd5b6040610c2281610b3e565b8060e089018a811115610c3457600080fd5b60608a015b81811015610c5a57610c4b8c82610b6f565b84526020909301928401610c39565b50816020860152610c6b8b82610b6f565b84860152505050508093505061012085013567ffffffffffffffff811115610c9257600080fd5b610c9e87828801610a6a565b95989497509550505050565b600060208284031215610cbc57600080fd5b5035919050565b634e487b7160e01b600052602160045260246000fd5b8060005b6002811015610cfc578151845260209384019390910190600101610cdd565b50505050565b610d0d828251610cd9565b60208101516040830160005b6002811015610d4357610d2d828451610cd9565b6020929092019160409190910190600101610d19565b5050506040810151610d5860c0840182610cd9565b505050565b610120810160058410610d8057634e487b7160e01b600052602160045260246000fd5b838252610d906020830184610d02565b9392505050565b600067ffffffffffffffff821115610db157610db1610aff565b5060051b60200190565b600082601f830112610dcc57600080fd5b8135610ddf610dda82610d97565b610b3e565b8082825260208201915060208360051b860101925085831115610e0157600080fd5b602085015b83811015610e1e578035835260209283019201610e06565b5095945050505050565b60008060008060608587031215610e3e57600080fd5b843567ffffffffffffffff811115610e5557600080fd5b610e6187828801610dbb565b945050602085013567ffffffffffffffff811115610e7e57600080fd5b610e8a87828801610dbb565b935050604085013567ffffffffffffffff811115610c9257600080fd5b6000815480845260208401935082600052602060002060005b82811015610ede578154865260209095019460019182019101610ec0565b5093949350505050565b8060005b6002811015610cfc578154845260209093019260019182019101610eec565b61016081526000610f20610160830186610ea7565b8281036020840152610f328186610ea7565b9050610f416040840185610ee8565b608083016002850160005b6002811015610f7557610f5f8383610ee8565b6040929092019160029190910190600101610f4c565b505050610f89610100840160068601610ee8565b8281036101409093019290925250600281527f307800000000000000000000000000000000000000000000000000000000000060208201526040019392505050565b80518015158114610fdb57600080fd5b919050565b600060208284031215610ff257600080fd5b610d9082610fcb565b81835281816020850137506000828201602090810191909152601f909101601f19169091010190565b83815260406020820152600061103e604083018486610ffb565b95945050505050565b602081526000610d906020830184610ea7565b60006020828403121561106c57600080fd5b815167ffffffffffffffff81111561108357600080fd5b8201601f8101841361109457600080fd5b80516110a2610dda82610d97565b8082825260208201915060208360051b8501019250868311156110c457600080fd5b6020840193505b828410156110e65783518252602093840193909101906110cb565b9695505050505050565b61014081526000611105610140830186610ea7565b82810360208401526111178186610ea7565b9150506111276040830184610d02565b949350505050565b634e487b7160e01b600052603260045260246000fd5b6000806040838503121561115857600080fd5b61116183610fcb565b915060208301516001600160a01b038116811461117d57600080fd5b809150509250929050565b6000600182016111a857634e487b7160e01b600052601160045260246000fd5b5060010190565b600081518084526020840193506020830160005b82811015610ede5781518652602095860195909101906001016111c3565b8581526080602082015260006111fa60808301876111af565b828103604084015261120c81876111af565b90508281036060840152611221818587610ffb565b9897505050505050505056fea26469706673582212200e3a2e1c8af6b03ecad2227513ee1f189166402372863336043b1f263b04b53564736f6c634300081b0033",
  "linkReferences": {},
  "deployedLinkReferences": {}
}